Archive member included to satisfy reference by file (symbol)

.\CortexM0\ARM_GCC_541\Debug\Lesson6_LED_SW_Counter_INT.a(CyLib.o)
                              .\CortexM0\ARM_GCC_541\Debug\cyfitter_cfg.o (CyIntEnable)
.\CortexM0\ARM_GCC_541\Debug\Lesson6_LED_SW_Counter_INT.a(CyLFClk.o)
                              .\CortexM0\ARM_GCC_541\Debug\cyfitter_cfg.o (CySysClkWcoStart)
.\CortexM0\ARM_GCC_541\Debug\Lesson6_LED_SW_Counter_INT.a(LED_GREEN.o)
                              .\CortexM0\ARM_GCC_541\Debug\main.o (LED_GREEN_Write)
.\CortexM0\ARM_GCC_541\Debug\Lesson6_LED_SW_Counter_INT.a(Led_Counter.o)
                              .\CortexM0\ARM_GCC_541\Debug\main.o (Led_Counter_Start)
.\CortexM0\ARM_GCC_541\Debug\Lesson6_LED_SW_Counter_INT.a(Led_Counter_Int.o)
                              .\CortexM0\ARM_GCC_541\Debug\main.o (Led_Counter_Int_StartEx)
.\CortexM0\ARM_GCC_541\Debug\Lesson6_LED_SW_Counter_INT.a(CyBootAsmGnu.o)
                              .\CortexM0\ARM_GCC_541\Debug\cyfitter_cfg.o (CyDelayCycles)
c:/program files (x86)/cypress/psoc creator/4.2/psoc creator/import/gnu/arm/5.4.1/bin/../lib/gcc/arm-none-eabi/5.4.1/armv6-m\libgcc.a(_udivsi3.o)
                              .\CortexM0\ARM_GCC_541\Debug\Lesson6_LED_SW_Counter_INT.a(CyLib.o) (__aeabi_uidiv)
c:/program files (x86)/cypress/psoc creator/4.2/psoc creator/import/gnu/arm/5.4.1/bin/../lib/gcc/arm-none-eabi/5.4.1/armv6-m\libgcc.a(_divsi3.o)
                              .\CortexM0\ARM_GCC_541\Debug\Lesson6_LED_SW_Counter_INT.a(CyLFClk.o) (__aeabi_idiv)
c:/program files (x86)/cypress/psoc creator/4.2/psoc creator/import/gnu/arm/5.4.1/bin/../lib/gcc/arm-none-eabi/5.4.1/armv6-m\libgcc.a(_dvmd_tls.o)
                              c:/program files (x86)/cypress/psoc creator/4.2/psoc creator/import/gnu/arm/5.4.1/bin/../lib/gcc/arm-none-eabi/5.4.1/armv6-m\libgcc.a(_udivsi3.o) (__aeabi_idiv0)
c:/program files (x86)/cypress/psoc creator/4.2/psoc creator/import/gnu/arm/5.4.1/bin/../lib/gcc/arm-none-eabi/5.4.1/../../../../arm-none-eabi/lib/armv6-m\libg_nano.a(lib_a-errno.o)
                              .\CortexM0\ARM_GCC_541\Debug\Cm0Start.o (__errno)
c:/program files (x86)/cypress/psoc creator/4.2/psoc creator/import/gnu/arm/5.4.1/bin/../lib/gcc/arm-none-eabi/5.4.1/../../../../arm-none-eabi/lib/armv6-m\libg_nano.a(lib_a-exit.o)
                              c:/program files (x86)/cypress/psoc creator/4.2/psoc creator/import/gnu/arm/5.4.1/bin/../lib/gcc/arm-none-eabi/5.4.1/../../../../arm-none-eabi/lib/armv6-m/crt0.o (exit)
c:/program files (x86)/cypress/psoc creator/4.2/psoc creator/import/gnu/arm/5.4.1/bin/../lib/gcc/arm-none-eabi/5.4.1/../../../../arm-none-eabi/lib/armv6-m\libg_nano.a(lib_a-impure.o)
                              c:/program files (x86)/cypress/psoc creator/4.2/psoc creator/import/gnu/arm/5.4.1/bin/../lib/gcc/arm-none-eabi/5.4.1/../../../../arm-none-eabi/lib/armv6-m\libg_nano.a(lib_a-exit.o) (_global_impure_ptr)
c:/program files (x86)/cypress/psoc creator/4.2/psoc creator/import/gnu/arm/5.4.1/bin/../lib/gcc/arm-none-eabi/5.4.1/../../../../arm-none-eabi/lib/armv6-m\libg_nano.a(lib_a-init.o)
                              c:/program files (x86)/cypress/psoc creator/4.2/psoc creator/import/gnu/arm/5.4.1/bin/../lib/gcc/arm-none-eabi/5.4.1/../../../../arm-none-eabi/lib/armv6-m/crt0.o (__libc_init_array)
c:/program files (x86)/cypress/psoc creator/4.2/psoc creator/import/gnu/arm/5.4.1/bin/../lib/gcc/arm-none-eabi/5.4.1/../../../../arm-none-eabi/lib/armv6-m\libg_nano.a(lib_a-memset.o)
                              c:/program files (x86)/cypress/psoc creator/4.2/psoc creator/import/gnu/arm/5.4.1/bin/../lib/gcc/arm-none-eabi/5.4.1/../../../../arm-none-eabi/lib/armv6-m/crt0.o (memset)

Discarded input sections

 .text          0x00000000        0x0 c:/program files (x86)/cypress/psoc creator/4.2/psoc creator/import/gnu/arm/5.4.1/bin/../lib/gcc/arm-none-eabi/5.4.1/armv6-m/crti.o
 .data          0x00000000        0x0 c:/program files (x86)/cypress/psoc creator/4.2/psoc creator/import/gnu/arm/5.4.1/bin/../lib/gcc/arm-none-eabi/5.4.1/armv6-m/crti.o
 .bss           0x00000000        0x0 c:/program files (x86)/cypress/psoc creator/4.2/psoc creator/import/gnu/arm/5.4.1/bin/../lib/gcc/arm-none-eabi/5.4.1/armv6-m/crti.o
 .data          0x00000000        0x4 c:/program files (x86)/cypress/psoc creator/4.2/psoc creator/import/gnu/arm/5.4.1/bin/../lib/gcc/arm-none-eabi/5.4.1/armv6-m/crtbegin.o
 .text          0x00000000       0x78 c:/program files (x86)/cypress/psoc creator/4.2/psoc creator/import/gnu/arm/5.4.1/bin/../lib/gcc/arm-none-eabi/5.4.1/../../../../arm-none-eabi/lib/armv6-m/crt0.o
 .data          0x00000000        0x0 c:/program files (x86)/cypress/psoc creator/4.2/psoc creator/import/gnu/arm/5.4.1/bin/../lib/gcc/arm-none-eabi/5.4.1/../../../../arm-none-eabi/lib/armv6-m/crt0.o
 .bss           0x00000000        0x0 c:/program files (x86)/cypress/psoc creator/4.2/psoc creator/import/gnu/arm/5.4.1/bin/../lib/gcc/arm-none-eabi/5.4.1/../../../../arm-none-eabi/lib/armv6-m/crt0.o
 .ARM.extab     0x00000000        0x0 c:/program files (x86)/cypress/psoc creator/4.2/psoc creator/import/gnu/arm/5.4.1/bin/../lib/gcc/arm-none-eabi/5.4.1/../../../../arm-none-eabi/lib/armv6-m/crt0.o
 .ARM.exidx     0x00000000        0x8 c:/program files (x86)/cypress/psoc creator/4.2/psoc creator/import/gnu/arm/5.4.1/bin/../lib/gcc/arm-none-eabi/5.4.1/../../../../arm-none-eabi/lib/armv6-m/crt0.o
 .text          0x00000000        0x0 .\CortexM0\ARM_GCC_541\Debug\main.o
 .data          0x00000000        0x0 .\CortexM0\ARM_GCC_541\Debug\main.o
 .bss           0x00000000        0x0 .\CortexM0\ARM_GCC_541\Debug\main.o
 .text          0x00000000        0x0 .\CortexM0\ARM_GCC_541\Debug\cyfitter_cfg.o
 .data          0x00000000        0x0 .\CortexM0\ARM_GCC_541\Debug\cyfitter_cfg.o
 .bss           0x00000000        0x0 .\CortexM0\ARM_GCC_541\Debug\cyfitter_cfg.o
 .text          0x00000000        0x0 .\CortexM0\ARM_GCC_541\Debug\cymetadata.o
 .data          0x00000000        0x0 .\CortexM0\ARM_GCC_541\Debug\cymetadata.o
 .bss           0x00000000        0x0 .\CortexM0\ARM_GCC_541\Debug\cymetadata.o
Memory Configuration

Name             Origin             Length             Attributes
rom              0x00000000         0x00040000         xr
ram              0x20000000         0x00008000         xrw
*default*        0x00000000         0xffffffff

Linker script and memory map

LOAD c:/program files (x86)/cypress/psoc creator/4.2/psoc creator/import/gnu/arm/5.4.1/bin/../lib/gcc/arm-none-eabi/5.4.1/armv6-m/crti.o
LOAD c:/program files (x86)/cypress/psoc creator/4.2/psoc creator/import/gnu/arm/5.4.1/bin/../lib/gcc/arm-none-eabi/5.4.1/armv6-m/crtbegin.o
LOAD c:/program files (x86)/cypress/psoc creator/4.2/psoc creator/import/gnu/arm/5.4.1/bin/../lib/gcc/arm-none-eabi/5.4.1/../../../../arm-none-eabi/lib/armv6-m/crt0.o
START GROUP
LOAD .\CortexM0\ARM_GCC_541\Debug\main.o
LOAD .\CortexM0\ARM_GCC_541\Debug\cyfitter_cfg.o
LOAD .\CortexM0\ARM_GCC_541\Debug\cymetadata.o
LOAD .\CortexM0\ARM_GCC_541\Debug\Cm0Start.o
LOAD .\CortexM0\ARM_GCC_541\Debug\Lesson6_LED_SW_Counter_INT.a
END GROUP
START GROUP
LOAD c:/program files (x86)/cypress/psoc creator/4.2/psoc creator/import/gnu/arm/5.4.1/bin/../lib/gcc/arm-none-eabi/5.4.1/armv6-m\libgcc.a
LOAD c:/program files (x86)/cypress/psoc creator/4.2/psoc creator/import/gnu/arm/5.4.1/bin/../lib/gcc/arm-none-eabi/5.4.1/../../../../arm-none-eabi/lib/armv6-m\libg_nano.a
LOAD c:/program files (x86)/cypress/psoc creator/4.2/psoc creator/import/gnu/arm/5.4.1/bin/../lib/gcc/arm-none-eabi/5.4.1/../../../../arm-none-eabi/lib/armv6-m\libc_nano.a
END GROUP
START GROUP
LOAD c:/program files (x86)/cypress/psoc creator/4.2/psoc creator/import/gnu/arm/5.4.1/bin/../lib/gcc/arm-none-eabi/5.4.1/armv6-m\libgcc.a
LOAD c:/program files (x86)/cypress/psoc creator/4.2/psoc creator/import/gnu/arm/5.4.1/bin/../lib/gcc/arm-none-eabi/5.4.1/../../../../arm-none-eabi/lib/armv6-m\libc_nano.a
END GROUP
LOAD c:/program files (x86)/cypress/psoc creator/4.2/psoc creator/import/gnu/arm/5.4.1/bin/../lib/gcc/arm-none-eabi/5.4.1/armv6-m/crtend.o
LOAD c:/program files (x86)/cypress/psoc creator/4.2/psoc creator/import/gnu/arm/5.4.1/bin/../lib/gcc/arm-none-eabi/5.4.1/armv6-m/crtn.o
START GROUP
LOAD c:/program files (x86)/cypress/psoc creator/4.2/psoc creator/import/gnu/arm/5.4.1/bin/../lib/gcc/arm-none-eabi/5.4.1/armv6-m\libgcc.a
LOAD c:/program files (x86)/cypress/psoc creator/4.2/psoc creator/import/gnu/arm/5.4.1/bin/../lib/gcc/arm-none-eabi/5.4.1/../../../../arm-none-eabi/lib/armv6-m\libc.a
LOAD c:/program files (x86)/cypress/psoc creator/4.2/psoc creator/import/gnu/arm/5.4.1/bin/../lib/gcc/arm-none-eabi/5.4.1/../../../../arm-none-eabi/lib/armv6-m\libnosys.a
END GROUP
                0x00000000                CY_APPL_ORIGIN = 0x0
                0x00000100                CY_FLASH_ROW_SIZE = 0x100
                0x00000001                CY_APPL_NUM = 0x1
                0x00000001                CY_APPL_MAX = 0x1
                0x00000040                CY_METADATA_SIZE = 0x40
                0x00000000                CY_APPL_LOADABLE = 0x0
                0x00000000                CY_CHECKSUM_EXCLUDE_SIZE = ALIGN (0x0, CY_FLASH_ROW_SIZE)
                0x00000000                CY_APP_FOR_STACK_AND_COPIER = 0x0
                [!provide]                PROVIDE (__cy_heap_start, _end)
                0x00000001                PROVIDE (__cy_region_num, ((__cy_regions_end - __cy_regions) / 0x10))
                0x20008000                PROVIDE (__cy_stack, (ORIGIN (ram) + LENGTH (ram)))
                [!provide]                PROVIDE (__cy_heap_end, (__cy_stack - 0x800))

.cybootloader   0x00000000        0x0
 *(.cybootloader)
                0x00000000                appl1_start = CY_APPL_ORIGIN?CY_APPL_ORIGIN:ALIGN (CY_FLASH_ROW_SIZE)
                0x0001ff00                appl2_start = (appl1_start + ALIGN ((((LENGTH (rom) - appl1_start) - (0x2 * CY_FLASH_ROW_SIZE)) / 0x2), CY_FLASH_ROW_SIZE))
                0x00000000                appl_start = (CY_APPL_NUM == 0x1)?appl1_start:appl2_start
                0x00000001                cy_project_type_bootloader = (appl_start == 0x0)?0x1:0x0
                0x00000000                cy_project_type_app_for_stack_and_copier = (CY_APP_FOR_STACK_AND_COPIER == 0x1)?0x1:0x0

.text           0x00000000      0x958
 CREATE_OBJECT_SYMBOLS
                0x00000000                PROVIDE (__cy_interrupt_vector, RomVectors)
 *(.romvectors)
 .romvectors    0x00000000       0x10 .\CortexM0\ARM_GCC_541\Debug\Cm0Start.o
                0x00000000                RomVectors
                0x00000001                ASSERT ((. != __cy_interrupt_vector), No interrupt vector)
                0x00000001                ASSERT (CY_APPL_ORIGIN?(SIZEOF (.cybootloader) <= CY_APPL_ORIGIN):0x1, Wrong image location)
                0x00000010                PROVIDE (__cy_reset, Reset)
 *(.text.Reset)
 .text.Reset    0x00000010        0x8 .\CortexM0\ARM_GCC_541\Debug\Cm0Start.o
                0x00000010                Reset
                0x00000001                ASSERT ((. != __cy_reset), No reset code)
 *(.psocinit)
 .psocinit      0x00000018      0x19c .\CortexM0\ARM_GCC_541\Debug\cyfitter_cfg.o
                0x000000f0                cyfitter_cfg
                0x000001b4                . = MAX (., 0x100)
 *(.text .text.* .gnu.linkonce.t.*)
 .text          0x000001b4       0x60 c:/program files (x86)/cypress/psoc creator/4.2/psoc creator/import/gnu/arm/5.4.1/bin/../lib/gcc/arm-none-eabi/5.4.1/armv6-m/crtbegin.o
 .text.Led_Counter_Int_Handler
                0x00000214       0x18 .\CortexM0\ARM_GCC_541\Debug\main.o
                0x00000214                Led_Counter_Int_Handler
 .text.main     0x0000022c       0x18 .\CortexM0\ARM_GCC_541\Debug\main.o
                0x0000022c                main
 .text.cfg_write_bytes32
                0x00000244       0x34 .\CortexM0\ARM_GCC_541\Debug\cyfitter_cfg.o
 .text.AnalogSetDefault
                0x00000278       0x20 .\CortexM0\ARM_GCC_541\Debug\cyfitter_cfg.o
 .text.CYMEMZERO
                0x00000298        0xc .\CortexM0\ARM_GCC_541\Debug\cyfitter_cfg.o
 .text.IntDefaultHandler
                0x000002a4       0x10 .\CortexM0\ARM_GCC_541\Debug\Cm0Start.o
                0x000002a4                IntDefaultHandler
 .text.Start_c  0x000002b4       0x48 .\CortexM0\ARM_GCC_541\Debug\Cm0Start.o
                0x000002b4                Start_c
 .text.initialize_psoc
                0x000002fc       0x4c .\CortexM0\ARM_GCC_541\Debug\Cm0Start.o
                0x000002fc                initialize_psoc
 .text.CySysClkEcoReadStatus
                0x00000348       0x10 .\CortexM0\ARM_GCC_541\Debug\Lesson6_LED_SW_Counter_INT.a(CyLib.o)
                0x00000348                CySysClkEcoReadStatus
 .text.CyIntEnable
                0x00000358       0x14 .\CortexM0\ARM_GCC_541\Debug\Lesson6_LED_SW_Counter_INT.a(CyLib.o)
                0x00000358                CyIntEnable
 .text.CyHalt   0x0000036c        0x4 .\CortexM0\ARM_GCC_541\Debug\Lesson6_LED_SW_Counter_INT.a(CyLib.o)
                0x0000036c                CyHalt
 .text.CyIntSetVector
                0x00000370       0x24 .\CortexM0\ARM_GCC_541\Debug\Lesson6_LED_SW_Counter_INT.a(CyLib.o)
                0x00000370                CyIntSetVector
 .text.CyDelayUs
                0x00000394       0x14 .\CortexM0\ARM_GCC_541\Debug\Lesson6_LED_SW_Counter_INT.a(CyLib.o)
                0x00000394                CyDelayUs
 .text.CySysClkWriteImoFreq
                0x000003a8      0x164 .\CortexM0\ARM_GCC_541\Debug\Lesson6_LED_SW_Counter_INT.a(CyLib.o)
                0x000003a8                CySysClkWriteImoFreq
 .text.CySysClkEcoStart
                0x0000050c       0x54 .\CortexM0\ARM_GCC_541\Debug\Lesson6_LED_SW_Counter_INT.a(CyLib.o)
                0x0000050c                CySysClkEcoStart
 .text.CySysWdtLocked
                0x00000560       0x14 .\CortexM0\ARM_GCC_541\Debug\Lesson6_LED_SW_Counter_INT.a(CyLFClk.o)
 .text.CySysClkWcoStart
                0x00000574       0x40 .\CortexM0\ARM_GCC_541\Debug\Lesson6_LED_SW_Counter_INT.a(CyLFClk.o)
                0x00000574                CySysClkWcoStart
 .text.CySysClkWcoSetPowerMode
                0x000005b4       0x80 .\CortexM0\ARM_GCC_541\Debug\Lesson6_LED_SW_Counter_INT.a(CyLFClk.o)
                0x000005b4                CySysClkWcoSetPowerMode
 .text.CySysWdtLock
                0x00000634       0x1c .\CortexM0\ARM_GCC_541\Debug\Lesson6_LED_SW_Counter_INT.a(CyLFClk.o)
                0x00000634                CySysWdtLock
 .text.CySysWdtUnlock
                0x00000650       0x30 .\CortexM0\ARM_GCC_541\Debug\Lesson6_LED_SW_Counter_INT.a(CyLFClk.o)
                0x00000650                CySysWdtUnlock
 .text.CySysWdtClearInterrupt
                0x00000680       0x4c .\CortexM0\ARM_GCC_541\Debug\Lesson6_LED_SW_Counter_INT.a(CyLFClk.o)
                0x00000680                CySysWdtClearInterrupt
 .text.CySysWdtIsr
                0x000006cc       0xa4 .\CortexM0\ARM_GCC_541\Debug\Lesson6_LED_SW_Counter_INT.a(CyLFClk.o)
                0x000006cc                CySysWdtIsr
 .text.LED_GREEN_Write
                0x00000770       0x18 .\CortexM0\ARM_GCC_541\Debug\Lesson6_LED_SW_Counter_INT.a(LED_GREEN.o)
                0x00000770                LED_GREEN_Write
 .text.LED_GREEN_Read
                0x00000788       0x10 .\CortexM0\ARM_GCC_541\Debug\Lesson6_LED_SW_Counter_INT.a(LED_GREEN.o)
                0x00000788                LED_GREEN_Read
 .text.Led_Counter_WriteCounter
                0x00000798       0x10 .\CortexM0\ARM_GCC_541\Debug\Lesson6_LED_SW_Counter_INT.a(Led_Counter.o)
                0x00000798                Led_Counter_WriteCounter
 .text.Led_Counter_WritePeriod
                0x000007a8       0x10 .\CortexM0\ARM_GCC_541\Debug\Lesson6_LED_SW_Counter_INT.a(Led_Counter.o)
                0x000007a8                Led_Counter_WritePeriod
 .text.Led_Counter_TriggerCommand
                0x000007b8       0x1c .\CortexM0\ARM_GCC_541\Debug\Lesson6_LED_SW_Counter_INT.a(Led_Counter.o)
                0x000007b8                Led_Counter_TriggerCommand
 .text.Led_Counter_Enable
                0x000007d4       0x24 .\CortexM0\ARM_GCC_541\Debug\Lesson6_LED_SW_Counter_INT.a(Led_Counter.o)
                0x000007d4                Led_Counter_Enable
 .text.Led_Counter_SetInterruptMode
                0x000007f8        0xc .\CortexM0\ARM_GCC_541\Debug\Lesson6_LED_SW_Counter_INT.a(Led_Counter.o)
                0x000007f8                Led_Counter_SetInterruptMode
 .text.Led_Counter_Init
                0x00000804       0x30 .\CortexM0\ARM_GCC_541\Debug\Lesson6_LED_SW_Counter_INT.a(Led_Counter.o)
                0x00000804                Led_Counter_Init
 .text.Led_Counter_Start
                0x00000834       0x20 .\CortexM0\ARM_GCC_541\Debug\Lesson6_LED_SW_Counter_INT.a(Led_Counter.o)
                0x00000834                Led_Counter_Start
 .text.Led_Counter_ClearInterrupt
                0x00000854        0xc .\CortexM0\ARM_GCC_541\Debug\Lesson6_LED_SW_Counter_INT.a(Led_Counter.o)
                0x00000854                Led_Counter_ClearInterrupt
 .text.Led_Counter_Int_SetVector
                0x00000860        0xc .\CortexM0\ARM_GCC_541\Debug\Lesson6_LED_SW_Counter_INT.a(Led_Counter_Int.o)
                0x00000860                Led_Counter_Int_SetVector
 .text.Led_Counter_Int_SetPriority
                0x0000086c       0x24 .\CortexM0\ARM_GCC_541\Debug\Lesson6_LED_SW_Counter_INT.a(Led_Counter_Int.o)
                0x0000086c                Led_Counter_Int_SetPriority
 .text.Led_Counter_Int_Enable
                0x00000890       0x10 .\CortexM0\ARM_GCC_541\Debug\Lesson6_LED_SW_Counter_INT.a(Led_Counter_Int.o)
                0x00000890                Led_Counter_Int_Enable
 .text.Led_Counter_Int_Disable
                0x000008a0       0x10 .\CortexM0\ARM_GCC_541\Debug\Lesson6_LED_SW_Counter_INT.a(Led_Counter_Int.o)
                0x000008a0                Led_Counter_Int_Disable
 .text.Led_Counter_Int_StartEx
                0x000008b0       0x1c .\CortexM0\ARM_GCC_541\Debug\Lesson6_LED_SW_Counter_INT.a(Led_Counter_Int.o)
                0x000008b0                Led_Counter_Int_StartEx
 *fill*         0x000008cc        0x4 
 .text          0x000008d0       0x20 .\CortexM0\ARM_GCC_541\Debug\Lesson6_LED_SW_Counter_INT.a(CyBootAsmGnu.o)
                0x000008d0                CyDelayCycles
                0x000008e2                CyEnterCriticalSection
                0x000008ea                CyExitCriticalSection
 .text.__errno  0x000008f0        0xc c:/program files (x86)/cypress/psoc creator/4.2/psoc creator/import/gnu/arm/5.4.1/bin/../lib/gcc/arm-none-eabi/5.4.1/../../../../arm-none-eabi/lib/armv6-m\libg_nano.a(lib_a-errno.o)
                0x000008f0                __errno
 .text.__libc_init_array
                0x000008fc       0x4c c:/program files (x86)/cypress/psoc creator/4.2/psoc creator/import/gnu/arm/5.4.1/bin/../lib/gcc/arm-none-eabi/5.4.1/../../../../arm-none-eabi/lib/armv6-m\libg_nano.a(lib_a-init.o)
                0x000008fc                __libc_init_array
 .text.memset   0x00000948       0x10 c:/program files (x86)/cypress/psoc creator/4.2/psoc creator/import/gnu/arm/5.4.1/bin/../lib/gcc/arm-none-eabi/5.4.1/../../../../arm-none-eabi/lib/armv6-m\libg_nano.a(lib_a-memset.o)
                0x00000948                memset
 *(.plt)
 *(.gnu.warning)
 *(.glue_7t)
 .glue_7t       0x00000958        0x0 linker stubs
 *(.glue_7)
 .glue_7        0x00000958        0x0 linker stubs
 *(.vfp11_veneer)
 .vfp11_veneer  0x00000958        0x0 linker stubs
 *(.bootloader)
 *(.ARM.extab* .gnu.linkonce.armextab.*)
 *(.gcc_except_table)

.v4_bx          0x00000958        0x0
 .v4_bx         0x00000958        0x0 linker stubs

.iplt           0x00000958        0x0
 .iplt          0x00000958        0x0 c:/program files (x86)/cypress/psoc creator/4.2/psoc creator/import/gnu/arm/5.4.1/bin/../lib/gcc/arm-none-eabi/5.4.1/armv6-m/crtbegin.o

.eh_frame_hdr
 *(.eh_frame_hdr)

.eh_frame       0x00000958        0x4
 *(.eh_frame)
 .eh_frame      0x00000958        0x0 c:/program files (x86)/cypress/psoc creator/4.2/psoc creator/import/gnu/arm/5.4.1/bin/../lib/gcc/arm-none-eabi/5.4.1/armv6-m/crtbegin.o
 .eh_frame      0x00000958        0x4 c:/program files (x86)/cypress/psoc creator/4.2/psoc creator/import/gnu/arm/5.4.1/bin/../lib/gcc/arm-none-eabi/5.4.1/armv6-m/crtend.o
                [!provide]                PROVIDE (__exidx_start, .)

.ARM.exidx
 *(.ARM.exidx* .gnu.linkonce.armexidx.*)
                0x0000095c                __exidx_end = .

.rodata         0x0000095c       0x7c
 *(.rodata .rodata.* .gnu.linkonce.r.*)
 .rodata        0x0000095c       0x18 .\CortexM0\ARM_GCC_541\Debug\cyfitter_cfg.o
 .rodata        0x00000974       0x2e .\CortexM0\ARM_GCC_541\Debug\Lesson6_LED_SW_Counter_INT.a(CyLib.o)
                0x00000974                cyImoFreqMhz2Reg
 .rodata.str1.1
                0x000009a2        0x2 c:/program files (x86)/cypress/psoc creator/4.2/psoc creator/import/gnu/arm/5.4.1/bin/../lib/gcc/arm-none-eabi/5.4.1/../../../../arm-none-eabi/lib/armv6-m\libg_nano.a(lib_a-impure.o)
                0x000009a4                . = ALIGN (0x4)
 *(.init)
 .init          0x000009a4        0x4 c:/program files (x86)/cypress/psoc creator/4.2/psoc creator/import/gnu/arm/5.4.1/bin/../lib/gcc/arm-none-eabi/5.4.1/armv6-m/crti.o
                0x000009a4                _init
 .init          0x000009a8        0x8 c:/program files (x86)/cypress/psoc creator/4.2/psoc creator/import/gnu/arm/5.4.1/bin/../lib/gcc/arm-none-eabi/5.4.1/armv6-m/crtn.o
                0x000009b0                . = ALIGN (0x4)
                0x000009b0                __preinit_array_start = .
 *(.preinit_array)
                0x000009b0                __preinit_array_end = .
                0x000009b0                . = ALIGN (0x4)
                0x000009b0                __init_array_start = .
 *(SORT(.init_array.*))
 *(.init_array)
 .init_array    0x000009b0        0x4 c:/program files (x86)/cypress/psoc creator/4.2/psoc creator/import/gnu/arm/5.4.1/bin/../lib/gcc/arm-none-eabi/5.4.1/armv6-m/crtbegin.o
 .init_array    0x000009b4        0x4 .\CortexM0\ARM_GCC_541\Debug\Cm0Start.o
                0x000009b8                __init_array_end = .
                0x000009b8                . = ALIGN (0x4)
 *(.fini)
 .fini          0x000009b8        0x4 c:/program files (x86)/cypress/psoc creator/4.2/psoc creator/import/gnu/arm/5.4.1/bin/../lib/gcc/arm-none-eabi/5.4.1/armv6-m/crti.o
                0x000009b8                _fini
 .fini          0x000009bc        0x8 c:/program files (x86)/cypress/psoc creator/4.2/psoc creator/import/gnu/arm/5.4.1/bin/../lib/gcc/arm-none-eabi/5.4.1/armv6-m/crtn.o
                0x000009c4                . = ALIGN (0x4)
                0x000009c4                __fini_array_start = .
 *(.fini_array)
 .fini_array    0x000009c4        0x4 c:/program files (x86)/cypress/psoc creator/4.2/psoc creator/import/gnu/arm/5.4.1/bin/../lib/gcc/arm-none-eabi/5.4.1/armv6-m/crtbegin.o
 *(SORT(.fini_array.*))
                0x000009c8                __fini_array_end = .
                0x000009c8                . = ALIGN (0x4)
 *crtbegin.o(.ctors)
 *(EXCLUDE_FILE(*crtend.o) .ctors)
 *(SORT(.ctors.*))
 *crtend.o(.ctors)
                0x000009c8                . = ALIGN (0x4)
 *crtbegin.o(.dtors)
 *(EXCLUDE_FILE(*crtend.o) .dtors)
 *(SORT(.dtors.*))
 *crtend.o(.dtors)
                0x000009c8                . = ALIGN (0x4)
                0x000009c8                __cy_regions = .
                0x000009c8        0x4 LONG 0x9d8 __cy_region_init_ram
                0x000009cc        0x4 LONG 0x200000c0 __cy_region_start_data
                0x000009d0        0x4 LONG 0x88 __cy_region_init_size_ram
                0x000009d4        0x4 LONG 0x48 __cy_region_zero_size_ram
                0x000009d8                __cy_regions_end = .
                0x000009d8                . = ALIGN (0x8)
                0x000009d8                _etext = .

.cy_checksum_exclude
                0x000009d8        0x0
 *(.cy_checksum_exclude)

.ramvectors     0x20000000       0xc0
                0x20000000                __cy_region_start_ram = .
 *(.ramvectors)
 .ramvectors    0x20000000       0xc0 .\CortexM0\ARM_GCC_541\Debug\Cm0Start.o
                0x20000000                CyRamVectors

.noinit
 *(.noinit)

.data           0x200000c0       0x88 load address 0x000009d8
                0x200000c0                __cy_region_start_data = .
 *(.jcr)
 .jcr           0x200000c0        0x0 c:/program files (x86)/cypress/psoc creator/4.2/psoc creator/import/gnu/arm/5.4.1/bin/../lib/gcc/arm-none-eabi/5.4.1/armv6-m/crtbegin.o
 .jcr           0x200000c0        0x4 c:/program files (x86)/cypress/psoc creator/4.2/psoc creator/import/gnu/arm/5.4.1/bin/../lib/gcc/arm-none-eabi/5.4.1/armv6-m/crtend.o
 *(.got.plt)
 *(.got)
 *(.shdata)
 *(.data .data.* .gnu.linkonce.d.*)
 .data          0x200000c4       0x14 .\CortexM0\ARM_GCC_541\Debug\Lesson6_LED_SW_Counter_INT.a(CyLib.o)
                0x200000c4                CySysClkPumpConfig
                0x200000c8                cydelay32kMs
                0x200000cc                cydelayFreqKhz
                0x200000d0                cydelayFreqMhz
                0x200000d4                cydelayFreqHz
 .data          0x200000d8        0x8 .\CortexM0\ARM_GCC_541\Debug\Lesson6_LED_SW_Counter_INT.a(CyLFClk.o)
 .data.impure_data
                0x200000e0       0x60 c:/program files (x86)/cypress/psoc creator/4.2/psoc creator/import/gnu/arm/5.4.1/bin/../lib/gcc/arm-none-eabi/5.4.1/../../../../arm-none-eabi/lib/armv6-m\libg_nano.a(lib_a-impure.o)
 .data._impure_ptr
                0x20000140        0x4 c:/program files (x86)/cypress/psoc creator/4.2/psoc creator/import/gnu/arm/5.4.1/bin/../lib/gcc/arm-none-eabi/5.4.1/../../../../arm-none-eabi/lib/armv6-m\libg_nano.a(lib_a-impure.o)
                0x20000140                _impure_ptr
                0x20000148                . = ALIGN (0x8)
 *fill*         0x20000144        0x4 
 *(.ram)
                0x20000148                _edata = .

.igot.plt       0x20000148        0x0 load address 0x00000a60
 .igot.plt      0x20000148        0x0 c:/program files (x86)/cypress/psoc creator/4.2/psoc creator/import/gnu/arm/5.4.1/bin/../lib/gcc/arm-none-eabi/5.4.1/armv6-m/crtbegin.o

.bss            0x20000148       0x48 load address 0x00000a60
                0x20000148                PROVIDE (__bss_start__, .)
 *(.shbss)
 *(.bss .bss.* .gnu.linkonce.b.*)
 .bss           0x20000148       0x1c c:/program files (x86)/cypress/psoc creator/4.2/psoc creator/import/gnu/arm/5.4.1/bin/../lib/gcc/arm-none-eabi/5.4.1/armv6-m/crtbegin.o
 .bss           0x20000164       0x28 .\CortexM0\ARM_GCC_541\Debug\Lesson6_LED_SW_Counter_INT.a(CyLFClk.o)
 .bss           0x2000018c        0x1 .\CortexM0\ARM_GCC_541\Debug\Lesson6_LED_SW_Counter_INT.a(Led_Counter.o)
                0x2000018c                Led_Counter_initVar
 *(COMMON)
                0x20000190                . = ALIGN (0x8)
 *fill*         0x2000018d        0x3 
 *(.ram.b)
                0x20000190                _end = .
                0x20000190                __end = .
                0x20000190                PROVIDE (end, .)
                0x20000190                PROVIDE (__bss_end__, .)
                0x000009d8                __cy_region_init_ram = LOADADDR (.data)
                0x00000088                __cy_region_init_size_ram = (_edata - ADDR (.data))
                0x00000048                __cy_region_zero_size_ram = (_end - _edata)

.heap           0x20000190       0x80 load address 0x00000a60
                0x20000190                . = _end
                0x20000210                . = (. + 0x80)
 *fill*         0x20000190       0x80 
                0x20000210                __cy_heap_limit = .

.stack          0x20007800      0x800
                0x20007800                __cy_stack_limit = .
                0x20008000                . = (. + 0x800)
 *fill*         0x20007800      0x800 
                0x00000001                ASSERT ((__cy_stack_limit >= __cy_heap_limit), region RAM overflowed with stack)
                0x00000000                cy_checksum_exclude_size = (CY_APPL_LOADABLE == 0x1)?SIZEOF (.cy_checksum_exclude):0x0
                0x00000001                ASSERT ((cy_checksum_exclude_size <= CY_CHECKSUM_EXCLUDE_SIZE), CY_BOOT: Section .cy_checksum_exclude size exceedes specified limit.)
                0x0003ffc0                cyloadermeta_start = (cy_project_type_bootloader || cy_project_type_app_for_stack_and_copier)?(LENGTH (rom) - CY_METADATA_SIZE):0xf0000000

.cyloadermeta
 *(.cyloadermeta)
                0x0003ffc0                cyloadablemeta_start = cy_project_type_app_for_stack_and_copier?((LENGTH (rom) - CY_FLASH_ROW_SIZE) - CY_METADATA_SIZE):((LENGTH (rom) - (CY_FLASH_ROW_SIZE * (CY_APPL_NUM - 0x1))) - CY_METADATA_SIZE)

.cyloadablemeta
 *(.cyloadablemeta)

.cyflashprotect
                0x90400000       0x80
 *(.cyflashprotect)
 .cyflashprotect
                0x90400000       0x80 .\CortexM0\ARM_GCC_541\Debug\cymetadata.o
                0x90400000                cy_meta_flashprotect

.cymeta         0x90500000        0xc
 *(.cymeta)
 .cymeta        0x90500000        0xc .\CortexM0\ARM_GCC_541\Debug\cymetadata.o
                0x90500000                cy_metadata

.cychipprotect  0x90600000        0x1
 *(.cychipprotect)
 .cychipprotect
                0x90600000        0x1 .\CortexM0\ARM_GCC_541\Debug\cymetadata.o
                0x90600000                cy_meta_chipprotect

.rel.dyn        0x00000a60        0x0 load address 0x90600004
 .rel.iplt      0x00000a60        0x0 c:/program files (x86)/cypress/psoc creator/4.2/psoc creator/import/gnu/arm/5.4.1/bin/../lib/gcc/arm-none-eabi/5.4.1/armv6-m/crtbegin.o

.stab
 *(.stab)

.stabstr
 *(.stabstr)

.debug
 *(.debug)

.line
 *(.line)

.debug_srcinfo
 *(.debug_srcinfo)

.debug_sfnames
 *(.debug_sfnames)

.debug_aranges  0x00000000      0x660
 *(.debug_aranges)
 .debug_aranges
                0x00000000       0x28 .\CortexM0\ARM_GCC_541\Debug\main.o
 .debug_aranges
                0x00000028       0x40 .\CortexM0\ARM_GCC_541\Debug\cyfitter_cfg.o
 .debug_aranges
                0x00000068       0x18 .\CortexM0\ARM_GCC_541\Debug\cymetadata.o
 .debug_aranges
                0x00000080       0x48 .\CortexM0\ARM_GCC_541\Debug\Cm0Start.o
 .debug_aranges
                0x000000c8      0x1d0 .\CortexM0\ARM_GCC_541\Debug\Lesson6_LED_SW_Counter_INT.a(CyLib.o)
 .debug_aranges
                0x00000298      0x188 .\CortexM0\ARM_GCC_541\Debug\Lesson6_LED_SW_Counter_INT.a(CyLFClk.o)
 .debug_aranges
                0x00000420       0x48 .\CortexM0\ARM_GCC_541\Debug\Lesson6_LED_SW_Counter_INT.a(LED_GREEN.o)
 .debug_aranges
                0x00000468      0x158 .\CortexM0\ARM_GCC_541\Debug\Lesson6_LED_SW_Counter_INT.a(Led_Counter.o)
 .debug_aranges
                0x000005c0       0x80 .\CortexM0\ARM_GCC_541\Debug\Lesson6_LED_SW_Counter_INT.a(Led_Counter_Int.o)
 .debug_aranges
                0x00000640       0x20 .\CortexM0\ARM_GCC_541\Debug\Lesson6_LED_SW_Counter_INT.a(CyBootAsmGnu.o)

.debug_pubnames
 *(.debug_pubnames)

.debug_info     0x00000000     0x3607
 *(.debug_info .gnu.linkonce.wi.*)
 .debug_info    0x00000000      0x141 .\CortexM0\ARM_GCC_541\Debug\main.o
 .debug_info    0x00000141      0x450 .\CortexM0\ARM_GCC_541\Debug\cyfitter_cfg.o
 .debug_info    0x00000591       0xf8 .\CortexM0\ARM_GCC_541\Debug\cymetadata.o
 .debug_info    0x00000689      0x3a2 .\CortexM0\ARM_GCC_541\Debug\Cm0Start.o
 .debug_info    0x00000a2b      0xd2b .\CortexM0\ARM_GCC_541\Debug\Lesson6_LED_SW_Counter_INT.a(CyLib.o)
 .debug_info    0x00001756     0x1071 .\CortexM0\ARM_GCC_541\Debug\Lesson6_LED_SW_Counter_INT.a(CyLFClk.o)
 .debug_info    0x000027c7      0x19d .\CortexM0\ARM_GCC_541\Debug\Lesson6_LED_SW_Counter_INT.a(LED_GREEN.o)
 .debug_info    0x00002964      0x8f4 .\CortexM0\ARM_GCC_541\Debug\Lesson6_LED_SW_Counter_INT.a(Led_Counter.o)
 .debug_info    0x00003258      0x305 .\CortexM0\ARM_GCC_541\Debug\Lesson6_LED_SW_Counter_INT.a(Led_Counter_Int.o)
 .debug_info    0x0000355d       0xaa .\CortexM0\ARM_GCC_541\Debug\Lesson6_LED_SW_Counter_INT.a(CyBootAsmGnu.o)

.debug_abbrev   0x00000000      0xc4b
 *(.debug_abbrev)
 .debug_abbrev  0x00000000       0xb1 .\CortexM0\ARM_GCC_541\Debug\main.o
 .debug_abbrev  0x000000b1      0x1af .\CortexM0\ARM_GCC_541\Debug\cyfitter_cfg.o
 .debug_abbrev  0x00000260       0x5d .\CortexM0\ARM_GCC_541\Debug\cymetadata.o
 .debug_abbrev  0x000002bd      0x1d7 .\CortexM0\ARM_GCC_541\Debug\Cm0Start.o
 .debug_abbrev  0x00000494      0x1e0 .\CortexM0\ARM_GCC_541\Debug\Lesson6_LED_SW_Counter_INT.a(CyLib.o)
 .debug_abbrev  0x00000674      0x248 .\CortexM0\ARM_GCC_541\Debug\Lesson6_LED_SW_Counter_INT.a(CyLFClk.o)
 .debug_abbrev  0x000008bc       0xc8 .\CortexM0\ARM_GCC_541\Debug\Lesson6_LED_SW_Counter_INT.a(LED_GREEN.o)
 .debug_abbrev  0x00000984      0x119 .\CortexM0\ARM_GCC_541\Debug\Lesson6_LED_SW_Counter_INT.a(Led_Counter.o)
 .debug_abbrev  0x00000a9d      0x19a .\CortexM0\ARM_GCC_541\Debug\Lesson6_LED_SW_Counter_INT.a(Led_Counter_Int.o)
 .debug_abbrev  0x00000c37       0x14 .\CortexM0\ARM_GCC_541\Debug\Lesson6_LED_SW_Counter_INT.a(CyBootAsmGnu.o)

.debug_line     0x00000000     0x16d9
 *(.debug_line)
 .debug_line    0x00000000       0xa5 .\CortexM0\ARM_GCC_541\Debug\main.o
 .debug_line    0x000000a5      0x18c .\CortexM0\ARM_GCC_541\Debug\cyfitter_cfg.o
 .debug_line    0x00000231      0x141 .\CortexM0\ARM_GCC_541\Debug\cymetadata.o
 .debug_line    0x00000372      0x236 .\CortexM0\ARM_GCC_541\Debug\Cm0Start.o
 .debug_line    0x000005a8      0x553 .\CortexM0\ARM_GCC_541\Debug\Lesson6_LED_SW_Counter_INT.a(CyLib.o)
 .debug_line    0x00000afb      0x5db .\CortexM0\ARM_GCC_541\Debug\Lesson6_LED_SW_Counter_INT.a(CyLFClk.o)
 .debug_line    0x000010d6       0xc1 .\CortexM0\ARM_GCC_541\Debug\Lesson6_LED_SW_Counter_INT.a(LED_GREEN.o)
 .debug_line    0x00001197      0x37f .\CortexM0\ARM_GCC_541\Debug\Lesson6_LED_SW_Counter_INT.a(Led_Counter.o)
 .debug_line    0x00001516      0x15b .\CortexM0\ARM_GCC_541\Debug\Lesson6_LED_SW_Counter_INT.a(Led_Counter_Int.o)
 .debug_line    0x00001671       0x68 .\CortexM0\ARM_GCC_541\Debug\Lesson6_LED_SW_Counter_INT.a(CyBootAsmGnu.o)

.debug_frame    0x00000000     0x10e0
 *(.debug_frame)
 .debug_frame   0x00000000       0x48 .\CortexM0\ARM_GCC_541\Debug\main.o
 .debug_frame   0x00000048       0x9c .\CortexM0\ARM_GCC_541\Debug\cyfitter_cfg.o
 .debug_frame   0x000000e4       0xbc .\CortexM0\ARM_GCC_541\Debug\Cm0Start.o
 .debug_frame   0x000001a0      0x4a4 .\CortexM0\ARM_GCC_541\Debug\Lesson6_LED_SW_Counter_INT.a(CyLib.o)
 .debug_frame   0x00000644      0x4a8 .\CortexM0\ARM_GCC_541\Debug\Lesson6_LED_SW_Counter_INT.a(CyLFClk.o)
 .debug_frame   0x00000aec       0x70 .\CortexM0\ARM_GCC_541\Debug\Lesson6_LED_SW_Counter_INT.a(LED_GREEN.o)
 .debug_frame   0x00000b5c      0x3a0 .\CortexM0\ARM_GCC_541\Debug\Lesson6_LED_SW_Counter_INT.a(Led_Counter.o)
 .debug_frame   0x00000efc      0x110 .\CortexM0\ARM_GCC_541\Debug\Lesson6_LED_SW_Counter_INT.a(Led_Counter_Int.o)
 .debug_frame   0x0000100c       0x20 c:/program files (x86)/cypress/psoc creator/4.2/psoc creator/import/gnu/arm/5.4.1/bin/../lib/gcc/arm-none-eabi/5.4.1/armv6-m\libgcc.a(_udivsi3.o)
 .debug_frame   0x0000102c       0x20 c:/program files (x86)/cypress/psoc creator/4.2/psoc creator/import/gnu/arm/5.4.1/bin/../lib/gcc/arm-none-eabi/5.4.1/armv6-m\libgcc.a(_divsi3.o)
 .debug_frame   0x0000104c       0x20 c:/program files (x86)/cypress/psoc creator/4.2/psoc creator/import/gnu/arm/5.4.1/bin/../lib/gcc/arm-none-eabi/5.4.1/../../../../arm-none-eabi/lib/armv6-m\libg_nano.a(lib_a-errno.o)
 .debug_frame   0x0000106c       0x28 c:/program files (x86)/cypress/psoc creator/4.2/psoc creator/import/gnu/arm/5.4.1/bin/../lib/gcc/arm-none-eabi/5.4.1/../../../../arm-none-eabi/lib/armv6-m\libg_nano.a(lib_a-exit.o)
 .debug_frame   0x00001094       0x2c c:/program files (x86)/cypress/psoc creator/4.2/psoc creator/import/gnu/arm/5.4.1/bin/../lib/gcc/arm-none-eabi/5.4.1/../../../../arm-none-eabi/lib/armv6-m\libg_nano.a(lib_a-init.o)
 .debug_frame   0x000010c0       0x20 c:/program files (x86)/cypress/psoc creator/4.2/psoc creator/import/gnu/arm/5.4.1/bin/../lib/gcc/arm-none-eabi/5.4.1/../../../../arm-none-eabi/lib/armv6-m\libg_nano.a(lib_a-memset.o)

.debug_str      0x00000000     0x188d
 *(.debug_str)
 .debug_str     0x00000000      0x1e4 .\CortexM0\ARM_GCC_541\Debug\main.o
                                0x224 (size before relaxing)
 .debug_str     0x000001e4      0x183 .\CortexM0\ARM_GCC_541\Debug\cyfitter_cfg.o
                                0x342 (size before relaxing)
 .debug_str     0x00000367       0x63 .\CortexM0\ARM_GCC_541\Debug\cymetadata.o
                                0x1e2 (size before relaxing)
 .debug_str     0x000003ca      0x13a .\CortexM0\ARM_GCC_541\Debug\Cm0Start.o
                                0x31b (size before relaxing)
 .debug_str     0x00000504      0x5d7 .\CortexM0\ARM_GCC_541\Debug\Lesson6_LED_SW_Counter_INT.a(CyLib.o)
                                0x812 (size before relaxing)
 .debug_str     0x00000adb      0x6ec .\CortexM0\ARM_GCC_541\Debug\Lesson6_LED_SW_Counter_INT.a(CyLFClk.o)
                                0x952 (size before relaxing)
 .debug_str     0x000011c7       0xa8 .\CortexM0\ARM_GCC_541\Debug\Lesson6_LED_SW_Counter_INT.a(LED_GREEN.o)
                                0x26c (size before relaxing)
 .debug_str     0x0000126f      0x4b5 .\CortexM0\ARM_GCC_541\Debug\Lesson6_LED_SW_Counter_INT.a(Led_Counter.o)
                                0x6c7 (size before relaxing)
 .debug_str     0x00001724      0x169 .\CortexM0\ARM_GCC_541\Debug\Lesson6_LED_SW_Counter_INT.a(Led_Counter_Int.o)
                                0x390 (size before relaxing)

.debug_loc      0x00000000     0x1e94
 *(.debug_loc)
 .debug_loc     0x00000000      0x118 .\CortexM0\ARM_GCC_541\Debug\cyfitter_cfg.o
 .debug_loc     0x00000118      0x14f .\CortexM0\ARM_GCC_541\Debug\Cm0Start.o
 .debug_loc     0x00000267      0x818 .\CortexM0\ARM_GCC_541\Debug\Lesson6_LED_SW_Counter_INT.a(CyLib.o)
 .debug_loc     0x00000a7f      0xdaa .\CortexM0\ARM_GCC_541\Debug\Lesson6_LED_SW_Counter_INT.a(CyLFClk.o)
 .debug_loc     0x00001829       0xa2 .\CortexM0\ARM_GCC_541\Debug\Lesson6_LED_SW_Counter_INT.a(LED_GREEN.o)
 .debug_loc     0x000018cb      0x547 .\CortexM0\ARM_GCC_541\Debug\Lesson6_LED_SW_Counter_INT.a(Led_Counter.o)
 .debug_loc     0x00001e12       0x82 .\CortexM0\ARM_GCC_541\Debug\Lesson6_LED_SW_Counter_INT.a(Led_Counter_Int.o)

.debug_macinfo
 *(.debug_macinfo)

.debug_ranges   0x00000000      0x5a8
 *(.debug_ranges)
 .debug_ranges  0x00000000       0x18 .\CortexM0\ARM_GCC_541\Debug\main.o
 .debug_ranges  0x00000018       0x30 .\CortexM0\ARM_GCC_541\Debug\cyfitter_cfg.o
 .debug_ranges  0x00000048       0x38 .\CortexM0\ARM_GCC_541\Debug\Cm0Start.o
 .debug_ranges  0x00000080      0x1c0 .\CortexM0\ARM_GCC_541\Debug\Lesson6_LED_SW_Counter_INT.a(CyLib.o)
 .debug_ranges  0x00000240      0x178 .\CortexM0\ARM_GCC_541\Debug\Lesson6_LED_SW_Counter_INT.a(CyLFClk.o)
 .debug_ranges  0x000003b8       0x38 .\CortexM0\ARM_GCC_541\Debug\Lesson6_LED_SW_Counter_INT.a(LED_GREEN.o)
 .debug_ranges  0x000003f0      0x148 .\CortexM0\ARM_GCC_541\Debug\Lesson6_LED_SW_Counter_INT.a(Led_Counter.o)
 .debug_ranges  0x00000538       0x70 .\CortexM0\ARM_GCC_541\Debug\Lesson6_LED_SW_Counter_INT.a(Led_Counter_Int.o)

.comment        0x00000000       0x6e
 .comment       0x00000000       0x6e .\CortexM0\ARM_GCC_541\Debug\main.o
                                 0x6f (size before relaxing)
 .comment       0x0000006e       0x6f .\CortexM0\ARM_GCC_541\Debug\cyfitter_cfg.o
 .comment       0x0000006e       0x6f .\CortexM0\ARM_GCC_541\Debug\cymetadata.o
 .comment       0x0000006e       0x6f .\CortexM0\ARM_GCC_541\Debug\Cm0Start.o
 .comment       0x0000006e       0x6f .\CortexM0\ARM_GCC_541\Debug\Lesson6_LED_SW_Counter_INT.a(CyLib.o)
 .comment       0x0000006e       0x6f .\CortexM0\ARM_GCC_541\Debug\Lesson6_LED_SW_Counter_INT.a(CyLFClk.o)
 .comment       0x0000006e       0x6f .\CortexM0\ARM_GCC_541\Debug\Lesson6_LED_SW_Counter_INT.a(LED_GREEN.o)
 .comment       0x0000006e       0x6f .\CortexM0\ARM_GCC_541\Debug\Lesson6_LED_SW_Counter_INT.a(Led_Counter.o)
 .comment       0x0000006e       0x6f .\CortexM0\ARM_GCC_541\Debug\Lesson6_LED_SW_Counter_INT.a(Led_Counter_Int.o)

.debug_weaknames
 *(.debug_weaknames)

.debug_funcnames
 *(.debug_funcnames)

.debug_typenames
 *(.debug_typenames)

.debug_varnames
 *(.debug_varnames)

.note.gnu.arm.ident
 *(.note.gnu.arm.ident)

.ARM.attributes
                0x00000000       0x28
 *(.ARM.attributes)
 .ARM.attributes
                0x00000000       0x1e c:/program files (x86)/cypress/psoc creator/4.2/psoc creator/import/gnu/arm/5.4.1/bin/../lib/gcc/arm-none-eabi/5.4.1/armv6-m/crti.o
 .ARM.attributes
                0x0000001e       0x2c c:/program files (x86)/cypress/psoc creator/4.2/psoc creator/import/gnu/arm/5.4.1/bin/../lib/gcc/arm-none-eabi/5.4.1/armv6-m/crtbegin.o
 .ARM.attributes
                0x0000004a       0x1b c:/program files (x86)/cypress/psoc creator/4.2/psoc creator/import/gnu/arm/5.4.1/bin/../lib/gcc/arm-none-eabi/5.4.1/../../../../arm-none-eabi/lib/armv6-m/crt0.o
 .ARM.attributes
                0x00000065       0x31 .\CortexM0\ARM_GCC_541\Debug\main.o
 .ARM.attributes
                0x00000096       0x31 .\CortexM0\ARM_GCC_541\Debug\cyfitter_cfg.o
 .ARM.attributes
                0x000000c7       0x31 .\CortexM0\ARM_GCC_541\Debug\cymetadata.o
 .ARM.attributes
                0x000000f8       0x31 .\CortexM0\ARM_GCC_541\Debug\Cm0Start.o
 .ARM.attributes
                0x00000129       0x31 .\CortexM0\ARM_GCC_541\Debug\Lesson6_LED_SW_Counter_INT.a(CyLib.o)
 .ARM.attributes
                0x0000015a       0x31 .\CortexM0\ARM_GCC_541\Debug\Lesson6_LED_SW_Counter_INT.a(CyLFClk.o)
 .ARM.attributes
                0x0000018b       0x31 .\CortexM0\ARM_GCC_541\Debug\Lesson6_LED_SW_Counter_INT.a(LED_GREEN.o)
 .ARM.attributes
                0x000001bc       0x31 .\CortexM0\ARM_GCC_541\Debug\Lesson6_LED_SW_Counter_INT.a(Led_Counter.o)
 .ARM.attributes
                0x000001ed       0x31 .\CortexM0\ARM_GCC_541\Debug\Lesson6_LED_SW_Counter_INT.a(Led_Counter_Int.o)
 .ARM.attributes
                0x0000021e       0x21 .\CortexM0\ARM_GCC_541\Debug\Lesson6_LED_SW_Counter_INT.a(CyBootAsmGnu.o)
 .ARM.attributes
                0x0000023f       0x1e c:/program files (x86)/cypress/psoc creator/4.2/psoc creator/import/gnu/arm/5.4.1/bin/../lib/gcc/arm-none-eabi/5.4.1/armv6-m\libgcc.a(_udivsi3.o)
 .ARM.attributes
                0x0000025d       0x1e c:/program files (x86)/cypress/psoc creator/4.2/psoc creator/import/gnu/arm/5.4.1/bin/../lib/gcc/arm-none-eabi/5.4.1/armv6-m\libgcc.a(_divsi3.o)
 .ARM.attributes
                0x0000027b       0x1e c:/program files (x86)/cypress/psoc creator/4.2/psoc creator/import/gnu/arm/5.4.1/bin/../lib/gcc/arm-none-eabi/5.4.1/armv6-m\libgcc.a(_dvmd_tls.o)
 .ARM.attributes
                0x00000299       0x2c c:/program files (x86)/cypress/psoc creator/4.2/psoc creator/import/gnu/arm/5.4.1/bin/../lib/gcc/arm-none-eabi/5.4.1/../../../../arm-none-eabi/lib/armv6-m\libg_nano.a(lib_a-errno.o)
 .ARM.attributes
                0x000002c5       0x2c c:/program files (x86)/cypress/psoc creator/4.2/psoc creator/import/gnu/arm/5.4.1/bin/../lib/gcc/arm-none-eabi/5.4.1/../../../../arm-none-eabi/lib/armv6-m\libg_nano.a(lib_a-exit.o)
 .ARM.attributes
                0x000002f1       0x2c c:/program files (x86)/cypress/psoc creator/4.2/psoc creator/import/gnu/arm/5.4.1/bin/../lib/gcc/arm-none-eabi/5.4.1/../../../../arm-none-eabi/lib/armv6-m\libg_nano.a(lib_a-impure.o)
 .ARM.attributes
                0x0000031d       0x2c c:/program files (x86)/cypress/psoc creator/4.2/psoc creator/import/gnu/arm/5.4.1/bin/../lib/gcc/arm-none-eabi/5.4.1/../../../../arm-none-eabi/lib/armv6-m\libg_nano.a(lib_a-init.o)
 .ARM.attributes
                0x00000349       0x2c c:/program files (x86)/cypress/psoc creator/4.2/psoc creator/import/gnu/arm/5.4.1/bin/../lib/gcc/arm-none-eabi/5.4.1/../../../../arm-none-eabi/lib/armv6-m\libg_nano.a(lib_a-memset.o)
 .ARM.attributes
                0x00000375       0x2c c:/program files (x86)/cypress/psoc creator/4.2/psoc creator/import/gnu/arm/5.4.1/bin/../lib/gcc/arm-none-eabi/5.4.1/armv6-m/crtend.o
 .ARM.attributes
                0x000003a1       0x1e c:/program files (x86)/cypress/psoc creator/4.2/psoc creator/import/gnu/arm/5.4.1/bin/../lib/gcc/arm-none-eabi/5.4.1/armv6-m/crtn.o

/DISCARD/
 *(.note.GNU-stack)
OUTPUT(C:\Users\ORA\OneDrive - PetNovations\Cypress - BLE\Lessons\Lesson6_LED_SW_Counter_INT.cydsn\CortexM0\ARM_GCC_541\Debug\Lesson6_LED_SW_Counter_INT.elf elf32-littlearm)
