ARM GAS  C:\Users\ORA\AppData\Local\Temp\cckp6ZXj.s 			page 1


   1              		.syntax unified
   2              		.cpu cortex-m0
   3              		.fpu softvfp
   4              		.eabi_attribute 20, 1
   5              		.eabi_attribute 21, 1
   6              		.eabi_attribute 23, 3
   7              		.eabi_attribute 24, 1
   8              		.eabi_attribute 25, 1
   9              		.eabi_attribute 26, 1
  10              		.eabi_attribute 30, 1
  11              		.eabi_attribute 34, 0
  12              		.eabi_attribute 18, 4
  13              		.thumb
  14              		.syntax unified
  15              		.file	"cyPm.c"
  16              		.text
  17              	.Ltext0:
  18              		.cfi_sections	.debug_frame
  19              		.section	.text.CySysPmSleep,"ax",%progbits
  20              		.align	2
  21              		.global	CySysPmSleep
  22              		.code	16
  23              		.thumb_func
  24              		.type	CySysPmSleep, %function
  25              	CySysPmSleep:
  26              	.LFB3:
  27              		.file 1 "Generated_Source\\PSoC4\\cyPm.c"
   1:Generated_Source\PSoC4/cyPm.c **** /***************************************************************************//**
   2:Generated_Source\PSoC4/cyPm.c **** * \file cyPm.c
   3:Generated_Source\PSoC4/cyPm.c **** * \version 5.81
   4:Generated_Source\PSoC4/cyPm.c **** *
   5:Generated_Source\PSoC4/cyPm.c **** * \brief Provides an API for the power management.
   6:Generated_Source\PSoC4/cyPm.c **** *
   7:Generated_Source\PSoC4/cyPm.c **** * \note Documentation of the API's in this file is located in the System
   8:Generated_Source\PSoC4/cyPm.c **** * Reference Guide provided with PSoC Creator.
   9:Generated_Source\PSoC4/cyPm.c **** *
  10:Generated_Source\PSoC4/cyPm.c **** ********************************************************************************
  11:Generated_Source\PSoC4/cyPm.c **** * \copyright
  12:Generated_Source\PSoC4/cyPm.c **** * Copyright 2011-2018, Cypress Semiconductor Corporation.  All rights reserved.
  13:Generated_Source\PSoC4/cyPm.c **** * You may use this file only in accordance with the license, terms, conditions,
  14:Generated_Source\PSoC4/cyPm.c **** * disclaimers, and limitations in the end user license agreement accompanying
  15:Generated_Source\PSoC4/cyPm.c **** * the software package with which this file was provided.
  16:Generated_Source\PSoC4/cyPm.c **** *******************************************************************************/
  17:Generated_Source\PSoC4/cyPm.c **** 
  18:Generated_Source\PSoC4/cyPm.c **** #include "cyPm.h"
  19:Generated_Source\PSoC4/cyPm.c **** #include "CyLib.h"
  20:Generated_Source\PSoC4/cyPm.c **** #include "CyFlash.h"
  21:Generated_Source\PSoC4/cyPm.c **** 
  22:Generated_Source\PSoC4/cyPm.c **** 
  23:Generated_Source\PSoC4/cyPm.c **** /*******************************************************************************
  24:Generated_Source\PSoC4/cyPm.c **** * Function Name: CySysPmSleep
  25:Generated_Source\PSoC4/cyPm.c **** ****************************************************************************//**
  26:Generated_Source\PSoC4/cyPm.c **** *
  27:Generated_Source\PSoC4/cyPm.c **** * Puts the part into the Sleep state. This is a CPU-centric power mode.
  28:Generated_Source\PSoC4/cyPm.c **** * It means that the CPU has indicated that it is in the sleep mode and
  29:Generated_Source\PSoC4/cyPm.c **** * its main clock can be removed. It is identical to Active from a peripheral
  30:Generated_Source\PSoC4/cyPm.c **** * point of view. Any enabled interrupts can cause wakeup from the Sleep mode.
ARM GAS  C:\Users\ORA\AppData\Local\Temp\cckp6ZXj.s 			page 2


  31:Generated_Source\PSoC4/cyPm.c **** *
  32:Generated_Source\PSoC4/cyPm.c **** *******************************************************************************/
  33:Generated_Source\PSoC4/cyPm.c **** void CySysPmSleep(void)
  34:Generated_Source\PSoC4/cyPm.c **** {
  28              		.loc 1 34 0
  29              		.cfi_startproc
  30              		@ args = 0, pretend = 0, frame = 0
  31              		@ frame_needed = 0, uses_anonymous_args = 0
  32 0000 10B5     		push	{r4, lr}
  33              		.cfi_def_cfa_offset 8
  34              		.cfi_offset 4, -8
  35              		.cfi_offset 14, -4
  35:Generated_Source\PSoC4/cyPm.c ****     uint8 interruptState;
  36:Generated_Source\PSoC4/cyPm.c **** 
  37:Generated_Source\PSoC4/cyPm.c ****     interruptState = CyEnterCriticalSection();
  36              		.loc 1 37 0
  37 0002 FFF7FEFF 		bl	CyEnterCriticalSection
  38              	.LVL0:
  38:Generated_Source\PSoC4/cyPm.c **** 
  39:Generated_Source\PSoC4/cyPm.c ****     /* CPU enters Sleep mode upon execution of WFI */
  40:Generated_Source\PSoC4/cyPm.c ****     CY_PM_CPU_SCR_REG &= (uint32) (~CY_PM_CPU_SCR_SLEEPDEEP);
  39              		.loc 1 40 0
  40 0006 044A     		ldr	r2, .L2
  41 0008 1368     		ldr	r3, [r2]
  42 000a 0421     		movs	r1, #4
  43 000c 8B43     		bics	r3, r1
  44 000e 1360     		str	r3, [r2]
  41:Generated_Source\PSoC4/cyPm.c **** 
  42:Generated_Source\PSoC4/cyPm.c ****     /* Sleep and wait for interrupt */
  43:Generated_Source\PSoC4/cyPm.c ****     CY_PM_WFI;
  45              		.loc 1 43 0
  46              		.syntax divided
  47              	@ 43 "Generated_Source\PSoC4\cyPm.c" 1
  48 0010 30BF     		WFI 
  49              	
  50              	@ 0 "" 2
  44:Generated_Source\PSoC4/cyPm.c **** 
  45:Generated_Source\PSoC4/cyPm.c ****     CyExitCriticalSection(interruptState);
  51              		.loc 1 45 0
  52              		.thumb
  53              		.syntax unified
  54 0012 FFF7FEFF 		bl	CyExitCriticalSection
  55              	.LVL1:
  46:Generated_Source\PSoC4/cyPm.c **** }
  56              		.loc 1 46 0
  57              		@ sp needed
  58 0016 10BD     		pop	{r4, pc}
  59              	.L3:
  60              		.align	2
  61              	.L2:
  62 0018 10ED00E0 		.word	-536810224
  63              		.cfi_endproc
  64              	.LFE3:
  65              		.size	CySysPmSleep, .-CySysPmSleep
  66              		.section	.text.CySysPmDeepSleep,"ax",%progbits
  67              		.align	2
  68              		.global	CySysPmDeepSleep
ARM GAS  C:\Users\ORA\AppData\Local\Temp\cckp6ZXj.s 			page 3


  69              		.code	16
  70              		.thumb_func
  71              		.type	CySysPmDeepSleep, %function
  72              	CySysPmDeepSleep:
  73              	.LFB4:
  47:Generated_Source\PSoC4/cyPm.c **** 
  48:Generated_Source\PSoC4/cyPm.c **** 
  49:Generated_Source\PSoC4/cyPm.c **** /*******************************************************************************
  50:Generated_Source\PSoC4/cyPm.c **** * Function Name: CySysPmDeepSleep
  51:Generated_Source\PSoC4/cyPm.c **** ****************************************************************************//**
  52:Generated_Source\PSoC4/cyPm.c **** *
  53:Generated_Source\PSoC4/cyPm.c **** * Puts the part into the Deep Sleep state. If the firmware attempts to enter
  54:Generated_Source\PSoC4/cyPm.c **** * this mode before the system is ready (that is, when
  55:Generated_Source\PSoC4/cyPm.c **** * PWR_CONTROL.LPM_READY = 0), then the device will go into the Sleep mode
  56:Generated_Source\PSoC4/cyPm.c **** * instead and automatically enter the originally intended mode when the
  57:Generated_Source\PSoC4/cyPm.c **** * holdoff expires.
  58:Generated_Source\PSoC4/cyPm.c **** *
  59:Generated_Source\PSoC4/cyPm.c **** * The wakeup occurs when an interrupt is received from a DeepSleep or
  60:Generated_Source\PSoC4/cyPm.c **** * Hibernate peripheral. For more details, see a corresponding
  61:Generated_Source\PSoC4/cyPm.c **** * peripheral's datasheet.
  62:Generated_Source\PSoC4/cyPm.c **** *
  63:Generated_Source\PSoC4/cyPm.c **** *******************************************************************************/
  64:Generated_Source\PSoC4/cyPm.c **** void CySysPmDeepSleep(void)
  65:Generated_Source\PSoC4/cyPm.c **** {
  74              		.loc 1 65 0
  75              		.cfi_startproc
  76              		@ args = 0, pretend = 0, frame = 8
  77              		@ frame_needed = 0, uses_anonymous_args = 0
  78 0000 30B5     		push	{r4, r5, lr}
  79              		.cfi_def_cfa_offset 12
  80              		.cfi_offset 4, -12
  81              		.cfi_offset 5, -8
  82              		.cfi_offset 14, -4
  83 0002 83B0     		sub	sp, sp, #12
  84              		.cfi_def_cfa_offset 24
  66:Generated_Source\PSoC4/cyPm.c ****     uint8 interruptState;
  67:Generated_Source\PSoC4/cyPm.c ****     #if(CY_IP_SRSSV2)
  68:Generated_Source\PSoC4/cyPm.c ****         volatile uint32 clkSelectReg;
  69:Generated_Source\PSoC4/cyPm.c ****     #endif /* (CY_IP_SRSSV2) */
  70:Generated_Source\PSoC4/cyPm.c ****     
  71:Generated_Source\PSoC4/cyPm.c ****     #if(CY_IP_ECO_SRSSLT)
  72:Generated_Source\PSoC4/cyPm.c ****         volatile uint32 pllResoreFlag = 0u;
  73:Generated_Source\PSoC4/cyPm.c ****     #endif /* (CY_IP_ECO_SRSSLT) */
  74:Generated_Source\PSoC4/cyPm.c **** 
  75:Generated_Source\PSoC4/cyPm.c ****     #if (CY_IP_IMO_TRIMMABLE_BY_WCO)
  76:Generated_Source\PSoC4/cyPm.c ****         uint32 regTmp = 0u;
  77:Generated_Source\PSoC4/cyPm.c ****     #endif /* (CY_IP_IMO_TRIMMABLE_BY_WCO) */
  78:Generated_Source\PSoC4/cyPm.c ****     
  79:Generated_Source\PSoC4/cyPm.c ****     interruptState = CyEnterCriticalSection();
  85              		.loc 1 79 0
  86 0004 FFF7FEFF 		bl	CyEnterCriticalSection
  87              	.LVL2:
  88 0008 0400     		movs	r4, r0
  89              	.LVL3:
  80:Generated_Source\PSoC4/cyPm.c **** 
  81:Generated_Source\PSoC4/cyPm.c ****     #if(CY_IP_ECO_SRSSLT)
  82:Generated_Source\PSoC4/cyPm.c ****         if(0u != (CY_SYS_ECO_CLK_SELECT_REG & CY_SYS_ECO_CLK_SELECT_ECO_PLL_MASK))
ARM GAS  C:\Users\ORA\AppData\Local\Temp\cckp6ZXj.s 			page 4


  83:Generated_Source\PSoC4/cyPm.c ****         {
  84:Generated_Source\PSoC4/cyPm.c ****             pllResoreFlag = 1u;
  85:Generated_Source\PSoC4/cyPm.c ****             
  86:Generated_Source\PSoC4/cyPm.c ****             /* Set default state = IMO for HFCLK_SEL bit mask */
  87:Generated_Source\PSoC4/cyPm.c ****             CY_SYS_CLK_SELECT_REG &= (uint32)(~CY_SYS_CLK_SELECT_DIRECT_SEL_MASK);
  88:Generated_Source\PSoC4/cyPm.c ****         }
  89:Generated_Source\PSoC4/cyPm.c ****     #endif /* (CY_IP_ECO_SRSSLT) */
  90:Generated_Source\PSoC4/cyPm.c **** 
  91:Generated_Source\PSoC4/cyPm.c ****     #if(CY_IP_SRSSV2)
  92:Generated_Source\PSoC4/cyPm.c ****         /* Device enters DeepSleep mode when CPU asserts SLEEPDEEP signal */
  93:Generated_Source\PSoC4/cyPm.c ****         CY_PM_PWR_CONTROL_REG &= (uint32) (~CY_PM_PWR_CONTROL_HIBERNATE);
  90              		.loc 1 93 0
  91 000a 0E4A     		ldr	r2, .L5
  92 000c 1368     		ldr	r3, [r2]
  93 000e 5B00     		lsls	r3, r3, #1
  94 0010 5B08     		lsrs	r3, r3, #1
  95 0012 1360     		str	r3, [r2]
  94:Generated_Source\PSoC4/cyPm.c ****     #endif /* (CY_IP_SRSSV2) */
  95:Generated_Source\PSoC4/cyPm.c **** 
  96:Generated_Source\PSoC4/cyPm.c ****     #if (CY_IP_CPUSS && CY_IP_SRSSV2)
  97:Generated_Source\PSoC4/cyPm.c ****         CY_PM_CPUSS_CONFIG_REG |= CY_PM_CPUSS_CONFIG_FLSH_ACC_BYPASS;
  98:Generated_Source\PSoC4/cyPm.c ****     #endif /* (CY_IP_CPUSS && CY_IP_SRSSV2) */
  99:Generated_Source\PSoC4/cyPm.c ****     
 100:Generated_Source\PSoC4/cyPm.c ****     #if (CY_IP_IMO_TRIMMABLE_BY_WCO)
 101:Generated_Source\PSoC4/cyPm.c ****         if (0u != (CY_SYS_CLK_WCO_CONFIG_REG & CY_SYS_CLK_WCO_CONFIG_DPLL_ENABLE))
 102:Generated_Source\PSoC4/cyPm.c ****         {
 103:Generated_Source\PSoC4/cyPm.c ****             regTmp  = CY_SYS_CLK_WCO_DPLL_REG & ~(CY_SYS_CLK_WCO_CONFIG_DPLL_LF_LIMIT_MASK);
 104:Generated_Source\PSoC4/cyPm.c ****             CY_SYS_CLK_WCO_DPLL_REG = (regTmp | (((CY_SYS_CLK_IMO_TRIM1_REG + CY_PM_WCO_DPLL_LF_LIM
 105:Generated_Source\PSoC4/cyPm.c ****                                                   CY_SYS_CLK_WCO_CONFIG_DPLL_LF_LIMIT_MAX) << 
 106:Generated_Source\PSoC4/cyPm.c ****                                                  CY_SYS_CLK_WCO_CONFIG_DPLL_LF_LIMIT_SHIFT));
 107:Generated_Source\PSoC4/cyPm.c ****         }
 108:Generated_Source\PSoC4/cyPm.c ****     #endif /* (CY_IP_IMO_TRIMMABLE_BY_WCO) */
 109:Generated_Source\PSoC4/cyPm.c **** 
 110:Generated_Source\PSoC4/cyPm.c ****     /* Adjust delay to wait for references to settle on wakeup from Deep Sleep */
 111:Generated_Source\PSoC4/cyPm.c ****     CY_PM_PWR_KEY_DELAY_REG = CY_SFLASH_DPSLP_KEY_DELAY_REG;
  96              		.loc 1 111 0
  97 0014 0C4B     		ldr	r3, .L5+4
  98 0016 1B88     		ldrh	r3, [r3]
  99 0018 9BB2     		uxth	r3, r3
 100 001a 0C4A     		ldr	r2, .L5+8
 101 001c 1360     		str	r3, [r2]
 112:Generated_Source\PSoC4/cyPm.c **** 
 113:Generated_Source\PSoC4/cyPm.c ****     /* CPU enters DeepSleep/Hibernate mode upon execution of WFI */
 114:Generated_Source\PSoC4/cyPm.c ****     CY_PM_CPU_SCR_REG |= CY_PM_CPU_SCR_SLEEPDEEP;
 102              		.loc 1 114 0
 103 001e 0C4A     		ldr	r2, .L5+12
 104 0020 1168     		ldr	r1, [r2]
 105 0022 0423     		movs	r3, #4
 106 0024 0B43     		orrs	r3, r1
 107 0026 1360     		str	r3, [r2]
 115:Generated_Source\PSoC4/cyPm.c **** 
 116:Generated_Source\PSoC4/cyPm.c ****     #if(CY_IP_SRSSV2)
 117:Generated_Source\PSoC4/cyPm.c ****         /* Preserve system clock configuration and
 118:Generated_Source\PSoC4/cyPm.c ****         * reduce sysclk to <=12 MHz (Cypress ID #158710, #179888).
 119:Generated_Source\PSoC4/cyPm.c ****         */
 120:Generated_Source\PSoC4/cyPm.c ****         clkSelectReg = CY_SYS_CLK_SELECT_REG;
 108              		.loc 1 120 0
ARM GAS  C:\Users\ORA\AppData\Local\Temp\cckp6ZXj.s 			page 5


 109 0028 0A4D     		ldr	r5, .L5+16
 110 002a 2B68     		ldr	r3, [r5]
 111 002c 0193     		str	r3, [sp, #4]
 121:Generated_Source\PSoC4/cyPm.c ****         CySysClkWriteSysclkDiv(CY_SYS_CLK_SYSCLK_DIV4);
 112              		.loc 1 121 0
 113 002e 0220     		movs	r0, #2
 114 0030 FFF7FEFF 		bl	CySysClkWriteSysclkDiv
 115              	.LVL4:
 122:Generated_Source\PSoC4/cyPm.c ****     #endif /* (CY_IP_SRSSV2) */
 123:Generated_Source\PSoC4/cyPm.c ****     
 124:Generated_Source\PSoC4/cyPm.c ****     /* Sleep and wait for interrupt */
 125:Generated_Source\PSoC4/cyPm.c ****     CY_PM_WFI;
 116              		.loc 1 125 0
 117              		.syntax divided
 118              	@ 125 "Generated_Source\PSoC4\cyPm.c" 1
 119 0034 30BF     		WFI 
 120              	
 121              	@ 0 "" 2
 126:Generated_Source\PSoC4/cyPm.c **** 
 127:Generated_Source\PSoC4/cyPm.c ****     #if(CY_IP_SRSSV2)
 128:Generated_Source\PSoC4/cyPm.c ****         /* Restore system clock configuration */
 129:Generated_Source\PSoC4/cyPm.c ****         CY_SYS_CLK_SELECT_REG = clkSelectReg;
 122              		.loc 1 129 0
 123              		.thumb
 124              		.syntax unified
 125 0036 019B     		ldr	r3, [sp, #4]
 126 0038 2B60     		str	r3, [r5]
 130:Generated_Source\PSoC4/cyPm.c ****     #endif /* (CY_IP_SRSSV2) */
 131:Generated_Source\PSoC4/cyPm.c **** 
 132:Generated_Source\PSoC4/cyPm.c ****     #if (CY_IP_IMO_TRIMMABLE_BY_WCO)
 133:Generated_Source\PSoC4/cyPm.c ****         if (0u != (CY_SYS_CLK_WCO_CONFIG_REG & CY_SYS_CLK_WCO_CONFIG_DPLL_ENABLE))
 134:Generated_Source\PSoC4/cyPm.c ****         {
 135:Generated_Source\PSoC4/cyPm.c ****             CyDelayUs(CY_PM_WCO_DPLL_WAKEUP_DELAY);
 136:Generated_Source\PSoC4/cyPm.c ****             regTmp  = CY_SYS_CLK_WCO_DPLL_REG & ~(CY_SYS_CLK_WCO_CONFIG_DPLL_LF_LIMIT_MASK);
 137:Generated_Source\PSoC4/cyPm.c ****             CY_SYS_CLK_WCO_DPLL_REG = (regTmp | (CY_SYS_CLK_WCO_CONFIG_DPLL_LF_LIMIT_MAX << 
 138:Generated_Source\PSoC4/cyPm.c ****                                                  CY_SYS_CLK_WCO_CONFIG_DPLL_LF_LIMIT_SHIFT));
 139:Generated_Source\PSoC4/cyPm.c ****         }
 140:Generated_Source\PSoC4/cyPm.c ****     #endif /* (CY_IP_IMO_TRIMMABLE_BY_WCO) */    
 141:Generated_Source\PSoC4/cyPm.c ****     
 142:Generated_Source\PSoC4/cyPm.c ****     #if (CY_IP_CPUSS && CY_IP_SRSSV2)
 143:Generated_Source\PSoC4/cyPm.c ****         CY_PM_CPUSS_CONFIG_REG &= (uint32) (~CY_PM_CPUSS_CONFIG_FLSH_ACC_BYPASS);
 144:Generated_Source\PSoC4/cyPm.c ****     #endif /* (CY_IP_CPUSS && CY_IP_SRSSV2) */
 145:Generated_Source\PSoC4/cyPm.c **** 
 146:Generated_Source\PSoC4/cyPm.c ****     #if(CY_IP_ECO_SRSSLT)
 147:Generated_Source\PSoC4/cyPm.c ****         if(0u != pllResoreFlag)
 148:Generated_Source\PSoC4/cyPm.c ****         {
 149:Generated_Source\PSoC4/cyPm.c ****             CySysClkWriteHfclkDirect(CY_SYS_CLK_HFCLK_PLL0);
 150:Generated_Source\PSoC4/cyPm.c ****         }
 151:Generated_Source\PSoC4/cyPm.c ****     #endif /* (CY_IP_ECO_SRSSLT) */    
 152:Generated_Source\PSoC4/cyPm.c **** 
 153:Generated_Source\PSoC4/cyPm.c ****     CyExitCriticalSection(interruptState);
 127              		.loc 1 153 0
 128 003a 2000     		movs	r0, r4
 129 003c FFF7FEFF 		bl	CyExitCriticalSection
 130              	.LVL5:
 154:Generated_Source\PSoC4/cyPm.c **** }
 131              		.loc 1 154 0
ARM GAS  C:\Users\ORA\AppData\Local\Temp\cckp6ZXj.s 			page 6


 132 0040 03B0     		add	sp, sp, #12
 133              		@ sp needed
 134              	.LVL6:
 135 0042 30BD     		pop	{r4, r5, pc}
 136              	.L6:
 137              		.align	2
 138              	.L5:
 139 0044 00000B40 		.word	1074462720
 140 0048 52F2FF0F 		.word	268431954
 141 004c 0C000B40 		.word	1074462732
 142 0050 10ED00E0 		.word	-536810224
 143 0054 00010B40 		.word	1074462976
 144              		.cfi_endproc
 145              	.LFE4:
 146              		.size	CySysPmDeepSleep, .-CySysPmDeepSleep
 147              		.section	.text.CySysPmHibernate,"ax",%progbits
 148              		.align	2
 149              		.global	CySysPmHibernate
 150              		.code	16
 151              		.thumb_func
 152              		.type	CySysPmHibernate, %function
 153              	CySysPmHibernate:
 154              	.LFB5:
 155:Generated_Source\PSoC4/cyPm.c **** 
 156:Generated_Source\PSoC4/cyPm.c **** 
 157:Generated_Source\PSoC4/cyPm.c **** #if(CY_IP_SRSSV2)
 158:Generated_Source\PSoC4/cyPm.c **** 
 159:Generated_Source\PSoC4/cyPm.c ****     /*******************************************************************************
 160:Generated_Source\PSoC4/cyPm.c ****     * Function Name: CySysPmHibernate
 161:Generated_Source\PSoC4/cyPm.c ****     ****************************************************************************//**
 162:Generated_Source\PSoC4/cyPm.c ****     *
 163:Generated_Source\PSoC4/cyPm.c ****     * Puts the part into the Hibernate state. Only SRAM and UDBs are retained;
 164:Generated_Source\PSoC4/cyPm.c ****     * most internal supplies are off. Wakeup is possible from a pin or a hibernate
 165:Generated_Source\PSoC4/cyPm.c ****     * comparator only.
 166:Generated_Source\PSoC4/cyPm.c ****     *
 167:Generated_Source\PSoC4/cyPm.c ****     * It is expected that the firmware has already frozen the IO-Cells using
 168:Generated_Source\PSoC4/cyPm.c ****     * CySysPmFreezeIo() function before the call to this function. If this is
 169:Generated_Source\PSoC4/cyPm.c ****     * omitted, the IO-cells will be frozen in the same way as they are
 170:Generated_Source\PSoC4/cyPm.c ****     * in the Active to Deep Sleep transition, but will lose their state on wake up
 171:Generated_Source\PSoC4/cyPm.c ****     * (because of the reset occurring at that time).
 172:Generated_Source\PSoC4/cyPm.c ****     *
 173:Generated_Source\PSoC4/cyPm.c ****     * Because all the CPU state is lost, the CPU will start up at the reset vector.
 174:Generated_Source\PSoC4/cyPm.c ****     * To save the firmware state through the Hibernate low power mode, a
 175:Generated_Source\PSoC4/cyPm.c ****     * corresponding variable should be defined with CY_NOINIT attribute. It
 176:Generated_Source\PSoC4/cyPm.c ****     * prevents data from being initialized to zero on startup. The interrupt
 177:Generated_Source\PSoC4/cyPm.c ****     * cause of the hibernate peripheral is retained, such that it can be either
 178:Generated_Source\PSoC4/cyPm.c ****     * read by the firmware or cause an interrupt after the firmware has booted and
 179:Generated_Source\PSoC4/cyPm.c ****     * enabled the corresponding interrupt. To distinguish the wakeup from
 180:Generated_Source\PSoC4/cyPm.c ****     * the Hibernate mode and the general Reset event, the
 181:Generated_Source\PSoC4/cyPm.c ****     * \ref CySysPmGetResetReason() function could be used.
 182:Generated_Source\PSoC4/cyPm.c ****     *
 183:Generated_Source\PSoC4/cyPm.c ****     *******************************************************************************/
 184:Generated_Source\PSoC4/cyPm.c ****     void CySysPmHibernate(void)
 185:Generated_Source\PSoC4/cyPm.c ****     {
 155              		.loc 1 185 0
 156              		.cfi_startproc
 157              		@ args = 0, pretend = 0, frame = 0
ARM GAS  C:\Users\ORA\AppData\Local\Temp\cckp6ZXj.s 			page 7


 158              		@ frame_needed = 0, uses_anonymous_args = 0
 159 0000 10B5     		push	{r4, lr}
 160              		.cfi_def_cfa_offset 8
 161              		.cfi_offset 4, -8
 162              		.cfi_offset 14, -4
 186:Generated_Source\PSoC4/cyPm.c ****         uint8 interruptState;
 187:Generated_Source\PSoC4/cyPm.c **** 
 188:Generated_Source\PSoC4/cyPm.c ****         interruptState = CyEnterCriticalSection();
 163              		.loc 1 188 0
 164 0002 FFF7FEFF 		bl	CyEnterCriticalSection
 165              	.LVL7:
 166              	.LBB4:
 167              	.LBB5:
 168              		.file 2 "Generated_Source\\PSoC4\\cyPm.h"
   1:Generated_Source\PSoC4/cyPm.h **** /***************************************************************************//**
   2:Generated_Source\PSoC4/cyPm.h **** * \file cyPm.h
   3:Generated_Source\PSoC4/cyPm.h **** * \version 5.81
   4:Generated_Source\PSoC4/cyPm.h **** *
   5:Generated_Source\PSoC4/cyPm.h **** * \brief Provides the function definitions for the power management API.
   6:Generated_Source\PSoC4/cyPm.h **** *
   7:Generated_Source\PSoC4/cyPm.h **** * \note Documentation of the API's in this file is located in the System
   8:Generated_Source\PSoC4/cyPm.h **** * Reference Guide provided with PSoC Creator.
   9:Generated_Source\PSoC4/cyPm.h **** *
  10:Generated_Source\PSoC4/cyPm.h **** ********************************************************************************
  11:Generated_Source\PSoC4/cyPm.h **** * \copyright
  12:Generated_Source\PSoC4/cyPm.h **** * Copyright 2011-2018, Cypress Semiconductor Corporation.  All rights reserved.
  13:Generated_Source\PSoC4/cyPm.h **** * You may use this file only in accordance with the license, terms, conditions,
  14:Generated_Source\PSoC4/cyPm.h **** * disclaimers, and limitations in the end user license agreement accompanying
  15:Generated_Source\PSoC4/cyPm.h **** * the software package with which this file was provided.
  16:Generated_Source\PSoC4/cyPm.h **** *******************************************************************************/
  17:Generated_Source\PSoC4/cyPm.h **** 
  18:Generated_Source\PSoC4/cyPm.h **** #if !defined(CY_BOOT_CYPM_H)
  19:Generated_Source\PSoC4/cyPm.h **** #define CY_BOOT_CYPM_H
  20:Generated_Source\PSoC4/cyPm.h **** 
  21:Generated_Source\PSoC4/cyPm.h **** #include "cytypes.h"
  22:Generated_Source\PSoC4/cyPm.h **** #include "cypins.h"
  23:Generated_Source\PSoC4/cyPm.h **** 
  24:Generated_Source\PSoC4/cyPm.h **** 
  25:Generated_Source\PSoC4/cyPm.h **** /**
  26:Generated_Source\PSoC4/cyPm.h **** * \addtogroup group_power_management Power Management API
  27:Generated_Source\PSoC4/cyPm.h **** * @{
  28:Generated_Source\PSoC4/cyPm.h **** 
  29:Generated_Source\PSoC4/cyPm.h **** \brief PSoC 4 devices support the following power modes (in order of high to low power consumption)
  30:Generated_Source\PSoC4/cyPm.h **** Deep Sleep, Hibernate, and Stop. Active, Sleep and Deep-Sleep are standard ARM defined power modes,
  31:Generated_Source\PSoC4/cyPm.h **** ARM CPUs. Hibernate/Stop are even lower power modes that are entered from firmware just like Deep-S
  32:Generated_Source\PSoC4/cyPm.h **** the CPU (and all peripherals) goes through a full reset.
  33:Generated_Source\PSoC4/cyPm.h **** 
  34:Generated_Source\PSoC4/cyPm.h **** There is a full range of power modes supported by PSoC devices to control power consumption and the
  35:Generated_Source\PSoC4/cyPm.h **** resources. See the following table for the supported power modes.
  36:Generated_Source\PSoC4/cyPm.h **** 
  37:Generated_Source\PSoC4/cyPm.h **** Mode        | PSoC 4000              | Rest Devices           |
  38:Generated_Source\PSoC4/cyPm.h **** ----------- | ---------------------- | ---------------------- |
  39:Generated_Source\PSoC4/cyPm.h **** Active      |          Y             |       Y                |
  40:Generated_Source\PSoC4/cyPm.h **** Sleep       |          Y             |       Y                |
  41:Generated_Source\PSoC4/cyPm.h **** Deep Sleep  |          Y             |       Y                |
  42:Generated_Source\PSoC4/cyPm.h **** Hibernate   |          Y             |       Y                |
  43:Generated_Source\PSoC4/cyPm.h **** Stop        |                        |       Y                |
ARM GAS  C:\Users\ORA\AppData\Local\Temp\cckp6ZXj.s 			page 8


  44:Generated_Source\PSoC4/cyPm.h **** 
  45:Generated_Source\PSoC4/cyPm.h **** For the ARM-based devices (PSoC 4), an interrupt is required for the CPU to wake up. The Power Mana
  46:Generated_Source\PSoC4/cyPm.h **** assumes that wakeup time is configured with a separate component (component-based wakeup time confi
  47:Generated_Source\PSoC4/cyPm.h **** interrupt to be issued on terminal count.
  48:Generated_Source\PSoC4/cyPm.h **** 
  49:Generated_Source\PSoC4/cyPm.h **** All pending interrupts should be cleared before the device is put into low power mode, even if they
  50:Generated_Source\PSoC4/cyPm.h **** 
  51:Generated_Source\PSoC4/cyPm.h **** The Power Management API is provided in the CyPm.c and CyPm.h files.
  52:Generated_Source\PSoC4/cyPm.h **** 
  53:Generated_Source\PSoC4/cyPm.h **** 
  54:Generated_Source\PSoC4/cyPm.h **** \section group_power_management_implementation Implementation
  55:Generated_Source\PSoC4/cyPm.h **** For PSoC 4100, PSoC 4000U and PSoC 4200 devices, the software should set EXT_VCCD bit in the PWR_CO
  56:Generated_Source\PSoC4/cyPm.h **** Vccd is shorted to Vddd on the board. This impacts the chip internal state transitions where it is 
  57:Generated_Source\PSoC4/cyPm.h **** whether Vccd is connected or floating to achieve minimum current in low power modes. Note Setting t
  58:Generated_Source\PSoC4/cyPm.h **** the active regulator and will lead to a system reset unless both Vddd and Vccd pins are supplied ex
  59:Generated_Source\PSoC4/cyPm.h **** the device TRM for more information.
  60:Generated_Source\PSoC4/cyPm.h **** 
  61:Generated_Source\PSoC4/cyPm.h **** It is safe to call PM APIs from the ISR. The wakeup conditions for Sleep and DeepSleep low power mo
  62:Generated_Source\PSoC4/cyPm.h **** in the following table.
  63:Generated_Source\PSoC4/cyPm.h **** 
  64:Generated_Source\PSoC4/cyPm.h **** Interrupts State  |  Condition                      | Wakeup    |   ISR Execution   |
  65:Generated_Source\PSoC4/cyPm.h **** ------------------|---------------------------------|-----------|------------------ |
  66:Generated_Source\PSoC4/cyPm.h **** Unmasked          | IRQ priority > current level    | Yes       |   Yes             |
  67:Generated_Source\PSoC4/cyPm.h **** Unmasked          | IRQ priority ≤ current level    | No        |   No              |
  68:Generated_Source\PSoC4/cyPm.h **** Masked            | IRQ priority > current level    | Yes       |   No              |
  69:Generated_Source\PSoC4/cyPm.h **** Masked            | IRQ priority ≤ current level    | No        |   No              |
  70:Generated_Source\PSoC4/cyPm.h **** 
  71:Generated_Source\PSoC4/cyPm.h **** 
  72:Generated_Source\PSoC4/cyPm.h **** \section group_power_management_clocks Clock Configuration
  73:Generated_Source\PSoC4/cyPm.h **** For PSoC 4100 BLE and PSoC 4200 BLE devices, the HFCLK source should be set to IMO before switching
  74:Generated_Source\PSoC4/cyPm.h **** power mode. The IMO should be enabled (by calling CySysClkImoStart(), if it is not) and HFCLK sourc
  75:Generated_Source\PSoC4/cyPm.h **** to IMO by calling CySysClkWriteHfclkDirect(CY_SYS_CLK_HFCLK_IMO).
  76:Generated_Source\PSoC4/cyPm.h **** 
  77:Generated_Source\PSoC4/cyPm.h **** If the System clock frequency is increased by switching to the IMO, the CySysFlashSetWaitCycles() f
  78:Generated_Source\PSoC4/cyPm.h **** appropriate parameter should be called beforehand. Also, it can optionally be called after lowering
  79:Generated_Source\PSoC4/cyPm.h **** frequency in order to improve CPU performance. See CySysFlashSetWaitCycles() description for the de
  80:Generated_Source\PSoC4/cyPm.h **** 
  81:Generated_Source\PSoC4/cyPm.h **** 
  82:Generated_Source\PSoC4/cyPm.h **** 
  83:Generated_Source\PSoC4/cyPm.h **** 
  84:Generated_Source\PSoC4/cyPm.h **** 
  85:Generated_Source\PSoC4/cyPm.h **** */
  86:Generated_Source\PSoC4/cyPm.h **** void CySysPmSleep(void);
  87:Generated_Source\PSoC4/cyPm.h **** void CySysPmDeepSleep(void);
  88:Generated_Source\PSoC4/cyPm.h **** 
  89:Generated_Source\PSoC4/cyPm.h **** #if(CY_IP_SRSSV2)
  90:Generated_Source\PSoC4/cyPm.h ****     void CySysPmHibernate(void);
  91:Generated_Source\PSoC4/cyPm.h ****     void CySysPmFreezeIo(void);
  92:Generated_Source\PSoC4/cyPm.h ****     void CySysPmUnfreezeIo(void);
  93:Generated_Source\PSoC4/cyPm.h ****     uint32 CySysPmGetResetReason(void);
  94:Generated_Source\PSoC4/cyPm.h ****     void CySysPmStop(void);
  95:Generated_Source\PSoC4/cyPm.h ****     void CySysPmSetWakeupPolarity(uint32 polarity);
  96:Generated_Source\PSoC4/cyPm.h **** #else
  97:Generated_Source\PSoC4/cyPm.h ****     void CySysPmSetWakeupHoldoff(uint32 hfclkFrequencyMhz);
  98:Generated_Source\PSoC4/cyPm.h **** #endif /* (CY_IP_SRSSV2) */
  99:Generated_Source\PSoC4/cyPm.h **** 
 100:Generated_Source\PSoC4/cyPm.h **** /** @} group_power_management */
ARM GAS  C:\Users\ORA\AppData\Local\Temp\cckp6ZXj.s 			page 9


 101:Generated_Source\PSoC4/cyPm.h **** 
 102:Generated_Source\PSoC4/cyPm.h **** 
 103:Generated_Source\PSoC4/cyPm.h **** /*******************************************************************************
 104:Generated_Source\PSoC4/cyPm.h **** * The ARM compilers have the __wfi() intrinsic that inserts a WFI instruction
 105:Generated_Source\PSoC4/cyPm.h **** * into the instruction stream generated by the compiler. The GCC compiler has to
 106:Generated_Source\PSoC4/cyPm.h **** * execute assembly language instruction.
 107:Generated_Source\PSoC4/cyPm.h **** *******************************************************************************/
 108:Generated_Source\PSoC4/cyPm.h **** #if defined(__ARMCC_VERSION)    /* Instristic for Keil compilers */
 109:Generated_Source\PSoC4/cyPm.h ****     #define CY_PM_WFI       __wfi()
 110:Generated_Source\PSoC4/cyPm.h **** #else   /* ASM for GCC & IAR */
 111:Generated_Source\PSoC4/cyPm.h ****     #define CY_PM_WFI       __asm volatile ("WFI \n")
 112:Generated_Source\PSoC4/cyPm.h **** #endif /* __ARMCC_VERSION */
 113:Generated_Source\PSoC4/cyPm.h **** 
 114:Generated_Source\PSoC4/cyPm.h **** #if(CY_IP_SRSSV2)
 115:Generated_Source\PSoC4/cyPm.h **** 
 116:Generated_Source\PSoC4/cyPm.h ****     /* CySysPmSetWakeupPolarity() */
 117:Generated_Source\PSoC4/cyPm.h ****     #define CY_PM_STOP_WAKEUP_ACTIVE_LOW        ((uint32)(0x0u))    /**< Logical zero will wakeup t
 118:Generated_Source\PSoC4/cyPm.h ****     #define CY_PM_STOP_WAKEUP_ACTIVE_HIGH       ((uint32)(0x1u))    /**< Logical one will wakeup th
 119:Generated_Source\PSoC4/cyPm.h ****     #define CY_PM_STOP_WAKEUP_POLARITY          (CY_PM_STOP_WAKEUP_ACTIVE_LOW)
 120:Generated_Source\PSoC4/cyPm.h **** 
 121:Generated_Source\PSoC4/cyPm.h ****     /* CySysPmGetResetReason() */
 122:Generated_Source\PSoC4/cyPm.h ****     #define CY_PM_RESET_REASON_UNKN             (0u)    /**< Unknown reset reason. */
 123:Generated_Source\PSoC4/cyPm.h ****     #define CY_PM_RESET_REASON_XRES             (1u)    /**< Transition from OFF/XRES to RESET */
 124:Generated_Source\PSoC4/cyPm.h ****     #define CY_PM_RESET_REASON_WAKEUP_HIB       (2u)    /**< Transition/wakeup from HIBERNATE to RE
 125:Generated_Source\PSoC4/cyPm.h ****     #define CY_PM_RESET_REASON_WAKEUP_STOP      (3u)    /**< Transition/wakeup from STOP to RESET *
 126:Generated_Source\PSoC4/cyPm.h **** 
 127:Generated_Source\PSoC4/cyPm.h **** #endif /* (CY_IP_SRSSV2) */
 128:Generated_Source\PSoC4/cyPm.h **** 
 129:Generated_Source\PSoC4/cyPm.h **** 
 130:Generated_Source\PSoC4/cyPm.h **** /***************************************
 131:Generated_Source\PSoC4/cyPm.h **** *              Registers
 132:Generated_Source\PSoC4/cyPm.h **** ***************************************/
 133:Generated_Source\PSoC4/cyPm.h **** 
 134:Generated_Source\PSoC4/cyPm.h **** /* Power Mode Control */
 135:Generated_Source\PSoC4/cyPm.h **** #define CY_PM_PWR_CONTROL_REG               (*(reg32 *) CYREG_PWR_CONTROL)
 136:Generated_Source\PSoC4/cyPm.h **** #define CY_PM_PWR_CONTROL_PTR               ( (reg32 *) CYREG_PWR_CONTROL)
 137:Generated_Source\PSoC4/cyPm.h **** 
 138:Generated_Source\PSoC4/cyPm.h **** /* CPU System Control Register */
 139:Generated_Source\PSoC4/cyPm.h **** #if (CY_IP_CPUSS_CM0)
 140:Generated_Source\PSoC4/cyPm.h ****     #define CY_PM_CPU_SCR_REG                   (*(reg32 *) CYREG_CM0_SCR)
 141:Generated_Source\PSoC4/cyPm.h ****     #define CY_PM_CPU_SCR_PTR                   ( (reg32 *) CYREG_CM0_SCR)
 142:Generated_Source\PSoC4/cyPm.h **** #else /* CY_IP_CPUSS_CM0PLUS */
 143:Generated_Source\PSoC4/cyPm.h ****     #define CY_PM_CPU_SCR_REG                   (*(reg32 *) CYREG_CM0P_SCR)
 144:Generated_Source\PSoC4/cyPm.h ****     #define CY_PM_CPU_SCR_PTR                   ( (reg32 *) CYREG_CM0P_SCR)
 145:Generated_Source\PSoC4/cyPm.h **** #endif /* (CY_IP_CPUSS_CM0) */
 146:Generated_Source\PSoC4/cyPm.h **** 
 147:Generated_Source\PSoC4/cyPm.h **** /* Power System Key & Delay Register */
 148:Generated_Source\PSoC4/cyPm.h **** #define CY_PM_PWR_KEY_DELAY_REG             (*(reg32 *) CYREG_PWR_KEY_DELAY)
 149:Generated_Source\PSoC4/cyPm.h **** #define CY_PM_PWR_KEY_DELAY_PTR             ( (reg32 *) CYREG_PWR_KEY_DELAY)
 150:Generated_Source\PSoC4/cyPm.h **** 
 151:Generated_Source\PSoC4/cyPm.h **** 
 152:Generated_Source\PSoC4/cyPm.h **** #if(CY_IP_SRSSV2)
 153:Generated_Source\PSoC4/cyPm.h ****     /* Hibernate wakeup value for PWR_KEY_DELAY */
 154:Generated_Source\PSoC4/cyPm.h ****     #define CY_SFLASH_HIB_KEY_DELAY_REG     (*(reg16 *) CYREG_SFLASH_HIB_KEY_DELAY)
 155:Generated_Source\PSoC4/cyPm.h ****     #define CY_SFLASH_HIB_KEY_DELAY_PTR     ( (reg16 *) CYREG_SFLASH_HIB_KEY_DELAY)
 156:Generated_Source\PSoC4/cyPm.h **** #endif  /* (CY_IP_SRSSV2) */
 157:Generated_Source\PSoC4/cyPm.h **** 
ARM GAS  C:\Users\ORA\AppData\Local\Temp\cckp6ZXj.s 			page 10


 158:Generated_Source\PSoC4/cyPm.h **** /* Deep Sleep wakeup value for PWR_KEY_DELAY */
 159:Generated_Source\PSoC4/cyPm.h **** #define CY_SFLASH_DPSLP_KEY_DELAY_REG       (*(reg16 *) CYREG_SFLASH_DPSLP_KEY_DELAY)
 160:Generated_Source\PSoC4/cyPm.h **** #define CY_SFLASH_DPSLP_KEY_DELAY_PTR       ( (reg16 *) CYREG_SFLASH_DPSLP_KEY_DELAY)
 161:Generated_Source\PSoC4/cyPm.h **** 
 162:Generated_Source\PSoC4/cyPm.h **** /* Power Stop Mode Register */
 163:Generated_Source\PSoC4/cyPm.h **** #if(CY_IP_SRSSV2)
 164:Generated_Source\PSoC4/cyPm.h ****     #define CY_PM_PWR_STOP_REG              (*(reg32 *) CYREG_PWR_STOP)
 165:Generated_Source\PSoC4/cyPm.h ****     #define CY_PM_PWR_STOP_PTR              ( (reg32 *) CYREG_PWR_STOP)
 166:Generated_Source\PSoC4/cyPm.h **** #endif /* (CY_IP_SRSSV2) */
 167:Generated_Source\PSoC4/cyPm.h **** 
 168:Generated_Source\PSoC4/cyPm.h **** #if (CY_PSOC4_4100 || CY_PSOC4_4200 || CY_PSOC4_4000U)
 169:Generated_Source\PSoC4/cyPm.h ****     /* CPU Subsystem Configuration */
 170:Generated_Source\PSoC4/cyPm.h ****     #define CY_PM_CPUSS_CONFIG_REG             (*(reg32 *) CYREG_CPUSS_CONFIG)
 171:Generated_Source\PSoC4/cyPm.h ****     #define CY_PM_CPUSS_CONFIG_PTR             ( (reg32 *) CYREG_CPUSS_CONFIG)
 172:Generated_Source\PSoC4/cyPm.h **** #endif /* (CY_PSOC4_4100 || CY_PSOC4_4200 || CY_PSOC4_4000U) */
 173:Generated_Source\PSoC4/cyPm.h **** 
 174:Generated_Source\PSoC4/cyPm.h **** 
 175:Generated_Source\PSoC4/cyPm.h **** /***************************************
 176:Generated_Source\PSoC4/cyPm.h **** *       Register Constants
 177:Generated_Source\PSoC4/cyPm.h **** ***************************************/
 178:Generated_Source\PSoC4/cyPm.h **** 
 179:Generated_Source\PSoC4/cyPm.h **** /* CM0 System Control Register Constants */
 180:Generated_Source\PSoC4/cyPm.h **** #define CY_PM_CPU_SCR_SLEEPDEEP             ((uint32)(0x04u))
 181:Generated_Source\PSoC4/cyPm.h **** 
 182:Generated_Source\PSoC4/cyPm.h **** #if(CY_IP_SRSSV2)
 183:Generated_Source\PSoC4/cyPm.h ****     /* Power Mode Control Constants */
 184:Generated_Source\PSoC4/cyPm.h ****     #define CY_PM_PWR_CONTROL_HIBERNATE         (0x80000000u)
 185:Generated_Source\PSoC4/cyPm.h **** 
 186:Generated_Source\PSoC4/cyPm.h ****     /* Power Mode Stop Constants */
 187:Generated_Source\PSoC4/cyPm.h ****     #define CY_PM_PWR_STOP_POLARITY_SHIFT       (16u)
 188:Generated_Source\PSoC4/cyPm.h ****     #define CY_PM_PWR_STOP_POLARITY             ((uint32)((uint32)1u << CY_PM_PWR_STOP_POLARITY_SHI
 189:Generated_Source\PSoC4/cyPm.h ****     #define CY_PM_PWR_STOP_FREEZE_SHIFT         (17u)
 190:Generated_Source\PSoC4/cyPm.h ****     #define CY_PM_PWR_STOP_FREEZE               ((uint32)((uint32)1u << CY_PM_PWR_STOP_FREEZE_SHIFT
 191:Generated_Source\PSoC4/cyPm.h ****     #define CY_PM_PWR_STOP_UNLOCK_SHIFT         (8u)
 192:Generated_Source\PSoC4/cyPm.h ****     #define CY_PM_PWR_STOP_UNLOCK_MASK          ((uint32)((uint32)0xFFu << CY_PM_PWR_STOP_UNLOCK_SH
 193:Generated_Source\PSoC4/cyPm.h ****     #define CY_PM_PWR_STOP_UNLOCK               ((uint32)((uint32)0x3Au << CY_PM_PWR_STOP_UNLOCK_SH
 194:Generated_Source\PSoC4/cyPm.h ****     #define CY_PM_PWR_STOP_STOP_SHIFT           (31u)
 195:Generated_Source\PSoC4/cyPm.h ****     #define CY_PM_PWR_STOP_STOP                 ((uint32)((uint32)1u << CY_PM_PWR_STOP_STOP_SHIFT))
 196:Generated_Source\PSoC4/cyPm.h ****     #define CY_PM_PWR_STOP_TOKEN_MASK           ((uint32)(0xFFu))
 197:Generated_Source\PSoC4/cyPm.h ****     #define CY_PM_PWR_STOP_TOKEN_XRES           ((uint32)(0x00u))
 198:Generated_Source\PSoC4/cyPm.h ****     #define CY_PM_PWR_STOP_TOKEN_HIB            ((uint32)(0xF1u))
 199:Generated_Source\PSoC4/cyPm.h ****     #define CY_PM_PWR_STOP_TOKEN_STOP           ((uint32)(0xF2u))
 200:Generated_Source\PSoC4/cyPm.h **** #else
 201:Generated_Source\PSoC4/cyPm.h ****     #define CY_PM_PWR_KEY_DELAY_REG_DEFAULT     ((uint32) 248u)
 202:Generated_Source\PSoC4/cyPm.h ****     #define CY_PM_PWR_KEY_DELAY_FREQ_DEFAULT    (48u)
 203:Generated_Source\PSoC4/cyPm.h **** #endif /* (CY_IP_SRSSV2) */
 204:Generated_Source\PSoC4/cyPm.h **** 
 205:Generated_Source\PSoC4/cyPm.h **** #if (CY_IP_IMO_TRIMMABLE_BY_WCO)
 206:Generated_Source\PSoC4/cyPm.h ****     #define CY_PM_WCO_DPLL_WAKEUP_DELAY         (35u)
 207:Generated_Source\PSoC4/cyPm.h ****     #define CY_PM_WCO_DPLL_LF_LIMIT_TEMP_DRIFT  (4u)
 208:Generated_Source\PSoC4/cyPm.h **** #endif /* (CY_IP_IMO_TRIMMABLE_BY_WCO) */
 209:Generated_Source\PSoC4/cyPm.h **** 
 210:Generated_Source\PSoC4/cyPm.h **** #if (CY_PSOC4_4100 || CY_PSOC4_4200 || CY_PSOC4_4000U)
 211:Generated_Source\PSoC4/cyPm.h ****     /* 0 - normal operation, 1 - Flash Accelerator in bypass mode */
 212:Generated_Source\PSoC4/cyPm.h ****     #define CY_PM_CPUSS_CONFIG_FLSH_ACC_BYPASS      ((uint32) 0x02u)
 213:Generated_Source\PSoC4/cyPm.h **** #endif /* (CY_PSOC4_4100 || CY_PSOC4_4200 || CY_PSOC4_4000U) */
 214:Generated_Source\PSoC4/cyPm.h **** 
ARM GAS  C:\Users\ORA\AppData\Local\Temp\cckp6ZXj.s 			page 11


 215:Generated_Source\PSoC4/cyPm.h **** 
 216:Generated_Source\PSoC4/cyPm.h **** #if (CY_IP_SRSSV2)
 217:Generated_Source\PSoC4/cyPm.h ****     #if (CY_IP_HOBTO_DEVICE)
 218:Generated_Source\PSoC4/cyPm.h ****         /*******************************************************************************
 219:Generated_Source\PSoC4/cyPm.h ****         * Function Name: CySysPmHibPinsDisableInputBuf
 220:Generated_Source\PSoC4/cyPm.h ****         ****************************************************************************//**
 221:Generated_Source\PSoC4/cyPm.h ****         *
 222:Generated_Source\PSoC4/cyPm.h ****         *  Disable the input buffer for all the port. This is required before Hibernate
 223:Generated_Source\PSoC4/cyPm.h ****         *  mode entry as the operation of the input buffer is not guaranteed if VCCD
 224:Generated_Source\PSoC4/cyPm.h ****         *  drops down to 1.0 V.
 225:Generated_Source\PSoC4/cyPm.h ****         *
 226:Generated_Source\PSoC4/cyPm.h ****         *******************************************************************************/
 227:Generated_Source\PSoC4/cyPm.h ****         static CY_INLINE void CySysPmHibPinsDisableInputBuf(void)
 228:Generated_Source\PSoC4/cyPm.h ****         {
 229:Generated_Source\PSoC4/cyPm.h ****             #ifdef CYREG_GPIO_PRT0_PC
 230:Generated_Source\PSoC4/cyPm.h ****                 CY_CLEAR_REG32_FIELD(CYREG_GPIO_PRT0_PC, CYFLD_GPIO_PRT_PORT_IB_MODE_SEL);
 169              		.loc 2 230 0
 170 0006 1F4A     		ldr	r2, .L8
 171 0008 1368     		ldr	r3, [r2]
 172 000a 9B00     		lsls	r3, r3, #2
 173 000c 9B08     		lsrs	r3, r3, #2
 174 000e 1360     		str	r3, [r2]
 231:Generated_Source\PSoC4/cyPm.h ****             #endif /* CYREG_GPIO_PRT0_PC */
 232:Generated_Source\PSoC4/cyPm.h **** 
 233:Generated_Source\PSoC4/cyPm.h ****             #ifdef CYREG_GPIO_PRT1_PC
 234:Generated_Source\PSoC4/cyPm.h ****                 CY_CLEAR_REG32_FIELD( CYREG_GPIO_PRT1_PC, CYFLD_GPIO_PRT_PORT_IB_MODE_SEL);
 175              		.loc 2 234 0
 176 0010 1D4A     		ldr	r2, .L8+4
 177 0012 1368     		ldr	r3, [r2]
 178 0014 9B00     		lsls	r3, r3, #2
 179 0016 9B08     		lsrs	r3, r3, #2
 180 0018 1360     		str	r3, [r2]
 235:Generated_Source\PSoC4/cyPm.h ****             #endif /* CYREG_GPIO_PRT1_PC */
 236:Generated_Source\PSoC4/cyPm.h **** 
 237:Generated_Source\PSoC4/cyPm.h ****             #ifdef CYREG_GPIO_PRT2_PC
 238:Generated_Source\PSoC4/cyPm.h ****                 CY_CLEAR_REG32_FIELD( CYREG_GPIO_PRT2_PC, CYFLD_GPIO_PRT_PORT_IB_MODE_SEL);
 181              		.loc 2 238 0
 182 001a 1C4A     		ldr	r2, .L8+8
 183 001c 1368     		ldr	r3, [r2]
 184 001e 9B00     		lsls	r3, r3, #2
 185 0020 9B08     		lsrs	r3, r3, #2
 186 0022 1360     		str	r3, [r2]
 239:Generated_Source\PSoC4/cyPm.h ****             #endif /* CYREG_GPIO_PRT2_PC */
 240:Generated_Source\PSoC4/cyPm.h **** 
 241:Generated_Source\PSoC4/cyPm.h ****             #ifdef CYREG_GPIO_PRT3_PC
 242:Generated_Source\PSoC4/cyPm.h ****                 CY_CLEAR_REG32_FIELD( CYREG_GPIO_PRT3_PC, CYFLD_GPIO_PRT_PORT_IB_MODE_SEL);
 187              		.loc 2 242 0
 188 0024 1A4A     		ldr	r2, .L8+12
 189 0026 1368     		ldr	r3, [r2]
 190 0028 9B00     		lsls	r3, r3, #2
 191 002a 9B08     		lsrs	r3, r3, #2
 192 002c 1360     		str	r3, [r2]
 243:Generated_Source\PSoC4/cyPm.h ****             #endif /* CYREG_GPIO_PRT3_PC */
 244:Generated_Source\PSoC4/cyPm.h **** 
 245:Generated_Source\PSoC4/cyPm.h ****             #ifdef CYREG_GPIO_PRT4_PC
 246:Generated_Source\PSoC4/cyPm.h ****                 CY_CLEAR_REG32_FIELD( CYREG_GPIO_PRT4_PC, CYFLD_GPIO_PRT_PORT_IB_MODE_SEL);
 193              		.loc 2 246 0
ARM GAS  C:\Users\ORA\AppData\Local\Temp\cckp6ZXj.s 			page 12


 194 002e 194A     		ldr	r2, .L8+16
 195 0030 1368     		ldr	r3, [r2]
 196 0032 9B00     		lsls	r3, r3, #2
 197 0034 9B08     		lsrs	r3, r3, #2
 198 0036 1360     		str	r3, [r2]
 247:Generated_Source\PSoC4/cyPm.h ****             #endif /* CYREG_GPIO_PRT4_PC */
 248:Generated_Source\PSoC4/cyPm.h **** 
 249:Generated_Source\PSoC4/cyPm.h ****             #ifdef CYREG_GPIO_PRT5_PC
 250:Generated_Source\PSoC4/cyPm.h ****                 CY_CLEAR_REG32_FIELD( CYREG_GPIO_PRT5_PC, CYFLD_GPIO_PRT_PORT_IB_MODE_SEL);
 199              		.loc 2 250 0
 200 0038 174A     		ldr	r2, .L8+20
 201 003a 1368     		ldr	r3, [r2]
 202 003c 9B00     		lsls	r3, r3, #2
 203 003e 9B08     		lsrs	r3, r3, #2
 204 0040 1360     		str	r3, [r2]
 251:Generated_Source\PSoC4/cyPm.h ****             #endif /* CYREG_GPIO_PRT5_PC */
 252:Generated_Source\PSoC4/cyPm.h **** 
 253:Generated_Source\PSoC4/cyPm.h ****             #ifdef CYREG_GPIO_PRT6_PC
 254:Generated_Source\PSoC4/cyPm.h ****                 CY_CLEAR_REG32_FIELD( CYREG_GPIO_PRT6_PC, CYFLD_GPIO_PRT_PORT_IB_MODE_SEL);
 205              		.loc 2 254 0
 206 0042 164A     		ldr	r2, .L8+24
 207 0044 1368     		ldr	r3, [r2]
 208 0046 9B00     		lsls	r3, r3, #2
 209 0048 9B08     		lsrs	r3, r3, #2
 210 004a 1360     		str	r3, [r2]
 211              	.LBE5:
 212              	.LBE4:
 189:Generated_Source\PSoC4/cyPm.c **** 
 190:Generated_Source\PSoC4/cyPm.c ****         #if (CY_IP_HOBTO_DEVICE)
 191:Generated_Source\PSoC4/cyPm.c ****             /* Disable input buffers for all ports */
 192:Generated_Source\PSoC4/cyPm.c ****             CySysPmHibPinsDisableInputBuf();
 193:Generated_Source\PSoC4/cyPm.c ****         #endif /* (CY_IP_HOBTO_DEVICE) */
 194:Generated_Source\PSoC4/cyPm.c **** 
 195:Generated_Source\PSoC4/cyPm.c ****         /* Device enters Hibernate mode when CPU asserts SLEEPDEEP signal */
 196:Generated_Source\PSoC4/cyPm.c ****         CY_PM_PWR_CONTROL_REG |= CY_PM_PWR_CONTROL_HIBERNATE;
 213              		.loc 1 196 0
 214 004c 144A     		ldr	r2, .L8+28
 215 004e 1368     		ldr	r3, [r2]
 216 0050 8021     		movs	r1, #128
 217 0052 0906     		lsls	r1, r1, #24
 218 0054 0B43     		orrs	r3, r1
 219 0056 1360     		str	r3, [r2]
 197:Generated_Source\PSoC4/cyPm.c **** 
 198:Generated_Source\PSoC4/cyPm.c ****         /* Adjust delay to wait for references to settle on wakeup from hibernate */
 199:Generated_Source\PSoC4/cyPm.c ****         CY_PM_PWR_KEY_DELAY_REG = CY_SFLASH_HIB_KEY_DELAY_REG;
 220              		.loc 1 199 0
 221 0058 124B     		ldr	r3, .L8+32
 222 005a 1B88     		ldrh	r3, [r3]
 223 005c 9BB2     		uxth	r3, r3
 224 005e 124A     		ldr	r2, .L8+36
 225 0060 1360     		str	r3, [r2]
 200:Generated_Source\PSoC4/cyPm.c **** 
 201:Generated_Source\PSoC4/cyPm.c ****         /* CPU enters DeepSleep/Hibernate mode upon execution of WFI */
 202:Generated_Source\PSoC4/cyPm.c ****         CY_PM_CPU_SCR_REG |= CY_PM_CPU_SCR_SLEEPDEEP;
 226              		.loc 1 202 0
 227 0062 124A     		ldr	r2, .L8+40
 228 0064 1168     		ldr	r1, [r2]
ARM GAS  C:\Users\ORA\AppData\Local\Temp\cckp6ZXj.s 			page 13


 229 0066 0423     		movs	r3, #4
 230 0068 0B43     		orrs	r3, r1
 231 006a 1360     		str	r3, [r2]
 203:Generated_Source\PSoC4/cyPm.c **** 
 204:Generated_Source\PSoC4/cyPm.c ****         /* Save token that will retain through a STOP/WAKEUP sequence
 205:Generated_Source\PSoC4/cyPm.c ****          * thus could be used by CySysPmGetResetReason() to differentiate
 206:Generated_Source\PSoC4/cyPm.c ****          * WAKEUP from a general RESET event.
 207:Generated_Source\PSoC4/cyPm.c ****          */
 208:Generated_Source\PSoC4/cyPm.c ****         CY_PM_PWR_STOP_REG = (CY_PM_PWR_STOP_REG & (uint32)(~CY_PM_PWR_STOP_TOKEN_MASK)) | CY_PM_PW
 232              		.loc 1 208 0
 233 006c 1049     		ldr	r1, .L8+44
 234 006e 0B68     		ldr	r3, [r1]
 235 0070 FF22     		movs	r2, #255
 236 0072 9343     		bics	r3, r2
 237 0074 0E3A     		subs	r2, r2, #14
 238 0076 1343     		orrs	r3, r2
 239 0078 0B60     		str	r3, [r1]
 209:Generated_Source\PSoC4/cyPm.c **** 
 210:Generated_Source\PSoC4/cyPm.c ****         /* Sleep and wait for interrupt. Wakeup from Hibernate is performed
 211:Generated_Source\PSoC4/cyPm.c ****          * through RESET state, causing a normal Boot procedure to occur.
 212:Generated_Source\PSoC4/cyPm.c ****          * The WFI instruction doesn't put the core to sleep if its wake condition
 213:Generated_Source\PSoC4/cyPm.c ****          * is true when the instruction is executed.
 214:Generated_Source\PSoC4/cyPm.c ****          */
 215:Generated_Source\PSoC4/cyPm.c ****         CY_PM_WFI;
 240              		.loc 1 215 0
 241              		.syntax divided
 242              	@ 215 "Generated_Source\PSoC4\cyPm.c" 1
 243 007a 30BF     		WFI 
 244              	
 245              	@ 0 "" 2
 216:Generated_Source\PSoC4/cyPm.c **** 
 217:Generated_Source\PSoC4/cyPm.c ****         CyExitCriticalSection(interruptState);
 246              		.loc 1 217 0
 247              		.thumb
 248              		.syntax unified
 249 007c FFF7FEFF 		bl	CyExitCriticalSection
 250              	.LVL8:
 218:Generated_Source\PSoC4/cyPm.c ****     }
 251              		.loc 1 218 0
 252              		@ sp needed
 253 0080 10BD     		pop	{r4, pc}
 254              	.L9:
 255 0082 C046     		.align	2
 256              	.L8:
 257 0084 08000440 		.word	1074003976
 258 0088 08010440 		.word	1074004232
 259 008c 08020440 		.word	1074004488
 260 0090 08030440 		.word	1074004744
 261 0094 08040440 		.word	1074005000
 262 0098 08050440 		.word	1074005256
 263 009c 08060440 		.word	1074005512
 264 00a0 00000B40 		.word	1074462720
 265 00a4 50F2FF0F 		.word	268431952
 266 00a8 0C000B40 		.word	1074462732
 267 00ac 10ED00E0 		.word	-536810224
 268 00b0 2C000B40 		.word	1074462764
 269              		.cfi_endproc
ARM GAS  C:\Users\ORA\AppData\Local\Temp\cckp6ZXj.s 			page 14


 270              	.LFE5:
 271              		.size	CySysPmHibernate, .-CySysPmHibernate
 272              		.section	.text.CySysPmSetWakeupPolarity,"ax",%progbits
 273              		.align	2
 274              		.global	CySysPmSetWakeupPolarity
 275              		.code	16
 276              		.thumb_func
 277              		.type	CySysPmSetWakeupPolarity, %function
 278              	CySysPmSetWakeupPolarity:
 279              	.LFB7:
 219:Generated_Source\PSoC4/cyPm.c **** 
 220:Generated_Source\PSoC4/cyPm.c **** 
 221:Generated_Source\PSoC4/cyPm.c ****     /*******************************************************************************
 222:Generated_Source\PSoC4/cyPm.c ****     * Function Name: CySysPmStop
 223:Generated_Source\PSoC4/cyPm.c ****     ****************************************************************************//**
 224:Generated_Source\PSoC4/cyPm.c ****     *
 225:Generated_Source\PSoC4/cyPm.c ****     * Puts the part into the Stop state. All internal supplies are off;
 226:Generated_Source\PSoC4/cyPm.c ****     * no state is retained.
 227:Generated_Source\PSoC4/cyPm.c ****     *
 228:Generated_Source\PSoC4/cyPm.c ****     * Wakeup from Stop is performed by toggling the wakeup pin, causing
 229:Generated_Source\PSoC4/cyPm.c ****     * a normal boot procedure to occur. To configure the wakeup pin,
 230:Generated_Source\PSoC4/cyPm.c ****     * the Digital Input Pin component should be placed on the schematic,
 231:Generated_Source\PSoC4/cyPm.c ****     * assigned to the wakeup pin, and resistively pulled up or down to the inverse
 232:Generated_Source\PSoC4/cyPm.c ****     * state of the wakeup polarity. To distinguish the wakeup from the Stop mode
 233:Generated_Source\PSoC4/cyPm.c ****     * and the general Reset event, \ref CySysPmGetResetReason() function could be
 234:Generated_Source\PSoC4/cyPm.c ****     * used.  The wakeup pin is active low by default. The wakeup pin polarity
 235:Generated_Source\PSoC4/cyPm.c ****     * could be changed with the \ref CySysPmSetWakeupPolarity() function.
 236:Generated_Source\PSoC4/cyPm.c ****     *
 237:Generated_Source\PSoC4/cyPm.c ****     * This function freezes IO cells implicitly. It is not possible to enter
 238:Generated_Source\PSoC4/cyPm.c ****     * the STOP mode before freezing the IO cells. The IO cells remain frozen after
 239:Generated_Source\PSoC4/cyPm.c ****     * awake from the Stop mode until the firmware unfreezes them after booting
 240:Generated_Source\PSoC4/cyPm.c ****     * explicitly with \ref CySysPmUnfreezeIo() function call.
 241:Generated_Source\PSoC4/cyPm.c ****     *
 242:Generated_Source\PSoC4/cyPm.c ****     *******************************************************************************/
 243:Generated_Source\PSoC4/cyPm.c ****     void CySysPmStop(void)
 244:Generated_Source\PSoC4/cyPm.c ****     {
 245:Generated_Source\PSoC4/cyPm.c ****         (void) CyEnterCriticalSection();
 246:Generated_Source\PSoC4/cyPm.c **** 
 247:Generated_Source\PSoC4/cyPm.c ****         /* Update token to indicate Stop mode transition. Preserve only polarity. */
 248:Generated_Source\PSoC4/cyPm.c ****         CY_PM_PWR_STOP_REG = (CY_PM_PWR_STOP_REG & CY_PM_PWR_STOP_POLARITY) | CY_PM_PWR_STOP_TOKEN_
 249:Generated_Source\PSoC4/cyPm.c **** 
 250:Generated_Source\PSoC4/cyPm.c ****         /* Freeze IO-Cells to save IO-Cell state */
 251:Generated_Source\PSoC4/cyPm.c ****         CySysPmFreezeIo();
 252:Generated_Source\PSoC4/cyPm.c **** 
 253:Generated_Source\PSoC4/cyPm.c ****         /* Initiates transition to Stop state */
 254:Generated_Source\PSoC4/cyPm.c ****         CY_PM_PWR_STOP_REG = CY_PM_PWR_STOP_REG | CY_PM_PWR_STOP_STOP;
 255:Generated_Source\PSoC4/cyPm.c **** 
 256:Generated_Source\PSoC4/cyPm.c ****         /* Depending on the clock frequency and internal timing delays,
 257:Generated_Source\PSoC4/cyPm.c ****          * the final AHB transaction may or may not complete. To guard against
 258:Generated_Source\PSoC4/cyPm.c ****          * accidentally executing an unintended instruction, it is recommended
 259:Generated_Source\PSoC4/cyPm.c ****          * to add 2 NOP cycles after the final write to the STOP register.
 260:Generated_Source\PSoC4/cyPm.c ****          */
 261:Generated_Source\PSoC4/cyPm.c ****         CY_NOP;
 262:Generated_Source\PSoC4/cyPm.c ****         CY_NOP;
 263:Generated_Source\PSoC4/cyPm.c **** 
 264:Generated_Source\PSoC4/cyPm.c ****         /* Should never get to this WFI instruction */
 265:Generated_Source\PSoC4/cyPm.c ****         CY_PM_WFI;
ARM GAS  C:\Users\ORA\AppData\Local\Temp\cckp6ZXj.s 			page 15


 266:Generated_Source\PSoC4/cyPm.c **** 
 267:Generated_Source\PSoC4/cyPm.c ****         /* Wakeup from Stop is performed by toggling of Wakeup pin,
 268:Generated_Source\PSoC4/cyPm.c ****          * causing a normal Boot procedure to occur. No need to exit
 269:Generated_Source\PSoC4/cyPm.c ****          * from the critical section.
 270:Generated_Source\PSoC4/cyPm.c ****          */
 271:Generated_Source\PSoC4/cyPm.c ****     }
 272:Generated_Source\PSoC4/cyPm.c **** 
 273:Generated_Source\PSoC4/cyPm.c **** 
 274:Generated_Source\PSoC4/cyPm.c ****     /*******************************************************************************
 275:Generated_Source\PSoC4/cyPm.c ****     * Function Name: CySysPmSetWakeupPolarity
 276:Generated_Source\PSoC4/cyPm.c ****     ****************************************************************************//**
 277:Generated_Source\PSoC4/cyPm.c ****     *
 278:Generated_Source\PSoC4/cyPm.c ****     * Wake up from the stop mode is performed by toggling the wakeup pin,
 279:Generated_Source\PSoC4/cyPm.c ****     * causing a normal boot procedure to occur. This function assigns
 280:Generated_Source\PSoC4/cyPm.c ****     * the wakeup pin active level. Setting the wakeup pin to this level will cause
 281:Generated_Source\PSoC4/cyPm.c ****     * the wakeup from stop mode. The wakeup pin is active low by default.
 282:Generated_Source\PSoC4/cyPm.c ****     *
 283:Generated_Source\PSoC4/cyPm.c ****     * \param polarity
 284:Generated_Source\PSoC4/cyPm.c ****     * - \ref CY_PM_STOP_WAKEUP_ACTIVE_LOW Logical zero will wakeup the chip
 285:Generated_Source\PSoC4/cyPm.c ****     * - \ref CY_PM_STOP_WAKEUP_ACTIVE_HIGH Logical one will wakeup the chip
 286:Generated_Source\PSoC4/cyPm.c ****     *
 287:Generated_Source\PSoC4/cyPm.c ****     *******************************************************************************/
 288:Generated_Source\PSoC4/cyPm.c ****     void CySysPmSetWakeupPolarity(uint32 polarity)
 289:Generated_Source\PSoC4/cyPm.c ****     {
 280              		.loc 1 289 0
 281              		.cfi_startproc
 282              		@ args = 0, pretend = 0, frame = 0
 283              		@ frame_needed = 0, uses_anonymous_args = 0
 284              	.LVL9:
 285 0000 10B5     		push	{r4, lr}
 286              		.cfi_def_cfa_offset 8
 287              		.cfi_offset 4, -8
 288              		.cfi_offset 14, -4
 289 0002 0400     		movs	r4, r0
 290:Generated_Source\PSoC4/cyPm.c ****         uint8 interruptState;
 291:Generated_Source\PSoC4/cyPm.c **** 
 292:Generated_Source\PSoC4/cyPm.c ****         interruptState = CyEnterCriticalSection();
 290              		.loc 1 292 0
 291 0004 FFF7FEFF 		bl	CyEnterCriticalSection
 292              	.LVL10:
 293:Generated_Source\PSoC4/cyPm.c **** 
 294:Generated_Source\PSoC4/cyPm.c ****         CY_PM_PWR_STOP_REG = (CY_PM_STOP_WAKEUP_ACTIVE_LOW != polarity) ?
 295:Generated_Source\PSoC4/cyPm.c ****                             (CY_PM_PWR_STOP_REG | CY_PM_PWR_STOP_POLARITY) :
 293              		.loc 1 295 0
 294 0008 002C     		cmp	r4, #0
 295 000a 05D0     		beq	.L11
 296              		.loc 1 295 0 is_stmt 0 discriminator 1
 297 000c 074B     		ldr	r3, .L13
 298 000e 1B68     		ldr	r3, [r3]
 299 0010 8022     		movs	r2, #128
 300 0012 5202     		lsls	r2, r2, #9
 301 0014 1343     		orrs	r3, r2
 302 0016 03E0     		b	.L12
 303              	.L11:
 296:Generated_Source\PSoC4/cyPm.c ****                             (CY_PM_PWR_STOP_REG & (uint32) (~CY_PM_PWR_STOP_POLARITY));
 304              		.loc 1 296 0 is_stmt 1 discriminator 2
 305 0018 044B     		ldr	r3, .L13
ARM GAS  C:\Users\ORA\AppData\Local\Temp\cckp6ZXj.s 			page 16


 306 001a 1A68     		ldr	r2, [r3]
 295:Generated_Source\PSoC4/cyPm.c ****                             (CY_PM_PWR_STOP_REG & (uint32) (~CY_PM_PWR_STOP_POLARITY));
 307              		.loc 1 295 0 discriminator 2
 308 001c 044B     		ldr	r3, .L13+4
 309 001e 1340     		ands	r3, r2
 310              	.L12:
 294:Generated_Source\PSoC4/cyPm.c ****                             (CY_PM_PWR_STOP_REG | CY_PM_PWR_STOP_POLARITY) :
 311              		.loc 1 294 0
 312 0020 024A     		ldr	r2, .L13
 313 0022 1360     		str	r3, [r2]
 297:Generated_Source\PSoC4/cyPm.c **** 
 298:Generated_Source\PSoC4/cyPm.c ****         CyExitCriticalSection(interruptState);
 314              		.loc 1 298 0
 315 0024 FFF7FEFF 		bl	CyExitCriticalSection
 316              	.LVL11:
 299:Generated_Source\PSoC4/cyPm.c ****     }
 317              		.loc 1 299 0
 318              		@ sp needed
 319              	.LVL12:
 320 0028 10BD     		pop	{r4, pc}
 321              	.L14:
 322 002a C046     		.align	2
 323              	.L13:
 324 002c 2C000B40 		.word	1074462764
 325 0030 FFFFFEFF 		.word	-65537
 326              		.cfi_endproc
 327              	.LFE7:
 328              		.size	CySysPmSetWakeupPolarity, .-CySysPmSetWakeupPolarity
 329              		.section	.text.CySysPmGetResetReason,"ax",%progbits
 330              		.align	2
 331              		.global	CySysPmGetResetReason
 332              		.code	16
 333              		.thumb_func
 334              		.type	CySysPmGetResetReason, %function
 335              	CySysPmGetResetReason:
 336              	.LFB8:
 300:Generated_Source\PSoC4/cyPm.c **** 
 301:Generated_Source\PSoC4/cyPm.c **** 
 302:Generated_Source\PSoC4/cyPm.c ****     /*******************************************************************************
 303:Generated_Source\PSoC4/cyPm.c ****     * Function Name: CySysPmGetResetReason
 304:Generated_Source\PSoC4/cyPm.c ****     ****************************************************************************//**
 305:Generated_Source\PSoC4/cyPm.c ****     *
 306:Generated_Source\PSoC4/cyPm.c ****     * Retrieves the last reset reason - transition from OFF/XRES/STOP/HIBERNATE to
 307:Generated_Source\PSoC4/cyPm.c ****     * the RESET state. Note that waking up from STOP using XRES will be perceived
 308:Generated_Source\PSoC4/cyPm.c ****     * as a general RESET.
 309:Generated_Source\PSoC4/cyPm.c ****     *
 310:Generated_Source\PSoC4/cyPm.c ****     * \return CY_PM_RESET_REASON_UNKN          Unknown reset reason.
 311:Generated_Source\PSoC4/cyPm.c ****     * \return CY_PM_RESET_REASON_XRES          Transition from OFF/XRES to RESET
 312:Generated_Source\PSoC4/cyPm.c ****     * \return CY_PM_RESET_REASON_WAKEUP_HIB    Transition/wakeup from HIBERNATE to RESET
 313:Generated_Source\PSoC4/cyPm.c ****     * \return CY_PM_RESET_REASON_WAKEUP_STOP   Transition/wakeup from STOP to RESET
 314:Generated_Source\PSoC4/cyPm.c ****     *
 315:Generated_Source\PSoC4/cyPm.c ****     *******************************************************************************/
 316:Generated_Source\PSoC4/cyPm.c ****     uint32 CySysPmGetResetReason(void)
 317:Generated_Source\PSoC4/cyPm.c ****     {
 337              		.loc 1 317 0
 338              		.cfi_startproc
 339              		@ args = 0, pretend = 0, frame = 0
ARM GAS  C:\Users\ORA\AppData\Local\Temp\cckp6ZXj.s 			page 17


 340              		@ frame_needed = 0, uses_anonymous_args = 0
 341              		@ link register save eliminated.
 342              	.LVL13:
 318:Generated_Source\PSoC4/cyPm.c ****         uint32 reason = CY_PM_RESET_REASON_UNKN;
 319:Generated_Source\PSoC4/cyPm.c **** 
 320:Generated_Source\PSoC4/cyPm.c ****         switch(CY_PM_PWR_STOP_REG & CY_PM_PWR_STOP_TOKEN_MASK)
 343              		.loc 1 320 0
 344 0000 084B     		ldr	r3, .L21
 345 0002 1B68     		ldr	r3, [r3]
 346 0004 FF22     		movs	r2, #255
 347 0006 1340     		ands	r3, r2
 348 0008 F12B     		cmp	r3, #241
 349 000a 05D0     		beq	.L17
 350 000c F22B     		cmp	r3, #242
 351 000e 05D0     		beq	.L18
 352 0010 002B     		cmp	r3, #0
 353 0012 05D0     		beq	.L20
 318:Generated_Source\PSoC4/cyPm.c ****         uint32 reason = CY_PM_RESET_REASON_UNKN;
 354              		.loc 1 318 0
 355 0014 0020     		movs	r0, #0
 356 0016 04E0     		b	.L19
 357              	.L17:
 358              	.LVL14:
 321:Generated_Source\PSoC4/cyPm.c ****         {
 322:Generated_Source\PSoC4/cyPm.c ****         /* Power up, XRES */
 323:Generated_Source\PSoC4/cyPm.c ****         case CY_PM_PWR_STOP_TOKEN_XRES:
 324:Generated_Source\PSoC4/cyPm.c ****             reason = CY_PM_RESET_REASON_XRES;
 325:Generated_Source\PSoC4/cyPm.c ****             break;
 326:Generated_Source\PSoC4/cyPm.c **** 
 327:Generated_Source\PSoC4/cyPm.c ****         /* Wakeup from Hibernate */
 328:Generated_Source\PSoC4/cyPm.c ****         case CY_PM_PWR_STOP_TOKEN_HIB:
 329:Generated_Source\PSoC4/cyPm.c ****             reason = CY_PM_RESET_REASON_WAKEUP_HIB;
 359              		.loc 1 329 0
 360 0018 0220     		movs	r0, #2
 330:Generated_Source\PSoC4/cyPm.c ****             break;
 361              		.loc 1 330 0
 362 001a 02E0     		b	.L19
 363              	.LVL15:
 364              	.L18:
 331:Generated_Source\PSoC4/cyPm.c **** 
 332:Generated_Source\PSoC4/cyPm.c ****         /* Wakeup from Stop (through WAKEUP pin assert) */
 333:Generated_Source\PSoC4/cyPm.c ****         case CY_PM_PWR_STOP_TOKEN_STOP:
 334:Generated_Source\PSoC4/cyPm.c ****             reason = CY_PM_RESET_REASON_WAKEUP_STOP;
 365              		.loc 1 334 0
 366 001c 0320     		movs	r0, #3
 335:Generated_Source\PSoC4/cyPm.c ****             break;
 367              		.loc 1 335 0
 368 001e 00E0     		b	.L19
 369              	.LVL16:
 370              	.L20:
 324:Generated_Source\PSoC4/cyPm.c ****             break;
 371              		.loc 1 324 0
 372 0020 0120     		movs	r0, #1
 373              	.LVL17:
 374              	.L19:
 336:Generated_Source\PSoC4/cyPm.c **** 
 337:Generated_Source\PSoC4/cyPm.c ****         /* Unknown reason */
ARM GAS  C:\Users\ORA\AppData\Local\Temp\cckp6ZXj.s 			page 18


 338:Generated_Source\PSoC4/cyPm.c ****         default:
 339:Generated_Source\PSoC4/cyPm.c ****             break;
 340:Generated_Source\PSoC4/cyPm.c ****         }
 341:Generated_Source\PSoC4/cyPm.c **** 
 342:Generated_Source\PSoC4/cyPm.c ****         return (reason);
 343:Generated_Source\PSoC4/cyPm.c ****     }
 375              		.loc 1 343 0
 376              		@ sp needed
 377 0022 7047     		bx	lr
 378              	.L22:
 379              		.align	2
 380              	.L21:
 381 0024 2C000B40 		.word	1074462764
 382              		.cfi_endproc
 383              	.LFE8:
 384              		.size	CySysPmGetResetReason, .-CySysPmGetResetReason
 385              		.section	.text.CySysPmFreezeIo,"ax",%progbits
 386              		.align	2
 387              		.global	CySysPmFreezeIo
 388              		.code	16
 389              		.thumb_func
 390              		.type	CySysPmFreezeIo, %function
 391              	CySysPmFreezeIo:
 392              	.LFB9:
 344:Generated_Source\PSoC4/cyPm.c **** 
 345:Generated_Source\PSoC4/cyPm.c **** 
 346:Generated_Source\PSoC4/cyPm.c ****     /*******************************************************************************
 347:Generated_Source\PSoC4/cyPm.c ****     * Function Name: CySysPmFreezeIo
 348:Generated_Source\PSoC4/cyPm.c ****     ****************************************************************************//**
 349:Generated_Source\PSoC4/cyPm.c ****     *
 350:Generated_Source\PSoC4/cyPm.c ****     * Freezes IO-Cells directly to save the IO-Cell state on wake up from the
 351:Generated_Source\PSoC4/cyPm.c ****     * Hibernate or Stop state. It is not required to call this function before
 352:Generated_Source\PSoC4/cyPm.c ****     * entering the Stop mode, since \ref CySysPmStop() function freezes IO-Cells
 353:Generated_Source\PSoC4/cyPm.c ****     * implicitly.
 354:Generated_Source\PSoC4/cyPm.c ****     *
 355:Generated_Source\PSoC4/cyPm.c ****     * This API is not available for PSoC 4000 family of devices.
 356:Generated_Source\PSoC4/cyPm.c ****     *
 357:Generated_Source\PSoC4/cyPm.c ****     *******************************************************************************/
 358:Generated_Source\PSoC4/cyPm.c ****     void CySysPmFreezeIo(void)
 359:Generated_Source\PSoC4/cyPm.c ****     {
 393              		.loc 1 359 0
 394              		.cfi_startproc
 395              		@ args = 0, pretend = 0, frame = 0
 396              		@ frame_needed = 0, uses_anonymous_args = 0
 397 0000 10B5     		push	{r4, lr}
 398              		.cfi_def_cfa_offset 8
 399              		.cfi_offset 4, -8
 400              		.cfi_offset 14, -4
 360:Generated_Source\PSoC4/cyPm.c ****         uint8 interruptState;
 361:Generated_Source\PSoC4/cyPm.c **** 
 362:Generated_Source\PSoC4/cyPm.c ****         interruptState = CyEnterCriticalSection();
 401              		.loc 1 362 0
 402 0002 FFF7FEFF 		bl	CyEnterCriticalSection
 403              	.LVL18:
 363:Generated_Source\PSoC4/cyPm.c **** 
 364:Generated_Source\PSoC4/cyPm.c ****         /* Check FREEZE state to avoid recurrent IO-Cells freeze attempt,
 365:Generated_Source\PSoC4/cyPm.c ****          * since the second call to this function will cause accidental switch
ARM GAS  C:\Users\ORA\AppData\Local\Temp\cckp6ZXj.s 			page 19


 366:Generated_Source\PSoC4/cyPm.c ****          * to the STOP mode (the system will enter STOP mode immediately after
 367:Generated_Source\PSoC4/cyPm.c ****          * writing to STOP bit since both UNLOCK and FREEZE have been set correctly
 368:Generated_Source\PSoC4/cyPm.c ****          * in a previous call to this function).
 369:Generated_Source\PSoC4/cyPm.c ****          */
 370:Generated_Source\PSoC4/cyPm.c ****         if (0u == (CY_PM_PWR_STOP_REG & CY_PM_PWR_STOP_FREEZE))
 404              		.loc 1 370 0
 405 0006 094B     		ldr	r3, .L25
 406 0008 1B68     		ldr	r3, [r3]
 407 000a 9B03     		lsls	r3, r3, #14
 408 000c 0AD4     		bmi	.L24
 371:Generated_Source\PSoC4/cyPm.c ****         {
 372:Generated_Source\PSoC4/cyPm.c ****             /* Preserve last reset reason and disable overrides the next freeze command by peripher
 373:Generated_Source\PSoC4/cyPm.c ****             CY_PM_PWR_STOP_REG = CY_PM_PWR_STOP_STOP | CY_PM_PWR_STOP_FREEZE | CY_PM_PWR_STOP_UNLOC
 374:Generated_Source\PSoC4/cyPm.c ****                                 (CY_PM_PWR_STOP_REG & (CY_PM_PWR_STOP_TOKEN_MASK | CY_PM_PWR_STOP_P
 409              		.loc 1 374 0
 410 000e 074B     		ldr	r3, .L25
 411 0010 1968     		ldr	r1, [r3]
 412 0012 074A     		ldr	r2, .L25+4
 413 0014 0A40     		ands	r2, r1
 373:Generated_Source\PSoC4/cyPm.c ****                                 (CY_PM_PWR_STOP_REG & (CY_PM_PWR_STOP_TOKEN_MASK | CY_PM_PWR_STOP_P
 414              		.loc 1 373 0
 415 0016 0749     		ldr	r1, .L25+8
 416 0018 0A43     		orrs	r2, r1
 417 001a 1A60     		str	r2, [r3]
 375:Generated_Source\PSoC4/cyPm.c **** 
 376:Generated_Source\PSoC4/cyPm.c ****             /* If reading after writing, read this register three times to delay
 377:Generated_Source\PSoC4/cyPm.c ****             *  enough time for internal settling.
 378:Generated_Source\PSoC4/cyPm.c ****             */
 379:Generated_Source\PSoC4/cyPm.c ****             (void) CY_PM_PWR_STOP_REG;
 418              		.loc 1 379 0
 419 001c 1A68     		ldr	r2, [r3]
 380:Generated_Source\PSoC4/cyPm.c ****             (void) CY_PM_PWR_STOP_REG;
 420              		.loc 1 380 0
 421 001e 1A68     		ldr	r2, [r3]
 381:Generated_Source\PSoC4/cyPm.c **** 
 382:Generated_Source\PSoC4/cyPm.c ****             /* Second write causes the freeze of IO-Cells to save IO-Cell state */
 383:Generated_Source\PSoC4/cyPm.c ****             CY_PM_PWR_STOP_REG = CY_PM_PWR_STOP_REG;
 422              		.loc 1 383 0
 423 0020 1A68     		ldr	r2, [r3]
 424 0022 1A60     		str	r2, [r3]
 425              	.L24:
 384:Generated_Source\PSoC4/cyPm.c ****         }
 385:Generated_Source\PSoC4/cyPm.c **** 
 386:Generated_Source\PSoC4/cyPm.c ****         CyExitCriticalSection(interruptState);
 426              		.loc 1 386 0
 427 0024 FFF7FEFF 		bl	CyExitCriticalSection
 428              	.LVL19:
 387:Generated_Source\PSoC4/cyPm.c ****     }
 429              		.loc 1 387 0
 430              		@ sp needed
 431 0028 10BD     		pop	{r4, pc}
 432              	.L26:
 433 002a C046     		.align	2
 434              	.L25:
 435 002c 2C000B40 		.word	1074462764
 436 0030 FF000100 		.word	65791
 437 0034 003A0280 		.word	-2147337728
ARM GAS  C:\Users\ORA\AppData\Local\Temp\cckp6ZXj.s 			page 20


 438              		.cfi_endproc
 439              	.LFE9:
 440              		.size	CySysPmFreezeIo, .-CySysPmFreezeIo
 441              		.section	.text.CySysPmStop,"ax",%progbits
 442              		.align	2
 443              		.global	CySysPmStop
 444              		.code	16
 445              		.thumb_func
 446              		.type	CySysPmStop, %function
 447              	CySysPmStop:
 448              	.LFB6:
 244:Generated_Source\PSoC4/cyPm.c ****         (void) CyEnterCriticalSection();
 449              		.loc 1 244 0
 450              		.cfi_startproc
 451              		@ args = 0, pretend = 0, frame = 0
 452              		@ frame_needed = 0, uses_anonymous_args = 0
 453 0000 10B5     		push	{r4, lr}
 454              		.cfi_def_cfa_offset 8
 455              		.cfi_offset 4, -8
 456              		.cfi_offset 14, -4
 245:Generated_Source\PSoC4/cyPm.c **** 
 457              		.loc 1 245 0
 458 0002 FFF7FEFF 		bl	CyEnterCriticalSection
 459              	.LVL20:
 248:Generated_Source\PSoC4/cyPm.c **** 
 460              		.loc 1 248 0
 461 0006 094C     		ldr	r4, .L28
 462 0008 2268     		ldr	r2, [r4]
 463 000a 8023     		movs	r3, #128
 464 000c 5B02     		lsls	r3, r3, #9
 465 000e 1340     		ands	r3, r2
 466 0010 F222     		movs	r2, #242
 467 0012 1343     		orrs	r3, r2
 468 0014 2360     		str	r3, [r4]
 251:Generated_Source\PSoC4/cyPm.c **** 
 469              		.loc 1 251 0
 470 0016 FFF7FEFF 		bl	CySysPmFreezeIo
 471              	.LVL21:
 254:Generated_Source\PSoC4/cyPm.c **** 
 472              		.loc 1 254 0
 473 001a 2368     		ldr	r3, [r4]
 474 001c 8022     		movs	r2, #128
 475 001e 1206     		lsls	r2, r2, #24
 476 0020 1343     		orrs	r3, r2
 477 0022 2360     		str	r3, [r4]
 261:Generated_Source\PSoC4/cyPm.c ****         CY_NOP;
 478              		.loc 1 261 0
 479              		.syntax divided
 480              	@ 261 "Generated_Source\PSoC4\cyPm.c" 1
 481 0024 C046     		NOP
 482              	
 483              	@ 0 "" 2
 262:Generated_Source\PSoC4/cyPm.c **** 
 484              		.loc 1 262 0
 485              	@ 262 "Generated_Source\PSoC4\cyPm.c" 1
 486 0026 C046     		NOP
 487              	
ARM GAS  C:\Users\ORA\AppData\Local\Temp\cckp6ZXj.s 			page 21


 488              	@ 0 "" 2
 265:Generated_Source\PSoC4/cyPm.c **** 
 489              		.loc 1 265 0
 490              	@ 265 "Generated_Source\PSoC4\cyPm.c" 1
 491 0028 30BF     		WFI 
 492              	
 493              	@ 0 "" 2
 271:Generated_Source\PSoC4/cyPm.c **** 
 494              		.loc 1 271 0
 495              		.thumb
 496              		.syntax unified
 497              		@ sp needed
 498 002a 10BD     		pop	{r4, pc}
 499              	.L29:
 500              		.align	2
 501              	.L28:
 502 002c 2C000B40 		.word	1074462764
 503              		.cfi_endproc
 504              	.LFE6:
 505              		.size	CySysPmStop, .-CySysPmStop
 506              		.section	.text.CySysPmUnfreezeIo,"ax",%progbits
 507              		.align	2
 508              		.global	CySysPmUnfreezeIo
 509              		.code	16
 510              		.thumb_func
 511              		.type	CySysPmUnfreezeIo, %function
 512              	CySysPmUnfreezeIo:
 513              	.LFB10:
 388:Generated_Source\PSoC4/cyPm.c **** 
 389:Generated_Source\PSoC4/cyPm.c **** 
 390:Generated_Source\PSoC4/cyPm.c ****     /*******************************************************************************
 391:Generated_Source\PSoC4/cyPm.c ****     * Function Name: CySysPmUnfreezeIo
 392:Generated_Source\PSoC4/cyPm.c ****     ****************************************************************************//**
 393:Generated_Source\PSoC4/cyPm.c ****     *
 394:Generated_Source\PSoC4/cyPm.c ****     * The IO-Cells remain frozen after awake from Hibernate or Stop mode until
 395:Generated_Source\PSoC4/cyPm.c ****     * the firmware unfreezes them after booting. The call of this function
 396:Generated_Source\PSoC4/cyPm.c ****     * unfreezes IO-Cells explicitly.
 397:Generated_Source\PSoC4/cyPm.c ****     *
 398:Generated_Source\PSoC4/cyPm.c ****     * If the firmware intent is to retain the data value on the port, then the
 399:Generated_Source\PSoC4/cyPm.c ****     * value must be read and re-written to the data register before calling this
 400:Generated_Source\PSoC4/cyPm.c ****     * API. Furthermore, the drive mode must be re-programmed.  If this is not done,
 401:Generated_Source\PSoC4/cyPm.c ****     * the pin state will change to default state the moment the freeze is removed.
 402:Generated_Source\PSoC4/cyPm.c ****     *
 403:Generated_Source\PSoC4/cyPm.c ****     * This API is not available for PSoC 4000 family of devices.
 404:Generated_Source\PSoC4/cyPm.c ****     *
 405:Generated_Source\PSoC4/cyPm.c ****     *******************************************************************************/
 406:Generated_Source\PSoC4/cyPm.c ****     void CySysPmUnfreezeIo(void)
 407:Generated_Source\PSoC4/cyPm.c ****     {
 514              		.loc 1 407 0
 515              		.cfi_startproc
 516              		@ args = 0, pretend = 0, frame = 0
 517              		@ frame_needed = 0, uses_anonymous_args = 0
 518 0000 10B5     		push	{r4, lr}
 519              		.cfi_def_cfa_offset 8
 520              		.cfi_offset 4, -8
 521              		.cfi_offset 14, -4
 408:Generated_Source\PSoC4/cyPm.c ****         uint8 interruptState;
ARM GAS  C:\Users\ORA\AppData\Local\Temp\cckp6ZXj.s 			page 22


 409:Generated_Source\PSoC4/cyPm.c **** 
 410:Generated_Source\PSoC4/cyPm.c ****         interruptState = CyEnterCriticalSection();
 522              		.loc 1 410 0
 523 0002 FFF7FEFF 		bl	CyEnterCriticalSection
 524              	.LVL22:
 411:Generated_Source\PSoC4/cyPm.c **** 
 412:Generated_Source\PSoC4/cyPm.c ****         /* Preserve last reset reason and wakeup polarity. Then, unfreeze I/O:
 413:Generated_Source\PSoC4/cyPm.c ****          * write PWR_STOP.FREEZE=0, .UNLOCK=0x3A, .STOP=0, .TOKEN
 414:Generated_Source\PSoC4/cyPm.c ****          */
 415:Generated_Source\PSoC4/cyPm.c ****         CY_PM_PWR_STOP_REG = CY_PM_PWR_STOP_UNLOCK |
 416:Generated_Source\PSoC4/cyPm.c ****                             (CY_PM_PWR_STOP_REG & (CY_PM_PWR_STOP_TOKEN_MASK | CY_PM_PWR_STOP_POLAR
 525              		.loc 1 416 0
 526 0006 084B     		ldr	r3, .L31
 527 0008 1A68     		ldr	r2, [r3]
 528 000a 0849     		ldr	r1, .L31+4
 529 000c 0A40     		ands	r2, r1
 415:Generated_Source\PSoC4/cyPm.c ****                             (CY_PM_PWR_STOP_REG & (CY_PM_PWR_STOP_TOKEN_MASK | CY_PM_PWR_STOP_POLAR
 530              		.loc 1 415 0
 531 000e E824     		movs	r4, #232
 532 0010 A401     		lsls	r4, r4, #6
 533 0012 2243     		orrs	r2, r4
 534 0014 1A60     		str	r2, [r3]
 417:Generated_Source\PSoC4/cyPm.c **** 
 418:Generated_Source\PSoC4/cyPm.c ****         /* If reading after writing, read this register three times to delay
 419:Generated_Source\PSoC4/cyPm.c ****         *  enough time for internal settling.
 420:Generated_Source\PSoC4/cyPm.c ****         */
 421:Generated_Source\PSoC4/cyPm.c ****         (void) CY_PM_PWR_STOP_REG;
 535              		.loc 1 421 0
 536 0016 1A68     		ldr	r2, [r3]
 422:Generated_Source\PSoC4/cyPm.c ****         (void) CY_PM_PWR_STOP_REG;
 537              		.loc 1 422 0
 538 0018 1A68     		ldr	r2, [r3]
 423:Generated_Source\PSoC4/cyPm.c **** 
 424:Generated_Source\PSoC4/cyPm.c ****         /* Lock STOP mode: write PWR_STOP.FREEZE=0, UNLOCK=0x00, STOP=0, .TOKEN */
 425:Generated_Source\PSoC4/cyPm.c ****         CY_PM_PWR_STOP_REG &= (CY_PM_PWR_STOP_TOKEN_MASK | CY_PM_PWR_STOP_POLARITY);
 539              		.loc 1 425 0
 540 001a 1A68     		ldr	r2, [r3]
 541 001c 1140     		ands	r1, r2
 542 001e 1960     		str	r1, [r3]
 426:Generated_Source\PSoC4/cyPm.c **** 
 427:Generated_Source\PSoC4/cyPm.c ****         CyExitCriticalSection(interruptState);
 543              		.loc 1 427 0
 544 0020 FFF7FEFF 		bl	CyExitCriticalSection
 545              	.LVL23:
 428:Generated_Source\PSoC4/cyPm.c ****     }
 546              		.loc 1 428 0
 547              		@ sp needed
 548 0024 10BD     		pop	{r4, pc}
 549              	.L32:
 550 0026 C046     		.align	2
 551              	.L31:
 552 0028 2C000B40 		.word	1074462764
 553 002c FF000100 		.word	65791
 554              		.cfi_endproc
 555              	.LFE10:
 556              		.size	CySysPmUnfreezeIo, .-CySysPmUnfreezeIo
 557              		.text
ARM GAS  C:\Users\ORA\AppData\Local\Temp\cckp6ZXj.s 			page 23


 558              	.Letext0:
 559              		.file 3 "Generated_Source\\PSoC4\\cytypes.h"
 560              		.file 4 "Generated_Source\\PSoC4\\CyLib.h"
