ARM GAS  C:\Users\ORA\AppData\Local\Temp\cc4AyqZv.s 			page 1


   1              		.syntax unified
   2              		.cpu cortex-m0
   3              		.fpu softvfp
   4              		.eabi_attribute 20, 1
   5              		.eabi_attribute 21, 1
   6              		.eabi_attribute 23, 3
   7              		.eabi_attribute 24, 1
   8              		.eabi_attribute 25, 1
   9              		.eabi_attribute 26, 1
  10              		.eabi_attribute 30, 1
  11              		.eabi_attribute 34, 0
  12              		.eabi_attribute 18, 4
  13              		.thumb
  14              		.syntax unified
  15              		.file	"main.c"
  16              		.text
  17              	.Ltext0:
  18              		.cfi_sections	.debug_frame
  19              		.section	.text.main,"ax",%progbits
  20              		.align	2
  21              		.global	main
  22              		.code	16
  23              		.thumb_func
  24              		.type	main, %function
  25              	main:
  26              	.LFB35:
  27              		.file 1 "main.c"
   1:main.c        **** /* ========================================
   2:main.c        ****  *
   3:main.c        ****  * Copyright YOUR COMPANY, THE YEAR
   4:main.c        ****  * All Rights Reserved
   5:main.c        ****  * UNPUBLISHED, LICENSED SOFTWARE.
   6:main.c        ****  *
   7:main.c        ****  * CONFIDENTIAL AND PROPRIETARY INFORMATION
   8:main.c        ****  * WHICH IS THE PROPERTY OF your company.
   9:main.c        ****  *
  10:main.c        ****  * ========================================
  11:main.c        **** */
  12:main.c        **** #include "project.h"
  13:main.c        **** uint32 intecety = 0;
  14:main.c        **** 
  15:main.c        **** int main(void)
  16:main.c        **** {
  28              		.loc 1 16 0
  29              		.cfi_startproc
  30              		@ Volatile: function does not return.
  31              		@ args = 0, pretend = 0, frame = 0
  32              		@ frame_needed = 0, uses_anonymous_args = 0
  33 0000 10B5     		push	{r4, lr}
  34              		.cfi_def_cfa_offset 8
  35              		.cfi_offset 4, -8
  36              		.cfi_offset 14, -4
  17:main.c        ****     CyGlobalIntEnable; /* Enable global interrupts. */
  37              		.loc 1 17 0
  38              		.syntax divided
  39              	@ 17 "main.c" 1
  40 0002 62B6     		CPSIE   i
ARM GAS  C:\Users\ORA\AppData\Local\Temp\cc4AyqZv.s 			page 2


  41              	@ 0 "" 2
  18:main.c        ****     LED_PWM_Start();
  42              		.loc 1 18 0
  43              		.thumb
  44              		.syntax unified
  45 0004 FFF7FEFF 		bl	LED_PWM_Start
  46              	.LVL0:
  47              	.L3:
  19:main.c        ****     for(;;){
  20:main.c        ****         LED_PWM_WriteCompare(intecety++);       
  48              		.loc 1 20 0
  49 0008 084C     		ldr	r4, .L4
  50 000a 2068     		ldr	r0, [r4]
  51 000c 431C     		adds	r3, r0, #1
  52 000e 2360     		str	r3, [r4]
  53 0010 FFF7FEFF 		bl	LED_PWM_WriteCompare
  54              	.LVL1:
  21:main.c        ****         if (intecety > 10000){
  55              		.loc 1 21 0
  56 0014 2268     		ldr	r2, [r4]
  57 0016 064B     		ldr	r3, .L4+4
  58 0018 9A42     		cmp	r2, r3
  59 001a 02D9     		bls	.L2
  22:main.c        ****            intecety = 0; 
  60              		.loc 1 22 0
  61 001c 0022     		movs	r2, #0
  62 001e 034B     		ldr	r3, .L4
  63 0020 1A60     		str	r2, [r3]
  64              	.L2:
  23:main.c        ****         }
  24:main.c        ****         CyDelay(1);
  65              		.loc 1 24 0
  66 0022 0120     		movs	r0, #1
  67 0024 FFF7FEFF 		bl	CyDelay
  68              	.LVL2:
  25:main.c        ****     }
  69              		.loc 1 25 0
  70 0028 EEE7     		b	.L3
  71              	.L5:
  72 002a C046     		.align	2
  73              	.L4:
  74 002c 00000000 		.word	.LANCHOR0
  75 0030 10270000 		.word	10000
  76              		.cfi_endproc
  77              	.LFE35:
  78              		.size	main, .-main
  79              		.global	intecety
  80              		.bss
  81              		.align	2
  82              		.set	.LANCHOR0,. + 0
  83              		.type	intecety, %object
  84              		.size	intecety, 4
  85              	intecety:
  86 0000 00000000 		.space	4
  87              		.text
  88              	.Letext0:
  89              		.file 2 "Generated_Source\\PSoC4/LED_PWM.h"
ARM GAS  C:\Users\ORA\AppData\Local\Temp\cc4AyqZv.s 			page 3


  90              		.file 3 "Generated_Source\\PSoC4/CyLib.h"
  91              		.file 4 "Generated_Source\\PSoC4/cytypes.h"
