ARM GAS  C:\Users\ORA\AppData\Local\Temp\ccKv17md.s 			page 1


   1              		.syntax unified
   2              		.cpu cortex-m0
   3              		.fpu softvfp
   4              		.eabi_attribute 20, 1
   5              		.eabi_attribute 21, 1
   6              		.eabi_attribute 23, 3
   7              		.eabi_attribute 24, 1
   8              		.eabi_attribute 25, 1
   9              		.eabi_attribute 26, 1
  10              		.eabi_attribute 30, 1
  11              		.eabi_attribute 34, 0
  12              		.eabi_attribute 18, 4
  13              		.thumb
  14              		.syntax unified
  15              		.file	"CyFlash.c"
  16              		.text
  17              	.Ltext0:
  18              		.cfi_sections	.debug_frame
  19              		.section	.text.CySysFlashClockBackup,"ax",%progbits
  20              		.align	2
  21              		.code	16
  22              		.thumb_func
  23              		.type	CySysFlashClockBackup, %function
  24              	CySysFlashClockBackup:
  25              	.LFB5:
  26              		.file 1 "Generated_Source\\PSoC4\\CyFlash.c"
   1:Generated_Source\PSoC4/CyFlash.c **** /***************************************************************************//**
   2:Generated_Source\PSoC4/CyFlash.c **** * \file CyFlash.c
   3:Generated_Source\PSoC4/CyFlash.c **** * \version 5.81
   4:Generated_Source\PSoC4/CyFlash.c **** *
   5:Generated_Source\PSoC4/CyFlash.c **** * \brief Provides an API for the FLASH.
   6:Generated_Source\PSoC4/CyFlash.c **** *
   7:Generated_Source\PSoC4/CyFlash.c **** * \note This code is endian agnostic.
   8:Generated_Source\PSoC4/CyFlash.c **** *
   9:Generated_Source\PSoC4/CyFlash.c **** * \note Documentation of the API's in this file is located in the System
  10:Generated_Source\PSoC4/CyFlash.c **** * Reference Guide provided with PSoC Creator.
  11:Generated_Source\PSoC4/CyFlash.c **** *
  12:Generated_Source\PSoC4/CyFlash.c **** ********************************************************************************
  13:Generated_Source\PSoC4/CyFlash.c **** * \copyright
  14:Generated_Source\PSoC4/CyFlash.c **** * Copyright 2010-2018, Cypress Semiconductor Corporation.  All rights reserved.
  15:Generated_Source\PSoC4/CyFlash.c **** * You may use this file only in accordance with the license, terms, conditions,
  16:Generated_Source\PSoC4/CyFlash.c **** * disclaimers, and limitations in the end user license agreement accompanying
  17:Generated_Source\PSoC4/CyFlash.c **** * the software package with which this file was provided.
  18:Generated_Source\PSoC4/CyFlash.c **** *******************************************************************************/
  19:Generated_Source\PSoC4/CyFlash.c **** 
  20:Generated_Source\PSoC4/CyFlash.c **** #include "CyFlash.h"
  21:Generated_Source\PSoC4/CyFlash.c **** 
  22:Generated_Source\PSoC4/CyFlash.c **** 
  23:Generated_Source\PSoC4/CyFlash.c **** /*******************************************************************************
  24:Generated_Source\PSoC4/CyFlash.c **** * Cypress identified a defect with the Flash write functionality of the
  25:Generated_Source\PSoC4/CyFlash.c **** * PSoC 4000, PSoC 4000U, PSoC 4100, and PSoC 4200 devices. The 
  26:Generated_Source\PSoC4/CyFlash.c **** * CySysFlashWriteRow() function now checks the data to be written and, if 
  27:Generated_Source\PSoC4/CyFlash.c **** * necessary, modifies it to have a non-zero checksum. After writing to Flash, 
  28:Generated_Source\PSoC4/CyFlash.c **** * the modified data is replaced (Flash program) with 
  29:Generated_Source\PSoC4/CyFlash.c **** * the correct (original) data.
  30:Generated_Source\PSoC4/CyFlash.c **** *******************************************************************************/
  31:Generated_Source\PSoC4/CyFlash.c **** #define CY_FLASH_CHECKSUM_WORKAROUND    (CY_PSOC4_4000 || CY_PSOC4_4100 || CY_PSOC4_4200 || CY_PSOC
ARM GAS  C:\Users\ORA\AppData\Local\Temp\ccKv17md.s 			page 2


  32:Generated_Source\PSoC4/CyFlash.c **** 
  33:Generated_Source\PSoC4/CyFlash.c **** #if (CY_IP_FM || ((!CY_PSOC4_4000) && CY_IP_SPCIF_SYNCHRONOUS) || (!CY_IP_FM) && CY_PSOC4_4000)
  34:Generated_Source\PSoC4/CyFlash.c ****     static CY_SYS_FLASH_CLOCK_BACKUP_STRUCT cySysFlashBackup;
  35:Generated_Source\PSoC4/CyFlash.c **** #endif /* (CY_IP_FM || ((!CY_PSOC4_4000) && CY_IP_SPCIF_SYNCHRONOUS) || (!CY_IP_FM) && CY_PSOC4_400
  36:Generated_Source\PSoC4/CyFlash.c **** 
  37:Generated_Source\PSoC4/CyFlash.c **** static cystatus CySysFlashClockBackup(void);
  38:Generated_Source\PSoC4/CyFlash.c **** static cystatus CySysFlashClockRestore(void);
  39:Generated_Source\PSoC4/CyFlash.c **** #if(CY_IP_SPCIF_SYNCHRONOUS)
  40:Generated_Source\PSoC4/CyFlash.c ****     static cystatus CySysFlashClockConfig(void);
  41:Generated_Source\PSoC4/CyFlash.c **** #endif  /* (CY_IP_SPCIF_SYNCHRONOUS) */
  42:Generated_Source\PSoC4/CyFlash.c **** 
  43:Generated_Source\PSoC4/CyFlash.c **** 
  44:Generated_Source\PSoC4/CyFlash.c **** /*******************************************************************************
  45:Generated_Source\PSoC4/CyFlash.c **** * Function Name: CySysFlashWriteRow
  46:Generated_Source\PSoC4/CyFlash.c **** ****************************************************************************//**
  47:Generated_Source\PSoC4/CyFlash.c **** *
  48:Generated_Source\PSoC4/CyFlash.c **** * Erases a row of Flash and programs it with the new data.
  49:Generated_Source\PSoC4/CyFlash.c **** *
  50:Generated_Source\PSoC4/CyFlash.c **** * The IMO must be enabled before calling this function. The operation of the
  51:Generated_Source\PSoC4/CyFlash.c **** * flash writing hardware is dependent on the IMO.
  52:Generated_Source\PSoC4/CyFlash.c **** *
  53:Generated_Source\PSoC4/CyFlash.c **** * For PSoC 4000, PSoC 4100 BLE and PSoC 4200 BLE devices (PSoC 4100 BLE and
  54:Generated_Source\PSoC4/CyFlash.c **** * PSoC 4200 BLE devices with 256K of Flash memory are not affected), this API
  55:Generated_Source\PSoC4/CyFlash.c **** * will automatically modify the clock settings for the device. Writing to
  56:Generated_Source\PSoC4/CyFlash.c **** * flash requires that changes be made to the IMO and HFCLK settings. The
  57:Generated_Source\PSoC4/CyFlash.c **** * configuration is restored before returning. This will impact the operation
  58:Generated_Source\PSoC4/CyFlash.c **** * of most of the hardware in the device.
  59:Generated_Source\PSoC4/CyFlash.c **** *
  60:Generated_Source\PSoC4/CyFlash.c **** * For PSoC 4000 devices this API will automatically modify the clock settings
  61:Generated_Source\PSoC4/CyFlash.c **** * for the device. Writing to flash requires that changes be made to the IMO
  62:Generated_Source\PSoC4/CyFlash.c **** * and HFCLK settings. The configuration is restored before returning. HFCLK
  63:Generated_Source\PSoC4/CyFlash.c **** * will have several frequency changes during the operation of this API between
  64:Generated_Source\PSoC4/CyFlash.c **** * a minimum frequency of the current IMO frequency divided by 8 and a maximum
  65:Generated_Source\PSoC4/CyFlash.c **** * frequency of 12 MHz. This will impact the operation of most of the hardware
  66:Generated_Source\PSoC4/CyFlash.c **** * in the device.
  67:Generated_Source\PSoC4/CyFlash.c **** *
  68:Generated_Source\PSoC4/CyFlash.c **** * \param rowNum The flash row number. The number of the flash rows is defined by
  69:Generated_Source\PSoC4/CyFlash.c **** * the \ref CY_FLASH_NUMBER_ROWS macro for the selected device. Refer to the
  70:Generated_Source\PSoC4/CyFlash.c **** * device datasheet for the details.
  71:Generated_Source\PSoC4/CyFlash.c **** * \note The target flash array is calculated based on the specified flash row.
  72:Generated_Source\PSoC4/CyFlash.c **** *
  73:Generated_Source\PSoC4/CyFlash.c **** * \param rowData Array of bytes to write. The size of the array must be equal to
  74:Generated_Source\PSoC4/CyFlash.c **** * the flash row size. The flash row size for the selected device is defined by
  75:Generated_Source\PSoC4/CyFlash.c **** * the \ref CY_FLASH_SIZEOF_ROW macro. Refer to the device datasheet for the
  76:Generated_Source\PSoC4/CyFlash.c **** * details.
  77:Generated_Source\PSoC4/CyFlash.c **** *
  78:Generated_Source\PSoC4/CyFlash.c **** * \return \ref group_flash_status_codes
  79:Generated_Source\PSoC4/CyFlash.c **** *
  80:Generated_Source\PSoC4/CyFlash.c **** *******************************************************************************/
  81:Generated_Source\PSoC4/CyFlash.c **** uint32 CySysFlashWriteRow(uint32 rowNum, const uint8 rowData[])
  82:Generated_Source\PSoC4/CyFlash.c **** {
  83:Generated_Source\PSoC4/CyFlash.c ****     volatile uint32 retValue = CY_SYS_FLASH_SUCCESS;
  84:Generated_Source\PSoC4/CyFlash.c ****     volatile uint32 clkCnfRetValue = CY_SYS_FLASH_SUCCESS;
  85:Generated_Source\PSoC4/CyFlash.c ****     volatile uint32 parameters[(CY_FLASH_SIZEOF_ROW + CY_FLASH_SRAM_ROM_DATA) / sizeof(uint32)];
  86:Generated_Source\PSoC4/CyFlash.c ****     uint8  interruptState;
  87:Generated_Source\PSoC4/CyFlash.c **** 
  88:Generated_Source\PSoC4/CyFlash.c ****     #if (CY_FLASH_CHECKSUM_WORKAROUND)
ARM GAS  C:\Users\ORA\AppData\Local\Temp\ccKv17md.s 			page 3


  89:Generated_Source\PSoC4/CyFlash.c ****         uint32 needChecksumWorkaround = 0u;
  90:Generated_Source\PSoC4/CyFlash.c ****         uint32 savedIndex = 0u;
  91:Generated_Source\PSoC4/CyFlash.c ****         uint32 savedValue = 0u;
  92:Generated_Source\PSoC4/CyFlash.c ****         uint32 checksum = 0u;
  93:Generated_Source\PSoC4/CyFlash.c ****         uint32 bits = 0u;
  94:Generated_Source\PSoC4/CyFlash.c ****         uint32 i;
  95:Generated_Source\PSoC4/CyFlash.c ****     #endif  /* (CY_FLASH_CHECKSUM_WORKAROUND) */
  96:Generated_Source\PSoC4/CyFlash.c **** 
  97:Generated_Source\PSoC4/CyFlash.c ****     if ((rowNum < CY_FLASH_NUMBER_ROWS) && (rowData != 0u))
  98:Generated_Source\PSoC4/CyFlash.c ****     {
  99:Generated_Source\PSoC4/CyFlash.c ****         /* Copy data to be written into internal variable */
 100:Generated_Source\PSoC4/CyFlash.c ****         (void)memcpy((void *)&parameters[2u], rowData, CY_FLASH_SIZEOF_ROW);
 101:Generated_Source\PSoC4/CyFlash.c **** 
 102:Generated_Source\PSoC4/CyFlash.c ****         #if (CY_FLASH_CHECKSUM_WORKAROUND)
 103:Generated_Source\PSoC4/CyFlash.c **** 
 104:Generated_Source\PSoC4/CyFlash.c ****             for (i = 2u; i < ((CY_FLASH_SIZEOF_ROW / sizeof(uint32)) + 2u); i++)
 105:Generated_Source\PSoC4/CyFlash.c ****             {
 106:Generated_Source\PSoC4/CyFlash.c ****                 uint32 tmp = parameters[i];
 107:Generated_Source\PSoC4/CyFlash.c ****                 if (tmp != 0u)
 108:Generated_Source\PSoC4/CyFlash.c ****                 {
 109:Generated_Source\PSoC4/CyFlash.c ****                     checksum += tmp;
 110:Generated_Source\PSoC4/CyFlash.c ****                     bits |= tmp;
 111:Generated_Source\PSoC4/CyFlash.c ****                     savedIndex = i;
 112:Generated_Source\PSoC4/CyFlash.c ****                 }
 113:Generated_Source\PSoC4/CyFlash.c ****             }
 114:Generated_Source\PSoC4/CyFlash.c **** 
 115:Generated_Source\PSoC4/CyFlash.c ****             needChecksumWorkaround = ((checksum == 0u) && (bits != 0u)) ? 1u : 0u;
 116:Generated_Source\PSoC4/CyFlash.c ****             if (needChecksumWorkaround != 0u)
 117:Generated_Source\PSoC4/CyFlash.c ****             {
 118:Generated_Source\PSoC4/CyFlash.c ****                 savedValue = parameters[savedIndex];
 119:Generated_Source\PSoC4/CyFlash.c ****                 parameters[savedIndex] = 0u;
 120:Generated_Source\PSoC4/CyFlash.c ****             }
 121:Generated_Source\PSoC4/CyFlash.c ****         #endif  /* (CY_FLASH_CHECKSUM_WORKAROUND) */
 122:Generated_Source\PSoC4/CyFlash.c **** 
 123:Generated_Source\PSoC4/CyFlash.c ****         /* Load Flash Bytes */
 124:Generated_Source\PSoC4/CyFlash.c ****         parameters[0u] = (uint32) (CY_FLASH_GET_MACRO_FROM_ROW(rowNum)        << CY_FLASH_PARAM_MAC
 125:Generated_Source\PSoC4/CyFlash.c ****                          (uint32) (CY_FLASH_PAGE_LATCH_START_ADDR             << CY_FLASH_PARAM_ADD
 126:Generated_Source\PSoC4/CyFlash.c ****                          (uint32) (CY_FLASH_KEY_TWO(CY_FLASH_API_OPCODE_LOAD) << CY_FLASH_PARAM_KEY
 127:Generated_Source\PSoC4/CyFlash.c ****                          CY_FLASH_KEY_ONE;
 128:Generated_Source\PSoC4/CyFlash.c ****         parameters[1u] = CY_FLASH_SIZEOF_ROW - 1u;
 129:Generated_Source\PSoC4/CyFlash.c **** 
 130:Generated_Source\PSoC4/CyFlash.c ****         CY_FLASH_CPUSS_SYSARG_REG = (uint32) &parameters[0u];
 131:Generated_Source\PSoC4/CyFlash.c ****         CY_FLASH_CPUSS_SYSREQ_REG = CY_FLASH_CPUSS_REQ_START | CY_FLASH_API_OPCODE_LOAD;
 132:Generated_Source\PSoC4/CyFlash.c ****         CY_NOP;
 133:Generated_Source\PSoC4/CyFlash.c ****         retValue = CY_FLASH_API_RETURN;
 134:Generated_Source\PSoC4/CyFlash.c **** 
 135:Generated_Source\PSoC4/CyFlash.c ****         if(retValue == CY_SYS_FLASH_SUCCESS)
 136:Generated_Source\PSoC4/CyFlash.c ****         {
 137:Generated_Source\PSoC4/CyFlash.c ****             /***************************************************************
 138:Generated_Source\PSoC4/CyFlash.c ****             * Mask all the exceptions to guarantee that Flash write will
 139:Generated_Source\PSoC4/CyFlash.c ****             * occur in the atomic way. It will not affect system call
 140:Generated_Source\PSoC4/CyFlash.c ****             * execution (flash row write) since it is executed in the NMI
 141:Generated_Source\PSoC4/CyFlash.c ****             * context.
 142:Generated_Source\PSoC4/CyFlash.c ****             ***************************************************************/
 143:Generated_Source\PSoC4/CyFlash.c ****             interruptState = CyEnterCriticalSection();
 144:Generated_Source\PSoC4/CyFlash.c **** 
 145:Generated_Source\PSoC4/CyFlash.c ****             clkCnfRetValue = CySysFlashClockBackup();
ARM GAS  C:\Users\ORA\AppData\Local\Temp\ccKv17md.s 			page 4


 146:Generated_Source\PSoC4/CyFlash.c **** 
 147:Generated_Source\PSoC4/CyFlash.c ****         #if(CY_IP_SPCIF_SYNCHRONOUS)
 148:Generated_Source\PSoC4/CyFlash.c ****             if(clkCnfRetValue == CY_SYS_FLASH_SUCCESS)
 149:Generated_Source\PSoC4/CyFlash.c ****             {
 150:Generated_Source\PSoC4/CyFlash.c ****                 retValue = CySysFlashClockConfig();
 151:Generated_Source\PSoC4/CyFlash.c ****             }
 152:Generated_Source\PSoC4/CyFlash.c ****         #endif  /* (CY_IP_SPCIF_SYNCHRONOUS) */
 153:Generated_Source\PSoC4/CyFlash.c **** 
 154:Generated_Source\PSoC4/CyFlash.c ****             if(retValue == CY_SYS_FLASH_SUCCESS)
 155:Generated_Source\PSoC4/CyFlash.c ****             {
 156:Generated_Source\PSoC4/CyFlash.c ****                 /* Write Row */
 157:Generated_Source\PSoC4/CyFlash.c ****                 parameters[0u]  = (uint32) (((uint32) CY_FLASH_KEY_TWO(CY_FLASH_API_OPCODE_WRITE_RO
 158:Generated_Source\PSoC4/CyFlash.c ****                 parameters[0u] |= (uint32)(rowNum << 16u);
 159:Generated_Source\PSoC4/CyFlash.c **** 
 160:Generated_Source\PSoC4/CyFlash.c ****                 CY_FLASH_CPUSS_SYSARG_REG = (uint32) &parameters[0u];
 161:Generated_Source\PSoC4/CyFlash.c ****                 CY_FLASH_CPUSS_SYSREQ_REG = CY_FLASH_CPUSS_REQ_START | CY_FLASH_API_OPCODE_WRITE_RO
 162:Generated_Source\PSoC4/CyFlash.c ****                 CY_NOP;
 163:Generated_Source\PSoC4/CyFlash.c ****                 retValue = CY_FLASH_API_RETURN;
 164:Generated_Source\PSoC4/CyFlash.c ****             }
 165:Generated_Source\PSoC4/CyFlash.c **** 
 166:Generated_Source\PSoC4/CyFlash.c ****             #if (CY_FLASH_CHECKSUM_WORKAROUND)
 167:Generated_Source\PSoC4/CyFlash.c **** 
 168:Generated_Source\PSoC4/CyFlash.c ****                 if ((retValue == CYRET_SUCCESS) && (needChecksumWorkaround != 0u))
 169:Generated_Source\PSoC4/CyFlash.c ****                 {
 170:Generated_Source\PSoC4/CyFlash.c ****                     (void)memset((void *)&parameters[2u], 0, CY_FLASH_SIZEOF_ROW);
 171:Generated_Source\PSoC4/CyFlash.c ****                     parameters[savedIndex] = savedValue;
 172:Generated_Source\PSoC4/CyFlash.c **** 
 173:Generated_Source\PSoC4/CyFlash.c ****                     /* Load Flash Bytes */
 174:Generated_Source\PSoC4/CyFlash.c ****                     parameters[0u] = (uint32) (CY_FLASH_GET_MACRO_FROM_ROW(rowNum)        << CY_FLA
 175:Generated_Source\PSoC4/CyFlash.c ****                                      (uint32) (CY_FLASH_PAGE_LATCH_START_ADDR             << CY_FLA
 176:Generated_Source\PSoC4/CyFlash.c ****                                      (uint32) (CY_FLASH_KEY_TWO(CY_FLASH_API_OPCODE_LOAD) << CY_FLA
 177:Generated_Source\PSoC4/CyFlash.c ****                                      CY_FLASH_KEY_ONE;
 178:Generated_Source\PSoC4/CyFlash.c ****                     parameters[1u] = CY_FLASH_SIZEOF_ROW - 1u;
 179:Generated_Source\PSoC4/CyFlash.c **** 
 180:Generated_Source\PSoC4/CyFlash.c ****                     CY_FLASH_CPUSS_SYSARG_REG = (uint32) &parameters[0u];
 181:Generated_Source\PSoC4/CyFlash.c ****                     CY_FLASH_CPUSS_SYSREQ_REG = CY_FLASH_CPUSS_REQ_START | CY_FLASH_API_OPCODE_LOAD
 182:Generated_Source\PSoC4/CyFlash.c ****                     CY_NOP;
 183:Generated_Source\PSoC4/CyFlash.c ****                     retValue = CY_FLASH_API_RETURN;
 184:Generated_Source\PSoC4/CyFlash.c **** 
 185:Generated_Source\PSoC4/CyFlash.c **** 
 186:Generated_Source\PSoC4/CyFlash.c ****                     if(retValue == CY_SYS_FLASH_SUCCESS)
 187:Generated_Source\PSoC4/CyFlash.c ****                     {
 188:Generated_Source\PSoC4/CyFlash.c ****                         /* Program Row */
 189:Generated_Source\PSoC4/CyFlash.c ****                         parameters[0u]  =
 190:Generated_Source\PSoC4/CyFlash.c ****                             (uint32) (((uint32) CY_FLASH_KEY_TWO(CY_FLASH_API_OPCODE_PROGRAM_ROW) <
 191:Generated_Source\PSoC4/CyFlash.c ****                                                     CY_FLASH_PARAM_KEY_TWO_OFFSET) | CY_FLASH_KEY_O
 192:Generated_Source\PSoC4/CyFlash.c ****                         parameters[0u] |= (uint32)(rowNum << 16u);
 193:Generated_Source\PSoC4/CyFlash.c **** 
 194:Generated_Source\PSoC4/CyFlash.c ****                         CY_FLASH_CPUSS_SYSARG_REG = (uint32) &parameters[0u];
 195:Generated_Source\PSoC4/CyFlash.c ****                         CY_FLASH_CPUSS_SYSREQ_REG = CY_FLASH_CPUSS_REQ_START | CY_FLASH_API_OPCODE_
 196:Generated_Source\PSoC4/CyFlash.c ****                         CY_NOP;
 197:Generated_Source\PSoC4/CyFlash.c ****                         retValue = CY_FLASH_API_RETURN;
 198:Generated_Source\PSoC4/CyFlash.c ****                     }
 199:Generated_Source\PSoC4/CyFlash.c ****                 }
 200:Generated_Source\PSoC4/CyFlash.c ****             #endif  /* (CY_FLASH_CHECKSUM_WORKAROUND) */
 201:Generated_Source\PSoC4/CyFlash.c **** 
 202:Generated_Source\PSoC4/CyFlash.c ****             if(clkCnfRetValue == CY_SYS_FLASH_SUCCESS)
ARM GAS  C:\Users\ORA\AppData\Local\Temp\ccKv17md.s 			page 5


 203:Generated_Source\PSoC4/CyFlash.c ****             {
 204:Generated_Source\PSoC4/CyFlash.c ****                 clkCnfRetValue = CySysFlashClockRestore();
 205:Generated_Source\PSoC4/CyFlash.c **** 
 206:Generated_Source\PSoC4/CyFlash.c ****                 if(clkCnfRetValue != CY_SYS_FLASH_SUCCESS)
 207:Generated_Source\PSoC4/CyFlash.c ****                 {
 208:Generated_Source\PSoC4/CyFlash.c ****                     retValue = clkCnfRetValue;
 209:Generated_Source\PSoC4/CyFlash.c ****                 }
 210:Generated_Source\PSoC4/CyFlash.c ****             }
 211:Generated_Source\PSoC4/CyFlash.c **** 
 212:Generated_Source\PSoC4/CyFlash.c ****             CyExitCriticalSection(interruptState);
 213:Generated_Source\PSoC4/CyFlash.c ****         }
 214:Generated_Source\PSoC4/CyFlash.c ****     }
 215:Generated_Source\PSoC4/CyFlash.c ****     else
 216:Generated_Source\PSoC4/CyFlash.c ****     {
 217:Generated_Source\PSoC4/CyFlash.c ****         retValue = CY_SYS_FLASH_INVALID_ADDR;
 218:Generated_Source\PSoC4/CyFlash.c ****     }
 219:Generated_Source\PSoC4/CyFlash.c **** 
 220:Generated_Source\PSoC4/CyFlash.c ****     return (retValue);
 221:Generated_Source\PSoC4/CyFlash.c **** }
 222:Generated_Source\PSoC4/CyFlash.c **** 
 223:Generated_Source\PSoC4/CyFlash.c **** 
 224:Generated_Source\PSoC4/CyFlash.c **** 
 225:Generated_Source\PSoC4/CyFlash.c **** #if (CY_IP_FLASH_PARALLEL_PGM_EN && (CY_IP_FLASH_MACROS > 1u))
 226:Generated_Source\PSoC4/CyFlash.c **** /*******************************************************************************
 227:Generated_Source\PSoC4/CyFlash.c **** * Function Name: CySysFlashStartWriteRow
 228:Generated_Source\PSoC4/CyFlash.c **** ****************************************************************************//**
 229:Generated_Source\PSoC4/CyFlash.c **** *
 230:Generated_Source\PSoC4/CyFlash.c **** * Initiates a write to a row of Flash. A call to this API is non-blocking. 
 231:Generated_Source\PSoC4/CyFlash.c **** * Use CySysFlashResumeWriteRow() to resume flash writes and 
 232:Generated_Source\PSoC4/CyFlash.c **** * CySysFlashGetWriteRowStatus() to ascertain status of the write operation.
 233:Generated_Source\PSoC4/CyFlash.c **** *
 234:Generated_Source\PSoC4/CyFlash.c **** * The devices require HFCLK to be sourced by 48 MHz IMO during flash write.
 235:Generated_Source\PSoC4/CyFlash.c **** * This API will modify IMO configuration; it can be later restored to original
 236:Generated_Source\PSoC4/CyFlash.c **** * configuration by calling \ref CySysFlashGetWriteRowStatus().
 237:Generated_Source\PSoC4/CyFlash.c **** *
 238:Generated_Source\PSoC4/CyFlash.c **** * \note The non-blocking operation does not return success status 
 239:Generated_Source\PSoC4/CyFlash.c **** * CY_SYS_FLASH_SUCCESS until the last \ref CySysFlashResumeWriteRow API 
 240:Generated_Source\PSoC4/CyFlash.c **** * is complete. The CPUSS_SYSARG register will be reflecting the SRAM address 
 241:Generated_Source\PSoC4/CyFlash.c **** * during an ongoing non-blocking operation.
 242:Generated_Source\PSoC4/CyFlash.c **** *    
 243:Generated_Source\PSoC4/CyFlash.c **** * \param rowNum The flash row number. The number of the flash rows is defined by
 244:Generated_Source\PSoC4/CyFlash.c **** * the \ref CY_FLASH_NUMBER_ROWS macro for the selected device. Refer to the
 245:Generated_Source\PSoC4/CyFlash.c **** * device datasheet for the details.
 246:Generated_Source\PSoC4/CyFlash.c **** * \note The target flash array is calculated based on the specified flash row.
 247:Generated_Source\PSoC4/CyFlash.c **** *
 248:Generated_Source\PSoC4/CyFlash.c **** * \param rowData Array of bytes to write. The size of the array must be equal to
 249:Generated_Source\PSoC4/CyFlash.c **** * the flash row size. The flash row size for the selected device is defined by
 250:Generated_Source\PSoC4/CyFlash.c **** * the \ref CY_FLASH_SIZEOF_ROW macro. Refer to the device datasheet for the
 251:Generated_Source\PSoC4/CyFlash.c **** * details.
 252:Generated_Source\PSoC4/CyFlash.c **** *
 253:Generated_Source\PSoC4/CyFlash.c **** * \return \ref group_flash_status_codes
 254:Generated_Source\PSoC4/CyFlash.c **** *
 255:Generated_Source\PSoC4/CyFlash.c **** *******************************************************************************/
 256:Generated_Source\PSoC4/CyFlash.c **** uint32 CySysFlashStartWriteRow(uint32 rowNum, const uint8 rowData[])
 257:Generated_Source\PSoC4/CyFlash.c **** {
 258:Generated_Source\PSoC4/CyFlash.c ****     volatile uint32 retValue = CY_SYS_FLASH_SUCCESS;
 259:Generated_Source\PSoC4/CyFlash.c ****     volatile uint32 parameters[(CY_FLASH_SIZEOF_ROW + CY_FLASH_SRAM_ROM_DATA) / sizeof(uint32)];
ARM GAS  C:\Users\ORA\AppData\Local\Temp\ccKv17md.s 			page 6


 260:Generated_Source\PSoC4/CyFlash.c ****     uint8  interruptState;
 261:Generated_Source\PSoC4/CyFlash.c **** 
 262:Generated_Source\PSoC4/CyFlash.c **** #if(CY_IP_SPCIF_SYNCHRONOUS)
 263:Generated_Source\PSoC4/CyFlash.c ****     volatile uint32 clkCnfRetValue = CY_SYS_FLASH_SUCCESS;
 264:Generated_Source\PSoC4/CyFlash.c **** #endif  /* (CY_IP_SPCIF_SYNCHRONOUS) */    
 265:Generated_Source\PSoC4/CyFlash.c **** 
 266:Generated_Source\PSoC4/CyFlash.c ****     if ((rowNum < CY_FLASH_NUMBER_ROWS) && (rowData != 0u))
 267:Generated_Source\PSoC4/CyFlash.c ****     {
 268:Generated_Source\PSoC4/CyFlash.c ****         /* Copy data to be written into internal variable */
 269:Generated_Source\PSoC4/CyFlash.c ****         (void)memcpy((void *)&parameters[2u], rowData, CY_FLASH_SIZEOF_ROW);
 270:Generated_Source\PSoC4/CyFlash.c **** 
 271:Generated_Source\PSoC4/CyFlash.c ****         /* Load Flash Bytes */
 272:Generated_Source\PSoC4/CyFlash.c ****         parameters[0u] = (uint32) (CY_FLASH_GET_MACRO_FROM_ROW(rowNum)        << CY_FLASH_PARAM_MAC
 273:Generated_Source\PSoC4/CyFlash.c ****                          (uint32) (CY_FLASH_PAGE_LATCH_START_ADDR             << CY_FLASH_PARAM_ADD
 274:Generated_Source\PSoC4/CyFlash.c ****                          (uint32) (CY_FLASH_KEY_TWO(CY_FLASH_API_OPCODE_LOAD) << CY_FLASH_PARAM_KEY
 275:Generated_Source\PSoC4/CyFlash.c ****                          CY_FLASH_KEY_ONE;
 276:Generated_Source\PSoC4/CyFlash.c ****         parameters[1u] = CY_FLASH_SIZEOF_ROW - 1u;
 277:Generated_Source\PSoC4/CyFlash.c **** 
 278:Generated_Source\PSoC4/CyFlash.c ****         CY_FLASH_CPUSS_SYSARG_REG = (uint32) &parameters[0u];
 279:Generated_Source\PSoC4/CyFlash.c ****         CY_FLASH_CPUSS_SYSREQ_REG = CY_FLASH_CPUSS_REQ_START | CY_FLASH_API_OPCODE_LOAD;
 280:Generated_Source\PSoC4/CyFlash.c ****         CY_NOP;
 281:Generated_Source\PSoC4/CyFlash.c ****         retValue = CY_FLASH_API_RETURN;
 282:Generated_Source\PSoC4/CyFlash.c **** 
 283:Generated_Source\PSoC4/CyFlash.c ****         if(retValue == CY_SYS_FLASH_SUCCESS)
 284:Generated_Source\PSoC4/CyFlash.c ****         {
 285:Generated_Source\PSoC4/CyFlash.c ****             /***************************************************************
 286:Generated_Source\PSoC4/CyFlash.c ****             * Mask all the exceptions to guarantee that Flash write will
 287:Generated_Source\PSoC4/CyFlash.c ****             * occur in the atomic way. It will not affect system call
 288:Generated_Source\PSoC4/CyFlash.c ****             * execution (flash row write) since it is executed in the NMI
 289:Generated_Source\PSoC4/CyFlash.c ****             * context.
 290:Generated_Source\PSoC4/CyFlash.c ****             ***************************************************************/
 291:Generated_Source\PSoC4/CyFlash.c ****             interruptState = CyEnterCriticalSection();
 292:Generated_Source\PSoC4/CyFlash.c **** 
 293:Generated_Source\PSoC4/CyFlash.c ****         #if(CY_IP_SPCIF_SYNCHRONOUS)
 294:Generated_Source\PSoC4/CyFlash.c ****             clkCnfRetValue = CySysFlashClockBackup();
 295:Generated_Source\PSoC4/CyFlash.c ****             
 296:Generated_Source\PSoC4/CyFlash.c ****             if(clkCnfRetValue == CY_SYS_FLASH_SUCCESS)
 297:Generated_Source\PSoC4/CyFlash.c ****             {
 298:Generated_Source\PSoC4/CyFlash.c ****                 retValue = CySysFlashClockConfig();
 299:Generated_Source\PSoC4/CyFlash.c ****             }
 300:Generated_Source\PSoC4/CyFlash.c ****         #else
 301:Generated_Source\PSoC4/CyFlash.c ****             (void)CySysFlashClockBackup();
 302:Generated_Source\PSoC4/CyFlash.c ****         #endif  /* (CY_IP_SPCIF_SYNCHRONOUS) */
 303:Generated_Source\PSoC4/CyFlash.c **** 
 304:Generated_Source\PSoC4/CyFlash.c ****             if(retValue == CY_SYS_FLASH_SUCCESS)
 305:Generated_Source\PSoC4/CyFlash.c ****             {
 306:Generated_Source\PSoC4/CyFlash.c ****                 /* Non-blocking Write Row */
 307:Generated_Source\PSoC4/CyFlash.c ****                 parameters[0u]  = (uint32) (((uint32) CY_FLASH_KEY_TWO(CY_FLASH_API_OPCODE_NON_BLOC
 308:Generated_Source\PSoC4/CyFlash.c ****                                                         CY_FLASH_PARAM_KEY_TWO_OFFSET) | CY_FLASH_K
 309:Generated_Source\PSoC4/CyFlash.c ****                 parameters[0u] |= (uint32)(rowNum << 16u);
 310:Generated_Source\PSoC4/CyFlash.c **** 
 311:Generated_Source\PSoC4/CyFlash.c ****                 CY_FLASH_CPUSS_SYSARG_REG = (uint32) &parameters[0u];
 312:Generated_Source\PSoC4/CyFlash.c ****                 CY_FLASH_CPUSS_SYSREQ_REG = CY_FLASH_CPUSS_REQ_START | CY_FLASH_API_OPCODE_NON_BLOC
 313:Generated_Source\PSoC4/CyFlash.c ****                 CY_NOP;
 314:Generated_Source\PSoC4/CyFlash.c ****                 retValue = CY_FLASH_API_RETURN;
 315:Generated_Source\PSoC4/CyFlash.c ****             }
 316:Generated_Source\PSoC4/CyFlash.c **** 
ARM GAS  C:\Users\ORA\AppData\Local\Temp\ccKv17md.s 			page 7


 317:Generated_Source\PSoC4/CyFlash.c ****             CyExitCriticalSection(interruptState);
 318:Generated_Source\PSoC4/CyFlash.c ****         }
 319:Generated_Source\PSoC4/CyFlash.c ****     }
 320:Generated_Source\PSoC4/CyFlash.c ****     else
 321:Generated_Source\PSoC4/CyFlash.c ****     {
 322:Generated_Source\PSoC4/CyFlash.c ****         retValue = CY_SYS_FLASH_INVALID_ADDR;
 323:Generated_Source\PSoC4/CyFlash.c ****     }
 324:Generated_Source\PSoC4/CyFlash.c **** 
 325:Generated_Source\PSoC4/CyFlash.c ****     return (retValue);
 326:Generated_Source\PSoC4/CyFlash.c **** }
 327:Generated_Source\PSoC4/CyFlash.c **** 
 328:Generated_Source\PSoC4/CyFlash.c **** 
 329:Generated_Source\PSoC4/CyFlash.c **** /*******************************************************************************
 330:Generated_Source\PSoC4/CyFlash.c **** * Function Name: CySysFlashGetWriteRowStatus
 331:Generated_Source\PSoC4/CyFlash.c **** ****************************************************************************//**
 332:Generated_Source\PSoC4/CyFlash.c **** *
 333:Generated_Source\PSoC4/CyFlash.c **** * Returns the current status of the flash write operation.
 334:Generated_Source\PSoC4/CyFlash.c **** *
 335:Generated_Source\PSoC4/CyFlash.c **** ** \note The non-blocking operation does not return success status 
 336:Generated_Source\PSoC4/CyFlash.c **** * CY_SYS_FLASH_SUCCESS until the last \ref CySysFlashResumeWriteRow API 
 337:Generated_Source\PSoC4/CyFlash.c **** * is complete. The CPUSS_SYSARG register will be reflecting the SRAM address 
 338:Generated_Source\PSoC4/CyFlash.c **** * during an ongoing non-blocking operation.
 339:Generated_Source\PSoC4/CyFlash.c **** * Calling this API before starting a non-blocking write row operation 
 340:Generated_Source\PSoC4/CyFlash.c **** * using the \ref CySysFlashStartWriteRow() API will cause improper operation.
 341:Generated_Source\PSoC4/CyFlash.c **** *
 342:Generated_Source\PSoC4/CyFlash.c **** * \return \ref group_flash_status_codes
 343:Generated_Source\PSoC4/CyFlash.c **** *
 344:Generated_Source\PSoC4/CyFlash.c **** *******************************************************************************/
 345:Generated_Source\PSoC4/CyFlash.c **** uint32 CySysFlashGetWriteRowStatus(void)
 346:Generated_Source\PSoC4/CyFlash.c **** {
 347:Generated_Source\PSoC4/CyFlash.c ****     volatile uint32 retValue = CY_SYS_FLASH_SUCCESS;
 348:Generated_Source\PSoC4/CyFlash.c **** 
 349:Generated_Source\PSoC4/CyFlash.c ****     CY_NOP;
 350:Generated_Source\PSoC4/CyFlash.c ****     retValue = CY_FLASH_API_RETURN;
 351:Generated_Source\PSoC4/CyFlash.c **** 
 352:Generated_Source\PSoC4/CyFlash.c ****     (void) CySysFlashClockRestore();
 353:Generated_Source\PSoC4/CyFlash.c **** 
 354:Generated_Source\PSoC4/CyFlash.c ****     return (retValue);
 355:Generated_Source\PSoC4/CyFlash.c **** }
 356:Generated_Source\PSoC4/CyFlash.c **** 
 357:Generated_Source\PSoC4/CyFlash.c **** 
 358:Generated_Source\PSoC4/CyFlash.c **** /*******************************************************************************
 359:Generated_Source\PSoC4/CyFlash.c **** * Function Name: CySysFlashResumeWriteRow
 360:Generated_Source\PSoC4/CyFlash.c **** ****************************************************************************//**
 361:Generated_Source\PSoC4/CyFlash.c **** *
 362:Generated_Source\PSoC4/CyFlash.c **** * This API must be called, once the SPC interrupt is triggered to complete the
 363:Generated_Source\PSoC4/CyFlash.c **** * non-blocking operation. It is advised not to prolong calling this API for
 364:Generated_Source\PSoC4/CyFlash.c **** * more than 25 ms.
 365:Generated_Source\PSoC4/CyFlash.c **** *
 366:Generated_Source\PSoC4/CyFlash.c **** * The non-blocking write row API \ref CySysFlashStartWriteRow() requires that
 367:Generated_Source\PSoC4/CyFlash.c **** * this API be called 3 times to complete the write. This can be done by
 368:Generated_Source\PSoC4/CyFlash.c **** * configuring SPCIF interrupt and placing a call to this API.
 369:Generated_Source\PSoC4/CyFlash.c **** *
 370:Generated_Source\PSoC4/CyFlash.c **** * For CM0 based device, a non-blocking call to program a row of macro 0
 371:Generated_Source\PSoC4/CyFlash.c **** * requires the user to set the CPUSS_CONFIG.VECS_IN_RAM bit so that the
 372:Generated_Source\PSoC4/CyFlash.c **** * interrupt vector for the SPC is fetched from the SRAM rather than the FLASH.
 373:Generated_Source\PSoC4/CyFlash.c **** *
ARM GAS  C:\Users\ORA\AppData\Local\Temp\ccKv17md.s 			page 8


 374:Generated_Source\PSoC4/CyFlash.c **** * For CM0+ based device, if the user wants to keep the vector table in flash
 375:Generated_Source\PSoC4/CyFlash.c **** * when performing non-blocking flash write then they need to make sure the
 376:Generated_Source\PSoC4/CyFlash.c **** * vector table is placed in the flash macro which is not getting programmed by
 377:Generated_Source\PSoC4/CyFlash.c **** * configuring the VTOR register.
 378:Generated_Source\PSoC4/CyFlash.c **** *
 379:Generated_Source\PSoC4/CyFlash.c **** * \note The non-blocking operation does not return success status 
 380:Generated_Source\PSoC4/CyFlash.c **** * CY_SYS_FLASH_SUCCESS until the last Resume API is complete. 
 381:Generated_Source\PSoC4/CyFlash.c **** * The CPUSS_SYSARG register will be reflecting the SRAM address during an 
 382:Generated_Source\PSoC4/CyFlash.c **** * ongoing non-blocking operation.
 383:Generated_Source\PSoC4/CyFlash.c **** *
 384:Generated_Source\PSoC4/CyFlash.c **** * \return \ref group_flash_status_codes
 385:Generated_Source\PSoC4/CyFlash.c **** *
 386:Generated_Source\PSoC4/CyFlash.c **** *******************************************************************************/
 387:Generated_Source\PSoC4/CyFlash.c **** uint32 CySysFlashResumeWriteRow(void)
 388:Generated_Source\PSoC4/CyFlash.c **** {
 389:Generated_Source\PSoC4/CyFlash.c ****     volatile uint32 retValue = CY_SYS_FLASH_SUCCESS;
 390:Generated_Source\PSoC4/CyFlash.c ****     static volatile uint32 parameters[1u];
 391:Generated_Source\PSoC4/CyFlash.c **** 
 392:Generated_Source\PSoC4/CyFlash.c ****     /* Resume */
 393:Generated_Source\PSoC4/CyFlash.c ****     parameters[0u] = (uint32) (((uint32) CY_FLASH_KEY_TWO(CY_FLASH_API_OPCODE_RESUME_NON_BLOCKING) 
 394:Generated_Source\PSoC4/CyFlash.c ****                                          CY_FLASH_PARAM_KEY_TWO_OFFSET) | CY_FLASH_KEY_ONE);
 395:Generated_Source\PSoC4/CyFlash.c ****     CY_FLASH_CPUSS_SYSARG_REG = (uint32) &parameters[0u];
 396:Generated_Source\PSoC4/CyFlash.c ****     CY_FLASH_CPUSS_SYSREQ_REG = CY_FLASH_CPUSS_REQ_START | CY_FLASH_API_OPCODE_RESUME_NON_BLOCKING;
 397:Generated_Source\PSoC4/CyFlash.c ****     
 398:Generated_Source\PSoC4/CyFlash.c ****     CY_NOP;
 399:Generated_Source\PSoC4/CyFlash.c ****     retValue = CY_FLASH_API_RETURN;
 400:Generated_Source\PSoC4/CyFlash.c ****     
 401:Generated_Source\PSoC4/CyFlash.c ****     return (retValue);
 402:Generated_Source\PSoC4/CyFlash.c **** }
 403:Generated_Source\PSoC4/CyFlash.c **** 
 404:Generated_Source\PSoC4/CyFlash.c **** #endif /* (CY_IP_FLASH_PARALLEL_PGM_EN && (CY_IP_FLASH_MACROS > 1u)) */
 405:Generated_Source\PSoC4/CyFlash.c **** 
 406:Generated_Source\PSoC4/CyFlash.c **** 
 407:Generated_Source\PSoC4/CyFlash.c **** /*******************************************************************************
 408:Generated_Source\PSoC4/CyFlash.c **** * Function Name: CySysFlashSetWaitCycles
 409:Generated_Source\PSoC4/CyFlash.c **** ****************************************************************************//**
 410:Generated_Source\PSoC4/CyFlash.c **** *
 411:Generated_Source\PSoC4/CyFlash.c **** * Sets the number of clock cycles the cache will wait before it samples data
 412:Generated_Source\PSoC4/CyFlash.c **** * coming back from Flash. This function must be called before increasing the
 413:Generated_Source\PSoC4/CyFlash.c **** * SYSCLK clock frequency. It can optionally be called after lowering SYSCLK
 414:Generated_Source\PSoC4/CyFlash.c **** * clock frequency in order to improve the CPU performance.
 415:Generated_Source\PSoC4/CyFlash.c **** *
 416:Generated_Source\PSoC4/CyFlash.c **** * \param freq The System clock frequency in MHz.
 417:Generated_Source\PSoC4/CyFlash.c **** *
 418:Generated_Source\PSoC4/CyFlash.c **** * \note Invalid frequency will be ignored in Release mode and the CPU will be
 419:Generated_Source\PSoC4/CyFlash.c **** * halted if project is compiled in Debug mode.
 420:Generated_Source\PSoC4/CyFlash.c **** *
 421:Generated_Source\PSoC4/CyFlash.c **** *******************************************************************************/
 422:Generated_Source\PSoC4/CyFlash.c **** void CySysFlashSetWaitCycles(uint32 freq)
 423:Generated_Source\PSoC4/CyFlash.c **** {
 424:Generated_Source\PSoC4/CyFlash.c ****     uint8  interruptState;
 425:Generated_Source\PSoC4/CyFlash.c **** 
 426:Generated_Source\PSoC4/CyFlash.c ****     interruptState = CyEnterCriticalSection();
 427:Generated_Source\PSoC4/CyFlash.c **** 
 428:Generated_Source\PSoC4/CyFlash.c ****     #if (CY_IP_CPUSS)
 429:Generated_Source\PSoC4/CyFlash.c **** 
 430:Generated_Source\PSoC4/CyFlash.c ****         if ( freq <= CY_FLASH_SYSCLK_BOUNDARY_MHZ )
ARM GAS  C:\Users\ORA\AppData\Local\Temp\ccKv17md.s 			page 9


 431:Generated_Source\PSoC4/CyFlash.c ****         {
 432:Generated_Source\PSoC4/CyFlash.c ****             CY_SYS_CLK_SELECT_REG &= (uint32)(~CY_FLASH_WAIT_STATE_EN);
 433:Generated_Source\PSoC4/CyFlash.c ****         }
 434:Generated_Source\PSoC4/CyFlash.c ****         else
 435:Generated_Source\PSoC4/CyFlash.c ****         {
 436:Generated_Source\PSoC4/CyFlash.c ****             CY_SYS_CLK_SELECT_REG |= CY_FLASH_WAIT_STATE_EN;
 437:Generated_Source\PSoC4/CyFlash.c ****         }
 438:Generated_Source\PSoC4/CyFlash.c ****     #else
 439:Generated_Source\PSoC4/CyFlash.c ****         #if (CY_IP_CPUSS_FLASHC_PRESENT)
 440:Generated_Source\PSoC4/CyFlash.c ****             /* CY_IP_FM and CY_IP_FS */
 441:Generated_Source\PSoC4/CyFlash.c ****             if (freq <= CY_FLASH_CTL_WS_0_FREQ_MAX)
 442:Generated_Source\PSoC4/CyFlash.c ****             {
 443:Generated_Source\PSoC4/CyFlash.c ****                 CY_FLASH_CTL_REG = (CY_FLASH_CTL_REG & ~CY_FLASH_CTL_WS_MASK) | CY_FLASH_CTL_WS_0_V
 444:Generated_Source\PSoC4/CyFlash.c ****             } else
 445:Generated_Source\PSoC4/CyFlash.c ****             if (freq <= CY_FLASH_CTL_WS_1_FREQ_MAX)
 446:Generated_Source\PSoC4/CyFlash.c ****             {
 447:Generated_Source\PSoC4/CyFlash.c ****                 CY_FLASH_CTL_REG = (CY_FLASH_CTL_REG & ~CY_FLASH_CTL_WS_MASK) | CY_FLASH_CTL_WS_1_V
 448:Generated_Source\PSoC4/CyFlash.c ****             } else
 449:Generated_Source\PSoC4/CyFlash.c ****             #if (CY_IP_FMLT || CY_IP_FSLT)
 450:Generated_Source\PSoC4/CyFlash.c ****                 if (freq <= CY_FLASH_CTL_WS_2_FREQ_MAX)
 451:Generated_Source\PSoC4/CyFlash.c ****                 {
 452:Generated_Source\PSoC4/CyFlash.c ****                     CY_FLASH_CTL_REG = (CY_FLASH_CTL_REG & ~CY_FLASH_CTL_WS_MASK) | CY_FLASH_CTL_WS
 453:Generated_Source\PSoC4/CyFlash.c ****                 }
 454:Generated_Source\PSoC4/CyFlash.c ****                 else
 455:Generated_Source\PSoC4/CyFlash.c ****             #endif  /* (CY_IP_FMLT || CY_IP_FSLT) */
 456:Generated_Source\PSoC4/CyFlash.c ****         #endif /* (CY_IP_CPUSS_FLASHC_PRESENT) */
 457:Generated_Source\PSoC4/CyFlash.c ****         {
 458:Generated_Source\PSoC4/CyFlash.c ****             /* Halt CPU in debug mode if frequency is invalid */
 459:Generated_Source\PSoC4/CyFlash.c ****             CYASSERT(0u != 0u);
 460:Generated_Source\PSoC4/CyFlash.c ****         }
 461:Generated_Source\PSoC4/CyFlash.c **** 
 462:Generated_Source\PSoC4/CyFlash.c ****     #endif  /* (CY_IP_CPUSS) */
 463:Generated_Source\PSoC4/CyFlash.c **** 
 464:Generated_Source\PSoC4/CyFlash.c ****     CyExitCriticalSection(interruptState);
 465:Generated_Source\PSoC4/CyFlash.c **** }
 466:Generated_Source\PSoC4/CyFlash.c **** 
 467:Generated_Source\PSoC4/CyFlash.c **** 
 468:Generated_Source\PSoC4/CyFlash.c **** #if (CY_SFLASH_XTRA_ROWS)
 469:Generated_Source\PSoC4/CyFlash.c **** /*******************************************************************************
 470:Generated_Source\PSoC4/CyFlash.c **** * Function Name: CySysSFlashWriteUserRow
 471:Generated_Source\PSoC4/CyFlash.c **** ****************************************************************************//**
 472:Generated_Source\PSoC4/CyFlash.c **** *
 473:Generated_Source\PSoC4/CyFlash.c **** * Writes data to a row of SFlash user configurable area.
 474:Generated_Source\PSoC4/CyFlash.c **** *
 475:Generated_Source\PSoC4/CyFlash.c **** * This API is applicable for PSoC 4100 BLE, PSoC 4200 BLE, PSoC 4100M,
 476:Generated_Source\PSoC4/CyFlash.c **** * PSoC 4200M, and PSoC 4200L family of devices.
 477:Generated_Source\PSoC4/CyFlash.c **** *
 478:Generated_Source\PSoC4/CyFlash.c **** * \param rowNum The flash row number. The flash row number. The number of the
 479:Generated_Source\PSoC4/CyFlash.c **** * flash rows is defined by the CY_SFLASH_NUMBER_USERROWS macro for the selected
 480:Generated_Source\PSoC4/CyFlash.c **** * device. Valid range is 0-3. Refer to the device TRM for details.
 481:Generated_Source\PSoC4/CyFlash.c **** *
 482:Generated_Source\PSoC4/CyFlash.c **** * \param rowData Array of bytes to write. The size of the array must be equal to
 483:Generated_Source\PSoC4/CyFlash.c **** * the flash row size. The flash row size for the selected device is defined by
 484:Generated_Source\PSoC4/CyFlash.c **** * the \ref CY_SFLASH_SIZEOF_USERROW macro. Refer to the device TRM for the
 485:Generated_Source\PSoC4/CyFlash.c **** * details.
 486:Generated_Source\PSoC4/CyFlash.c **** *
 487:Generated_Source\PSoC4/CyFlash.c **** * \return \ref group_flash_status_codes
ARM GAS  C:\Users\ORA\AppData\Local\Temp\ccKv17md.s 			page 10


 488:Generated_Source\PSoC4/CyFlash.c **** *
 489:Generated_Source\PSoC4/CyFlash.c **** *******************************************************************************/
 490:Generated_Source\PSoC4/CyFlash.c **** uint32 CySysSFlashWriteUserRow(uint32 rowNum, const uint8 rowData[])
 491:Generated_Source\PSoC4/CyFlash.c **** {
 492:Generated_Source\PSoC4/CyFlash.c ****     volatile uint32 retValue = CY_SYS_FLASH_SUCCESS;
 493:Generated_Source\PSoC4/CyFlash.c ****     volatile uint32 clkCnfRetValue = CY_SYS_FLASH_SUCCESS;
 494:Generated_Source\PSoC4/CyFlash.c ****     volatile uint32 parameters[(CY_FLASH_SIZEOF_ROW + CY_FLASH_SRAM_ROM_DATA)/4u];
 495:Generated_Source\PSoC4/CyFlash.c ****     uint8  interruptState;
 496:Generated_Source\PSoC4/CyFlash.c **** 
 497:Generated_Source\PSoC4/CyFlash.c **** 
 498:Generated_Source\PSoC4/CyFlash.c ****     if ((rowNum < CY_SFLASH_NUMBER_USERROWS) && (rowData != 0u))
 499:Generated_Source\PSoC4/CyFlash.c ****     {
 500:Generated_Source\PSoC4/CyFlash.c ****         /* Load Flash Bytes */
 501:Generated_Source\PSoC4/CyFlash.c ****         parameters[0u] = (uint32) (CY_FLASH_GET_MACRO_FROM_ROW(rowNum)        << CY_FLASH_PARAM_MAC
 502:Generated_Source\PSoC4/CyFlash.c ****                          (uint32) (CY_FLASH_PAGE_LATCH_START_ADDR             << CY_FLASH_PARAM_ADD
 503:Generated_Source\PSoC4/CyFlash.c ****                          (uint32) (CY_FLASH_KEY_TWO(CY_FLASH_API_OPCODE_LOAD) << CY_FLASH_PARAM_KEY
 504:Generated_Source\PSoC4/CyFlash.c ****                          CY_FLASH_KEY_ONE;
 505:Generated_Source\PSoC4/CyFlash.c ****         parameters[1u] = CY_FLASH_SIZEOF_ROW - 1u;
 506:Generated_Source\PSoC4/CyFlash.c **** 
 507:Generated_Source\PSoC4/CyFlash.c ****         (void)memcpy((void *)&parameters[2u], rowData, CY_FLASH_SIZEOF_ROW);
 508:Generated_Source\PSoC4/CyFlash.c ****         CY_FLASH_CPUSS_SYSARG_REG = (uint32) &parameters[0u];
 509:Generated_Source\PSoC4/CyFlash.c ****         CY_FLASH_CPUSS_SYSREQ_REG = CY_FLASH_CPUSS_REQ_START | CY_FLASH_API_OPCODE_LOAD;
 510:Generated_Source\PSoC4/CyFlash.c ****         CY_NOP;
 511:Generated_Source\PSoC4/CyFlash.c ****         retValue = CY_FLASH_API_RETURN;
 512:Generated_Source\PSoC4/CyFlash.c **** 
 513:Generated_Source\PSoC4/CyFlash.c ****         if(retValue == CY_SYS_FLASH_SUCCESS)
 514:Generated_Source\PSoC4/CyFlash.c ****         {
 515:Generated_Source\PSoC4/CyFlash.c ****             /***************************************************************
 516:Generated_Source\PSoC4/CyFlash.c ****             * Mask all the exceptions to guarantee that Flash write will
 517:Generated_Source\PSoC4/CyFlash.c ****             * occur in the atomic way. It will not affect system call
 518:Generated_Source\PSoC4/CyFlash.c ****             * execution (flash row write) since it is executed in the NMI
 519:Generated_Source\PSoC4/CyFlash.c ****             * context.
 520:Generated_Source\PSoC4/CyFlash.c ****             ***************************************************************/
 521:Generated_Source\PSoC4/CyFlash.c ****             interruptState = CyEnterCriticalSection();
 522:Generated_Source\PSoC4/CyFlash.c **** 
 523:Generated_Source\PSoC4/CyFlash.c ****             clkCnfRetValue = CySysFlashClockBackup();
 524:Generated_Source\PSoC4/CyFlash.c **** 
 525:Generated_Source\PSoC4/CyFlash.c ****         #if(CY_IP_SPCIF_SYNCHRONOUS)
 526:Generated_Source\PSoC4/CyFlash.c ****             if(clkCnfRetValue == CY_SYS_FLASH_SUCCESS)
 527:Generated_Source\PSoC4/CyFlash.c ****             {
 528:Generated_Source\PSoC4/CyFlash.c ****                 retValue = CySysFlashClockConfig();
 529:Generated_Source\PSoC4/CyFlash.c ****             }
 530:Generated_Source\PSoC4/CyFlash.c ****         #endif  /* (CY_IP_SPCIF_SYNCHRONOUS) */
 531:Generated_Source\PSoC4/CyFlash.c **** 
 532:Generated_Source\PSoC4/CyFlash.c ****             if(retValue == CY_SYS_FLASH_SUCCESS)
 533:Generated_Source\PSoC4/CyFlash.c ****             {
 534:Generated_Source\PSoC4/CyFlash.c ****                 /* Write User Sflash Row */
 535:Generated_Source\PSoC4/CyFlash.c ****                 parameters[0u]  = (uint32) (((uint32) CY_FLASH_KEY_TWO(CY_FLASH_API_OPCODE_WRITE_SF
 536:Generated_Source\PSoC4/CyFlash.c ****                 parameters[1u] = (uint32) rowNum;
 537:Generated_Source\PSoC4/CyFlash.c **** 
 538:Generated_Source\PSoC4/CyFlash.c ****                 CY_FLASH_CPUSS_SYSARG_REG = (uint32) &parameters[0u];
 539:Generated_Source\PSoC4/CyFlash.c ****                 CY_FLASH_CPUSS_SYSREQ_REG = CY_FLASH_CPUSS_REQ_START | CY_FLASH_API_OPCODE_WRITE_SF
 540:Generated_Source\PSoC4/CyFlash.c ****                 CY_NOP;
 541:Generated_Source\PSoC4/CyFlash.c ****                 retValue = CY_FLASH_API_RETURN;
 542:Generated_Source\PSoC4/CyFlash.c ****             }
 543:Generated_Source\PSoC4/CyFlash.c **** 
 544:Generated_Source\PSoC4/CyFlash.c ****             if(clkCnfRetValue == CY_SYS_FLASH_SUCCESS)
ARM GAS  C:\Users\ORA\AppData\Local\Temp\ccKv17md.s 			page 11


 545:Generated_Source\PSoC4/CyFlash.c ****             {
 546:Generated_Source\PSoC4/CyFlash.c ****                 clkCnfRetValue = CySysFlashClockRestore();
 547:Generated_Source\PSoC4/CyFlash.c ****             }
 548:Generated_Source\PSoC4/CyFlash.c ****             CyExitCriticalSection(interruptState);
 549:Generated_Source\PSoC4/CyFlash.c ****         }
 550:Generated_Source\PSoC4/CyFlash.c ****     }
 551:Generated_Source\PSoC4/CyFlash.c ****     else
 552:Generated_Source\PSoC4/CyFlash.c ****     {
 553:Generated_Source\PSoC4/CyFlash.c ****         retValue = CY_SYS_FLASH_INVALID_ADDR;
 554:Generated_Source\PSoC4/CyFlash.c ****     }
 555:Generated_Source\PSoC4/CyFlash.c **** 
 556:Generated_Source\PSoC4/CyFlash.c ****     return (retValue);
 557:Generated_Source\PSoC4/CyFlash.c **** }
 558:Generated_Source\PSoC4/CyFlash.c **** #endif /* (CY_SFLASH_XTRA_ROWS) */
 559:Generated_Source\PSoC4/CyFlash.c **** 
 560:Generated_Source\PSoC4/CyFlash.c **** 
 561:Generated_Source\PSoC4/CyFlash.c **** /*******************************************************************************
 562:Generated_Source\PSoC4/CyFlash.c **** * Function Name: CySysFlashClockBackup
 563:Generated_Source\PSoC4/CyFlash.c **** ****************************************************************************//**
 564:Generated_Source\PSoC4/CyFlash.c **** *
 565:Generated_Source\PSoC4/CyFlash.c **** * Backups the device clock configuration.
 566:Generated_Source\PSoC4/CyFlash.c **** *
 567:Generated_Source\PSoC4/CyFlash.c **** * \return The same as \ref CySysFlashWriteRow().
 568:Generated_Source\PSoC4/CyFlash.c **** *
 569:Generated_Source\PSoC4/CyFlash.c **** *******************************************************************************/
 570:Generated_Source\PSoC4/CyFlash.c **** static cystatus CySysFlashClockBackup(void)
 571:Generated_Source\PSoC4/CyFlash.c **** {
  27              		.loc 1 571 0
  28              		.cfi_startproc
  29              		@ args = 0, pretend = 0, frame = 0
  30              		@ frame_needed = 0, uses_anonymous_args = 0
  31              		@ link register save eliminated.
  32              	.LVL0:
 572:Generated_Source\PSoC4/CyFlash.c ****     cystatus retValue = CY_SYS_FLASH_SUCCESS;
 573:Generated_Source\PSoC4/CyFlash.c **** #if(!CY_IP_FM)
 574:Generated_Source\PSoC4/CyFlash.c ****     #if !(CY_PSOC4_4000)
 575:Generated_Source\PSoC4/CyFlash.c ****         #if (CY_IP_SPCIF_SYNCHRONOUS)
 576:Generated_Source\PSoC4/CyFlash.c ****             volatile uint32   parameters[2u];
 577:Generated_Source\PSoC4/CyFlash.c ****         #endif /* (CY_IP_SPCIF_SYNCHRONOUS) */
 578:Generated_Source\PSoC4/CyFlash.c ****     #endif  /* !(CY_PSOC4_4000) */
 579:Generated_Source\PSoC4/CyFlash.c **** #endif  /* (!CY_IP_FM) */
 580:Generated_Source\PSoC4/CyFlash.c **** 
 581:Generated_Source\PSoC4/CyFlash.c **** #if(CY_IP_FM)
 582:Generated_Source\PSoC4/CyFlash.c **** 
 583:Generated_Source\PSoC4/CyFlash.c ****     /***************************************************************
 584:Generated_Source\PSoC4/CyFlash.c ****     * Preserve IMO configuration that could be changed during
 585:Generated_Source\PSoC4/CyFlash.c ****     * system call execution (Cypress ID #150448).
 586:Generated_Source\PSoC4/CyFlash.c ****     ***************************************************************/
 587:Generated_Source\PSoC4/CyFlash.c ****     cySysFlashBackup.imoConfigReg = CY_SYS_CLK_IMO_CONFIG_REG;
 588:Generated_Source\PSoC4/CyFlash.c **** 
 589:Generated_Source\PSoC4/CyFlash.c **** #else   /* (CY_IP_FMLT) */
 590:Generated_Source\PSoC4/CyFlash.c **** 
 591:Generated_Source\PSoC4/CyFlash.c ****     #if (CY_PSOC4_4000)
 592:Generated_Source\PSoC4/CyFlash.c **** 
 593:Generated_Source\PSoC4/CyFlash.c ****         /***************************************************************************
 594:Generated_Source\PSoC4/CyFlash.c ****         * Perform firmware clock settings backup for the PSOC4 4000 devices (the
 595:Generated_Source\PSoC4/CyFlash.c ****         * corresponding system call is not available).
ARM GAS  C:\Users\ORA\AppData\Local\Temp\ccKv17md.s 			page 12


 596:Generated_Source\PSoC4/CyFlash.c ****         ***************************************************************************/
 597:Generated_Source\PSoC4/CyFlash.c **** 
 598:Generated_Source\PSoC4/CyFlash.c ****         /***************************************************************************
 599:Generated_Source\PSoC4/CyFlash.c ****         * The registers listed below are modified by CySysFlashClockConfig().
 600:Generated_Source\PSoC4/CyFlash.c ****         *
 601:Generated_Source\PSoC4/CyFlash.c ****         * The registers to be saved:
 602:Generated_Source\PSoC4/CyFlash.c ****         * - CY_SYS_CLK_IMO_CONFIG_REG - IMO enable state.
 603:Generated_Source\PSoC4/CyFlash.c ****         * - CY_SYS_CLK_SELECT_REG     - HFCLK source, divider, pump source. Save
 604:Generated_Source\PSoC4/CyFlash.c ****         *                               entire register as it can be directly
 605:Generated_Source\PSoC4/CyFlash.c ****         *                               written on restore (no special
 606:Generated_Source\PSoC4/CyFlash.c ****         *                               requirements).
 607:Generated_Source\PSoC4/CyFlash.c ****         * - CY_SYS_CLK_IMO_SELECT_REG - Save IMO frequency.
 608:Generated_Source\PSoC4/CyFlash.c ****         *
 609:Generated_Source\PSoC4/CyFlash.c ****         * The registers not to be saved:
 610:Generated_Source\PSoC4/CyFlash.c ****         * - CY_SYS_CLK_IMO_TRIM1_REG  - No need to save. Function of frequency.
 611:Generated_Source\PSoC4/CyFlash.c ****         *                               Restored by CySysClkWriteImoFreq().
 612:Generated_Source\PSoC4/CyFlash.c ****         * - CY_SYS_CLK_IMO_TRIM3_REG  - No need to save. Function of frequency.
 613:Generated_Source\PSoC4/CyFlash.c ****         *                               Restored by CySysClkWriteImoFreq().
 614:Generated_Source\PSoC4/CyFlash.c ****         * - REG_CPUSS_FLASH_CTL       - Flash wait cycles. Unmodified due to system
 615:Generated_Source\PSoC4/CyFlash.c ****         *                               clock 16 MHz limit.
 616:Generated_Source\PSoC4/CyFlash.c ****         ***************************************************************************/
 617:Generated_Source\PSoC4/CyFlash.c **** 
 618:Generated_Source\PSoC4/CyFlash.c ****         cySysFlashBackup.clkSelectReg = CY_SYS_CLK_SELECT_REG;
 619:Generated_Source\PSoC4/CyFlash.c ****         cySysFlashBackup.clkImoEna    = CY_SYS_CLK_IMO_CONFIG_REG & CY_SYS_CLK_IMO_CONFIG_ENABLE;
 620:Generated_Source\PSoC4/CyFlash.c ****         cySysFlashBackup.clkImoFreq   = CY_SYS_CLK_IMO_MIN_FREQ_MHZ + (CY_SYS_CLK_IMO_SELECT_REG <<
 621:Generated_Source\PSoC4/CyFlash.c **** 
 622:Generated_Source\PSoC4/CyFlash.c ****     #else
 623:Generated_Source\PSoC4/CyFlash.c **** 
 624:Generated_Source\PSoC4/CyFlash.c ****         #if (CY_IP_SPCIF_SYNCHRONOUS)
 625:Generated_Source\PSoC4/CyFlash.c ****             /* FM-Lite Clock Backup System Call */
 626:Generated_Source\PSoC4/CyFlash.c ****             parameters[0u] =
 627:Generated_Source\PSoC4/CyFlash.c ****                 (uint32) ((CY_FLASH_KEY_TWO(CY_FLASH_API_OPCODE_CLK_BACKUP) <<  CY_FLASH_PARAM_KEY_
 628:Generated_Source\PSoC4/CyFlash.c ****                             CY_FLASH_KEY_ONE);
 629:Generated_Source\PSoC4/CyFlash.c ****             parameters[1u] = (uint32) &cySysFlashBackup.clockSettings[0u];
 630:Generated_Source\PSoC4/CyFlash.c ****             CY_FLASH_CPUSS_SYSARG_REG = (uint32) &parameters[0u];
 631:Generated_Source\PSoC4/CyFlash.c ****             CY_FLASH_CPUSS_SYSREQ_REG = CY_FLASH_CPUSS_REQ_START | CY_FLASH_API_OPCODE_CLK_BACKUP;
 632:Generated_Source\PSoC4/CyFlash.c ****             CY_NOP;
 633:Generated_Source\PSoC4/CyFlash.c ****             retValue = CY_FLASH_API_RETURN;
 634:Generated_Source\PSoC4/CyFlash.c ****         #endif /* (CY_IP_SPCIF_SYNCHRONOUS) */
 635:Generated_Source\PSoC4/CyFlash.c **** 
 636:Generated_Source\PSoC4/CyFlash.c ****     #endif  /* (CY_PSOC4_4000) */
 637:Generated_Source\PSoC4/CyFlash.c **** 
 638:Generated_Source\PSoC4/CyFlash.c **** #endif  /* (CY_IP_FM) */
 639:Generated_Source\PSoC4/CyFlash.c **** 
 640:Generated_Source\PSoC4/CyFlash.c ****     return (retValue);
 641:Generated_Source\PSoC4/CyFlash.c **** }
  33              		.loc 1 641 0
  34 0000 0020     		movs	r0, #0
  35              		@ sp needed
  36 0002 7047     		bx	lr
  37              		.cfi_endproc
  38              	.LFE5:
  39              		.size	CySysFlashClockBackup, .-CySysFlashClockBackup
  40              		.section	.text.CySysFlashClockRestore,"ax",%progbits
  41              		.align	2
  42              		.code	16
  43              		.thumb_func
ARM GAS  C:\Users\ORA\AppData\Local\Temp\ccKv17md.s 			page 13


  44              		.type	CySysFlashClockRestore, %function
  45              	CySysFlashClockRestore:
  46              	.LFB6:
 642:Generated_Source\PSoC4/CyFlash.c **** 
 643:Generated_Source\PSoC4/CyFlash.c **** 
 644:Generated_Source\PSoC4/CyFlash.c **** #if(CY_IP_SPCIF_SYNCHRONOUS)
 645:Generated_Source\PSoC4/CyFlash.c **** /*******************************************************************************
 646:Generated_Source\PSoC4/CyFlash.c **** * Function Name: CySysFlashClockConfig
 647:Generated_Source\PSoC4/CyFlash.c **** ****************************************************************************//**
 648:Generated_Source\PSoC4/CyFlash.c **** *
 649:Generated_Source\PSoC4/CyFlash.c **** * Configures the device clocks for the flash writing.
 650:Generated_Source\PSoC4/CyFlash.c **** *
 651:Generated_Source\PSoC4/CyFlash.c **** * \return The same as \ref CySysFlashWriteRow().
 652:Generated_Source\PSoC4/CyFlash.c **** *
 653:Generated_Source\PSoC4/CyFlash.c **** *******************************************************************************/
 654:Generated_Source\PSoC4/CyFlash.c **** static cystatus CySysFlashClockConfig(void)
 655:Generated_Source\PSoC4/CyFlash.c **** {
 656:Generated_Source\PSoC4/CyFlash.c ****     cystatus retValue = CY_SYS_FLASH_SUCCESS;
 657:Generated_Source\PSoC4/CyFlash.c **** 
 658:Generated_Source\PSoC4/CyFlash.c ****     /***************************************************************************
 659:Generated_Source\PSoC4/CyFlash.c ****     * The FM-Lite IP uses the IMO at 48MHz for the pump clock and SPC timer
 660:Generated_Source\PSoC4/CyFlash.c ****     * clock. The PUMP_SEL and HF clock must be set to IMO before calling Flash
 661:Generated_Source\PSoC4/CyFlash.c ****     * write or erase operation.
 662:Generated_Source\PSoC4/CyFlash.c ****     ***************************************************************************/
 663:Generated_Source\PSoC4/CyFlash.c **** #if (CY_PSOC4_4000)
 664:Generated_Source\PSoC4/CyFlash.c **** 
 665:Generated_Source\PSoC4/CyFlash.c ****     /***************************************************************************
 666:Generated_Source\PSoC4/CyFlash.c ****     * Perform firmware clock settings setup for the PSOC4 4000 devices (the
 667:Generated_Source\PSoC4/CyFlash.c ****     * corresponding system call is not reliable):
 668:Generated_Source\PSoC4/CyFlash.c ****     * - The IMO frequency should be 48 MHz
 669:Generated_Source\PSoC4/CyFlash.c ****     * - The IMO should be source for the HFCLK
 670:Generated_Source\PSoC4/CyFlash.c ****     * - The IMO should be the source for the charge pump clock
 671:Generated_Source\PSoC4/CyFlash.c ****     *
 672:Generated_Source\PSoC4/CyFlash.c ****     * Note The structure members used below are initialized by
 673:Generated_Source\PSoC4/CyFlash.c ****     * the CySysFlashClockBackup() function.
 674:Generated_Source\PSoC4/CyFlash.c ****     ***************************************************************************/
 675:Generated_Source\PSoC4/CyFlash.c ****     if ((cySysFlashBackup.clkImoFreq != 48u) ||
 676:Generated_Source\PSoC4/CyFlash.c ****         ((cySysFlashBackup.clkSelectReg & CY_SYS_CLK_SELECT_DIRECT_SEL_MASK) != CY_SYS_CLK_HFCLK_IM
 677:Generated_Source\PSoC4/CyFlash.c ****         (((cySysFlashBackup.clkSelectReg >> CY_SYS_CLK_SELECT_PUMP_SEL_SHIFT) & CY_SYS_CLK_SELECT_P
 678:Generated_Source\PSoC4/CyFlash.c ****             CY_SYS_CLK_SELECT_PUMP_SEL_IMO))
 679:Generated_Source\PSoC4/CyFlash.c ****     {
 680:Generated_Source\PSoC4/CyFlash.c ****         /***********************************************************************
 681:Generated_Source\PSoC4/CyFlash.c ****          Set HFCLK divider to divide-by-4 to ensure that System clock frequency
 682:Generated_Source\PSoC4/CyFlash.c ****         * is within the valid limit (16 MHz for the PSoC4 4000).
 683:Generated_Source\PSoC4/CyFlash.c ****         ***********************************************************************/
 684:Generated_Source\PSoC4/CyFlash.c ****         CySysClkWriteHfclkDiv(CY_SYS_CLK_HFCLK_DIV_4);
 685:Generated_Source\PSoC4/CyFlash.c **** 
 686:Generated_Source\PSoC4/CyFlash.c ****         /* The IMO frequency should be 48 MHz */
 687:Generated_Source\PSoC4/CyFlash.c ****         if (cySysFlashBackup.clkImoFreq != 48u)
 688:Generated_Source\PSoC4/CyFlash.c ****         {
 689:Generated_Source\PSoC4/CyFlash.c ****             CySysClkWriteImoFreq(48u);
 690:Generated_Source\PSoC4/CyFlash.c ****         }
 691:Generated_Source\PSoC4/CyFlash.c ****         CySysClkImoStart();
 692:Generated_Source\PSoC4/CyFlash.c **** 
 693:Generated_Source\PSoC4/CyFlash.c ****         /* The IMO should be source for the HFCLK */
 694:Generated_Source\PSoC4/CyFlash.c ****         CySysClkWriteHfclkDirect(CY_SYS_CLK_HFCLK_IMO);
 695:Generated_Source\PSoC4/CyFlash.c **** 
ARM GAS  C:\Users\ORA\AppData\Local\Temp\ccKv17md.s 			page 14


 696:Generated_Source\PSoC4/CyFlash.c ****         /* The IMO should be the source for the charge pump clock */
 697:Generated_Source\PSoC4/CyFlash.c ****         CY_SYS_CLK_SELECT_REG =  (CY_SYS_CLK_SELECT_REG &
 698:Generated_Source\PSoC4/CyFlash.c ****             ((uint32)~(uint32)(CY_SYS_CLK_SELECT_PUMP_SEL_MASK << CY_SYS_CLK_SELECT_PUMP_SEL_SHIFT)
 699:Generated_Source\PSoC4/CyFlash.c ****             ((uint32)((uint32)1u << CY_SYS_CLK_SELECT_PUMP_SEL_SHIFT));
 700:Generated_Source\PSoC4/CyFlash.c ****     }
 701:Generated_Source\PSoC4/CyFlash.c **** 
 702:Generated_Source\PSoC4/CyFlash.c **** #else
 703:Generated_Source\PSoC4/CyFlash.c **** 
 704:Generated_Source\PSoC4/CyFlash.c ****     /* FM-Lite Clock Configuration */
 705:Generated_Source\PSoC4/CyFlash.c ****     CY_FLASH_CPUSS_SYSARG_REG =
 706:Generated_Source\PSoC4/CyFlash.c ****         (uint32) ((CY_FLASH_KEY_TWO(CY_FLASH_API_OPCODE_CLK_CONFIG) <<  CY_FLASH_PARAM_KEY_TWO_OFFS
 707:Generated_Source\PSoC4/CyFlash.c ****                     CY_FLASH_KEY_ONE);
 708:Generated_Source\PSoC4/CyFlash.c ****     CY_FLASH_CPUSS_SYSREQ_REG = CY_FLASH_CPUSS_REQ_START | CY_FLASH_API_OPCODE_CLK_CONFIG;
 709:Generated_Source\PSoC4/CyFlash.c ****     CY_NOP;
 710:Generated_Source\PSoC4/CyFlash.c ****     retValue = CY_FLASH_API_RETURN;
 711:Generated_Source\PSoC4/CyFlash.c **** 
 712:Generated_Source\PSoC4/CyFlash.c **** #endif  /* (CY_PSOC4_4000) */
 713:Generated_Source\PSoC4/CyFlash.c **** 
 714:Generated_Source\PSoC4/CyFlash.c ****     return (retValue);
 715:Generated_Source\PSoC4/CyFlash.c **** }
 716:Generated_Source\PSoC4/CyFlash.c **** #endif  /* (CY_IP_SPCIF_SYNCHRONOUS) */
 717:Generated_Source\PSoC4/CyFlash.c **** 
 718:Generated_Source\PSoC4/CyFlash.c **** 
 719:Generated_Source\PSoC4/CyFlash.c **** /*******************************************************************************
 720:Generated_Source\PSoC4/CyFlash.c **** * Function Name: CySysFlashClockRestore
 721:Generated_Source\PSoC4/CyFlash.c **** ****************************************************************************//**
 722:Generated_Source\PSoC4/CyFlash.c **** *
 723:Generated_Source\PSoC4/CyFlash.c **** * Restores the device clock configuration.
 724:Generated_Source\PSoC4/CyFlash.c **** *
 725:Generated_Source\PSoC4/CyFlash.c **** * \return The same as \ref CySysFlashWriteRow().
 726:Generated_Source\PSoC4/CyFlash.c **** *
 727:Generated_Source\PSoC4/CyFlash.c **** *******************************************************************************/
 728:Generated_Source\PSoC4/CyFlash.c **** static cystatus CySysFlashClockRestore(void)
 729:Generated_Source\PSoC4/CyFlash.c **** {
  47              		.loc 1 729 0
  48              		.cfi_startproc
  49              		@ args = 0, pretend = 0, frame = 0
  50              		@ frame_needed = 0, uses_anonymous_args = 0
  51              		@ link register save eliminated.
  52              	.LVL1:
 730:Generated_Source\PSoC4/CyFlash.c ****     cystatus retValue = CY_SYS_FLASH_SUCCESS;
 731:Generated_Source\PSoC4/CyFlash.c **** #if(!CY_IP_FM)
 732:Generated_Source\PSoC4/CyFlash.c ****     #if !(CY_PSOC4_4000)
 733:Generated_Source\PSoC4/CyFlash.c ****         #if (CY_IP_SPCIF_SYNCHRONOUS)
 734:Generated_Source\PSoC4/CyFlash.c ****             volatile uint32   parameters[2u];
 735:Generated_Source\PSoC4/CyFlash.c ****         #endif /* (CY_IP_SPCIF_SYNCHRONOUS) */
 736:Generated_Source\PSoC4/CyFlash.c ****     #endif  /* !(CY_PSOC4_4000) */
 737:Generated_Source\PSoC4/CyFlash.c **** #endif  /* (!CY_IP_FM) */
 738:Generated_Source\PSoC4/CyFlash.c **** 
 739:Generated_Source\PSoC4/CyFlash.c **** #if(CY_IP_FM)
 740:Generated_Source\PSoC4/CyFlash.c **** 
 741:Generated_Source\PSoC4/CyFlash.c ****     /***************************************************************
 742:Generated_Source\PSoC4/CyFlash.c ****     * Restore IMO configuration that could be changed during
 743:Generated_Source\PSoC4/CyFlash.c ****     * system call execution (Cypress ID #150448).
 744:Generated_Source\PSoC4/CyFlash.c ****     ***************************************************************/
 745:Generated_Source\PSoC4/CyFlash.c ****     CY_SYS_CLK_IMO_CONFIG_REG = cySysFlashBackup.imoConfigReg;
 746:Generated_Source\PSoC4/CyFlash.c **** 
ARM GAS  C:\Users\ORA\AppData\Local\Temp\ccKv17md.s 			page 15


 747:Generated_Source\PSoC4/CyFlash.c **** #else
 748:Generated_Source\PSoC4/CyFlash.c **** 
 749:Generated_Source\PSoC4/CyFlash.c ****     #if (CY_PSOC4_4000)
 750:Generated_Source\PSoC4/CyFlash.c **** 
 751:Generated_Source\PSoC4/CyFlash.c ****         /***************************************************************************
 752:Generated_Source\PSoC4/CyFlash.c ****         * Perform firmware clock settings restore for the PSOC4 4000 devices (the
 753:Generated_Source\PSoC4/CyFlash.c ****         * corresponding system call is not available).
 754:Generated_Source\PSoC4/CyFlash.c ****         ***************************************************************************/
 755:Generated_Source\PSoC4/CyFlash.c **** 
 756:Generated_Source\PSoC4/CyFlash.c ****         /* Restore clock settings */
 757:Generated_Source\PSoC4/CyFlash.c ****         if ((cySysFlashBackup.clkImoFreq != 48u) ||
 758:Generated_Source\PSoC4/CyFlash.c ****             ((cySysFlashBackup.clkSelectReg & CY_SYS_CLK_SELECT_DIRECT_SEL_MASK) != CY_SYS_CLK_HFCL
 759:Generated_Source\PSoC4/CyFlash.c ****             (((cySysFlashBackup.clkSelectReg >> CY_SYS_CLK_SELECT_PUMP_SEL_SHIFT) & CY_SYS_CLK_SELE
 760:Generated_Source\PSoC4/CyFlash.c ****                 CY_SYS_CLK_SELECT_PUMP_SEL_IMO))
 761:Generated_Source\PSoC4/CyFlash.c ****         {
 762:Generated_Source\PSoC4/CyFlash.c ****             /* Restore IMO frequency if needed */
 763:Generated_Source\PSoC4/CyFlash.c ****             if (cySysFlashBackup.clkImoFreq != 48u)
 764:Generated_Source\PSoC4/CyFlash.c ****             {
 765:Generated_Source\PSoC4/CyFlash.c ****                 CySysClkWriteImoFreq(cySysFlashBackup.clkImoFreq);
 766:Generated_Source\PSoC4/CyFlash.c ****             }
 767:Generated_Source\PSoC4/CyFlash.c **** 
 768:Generated_Source\PSoC4/CyFlash.c ****             /* Restore HFCLK clock source */
 769:Generated_Source\PSoC4/CyFlash.c ****             CySysClkWriteHfclkDirect(cySysFlashBackup.clkSelectReg & CY_SYS_CLK_SELECT_DIRECT_SEL_M
 770:Generated_Source\PSoC4/CyFlash.c **** 
 771:Generated_Source\PSoC4/CyFlash.c ****             /* Restore HFCLK divider and source for pump  */
 772:Generated_Source\PSoC4/CyFlash.c ****             CY_SYS_CLK_SELECT_REG = cySysFlashBackup.clkSelectReg;
 773:Generated_Source\PSoC4/CyFlash.c **** 
 774:Generated_Source\PSoC4/CyFlash.c ****             /* Stop IMO if needed */
 775:Generated_Source\PSoC4/CyFlash.c ****             if (0u == cySysFlashBackup.clkImoEna)
 776:Generated_Source\PSoC4/CyFlash.c ****             {
 777:Generated_Source\PSoC4/CyFlash.c ****                 CySysClkImoStop();
 778:Generated_Source\PSoC4/CyFlash.c ****             }
 779:Generated_Source\PSoC4/CyFlash.c ****         }
 780:Generated_Source\PSoC4/CyFlash.c **** 
 781:Generated_Source\PSoC4/CyFlash.c ****     #else
 782:Generated_Source\PSoC4/CyFlash.c **** 
 783:Generated_Source\PSoC4/CyFlash.c ****         #if (CY_IP_SPCIF_SYNCHRONOUS)
 784:Generated_Source\PSoC4/CyFlash.c ****             /* FM-Lite Clock Restore */
 785:Generated_Source\PSoC4/CyFlash.c ****             parameters[0u] =
 786:Generated_Source\PSoC4/CyFlash.c ****                 (uint32) ((CY_FLASH_KEY_TWO(CY_FLASH_API_OPCODE_CLK_RESTORE) <<  CY_FLASH_PARAM_KEY
 787:Generated_Source\PSoC4/CyFlash.c ****                             CY_FLASH_KEY_ONE);
 788:Generated_Source\PSoC4/CyFlash.c ****             parameters[1u] = (uint32) &cySysFlashBackup.clockSettings[0u];
 789:Generated_Source\PSoC4/CyFlash.c ****             CY_FLASH_CPUSS_SYSARG_REG = (uint32) &parameters[0u];
 790:Generated_Source\PSoC4/CyFlash.c ****             CY_FLASH_CPUSS_SYSREQ_REG = CY_FLASH_CPUSS_REQ_START | CY_FLASH_API_OPCODE_CLK_RESTORE;
 791:Generated_Source\PSoC4/CyFlash.c ****             CY_NOP;
 792:Generated_Source\PSoC4/CyFlash.c ****             retValue = CY_FLASH_API_RETURN;
 793:Generated_Source\PSoC4/CyFlash.c ****         #endif /* (CY_IP_SPCIF_SYNCHRONOUS) */
 794:Generated_Source\PSoC4/CyFlash.c **** 
 795:Generated_Source\PSoC4/CyFlash.c ****     #endif  /* (CY_PSOC4_4000) */
 796:Generated_Source\PSoC4/CyFlash.c **** 
 797:Generated_Source\PSoC4/CyFlash.c **** #endif  /* (CY_IP_FM) */
 798:Generated_Source\PSoC4/CyFlash.c **** 
 799:Generated_Source\PSoC4/CyFlash.c ****     return (retValue);
 800:Generated_Source\PSoC4/CyFlash.c **** }
  53              		.loc 1 800 0
  54 0000 0020     		movs	r0, #0
  55              		@ sp needed
ARM GAS  C:\Users\ORA\AppData\Local\Temp\ccKv17md.s 			page 16


  56 0002 7047     		bx	lr
  57              		.cfi_endproc
  58              	.LFE6:
  59              		.size	CySysFlashClockRestore, .-CySysFlashClockRestore
  60              		.section	.text.CySysFlashWriteRow,"ax",%progbits
  61              		.align	2
  62              		.global	CySysFlashWriteRow
  63              		.code	16
  64              		.thumb_func
  65              		.type	CySysFlashWriteRow, %function
  66              	CySysFlashWriteRow:
  67              	.LFB2:
  82:Generated_Source\PSoC4/CyFlash.c ****     volatile uint32 retValue = CY_SYS_FLASH_SUCCESS;
  68              		.loc 1 82 0
  69              		.cfi_startproc
  70              		@ args = 0, pretend = 0, frame = 272
  71              		@ frame_needed = 0, uses_anonymous_args = 0
  72              	.LVL2:
  73 0000 30B5     		push	{r4, r5, lr}
  74              		.cfi_def_cfa_offset 12
  75              		.cfi_offset 4, -12
  76              		.cfi_offset 5, -8
  77              		.cfi_offset 14, -4
  78 0002 C5B0     		sub	sp, sp, #276
  79              		.cfi_def_cfa_offset 288
  80 0004 0400     		movs	r4, r0
  83:Generated_Source\PSoC4/CyFlash.c ****     volatile uint32 clkCnfRetValue = CY_SYS_FLASH_SUCCESS;
  81              		.loc 1 83 0
  82 0006 0023     		movs	r3, #0
  83 0008 4393     		str	r3, [sp, #268]
  84:Generated_Source\PSoC4/CyFlash.c ****     volatile uint32 parameters[(CY_FLASH_SIZEOF_ROW + CY_FLASH_SRAM_ROM_DATA) / sizeof(uint32)];
  84              		.loc 1 84 0
  85 000a 4293     		str	r3, [sp, #264]
  97:Generated_Source\PSoC4/CyFlash.c ****     {
  86              		.loc 1 97 0
  87 000c 3D4B     		ldr	r3, .L15
  88 000e 9842     		cmp	r0, r3
  89 0010 72D8     		bhi	.L4
  97:Generated_Source\PSoC4/CyFlash.c ****     {
  90              		.loc 1 97 0 is_stmt 0 discriminator 1
  91 0012 0029     		cmp	r1, #0
  92 0014 70D0     		beq	.L4
 100:Generated_Source\PSoC4/CyFlash.c **** 
  93              		.loc 1 100 0 is_stmt 1
  94 0016 8022     		movs	r2, #128
  95 0018 5200     		lsls	r2, r2, #1
  96 001a 02A8     		add	r0, sp, #8
  97              	.LVL3:
  98 001c FFF7FEFF 		bl	memcpy
  99              	.LVL4:
 126:Generated_Source\PSoC4/CyFlash.c ****                          CY_FLASH_KEY_ONE;
 100              		.loc 1 126 0
 101 0020 394B     		ldr	r3, .L15+4
 102 0022 9C42     		cmp	r4, r3
 103 0024 01D9     		bls	.L13
 104 0026 394B     		ldr	r3, .L15+8
 105 0028 00E0     		b	.L5
ARM GAS  C:\Users\ORA\AppData\Local\Temp\ccKv17md.s 			page 17


 106              	.L13:
 107 002a 394B     		ldr	r3, .L15+12
 108              	.L5:
 124:Generated_Source\PSoC4/CyFlash.c ****                          (uint32) (CY_FLASH_PAGE_LATCH_START_ADDR             << CY_FLASH_PARAM_ADD
 109              		.loc 1 124 0
 110 002c 0093     		str	r3, [sp]
 128:Generated_Source\PSoC4/CyFlash.c **** 
 111              		.loc 1 128 0
 112 002e FF23     		movs	r3, #255
 113 0030 0193     		str	r3, [sp, #4]
 130:Generated_Source\PSoC4/CyFlash.c ****         CY_FLASH_CPUSS_SYSREQ_REG = CY_FLASH_CPUSS_REQ_START | CY_FLASH_API_OPCODE_LOAD;
 114              		.loc 1 130 0
 115 0032 384B     		ldr	r3, .L15+16
 116 0034 6A46     		mov	r2, sp
 117 0036 1A60     		str	r2, [r3]
 131:Generated_Source\PSoC4/CyFlash.c ****         CY_NOP;
 118              		.loc 1 131 0
 119 0038 3749     		ldr	r1, .L15+20
 120 003a 384A     		ldr	r2, .L15+24
 121 003c 1160     		str	r1, [r2]
 132:Generated_Source\PSoC4/CyFlash.c ****         retValue = CY_FLASH_API_RETURN;
 122              		.loc 1 132 0
 123              		.syntax divided
 124              	@ 132 "Generated_Source\PSoC4\CyFlash.c" 1
 125 003e C046     		NOP
 126              	
 127              	@ 0 "" 2
 133:Generated_Source\PSoC4/CyFlash.c **** 
 128              		.loc 1 133 0
 129              		.thumb
 130              		.syntax unified
 131 0040 1B68     		ldr	r3, [r3]
 132 0042 1B0F     		lsrs	r3, r3, #28
 133 0044 1B07     		lsls	r3, r3, #28
 134 0046 F022     		movs	r2, #240
 135 0048 1206     		lsls	r2, r2, #24
 136 004a 9342     		cmp	r3, r2
 137 004c 04D1     		bne	.L6
 133:Generated_Source\PSoC4/CyFlash.c **** 
 138              		.loc 1 133 0 is_stmt 0 discriminator 1
 139 004e 314B     		ldr	r3, .L15+16
 140 0050 1B68     		ldr	r3, [r3]
 141 0052 FF22     		movs	r2, #255
 142 0054 1340     		ands	r3, r2
 143 0056 0DE0     		b	.L7
 144              	.L6:
 133:Generated_Source\PSoC4/CyFlash.c **** 
 145              		.loc 1 133 0 discriminator 2
 146 0058 2E4B     		ldr	r3, .L15+16
 147 005a 1B68     		ldr	r3, [r3]
 148 005c 1B0F     		lsrs	r3, r3, #28
 149 005e 1B07     		lsls	r3, r3, #28
 150 0060 A022     		movs	r2, #160
 151 0062 1206     		lsls	r2, r2, #24
 152 0064 9342     		cmp	r3, r2
 153 0066 04D0     		beq	.L14
 133:Generated_Source\PSoC4/CyFlash.c **** 
ARM GAS  C:\Users\ORA\AppData\Local\Temp\ccKv17md.s 			page 18


 154              		.loc 1 133 0 discriminator 4
 155 0068 2A4B     		ldr	r3, .L15+16
 156 006a 1B68     		ldr	r3, [r3]
 157 006c FF22     		movs	r2, #255
 158 006e 1340     		ands	r3, r2
 159 0070 00E0     		b	.L7
 160              	.L14:
 133:Generated_Source\PSoC4/CyFlash.c **** 
 161              		.loc 1 133 0
 162 0072 0023     		movs	r3, #0
 163              	.L7:
 133:Generated_Source\PSoC4/CyFlash.c **** 
 164              		.loc 1 133 0 discriminator 8
 165 0074 4393     		str	r3, [sp, #268]
 135:Generated_Source\PSoC4/CyFlash.c ****         {
 166              		.loc 1 135 0 is_stmt 1 discriminator 8
 167 0076 439B     		ldr	r3, [sp, #268]
 168 0078 002B     		cmp	r3, #0
 169 007a 3FD1     		bne	.L8
 143:Generated_Source\PSoC4/CyFlash.c **** 
 170              		.loc 1 143 0
 171 007c FFF7FEFF 		bl	CyEnterCriticalSection
 172              	.LVL5:
 173 0080 0500     		movs	r5, r0
 174              	.LVL6:
 145:Generated_Source\PSoC4/CyFlash.c **** 
 175              		.loc 1 145 0
 176 0082 FFF7FEFF 		bl	CySysFlashClockBackup
 177              	.LVL7:
 178 0086 4290     		str	r0, [sp, #264]
 154:Generated_Source\PSoC4/CyFlash.c ****             {
 179              		.loc 1 154 0
 180 0088 439B     		ldr	r3, [sp, #268]
 181 008a 002B     		cmp	r3, #0
 182 008c 25D1     		bne	.L9
 157:Generated_Source\PSoC4/CyFlash.c ****                 parameters[0u] |= (uint32)(rowNum << 16u);
 183              		.loc 1 157 0
 184 008e 244A     		ldr	r2, .L15+28
 185 0090 0092     		str	r2, [sp]
 158:Generated_Source\PSoC4/CyFlash.c **** 
 186              		.loc 1 158 0
 187 0092 009A     		ldr	r2, [sp]
 188 0094 2404     		lsls	r4, r4, #16
 189              	.LVL8:
 190 0096 1443     		orrs	r4, r2
 191 0098 0094     		str	r4, [sp]
 160:Generated_Source\PSoC4/CyFlash.c ****                 CY_FLASH_CPUSS_SYSREQ_REG = CY_FLASH_CPUSS_REQ_START | CY_FLASH_API_OPCODE_WRITE_RO
 192              		.loc 1 160 0
 193 009a 1E4A     		ldr	r2, .L15+16
 194 009c 6946     		mov	r1, sp
 195 009e 1160     		str	r1, [r2]
 161:Generated_Source\PSoC4/CyFlash.c ****                 CY_NOP;
 196              		.loc 1 161 0
 197 00a0 2048     		ldr	r0, .L15+32
 198 00a2 1E49     		ldr	r1, .L15+24
 199 00a4 0860     		str	r0, [r1]
 162:Generated_Source\PSoC4/CyFlash.c ****                 retValue = CY_FLASH_API_RETURN;
ARM GAS  C:\Users\ORA\AppData\Local\Temp\ccKv17md.s 			page 19


 200              		.loc 1 162 0
 201              		.syntax divided
 202              	@ 162 "Generated_Source\PSoC4\CyFlash.c" 1
 203 00a6 C046     		NOP
 204              	
 205              	@ 0 "" 2
 163:Generated_Source\PSoC4/CyFlash.c ****             }
 206              		.loc 1 163 0
 207              		.thumb
 208              		.syntax unified
 209 00a8 1268     		ldr	r2, [r2]
 210 00aa 120F     		lsrs	r2, r2, #28
 211 00ac 1207     		lsls	r2, r2, #28
 212 00ae F021     		movs	r1, #240
 213 00b0 0906     		lsls	r1, r1, #24
 214 00b2 8A42     		cmp	r2, r1
 215 00b4 04D1     		bne	.L10
 163:Generated_Source\PSoC4/CyFlash.c ****             }
 216              		.loc 1 163 0 is_stmt 0 discriminator 1
 217 00b6 174B     		ldr	r3, .L15+16
 218 00b8 1B68     		ldr	r3, [r3]
 219 00ba FF22     		movs	r2, #255
 220 00bc 1340     		ands	r3, r2
 221 00be 0BE0     		b	.L11
 222              	.L10:
 163:Generated_Source\PSoC4/CyFlash.c ****             }
 223              		.loc 1 163 0 discriminator 2
 224 00c0 144A     		ldr	r2, .L15+16
 225 00c2 1268     		ldr	r2, [r2]
 226 00c4 120F     		lsrs	r2, r2, #28
 227 00c6 1207     		lsls	r2, r2, #28
 228 00c8 A021     		movs	r1, #160
 229 00ca 0906     		lsls	r1, r1, #24
 230 00cc 8A42     		cmp	r2, r1
 231 00ce 03D0     		beq	.L11
 163:Generated_Source\PSoC4/CyFlash.c ****             }
 232              		.loc 1 163 0 discriminator 4
 233 00d0 104B     		ldr	r3, .L15+16
 234 00d2 1B68     		ldr	r3, [r3]
 235 00d4 FF22     		movs	r2, #255
 236 00d6 1340     		ands	r3, r2
 237              	.L11:
 163:Generated_Source\PSoC4/CyFlash.c ****             }
 238              		.loc 1 163 0 discriminator 8
 239 00d8 4393     		str	r3, [sp, #268]
 240              	.L9:
 202:Generated_Source\PSoC4/CyFlash.c ****             {
 241              		.loc 1 202 0 is_stmt 1
 242 00da 429B     		ldr	r3, [sp, #264]
 243 00dc 002B     		cmp	r3, #0
 244 00de 07D1     		bne	.L12
 204:Generated_Source\PSoC4/CyFlash.c **** 
 245              		.loc 1 204 0
 246 00e0 FFF7FEFF 		bl	CySysFlashClockRestore
 247              	.LVL9:
 248 00e4 4290     		str	r0, [sp, #264]
 206:Generated_Source\PSoC4/CyFlash.c ****                 {
ARM GAS  C:\Users\ORA\AppData\Local\Temp\ccKv17md.s 			page 20


 249              		.loc 1 206 0
 250 00e6 429B     		ldr	r3, [sp, #264]
 251 00e8 002B     		cmp	r3, #0
 252 00ea 01D0     		beq	.L12
 208:Generated_Source\PSoC4/CyFlash.c ****                 }
 253              		.loc 1 208 0
 254 00ec 429B     		ldr	r3, [sp, #264]
 255 00ee 4393     		str	r3, [sp, #268]
 256              	.L12:
 212:Generated_Source\PSoC4/CyFlash.c ****         }
 257              		.loc 1 212 0
 258 00f0 2800     		movs	r0, r5
 259 00f2 FFF7FEFF 		bl	CyExitCriticalSection
 260              	.LVL10:
 261 00f6 01E0     		b	.L8
 262              	.LVL11:
 263              	.L4:
 217:Generated_Source\PSoC4/CyFlash.c ****     }
 264              		.loc 1 217 0
 265 00f8 0423     		movs	r3, #4
 266 00fa 4393     		str	r3, [sp, #268]
 267              	.LVL12:
 268              	.L8:
 220:Generated_Source\PSoC4/CyFlash.c **** }
 269              		.loc 1 220 0
 270 00fc 4398     		ldr	r0, [sp, #268]
 221:Generated_Source\PSoC4/CyFlash.c **** 
 271              		.loc 1 221 0
 272 00fe 45B0     		add	sp, sp, #276
 273              		@ sp needed
 274 0100 30BD     		pop	{r4, r5, pc}
 275              	.L16:
 276 0102 C046     		.align	2
 277              	.L15:
 278 0104 FF030000 		.word	1023
 279 0108 FF010000 		.word	511
 280 010c B6D70001 		.word	16832438
 281 0110 B6D70000 		.word	55222
 282 0114 08001040 		.word	1074790408
 283 0118 04000080 		.word	-2147483644
 284 011c 04001040 		.word	1074790404
 285 0120 B6D80000 		.word	55478
 286 0124 05000080 		.word	-2147483643
 287              		.cfi_endproc
 288              	.LFE2:
 289              		.size	CySysFlashWriteRow, .-CySysFlashWriteRow
 290              		.section	.text.CySysFlashSetWaitCycles,"ax",%progbits
 291              		.align	2
 292              		.global	CySysFlashSetWaitCycles
 293              		.code	16
 294              		.thumb_func
 295              		.type	CySysFlashSetWaitCycles, %function
 296              	CySysFlashSetWaitCycles:
 297              	.LFB3:
 423:Generated_Source\PSoC4/CyFlash.c ****     uint8  interruptState;
 298              		.loc 1 423 0
 299              		.cfi_startproc
ARM GAS  C:\Users\ORA\AppData\Local\Temp\ccKv17md.s 			page 21


 300              		@ args = 0, pretend = 0, frame = 0
 301              		@ frame_needed = 0, uses_anonymous_args = 0
 302              	.LVL13:
 303 0000 70B5     		push	{r4, r5, r6, lr}
 304              		.cfi_def_cfa_offset 16
 305              		.cfi_offset 4, -16
 306              		.cfi_offset 5, -12
 307              		.cfi_offset 6, -8
 308              		.cfi_offset 14, -4
 309 0002 0400     		movs	r4, r0
 426:Generated_Source\PSoC4/CyFlash.c **** 
 310              		.loc 1 426 0
 311 0004 FFF7FEFF 		bl	CyEnterCriticalSection
 312              	.LVL14:
 313 0008 0500     		movs	r5, r0
 314              	.LVL15:
 441:Generated_Source\PSoC4/CyFlash.c ****             {
 315              		.loc 1 441 0
 316 000a 102C     		cmp	r4, #16
 317 000c 05D8     		bhi	.L18
 443:Generated_Source\PSoC4/CyFlash.c ****             } else
 318              		.loc 1 443 0
 319 000e 104A     		ldr	r2, .L22
 320 0010 1368     		ldr	r3, [r2]
 321 0012 0321     		movs	r1, #3
 322 0014 8B43     		bics	r3, r1
 323 0016 1360     		str	r3, [r2]
 324 0018 16E0     		b	.L19
 325              	.L18:
 445:Generated_Source\PSoC4/CyFlash.c ****             {
 326              		.loc 1 445 0
 327 001a 202C     		cmp	r4, #32
 328 001c 07D8     		bhi	.L20
 447:Generated_Source\PSoC4/CyFlash.c ****             } else
 329              		.loc 1 447 0
 330 001e 0C49     		ldr	r1, .L22
 331 0020 0B68     		ldr	r3, [r1]
 332 0022 0322     		movs	r2, #3
 333 0024 9343     		bics	r3, r2
 334 0026 023A     		subs	r2, r2, #2
 335 0028 1343     		orrs	r3, r2
 336 002a 0B60     		str	r3, [r1]
 337 002c 0CE0     		b	.L19
 338              	.L20:
 450:Generated_Source\PSoC4/CyFlash.c ****                 {
 339              		.loc 1 450 0
 340 002e 302C     		cmp	r4, #48
 341 0030 07D8     		bhi	.L21
 452:Generated_Source\PSoC4/CyFlash.c ****                 }
 342              		.loc 1 452 0
 343 0032 0749     		ldr	r1, .L22
 344 0034 0B68     		ldr	r3, [r1]
 345 0036 0322     		movs	r2, #3
 346 0038 9343     		bics	r3, r2
 347 003a 013A     		subs	r2, r2, #1
 348 003c 1343     		orrs	r3, r2
 349 003e 0B60     		str	r3, [r1]
ARM GAS  C:\Users\ORA\AppData\Local\Temp\ccKv17md.s 			page 22


 350 0040 02E0     		b	.L19
 351              	.L21:
 459:Generated_Source\PSoC4/CyFlash.c ****         }
 352              		.loc 1 459 0 discriminator 1
 353 0042 0020     		movs	r0, #0
 354 0044 FFF7FEFF 		bl	CyHalt
 355              	.LVL16:
 356              	.L19:
 464:Generated_Source\PSoC4/CyFlash.c **** }
 357              		.loc 1 464 0
 358 0048 2800     		movs	r0, r5
 359 004a FFF7FEFF 		bl	CyExitCriticalSection
 360              	.LVL17:
 465:Generated_Source\PSoC4/CyFlash.c **** 
 361              		.loc 1 465 0
 362              		@ sp needed
 363              	.LVL18:
 364              	.LVL19:
 365 004e 70BD     		pop	{r4, r5, r6, pc}
 366              	.L23:
 367              		.align	2
 368              	.L22:
 369 0050 30001040 		.word	1074790448
 370              		.cfi_endproc
 371              	.LFE3:
 372              		.size	CySysFlashSetWaitCycles, .-CySysFlashSetWaitCycles
 373              		.section	.text.CySysSFlashWriteUserRow,"ax",%progbits
 374              		.align	2
 375              		.global	CySysSFlashWriteUserRow
 376              		.code	16
 377              		.thumb_func
 378              		.type	CySysSFlashWriteUserRow, %function
 379              	CySysSFlashWriteUserRow:
 380              	.LFB4:
 491:Generated_Source\PSoC4/CyFlash.c ****     volatile uint32 retValue = CY_SYS_FLASH_SUCCESS;
 381              		.loc 1 491 0
 382              		.cfi_startproc
 383              		@ args = 0, pretend = 0, frame = 272
 384              		@ frame_needed = 0, uses_anonymous_args = 0
 385              	.LVL20:
 386 0000 30B5     		push	{r4, r5, lr}
 387              		.cfi_def_cfa_offset 12
 388              		.cfi_offset 4, -12
 389              		.cfi_offset 5, -8
 390              		.cfi_offset 14, -4
 391 0002 C5B0     		sub	sp, sp, #276
 392              		.cfi_def_cfa_offset 288
 393 0004 0400     		movs	r4, r0
 492:Generated_Source\PSoC4/CyFlash.c ****     volatile uint32 clkCnfRetValue = CY_SYS_FLASH_SUCCESS;
 394              		.loc 1 492 0
 395 0006 0023     		movs	r3, #0
 396 0008 4393     		str	r3, [sp, #268]
 493:Generated_Source\PSoC4/CyFlash.c ****     volatile uint32 parameters[(CY_FLASH_SIZEOF_ROW + CY_FLASH_SRAM_ROM_DATA)/4u];
 397              		.loc 1 493 0
 398 000a 4293     		str	r3, [sp, #264]
 498:Generated_Source\PSoC4/CyFlash.c ****     {
 399              		.loc 1 498 0
ARM GAS  C:\Users\ORA\AppData\Local\Temp\ccKv17md.s 			page 23


 400 000c 0328     		cmp	r0, #3
 401 000e 6AD8     		bhi	.L25
 498:Generated_Source\PSoC4/CyFlash.c ****     {
 402              		.loc 1 498 0 is_stmt 0 discriminator 1
 403 0010 0029     		cmp	r1, #0
 404 0012 68D0     		beq	.L25
 503:Generated_Source\PSoC4/CyFlash.c ****                          CY_FLASH_KEY_ONE;
 405              		.loc 1 503 0 is_stmt 1
 406 0014 364B     		ldr	r3, .L36
 407 0016 9842     		cmp	r0, r3
 408 0018 01D9     		bls	.L34
 409 001a 364B     		ldr	r3, .L36+4
 410 001c 00E0     		b	.L26
 411              	.L34:
 412 001e 364B     		ldr	r3, .L36+8
 413              	.L26:
 501:Generated_Source\PSoC4/CyFlash.c ****                          (uint32) (CY_FLASH_PAGE_LATCH_START_ADDR             << CY_FLASH_PARAM_ADD
 414              		.loc 1 501 0
 415 0020 0093     		str	r3, [sp]
 505:Generated_Source\PSoC4/CyFlash.c **** 
 416              		.loc 1 505 0
 417 0022 FF23     		movs	r3, #255
 418 0024 0193     		str	r3, [sp, #4]
 507:Generated_Source\PSoC4/CyFlash.c ****         CY_FLASH_CPUSS_SYSARG_REG = (uint32) &parameters[0u];
 419              		.loc 1 507 0
 420 0026 8022     		movs	r2, #128
 421 0028 5200     		lsls	r2, r2, #1
 422 002a 02A8     		add	r0, sp, #8
 423              	.LVL21:
 424 002c FFF7FEFF 		bl	memcpy
 425              	.LVL22:
 508:Generated_Source\PSoC4/CyFlash.c ****         CY_FLASH_CPUSS_SYSREQ_REG = CY_FLASH_CPUSS_REQ_START | CY_FLASH_API_OPCODE_LOAD;
 426              		.loc 1 508 0
 427 0030 324B     		ldr	r3, .L36+12
 428 0032 6A46     		mov	r2, sp
 429 0034 1A60     		str	r2, [r3]
 509:Generated_Source\PSoC4/CyFlash.c ****         CY_NOP;
 430              		.loc 1 509 0
 431 0036 3249     		ldr	r1, .L36+16
 432 0038 324A     		ldr	r2, .L36+20
 433 003a 1160     		str	r1, [r2]
 510:Generated_Source\PSoC4/CyFlash.c ****         retValue = CY_FLASH_API_RETURN;
 434              		.loc 1 510 0
 435              		.syntax divided
 436              	@ 510 "Generated_Source\PSoC4\CyFlash.c" 1
 437 003c C046     		NOP
 438              	
 439              	@ 0 "" 2
 511:Generated_Source\PSoC4/CyFlash.c **** 
 440              		.loc 1 511 0
 441              		.thumb
 442              		.syntax unified
 443 003e 1B68     		ldr	r3, [r3]
 444 0040 1B0F     		lsrs	r3, r3, #28
 445 0042 1B07     		lsls	r3, r3, #28
 446 0044 F022     		movs	r2, #240
 447 0046 1206     		lsls	r2, r2, #24
ARM GAS  C:\Users\ORA\AppData\Local\Temp\ccKv17md.s 			page 24


 448 0048 9342     		cmp	r3, r2
 449 004a 04D1     		bne	.L27
 511:Generated_Source\PSoC4/CyFlash.c **** 
 450              		.loc 1 511 0 is_stmt 0 discriminator 1
 451 004c 2B4B     		ldr	r3, .L36+12
 452 004e 1B68     		ldr	r3, [r3]
 453 0050 FF22     		movs	r2, #255
 454 0052 1340     		ands	r3, r2
 455 0054 0DE0     		b	.L28
 456              	.L27:
 511:Generated_Source\PSoC4/CyFlash.c **** 
 457              		.loc 1 511 0 discriminator 2
 458 0056 294B     		ldr	r3, .L36+12
 459 0058 1B68     		ldr	r3, [r3]
 460 005a 1B0F     		lsrs	r3, r3, #28
 461 005c 1B07     		lsls	r3, r3, #28
 462 005e A022     		movs	r2, #160
 463 0060 1206     		lsls	r2, r2, #24
 464 0062 9342     		cmp	r3, r2
 465 0064 04D0     		beq	.L35
 511:Generated_Source\PSoC4/CyFlash.c **** 
 466              		.loc 1 511 0 discriminator 4
 467 0066 254B     		ldr	r3, .L36+12
 468 0068 1B68     		ldr	r3, [r3]
 469 006a FF22     		movs	r2, #255
 470 006c 1340     		ands	r3, r2
 471 006e 00E0     		b	.L28
 472              	.L35:
 511:Generated_Source\PSoC4/CyFlash.c **** 
 473              		.loc 1 511 0
 474 0070 0023     		movs	r3, #0
 475              	.L28:
 511:Generated_Source\PSoC4/CyFlash.c **** 
 476              		.loc 1 511 0 discriminator 8
 477 0072 4393     		str	r3, [sp, #268]
 513:Generated_Source\PSoC4/CyFlash.c ****         {
 478              		.loc 1 513 0 is_stmt 1 discriminator 8
 479 0074 439B     		ldr	r3, [sp, #268]
 480 0076 002B     		cmp	r3, #0
 481 0078 37D1     		bne	.L29
 521:Generated_Source\PSoC4/CyFlash.c **** 
 482              		.loc 1 521 0
 483 007a FFF7FEFF 		bl	CyEnterCriticalSection
 484              	.LVL23:
 485 007e 0500     		movs	r5, r0
 486              	.LVL24:
 523:Generated_Source\PSoC4/CyFlash.c **** 
 487              		.loc 1 523 0
 488 0080 FFF7FEFF 		bl	CySysFlashClockBackup
 489              	.LVL25:
 490 0084 4290     		str	r0, [sp, #264]
 532:Generated_Source\PSoC4/CyFlash.c ****             {
 491              		.loc 1 532 0
 492 0086 439B     		ldr	r3, [sp, #268]
 493 0088 002B     		cmp	r3, #0
 494 008a 22D1     		bne	.L30
 535:Generated_Source\PSoC4/CyFlash.c ****                 parameters[1u] = (uint32) rowNum;
ARM GAS  C:\Users\ORA\AppData\Local\Temp\ccKv17md.s 			page 25


 495              		.loc 1 535 0
 496 008c 1E4A     		ldr	r2, .L36+24
 497 008e 0092     		str	r2, [sp]
 536:Generated_Source\PSoC4/CyFlash.c **** 
 498              		.loc 1 536 0
 499 0090 0194     		str	r4, [sp, #4]
 538:Generated_Source\PSoC4/CyFlash.c ****                 CY_FLASH_CPUSS_SYSREQ_REG = CY_FLASH_CPUSS_REQ_START | CY_FLASH_API_OPCODE_WRITE_SF
 500              		.loc 1 538 0
 501 0092 1A4A     		ldr	r2, .L36+12
 502 0094 6946     		mov	r1, sp
 503 0096 1160     		str	r1, [r2]
 539:Generated_Source\PSoC4/CyFlash.c ****                 CY_NOP;
 504              		.loc 1 539 0
 505 0098 1C48     		ldr	r0, .L36+28
 506 009a 1A49     		ldr	r1, .L36+20
 507 009c 0860     		str	r0, [r1]
 540:Generated_Source\PSoC4/CyFlash.c ****                 retValue = CY_FLASH_API_RETURN;
 508              		.loc 1 540 0
 509              		.syntax divided
 510              	@ 540 "Generated_Source\PSoC4\CyFlash.c" 1
 511 009e C046     		NOP
 512              	
 513              	@ 0 "" 2
 541:Generated_Source\PSoC4/CyFlash.c ****             }
 514              		.loc 1 541 0
 515              		.thumb
 516              		.syntax unified
 517 00a0 1268     		ldr	r2, [r2]
 518 00a2 120F     		lsrs	r2, r2, #28
 519 00a4 1207     		lsls	r2, r2, #28
 520 00a6 F021     		movs	r1, #240
 521 00a8 0906     		lsls	r1, r1, #24
 522 00aa 8A42     		cmp	r2, r1
 523 00ac 04D1     		bne	.L31
 541:Generated_Source\PSoC4/CyFlash.c ****             }
 524              		.loc 1 541 0 is_stmt 0 discriminator 1
 525 00ae 134B     		ldr	r3, .L36+12
 526 00b0 1B68     		ldr	r3, [r3]
 527 00b2 FF22     		movs	r2, #255
 528 00b4 1340     		ands	r3, r2
 529 00b6 0BE0     		b	.L32
 530              	.L31:
 541:Generated_Source\PSoC4/CyFlash.c ****             }
 531              		.loc 1 541 0 discriminator 2
 532 00b8 104A     		ldr	r2, .L36+12
 533 00ba 1268     		ldr	r2, [r2]
 534 00bc 120F     		lsrs	r2, r2, #28
 535 00be 1207     		lsls	r2, r2, #28
 536 00c0 A021     		movs	r1, #160
 537 00c2 0906     		lsls	r1, r1, #24
 538 00c4 8A42     		cmp	r2, r1
 539 00c6 03D0     		beq	.L32
 541:Generated_Source\PSoC4/CyFlash.c ****             }
 540              		.loc 1 541 0 discriminator 4
 541 00c8 0C4B     		ldr	r3, .L36+12
 542 00ca 1B68     		ldr	r3, [r3]
 543 00cc FF22     		movs	r2, #255
ARM GAS  C:\Users\ORA\AppData\Local\Temp\ccKv17md.s 			page 26


 544 00ce 1340     		ands	r3, r2
 545              	.L32:
 541:Generated_Source\PSoC4/CyFlash.c ****             }
 546              		.loc 1 541 0 discriminator 8
 547 00d0 4393     		str	r3, [sp, #268]
 548              	.L30:
 544:Generated_Source\PSoC4/CyFlash.c ****             {
 549              		.loc 1 544 0 is_stmt 1
 550 00d2 429B     		ldr	r3, [sp, #264]
 551 00d4 002B     		cmp	r3, #0
 552 00d6 02D1     		bne	.L33
 546:Generated_Source\PSoC4/CyFlash.c ****             }
 553              		.loc 1 546 0
 554 00d8 FFF7FEFF 		bl	CySysFlashClockRestore
 555              	.LVL26:
 556 00dc 4290     		str	r0, [sp, #264]
 557              	.L33:
 548:Generated_Source\PSoC4/CyFlash.c ****         }
 558              		.loc 1 548 0
 559 00de 2800     		movs	r0, r5
 560 00e0 FFF7FEFF 		bl	CyExitCriticalSection
 561              	.LVL27:
 562 00e4 01E0     		b	.L29
 563              	.LVL28:
 564              	.L25:
 553:Generated_Source\PSoC4/CyFlash.c ****     }
 565              		.loc 1 553 0
 566 00e6 0423     		movs	r3, #4
 567 00e8 4393     		str	r3, [sp, #268]
 568              	.LVL29:
 569              	.L29:
 556:Generated_Source\PSoC4/CyFlash.c **** }
 570              		.loc 1 556 0
 571 00ea 4398     		ldr	r0, [sp, #268]
 557:Generated_Source\PSoC4/CyFlash.c **** #endif /* (CY_SFLASH_XTRA_ROWS) */
 572              		.loc 1 557 0
 573 00ec 45B0     		add	sp, sp, #276
 574              		@ sp needed
 575              	.LVL30:
 576 00ee 30BD     		pop	{r4, r5, pc}
 577              	.L37:
 578              		.align	2
 579              	.L36:
 580 00f0 FF010000 		.word	511
 581 00f4 B6D70001 		.word	16832438
 582 00f8 B6D70000 		.word	55222
 583 00fc 08001040 		.word	1074790408
 584 0100 04000080 		.word	-2147483644
 585 0104 04001040 		.word	1074790404
 586 0108 B6EB0000 		.word	60342
 587 010c 18000080 		.word	-2147483624
 588              		.cfi_endproc
 589              	.LFE4:
 590              		.size	CySysSFlashWriteUserRow, .-CySysSFlashWriteUserRow
 591              		.text
 592              	.Letext0:
 593              		.file 2 "Generated_Source\\PSoC4\\cytypes.h"
ARM GAS  C:\Users\ORA\AppData\Local\Temp\ccKv17md.s 			page 27


 594              		.file 3 "Generated_Source\\PSoC4\\CyLib.h"
