Archive member included to satisfy reference by file (symbol)

.\CortexM0\ARM_GCC_541\Debug\Lesson03_LED_SW_INT.a(CyLib.o)
                              .\CortexM0\ARM_GCC_541\Debug\cyfitter_cfg.o (CyIntEnable)
.\CortexM0\ARM_GCC_541\Debug\Lesson03_LED_SW_INT.a(CyLFClk.o)
                              .\CortexM0\ARM_GCC_541\Debug\cyfitter_cfg.o (CySysClkWcoStart)
.\CortexM0\ARM_GCC_541\Debug\Lesson03_LED_SW_INT.a(LED_RED.o)
                              .\CortexM0\ARM_GCC_541\Debug\main.o (LED_RED_Write)
.\CortexM0\ARM_GCC_541\Debug\Lesson03_LED_SW_INT.a(LED_GREEN.o)
                              .\CortexM0\ARM_GCC_541\Debug\main.o (LED_GREEN_Write)
.\CortexM0\ARM_GCC_541\Debug\Lesson03_LED_SW_INT.a(LED_BLUE.o)
                              .\CortexM0\ARM_GCC_541\Debug\main.o (LED_BLUE_Write)
.\CortexM0\ARM_GCC_541\Debug\Lesson03_LED_SW_INT.a(LED_SW.o)
                              .\CortexM0\ARM_GCC_541\Debug\main.o (LED_SW_ClearInterrupt)
.\CortexM0\ARM_GCC_541\Debug\Lesson03_LED_SW_INT.a(LED_SW_Int.o)
                              .\CortexM0\ARM_GCC_541\Debug\main.o (LED_SW_Int_StartEx)
.\CortexM0\ARM_GCC_541\Debug\Lesson03_LED_SW_INT.a(CyBootAsmGnu.o)
                              .\CortexM0\ARM_GCC_541\Debug\cyfitter_cfg.o (CyDelayCycles)
c:/program files (x86)/cypress/psoc creator/4.2/psoc creator/import/gnu/arm/5.4.1/bin/../lib/gcc/arm-none-eabi/5.4.1/armv6-m\libgcc.a(_udivsi3.o)
                              .\CortexM0\ARM_GCC_541\Debug\Lesson03_LED_SW_INT.a(CyLib.o) (__aeabi_uidiv)
c:/program files (x86)/cypress/psoc creator/4.2/psoc creator/import/gnu/arm/5.4.1/bin/../lib/gcc/arm-none-eabi/5.4.1/armv6-m\libgcc.a(_divsi3.o)
                              .\CortexM0\ARM_GCC_541\Debug\Lesson03_LED_SW_INT.a(CyLFClk.o) (__aeabi_idiv)
c:/program files (x86)/cypress/psoc creator/4.2/psoc creator/import/gnu/arm/5.4.1/bin/../lib/gcc/arm-none-eabi/5.4.1/armv6-m\libgcc.a(_dvmd_tls.o)
                              c:/program files (x86)/cypress/psoc creator/4.2/psoc creator/import/gnu/arm/5.4.1/bin/../lib/gcc/arm-none-eabi/5.4.1/armv6-m\libgcc.a(_udivsi3.o) (__aeabi_idiv0)
c:/program files (x86)/cypress/psoc creator/4.2/psoc creator/import/gnu/arm/5.4.1/bin/../lib/gcc/arm-none-eabi/5.4.1/../../../../arm-none-eabi/lib/armv6-m\libg_nano.a(lib_a-errno.o)
                              .\CortexM0\ARM_GCC_541\Debug\Cm0Start.o (__errno)
c:/program files (x86)/cypress/psoc creator/4.2/psoc creator/import/gnu/arm/5.4.1/bin/../lib/gcc/arm-none-eabi/5.4.1/../../../../arm-none-eabi/lib/armv6-m\libg_nano.a(lib_a-exit.o)
                              c:/program files (x86)/cypress/psoc creator/4.2/psoc creator/import/gnu/arm/5.4.1/bin/../lib/gcc/arm-none-eabi/5.4.1/../../../../arm-none-eabi/lib/armv6-m/crt0.o (exit)
c:/program files (x86)/cypress/psoc creator/4.2/psoc creator/import/gnu/arm/5.4.1/bin/../lib/gcc/arm-none-eabi/5.4.1/../../../../arm-none-eabi/lib/armv6-m\libg_nano.a(lib_a-impure.o)
                              c:/program files (x86)/cypress/psoc creator/4.2/psoc creator/import/gnu/arm/5.4.1/bin/../lib/gcc/arm-none-eabi/5.4.1/../../../../arm-none-eabi/lib/armv6-m\libg_nano.a(lib_a-exit.o) (_global_impure_ptr)
c:/program files (x86)/cypress/psoc creator/4.2/psoc creator/import/gnu/arm/5.4.1/bin/../lib/gcc/arm-none-eabi/5.4.1/../../../../arm-none-eabi/lib/armv6-m\libg_nano.a(lib_a-init.o)
                              c:/program files (x86)/cypress/psoc creator/4.2/psoc creator/import/gnu/arm/5.4.1/bin/../lib/gcc/arm-none-eabi/5.4.1/../../../../arm-none-eabi/lib/armv6-m/crt0.o (__libc_init_array)
c:/program files (x86)/cypress/psoc creator/4.2/psoc creator/import/gnu/arm/5.4.1/bin/../lib/gcc/arm-none-eabi/5.4.1/../../../../arm-none-eabi/lib/armv6-m\libg_nano.a(lib_a-memset.o)
                              c:/program files (x86)/cypress/psoc creator/4.2/psoc creator/import/gnu/arm/5.4.1/bin/../lib/gcc/arm-none-eabi/5.4.1/../../../../arm-none-eabi/lib/armv6-m/crt0.o (memset)

Discarded input sections

 .text          0x00000000        0x0 c:/program files (x86)/cypress/psoc creator/4.2/psoc creator/import/gnu/arm/5.4.1/bin/../lib/gcc/arm-none-eabi/5.4.1/armv6-m/crti.o
 .data          0x00000000        0x0 c:/program files (x86)/cypress/psoc creator/4.2/psoc creator/import/gnu/arm/5.4.1/bin/../lib/gcc/arm-none-eabi/5.4.1/armv6-m/crti.o
 .bss           0x00000000        0x0 c:/program files (x86)/cypress/psoc creator/4.2/psoc creator/import/gnu/arm/5.4.1/bin/../lib/gcc/arm-none-eabi/5.4.1/armv6-m/crti.o
 .data          0x00000000        0x4 c:/program files (x86)/cypress/psoc creator/4.2/psoc creator/import/gnu/arm/5.4.1/bin/../lib/gcc/arm-none-eabi/5.4.1/armv6-m/crtbegin.o
 .text          0x00000000       0x78 c:/program files (x86)/cypress/psoc creator/4.2/psoc creator/import/gnu/arm/5.4.1/bin/../lib/gcc/arm-none-eabi/5.4.1/../../../../arm-none-eabi/lib/armv6-m/crt0.o
 .data          0x00000000        0x0 c:/program files (x86)/cypress/psoc creator/4.2/psoc creator/import/gnu/arm/5.4.1/bin/../lib/gcc/arm-none-eabi/5.4.1/../../../../arm-none-eabi/lib/armv6-m/crt0.o
 .bss           0x00000000        0x0 c:/program files (x86)/cypress/psoc creator/4.2/psoc creator/import/gnu/arm/5.4.1/bin/../lib/gcc/arm-none-eabi/5.4.1/../../../../arm-none-eabi/lib/armv6-m/crt0.o
 .ARM.extab     0x00000000        0x0 c:/program files (x86)/cypress/psoc creator/4.2/psoc creator/import/gnu/arm/5.4.1/bin/../lib/gcc/arm-none-eabi/5.4.1/../../../../arm-none-eabi/lib/armv6-m/crt0.o
 .ARM.exidx     0x00000000        0x8 c:/program files (x86)/cypress/psoc creator/4.2/psoc creator/import/gnu/arm/5.4.1/bin/../lib/gcc/arm-none-eabi/5.4.1/../../../../arm-none-eabi/lib/armv6-m/crt0.o
 .text          0x00000000        0x0 .\CortexM0\ARM_GCC_541\Debug\main.o
 .data          0x00000000        0x0 .\CortexM0\ARM_GCC_541\Debug\main.o
 .text          0x00000000        0x0 .\CortexM0\ARM_GCC_541\Debug\cyfitter_cfg.o
 .data          0x00000000        0x0 .\CortexM0\ARM_GCC_541\Debug\cyfitter_cfg.o
 .bss           0x00000000        0x0 .\CortexM0\ARM_GCC_541\Debug\cyfitter_cfg.o
 .text          0x00000000        0x0 .\CortexM0\ARM_GCC_541\Debug\cymetadata.o
 .data          0x00000000        0x0 .\CortexM0\ARM_GCC_541\Debug\cymetadata.o
 .bss           0x00000000        0x0 .\CortexM0\ARM_GCC_541\Debug\cymetadata.o
 .text          0x00000000        0x0 .\CortexM0\ARM_GCC_541\Debug\Cm0Start.o
Memory Configuration

Name             Origin             Length             Attributes
rom              0x00000000         0x00040000         xr
ram              0x20000000         0x00008000         xrw
*default*        0x00000000         0xffffffff

Linker script and memory map

LOAD c:/program files (x86)/cypress/psoc creator/4.2/psoc creator/import/gnu/arm/5.4.1/bin/../lib/gcc/arm-none-eabi/5.4.1/armv6-m/crti.o
LOAD c:/program files (x86)/cypress/psoc creator/4.2/psoc creator/import/gnu/arm/5.4.1/bin/../lib/gcc/arm-none-eabi/5.4.1/armv6-m/crtbegin.o
LOAD c:/program files (x86)/cypress/psoc creator/4.2/psoc creator/import/gnu/arm/5.4.1/bin/../lib/gcc/arm-none-eabi/5.4.1/../../../../arm-none-eabi/lib/armv6-m/crt0.o
START GROUP
LOAD .\CortexM0\ARM_GCC_541\Debug\main.o
LOAD .\CortexM0\ARM_GCC_541\Debug\cyfitter_cfg.o
LOAD .\CortexM0\ARM_GCC_541\Debug\cymetadata.o
LOAD .\CortexM0\ARM_GCC_541\Debug\Cm0Start.o
LOAD .\CortexM0\ARM_GCC_541\Debug\Lesson03_LED_SW_INT.a
END GROUP
START GROUP
LOAD c:/program files (x86)/cypress/psoc creator/4.2/psoc creator/import/gnu/arm/5.4.1/bin/../lib/gcc/arm-none-eabi/5.4.1/armv6-m\libgcc.a
LOAD c:/program files (x86)/cypress/psoc creator/4.2/psoc creator/import/gnu/arm/5.4.1/bin/../lib/gcc/arm-none-eabi/5.4.1/../../../../arm-none-eabi/lib/armv6-m\libg_nano.a
LOAD c:/program files (x86)/cypress/psoc creator/4.2/psoc creator/import/gnu/arm/5.4.1/bin/../lib/gcc/arm-none-eabi/5.4.1/../../../../arm-none-eabi/lib/armv6-m\libc_nano.a
END GROUP
START GROUP
LOAD c:/program files (x86)/cypress/psoc creator/4.2/psoc creator/import/gnu/arm/5.4.1/bin/../lib/gcc/arm-none-eabi/5.4.1/armv6-m\libgcc.a
LOAD c:/program files (x86)/cypress/psoc creator/4.2/psoc creator/import/gnu/arm/5.4.1/bin/../lib/gcc/arm-none-eabi/5.4.1/../../../../arm-none-eabi/lib/armv6-m\libc_nano.a
END GROUP
LOAD c:/program files (x86)/cypress/psoc creator/4.2/psoc creator/import/gnu/arm/5.4.1/bin/../lib/gcc/arm-none-eabi/5.4.1/armv6-m/crtend.o
LOAD c:/program files (x86)/cypress/psoc creator/4.2/psoc creator/import/gnu/arm/5.4.1/bin/../lib/gcc/arm-none-eabi/5.4.1/armv6-m/crtn.o
START GROUP
LOAD c:/program files (x86)/cypress/psoc creator/4.2/psoc creator/import/gnu/arm/5.4.1/bin/../lib/gcc/arm-none-eabi/5.4.1/armv6-m\libgcc.a
LOAD c:/program files (x86)/cypress/psoc creator/4.2/psoc creator/import/gnu/arm/5.4.1/bin/../lib/gcc/arm-none-eabi/5.4.1/../../../../arm-none-eabi/lib/armv6-m\libc.a
LOAD c:/program files (x86)/cypress/psoc creator/4.2/psoc creator/import/gnu/arm/5.4.1/bin/../lib/gcc/arm-none-eabi/5.4.1/../../../../arm-none-eabi/lib/armv6-m\libnosys.a
END GROUP
                0x00000000                CY_APPL_ORIGIN = 0x0
                0x00000100                CY_FLASH_ROW_SIZE = 0x100
                0x00000001                CY_APPL_NUM = 0x1
                0x00000001                CY_APPL_MAX = 0x1
                0x00000040                CY_METADATA_SIZE = 0x40
                0x00000000                CY_APPL_LOADABLE = 0x0
                0x00000000                CY_CHECKSUM_EXCLUDE_SIZE = ALIGN (0x0, CY_FLASH_ROW_SIZE)
                0x00000000                CY_APP_FOR_STACK_AND_COPIER = 0x0
                [!provide]                PROVIDE (__cy_heap_start, _end)
                0x00000001                PROVIDE (__cy_region_num, ((__cy_regions_end - __cy_regions) / 0x10))
                0x20008000                PROVIDE (__cy_stack, (ORIGIN (ram) + LENGTH (ram)))
                [!provide]                PROVIDE (__cy_heap_end, (__cy_stack - 0x800))

.cybootloader   0x00000000        0x0
 *(.cybootloader)
                0x00000000                appl1_start = CY_APPL_ORIGIN?CY_APPL_ORIGIN:ALIGN (CY_FLASH_ROW_SIZE)
                0x0001ff00                appl2_start = (appl1_start + ALIGN ((((LENGTH (rom) - appl1_start) - (0x2 * CY_FLASH_ROW_SIZE)) / 0x2), CY_FLASH_ROW_SIZE))
                0x00000000                appl_start = (CY_APPL_NUM == 0x1)?appl1_start:appl2_start
                0x00000001                cy_project_type_bootloader = (appl_start == 0x0)?0x1:0x0
                0x00000000                cy_project_type_app_for_stack_and_copier = (CY_APP_FOR_STACK_AND_COPIER == 0x1)?0x1:0x0

.text           0x00000000      0x900
 CREATE_OBJECT_SYMBOLS
                0x00000000                PROVIDE (__cy_interrupt_vector, RomVectors)
 *(.romvectors)
 .romvectors    0x00000000       0x10 .\CortexM0\ARM_GCC_541\Debug\Cm0Start.o
                0x00000000                RomVectors
                0x00000001                ASSERT ((. != __cy_interrupt_vector), No interrupt vector)
                0x00000001                ASSERT (CY_APPL_ORIGIN?(SIZEOF (.cybootloader) <= CY_APPL_ORIGIN):0x1, Wrong image location)
                0x00000010                PROVIDE (__cy_reset, Reset)
 *(.text.Reset)
 .text.Reset    0x00000010        0x8 .\CortexM0\ARM_GCC_541\Debug\Cm0Start.o
                0x00000010                Reset
                0x00000001                ASSERT ((. != __cy_reset), No reset code)
 *(.psocinit)
 .psocinit      0x00000018      0x170 .\CortexM0\ARM_GCC_541\Debug\cyfitter_cfg.o
                0x000000cc                cyfitter_cfg
                0x00000188                . = MAX (., 0x100)
 *(.text .text.* .gnu.linkonce.t.*)
 .text          0x00000188       0x60 c:/program files (x86)/cypress/psoc creator/4.2/psoc creator/import/gnu/arm/5.4.1/bin/../lib/gcc/arm-none-eabi/5.4.1/armv6-m/crtbegin.o
 .text.LED_SW_Handler
                0x000001e8       0x14 .\CortexM0\ARM_GCC_541\Debug\main.o
                0x000001e8                LED_SW_Handler
 .text.main     0x000001fc       0x74 .\CortexM0\ARM_GCC_541\Debug\main.o
                0x000001fc                main
 .text.AnalogSetDefault
                0x00000270       0x20 .\CortexM0\ARM_GCC_541\Debug\cyfitter_cfg.o
 .text.CYMEMZERO
                0x00000290        0xc .\CortexM0\ARM_GCC_541\Debug\cyfitter_cfg.o
 .text.IntDefaultHandler
                0x0000029c       0x10 .\CortexM0\ARM_GCC_541\Debug\Cm0Start.o
                0x0000029c                IntDefaultHandler
 .text.Start_c  0x000002ac       0x48 .\CortexM0\ARM_GCC_541\Debug\Cm0Start.o
                0x000002ac                Start_c
 .text.initialize_psoc
                0x000002f4       0x4c .\CortexM0\ARM_GCC_541\Debug\Cm0Start.o
                0x000002f4                initialize_psoc
 .text.CySysClkEcoReadStatus
                0x00000340       0x10 .\CortexM0\ARM_GCC_541\Debug\Lesson03_LED_SW_INT.a(CyLib.o)
                0x00000340                CySysClkEcoReadStatus
 .text.CyIntEnable
                0x00000350       0x14 .\CortexM0\ARM_GCC_541\Debug\Lesson03_LED_SW_INT.a(CyLib.o)
                0x00000350                CyIntEnable
 .text.CyHalt   0x00000364        0x4 .\CortexM0\ARM_GCC_541\Debug\Lesson03_LED_SW_INT.a(CyLib.o)
                0x00000364                CyHalt
 .text.CyIntSetVector
                0x00000368       0x24 .\CortexM0\ARM_GCC_541\Debug\Lesson03_LED_SW_INT.a(CyLib.o)
                0x00000368                CyIntSetVector
 .text.CyDelay  0x0000038c       0x30 .\CortexM0\ARM_GCC_541\Debug\Lesson03_LED_SW_INT.a(CyLib.o)
                0x0000038c                CyDelay
 .text.CyDelayUs
                0x000003bc       0x14 .\CortexM0\ARM_GCC_541\Debug\Lesson03_LED_SW_INT.a(CyLib.o)
                0x000003bc                CyDelayUs
 .text.CySysClkWriteImoFreq
                0x000003d0      0x164 .\CortexM0\ARM_GCC_541\Debug\Lesson03_LED_SW_INT.a(CyLib.o)
                0x000003d0                CySysClkWriteImoFreq
 .text.CySysClkEcoStart
                0x00000534       0x54 .\CortexM0\ARM_GCC_541\Debug\Lesson03_LED_SW_INT.a(CyLib.o)
                0x00000534                CySysClkEcoStart
 .text.CySysWdtLocked
                0x00000588       0x14 .\CortexM0\ARM_GCC_541\Debug\Lesson03_LED_SW_INT.a(CyLFClk.o)
 .text.CySysClkWcoStart
                0x0000059c       0x40 .\CortexM0\ARM_GCC_541\Debug\Lesson03_LED_SW_INT.a(CyLFClk.o)
                0x0000059c                CySysClkWcoStart
 .text.CySysClkWcoSetPowerMode
                0x000005dc       0x80 .\CortexM0\ARM_GCC_541\Debug\Lesson03_LED_SW_INT.a(CyLFClk.o)
                0x000005dc                CySysClkWcoSetPowerMode
 .text.CySysWdtLock
                0x0000065c       0x1c .\CortexM0\ARM_GCC_541\Debug\Lesson03_LED_SW_INT.a(CyLFClk.o)
                0x0000065c                CySysWdtLock
 .text.CySysWdtUnlock
                0x00000678       0x30 .\CortexM0\ARM_GCC_541\Debug\Lesson03_LED_SW_INT.a(CyLFClk.o)
                0x00000678                CySysWdtUnlock
 .text.CySysWdtClearInterrupt
                0x000006a8       0x4c .\CortexM0\ARM_GCC_541\Debug\Lesson03_LED_SW_INT.a(CyLFClk.o)
                0x000006a8                CySysWdtClearInterrupt
 .text.CySysWdtIsr
                0x000006f4       0xa4 .\CortexM0\ARM_GCC_541\Debug\Lesson03_LED_SW_INT.a(CyLFClk.o)
                0x000006f4                CySysWdtIsr
 .text.LED_RED_Write
                0x00000798       0x18 .\CortexM0\ARM_GCC_541\Debug\Lesson03_LED_SW_INT.a(LED_RED.o)
                0x00000798                LED_RED_Write
 .text.LED_RED_Read
                0x000007b0       0x10 .\CortexM0\ARM_GCC_541\Debug\Lesson03_LED_SW_INT.a(LED_RED.o)
                0x000007b0                LED_RED_Read
 .text.LED_GREEN_Write
                0x000007c0       0x18 .\CortexM0\ARM_GCC_541\Debug\Lesson03_LED_SW_INT.a(LED_GREEN.o)
                0x000007c0                LED_GREEN_Write
 .text.LED_GREEN_Read
                0x000007d8       0x10 .\CortexM0\ARM_GCC_541\Debug\Lesson03_LED_SW_INT.a(LED_GREEN.o)
                0x000007d8                LED_GREEN_Read
 .text.LED_BLUE_Write
                0x000007e8       0x18 .\CortexM0\ARM_GCC_541\Debug\Lesson03_LED_SW_INT.a(LED_BLUE.o)
                0x000007e8                LED_BLUE_Write
 .text.LED_SW_ClearInterrupt
                0x00000800       0x14 .\CortexM0\ARM_GCC_541\Debug\Lesson03_LED_SW_INT.a(LED_SW.o)
                0x00000800                LED_SW_ClearInterrupt
 .text.LED_SW_Int_SetVector
                0x00000814        0xc .\CortexM0\ARM_GCC_541\Debug\Lesson03_LED_SW_INT.a(LED_SW_Int.o)
                0x00000814                LED_SW_Int_SetVector
 .text.LED_SW_Int_SetPriority
                0x00000820       0x24 .\CortexM0\ARM_GCC_541\Debug\Lesson03_LED_SW_INT.a(LED_SW_Int.o)
                0x00000820                LED_SW_Int_SetPriority
 .text.LED_SW_Int_Enable
                0x00000844        0xc .\CortexM0\ARM_GCC_541\Debug\Lesson03_LED_SW_INT.a(LED_SW_Int.o)
                0x00000844                LED_SW_Int_Enable
 .text.LED_SW_Int_Disable
                0x00000850        0xc .\CortexM0\ARM_GCC_541\Debug\Lesson03_LED_SW_INT.a(LED_SW_Int.o)
                0x00000850                LED_SW_Int_Disable
 .text.LED_SW_Int_StartEx
                0x0000085c       0x1c .\CortexM0\ARM_GCC_541\Debug\Lesson03_LED_SW_INT.a(LED_SW_Int.o)
                0x0000085c                LED_SW_Int_StartEx
 .text          0x00000878       0x20 .\CortexM0\ARM_GCC_541\Debug\Lesson03_LED_SW_INT.a(CyBootAsmGnu.o)
                0x00000878                CyDelayCycles
                0x0000088a                CyEnterCriticalSection
                0x00000892                CyExitCriticalSection
 .text.__errno  0x00000898        0xc c:/program files (x86)/cypress/psoc creator/4.2/psoc creator/import/gnu/arm/5.4.1/bin/../lib/gcc/arm-none-eabi/5.4.1/../../../../arm-none-eabi/lib/armv6-m\libg_nano.a(lib_a-errno.o)
                0x00000898                __errno
 .text.__libc_init_array
                0x000008a4       0x4c c:/program files (x86)/cypress/psoc creator/4.2/psoc creator/import/gnu/arm/5.4.1/bin/../lib/gcc/arm-none-eabi/5.4.1/../../../../arm-none-eabi/lib/armv6-m\libg_nano.a(lib_a-init.o)
                0x000008a4                __libc_init_array
 .text.memset   0x000008f0       0x10 c:/program files (x86)/cypress/psoc creator/4.2/psoc creator/import/gnu/arm/5.4.1/bin/../lib/gcc/arm-none-eabi/5.4.1/../../../../arm-none-eabi/lib/armv6-m\libg_nano.a(lib_a-memset.o)
                0x000008f0                memset
 *(.plt)
 *(.gnu.warning)
 *(.glue_7t)
 .glue_7t       0x00000900        0x0 linker stubs
 *(.glue_7)
 .glue_7        0x00000900        0x0 linker stubs
 *(.vfp11_veneer)
 .vfp11_veneer  0x00000900        0x0 linker stubs
 *(.bootloader)
 *(.ARM.extab* .gnu.linkonce.armextab.*)
 *(.gcc_except_table)

.v4_bx          0x00000900        0x0
 .v4_bx         0x00000900        0x0 linker stubs

.iplt           0x00000900        0x0
 .iplt          0x00000900        0x0 c:/program files (x86)/cypress/psoc creator/4.2/psoc creator/import/gnu/arm/5.4.1/bin/../lib/gcc/arm-none-eabi/5.4.1/armv6-m/crtbegin.o

.eh_frame_hdr
 *(.eh_frame_hdr)

.eh_frame       0x00000900        0x4
 *(.eh_frame)
 .eh_frame      0x00000900        0x0 c:/program files (x86)/cypress/psoc creator/4.2/psoc creator/import/gnu/arm/5.4.1/bin/../lib/gcc/arm-none-eabi/5.4.1/armv6-m/crtbegin.o
 .eh_frame      0x00000900        0x4 c:/program files (x86)/cypress/psoc creator/4.2/psoc creator/import/gnu/arm/5.4.1/bin/../lib/gcc/arm-none-eabi/5.4.1/armv6-m/crtend.o
                [!provide]                PROVIDE (__exidx_start, .)

.ARM.exidx
 *(.ARM.exidx* .gnu.linkonce.armexidx.*)
                0x00000904                __exidx_end = .

.rodata         0x00000904       0x74
 *(.rodata .rodata.* .gnu.linkonce.r.*)
 .rodata        0x00000904        0xc .\CortexM0\ARM_GCC_541\Debug\cyfitter_cfg.o
 .rodata        0x00000910       0x2e .\CortexM0\ARM_GCC_541\Debug\Lesson03_LED_SW_INT.a(CyLib.o)
                0x00000910                cyImoFreqMhz2Reg
 .rodata.str1.1
                0x0000093e        0x2 c:/program files (x86)/cypress/psoc creator/4.2/psoc creator/import/gnu/arm/5.4.1/bin/../lib/gcc/arm-none-eabi/5.4.1/../../../../arm-none-eabi/lib/armv6-m\libg_nano.a(lib_a-impure.o)
                0x00000940                . = ALIGN (0x4)
 *(.init)
 .init          0x00000940        0x4 c:/program files (x86)/cypress/psoc creator/4.2/psoc creator/import/gnu/arm/5.4.1/bin/../lib/gcc/arm-none-eabi/5.4.1/armv6-m/crti.o
                0x00000940                _init
 .init          0x00000944        0x8 c:/program files (x86)/cypress/psoc creator/4.2/psoc creator/import/gnu/arm/5.4.1/bin/../lib/gcc/arm-none-eabi/5.4.1/armv6-m/crtn.o
                0x0000094c                . = ALIGN (0x4)
                0x0000094c                __preinit_array_start = .
 *(.preinit_array)
                0x0000094c                __preinit_array_end = .
                0x0000094c                . = ALIGN (0x4)
                0x0000094c                __init_array_start = .
 *(SORT(.init_array.*))
 *(.init_array)
 .init_array    0x0000094c        0x4 c:/program files (x86)/cypress/psoc creator/4.2/psoc creator/import/gnu/arm/5.4.1/bin/../lib/gcc/arm-none-eabi/5.4.1/armv6-m/crtbegin.o
 .init_array    0x00000950        0x4 .\CortexM0\ARM_GCC_541\Debug\Cm0Start.o
                0x00000954                __init_array_end = .
                0x00000954                . = ALIGN (0x4)
 *(.fini)
 .fini          0x00000954        0x4 c:/program files (x86)/cypress/psoc creator/4.2/psoc creator/import/gnu/arm/5.4.1/bin/../lib/gcc/arm-none-eabi/5.4.1/armv6-m/crti.o
                0x00000954                _fini
 .fini          0x00000958        0x8 c:/program files (x86)/cypress/psoc creator/4.2/psoc creator/import/gnu/arm/5.4.1/bin/../lib/gcc/arm-none-eabi/5.4.1/armv6-m/crtn.o
                0x00000960                . = ALIGN (0x4)
                0x00000960                __fini_array_start = .
 *(.fini_array)
 .fini_array    0x00000960        0x4 c:/program files (x86)/cypress/psoc creator/4.2/psoc creator/import/gnu/arm/5.4.1/bin/../lib/gcc/arm-none-eabi/5.4.1/armv6-m/crtbegin.o
 *(SORT(.fini_array.*))
                0x00000964                __fini_array_end = .
                0x00000964                . = ALIGN (0x4)
 *crtbegin.o(.ctors)
 *(EXCLUDE_FILE(*crtend.o) .ctors)
 *(SORT(.ctors.*))
 *crtend.o(.ctors)
                0x00000964                . = ALIGN (0x4)
 *crtbegin.o(.dtors)
 *(EXCLUDE_FILE(*crtend.o) .dtors)
 *(SORT(.dtors.*))
 *crtend.o(.dtors)
                0x00000964                . = ALIGN (0x4)
                0x00000964                __cy_regions = .
                0x00000964        0x4 LONG 0x978 __cy_region_init_ram
                0x00000968        0x4 LONG 0x200000c0 __cy_region_start_data
                0x0000096c        0x4 LONG 0x88 __cy_region_init_size_ram
                0x00000970        0x4 LONG 0x48 __cy_region_zero_size_ram
                0x00000974                __cy_regions_end = .
                0x00000978                . = ALIGN (0x8)
 *fill*         0x00000974        0x4 
                0x00000978                _etext = .

.cy_checksum_exclude
                0x00000978        0x0
 *(.cy_checksum_exclude)

.ramvectors     0x20000000       0xc0
                0x20000000                __cy_region_start_ram = .
 *(.ramvectors)
 .ramvectors    0x20000000       0xc0 .\CortexM0\ARM_GCC_541\Debug\Cm0Start.o
                0x20000000                CyRamVectors

.noinit
 *(.noinit)

.data           0x200000c0       0x88 load address 0x00000978
                0x200000c0                __cy_region_start_data = .
 *(.jcr)
 .jcr           0x200000c0        0x0 c:/program files (x86)/cypress/psoc creator/4.2/psoc creator/import/gnu/arm/5.4.1/bin/../lib/gcc/arm-none-eabi/5.4.1/armv6-m/crtbegin.o
 .jcr           0x200000c0        0x4 c:/program files (x86)/cypress/psoc creator/4.2/psoc creator/import/gnu/arm/5.4.1/bin/../lib/gcc/arm-none-eabi/5.4.1/armv6-m/crtend.o
 *(.got.plt)
 *(.got)
 *(.shdata)
 *(.data .data.* .gnu.linkonce.d.*)
 .data          0x200000c4       0x14 .\CortexM0\ARM_GCC_541\Debug\Lesson03_LED_SW_INT.a(CyLib.o)
                0x200000c4                CySysClkPumpConfig
                0x200000c8                cydelay32kMs
                0x200000cc                cydelayFreqKhz
                0x200000d0                cydelayFreqMhz
                0x200000d4                cydelayFreqHz
 .data          0x200000d8        0x8 .\CortexM0\ARM_GCC_541\Debug\Lesson03_LED_SW_INT.a(CyLFClk.o)
 .data.impure_data
                0x200000e0       0x60 c:/program files (x86)/cypress/psoc creator/4.2/psoc creator/import/gnu/arm/5.4.1/bin/../lib/gcc/arm-none-eabi/5.4.1/../../../../arm-none-eabi/lib/armv6-m\libg_nano.a(lib_a-impure.o)
 .data._impure_ptr
                0x20000140        0x4 c:/program files (x86)/cypress/psoc creator/4.2/psoc creator/import/gnu/arm/5.4.1/bin/../lib/gcc/arm-none-eabi/5.4.1/../../../../arm-none-eabi/lib/armv6-m\libg_nano.a(lib_a-impure.o)
                0x20000140                _impure_ptr
                0x20000148                . = ALIGN (0x8)
 *fill*         0x20000144        0x4 
 *(.ram)
                0x20000148                _edata = .

.igot.plt       0x20000148        0x0 load address 0x00000a00
 .igot.plt      0x20000148        0x0 c:/program files (x86)/cypress/psoc creator/4.2/psoc creator/import/gnu/arm/5.4.1/bin/../lib/gcc/arm-none-eabi/5.4.1/armv6-m/crtbegin.o

.bss            0x20000148       0x48 load address 0x00000a00
                0x20000148                PROVIDE (__bss_start__, .)
 *(.shbss)
 *(.bss .bss.* .gnu.linkonce.b.*)
 .bss           0x20000148       0x1c c:/program files (x86)/cypress/psoc creator/4.2/psoc creator/import/gnu/arm/5.4.1/bin/../lib/gcc/arm-none-eabi/5.4.1/armv6-m/crtbegin.o
 .bss           0x20000164        0x1 .\CortexM0\ARM_GCC_541\Debug\main.o
                0x20000164                ledState
 *fill*         0x20000165        0x3 
 .bss           0x20000168       0x28 .\CortexM0\ARM_GCC_541\Debug\Lesson03_LED_SW_INT.a(CyLFClk.o)
 *(COMMON)
                0x20000190                . = ALIGN (0x8)
 *(.ram.b)
                0x20000190                _end = .
                0x20000190                __end = .
                0x20000190                PROVIDE (end, .)
                0x20000190                PROVIDE (__bss_end__, .)
                0x00000978                __cy_region_init_ram = LOADADDR (.data)
                0x00000088                __cy_region_init_size_ram = (_edata - ADDR (.data))
                0x00000048                __cy_region_zero_size_ram = (_end - _edata)

.heap           0x20000190       0x80 load address 0x00000a00
                0x20000190                . = _end
                0x20000210                . = (. + 0x80)
 *fill*         0x20000190       0x80 
                0x20000210                __cy_heap_limit = .

.stack          0x20007800      0x800
                0x20007800                __cy_stack_limit = .
                0x20008000                . = (. + 0x800)
 *fill*         0x20007800      0x800 
                0x00000001                ASSERT ((__cy_stack_limit >= __cy_heap_limit), region RAM overflowed with stack)
                0x00000000                cy_checksum_exclude_size = (CY_APPL_LOADABLE == 0x1)?SIZEOF (.cy_checksum_exclude):0x0
                0x00000001                ASSERT ((cy_checksum_exclude_size <= CY_CHECKSUM_EXCLUDE_SIZE), CY_BOOT: Section .cy_checksum_exclude size exceedes specified limit.)
                0x0003ffc0                cyloadermeta_start = (cy_project_type_bootloader || cy_project_type_app_for_stack_and_copier)?(LENGTH (rom) - CY_METADATA_SIZE):0xf0000000

.cyloadermeta
 *(.cyloadermeta)
                0x0003ffc0                cyloadablemeta_start = cy_project_type_app_for_stack_and_copier?((LENGTH (rom) - CY_FLASH_ROW_SIZE) - CY_METADATA_SIZE):((LENGTH (rom) - (CY_FLASH_ROW_SIZE * (CY_APPL_NUM - 0x1))) - CY_METADATA_SIZE)

.cyloadablemeta
 *(.cyloadablemeta)

.cyflashprotect
                0x90400000       0x80
 *(.cyflashprotect)
 .cyflashprotect
                0x90400000       0x80 .\CortexM0\ARM_GCC_541\Debug\cymetadata.o
                0x90400000                cy_meta_flashprotect

.cymeta         0x90500000        0xc
 *(.cymeta)
 .cymeta        0x90500000        0xc .\CortexM0\ARM_GCC_541\Debug\cymetadata.o
                0x90500000                cy_metadata

.cychipprotect  0x90600000        0x1
 *(.cychipprotect)
 .cychipprotect
                0x90600000        0x1 .\CortexM0\ARM_GCC_541\Debug\cymetadata.o
                0x90600000                cy_meta_chipprotect

.rel.dyn        0x00000a00        0x0 load address 0x90600004
 .rel.iplt      0x00000a00        0x0 c:/program files (x86)/cypress/psoc creator/4.2/psoc creator/import/gnu/arm/5.4.1/bin/../lib/gcc/arm-none-eabi/5.4.1/armv6-m/crtbegin.o

.stab
 *(.stab)

.stabstr
 *(.stabstr)

.debug
 *(.debug)

.line
 *(.line)

.debug_srcinfo
 *(.debug_srcinfo)

.debug_sfnames
 *(.debug_sfnames)

.debug_aranges  0x00000000      0x5d8
 *(.debug_aranges)
 .debug_aranges
                0x00000000       0x28 .\CortexM0\ARM_GCC_541\Debug\main.o
 .debug_aranges
                0x00000028       0x38 .\CortexM0\ARM_GCC_541\Debug\cyfitter_cfg.o
 .debug_aranges
                0x00000060       0x18 .\CortexM0\ARM_GCC_541\Debug\cymetadata.o
 .debug_aranges
                0x00000078       0x48 .\CortexM0\ARM_GCC_541\Debug\Cm0Start.o
 .debug_aranges
                0x000000c0      0x1d0 .\CortexM0\ARM_GCC_541\Debug\Lesson03_LED_SW_INT.a(CyLib.o)
 .debug_aranges
                0x00000290      0x188 .\CortexM0\ARM_GCC_541\Debug\Lesson03_LED_SW_INT.a(CyLFClk.o)
 .debug_aranges
                0x00000418       0x48 .\CortexM0\ARM_GCC_541\Debug\Lesson03_LED_SW_INT.a(LED_RED.o)
 .debug_aranges
                0x00000460       0x48 .\CortexM0\ARM_GCC_541\Debug\Lesson03_LED_SW_INT.a(LED_GREEN.o)
 .debug_aranges
                0x000004a8       0x48 .\CortexM0\ARM_GCC_541\Debug\Lesson03_LED_SW_INT.a(LED_BLUE.o)
 .debug_aranges
                0x000004f0       0x48 .\CortexM0\ARM_GCC_541\Debug\Lesson03_LED_SW_INT.a(LED_SW.o)
 .debug_aranges
                0x00000538       0x80 .\CortexM0\ARM_GCC_541\Debug\Lesson03_LED_SW_INT.a(LED_SW_Int.o)
 .debug_aranges
                0x000005b8       0x20 .\CortexM0\ARM_GCC_541\Debug\Lesson03_LED_SW_INT.a(CyBootAsmGnu.o)

.debug_pubnames
 *(.debug_pubnames)

.debug_info     0x00000000     0x318c
 *(.debug_info .gnu.linkonce.wi.*)
 .debug_info    0x00000000      0x20d .\CortexM0\ARM_GCC_541\Debug\main.o
 .debug_info    0x0000020d      0x32d .\CortexM0\ARM_GCC_541\Debug\cyfitter_cfg.o
 .debug_info    0x0000053a       0xf8 .\CortexM0\ARM_GCC_541\Debug\cymetadata.o
 .debug_info    0x00000632      0x3a2 .\CortexM0\ARM_GCC_541\Debug\Cm0Start.o
 .debug_info    0x000009d4      0xd2b .\CortexM0\ARM_GCC_541\Debug\Lesson03_LED_SW_INT.a(CyLib.o)
 .debug_info    0x000016ff     0x1071 .\CortexM0\ARM_GCC_541\Debug\Lesson03_LED_SW_INT.a(CyLFClk.o)
 .debug_info    0x00002770      0x19d .\CortexM0\ARM_GCC_541\Debug\Lesson03_LED_SW_INT.a(LED_RED.o)
 .debug_info    0x0000290d      0x19d .\CortexM0\ARM_GCC_541\Debug\Lesson03_LED_SW_INT.a(LED_GREEN.o)
 .debug_info    0x00002aaa      0x19d .\CortexM0\ARM_GCC_541\Debug\Lesson03_LED_SW_INT.a(LED_BLUE.o)
 .debug_info    0x00002c47      0x19d .\CortexM0\ARM_GCC_541\Debug\Lesson03_LED_SW_INT.a(LED_SW.o)
 .debug_info    0x00002de4      0x305 .\CortexM0\ARM_GCC_541\Debug\Lesson03_LED_SW_INT.a(LED_SW_Int.o)
 .debug_info    0x000030e9       0xa3 .\CortexM0\ARM_GCC_541\Debug\Lesson03_LED_SW_INT.a(CyBootAsmGnu.o)

.debug_abbrev   0x00000000      0xd51
 *(.debug_abbrev)
 .debug_abbrev  0x00000000       0xc1 .\CortexM0\ARM_GCC_541\Debug\main.o
 .debug_abbrev  0x000000c1      0x166 .\CortexM0\ARM_GCC_541\Debug\cyfitter_cfg.o
 .debug_abbrev  0x00000227       0x5d .\CortexM0\ARM_GCC_541\Debug\cymetadata.o
 .debug_abbrev  0x00000284      0x1d7 .\CortexM0\ARM_GCC_541\Debug\Cm0Start.o
 .debug_abbrev  0x0000045b      0x1e0 .\CortexM0\ARM_GCC_541\Debug\Lesson03_LED_SW_INT.a(CyLib.o)
 .debug_abbrev  0x0000063b      0x248 .\CortexM0\ARM_GCC_541\Debug\Lesson03_LED_SW_INT.a(CyLFClk.o)
 .debug_abbrev  0x00000883       0xc8 .\CortexM0\ARM_GCC_541\Debug\Lesson03_LED_SW_INT.a(LED_RED.o)
 .debug_abbrev  0x0000094b       0xc8 .\CortexM0\ARM_GCC_541\Debug\Lesson03_LED_SW_INT.a(LED_GREEN.o)
 .debug_abbrev  0x00000a13       0xc8 .\CortexM0\ARM_GCC_541\Debug\Lesson03_LED_SW_INT.a(LED_BLUE.o)
 .debug_abbrev  0x00000adb       0xc8 .\CortexM0\ARM_GCC_541\Debug\Lesson03_LED_SW_INT.a(LED_SW.o)
 .debug_abbrev  0x00000ba3      0x19a .\CortexM0\ARM_GCC_541\Debug\Lesson03_LED_SW_INT.a(LED_SW_Int.o)
 .debug_abbrev  0x00000d3d       0x14 .\CortexM0\ARM_GCC_541\Debug\Lesson03_LED_SW_INT.a(CyBootAsmGnu.o)

.debug_line     0x00000000     0x158d
 *(.debug_line)
 .debug_line    0x00000000       0xce .\CortexM0\ARM_GCC_541\Debug\main.o
 .debug_line    0x000000ce      0x15e .\CortexM0\ARM_GCC_541\Debug\cyfitter_cfg.o
 .debug_line    0x0000022c      0x141 .\CortexM0\ARM_GCC_541\Debug\cymetadata.o
 .debug_line    0x0000036d      0x236 .\CortexM0\ARM_GCC_541\Debug\Cm0Start.o
 .debug_line    0x000005a3      0x553 .\CortexM0\ARM_GCC_541\Debug\Lesson03_LED_SW_INT.a(CyLib.o)
 .debug_line    0x00000af6      0x5db .\CortexM0\ARM_GCC_541\Debug\Lesson03_LED_SW_INT.a(CyLFClk.o)
 .debug_line    0x000010d1       0xbf .\CortexM0\ARM_GCC_541\Debug\Lesson03_LED_SW_INT.a(LED_RED.o)
 .debug_line    0x00001190       0xc1 .\CortexM0\ARM_GCC_541\Debug\Lesson03_LED_SW_INT.a(LED_GREEN.o)
 .debug_line    0x00001251       0xc0 .\CortexM0\ARM_GCC_541\Debug\Lesson03_LED_SW_INT.a(LED_BLUE.o)
 .debug_line    0x00001311       0xbe .\CortexM0\ARM_GCC_541\Debug\Lesson03_LED_SW_INT.a(LED_SW.o)
 .debug_line    0x000013cf      0x156 .\CortexM0\ARM_GCC_541\Debug\Lesson03_LED_SW_INT.a(LED_SW_Int.o)
 .debug_line    0x00001525       0x68 .\CortexM0\ARM_GCC_541\Debug\Lesson03_LED_SW_INT.a(CyBootAsmGnu.o)

.debug_frame    0x00000000      0xe6c
 *(.debug_frame)
 .debug_frame   0x00000000       0x48 .\CortexM0\ARM_GCC_541\Debug\main.o
 .debug_frame   0x00000048       0x78 .\CortexM0\ARM_GCC_541\Debug\cyfitter_cfg.o
 .debug_frame   0x000000c0       0xbc .\CortexM0\ARM_GCC_541\Debug\Cm0Start.o
 .debug_frame   0x0000017c      0x4a4 .\CortexM0\ARM_GCC_541\Debug\Lesson03_LED_SW_INT.a(CyLib.o)
 .debug_frame   0x00000620      0x4a8 .\CortexM0\ARM_GCC_541\Debug\Lesson03_LED_SW_INT.a(CyLFClk.o)
 .debug_frame   0x00000ac8       0x70 .\CortexM0\ARM_GCC_541\Debug\Lesson03_LED_SW_INT.a(LED_RED.o)
 .debug_frame   0x00000b38       0x70 .\CortexM0\ARM_GCC_541\Debug\Lesson03_LED_SW_INT.a(LED_GREEN.o)
 .debug_frame   0x00000ba8       0x70 .\CortexM0\ARM_GCC_541\Debug\Lesson03_LED_SW_INT.a(LED_BLUE.o)
 .debug_frame   0x00000c18       0x70 .\CortexM0\ARM_GCC_541\Debug\Lesson03_LED_SW_INT.a(LED_SW.o)
 .debug_frame   0x00000c88      0x110 .\CortexM0\ARM_GCC_541\Debug\Lesson03_LED_SW_INT.a(LED_SW_Int.o)
 .debug_frame   0x00000d98       0x20 c:/program files (x86)/cypress/psoc creator/4.2/psoc creator/import/gnu/arm/5.4.1/bin/../lib/gcc/arm-none-eabi/5.4.1/armv6-m\libgcc.a(_udivsi3.o)
 .debug_frame   0x00000db8       0x20 c:/program files (x86)/cypress/psoc creator/4.2/psoc creator/import/gnu/arm/5.4.1/bin/../lib/gcc/arm-none-eabi/5.4.1/armv6-m\libgcc.a(_divsi3.o)
 .debug_frame   0x00000dd8       0x20 c:/program files (x86)/cypress/psoc creator/4.2/psoc creator/import/gnu/arm/5.4.1/bin/../lib/gcc/arm-none-eabi/5.4.1/../../../../arm-none-eabi/lib/armv6-m\libg_nano.a(lib_a-errno.o)
 .debug_frame   0x00000df8       0x28 c:/program files (x86)/cypress/psoc creator/4.2/psoc creator/import/gnu/arm/5.4.1/bin/../lib/gcc/arm-none-eabi/5.4.1/../../../../arm-none-eabi/lib/armv6-m\libg_nano.a(lib_a-exit.o)
 .debug_frame   0x00000e20       0x2c c:/program files (x86)/cypress/psoc creator/4.2/psoc creator/import/gnu/arm/5.4.1/bin/../lib/gcc/arm-none-eabi/5.4.1/../../../../arm-none-eabi/lib/armv6-m\libg_nano.a(lib_a-init.o)
 .debug_frame   0x00000e4c       0x20 c:/program files (x86)/cypress/psoc creator/4.2/psoc creator/import/gnu/arm/5.4.1/bin/../lib/gcc/arm-none-eabi/5.4.1/../../../../arm-none-eabi/lib/armv6-m\libg_nano.a(lib_a-memset.o)

.debug_str      0x00000000     0x14c4
 *(.debug_str)
 .debug_str     0x00000000      0x1f2 .\CortexM0\ARM_GCC_541\Debug\main.o
                                0x232 (size before relaxing)
 .debug_str     0x000001f2      0x11f .\CortexM0\ARM_GCC_541\Debug\cyfitter_cfg.o
                                0x2c0 (size before relaxing)
 .debug_str     0x00000311       0x63 .\CortexM0\ARM_GCC_541\Debug\cymetadata.o
                                0x1db (size before relaxing)
 .debug_str     0x00000374      0x140 .\CortexM0\ARM_GCC_541\Debug\Cm0Start.o
                                0x314 (size before relaxing)
 .debug_str     0x000004b4      0x5d5 .\CortexM0\ARM_GCC_541\Debug\Lesson03_LED_SW_INT.a(CyLib.o)
                                0x80b (size before relaxing)
 .debug_str     0x00000a89      0x6ec .\CortexM0\ARM_GCC_541\Debug\Lesson03_LED_SW_INT.a(CyLFClk.o)
                                0x94b (size before relaxing)
 .debug_str     0x00001175       0x9e .\CortexM0\ARM_GCC_541\Debug\Lesson03_LED_SW_INT.a(LED_RED.o)
                                0x257 (size before relaxing)
 .debug_str     0x00001213       0x84 .\CortexM0\ARM_GCC_541\Debug\Lesson03_LED_SW_INT.a(LED_GREEN.o)
                                0x265 (size before relaxing)
 .debug_str     0x00001297       0x8d .\CortexM0\ARM_GCC_541\Debug\Lesson03_LED_SW_INT.a(LED_BLUE.o)
                                0x25e (size before relaxing)
 .debug_str     0x00001324       0x78 .\CortexM0\ARM_GCC_541\Debug\Lesson03_LED_SW_INT.a(LED_SW.o)
                                0x250 (size before relaxing)
 .debug_str     0x0000139c      0x128 .\CortexM0\ARM_GCC_541\Debug\Lesson03_LED_SW_INT.a(LED_SW_Int.o)
                                0x343 (size before relaxing)

.debug_loc      0x00000000     0x1ac4
 *(.debug_loc)
 .debug_loc     0x00000000       0xa9 .\CortexM0\ARM_GCC_541\Debug\cyfitter_cfg.o
 .debug_loc     0x000000a9      0x14f .\CortexM0\ARM_GCC_541\Debug\Cm0Start.o
 .debug_loc     0x000001f8      0x818 .\CortexM0\ARM_GCC_541\Debug\Lesson03_LED_SW_INT.a(CyLib.o)
 .debug_loc     0x00000a10      0xdaa .\CortexM0\ARM_GCC_541\Debug\Lesson03_LED_SW_INT.a(CyLFClk.o)
 .debug_loc     0x000017ba       0xa2 .\CortexM0\ARM_GCC_541\Debug\Lesson03_LED_SW_INT.a(LED_RED.o)
 .debug_loc     0x0000185c       0xa2 .\CortexM0\ARM_GCC_541\Debug\Lesson03_LED_SW_INT.a(LED_GREEN.o)
 .debug_loc     0x000018fe       0xa2 .\CortexM0\ARM_GCC_541\Debug\Lesson03_LED_SW_INT.a(LED_BLUE.o)
 .debug_loc     0x000019a0       0xa2 .\CortexM0\ARM_GCC_541\Debug\Lesson03_LED_SW_INT.a(LED_SW.o)
 .debug_loc     0x00001a42       0x82 .\CortexM0\ARM_GCC_541\Debug\Lesson03_LED_SW_INT.a(LED_SW_Int.o)

.debug_macinfo
 *(.debug_macinfo)

.debug_ranges   0x00000000      0x500
 *(.debug_ranges)
 .debug_ranges  0x00000000       0x18 .\CortexM0\ARM_GCC_541\Debug\main.o
 .debug_ranges  0x00000018       0x28 .\CortexM0\ARM_GCC_541\Debug\cyfitter_cfg.o
 .debug_ranges  0x00000040       0x38 .\CortexM0\ARM_GCC_541\Debug\Cm0Start.o
 .debug_ranges  0x00000078      0x1c0 .\CortexM0\ARM_GCC_541\Debug\Lesson03_LED_SW_INT.a(CyLib.o)
 .debug_ranges  0x00000238      0x178 .\CortexM0\ARM_GCC_541\Debug\Lesson03_LED_SW_INT.a(CyLFClk.o)
 .debug_ranges  0x000003b0       0x38 .\CortexM0\ARM_GCC_541\Debug\Lesson03_LED_SW_INT.a(LED_RED.o)
 .debug_ranges  0x000003e8       0x38 .\CortexM0\ARM_GCC_541\Debug\Lesson03_LED_SW_INT.a(LED_GREEN.o)
 .debug_ranges  0x00000420       0x38 .\CortexM0\ARM_GCC_541\Debug\Lesson03_LED_SW_INT.a(LED_BLUE.o)
 .debug_ranges  0x00000458       0x38 .\CortexM0\ARM_GCC_541\Debug\Lesson03_LED_SW_INT.a(LED_SW.o)
 .debug_ranges  0x00000490       0x70 .\CortexM0\ARM_GCC_541\Debug\Lesson03_LED_SW_INT.a(LED_SW_Int.o)

.comment        0x00000000       0x6e
 .comment       0x00000000       0x6e .\CortexM0\ARM_GCC_541\Debug\main.o
                                 0x6f (size before relaxing)
 .comment       0x0000006e       0x6f .\CortexM0\ARM_GCC_541\Debug\cyfitter_cfg.o
 .comment       0x0000006e       0x6f .\CortexM0\ARM_GCC_541\Debug\cymetadata.o
 .comment       0x0000006e       0x6f .\CortexM0\ARM_GCC_541\Debug\Cm0Start.o
 .comment       0x0000006e       0x6f .\CortexM0\ARM_GCC_541\Debug\Lesson03_LED_SW_INT.a(CyLib.o)
 .comment       0x0000006e       0x6f .\CortexM0\ARM_GCC_541\Debug\Lesson03_LED_SW_INT.a(CyLFClk.o)
 .comment       0x0000006e       0x6f .\CortexM0\ARM_GCC_541\Debug\Lesson03_LED_SW_INT.a(LED_RED.o)
 .comment       0x0000006e       0x6f .\CortexM0\ARM_GCC_541\Debug\Lesson03_LED_SW_INT.a(LED_GREEN.o)
 .comment       0x0000006e       0x6f .\CortexM0\ARM_GCC_541\Debug\Lesson03_LED_SW_INT.a(LED_BLUE.o)
 .comment       0x0000006e       0x6f .\CortexM0\ARM_GCC_541\Debug\Lesson03_LED_SW_INT.a(LED_SW.o)
 .comment       0x0000006e       0x6f .\CortexM0\ARM_GCC_541\Debug\Lesson03_LED_SW_INT.a(LED_SW_Int.o)

.debug_weaknames
 *(.debug_weaknames)

.debug_funcnames
 *(.debug_funcnames)

.debug_typenames
 *(.debug_typenames)

.debug_varnames
 *(.debug_varnames)

.note.gnu.arm.ident
 *(.note.gnu.arm.ident)

.ARM.attributes
                0x00000000       0x28
 *(.ARM.attributes)
 .ARM.attributes
                0x00000000       0x1e c:/program files (x86)/cypress/psoc creator/4.2/psoc creator/import/gnu/arm/5.4.1/bin/../lib/gcc/arm-none-eabi/5.4.1/armv6-m/crti.o
 .ARM.attributes
                0x0000001e       0x2c c:/program files (x86)/cypress/psoc creator/4.2/psoc creator/import/gnu/arm/5.4.1/bin/../lib/gcc/arm-none-eabi/5.4.1/armv6-m/crtbegin.o
 .ARM.attributes
                0x0000004a       0x1b c:/program files (x86)/cypress/psoc creator/4.2/psoc creator/import/gnu/arm/5.4.1/bin/../lib/gcc/arm-none-eabi/5.4.1/../../../../arm-none-eabi/lib/armv6-m/crt0.o
 .ARM.attributes
                0x00000065       0x31 .\CortexM0\ARM_GCC_541\Debug\main.o
 .ARM.attributes
                0x00000096       0x31 .\CortexM0\ARM_GCC_541\Debug\cyfitter_cfg.o
 .ARM.attributes
                0x000000c7       0x31 .\CortexM0\ARM_GCC_541\Debug\cymetadata.o
 .ARM.attributes
                0x000000f8       0x31 .\CortexM0\ARM_GCC_541\Debug\Cm0Start.o
 .ARM.attributes
                0x00000129       0x31 .\CortexM0\ARM_GCC_541\Debug\Lesson03_LED_SW_INT.a(CyLib.o)
 .ARM.attributes
                0x0000015a       0x31 .\CortexM0\ARM_GCC_541\Debug\Lesson03_LED_SW_INT.a(CyLFClk.o)
 .ARM.attributes
                0x0000018b       0x31 .\CortexM0\ARM_GCC_541\Debug\Lesson03_LED_SW_INT.a(LED_RED.o)
 .ARM.attributes
                0x000001bc       0x31 .\CortexM0\ARM_GCC_541\Debug\Lesson03_LED_SW_INT.a(LED_GREEN.o)
 .ARM.attributes
                0x000001ed       0x31 .\CortexM0\ARM_GCC_541\Debug\Lesson03_LED_SW_INT.a(LED_BLUE.o)
 .ARM.attributes
                0x0000021e       0x31 .\CortexM0\ARM_GCC_541\Debug\Lesson03_LED_SW_INT.a(LED_SW.o)
 .ARM.attributes
                0x0000024f       0x31 .\CortexM0\ARM_GCC_541\Debug\Lesson03_LED_SW_INT.a(LED_SW_Int.o)
 .ARM.attributes
                0x00000280       0x21 .\CortexM0\ARM_GCC_541\Debug\Lesson03_LED_SW_INT.a(CyBootAsmGnu.o)
 .ARM.attributes
                0x000002a1       0x1e c:/program files (x86)/cypress/psoc creator/4.2/psoc creator/import/gnu/arm/5.4.1/bin/../lib/gcc/arm-none-eabi/5.4.1/armv6-m\libgcc.a(_udivsi3.o)
 .ARM.attributes
                0x000002bf       0x1e c:/program files (x86)/cypress/psoc creator/4.2/psoc creator/import/gnu/arm/5.4.1/bin/../lib/gcc/arm-none-eabi/5.4.1/armv6-m\libgcc.a(_divsi3.o)
 .ARM.attributes
                0x000002dd       0x1e c:/program files (x86)/cypress/psoc creator/4.2/psoc creator/import/gnu/arm/5.4.1/bin/../lib/gcc/arm-none-eabi/5.4.1/armv6-m\libgcc.a(_dvmd_tls.o)
 .ARM.attributes
                0x000002fb       0x2c c:/program files (x86)/cypress/psoc creator/4.2/psoc creator/import/gnu/arm/5.4.1/bin/../lib/gcc/arm-none-eabi/5.4.1/../../../../arm-none-eabi/lib/armv6-m\libg_nano.a(lib_a-errno.o)
 .ARM.attributes
                0x00000327       0x2c c:/program files (x86)/cypress/psoc creator/4.2/psoc creator/import/gnu/arm/5.4.1/bin/../lib/gcc/arm-none-eabi/5.4.1/../../../../arm-none-eabi/lib/armv6-m\libg_nano.a(lib_a-exit.o)
 .ARM.attributes
                0x00000353       0x2c c:/program files (x86)/cypress/psoc creator/4.2/psoc creator/import/gnu/arm/5.4.1/bin/../lib/gcc/arm-none-eabi/5.4.1/../../../../arm-none-eabi/lib/armv6-m\libg_nano.a(lib_a-impure.o)
 .ARM.attributes
                0x0000037f       0x2c c:/program files (x86)/cypress/psoc creator/4.2/psoc creator/import/gnu/arm/5.4.1/bin/../lib/gcc/arm-none-eabi/5.4.1/../../../../arm-none-eabi/lib/armv6-m\libg_nano.a(lib_a-init.o)
 .ARM.attributes
                0x000003ab       0x2c c:/program files (x86)/cypress/psoc creator/4.2/psoc creator/import/gnu/arm/5.4.1/bin/../lib/gcc/arm-none-eabi/5.4.1/../../../../arm-none-eabi/lib/armv6-m\libg_nano.a(lib_a-memset.o)
 .ARM.attributes
                0x000003d7       0x2c c:/program files (x86)/cypress/psoc creator/4.2/psoc creator/import/gnu/arm/5.4.1/bin/../lib/gcc/arm-none-eabi/5.4.1/armv6-m/crtend.o
 .ARM.attributes
                0x00000403       0x1e c:/program files (x86)/cypress/psoc creator/4.2/psoc creator/import/gnu/arm/5.4.1/bin/../lib/gcc/arm-none-eabi/5.4.1/armv6-m/crtn.o

/DISCARD/
 *(.note.GNU-stack)
OUTPUT(C:\Users\ORA\OneDrive - PetNovations\Cypress - BLE\Lessons\Lesson03_LED_SW_INT.cydsn\CortexM0\ARM_GCC_541\Debug\Lesson03_LED_SW_INT.elf elf32-littlearm)
