:4000000000800020110000001D0300001D03000010B500F08BF9C04670B51222264B1A6000F0E4FA254800F0E3FC012000F0FEFA302000F0F5F9224A224B1A60224C8025A5
:40004000ED052560214A116802230B431360204A204B1A600022204B1A60204A136808218B431360FA20C00000F08CFA1C4800F0CDF91C4A1C4B1A601C4B1D4A1A60C021C0
:4000800089001C4A11601C4A1A60802212061B4B1A608022D2021A4B1A604122194B1A60013A194B1A601949082000F09DF9082000F08EF9256070BD30001040001BB70004
:4000C0000600008004010B400C020B4078002E402D3E00007C002E4064F02E406CF02E40DC050000007FBB00040301400000014041FF00800003014040FF008008010B404F
:4001000000010B40200101401C0101404507000010B572B60022294B1A6000240FE028486200131959000B00411889881A5AC31858880004104300F0EBF80134E4B2012C3A
:40014000EDD91F4801000C31283000F0B7F8EE2212061C4B1A60C0239B041B4A13601B4A136099231B041A4A13601A4A136080214905194A1160194A136080229205184B24
:400180001A60184A184B1A60184A117806230B43DBB21370D8231B04154A1360C02215490A60B020C0031449086014490A60144A1360FFF731FF00F09BF810BD6CF02E404E
:4001C0007C0A000000000240000202400003024000500F4020500F4028500F4030500F4038500F40155505006001204000700F4008000440000204400802044000030440CD
:400200000803044010B5064C2378002B07D1054B002B02D0044800E000BF0123237010BD4801002000000000780A0000084B10B5002B03D00749084800E000BF0748036804
:40024000002B00D110BD064B002BFBD09847F9E7000000004C010020780A0000C00000200000000010B50C4C6388238000F04EFB80B22388C01A80B2084B1880084B9842FB
:4002800002D91A00054B1A80044B188800F0BCFA022000F071FB10BD64010020960100201027000010B562B600F002FB00F054FB014800F08FFBFEE765020000F0B500252A
:4002C000002711E0BB00C658F3B2FF22964308E06A008A181478A419527822700135013BDBB2002BF4D10137012FEBD9F0BDC0460323044A1360044A13600022034B1A6075
:400300007047C0463000304030003140000E3F4010B50A00002100F0A7FB10BD10B500F077FB03680C2B00D1FEE7FEE770B50F4E0F4D13E029686B68AC68002202E001C968
:4003400001C30432A242FAD1E868002202E0002102C304328242FAD11035013E002EE9D100F05CFBFFF79EFFFEE7C04601000000000B000010B50E4A136801218B4313609D
:4003800000230AE0032B03D89A000A49505800E009489900094A885001332F2BF2D9FFF7B7FE034A116801230B43136010BDC04600001040000000001D030000000000208B
:4003C000024B1B68012018407047C0460C002E401F2318401E3B8340014A13607047C04600E100E001BE704770B504000D001F2802D90020FFF7F6FF1034A40080239B0587
:400400009C4664442068256070BDC04610B5034B1B7B584300F0ECFA10BDC046C4000020F0B557464E46C0B483B0040000F0E9FA0190E71E2D2F74D83F4B1B78DBB29C4207
:4004400008D83E4B1B78DBB29A463D4B1B78DBB2994631E03B4B1B78DBB29C4208D83A4B1B78DBB29A46394B1B78DBB2994623E0374B1B78DBB29C4208D8364B1B78DBB20B
:400480009A46354B1B78DBB2994615E0334B1B78DBB29C4208D8324B1B78DBB29A46314B1B78DBB2994607E02F4B1B78DBB29A462E4B1B78DBB299462D4BDE5D2F2E09D9C9
:4004C0002A2C07D919222B4B1A60052000F090FA192503E0274B1D683F231D40B54206D9234BDA5D234B1A60052000F081FA1F4B9C4664442378DBB21F4A13601F4B524638
:400500001A601F4B4A461A600520FFF77FFFB5420AD2174BDA5D174B1A60052000F068FA02E00020FFF75EFF019800F06EFA03B00CBC91469A46F0BD40F3FF0F41F3FF0FCD
:4005400042F3FF0F43F3FF0F44F3FF0F45F3FF0F46F3FF0F47F3FF0F48F3FF0F49F3FF0F4AF3FF0F4BF3FF0F4CF3FF0F4DF3FF0FAC0A00002CFF0B4028FF0B401CFF0B4011
:4005800020FF0B4010B504000F4A116801230B4313600E4A0E4B1A600E4A1368802109020B431360002809D100200CE00120FFF72DFFFFF705FF002804D1013C002CF5D16F
:4005C000102000E0002010BD60F02E400220000078002E4010002E40034B1868C0231B02184000D00120704700010B4010B50D4B1A6801218A431A601A68022082431A60B5
:40060000094A10683024A043203C204310601068093CA043014311601A68802109060A431A6010BD00F02E4000FF2E4070B51D4B1B6801241C40002802D0012816D02BE0FE
:40064000184B19680122914319601968022081431960154B19682E3081432038014319601968093881430A431A6018E00D4B1A6802218A431A600C4A10680725A84301437C
:400680001160116830208143103801431160196801220A431A6002E00020FFF7A3FE200070BDC04600F02E4000FF2E4010B500F0A8F9044A1368C02109020B43136000F061
:4006C000A4F910BD00010B4010B500F09AF908490A68084B1A408024E40122430A600A6813408022120213430B6000F08EF910BD00010B40FF3FFFFF70B5050000F081F998
:400700000400FFF769FF002803D0FFF7DDFF012100E0002108482840084A1568084B2B40184310601368012901D1FFF7BFFF200000F06BF970BDC0460404040010020B401C
:40074000FBFBFBFF10B5244B1B685B0715D5234B5B685B070ED5224B596A042001401F4C62688A4362605A6A82435A629B69002B00D098470420FFF7BFFF174B1B685B0577
:4007800018D5164B5B685B0510D5154B596A8022D2001140114842688A434260596A114A0A405A62DB69002B00D098478020C000FFF7A2FF084B1B685B030CD5074B5B6826
:4007C0005B0304D5064B1B6A002B00D098478020C002FFF791FF10BD10020B40D80000206C010020FFFBFFFF0004000C014B18607047C046080120400004000C014B1860B5
:400800007047C046140120400004000C014B18607047C0460C01204070B504000D0000F0F0F8AC40024B1C6000F0EFF870BDC0460800204010B500F0E4F8064A11680123D5
:400840000B43136000F0E1F818210120FFF7E4FF10BDC04600002040014B18607047C0463801204010B50D4C8023DB042360236823600020FFF7B8FF236823600C22084BE1
:400880001A600120FFF7E8FF3122064B1A600648FFF7B2FF0548FFF7B7FF10BD000120402401204028012040102700008813000010B5064B1B78002B04D1FFF7D3FF012212
:4008C000024B1A70FFF7B6FF10BDC0469401002010B500F096F8044A116802230B43136000F093F810BDC046000020400004000C014B18607047C046480120400004000C06
:40090000014B18607047C04654012040024B18680004000C7047C0464C012040014B18607047C0467801204010B580229204074B1A604D22064B1A600220FFF7EFFF05488A
:40094000FFF7DCFF0020FFF7D1FF10BD40012040640120401027000010B5064B1B78002B04D1FFF7E1FF0122024B1A70FFF7B0FF10BDC04695010020014B18607047C0462E
:40098000700120408823014AD05070470000002010B5040000F035F8044A1168044B0B40A4051C43146000F030F810BD10E400E0FFFF3FFF8022D202014B1A607047C046C8
:4009C00000E100E08022D202014B1A607047C04680E100E010B50400FFF7F4FF2000FFF7D1FF0320FFF7D4FFFFF7E4FF10BDC0460230800803D00138FDD1C046C046C04626
:400A00007047EFF3108072B6704780F310887047014B18687047C046400100200E4B70B500251E000D4CE41AA410A54204D0AB00F35898470135F8E700F050F8084B0025E1
:400A40001E00084CE41AA410A54204D0AB00F35898470135F8E770BDE80A0000E80A0000E80A0000F00A000003008218934202D019700133FAE770470000000000300F4098
:400A8000000400400F4000040E01110118103E015D01C201C408C608CE01D60160109010D80200000A420F4003430F40030405060708090A0B0C0E0F101112131415161798
:400AC00018191B1C1D1E1F2021222325262728292A2B2E2F3031323334354300F8B5C046F8BC08BC9E4670472D02000075030000F8B5C046F8BC08BC9E467047050200008D
:400B0000100B0000C0000020880000005000000000000000010000000000C05D80BB000030000000006CDC02F0000000040404000000000000000000000000000000000013
:400B400000000000000000000000000000000000DA0A0000000000000000000000000000000000000000000000000000000000000000000000000000000000000000000091
:400B800000000000000000000000000000000000E0000020000000000000000000000000000000000000000000000000000000000000000000000000000000000000000035
:400BC00000000000000000000000000000000000000000000000000000000000000000000000000000000000000000000000000000000000000000000000000000000000F5
:400C000000000000000000000000000000000000000000000000000000000000000000000000000000000000000000000000000000000000000000000000000000000000B4
:400C40000000000000000000000000000000000000000000000000000000000000000000000000000000000000000000000000000000000000000000000000000000000074
:400C80000000000000000000000000000000000000000000000000000000000000000000000000000000000000000000000000000000000000000000000000000000000034
:020000040003F7
:0200000490303A
:020000009B3C27
:0200000490402A
:4000000000000000000000000000000000000000000000000000000000000000000000000000000000000000000000000000000000000000000000000000000000000000C0
:400040000000000000000000000000000000000000000000000000000000000000000000000000000000000000000000000000000000000000000000000000000000000080
:0200000490501A
:0C00000000021A1711AA00011A1AACE63F
:0200000490600A
:0100000001FE
:00000001FF