ARM GAS  C:\Users\ORA\AppData\Local\Temp\ccNGuWzK.s 			page 1


   1              		.syntax unified
   2              		.cpu cortex-m0
   3              		.fpu softvfp
   4              		.eabi_attribute 20, 1
   5              		.eabi_attribute 21, 1
   6              		.eabi_attribute 23, 3
   7              		.eabi_attribute 24, 1
   8              		.eabi_attribute 25, 1
   9              		.eabi_attribute 26, 1
  10              		.eabi_attribute 30, 1
  11              		.eabi_attribute 34, 0
  12              		.eabi_attribute 18, 4
  13              		.thumb
  14              		.syntax unified
  15              		.file	"cymetadata.c"
  16              		.text
  17              	.Ltext0:
  18              		.cfi_sections	.debug_frame
  19              		.global	cy_meta_chipprotect
  20              		.global	cy_metadata
  21              		.global	cy_meta_flashprotect
  22              		.section	.cychipprotect,"a",%progbits
  23              		.align	2
  24              		.type	cy_meta_chipprotect, %object
  25              		.size	cy_meta_chipprotect, 1
  26              	cy_meta_chipprotect:
  27 0000 01       		.byte	1
  28              		.section	.cymeta,"a",%progbits
  29              		.align	2
  30              		.type	cy_metadata, %object
  31              		.size	cy_metadata, 12
  32              	cy_metadata:
  33 0000 00       		.byte	0
  34 0001 02       		.byte	2
  35 0002 1A       		.byte	26
  36 0003 17       		.byte	23
  37 0004 11       		.byte	17
  38 0005 AA       		.byte	-86
  39 0006 00       		.byte	0
  40 0007 01       		.byte	1
  41 0008 00       		.byte	0
  42 0009 00       		.byte	0
  43 000a 00       		.byte	0
  44 000b 00       		.byte	0
  45              		.section	.cyflashprotect,"a",%progbits
  46              		.align	2
  47              		.type	cy_meta_flashprotect, %object
  48              		.size	cy_meta_flashprotect, 128
  49              	cy_meta_flashprotect:
  50 0000 00000000 		.space	128
  50      00000000 
  50      00000000 
  50      00000000 
  50      00000000 
  51              		.text
  52              	.Letext0:
  53              		.file 1 "c:\\program files (x86)\\cypress\\psoc creator\\4.2\\psoc creator\\import\\gnu\\arm\\5.4.
ARM GAS  C:\Users\ORA\AppData\Local\Temp\ccNGuWzK.s 			page 2


  54              		.file 2 "c:\\program files (x86)\\cypress\\psoc creator\\4.2\\psoc creator\\import\\gnu\\arm\\5.4.
  55              		.file 3 "Generated_Source\\PSoC4\\cymetadata.c"
