ARM GAS  C:\Users\ORA\AppData\Local\Temp\ccgPtB1c.s 			page 1


   1              		.syntax unified
   2              		.cpu cortex-m0
   3              		.fpu softvfp
   4              		.eabi_attribute 20, 1
   5              		.eabi_attribute 21, 1
   6              		.eabi_attribute 23, 3
   7              		.eabi_attribute 24, 1
   8              		.eabi_attribute 25, 1
   9              		.eabi_attribute 26, 1
  10              		.eabi_attribute 30, 1
  11              		.eabi_attribute 34, 0
  12              		.eabi_attribute 18, 4
  13              		.thumb
  14              		.syntax unified
  15              		.file	"main.c"
  16              		.text
  17              	.Ltext0:
  18              		.cfi_sections	.debug_frame
  19              		.section	.text.main,"ax",%progbits
  20              		.align	2
  21              		.global	main
  22              		.code	16
  23              		.thumb_func
  24              		.type	main, %function
  25              	main:
  26              	.LFB35:
  27              		.file 1 "main.c"
   1:main.c        **** /* ========================================
   2:main.c        ****  *
   3:main.c        ****  * Copyright YOUR COMPANY, THE YEAR
   4:main.c        ****  * All Rights Reserved
   5:main.c        ****  * UNPUBLISHED, LICENSED SOFTWARE.
   6:main.c        ****  *
   7:main.c        ****  * CONFIDENTIAL AND PROPRIETARY INFORMATION
   8:main.c        ****  * WHICH IS THE PROPERTY OF your company.
   9:main.c        ****  *
  10:main.c        ****  * ========================================
  11:main.c        **** */
  12:main.c        **** #include "project.h"
  13:main.c        **** #define BUFF_SIZE 1 
  14:main.c        **** uint16 counter= 0,lastCount =0,diff;
  15:main.c        **** 
  16:main.c        **** 
  17:main.c        **** int main(void)
  18:main.c        **** {
  28              		.loc 1 18 0
  29              		.cfi_startproc
  30              		@ args = 0, pretend = 0, frame = 8
  31              		@ frame_needed = 0, uses_anonymous_args = 0
  32 0000 10B5     		push	{r4, lr}
  33              		.cfi_def_cfa_offset 8
  34              		.cfi_offset 4, -8
  35              		.cfi_offset 14, -4
  36 0002 82B0     		sub	sp, sp, #8
  37              		.cfi_def_cfa_offset 16
  19:main.c        ****     uint8 i2cBuff[2]={0};
  38              		.loc 1 19 0
ARM GAS  C:\Users\ORA\AppData\Local\Temp\ccgPtB1c.s 			page 2


  39 0004 01AC     		add	r4, sp, #4
  40 0006 0023     		movs	r3, #0
  41 0008 2380     		strh	r3, [r4]
  20:main.c        ****     CyGlobalIntEnable; /* Enable global interrupts. */
  42              		.loc 1 20 0
  43              		.syntax divided
  44              	@ 20 "main.c" 1
  45 000a 62B6     		CPSIE   i
  46              	@ 0 "" 2
  21:main.c        ****     LED_RED_PWM_Start();    
  47              		.loc 1 21 0
  48              		.thumb
  49              		.syntax unified
  50 000c FFF7FEFF 		bl	LED_RED_PWM_Start
  51              	.LVL0:
  22:main.c        **** 
  23:main.c        ****     I2C_Start();
  52              		.loc 1 23 0
  53 0010 FFF7FEFF 		bl	I2C_Start
  54              	.LVL1:
  24:main.c        ****     I2C_EzI2CSetBuffer1(BUFF_SIZE,0,i2cBuff);
  55              		.loc 1 24 0
  56 0014 2200     		movs	r2, r4
  57 0016 0021     		movs	r1, #0
  58 0018 0120     		movs	r0, #1
  59 001a FFF7FEFF 		bl	I2C_EzI2CSetBuffer1
  60              	.LVL2:
  61              	.L2:
  25:main.c        ****     
  26:main.c        ****     for (;;){
  27:main.c        ****         i2cBuff[0] = LED_RED_PWM_ReadCounter();
  62              		.loc 1 27 0 discriminator 1
  63 001e FFF7FEFF 		bl	LED_RED_PWM_ReadCounter
  64              	.LVL3:
  65 0022 01AB     		add	r3, sp, #4
  66 0024 1870     		strb	r0, [r3]
  67 0026 FAE7     		b	.L2
  68              		.cfi_endproc
  69              	.LFE35:
  70              		.size	main, .-main
  71              		.comm	diff,2,2
  72              		.global	lastCount
  73              		.global	counter
  74              		.bss
  75              		.align	1
  76              		.type	lastCount, %object
  77              		.size	lastCount, 2
  78              	lastCount:
  79 0000 0000     		.space	2
  80              		.type	counter, %object
  81              		.size	counter, 2
  82              	counter:
  83 0002 0000     		.space	2
  84              		.text
  85              	.Letext0:
  86              		.file 2 "Generated_Source\\PSoC4/cytypes.h"
  87              		.file 3 "Generated_Source\\PSoC4/LED_RED_PWM.h"
ARM GAS  C:\Users\ORA\AppData\Local\Temp\ccgPtB1c.s 			page 3


  88              		.file 4 "Generated_Source\\PSoC4/I2C.h"
  89              		.file 5 "Generated_Source\\PSoC4/I2C_EZI2C.h"
