ARM GAS  C:\Users\ORA\AppData\Local\Temp\cc2Z4T87.s 			page 1


   1              		.syntax unified
   2              		.cpu cortex-m0
   3              		.fpu softvfp
   4              		.eabi_attribute 20, 1
   5              		.eabi_attribute 21, 1
   6              		.eabi_attribute 23, 3
   7              		.eabi_attribute 24, 1
   8              		.eabi_attribute 25, 1
   9              		.eabi_attribute 26, 1
  10              		.eabi_attribute 30, 1
  11              		.eabi_attribute 34, 0
  12              		.eabi_attribute 18, 4
  13              		.thumb
  14              		.syntax unified
  15              		.file	"cyfitter_cfg.c"
  16              		.text
  17              	.Ltext0:
  18              		.cfi_sections	.debug_frame
  19              		.section	.text.cfg_write_bytes32,"ax",%progbits
  20              		.align	2
  21              		.code	16
  22              		.thumb_func
  23              		.type	cfg_write_bytes32, %function
  24              	cfg_write_bytes32:
  25              	.LFB5:
  26              		.file 1 "Generated_Source\\PSoC4\\cyfitter_cfg.c"
   1:Generated_Source\PSoC4/cyfitter_cfg.c **** 
   2:Generated_Source\PSoC4/cyfitter_cfg.c **** /*******************************************************************************
   3:Generated_Source\PSoC4/cyfitter_cfg.c **** * File Name: cyfitter_cfg.c
   4:Generated_Source\PSoC4/cyfitter_cfg.c **** * 
   5:Generated_Source\PSoC4/cyfitter_cfg.c **** * PSoC Creator  4.2
   6:Generated_Source\PSoC4/cyfitter_cfg.c **** *
   7:Generated_Source\PSoC4/cyfitter_cfg.c **** * Description:
   8:Generated_Source\PSoC4/cyfitter_cfg.c **** * This file contains device initialization code.
   9:Generated_Source\PSoC4/cyfitter_cfg.c **** * Except for the user defined sections in CyClockStartupError(), this file should not be modified.
  10:Generated_Source\PSoC4/cyfitter_cfg.c **** * This file is automatically generated by PSoC Creator.
  11:Generated_Source\PSoC4/cyfitter_cfg.c **** *
  12:Generated_Source\PSoC4/cyfitter_cfg.c **** ********************************************************************************
  13:Generated_Source\PSoC4/cyfitter_cfg.c **** * Copyright (c) 2007-2018 Cypress Semiconductor.  All rights reserved.
  14:Generated_Source\PSoC4/cyfitter_cfg.c **** * You may use this file only in accordance with the license, terms, conditions, 
  15:Generated_Source\PSoC4/cyfitter_cfg.c **** * disclaimers, and limitations in the end user license agreement accompanying 
  16:Generated_Source\PSoC4/cyfitter_cfg.c **** * the software package with which this file was provided.
  17:Generated_Source\PSoC4/cyfitter_cfg.c **** ********************************************************************************/
  18:Generated_Source\PSoC4/cyfitter_cfg.c **** 
  19:Generated_Source\PSoC4/cyfitter_cfg.c **** #include <string.h>
  20:Generated_Source\PSoC4/cyfitter_cfg.c **** #include "cytypes.h"
  21:Generated_Source\PSoC4/cyfitter_cfg.c **** #include "cydevice_trm.h"
  22:Generated_Source\PSoC4/cyfitter_cfg.c **** #include "cyfitter.h"
  23:Generated_Source\PSoC4/cyfitter_cfg.c **** #include "CyLib.h"
  24:Generated_Source\PSoC4/cyfitter_cfg.c **** #include "CyLFClk.h"
  25:Generated_Source\PSoC4/cyfitter_cfg.c **** #include "cyfitter_cfg.h"
  26:Generated_Source\PSoC4/cyfitter_cfg.c **** #include "cyapicallbacks.h"
  27:Generated_Source\PSoC4/cyfitter_cfg.c **** 
  28:Generated_Source\PSoC4/cyfitter_cfg.c **** 
  29:Generated_Source\PSoC4/cyfitter_cfg.c **** #if defined(__GNUC__) || defined(__ARMCC_VERSION)
  30:Generated_Source\PSoC4/cyfitter_cfg.c ****     #define CYPACKED 
  31:Generated_Source\PSoC4/cyfitter_cfg.c ****     #define CYPACKED_ATTR __attribute__ ((packed))
ARM GAS  C:\Users\ORA\AppData\Local\Temp\cc2Z4T87.s 			page 2


  32:Generated_Source\PSoC4/cyfitter_cfg.c ****     #define CYALIGNED __attribute__ ((aligned))
  33:Generated_Source\PSoC4/cyfitter_cfg.c ****     #define CY_CFG_UNUSED __attribute__ ((unused))
  34:Generated_Source\PSoC4/cyfitter_cfg.c ****     #ifndef CY_CFG_SECTION
  35:Generated_Source\PSoC4/cyfitter_cfg.c ****         #define CY_CFG_SECTION __attribute__ ((section(".psocinit")))
  36:Generated_Source\PSoC4/cyfitter_cfg.c ****     #endif
  37:Generated_Source\PSoC4/cyfitter_cfg.c ****     
  38:Generated_Source\PSoC4/cyfitter_cfg.c ****     #if defined(__ARMCC_VERSION)
  39:Generated_Source\PSoC4/cyfitter_cfg.c ****         #define CY_CFG_MEMORY_BARRIER() __memory_changed()
  40:Generated_Source\PSoC4/cyfitter_cfg.c ****     #else
  41:Generated_Source\PSoC4/cyfitter_cfg.c ****         #define CY_CFG_MEMORY_BARRIER() __sync_synchronize()
  42:Generated_Source\PSoC4/cyfitter_cfg.c ****     #endif
  43:Generated_Source\PSoC4/cyfitter_cfg.c ****     
  44:Generated_Source\PSoC4/cyfitter_cfg.c **** #elif defined(__ICCARM__)
  45:Generated_Source\PSoC4/cyfitter_cfg.c ****     #include <intrinsics.h>
  46:Generated_Source\PSoC4/cyfitter_cfg.c **** 
  47:Generated_Source\PSoC4/cyfitter_cfg.c ****     #define CYPACKED __packed
  48:Generated_Source\PSoC4/cyfitter_cfg.c ****     #define CYPACKED_ATTR 
  49:Generated_Source\PSoC4/cyfitter_cfg.c ****     #define CYALIGNED _Pragma("data_alignment=4")
  50:Generated_Source\PSoC4/cyfitter_cfg.c ****     #define CY_CFG_UNUSED _Pragma("diag_suppress=Pe177")
  51:Generated_Source\PSoC4/cyfitter_cfg.c ****     #define CY_CFG_SECTION _Pragma("location=\".psocinit\"")
  52:Generated_Source\PSoC4/cyfitter_cfg.c ****     
  53:Generated_Source\PSoC4/cyfitter_cfg.c ****     #define CY_CFG_MEMORY_BARRIER() __DMB()
  54:Generated_Source\PSoC4/cyfitter_cfg.c ****     
  55:Generated_Source\PSoC4/cyfitter_cfg.c **** #else
  56:Generated_Source\PSoC4/cyfitter_cfg.c ****     #error Unsupported toolchain
  57:Generated_Source\PSoC4/cyfitter_cfg.c **** #endif
  58:Generated_Source\PSoC4/cyfitter_cfg.c **** 
  59:Generated_Source\PSoC4/cyfitter_cfg.c **** #ifndef CYCODE
  60:Generated_Source\PSoC4/cyfitter_cfg.c ****     #define CYCODE
  61:Generated_Source\PSoC4/cyfitter_cfg.c **** #endif
  62:Generated_Source\PSoC4/cyfitter_cfg.c **** #ifndef CYDATA
  63:Generated_Source\PSoC4/cyfitter_cfg.c ****     #define CYDATA
  64:Generated_Source\PSoC4/cyfitter_cfg.c **** #endif
  65:Generated_Source\PSoC4/cyfitter_cfg.c **** #ifndef CYFAR
  66:Generated_Source\PSoC4/cyfitter_cfg.c ****     #define CYFAR
  67:Generated_Source\PSoC4/cyfitter_cfg.c **** #endif
  68:Generated_Source\PSoC4/cyfitter_cfg.c **** #ifndef CYXDATA
  69:Generated_Source\PSoC4/cyfitter_cfg.c ****     #define CYXDATA
  70:Generated_Source\PSoC4/cyfitter_cfg.c **** #endif
  71:Generated_Source\PSoC4/cyfitter_cfg.c **** 
  72:Generated_Source\PSoC4/cyfitter_cfg.c **** 
  73:Generated_Source\PSoC4/cyfitter_cfg.c **** CY_CFG_UNUSED
  74:Generated_Source\PSoC4/cyfitter_cfg.c **** static void CYMEMZERO(void *s, size_t n);
  75:Generated_Source\PSoC4/cyfitter_cfg.c **** CY_CFG_UNUSED
  76:Generated_Source\PSoC4/cyfitter_cfg.c **** static void CYMEMZERO(void *s, size_t n)
  77:Generated_Source\PSoC4/cyfitter_cfg.c **** {
  78:Generated_Source\PSoC4/cyfitter_cfg.c **** 	(void)memset(s, 0, n);
  79:Generated_Source\PSoC4/cyfitter_cfg.c **** }
  80:Generated_Source\PSoC4/cyfitter_cfg.c **** CY_CFG_UNUSED
  81:Generated_Source\PSoC4/cyfitter_cfg.c **** static void CYCONFIGCPY(void *dest, const void *src, size_t n);
  82:Generated_Source\PSoC4/cyfitter_cfg.c **** CY_CFG_UNUSED
  83:Generated_Source\PSoC4/cyfitter_cfg.c **** static void CYCONFIGCPY(void *dest, const void *src, size_t n)
  84:Generated_Source\PSoC4/cyfitter_cfg.c **** {
  85:Generated_Source\PSoC4/cyfitter_cfg.c **** 	(void)memcpy(dest, src, n);
  86:Generated_Source\PSoC4/cyfitter_cfg.c **** }
  87:Generated_Source\PSoC4/cyfitter_cfg.c **** CY_CFG_UNUSED
  88:Generated_Source\PSoC4/cyfitter_cfg.c **** static void CYCONFIGCPYCODE(void *dest, const void *src, size_t n);
ARM GAS  C:\Users\ORA\AppData\Local\Temp\cc2Z4T87.s 			page 3


  89:Generated_Source\PSoC4/cyfitter_cfg.c **** CY_CFG_UNUSED
  90:Generated_Source\PSoC4/cyfitter_cfg.c **** static void CYCONFIGCPYCODE(void *dest, const void *src, size_t n)
  91:Generated_Source\PSoC4/cyfitter_cfg.c **** {
  92:Generated_Source\PSoC4/cyfitter_cfg.c **** 	(void)memcpy(dest, src, n);
  93:Generated_Source\PSoC4/cyfitter_cfg.c **** }
  94:Generated_Source\PSoC4/cyfitter_cfg.c **** 
  95:Generated_Source\PSoC4/cyfitter_cfg.c **** 
  96:Generated_Source\PSoC4/cyfitter_cfg.c **** 
  97:Generated_Source\PSoC4/cyfitter_cfg.c **** 
  98:Generated_Source\PSoC4/cyfitter_cfg.c **** /* Clock startup error codes                                                   */
  99:Generated_Source\PSoC4/cyfitter_cfg.c **** #define CYCLOCKSTART_NO_ERROR    0u
 100:Generated_Source\PSoC4/cyfitter_cfg.c **** #define CYCLOCKSTART_XTAL_ERROR  1u
 101:Generated_Source\PSoC4/cyfitter_cfg.c **** #define CYCLOCKSTART_32KHZ_ERROR 2u
 102:Generated_Source\PSoC4/cyfitter_cfg.c **** #define CYCLOCKSTART_PLL_ERROR   3u
 103:Generated_Source\PSoC4/cyfitter_cfg.c **** #define CYCLOCKSTART_FLL_ERROR   4u
 104:Generated_Source\PSoC4/cyfitter_cfg.c **** #define CYCLOCKSTART_WCO_ERROR   5u
 105:Generated_Source\PSoC4/cyfitter_cfg.c **** 
 106:Generated_Source\PSoC4/cyfitter_cfg.c **** 
 107:Generated_Source\PSoC4/cyfitter_cfg.c **** #ifdef CY_NEED_CYCLOCKSTARTUPERROR
 108:Generated_Source\PSoC4/cyfitter_cfg.c **** /*******************************************************************************
 109:Generated_Source\PSoC4/cyfitter_cfg.c **** * Function Name: CyClockStartupError
 110:Generated_Source\PSoC4/cyfitter_cfg.c **** ********************************************************************************
 111:Generated_Source\PSoC4/cyfitter_cfg.c **** * Summary:
 112:Generated_Source\PSoC4/cyfitter_cfg.c **** *  If an error is encountered during clock configuration (crystal startup error,
 113:Generated_Source\PSoC4/cyfitter_cfg.c **** *  PLL lock error, etc.), the system will end up here.  Unless reimplemented by
 114:Generated_Source\PSoC4/cyfitter_cfg.c **** *  the customer, this function will stop in an infinite loop.
 115:Generated_Source\PSoC4/cyfitter_cfg.c **** *
 116:Generated_Source\PSoC4/cyfitter_cfg.c **** * Parameters:
 117:Generated_Source\PSoC4/cyfitter_cfg.c **** *   void
 118:Generated_Source\PSoC4/cyfitter_cfg.c **** *
 119:Generated_Source\PSoC4/cyfitter_cfg.c **** * Return:
 120:Generated_Source\PSoC4/cyfitter_cfg.c **** *   void
 121:Generated_Source\PSoC4/cyfitter_cfg.c **** *
 122:Generated_Source\PSoC4/cyfitter_cfg.c **** *******************************************************************************/
 123:Generated_Source\PSoC4/cyfitter_cfg.c **** CY_CFG_UNUSED
 124:Generated_Source\PSoC4/cyfitter_cfg.c **** static void CyClockStartupError(uint8 errorCode);
 125:Generated_Source\PSoC4/cyfitter_cfg.c **** CY_CFG_UNUSED
 126:Generated_Source\PSoC4/cyfitter_cfg.c **** static void CyClockStartupError(uint8 errorCode)
 127:Generated_Source\PSoC4/cyfitter_cfg.c **** {
 128:Generated_Source\PSoC4/cyfitter_cfg.c ****     /* To remove the compiler warning if errorCode not used.                */
 129:Generated_Source\PSoC4/cyfitter_cfg.c ****     errorCode = errorCode;
 130:Generated_Source\PSoC4/cyfitter_cfg.c **** 
 131:Generated_Source\PSoC4/cyfitter_cfg.c ****     /* If we have a clock startup error (bad MHz crystal, PLL lock, etc.),  */
 132:Generated_Source\PSoC4/cyfitter_cfg.c ****     /* we will end up here to allow the customer to implement something to  */
 133:Generated_Source\PSoC4/cyfitter_cfg.c ****     /* deal with the clock condition.                                       */
 134:Generated_Source\PSoC4/cyfitter_cfg.c **** 
 135:Generated_Source\PSoC4/cyfitter_cfg.c **** #ifdef CY_CFG_CLOCK_STARTUP_ERROR_CALLBACK
 136:Generated_Source\PSoC4/cyfitter_cfg.c ****     CY_CFG_Clock_Startup_ErrorCallback();
 137:Generated_Source\PSoC4/cyfitter_cfg.c **** #else
 138:Generated_Source\PSoC4/cyfitter_cfg.c ****     /*  If not using CY_CFG_CLOCK_STARTUP_ERROR_CALLBACK, place your clock startup code here. */
 139:Generated_Source\PSoC4/cyfitter_cfg.c ****     /* `#START CyClockStartupError` */
 140:Generated_Source\PSoC4/cyfitter_cfg.c **** 
 141:Generated_Source\PSoC4/cyfitter_cfg.c **** 
 142:Generated_Source\PSoC4/cyfitter_cfg.c **** 
 143:Generated_Source\PSoC4/cyfitter_cfg.c ****     /* `#END` */
 144:Generated_Source\PSoC4/cyfitter_cfg.c **** 
 145:Generated_Source\PSoC4/cyfitter_cfg.c ****     while(1) {}
ARM GAS  C:\Users\ORA\AppData\Local\Temp\cc2Z4T87.s 			page 4


 146:Generated_Source\PSoC4/cyfitter_cfg.c **** #endif /* CY_CFG_CLOCK_STARTUP_ERROR_CALLBACK */
 147:Generated_Source\PSoC4/cyfitter_cfg.c **** }
 148:Generated_Source\PSoC4/cyfitter_cfg.c **** #endif
 149:Generated_Source\PSoC4/cyfitter_cfg.c **** 
 150:Generated_Source\PSoC4/cyfitter_cfg.c **** #define CY_CFG_BASE_ADDR_COUNT 6u
 151:Generated_Source\PSoC4/cyfitter_cfg.c **** CYPACKED typedef struct
 152:Generated_Source\PSoC4/cyfitter_cfg.c **** {
 153:Generated_Source\PSoC4/cyfitter_cfg.c **** 	uint8 offset;
 154:Generated_Source\PSoC4/cyfitter_cfg.c **** 	uint8 value;
 155:Generated_Source\PSoC4/cyfitter_cfg.c **** } CYPACKED_ATTR cy_cfg_addrvalue_t;
 156:Generated_Source\PSoC4/cyfitter_cfg.c **** 
 157:Generated_Source\PSoC4/cyfitter_cfg.c **** 
 158:Generated_Source\PSoC4/cyfitter_cfg.c **** 
 159:Generated_Source\PSoC4/cyfitter_cfg.c **** /*******************************************************************************
 160:Generated_Source\PSoC4/cyfitter_cfg.c **** * Function Name: cfg_write_bytes32
 161:Generated_Source\PSoC4/cyfitter_cfg.c **** ********************************************************************************
 162:Generated_Source\PSoC4/cyfitter_cfg.c **** * Summary:
 163:Generated_Source\PSoC4/cyfitter_cfg.c **** *  This function is used for setting up the chip configuration areas that
 164:Generated_Source\PSoC4/cyfitter_cfg.c **** *  contain relatively sparse data.
 165:Generated_Source\PSoC4/cyfitter_cfg.c **** *
 166:Generated_Source\PSoC4/cyfitter_cfg.c **** * Parameters:
 167:Generated_Source\PSoC4/cyfitter_cfg.c **** *   void
 168:Generated_Source\PSoC4/cyfitter_cfg.c **** *
 169:Generated_Source\PSoC4/cyfitter_cfg.c **** * Return:
 170:Generated_Source\PSoC4/cyfitter_cfg.c **** *   void
 171:Generated_Source\PSoC4/cyfitter_cfg.c **** *
 172:Generated_Source\PSoC4/cyfitter_cfg.c **** *******************************************************************************/
 173:Generated_Source\PSoC4/cyfitter_cfg.c **** static void cfg_write_bytes32(const uint32 addr_table[], const cy_cfg_addrvalue_t data_table[]);
 174:Generated_Source\PSoC4/cyfitter_cfg.c **** static void cfg_write_bytes32(const uint32 addr_table[], const cy_cfg_addrvalue_t data_table[])
 175:Generated_Source\PSoC4/cyfitter_cfg.c **** {
  27              		.loc 1 175 0
  28              		.cfi_startproc
  29              		@ args = 0, pretend = 0, frame = 0
  30              		@ frame_needed = 0, uses_anonymous_args = 0
  31              	.LVL0:
  32 0000 F0B5     		push	{r4, r5, r6, r7, lr}
  33              		.cfi_def_cfa_offset 20
  34              		.cfi_offset 4, -20
  35              		.cfi_offset 5, -16
  36              		.cfi_offset 6, -12
  37              		.cfi_offset 7, -8
  38              		.cfi_offset 14, -4
  39              	.LVL1:
 176:Generated_Source\PSoC4/cyfitter_cfg.c **** 	/* For 32-bit little-endian architectures */
 177:Generated_Source\PSoC4/cyfitter_cfg.c **** 	uint32 i, j = 0u;
  40              		.loc 1 177 0
  41 0002 0025     		movs	r5, #0
 178:Generated_Source\PSoC4/cyfitter_cfg.c **** 	for (i = 0u; i < CY_CFG_BASE_ADDR_COUNT; i++)
  42              		.loc 1 178 0
  43 0004 0027     		movs	r7, #0
  44 0006 11E0     		b	.L2
  45              	.LVL2:
  46              	.L5:
  47              	.LBB2:
 179:Generated_Source\PSoC4/cyfitter_cfg.c **** 	{
 180:Generated_Source\PSoC4/cyfitter_cfg.c **** 		uint32 baseAddr = addr_table[i];
  48              		.loc 1 180 0
ARM GAS  C:\Users\ORA\AppData\Local\Temp\cc2Z4T87.s 			page 5


  49 0008 BB00     		lsls	r3, r7, #2
  50 000a C658     		ldr	r6, [r0, r3]
  51              	.LVL3:
 181:Generated_Source\PSoC4/cyfitter_cfg.c **** 		uint8 count = (uint8)baseAddr;
  52              		.loc 1 181 0
  53 000c F3B2     		uxtb	r3, r6
  54              	.LVL4:
 182:Generated_Source\PSoC4/cyfitter_cfg.c **** 		baseAddr &= 0xFFFFFF00u;
  55              		.loc 1 182 0
  56 000e FF22     		movs	r2, #255
  57 0010 9643     		bics	r6, r2
  58              	.LVL5:
 183:Generated_Source\PSoC4/cyfitter_cfg.c **** 		while (count != 0u)
  59              		.loc 1 183 0
  60 0012 08E0     		b	.L3
  61              	.L4:
 184:Generated_Source\PSoC4/cyfitter_cfg.c **** 		{
 185:Generated_Source\PSoC4/cyfitter_cfg.c **** 			CY_SET_REG8((void *)(baseAddr + data_table[j].offset), data_table[j].value);
  62              		.loc 1 185 0
  63 0014 6A00     		lsls	r2, r5, #1
  64 0016 8A18     		adds	r2, r1, r2
  65 0018 1478     		ldrb	r4, [r2]
  66 001a A419     		adds	r4, r4, r6
  67 001c 5278     		ldrb	r2, [r2, #1]
  68 001e 2270     		strb	r2, [r4]
 186:Generated_Source\PSoC4/cyfitter_cfg.c **** 			j++;
  69              		.loc 1 186 0
  70 0020 0135     		adds	r5, r5, #1
  71              	.LVL6:
 187:Generated_Source\PSoC4/cyfitter_cfg.c **** 			count--;
  72              		.loc 1 187 0
  73 0022 013B     		subs	r3, r3, #1
  74              	.LVL7:
  75 0024 DBB2     		uxtb	r3, r3
  76              	.LVL8:
  77              	.L3:
 183:Generated_Source\PSoC4/cyfitter_cfg.c **** 		{
  78              		.loc 1 183 0
  79 0026 002B     		cmp	r3, #0
  80 0028 F4D1     		bne	.L4
  81              	.LBE2:
 178:Generated_Source\PSoC4/cyfitter_cfg.c **** 	{
  82              		.loc 1 178 0 discriminator 2
  83 002a 0137     		adds	r7, r7, #1
  84              	.LVL9:
  85              	.L2:
 178:Generated_Source\PSoC4/cyfitter_cfg.c **** 	{
  86              		.loc 1 178 0 is_stmt 0 discriminator 1
  87 002c 052F     		cmp	r7, #5
  88 002e EBD9     		bls	.L5
 188:Generated_Source\PSoC4/cyfitter_cfg.c **** 		}
 189:Generated_Source\PSoC4/cyfitter_cfg.c **** 	}
 190:Generated_Source\PSoC4/cyfitter_cfg.c **** }
  89              		.loc 1 190 0 is_stmt 1
  90              		@ sp needed
  91              	.LVL10:
  92              	.LVL11:
ARM GAS  C:\Users\ORA\AppData\Local\Temp\cc2Z4T87.s 			page 6


  93 0030 F0BD     		pop	{r4, r5, r6, r7, pc}
  94              		.cfi_endproc
  95              	.LFE5:
  96              		.size	cfg_write_bytes32, .-cfg_write_bytes32
  97 0032 C046     		.section	.text.CYMEMZERO,"ax",%progbits
  98              		.align	2
  99              		.code	16
 100              		.thumb_func
 101              		.type	CYMEMZERO, %function
 102              	CYMEMZERO:
 103              	.LFB2:
  77:Generated_Source\PSoC4/cyfitter_cfg.c **** 	(void)memset(s, 0, n);
 104              		.loc 1 77 0
 105              		.cfi_startproc
 106              		@ args = 0, pretend = 0, frame = 0
 107              		@ frame_needed = 0, uses_anonymous_args = 0
 108              	.LVL12:
 109 0000 10B5     		push	{r4, lr}
 110              		.cfi_def_cfa_offset 8
 111              		.cfi_offset 4, -8
 112              		.cfi_offset 14, -4
 113 0002 0A00     		movs	r2, r1
  78:Generated_Source\PSoC4/cyfitter_cfg.c **** }
 114              		.loc 1 78 0
 115 0004 0021     		movs	r1, #0
 116              	.LVL13:
 117 0006 FFF7FEFF 		bl	memset
 118              	.LVL14:
  79:Generated_Source\PSoC4/cyfitter_cfg.c **** CY_CFG_UNUSED
 119              		.loc 1 79 0
 120              		@ sp needed
 121 000a 10BD     		pop	{r4, pc}
 122              		.cfi_endproc
 123              	.LFE2:
 124              		.size	CYMEMZERO, .-CYMEMZERO
 125              		.section	.psocinit,"ax",%progbits
 126              		.align	2
 127              		.code	16
 128              		.thumb_func
 129              		.type	ClockSetup, %function
 130              	ClockSetup:
 131              	.LFB6:
 191:Generated_Source\PSoC4/cyfitter_cfg.c **** 
 192:Generated_Source\PSoC4/cyfitter_cfg.c **** 
 193:Generated_Source\PSoC4/cyfitter_cfg.c **** /*******************************************************************************
 194:Generated_Source\PSoC4/cyfitter_cfg.c **** * Function Name: ClockSetup
 195:Generated_Source\PSoC4/cyfitter_cfg.c **** ********************************************************************************
 196:Generated_Source\PSoC4/cyfitter_cfg.c **** *
 197:Generated_Source\PSoC4/cyfitter_cfg.c **** * Summary:
 198:Generated_Source\PSoC4/cyfitter_cfg.c **** *   Performs the initialization of all of the clocks in the device based on the
 199:Generated_Source\PSoC4/cyfitter_cfg.c **** *   settings in the Clock tab of the DWR.  This includes enabling the requested
 200:Generated_Source\PSoC4/cyfitter_cfg.c **** *   clocks and setting the necessary dividers to produce the desired frequency. 
 201:Generated_Source\PSoC4/cyfitter_cfg.c **** *
 202:Generated_Source\PSoC4/cyfitter_cfg.c **** * Parameters:
 203:Generated_Source\PSoC4/cyfitter_cfg.c **** *   void
 204:Generated_Source\PSoC4/cyfitter_cfg.c **** *
 205:Generated_Source\PSoC4/cyfitter_cfg.c **** * Return:
ARM GAS  C:\Users\ORA\AppData\Local\Temp\cc2Z4T87.s 			page 7


 206:Generated_Source\PSoC4/cyfitter_cfg.c **** *   void
 207:Generated_Source\PSoC4/cyfitter_cfg.c **** *
 208:Generated_Source\PSoC4/cyfitter_cfg.c **** *******************************************************************************/
 209:Generated_Source\PSoC4/cyfitter_cfg.c **** static void ClockSetup(void);
 210:Generated_Source\PSoC4/cyfitter_cfg.c **** CY_CFG_SECTION
 211:Generated_Source\PSoC4/cyfitter_cfg.c **** static void ClockSetup(void)
 212:Generated_Source\PSoC4/cyfitter_cfg.c **** {
 132              		.loc 1 212 0
 133              		.cfi_startproc
 134              		@ args = 0, pretend = 0, frame = 0
 135              		@ frame_needed = 0, uses_anonymous_args = 0
 136 0000 70B5     		push	{r4, r5, r6, lr}
 137              		.cfi_def_cfa_offset 16
 138              		.cfi_offset 4, -16
 139              		.cfi_offset 5, -12
 140              		.cfi_offset 6, -8
 141              		.cfi_offset 14, -4
 213:Generated_Source\PSoC4/cyfitter_cfg.c **** 
 214:Generated_Source\PSoC4/cyfitter_cfg.c **** 	/* Set Flash Cycles based on max possible frequency in case a glitch occurs during ClockSetup(). *
 215:Generated_Source\PSoC4/cyfitter_cfg.c **** 	CY_SET_REG32((void CYXDATA *)(CYREG_CPUSS_FLASH_CTL), (0x0012u));
 142              		.loc 1 215 0
 143 0002 1222     		movs	r2, #18
 144 0004 2F4B     		ldr	r3, .L8
 145 0006 1A60     		str	r2, [r3]
 216:Generated_Source\PSoC4/cyfitter_cfg.c **** 
 217:Generated_Source\PSoC4/cyfitter_cfg.c **** 	/* Start the WCO */
 218:Generated_Source\PSoC4/cyfitter_cfg.c **** 	CySysClkWcoStart();
 146              		.loc 1 218 0
 147 0008 FFF7FEFF 		bl	CySysClkWcoStart
 148              	.LVL15:
 219:Generated_Source\PSoC4/cyfitter_cfg.c **** 	CyDelayCycles(12000000u); /* WCO may take up to 500ms to start */
 149              		.loc 1 219 0
 150 000c 2E48     		ldr	r0, .L8+4
 151 000e FFF7FEFF 		bl	CyDelayCycles
 152              	.LVL16:
 220:Generated_Source\PSoC4/cyfitter_cfg.c **** 	(void)CySysClkWcoSetPowerMode(CY_SYS_CLK_WCO_LPM);    /* Switch to the low power mode */
 153              		.loc 1 220 0
 154 0012 0120     		movs	r0, #1
 155 0014 FFF7FEFF 		bl	CySysClkWcoSetPowerMode
 156              	.LVL17:
 221:Generated_Source\PSoC4/cyfitter_cfg.c **** 
 222:Generated_Source\PSoC4/cyfitter_cfg.c **** 	/* Setup and trim IMO based on desired frequency. */
 223:Generated_Source\PSoC4/cyfitter_cfg.c **** 	CySysClkWriteImoFreq(48u);
 157              		.loc 1 223 0
 158 0018 3020     		movs	r0, #48
 159 001a FFF7FEFF 		bl	CySysClkWriteImoFreq
 160              	.LVL18:
 224:Generated_Source\PSoC4/cyfitter_cfg.c **** 	/* CYDEV_CLK_ILO_CONFIG Starting address: CYDEV_CLK_ILO_CONFIG */
 225:Generated_Source\PSoC4/cyfitter_cfg.c **** 	CY_SET_REG32((void *)(CYREG_CLK_ILO_CONFIG), 0x80000006u);
 161              		.loc 1 225 0
 162 001e 2B4A     		ldr	r2, .L8+8
 163 0020 2B4B     		ldr	r3, .L8+12
 164 0022 1A60     		str	r2, [r3]
 226:Generated_Source\PSoC4/cyfitter_cfg.c **** 
 227:Generated_Source\PSoC4/cyfitter_cfg.c **** 	/* CYDEV_WDT_CONFIG Starting address: CYDEV_WDT_CONFIG */
 228:Generated_Source\PSoC4/cyfitter_cfg.c **** 	CY_SET_REG32((void *)(CYREG_WDT_CONFIG), 0x40000000u);
 165              		.loc 1 228 0
ARM GAS  C:\Users\ORA\AppData\Local\Temp\cc2Z4T87.s 			page 8


 166 0024 2B4C     		ldr	r4, .L8+16
 167 0026 8025     		movs	r5, #128
 168 0028 ED05     		lsls	r5, r5, #23
 169 002a 2560     		str	r5, [r4]
 229:Generated_Source\PSoC4/cyfitter_cfg.c **** 
 230:Generated_Source\PSoC4/cyfitter_cfg.c **** 
 231:Generated_Source\PSoC4/cyfitter_cfg.c **** 	/* Enable fast start mode for XO */
 232:Generated_Source\PSoC4/cyfitter_cfg.c **** 	CY_SET_REG32((void*)CYREG_BLE_BLERD_BB_XO, CY_GET_REG32((void*)CYREG_BLE_BLERD_BB_XO) | (uint32)0x
 170              		.loc 1 232 0
 171 002c 2A4A     		ldr	r2, .L8+20
 172 002e 1168     		ldr	r1, [r2]
 173 0030 0223     		movs	r3, #2
 174 0032 0B43     		orrs	r3, r1
 175 0034 1360     		str	r3, [r2]
 233:Generated_Source\PSoC4/cyfitter_cfg.c **** 	CY_SET_REG32((void *)(CYREG_BLE_BLERD_BB_XO_CAPTRIM), 0x00003E2Du);
 176              		.loc 1 233 0
 177 0036 294A     		ldr	r2, .L8+24
 178 0038 294B     		ldr	r3, .L8+28
 179 003a 1A60     		str	r2, [r3]
 234:Generated_Source\PSoC4/cyfitter_cfg.c **** 	/*Set XTAL(ECO) divider*/
 235:Generated_Source\PSoC4/cyfitter_cfg.c **** 	CY_SET_REG32((void *)(CYREG_BLE_BLESS_XTAL_CLK_DIV_CONFIG), 0x00000000u);
 180              		.loc 1 235 0
 181 003c 0022     		movs	r2, #0
 182 003e 294B     		ldr	r3, .L8+32
 183 0040 1A60     		str	r2, [r3]
 236:Generated_Source\PSoC4/cyfitter_cfg.c **** 	/* Disable Crystal Stable Interrupt before enabling ECO */
 237:Generated_Source\PSoC4/cyfitter_cfg.c **** 	CY_SET_REG32((void*)CYREG_BLE_BLESS_LL_DSM_CTRL, CY_GET_REG32((void*)CYREG_BLE_BLESS_LL_DSM_CTRL) 
 184              		.loc 1 237 0
 185 0042 294A     		ldr	r2, .L8+36
 186 0044 1368     		ldr	r3, [r2]
 187 0046 0821     		movs	r1, #8
 188 0048 8B43     		bics	r3, r1
 189 004a 1360     		str	r3, [r2]
 238:Generated_Source\PSoC4/cyfitter_cfg.c **** 	/* Start the ECO and do not check status since it is not needed for HFCLK */
 239:Generated_Source\PSoC4/cyfitter_cfg.c **** 	(void)CySysClkEcoStart(2000u);
 190              		.loc 1 239 0
 191 004c FA20     		movs	r0, #250
 192 004e C000     		lsls	r0, r0, #3
 193 0050 FFF7FEFF 		bl	CySysClkEcoStart
 194              	.LVL19:
 240:Generated_Source\PSoC4/cyfitter_cfg.c **** 	CyDelayUs(1500u); /* Wait to stabilize */
 195              		.loc 1 240 0
 196 0054 2548     		ldr	r0, .L8+40
 197 0056 FFF7FEFF 		bl	CyDelayUs
 198              	.LVL20:
 241:Generated_Source\PSoC4/cyfitter_cfg.c **** 
 242:Generated_Source\PSoC4/cyfitter_cfg.c **** 	/* Setup phase aligned clocks */
 243:Generated_Source\PSoC4/cyfitter_cfg.c **** 	CY_SET_REG32((void *)CYREG_PERI_DIV_16_CTL2, 0x00000300u);
 199              		.loc 1 243 0
 200 005a C022     		movs	r2, #192
 201 005c 9200     		lsls	r2, r2, #2
 202 005e 244B     		ldr	r3, .L8+44
 203 0060 1A60     		str	r2, [r3]
 244:Generated_Source\PSoC4/cyfitter_cfg.c **** 	CY_SET_REG32((void *)CYREG_PERI_DIV_CMD, 0x8000FF42u);
 204              		.loc 1 244 0
 205 0062 244B     		ldr	r3, .L8+48
 206 0064 244A     		ldr	r2, .L8+52
ARM GAS  C:\Users\ORA\AppData\Local\Temp\cc2Z4T87.s 			page 9


 207 0066 1A60     		str	r2, [r3]
 245:Generated_Source\PSoC4/cyfitter_cfg.c **** 	CY_SET_REG32((void *)CYREG_PERI_DIV_16_CTL0, 0x0000FE00u);
 208              		.loc 1 245 0
 209 0068 FE22     		movs	r2, #254
 210 006a 1202     		lsls	r2, r2, #8
 211 006c 2349     		ldr	r1, .L8+56
 212 006e 0A60     		str	r2, [r1]
 246:Generated_Source\PSoC4/cyfitter_cfg.c **** 	CY_SET_REG32((void *)CYREG_PERI_DIV_CMD, 0x8000FF40u);
 213              		.loc 1 246 0
 214 0070 2349     		ldr	r1, .L8+60
 215 0072 1960     		str	r1, [r3]
 247:Generated_Source\PSoC4/cyfitter_cfg.c **** 	CY_SET_REG32((void *)CYREG_PERI_DIV_16_CTL1, 0x0000FE00u);
 216              		.loc 1 247 0
 217 0074 2349     		ldr	r1, .L8+64
 218 0076 0A60     		str	r2, [r1]
 248:Generated_Source\PSoC4/cyfitter_cfg.c **** 	CY_SET_REG32((void *)CYREG_PERI_DIV_CMD, 0x8000FF41u);
 219              		.loc 1 248 0
 220 0078 234A     		ldr	r2, .L8+68
 221 007a 1A60     		str	r2, [r3]
 249:Generated_Source\PSoC4/cyfitter_cfg.c **** 	CY_SET_REG32((void *)CYREG_PERI_DIV_16_CTL3, 0x00002200u);
 222              		.loc 1 249 0
 223 007c 8821     		movs	r1, #136
 224 007e 8901     		lsls	r1, r1, #6
 225 0080 224A     		ldr	r2, .L8+72
 226 0082 1160     		str	r1, [r2]
 250:Generated_Source\PSoC4/cyfitter_cfg.c **** 	CY_SET_REG32((void *)CYREG_PERI_DIV_CMD, 0x8000FF43u);
 227              		.loc 1 250 0
 228 0084 224A     		ldr	r2, .L8+76
 229 0086 1A60     		str	r2, [r3]
 251:Generated_Source\PSoC4/cyfitter_cfg.c **** 
 252:Generated_Source\PSoC4/cyfitter_cfg.c **** 	/* CYDEV_CLK_IMO_CONFIG Starting address: CYDEV_CLK_IMO_CONFIG */
 253:Generated_Source\PSoC4/cyfitter_cfg.c **** 	CY_SET_REG32((void *)(CYREG_CLK_IMO_CONFIG), 0x80000000u);
 230              		.loc 1 253 0
 231 0088 8022     		movs	r2, #128
 232 008a 1206     		lsls	r2, r2, #24
 233 008c 214B     		ldr	r3, .L8+80
 234 008e 1A60     		str	r2, [r3]
 254:Generated_Source\PSoC4/cyfitter_cfg.c **** 
 255:Generated_Source\PSoC4/cyfitter_cfg.c **** 	/* CYDEV_CLK_SELECT Starting address: CYDEV_CLK_SELECT */
 256:Generated_Source\PSoC4/cyfitter_cfg.c **** 	CY_SET_REG32((void *)(CYREG_CLK_SELECT), 0x00040000u);
 235              		.loc 1 256 0
 236 0090 8022     		movs	r2, #128
 237 0092 D202     		lsls	r2, r2, #11
 238 0094 204B     		ldr	r3, .L8+84
 239 0096 1A60     		str	r2, [r3]
 257:Generated_Source\PSoC4/cyfitter_cfg.c **** 
 258:Generated_Source\PSoC4/cyfitter_cfg.c **** 	/* CYDEV_PERI_PCLK_CTL7 Starting address: CYDEV_PERI_PCLK_CTL7 */
 259:Generated_Source\PSoC4/cyfitter_cfg.c **** 	CY_SET_REG32((void *)(CYREG_PERI_PCLK_CTL7), 0x00000042u);
 240              		.loc 1 259 0
 241 0098 4222     		movs	r2, #66
 242 009a 204B     		ldr	r3, .L8+88
 243 009c 1A60     		str	r2, [r3]
 260:Generated_Source\PSoC4/cyfitter_cfg.c **** 
 261:Generated_Source\PSoC4/cyfitter_cfg.c **** 	/* CYDEV_PERI_PCLK_CTL5 Starting address: CYDEV_PERI_PCLK_CTL5 */
 262:Generated_Source\PSoC4/cyfitter_cfg.c **** 	CY_SET_REG32((void *)(CYREG_PERI_PCLK_CTL5), 0x00000040u);
 244              		.loc 1 262 0
 245 009e 023A     		subs	r2, r2, #2
ARM GAS  C:\Users\ORA\AppData\Local\Temp\cc2Z4T87.s 			page 10


 246 00a0 1F4B     		ldr	r3, .L8+92
 247 00a2 1A60     		str	r2, [r3]
 263:Generated_Source\PSoC4/cyfitter_cfg.c **** 
 264:Generated_Source\PSoC4/cyfitter_cfg.c **** 	/* CYDEV_PERI_PCLK_CTL4 Starting address: CYDEV_PERI_PCLK_CTL4 */
 265:Generated_Source\PSoC4/cyfitter_cfg.c **** 	CY_SET_REG32((void *)(CYREG_PERI_PCLK_CTL4), 0x00000041u);
 248              		.loc 1 265 0
 249 00a4 0132     		adds	r2, r2, #1
 250 00a6 1F4B     		ldr	r3, .L8+96
 251 00a8 1A60     		str	r2, [r3]
 266:Generated_Source\PSoC4/cyfitter_cfg.c **** 
 267:Generated_Source\PSoC4/cyfitter_cfg.c **** 	/* CYDEV_PERI_PCLK_CTL1 Starting address: CYDEV_PERI_PCLK_CTL1 */
 268:Generated_Source\PSoC4/cyfitter_cfg.c **** 	CY_SET_REG32((void *)(CYREG_PERI_PCLK_CTL1), 0x00000043u);
 252              		.loc 1 268 0
 253 00aa 0232     		adds	r2, r2, #2
 254 00ac 1E4B     		ldr	r3, .L8+100
 255 00ae 1A60     		str	r2, [r3]
 269:Generated_Source\PSoC4/cyfitter_cfg.c **** 
 270:Generated_Source\PSoC4/cyfitter_cfg.c **** 	(void)CyIntSetVector(8u, &CySysWdtIsr);
 256              		.loc 1 270 0
 257 00b0 1E49     		ldr	r1, .L8+104
 258 00b2 0820     		movs	r0, #8
 259 00b4 FFF7FEFF 		bl	CyIntSetVector
 260              	.LVL21:
 271:Generated_Source\PSoC4/cyfitter_cfg.c **** 	CyIntEnable(8u);
 261              		.loc 1 271 0
 262 00b8 0820     		movs	r0, #8
 263 00ba FFF7FEFF 		bl	CyIntEnable
 264              	.LVL22:
 272:Generated_Source\PSoC4/cyfitter_cfg.c **** 	CY_SET_REG32((void *)(CYREG_WDT_CONFIG), 0x40000000u);
 265              		.loc 1 272 0
 266 00be 2560     		str	r5, [r4]
 273:Generated_Source\PSoC4/cyfitter_cfg.c **** }
 267              		.loc 1 273 0
 268              		@ sp needed
 269 00c0 70BD     		pop	{r4, r5, r6, pc}
 270              	.L9:
 271 00c2 C046     		.align	2
 272              	.L8:
 273 00c4 30001040 		.word	1074790448
 274 00c8 001BB700 		.word	12000000
 275 00cc 06000080 		.word	-2147483642
 276 00d0 04010B40 		.word	1074462980
 277 00d4 0C020B40 		.word	1074463244
 278 00d8 78002E40 		.word	1076756600
 279 00dc 2D3E0000 		.word	15917
 280 00e0 7C002E40 		.word	1076756604
 281 00e4 64F02E40 		.word	1076818020
 282 00e8 6CF02E40 		.word	1076818028
 283 00ec DC050000 		.word	1500
 284 00f0 08030140 		.word	1073808136
 285 00f4 00000140 		.word	1073807360
 286 00f8 42FF0080 		.word	-2147418302
 287 00fc 00030140 		.word	1073808128
 288 0100 40FF0080 		.word	-2147418304
 289 0104 04030140 		.word	1073808132
 290 0108 41FF0080 		.word	-2147418303
 291 010c 0C030140 		.word	1073808140
ARM GAS  C:\Users\ORA\AppData\Local\Temp\cc2Z4T87.s 			page 11


 292 0110 43FF0080 		.word	-2147418301
 293 0114 08010B40 		.word	1074462984
 294 0118 00010B40 		.word	1074462976
 295 011c 1C010140 		.word	1073807644
 296 0120 14010140 		.word	1073807636
 297 0124 10010140 		.word	1073807632
 298 0128 04010140 		.word	1073807620
 299 012c 00000000 		.word	CySysWdtIsr
 300              		.cfi_endproc
 301              	.LFE6:
 302              		.size	ClockSetup, .-ClockSetup
 303              		.section	.text.SetAnalogRoutingPumps,"ax",%progbits
 304              		.align	2
 305              		.global	SetAnalogRoutingPumps
 306              		.code	16
 307              		.thumb_func
 308              		.type	SetAnalogRoutingPumps, %function
 309              	SetAnalogRoutingPumps:
 310              	.LFB8:
 274:Generated_Source\PSoC4/cyfitter_cfg.c **** 
 275:Generated_Source\PSoC4/cyfitter_cfg.c **** 
 276:Generated_Source\PSoC4/cyfitter_cfg.c **** /* Analog API Functions */
 277:Generated_Source\PSoC4/cyfitter_cfg.c **** 
 278:Generated_Source\PSoC4/cyfitter_cfg.c **** 
 279:Generated_Source\PSoC4/cyfitter_cfg.c **** /*******************************************************************************
 280:Generated_Source\PSoC4/cyfitter_cfg.c **** * Function Name: AnalogSetDefault
 281:Generated_Source\PSoC4/cyfitter_cfg.c **** ********************************************************************************
 282:Generated_Source\PSoC4/cyfitter_cfg.c **** *
 283:Generated_Source\PSoC4/cyfitter_cfg.c **** * Summary:
 284:Generated_Source\PSoC4/cyfitter_cfg.c **** *  Sets up the analog portions of the chip to default values based on chip
 285:Generated_Source\PSoC4/cyfitter_cfg.c **** *  configuration options from the project.
 286:Generated_Source\PSoC4/cyfitter_cfg.c **** *
 287:Generated_Source\PSoC4/cyfitter_cfg.c **** * Parameters:
 288:Generated_Source\PSoC4/cyfitter_cfg.c **** *  void
 289:Generated_Source\PSoC4/cyfitter_cfg.c **** *
 290:Generated_Source\PSoC4/cyfitter_cfg.c **** * Return:
 291:Generated_Source\PSoC4/cyfitter_cfg.c **** *  void
 292:Generated_Source\PSoC4/cyfitter_cfg.c **** *
 293:Generated_Source\PSoC4/cyfitter_cfg.c **** *******************************************************************************/
 294:Generated_Source\PSoC4/cyfitter_cfg.c **** static void AnalogSetDefault(void);
 295:Generated_Source\PSoC4/cyfitter_cfg.c **** static void AnalogSetDefault(void)
 296:Generated_Source\PSoC4/cyfitter_cfg.c **** {
 297:Generated_Source\PSoC4/cyfitter_cfg.c **** 	CY_SET_XTND_REG32((void CYFAR *)CYREG_CTBM0_DFT_CTRL, 0x00000003u);
 298:Generated_Source\PSoC4/cyfitter_cfg.c **** 	CY_SET_XTND_REG32((void CYFAR *)CYREG_CTBM1_DFT_CTRL, 0x00000003u);
 299:Generated_Source\PSoC4/cyfitter_cfg.c **** 	CY_SET_XTND_REG32((void CYFAR *)CYREG_PASS_DSAB_DSAB_CTRL, 0x00000000u);
 300:Generated_Source\PSoC4/cyfitter_cfg.c **** 	SetAnalogRoutingPumps(1);
 301:Generated_Source\PSoC4/cyfitter_cfg.c **** }
 302:Generated_Source\PSoC4/cyfitter_cfg.c **** 
 303:Generated_Source\PSoC4/cyfitter_cfg.c **** 
 304:Generated_Source\PSoC4/cyfitter_cfg.c **** /*******************************************************************************
 305:Generated_Source\PSoC4/cyfitter_cfg.c **** * Function Name: SetAnalogRoutingPumps
 306:Generated_Source\PSoC4/cyfitter_cfg.c **** ********************************************************************************
 307:Generated_Source\PSoC4/cyfitter_cfg.c **** *
 308:Generated_Source\PSoC4/cyfitter_cfg.c **** * Summary:
 309:Generated_Source\PSoC4/cyfitter_cfg.c **** * Enables or disables the analog pumps feeding analog routing switches.
 310:Generated_Source\PSoC4/cyfitter_cfg.c **** * Intended to be called at startup, based on the Vdda system configuration;
 311:Generated_Source\PSoC4/cyfitter_cfg.c **** * may be called during operation when the user informs us that the Vdda voltage crossed the pump th
ARM GAS  C:\Users\ORA\AppData\Local\Temp\cc2Z4T87.s 			page 12


 312:Generated_Source\PSoC4/cyfitter_cfg.c **** *
 313:Generated_Source\PSoC4/cyfitter_cfg.c **** * Parameters:
 314:Generated_Source\PSoC4/cyfitter_cfg.c **** *  enabled - 1 to enable the pumps, 0 to disable the pumps
 315:Generated_Source\PSoC4/cyfitter_cfg.c **** *
 316:Generated_Source\PSoC4/cyfitter_cfg.c **** * Return:
 317:Generated_Source\PSoC4/cyfitter_cfg.c **** *  void
 318:Generated_Source\PSoC4/cyfitter_cfg.c **** *
 319:Generated_Source\PSoC4/cyfitter_cfg.c **** *******************************************************************************/
 320:Generated_Source\PSoC4/cyfitter_cfg.c **** void SetAnalogRoutingPumps(uint8 enabled)
 321:Generated_Source\PSoC4/cyfitter_cfg.c **** {
 311              		.loc 1 321 0
 312              		.cfi_startproc
 313              		@ args = 0, pretend = 0, frame = 0
 314              		@ frame_needed = 0, uses_anonymous_args = 0
 315              		@ link register save eliminated.
 316              	.LVL23:
 322:Generated_Source\PSoC4/cyfitter_cfg.c **** 	uint32 regValue = CY_GET_XTND_REG32((void *)(CYREG_SAR_PUMP_CTRL));
 317              		.loc 1 322 0
 318 0000 0C4B     		ldr	r3, .L15
 319 0002 1B68     		ldr	r3, [r3]
 320              	.LVL24:
 323:Generated_Source\PSoC4/cyfitter_cfg.c **** 	if (enabled != 0u)
 321              		.loc 1 323 0
 322 0004 0028     		cmp	r0, #0
 323 0006 03D0     		beq	.L11
 324:Generated_Source\PSoC4/cyfitter_cfg.c **** 	{
 325:Generated_Source\PSoC4/cyfitter_cfg.c **** 		regValue |= 0x80000000u;
 324              		.loc 1 325 0
 325 0008 8022     		movs	r2, #128
 326 000a 1206     		lsls	r2, r2, #24
 327 000c 1343     		orrs	r3, r2
 328              	.LVL25:
 329 000e 01E0     		b	.L12
 330              	.L11:
 326:Generated_Source\PSoC4/cyfitter_cfg.c **** 	}
 327:Generated_Source\PSoC4/cyfitter_cfg.c **** 	else
 328:Generated_Source\PSoC4/cyfitter_cfg.c **** 	{
 329:Generated_Source\PSoC4/cyfitter_cfg.c **** 		regValue &= ~0x80000000u;
 331              		.loc 1 329 0
 332 0010 5B00     		lsls	r3, r3, #1
 333              	.LVL26:
 334 0012 5B08     		lsrs	r3, r3, #1
 335              	.LVL27:
 336              	.L12:
 330:Generated_Source\PSoC4/cyfitter_cfg.c **** 	}
 331:Generated_Source\PSoC4/cyfitter_cfg.c **** 	CY_SET_XTND_REG32((void *)(CYREG_SAR_PUMP_CTRL), regValue);
 337              		.loc 1 331 0
 338 0014 074A     		ldr	r2, .L15
 339 0016 1360     		str	r3, [r2]
 332:Generated_Source\PSoC4/cyfitter_cfg.c **** 	regValue = CY_GET_XTND_REG32((void *)(CYREG_CLK_IMO_CONFIG));
 340              		.loc 1 332 0
 341 0018 074B     		ldr	r3, .L15+4
 342              	.LVL28:
 343 001a 1B68     		ldr	r3, [r3]
 344              	.LVL29:
 333:Generated_Source\PSoC4/cyfitter_cfg.c **** 	if (enabled != 0u)
 345              		.loc 1 333 0
ARM GAS  C:\Users\ORA\AppData\Local\Temp\cc2Z4T87.s 			page 13


 346 001c 0028     		cmp	r0, #0
 347 001e 03D0     		beq	.L13
 334:Generated_Source\PSoC4/cyfitter_cfg.c **** 	{
 335:Generated_Source\PSoC4/cyfitter_cfg.c **** 		regValue |= 0x02000000u;
 348              		.loc 1 335 0
 349 0020 8022     		movs	r2, #128
 350 0022 9204     		lsls	r2, r2, #18
 351 0024 1343     		orrs	r3, r2
 352              	.LVL30:
 353 0026 01E0     		b	.L14
 354              	.L13:
 336:Generated_Source\PSoC4/cyfitter_cfg.c **** 	}
 337:Generated_Source\PSoC4/cyfitter_cfg.c **** 	else
 338:Generated_Source\PSoC4/cyfitter_cfg.c **** 	{
 339:Generated_Source\PSoC4/cyfitter_cfg.c **** 		regValue &= ~0x02000000u;
 355              		.loc 1 339 0
 356 0028 044A     		ldr	r2, .L15+8
 357 002a 1340     		ands	r3, r2
 358              	.LVL31:
 359              	.L14:
 340:Generated_Source\PSoC4/cyfitter_cfg.c **** 	}
 341:Generated_Source\PSoC4/cyfitter_cfg.c **** 	CY_SET_XTND_REG32((void *)(CYREG_CLK_IMO_CONFIG), regValue);
 360              		.loc 1 341 0
 361 002c 024A     		ldr	r2, .L15+4
 362 002e 1360     		str	r3, [r2]
 342:Generated_Source\PSoC4/cyfitter_cfg.c **** }
 363              		.loc 1 342 0
 364              		@ sp needed
 365 0030 7047     		bx	lr
 366              	.L16:
 367 0032 C046     		.align	2
 368              	.L15:
 369 0034 80033A40 		.word	1077543808
 370 0038 08010B40 		.word	1074462984
 371 003c FFFFFFFD 		.word	-33554433
 372              		.cfi_endproc
 373              	.LFE8:
 374              		.size	SetAnalogRoutingPumps, .-SetAnalogRoutingPumps
 375              		.section	.text.AnalogSetDefault,"ax",%progbits
 376              		.align	2
 377              		.code	16
 378              		.thumb_func
 379              		.type	AnalogSetDefault, %function
 380              	AnalogSetDefault:
 381              	.LFB7:
 296:Generated_Source\PSoC4/cyfitter_cfg.c **** 	CY_SET_XTND_REG32((void CYFAR *)CYREG_CTBM0_DFT_CTRL, 0x00000003u);
 382              		.loc 1 296 0
 383              		.cfi_startproc
 384              		@ args = 0, pretend = 0, frame = 0
 385              		@ frame_needed = 0, uses_anonymous_args = 0
 386 0000 10B5     		push	{r4, lr}
 387              		.cfi_def_cfa_offset 8
 388              		.cfi_offset 4, -8
 389              		.cfi_offset 14, -4
 297:Generated_Source\PSoC4/cyfitter_cfg.c **** 	CY_SET_XTND_REG32((void CYFAR *)CYREG_CTBM1_DFT_CTRL, 0x00000003u);
 390              		.loc 1 297 0
 391 0002 0323     		movs	r3, #3
ARM GAS  C:\Users\ORA\AppData\Local\Temp\cc2Z4T87.s 			page 14


 392 0004 054A     		ldr	r2, .L18
 393 0006 1360     		str	r3, [r2]
 298:Generated_Source\PSoC4/cyfitter_cfg.c **** 	CY_SET_XTND_REG32((void CYFAR *)CYREG_PASS_DSAB_DSAB_CTRL, 0x00000000u);
 394              		.loc 1 298 0
 395 0008 054A     		ldr	r2, .L18+4
 396 000a 1360     		str	r3, [r2]
 299:Generated_Source\PSoC4/cyfitter_cfg.c **** 	SetAnalogRoutingPumps(1);
 397              		.loc 1 299 0
 398 000c 0022     		movs	r2, #0
 399 000e 054B     		ldr	r3, .L18+8
 400 0010 1A60     		str	r2, [r3]
 300:Generated_Source\PSoC4/cyfitter_cfg.c **** }
 401              		.loc 1 300 0
 402 0012 0120     		movs	r0, #1
 403 0014 FFF7FEFF 		bl	SetAnalogRoutingPumps
 404              	.LVL32:
 301:Generated_Source\PSoC4/cyfitter_cfg.c **** 
 405              		.loc 1 301 0
 406              		@ sp needed
 407 0018 10BD     		pop	{r4, pc}
 408              	.L19:
 409 001a C046     		.align	2
 410              	.L18:
 411 001c 30003040 		.word	1076887600
 412 0020 30003140 		.word	1076953136
 413 0024 000E3F40 		.word	1077874176
 414              		.cfi_endproc
 415              	.LFE7:
 416              		.size	AnalogSetDefault, .-AnalogSetDefault
 417              		.section	.psocinit
 418              		.align	2
 419              		.global	cyfitter_cfg
 420              		.code	16
 421              		.thumb_func
 422              		.type	cyfitter_cfg, %function
 423              	cyfitter_cfg:
 424              	.LFB9:
 343:Generated_Source\PSoC4/cyfitter_cfg.c **** 
 344:Generated_Source\PSoC4/cyfitter_cfg.c **** 
 345:Generated_Source\PSoC4/cyfitter_cfg.c **** 
 346:Generated_Source\PSoC4/cyfitter_cfg.c **** 
 347:Generated_Source\PSoC4/cyfitter_cfg.c **** /*******************************************************************************
 348:Generated_Source\PSoC4/cyfitter_cfg.c **** * Function Name: cyfitter_cfg
 349:Generated_Source\PSoC4/cyfitter_cfg.c **** ********************************************************************************
 350:Generated_Source\PSoC4/cyfitter_cfg.c **** * Summary:
 351:Generated_Source\PSoC4/cyfitter_cfg.c **** *  This function is called by the start-up code for the selected device. It
 352:Generated_Source\PSoC4/cyfitter_cfg.c **** *  performs all of the necessary device configuration based on the design
 353:Generated_Source\PSoC4/cyfitter_cfg.c **** *  settings.  This includes settings from the Design Wide Resources (DWR) such
 354:Generated_Source\PSoC4/cyfitter_cfg.c **** *  as Clocks and Pins as well as any component configuration that is necessary.
 355:Generated_Source\PSoC4/cyfitter_cfg.c **** *
 356:Generated_Source\PSoC4/cyfitter_cfg.c **** * Parameters:
 357:Generated_Source\PSoC4/cyfitter_cfg.c **** *   void
 358:Generated_Source\PSoC4/cyfitter_cfg.c **** *
 359:Generated_Source\PSoC4/cyfitter_cfg.c **** * Return:
 360:Generated_Source\PSoC4/cyfitter_cfg.c **** *   void
 361:Generated_Source\PSoC4/cyfitter_cfg.c **** *
 362:Generated_Source\PSoC4/cyfitter_cfg.c **** *******************************************************************************/
ARM GAS  C:\Users\ORA\AppData\Local\Temp\cc2Z4T87.s 			page 15


 363:Generated_Source\PSoC4/cyfitter_cfg.c **** CY_CFG_SECTION
 364:Generated_Source\PSoC4/cyfitter_cfg.c **** void cyfitter_cfg(void)
 365:Generated_Source\PSoC4/cyfitter_cfg.c **** {
 425              		.loc 1 365 0
 426              		.cfi_startproc
 427              		@ args = 0, pretend = 0, frame = 0
 428              		@ frame_needed = 0, uses_anonymous_args = 0
 429 0130 10B5     		push	{r4, lr}
 430              		.cfi_def_cfa_offset 8
 431              		.cfi_offset 4, -8
 432              		.cfi_offset 14, -4
 366:Generated_Source\PSoC4/cyfitter_cfg.c **** 	/* Disable interrupts by default. Let user enable if/when they want. */
 367:Generated_Source\PSoC4/cyfitter_cfg.c **** 	CyGlobalIntDisable;
 433              		.loc 1 367 0
 434              		.syntax divided
 435              	@ 367 "Generated_Source\PSoC4\cyfitter_cfg.c" 1
 436 0132 72B6     		CPSID   i
 437              	@ 0 "" 2
 368:Generated_Source\PSoC4/cyfitter_cfg.c **** 
 369:Generated_Source\PSoC4/cyfitter_cfg.c **** 	CY_SET_REG32((void *)(CYREG_BLE_BLESS_LL_DSM_CTRL), 0x00000000u);
 438              		.loc 1 369 0
 439              		.thumb
 440              		.syntax unified
 441 0134 0022     		movs	r2, #0
 442 0136 394B     		ldr	r3, .L23
 443 0138 1A60     		str	r2, [r3]
 444              	.LVL33:
 445              	.LBB3:
 370:Generated_Source\PSoC4/cyfitter_cfg.c **** 
 371:Generated_Source\PSoC4/cyfitter_cfg.c **** 	{
 372:Generated_Source\PSoC4/cyfitter_cfg.c **** 		static const uint32 CYCODE cy_cfg_addr_table[] = {
 373:Generated_Source\PSoC4/cyfitter_cfg.c **** 			0x400F3004u, /* Base address: 0x400F3000 Count: 4 */
 374:Generated_Source\PSoC4/cyfitter_cfg.c **** 			0x400F3102u, /* Base address: 0x400F3100 Count: 2 */
 375:Generated_Source\PSoC4/cyfitter_cfg.c **** 			0x400F3302u, /* Base address: 0x400F3300 Count: 2 */
 376:Generated_Source\PSoC4/cyfitter_cfg.c **** 			0x400F4108u, /* Base address: 0x400F4100 Count: 8 */
 377:Generated_Source\PSoC4/cyfitter_cfg.c **** 			0x400F4206u, /* Base address: 0x400F4200 Count: 6 */
 378:Generated_Source\PSoC4/cyfitter_cfg.c **** 			0x400F4303u, /* Base address: 0x400F4300 Count: 3 */
 379:Generated_Source\PSoC4/cyfitter_cfg.c **** 		};
 380:Generated_Source\PSoC4/cyfitter_cfg.c **** 
 381:Generated_Source\PSoC4/cyfitter_cfg.c **** 		static const cy_cfg_addrvalue_t CYCODE cy_cfg_data_table[] = {
 382:Generated_Source\PSoC4/cyfitter_cfg.c **** 			{0x38u, 0x28u},
 383:Generated_Source\PSoC4/cyfitter_cfg.c **** 			{0x3Eu, 0x14u},
 384:Generated_Source\PSoC4/cyfitter_cfg.c **** 			{0x58u, 0x04u},
 385:Generated_Source\PSoC4/cyfitter_cfg.c **** 			{0x5Fu, 0x01u},
 386:Generated_Source\PSoC4/cyfitter_cfg.c **** 			{0x19u, 0x08u},
 387:Generated_Source\PSoC4/cyfitter_cfg.c **** 			{0x1Au, 0x04u},
 388:Generated_Source\PSoC4/cyfitter_cfg.c **** 			{0xADu, 0x08u},
 389:Generated_Source\PSoC4/cyfitter_cfg.c **** 			{0xAEu, 0x04u},
 390:Generated_Source\PSoC4/cyfitter_cfg.c **** 			{0x3Bu, 0x04u},
 391:Generated_Source\PSoC4/cyfitter_cfg.c **** 			{0x3Fu, 0x02u},
 392:Generated_Source\PSoC4/cyfitter_cfg.c **** 			{0x93u, 0x04u},
 393:Generated_Source\PSoC4/cyfitter_cfg.c **** 			{0xA3u, 0x01u},
 394:Generated_Source\PSoC4/cyfitter_cfg.c **** 			{0xAFu, 0x05u},
 395:Generated_Source\PSoC4/cyfitter_cfg.c **** 			{0xCEu, 0xC0u},
 396:Generated_Source\PSoC4/cyfitter_cfg.c **** 			{0xEAu, 0x40u},
 397:Generated_Source\PSoC4/cyfitter_cfg.c **** 			{0xEEu, 0x10u},
 398:Generated_Source\PSoC4/cyfitter_cfg.c **** 			{0x11u, 0x01u},
ARM GAS  C:\Users\ORA\AppData\Local\Temp\cc2Z4T87.s 			page 16


 399:Generated_Source\PSoC4/cyfitter_cfg.c **** 			{0x18u, 0x10u},
 400:Generated_Source\PSoC4/cyfitter_cfg.c **** 			{0x5Du, 0x01u},
 401:Generated_Source\PSoC4/cyfitter_cfg.c **** 			{0xC4u, 0x08u},
 402:Generated_Source\PSoC4/cyfitter_cfg.c **** 			{0xC6u, 0x08u},
 403:Generated_Source\PSoC4/cyfitter_cfg.c **** 			{0xD6u, 0x01u},
 404:Generated_Source\PSoC4/cyfitter_cfg.c **** 			{0x60u, 0x10u},
 405:Generated_Source\PSoC4/cyfitter_cfg.c **** 			{0x90u, 0x10u},
 406:Generated_Source\PSoC4/cyfitter_cfg.c **** 			{0xD8u, 0x02u},
 407:Generated_Source\PSoC4/cyfitter_cfg.c **** 		};
 408:Generated_Source\PSoC4/cyfitter_cfg.c **** 
 409:Generated_Source\PSoC4/cyfitter_cfg.c **** 
 410:Generated_Source\PSoC4/cyfitter_cfg.c **** 
 411:Generated_Source\PSoC4/cyfitter_cfg.c **** 		CYPACKED typedef struct {
 412:Generated_Source\PSoC4/cyfitter_cfg.c **** 			void CYFAR *address;
 413:Generated_Source\PSoC4/cyfitter_cfg.c **** 			uint16 size;
 414:Generated_Source\PSoC4/cyfitter_cfg.c **** 		} CYPACKED_ATTR cfg_memset_t;
 415:Generated_Source\PSoC4/cyfitter_cfg.c **** 
 416:Generated_Source\PSoC4/cyfitter_cfg.c **** 		static const cfg_memset_t CYCODE cfg_memset_list[] = {
 417:Generated_Source\PSoC4/cyfitter_cfg.c **** 			/* address, size */
 418:Generated_Source\PSoC4/cyfitter_cfg.c **** 			{(void CYFAR *)(CYDEV_UDB_P0_U0_BASE), 1024u},
 419:Generated_Source\PSoC4/cyfitter_cfg.c **** 			{(void CYFAR *)(CYDEV_UDB_DSI0_BASE), 1024u},
 420:Generated_Source\PSoC4/cyfitter_cfg.c **** 		};
 421:Generated_Source\PSoC4/cyfitter_cfg.c **** 
 422:Generated_Source\PSoC4/cyfitter_cfg.c **** 		uint8 CYDATA i;
 423:Generated_Source\PSoC4/cyfitter_cfg.c **** 
 424:Generated_Source\PSoC4/cyfitter_cfg.c **** 		/* Zero out critical memory blocks before beginning configuration */
 425:Generated_Source\PSoC4/cyfitter_cfg.c **** 		for (i = 0u; i < (sizeof(cfg_memset_list)/sizeof(cfg_memset_list[0])); i++)
 446              		.loc 1 425 0
 447 013a 0024     		movs	r4, #0
 448 013c 0FE0     		b	.L21
 449              	.LVL34:
 450              	.L22:
 451              	.LBB4:
 426:Generated_Source\PSoC4/cyfitter_cfg.c **** 		{
 427:Generated_Source\PSoC4/cyfitter_cfg.c **** 			const cfg_memset_t CYCODE * CYDATA ms = &cfg_memset_list[i];
 428:Generated_Source\PSoC4/cyfitter_cfg.c **** 			CYMEMZERO(ms->address, (size_t)(uint32)(ms->size));
 452              		.loc 1 428 0 discriminator 3
 453 013e 3848     		ldr	r0, .L23+4
 454 0140 6200     		lsls	r2, r4, #1
 455 0142 1319     		adds	r3, r2, r4
 456 0144 5900     		lsls	r1, r3, #1
 457 0146 0B00     		movs	r3, r1
 458 0148 4118     		adds	r1, r0, r1
 459 014a 8988     		ldrh	r1, [r1, #4]
 460 014c 1A5A     		ldrh	r2, [r3, r0]
 461 014e C318     		adds	r3, r0, r3
 462 0150 5888     		ldrh	r0, [r3, #2]
 463 0152 0004     		lsls	r0, r0, #16
 464 0154 1043     		orrs	r0, r2
 465 0156 FFF7FEFF 		bl	CYMEMZERO
 466              	.LVL35:
 467              	.LBE4:
 425:Generated_Source\PSoC4/cyfitter_cfg.c **** 		{
 468              		.loc 1 425 0 discriminator 3
 469 015a 0134     		adds	r4, r4, #1
 470              	.LVL36:
 471 015c E4B2     		uxtb	r4, r4
ARM GAS  C:\Users\ORA\AppData\Local\Temp\cc2Z4T87.s 			page 17


 472              	.LVL37:
 473              	.L21:
 425:Generated_Source\PSoC4/cyfitter_cfg.c **** 		{
 474              		.loc 1 425 0 is_stmt 0 discriminator 1
 475 015e 012C     		cmp	r4, #1
 476 0160 EDD9     		bls	.L22
 429:Generated_Source\PSoC4/cyfitter_cfg.c **** 		}
 430:Generated_Source\PSoC4/cyfitter_cfg.c **** 
 431:Generated_Source\PSoC4/cyfitter_cfg.c **** 		cfg_write_bytes32(cy_cfg_addr_table, cy_cfg_data_table);
 477              		.loc 1 431 0 is_stmt 1
 478 0162 2F48     		ldr	r0, .L23+4
 479 0164 0100     		movs	r1, r0
 480 0166 0C31     		adds	r1, r1, #12
 481 0168 4030     		adds	r0, r0, #64
 482 016a FFF7FEFF 		bl	cfg_write_bytes32
 483              	.LVL38:
 432:Generated_Source\PSoC4/cyfitter_cfg.c **** 
 433:Generated_Source\PSoC4/cyfitter_cfg.c **** 		/* PWR_BG_CONFIG Starting address: CYDEV_PWR_BG_CONFIG */
 434:Generated_Source\PSoC4/cyfitter_cfg.c **** 		CY_SET_REG32((void *)(CYREG_PWR_BG_CONFIG), 0x00040000u);
 484              		.loc 1 434 0
 485 016e 8022     		movs	r2, #128
 486 0170 D202     		lsls	r2, r2, #11
 487 0172 2C4B     		ldr	r3, .L23+8
 488 0174 1A60     		str	r2, [r3]
 435:Generated_Source\PSoC4/cyfitter_cfg.c **** 
 436:Generated_Source\PSoC4/cyfitter_cfg.c **** 		/* HSIOM Starting address: CYDEV_HSIOM_BASE */
 437:Generated_Source\PSoC4/cyfitter_cfg.c **** 		CY_SET_REG32((void *)(CYDEV_HSIOM_BASE), 0xEE000000u);
 489              		.loc 1 437 0
 490 0176 EE22     		movs	r2, #238
 491 0178 1206     		lsls	r2, r2, #24
 492 017a 2B4B     		ldr	r3, .L23+12
 493 017c 1A60     		str	r2, [r3]
 438:Generated_Source\PSoC4/cyfitter_cfg.c **** 		CY_SET_REG32((void *)(CYREG_HSIOM_PORT_SEL1), 0x00990000u);
 494              		.loc 1 438 0
 495 017e 9923     		movs	r3, #153
 496 0180 1B04     		lsls	r3, r3, #16
 497 0182 2A4A     		ldr	r2, .L23+16
 498 0184 1360     		str	r3, [r2]
 439:Generated_Source\PSoC4/cyfitter_cfg.c **** 		CY_SET_REG32((void *)(CYREG_HSIOM_PORT_SEL2), 0x03000000u);
 499              		.loc 1 439 0
 500 0186 C022     		movs	r2, #192
 501 0188 9204     		lsls	r2, r2, #18
 502 018a 2949     		ldr	r1, .L23+20
 503 018c 0A60     		str	r2, [r1]
 440:Generated_Source\PSoC4/cyfitter_cfg.c **** 		CY_SET_REG32((void *)(CYREG_HSIOM_PORT_SEL3), 0x03000000u);
 504              		.loc 1 440 0
 505 018e 2949     		ldr	r1, .L23+24
 506 0190 0A60     		str	r2, [r1]
 441:Generated_Source\PSoC4/cyfitter_cfg.c **** 
 442:Generated_Source\PSoC4/cyfitter_cfg.c **** 		/* UDB_PA_0 Starting address: CYDEV_UDB_PA0_BASE */
 443:Generated_Source\PSoC4/cyfitter_cfg.c **** 		CY_SET_REG32((void *)(CYDEV_UDB_PA0_BASE), 0x00990000u);
 507              		.loc 1 443 0
 508 0192 294A     		ldr	r2, .L23+28
 509 0194 1360     		str	r3, [r2]
 444:Generated_Source\PSoC4/cyfitter_cfg.c **** 
 445:Generated_Source\PSoC4/cyfitter_cfg.c **** 		/* UDB_PA_1 Starting address: CYDEV_UDB_PA1_BASE */
 446:Generated_Source\PSoC4/cyfitter_cfg.c **** 		CY_SET_REG32((void *)(CYDEV_UDB_PA1_BASE), 0x00990000u);
ARM GAS  C:\Users\ORA\AppData\Local\Temp\cc2Z4T87.s 			page 18


 510              		.loc 1 446 0
 511 0196 294A     		ldr	r2, .L23+32
 512 0198 1360     		str	r3, [r2]
 447:Generated_Source\PSoC4/cyfitter_cfg.c **** 
 448:Generated_Source\PSoC4/cyfitter_cfg.c **** 		/* UDB_PA_2 Starting address: CYDEV_UDB_PA2_BASE */
 449:Generated_Source\PSoC4/cyfitter_cfg.c **** 		CY_SET_REG32((void *)(CYDEV_UDB_PA2_BASE), 0x00990000u);
 513              		.loc 1 449 0
 514 019a 294A     		ldr	r2, .L23+36
 515 019c 1360     		str	r3, [r2]
 450:Generated_Source\PSoC4/cyfitter_cfg.c **** 		CY_SET_REG32((void *)(CYREG_UDB_PA2_CFG8), 0x10000000u);
 516              		.loc 1 450 0
 517 019e 8021     		movs	r1, #128
 518 01a0 4905     		lsls	r1, r1, #21
 519 01a2 284A     		ldr	r2, .L23+40
 520 01a4 1160     		str	r1, [r2]
 451:Generated_Source\PSoC4/cyfitter_cfg.c **** 
 452:Generated_Source\PSoC4/cyfitter_cfg.c **** 		/* UDB_PA_3 Starting address: CYDEV_UDB_PA3_BASE */
 453:Generated_Source\PSoC4/cyfitter_cfg.c **** 		CY_SET_REG32((void *)(CYDEV_UDB_PA3_BASE), 0x00990000u);
 521              		.loc 1 453 0
 522 01a6 284A     		ldr	r2, .L23+44
 523 01a8 1360     		str	r3, [r2]
 454:Generated_Source\PSoC4/cyfitter_cfg.c **** 		CY_SET_REG32((void *)(CYREG_UDB_PA3_CFG8), 0x20000000u);
 524              		.loc 1 454 0
 525 01aa 8022     		movs	r2, #128
 526 01ac 9205     		lsls	r2, r2, #22
 527 01ae 274B     		ldr	r3, .L23+48
 528 01b0 1A60     		str	r2, [r3]
 455:Generated_Source\PSoC4/cyfitter_cfg.c **** 
 456:Generated_Source\PSoC4/cyfitter_cfg.c **** 		/* Enable UDB array and digital routing */
 457:Generated_Source\PSoC4/cyfitter_cfg.c **** 		CY_SET_XTND_REG8((void *)CYREG_UDB_UDBIF_WAIT_CFG, (uint8)((CY_GET_XTND_REG8((void *)CYREG_UDB_UD
 529              		.loc 1 457 0
 530 01b2 2749     		ldr	r1, .L23+52
 531 01b4 0B78     		ldrb	r3, [r1]
 532 01b6 3C22     		movs	r2, #60
 533 01b8 9343     		bics	r3, r2
 534 01ba 1422     		movs	r2, #20
 535 01bc 1343     		orrs	r3, r2
 536 01be DBB2     		uxtb	r3, r3
 537 01c0 0B70     		strb	r3, [r1]
 458:Generated_Source\PSoC4/cyfitter_cfg.c **** 		CY_SET_XTND_REG8((void *)CYREG_UDB_UDBIF_BANK_CTL, (uint8)(CY_GET_XTND_REG8((void *)CYREG_UDB_UDB
 538              		.loc 1 458 0
 539 01c2 244A     		ldr	r2, .L23+56
 540 01c4 1178     		ldrb	r1, [r2]
 541 01c6 1623     		movs	r3, #22
 542 01c8 0B43     		orrs	r3, r1
 543 01ca DBB2     		uxtb	r3, r3
 544 01cc 1370     		strb	r3, [r2]
 545              	.LBE3:
 459:Generated_Source\PSoC4/cyfitter_cfg.c **** 	}
 460:Generated_Source\PSoC4/cyfitter_cfg.c **** 
 461:Generated_Source\PSoC4/cyfitter_cfg.c **** 	/* Perform second pass device configuration. These items must be configured in specific order afte
 462:Generated_Source\PSoC4/cyfitter_cfg.c **** 	/* IOPINS0_0 Starting address: CYDEV_GPIO_PRT0_BASE */
 463:Generated_Source\PSoC4/cyfitter_cfg.c **** 	CY_SET_REG32((void *)(CYREG_GPIO_PRT0_PC), 0x00D80000u);
 546              		.loc 1 463 0
 547 01ce D823     		movs	r3, #216
 548 01d0 1B04     		lsls	r3, r3, #16
 549 01d2 214A     		ldr	r2, .L23+60
ARM GAS  C:\Users\ORA\AppData\Local\Temp\cc2Z4T87.s 			page 19


 550 01d4 1360     		str	r3, [r2]
 464:Generated_Source\PSoC4/cyfitter_cfg.c **** 
 465:Generated_Source\PSoC4/cyfitter_cfg.c **** 	/* IOPINS0_1 Starting address: CYDEV_GPIO_PRT1_BASE */
 466:Generated_Source\PSoC4/cyfitter_cfg.c **** 	CY_SET_REG32((void *)(CYDEV_GPIO_PRT1_BASE), 0x00000020u);
 551              		.loc 1 466 0
 552 01d6 2022     		movs	r2, #32
 553 01d8 2049     		ldr	r1, .L23+64
 554 01da 0A60     		str	r2, [r1]
 467:Generated_Source\PSoC4/cyfitter_cfg.c **** 	CY_SET_REG32((void *)(CYREG_GPIO_PRT1_PC), 0x00031000u);
 555              		.loc 1 467 0
 556 01dc C420     		movs	r0, #196
 557 01de 8002     		lsls	r0, r0, #10
 558 01e0 1F49     		ldr	r1, .L23+68
 559 01e2 0860     		str	r0, [r1]
 468:Generated_Source\PSoC4/cyfitter_cfg.c **** 	CY_SET_REG32((void *)(CYREG_GPIO_PRT1_PC2), 0x00000020u);
 560              		.loc 1 468 0
 561 01e4 1F49     		ldr	r1, .L23+72
 562 01e6 0A60     		str	r2, [r1]
 469:Generated_Source\PSoC4/cyfitter_cfg.c **** 
 470:Generated_Source\PSoC4/cyfitter_cfg.c **** 	/* IOPINS0_2 Starting address: CYDEV_GPIO_PRT2_BASE */
 471:Generated_Source\PSoC4/cyfitter_cfg.c **** 	CY_SET_REG32((void *)(CYDEV_GPIO_PRT2_BASE), 0x000000FEu);
 563              		.loc 1 471 0
 564 01e8 FE21     		movs	r1, #254
 565 01ea 1F4A     		ldr	r2, .L23+76
 566 01ec 1160     		str	r1, [r2]
 472:Generated_Source\PSoC4/cyfitter_cfg.c **** 	CY_SET_REG32((void *)(CYREG_GPIO_PRT2_PC), 0x00580000u);
 567              		.loc 1 472 0
 568 01ee B021     		movs	r1, #176
 569 01f0 C903     		lsls	r1, r1, #15
 570 01f2 1E4A     		ldr	r2, .L23+80
 571 01f4 1160     		str	r1, [r2]
 473:Generated_Source\PSoC4/cyfitter_cfg.c **** 	CY_SET_REG32((void *)(CYREG_GPIO_PRT2_PC2), 0x0000003Eu);
 572              		.loc 1 473 0
 573 01f6 3E21     		movs	r1, #62
 574 01f8 1D4A     		ldr	r2, .L23+84
 575 01fa 1160     		str	r1, [r2]
 474:Generated_Source\PSoC4/cyfitter_cfg.c **** 
 475:Generated_Source\PSoC4/cyfitter_cfg.c **** 	/* IOPINS0_3 Starting address: CYDEV_GPIO_PRT3_BASE */
 476:Generated_Source\PSoC4/cyfitter_cfg.c **** 	CY_SET_REG32((void *)(CYDEV_GPIO_PRT3_BASE), 0x000000C0u);
 576              		.loc 1 476 0
 577 01fc 8231     		adds	r1, r1, #130
 578 01fe 1D4A     		ldr	r2, .L23+88
 579 0200 1160     		str	r1, [r2]
 477:Generated_Source\PSoC4/cyfitter_cfg.c **** 	CY_SET_REG32((void *)(CYREG_GPIO_PRT3_PC), 0x00D80000u);
 580              		.loc 1 477 0
 581 0202 1D4A     		ldr	r2, .L23+92
 582 0204 1360     		str	r3, [r2]
 478:Generated_Source\PSoC4/cyfitter_cfg.c **** 
 479:Generated_Source\PSoC4/cyfitter_cfg.c **** 	/* IOPINS0_4 Starting address: CYDEV_GPIO_PRT4_BASE */
 480:Generated_Source\PSoC4/cyfitter_cfg.c **** 	CY_SET_REG32((void *)(CYDEV_GPIO_PRT4_BASE), 0x00000001u);
 583              		.loc 1 480 0
 584 0206 0123     		movs	r3, #1
 585 0208 1C4A     		ldr	r2, .L23+96
 586 020a 1360     		str	r3, [r2]
 481:Generated_Source\PSoC4/cyfitter_cfg.c **** 	CY_SET_REG32((void *)(CYREG_GPIO_PRT4_PC2), 0x00000001u);
 587              		.loc 1 481 0
 588 020c 1C4A     		ldr	r2, .L23+100
ARM GAS  C:\Users\ORA\AppData\Local\Temp\cc2Z4T87.s 			page 20


 589 020e 1360     		str	r3, [r2]
 482:Generated_Source\PSoC4/cyfitter_cfg.c **** 
 483:Generated_Source\PSoC4/cyfitter_cfg.c **** 
 484:Generated_Source\PSoC4/cyfitter_cfg.c **** 	/* Setup clocks based on selections from Clock DWR */
 485:Generated_Source\PSoC4/cyfitter_cfg.c **** 	ClockSetup();
 590              		.loc 1 485 0
 591 0210 FFF7F6FE 		bl	ClockSetup
 592              	.LVL39:
 486:Generated_Source\PSoC4/cyfitter_cfg.c **** 
 487:Generated_Source\PSoC4/cyfitter_cfg.c **** 	/* Perform basic analog initialization to defaults */
 488:Generated_Source\PSoC4/cyfitter_cfg.c **** 	AnalogSetDefault();
 593              		.loc 1 488 0
 594 0214 FFF7FEFF 		bl	AnalogSetDefault
 595              	.LVL40:
 489:Generated_Source\PSoC4/cyfitter_cfg.c **** 
 490:Generated_Source\PSoC4/cyfitter_cfg.c **** }
 596              		.loc 1 490 0
 597              		@ sp needed
 598              	.LVL41:
 599 0218 10BD     		pop	{r4, pc}
 600              	.L24:
 601 021a C046     		.align	2
 602              	.L23:
 603 021c 6CF02E40 		.word	1076818028
 604 0220 00000000 		.word	.LANCHOR0
 605 0224 14000B40 		.word	1074462740
 606 0228 00000240 		.word	1073872896
 607 022c 00010240 		.word	1073873152
 608 0230 00020240 		.word	1073873408
 609 0234 00030240 		.word	1073873664
 610 0238 00500F40 		.word	1074745344
 611 023c 10500F40 		.word	1074745360
 612 0240 20500F40 		.word	1074745376
 613 0244 28500F40 		.word	1074745384
 614 0248 30500F40 		.word	1074745392
 615 024c 38500F40 		.word	1074745400
 616 0250 01700F40 		.word	1074753537
 617 0254 00700F40 		.word	1074753536
 618 0258 08000440 		.word	1074003976
 619 025c 00010440 		.word	1074004224
 620 0260 08010440 		.word	1074004232
 621 0264 18010440 		.word	1074004248
 622 0268 00020440 		.word	1074004480
 623 026c 08020440 		.word	1074004488
 624 0270 18020440 		.word	1074004504
 625 0274 00030440 		.word	1074004736
 626 0278 08030440 		.word	1074004744
 627 027c 00040440 		.word	1074004992
 628 0280 18040440 		.word	1074005016
 629              		.cfi_endproc
 630              	.LFE9:
 631              		.size	cyfitter_cfg, .-cyfitter_cfg
 632              		.section	.rodata
 633              		.align	2
 634              		.set	.LANCHOR0,. + 0
 635              		.type	cfg_memset_list.4922, %object
 636              		.size	cfg_memset_list.4922, 12
ARM GAS  C:\Users\ORA\AppData\Local\Temp\cc2Z4T87.s 			page 21


 637              	cfg_memset_list.4922:
 638 0000 00300F40 		.word	1074737152
 639 0004 0004     		.short	1024
 640 0006 00400F40 		.4byte	1074741248
 641 000a 0004     		.short	1024
 642              		.type	cy_cfg_data_table.4917, %object
 643              		.size	cy_cfg_data_table.4917, 50
 644              	cy_cfg_data_table.4917:
 645 000c 38       		.byte	56
 646 000d 28       		.byte	40
 647 000e 3E       		.byte	62
 648 000f 14       		.byte	20
 649 0010 58       		.byte	88
 650 0011 04       		.byte	4
 651 0012 5F       		.byte	95
 652 0013 01       		.byte	1
 653 0014 19       		.byte	25
 654 0015 08       		.byte	8
 655 0016 1A       		.byte	26
 656 0017 04       		.byte	4
 657 0018 AD       		.byte	-83
 658 0019 08       		.byte	8
 659 001a AE       		.byte	-82
 660 001b 04       		.byte	4
 661 001c 3B       		.byte	59
 662 001d 04       		.byte	4
 663 001e 3F       		.byte	63
 664 001f 02       		.byte	2
 665 0020 93       		.byte	-109
 666 0021 04       		.byte	4
 667 0022 A3       		.byte	-93
 668 0023 01       		.byte	1
 669 0024 AF       		.byte	-81
 670 0025 05       		.byte	5
 671 0026 CE       		.byte	-50
 672 0027 C0       		.byte	-64
 673 0028 EA       		.byte	-22
 674 0029 40       		.byte	64
 675 002a EE       		.byte	-18
 676 002b 10       		.byte	16
 677 002c 11       		.byte	17
 678 002d 01       		.byte	1
 679 002e 18       		.byte	24
 680 002f 10       		.byte	16
 681 0030 5D       		.byte	93
 682 0031 01       		.byte	1
 683 0032 C4       		.byte	-60
 684 0033 08       		.byte	8
 685 0034 C6       		.byte	-58
 686 0035 08       		.byte	8
 687 0036 D6       		.byte	-42
 688 0037 01       		.byte	1
 689 0038 60       		.byte	96
 690 0039 10       		.byte	16
 691 003a 90       		.byte	-112
 692 003b 10       		.byte	16
 693 003c D8       		.byte	-40
ARM GAS  C:\Users\ORA\AppData\Local\Temp\cc2Z4T87.s 			page 22


 694 003d 02       		.byte	2
 695 003e 0000     		.space	2
 696              		.type	cy_cfg_addr_table.4916, %object
 697              		.size	cy_cfg_addr_table.4916, 24
 698              	cy_cfg_addr_table.4916:
 699 0040 04300F40 		.word	1074737156
 700 0044 02310F40 		.word	1074737410
 701 0048 02330F40 		.word	1074737922
 702 004c 08410F40 		.word	1074741512
 703 0050 06420F40 		.word	1074741766
 704 0054 03430F40 		.word	1074742019
 705              		.text
 706              	.Letext0:
 707              		.file 2 "c:\\program files (x86)\\cypress\\psoc creator\\4.2\\psoc creator\\import\\gnu\\arm\\5.4.
 708              		.file 3 "Generated_Source\\PSoC4\\cytypes.h"
 709              		.file 4 "Generated_Source\\PSoC4\\CyLFClk.h"
 710              		.file 5 "Generated_Source\\PSoC4\\CyLib.h"
