Archive member included to satisfy reference by file (symbol)

.\CortexM0\ARM_GCC_541\Debug\Lesson12_CapSense.a(UART.o)
                              .\CortexM0\ARM_GCC_541\Debug\main.o (UART_Start)
.\CortexM0\ARM_GCC_541\Debug\Lesson12_CapSense.a(UART_UART.o)
                              .\CortexM0\ARM_GCC_541\Debug\Lesson12_CapSense.a(UART.o) (UART_UartInit)
.\CortexM0\ARM_GCC_541\Debug\Lesson12_CapSense.a(CyLib.o)
                              .\CortexM0\ARM_GCC_541\Debug\cyfitter_cfg.o (CyIntEnable)
.\CortexM0\ARM_GCC_541\Debug\Lesson12_CapSense.a(CyLFClk.o)
                              .\CortexM0\ARM_GCC_541\Debug\cyfitter_cfg.o (CySysClkWcoStart)
.\CortexM0\ARM_GCC_541\Debug\Lesson12_CapSense.a(CapSense.o)
                              .\CortexM0\ARM_GCC_541\Debug\main.o (CapSense_IsBusy)
.\CortexM0\ARM_GCC_541\Debug\Lesson12_CapSense.a(CapSense_CSHL.o)
                              .\CortexM0\ARM_GCC_541\Debug\main.o (CapSense_InitializeEnabledBaselines)
.\CortexM0\ARM_GCC_541\Debug\Lesson12_CapSense.a(CapSense_INT.o)
                              .\CortexM0\ARM_GCC_541\Debug\Lesson12_CapSense.a(CapSense.o) (CapSense_ISR)
.\CortexM0\ARM_GCC_541\Debug\Lesson12_CapSense.a(CapSense_SMS.o)
                              .\CortexM0\ARM_GCC_541\Debug\Lesson12_CapSense.a(CapSense_CSHL.o) (CapSense_UpdateThresholds)
.\CortexM0\ARM_GCC_541\Debug\Lesson12_CapSense.a(CapSense_SampleClk.o)
                              .\CortexM0\ARM_GCC_541\Debug\Lesson12_CapSense.a(CapSense.o) (CapSense_SampleClk_StartEx)
.\CortexM0\ARM_GCC_541\Debug\Lesson12_CapSense.a(CapSense_SenseClk.o)
                              .\CortexM0\ARM_GCC_541\Debug\Lesson12_CapSense.a(CapSense.o) (CapSense_SenseClk_StartEx)
.\CortexM0\ARM_GCC_541\Debug\Lesson12_CapSense.a(LED_PWM.o)
                              .\CortexM0\ARM_GCC_541\Debug\main.o (LED_PWM_WriteCompare)
.\CortexM0\ARM_GCC_541\Debug\Lesson12_CapSense.a(CyBootAsmGnu.o)
                              .\CortexM0\ARM_GCC_541\Debug\cyfitter_cfg.o (CyDelayCycles)
.\CortexM0\ARM_GCC_541\Debug\Lesson12_CapSense.a(UART_SPI_UART.o)
                              .\CortexM0\ARM_GCC_541\Debug\Lesson12_CapSense.a(UART_UART.o) (UART_SpiUartReadRxData)
C:\Program Files (x86)\Cypress\PSoC Creator\4.2\PSoC Creator\psoc\content\CyComponentLibrary\CyComponentLibrary.cylib\CapSense_CSD_P4_v2_60\PSoC4\Library\CapsenseP4Library_GCC.a(CSD_P4_SmartSense_v2_60.o)
                              .\CortexM0\ARM_GCC_541\Debug\Lesson12_CapSense.a(CapSense_SMS.o) (CalibrateSensors_P4_v2_60)
c:/program files (x86)/cypress/psoc creator/4.2/psoc creator/import/gnu/arm/5.4.1/bin/../lib/gcc/arm-none-eabi/5.4.1/armv6-m\libgcc.a(_udivsi3.o)
                              .\CortexM0\ARM_GCC_541\Debug\Lesson12_CapSense.a(CyLib.o) (__aeabi_uidiv)
c:/program files (x86)/cypress/psoc creator/4.2/psoc creator/import/gnu/arm/5.4.1/bin/../lib/gcc/arm-none-eabi/5.4.1/armv6-m\libgcc.a(_divsi3.o)
                              .\CortexM0\ARM_GCC_541\Debug\Lesson12_CapSense.a(CyLFClk.o) (__aeabi_idiv)
c:/program files (x86)/cypress/psoc creator/4.2/psoc creator/import/gnu/arm/5.4.1/bin/../lib/gcc/arm-none-eabi/5.4.1/armv6-m\libgcc.a(_dvmd_tls.o)
                              c:/program files (x86)/cypress/psoc creator/4.2/psoc creator/import/gnu/arm/5.4.1/bin/../lib/gcc/arm-none-eabi/5.4.1/armv6-m\libgcc.a(_udivsi3.o) (__aeabi_idiv0)
c:/program files (x86)/cypress/psoc creator/4.2/psoc creator/import/gnu/arm/5.4.1/bin/../lib/gcc/arm-none-eabi/5.4.1/../../../../arm-none-eabi/lib/armv6-m\libg_nano.a(lib_a-errno.o)
                              .\CortexM0\ARM_GCC_541\Debug\Cm0Start.o (__errno)
c:/program files (x86)/cypress/psoc creator/4.2/psoc creator/import/gnu/arm/5.4.1/bin/../lib/gcc/arm-none-eabi/5.4.1/../../../../arm-none-eabi/lib/armv6-m\libg_nano.a(lib_a-exit.o)
                              c:/program files (x86)/cypress/psoc creator/4.2/psoc creator/import/gnu/arm/5.4.1/bin/../lib/gcc/arm-none-eabi/5.4.1/../../../../arm-none-eabi/lib/armv6-m/crt0.o (exit)
c:/program files (x86)/cypress/psoc creator/4.2/psoc creator/import/gnu/arm/5.4.1/bin/../lib/gcc/arm-none-eabi/5.4.1/../../../../arm-none-eabi/lib/armv6-m\libg_nano.a(lib_a-impure.o)
                              c:/program files (x86)/cypress/psoc creator/4.2/psoc creator/import/gnu/arm/5.4.1/bin/../lib/gcc/arm-none-eabi/5.4.1/../../../../arm-none-eabi/lib/armv6-m\libg_nano.a(lib_a-exit.o) (_global_impure_ptr)
c:/program files (x86)/cypress/psoc creator/4.2/psoc creator/import/gnu/arm/5.4.1/bin/../lib/gcc/arm-none-eabi/5.4.1/../../../../arm-none-eabi/lib/armv6-m\libg_nano.a(lib_a-init.o)
                              c:/program files (x86)/cypress/psoc creator/4.2/psoc creator/import/gnu/arm/5.4.1/bin/../lib/gcc/arm-none-eabi/5.4.1/../../../../arm-none-eabi/lib/armv6-m/crt0.o (__libc_init_array)
c:/program files (x86)/cypress/psoc creator/4.2/psoc creator/import/gnu/arm/5.4.1/bin/../lib/gcc/arm-none-eabi/5.4.1/../../../../arm-none-eabi/lib/armv6-m\libg_nano.a(lib_a-memset.o)
                              c:/program files (x86)/cypress/psoc creator/4.2/psoc creator/import/gnu/arm/5.4.1/bin/../lib/gcc/arm-none-eabi/5.4.1/../../../../arm-none-eabi/lib/armv6-m/crt0.o (memset)
c:/program files (x86)/cypress/psoc creator/4.2/psoc creator/import/gnu/arm/5.4.1/bin/../lib/gcc/arm-none-eabi/5.4.1/../../../../arm-none-eabi/lib/armv6-m\libg_nano.a(lib_a-sprintf.o)
                              .\CortexM0\ARM_GCC_541\Debug\main.o (sprintf)
c:/program files (x86)/cypress/psoc creator/4.2/psoc creator/import/gnu/arm/5.4.1/bin/../lib/gcc/arm-none-eabi/5.4.1/../../../../arm-none-eabi/lib/armv6-m\libg_nano.a(lib_a-nano-svfprintf.o)
                              c:/program files (x86)/cypress/psoc creator/4.2/psoc creator/import/gnu/arm/5.4.1/bin/../lib/gcc/arm-none-eabi/5.4.1/../../../../arm-none-eabi/lib/armv6-m\libg_nano.a(lib_a-sprintf.o) (_svfprintf_r)
c:/program files (x86)/cypress/psoc creator/4.2/psoc creator/import/gnu/arm/5.4.1/bin/../lib/gcc/arm-none-eabi/5.4.1/../../../../arm-none-eabi/lib/armv6-m\libg_nano.a(lib_a-nano-vfprintf_i.o)
                              c:/program files (x86)/cypress/psoc creator/4.2/psoc creator/import/gnu/arm/5.4.1/bin/../lib/gcc/arm-none-eabi/5.4.1/../../../../arm-none-eabi/lib/armv6-m\libg_nano.a(lib_a-nano-svfprintf.o) (_printf_i)
c:/program files (x86)/cypress/psoc creator/4.2/psoc creator/import/gnu/arm/5.4.1/bin/../lib/gcc/arm-none-eabi/5.4.1/../../../../arm-none-eabi/lib/armv6-m\libg_nano.a(lib_a-memchr-stub.o)
                              c:/program files (x86)/cypress/psoc creator/4.2/psoc creator/import/gnu/arm/5.4.1/bin/../lib/gcc/arm-none-eabi/5.4.1/../../../../arm-none-eabi/lib/armv6-m\libg_nano.a(lib_a-nano-svfprintf.o) (memchr)
c:/program files (x86)/cypress/psoc creator/4.2/psoc creator/import/gnu/arm/5.4.1/bin/../lib/gcc/arm-none-eabi/5.4.1/../../../../arm-none-eabi/lib/armv6-m\libg_nano.a(lib_a-memcpy-stub.o)
                              c:/program files (x86)/cypress/psoc creator/4.2/psoc creator/import/gnu/arm/5.4.1/bin/../lib/gcc/arm-none-eabi/5.4.1/../../../../arm-none-eabi/lib/armv6-m\libg_nano.a(lib_a-nano-svfprintf.o) (memcpy)
c:/program files (x86)/cypress/psoc creator/4.2/psoc creator/import/gnu/arm/5.4.1/bin/../lib/gcc/arm-none-eabi/5.4.1/../../../../arm-none-eabi/lib/armv6-m\libg_nano.a(lib_a-memmove.o)
                              c:/program files (x86)/cypress/psoc creator/4.2/psoc creator/import/gnu/arm/5.4.1/bin/../lib/gcc/arm-none-eabi/5.4.1/../../../../arm-none-eabi/lib/armv6-m\libg_nano.a(lib_a-nano-svfprintf.o) (memmove)
c:/program files (x86)/cypress/psoc creator/4.2/psoc creator/import/gnu/arm/5.4.1/bin/../lib/gcc/arm-none-eabi/5.4.1/../../../../arm-none-eabi/lib/armv6-m\libg_nano.a(lib_a-nano-freer.o)
                              c:/program files (x86)/cypress/psoc creator/4.2/psoc creator/import/gnu/arm/5.4.1/bin/../lib/gcc/arm-none-eabi/5.4.1/../../../../arm-none-eabi/lib/armv6-m\libg_nano.a(lib_a-nano-svfprintf.o) (_free_r)
c:/program files (x86)/cypress/psoc creator/4.2/psoc creator/import/gnu/arm/5.4.1/bin/../lib/gcc/arm-none-eabi/5.4.1/../../../../arm-none-eabi/lib/armv6-m\libg_nano.a(lib_a-nano-mallocr.o)
                              c:/program files (x86)/cypress/psoc creator/4.2/psoc creator/import/gnu/arm/5.4.1/bin/../lib/gcc/arm-none-eabi/5.4.1/../../../../arm-none-eabi/lib/armv6-m\libg_nano.a(lib_a-nano-svfprintf.o) (_malloc_r)
c:/program files (x86)/cypress/psoc creator/4.2/psoc creator/import/gnu/arm/5.4.1/bin/../lib/gcc/arm-none-eabi/5.4.1/../../../../arm-none-eabi/lib/armv6-m\libg_nano.a(lib_a-nano-reallocr.o)
                              c:/program files (x86)/cypress/psoc creator/4.2/psoc creator/import/gnu/arm/5.4.1/bin/../lib/gcc/arm-none-eabi/5.4.1/../../../../arm-none-eabi/lib/armv6-m\libg_nano.a(lib_a-nano-svfprintf.o) (_realloc_r)
c:/program files (x86)/cypress/psoc creator/4.2/psoc creator/import/gnu/arm/5.4.1/bin/../lib/gcc/arm-none-eabi/5.4.1/../../../../arm-none-eabi/lib/armv6-m\libg_nano.a(lib_a-sbrkr.o)
                              c:/program files (x86)/cypress/psoc creator/4.2/psoc creator/import/gnu/arm/5.4.1/bin/../lib/gcc/arm-none-eabi/5.4.1/../../../../arm-none-eabi/lib/armv6-m\libg_nano.a(lib_a-nano-mallocr.o) (_sbrk_r)
c:/program files (x86)/cypress/psoc creator/4.2/psoc creator/import/gnu/arm/5.4.1/bin/../lib/gcc/arm-none-eabi/5.4.1/../../../../arm-none-eabi/lib/armv6-m\libg_nano.a(lib_a-mlock.o)
                              c:/program files (x86)/cypress/psoc creator/4.2/psoc creator/import/gnu/arm/5.4.1/bin/../lib/gcc/arm-none-eabi/5.4.1/../../../../arm-none-eabi/lib/armv6-m\libg_nano.a(lib_a-nano-freer.o) (__malloc_lock)
c:/program files (x86)/cypress/psoc creator/4.2/psoc creator/import/gnu/arm/5.4.1/bin/../lib/gcc/arm-none-eabi/5.4.1/../../../../arm-none-eabi/lib/armv6-m\libg_nano.a(lib_a-nano-msizer.o)
                              c:/program files (x86)/cypress/psoc creator/4.2/psoc creator/import/gnu/arm/5.4.1/bin/../lib/gcc/arm-none-eabi/5.4.1/../../../../arm-none-eabi/lib/armv6-m\libg_nano.a(lib_a-nano-reallocr.o) (_malloc_usable_size_r)
c:/program files (x86)/cypress/psoc creator/4.2/psoc creator/import/gnu/arm/5.4.1/bin/../lib/gcc/arm-none-eabi/5.4.1/../../../../arm-none-eabi/lib/armv6-m\libg_nano.a(lib_a-reent.o)
                              c:/program files (x86)/cypress/psoc creator/4.2/psoc creator/import/gnu/arm/5.4.1/bin/../lib/gcc/arm-none-eabi/5.4.1/../../../../arm-none-eabi/lib/armv6-m\libg_nano.a(lib_a-sbrkr.o) (errno)

Allocating common symbols
Common symbol       size              file

CapSense_noiseThreshold
                    0x1               .\CortexM0\ARM_GCC_541\Debug\Lesson12_CapSense.a(CapSense_CSHL.o)
CapSense_csdTrim1   0x1               .\CortexM0\ARM_GCC_541\Debug\Lesson12_CapSense.a(CapSense.o)
CapSense_scanSpeedTbl
                    0x1               .\CortexM0\ARM_GCC_541\Debug\Lesson12_CapSense.a(CapSense.o)
CapSense_lowBaselineResetCnt
                    0x5               .\CortexM0\ARM_GCC_541\Debug\Lesson12_CapSense.a(CapSense_CSHL.o)
CapSense_runningDifferenceTbl
                    0x5               .\CortexM0\ARM_GCC_541\Debug\Lesson12_CapSense.a(CapSense_SMS.o)
errno               0x4               c:/program files (x86)/cypress/psoc creator/4.2/psoc creator/import/gnu/arm/5.4.1/bin/../lib/gcc/arm-none-eabi/5.4.1/../../../../arm-none-eabi/lib/armv6-m\libg_nano.a(lib_a-reent.o)
CapSense_sensorEnableMaskBackup
                    0x1               .\CortexM0\ARM_GCC_541\Debug\Lesson12_CapSense.a(CapSense.o)
CapSense_senseClkDividerVal
                    0x5               .\CortexM0\ARM_GCC_541\Debug\Lesson12_CapSense.a(CapSense.o)
CapSense_negativeNoiseThreshold
                    0x1               .\CortexM0\ARM_GCC_541\Debug\Lesson12_CapSense.a(CapSense_CSHL.o)
CapSense_signRegisterTbl
                    0x5               .\CortexM0\ARM_GCC_541\Debug\Lesson12_CapSense.a(CapSense_SMS.o)
CapSense_modulationIDAC
                    0x5               .\CortexM0\ARM_GCC_541\Debug\Lesson12_CapSense.a(CapSense.o)
CapSense_compensationIDAC
                    0x5               .\CortexM0\ARM_GCC_541\Debug\Lesson12_CapSense.a(CapSense.o)
CapSense_sampleMaxTbl
                    0xa               .\CortexM0\ARM_GCC_541\Debug\Lesson12_CapSense.a(CapSense_SMS.o)
CapSense_noiseEnvelopeTbl
                    0x5               .\CortexM0\ARM_GCC_541\Debug\Lesson12_CapSense.a(CapSense_SMS.o)
CapSense_unscannedSnsDriveMode
                    0x5               .\CortexM0\ARM_GCC_541\Debug\Lesson12_CapSense.a(CapSense.o)
CapSense_sampleClkDividerVal
                    0x5               .\CortexM0\ARM_GCC_541\Debug\Lesson12_CapSense.a(CapSense.o)
CapSense_previousSampleTbl
                    0xa               .\CortexM0\ARM_GCC_541\Debug\Lesson12_CapSense.a(CapSense_SMS.o)
CapSense_sampleMinTbl
                    0xa               .\CortexM0\ARM_GCC_541\Debug\Lesson12_CapSense.a(CapSense_SMS.o)
CapSense_config     0xc               .\CortexM0\ARM_GCC_541\Debug\Lesson12_CapSense.a(CapSense_SMS.o)
CapSense_rawFilterData1
                    0xa               .\CortexM0\ARM_GCC_541\Debug\Lesson12_CapSense.a(CapSense_CSHL.o)
CapSense_kValueTbl  0x5               .\CortexM0\ARM_GCC_541\Debug\Lesson12_CapSense.a(CapSense_SMS.o)
CapSense_hysteresis
                    0x1               .\CortexM0\ARM_GCC_541\Debug\Lesson12_CapSense.a(CapSense_CSHL.o)
CapSense_fingerThreshold
                    0x1               .\CortexM0\ARM_GCC_541\Debug\Lesson12_CapSense.a(CapSense_CSHL.o)

Discarded input sections

 .text          0x00000000        0x0 c:/program files (x86)/cypress/psoc creator/4.2/psoc creator/import/gnu/arm/5.4.1/bin/../lib/gcc/arm-none-eabi/5.4.1/armv6-m/crti.o
 .data          0x00000000        0x0 c:/program files (x86)/cypress/psoc creator/4.2/psoc creator/import/gnu/arm/5.4.1/bin/../lib/gcc/arm-none-eabi/5.4.1/armv6-m/crti.o
 .bss           0x00000000        0x0 c:/program files (x86)/cypress/psoc creator/4.2/psoc creator/import/gnu/arm/5.4.1/bin/../lib/gcc/arm-none-eabi/5.4.1/armv6-m/crti.o
 .data          0x00000000        0x4 c:/program files (x86)/cypress/psoc creator/4.2/psoc creator/import/gnu/arm/5.4.1/bin/../lib/gcc/arm-none-eabi/5.4.1/armv6-m/crtbegin.o
 .text          0x00000000       0x78 c:/program files (x86)/cypress/psoc creator/4.2/psoc creator/import/gnu/arm/5.4.1/bin/../lib/gcc/arm-none-eabi/5.4.1/../../../../arm-none-eabi/lib/armv6-m/crt0.o
 .data          0x00000000        0x0 c:/program files (x86)/cypress/psoc creator/4.2/psoc creator/import/gnu/arm/5.4.1/bin/../lib/gcc/arm-none-eabi/5.4.1/../../../../arm-none-eabi/lib/armv6-m/crt0.o
 .bss           0x00000000        0x0 c:/program files (x86)/cypress/psoc creator/4.2/psoc creator/import/gnu/arm/5.4.1/bin/../lib/gcc/arm-none-eabi/5.4.1/../../../../arm-none-eabi/lib/armv6-m/crt0.o
 .ARM.extab     0x00000000        0x0 c:/program files (x86)/cypress/psoc creator/4.2/psoc creator/import/gnu/arm/5.4.1/bin/../lib/gcc/arm-none-eabi/5.4.1/../../../../arm-none-eabi/lib/armv6-m/crt0.o
 .ARM.exidx     0x00000000        0x8 c:/program files (x86)/cypress/psoc creator/4.2/psoc creator/import/gnu/arm/5.4.1/bin/../lib/gcc/arm-none-eabi/5.4.1/../../../../arm-none-eabi/lib/armv6-m/crt0.o
 .text          0x00000000        0x0 .\CortexM0\ARM_GCC_541\Debug\main.o
 .data          0x00000000        0x0 .\CortexM0\ARM_GCC_541\Debug\main.o
 .bss           0x00000000        0x0 .\CortexM0\ARM_GCC_541\Debug\main.o
 .text          0x00000000        0x0 .\CortexM0\ARM_GCC_541\Debug\cyfitter_cfg.o
 .data          0x00000000        0x0 .\CortexM0\ARM_GCC_541\Debug\cyfitter_cfg.o
 .bss           0x00000000        0x0 .\CortexM0\ARM_GCC_541\Debug\cyfitter_cfg.o
 .text          0x00000000        0x0 .\CortexM0\ARM_GCC_541\Debug\cymetadata.o
 .data          0x00000000        0x0 .\CortexM0\ARM_GCC_541\Debug\cymetadata.o
 .bss           0x00000000        0x0 .\CortexM0\ARM_GCC_541\Debug\cymetadata.o
Memory Configuration

Name             Origin             Length             Attributes
rom              0x00000000         0x00040000         xr
ram              0x20000000         0x00008000         xrw
*default*        0x00000000         0xffffffff

Linker script and memory map

LOAD c:/program files (x86)/cypress/psoc creator/4.2/psoc creator/import/gnu/arm/5.4.1/bin/../lib/gcc/arm-none-eabi/5.4.1/armv6-m/crti.o
LOAD c:/program files (x86)/cypress/psoc creator/4.2/psoc creator/import/gnu/arm/5.4.1/bin/../lib/gcc/arm-none-eabi/5.4.1/armv6-m/crtbegin.o
LOAD c:/program files (x86)/cypress/psoc creator/4.2/psoc creator/import/gnu/arm/5.4.1/bin/../lib/gcc/arm-none-eabi/5.4.1/../../../../arm-none-eabi/lib/armv6-m/crt0.o
START GROUP
LOAD .\CortexM0\ARM_GCC_541\Debug\main.o
LOAD .\CortexM0\ARM_GCC_541\Debug\cyfitter_cfg.o
LOAD .\CortexM0\ARM_GCC_541\Debug\cymetadata.o
LOAD .\CortexM0\ARM_GCC_541\Debug\Cm0Start.o
LOAD .\CortexM0\ARM_GCC_541\Debug\Lesson12_CapSense.a
LOAD C:\Program Files (x86)\Cypress\PSoC Creator\4.2\PSoC Creator\psoc\content\CyComponentLibrary\CyComponentLibrary.cylib\CapSense_CSD_P4_v2_60\PSoC4\Library\CapsenseP4Library_GCC.a
END GROUP
START GROUP
LOAD c:/program files (x86)/cypress/psoc creator/4.2/psoc creator/import/gnu/arm/5.4.1/bin/../lib/gcc/arm-none-eabi/5.4.1/armv6-m\libgcc.a
LOAD c:/program files (x86)/cypress/psoc creator/4.2/psoc creator/import/gnu/arm/5.4.1/bin/../lib/gcc/arm-none-eabi/5.4.1/../../../../arm-none-eabi/lib/armv6-m\libg_nano.a
LOAD c:/program files (x86)/cypress/psoc creator/4.2/psoc creator/import/gnu/arm/5.4.1/bin/../lib/gcc/arm-none-eabi/5.4.1/../../../../arm-none-eabi/lib/armv6-m\libc_nano.a
END GROUP
START GROUP
LOAD c:/program files (x86)/cypress/psoc creator/4.2/psoc creator/import/gnu/arm/5.4.1/bin/../lib/gcc/arm-none-eabi/5.4.1/armv6-m\libgcc.a
LOAD c:/program files (x86)/cypress/psoc creator/4.2/psoc creator/import/gnu/arm/5.4.1/bin/../lib/gcc/arm-none-eabi/5.4.1/../../../../arm-none-eabi/lib/armv6-m\libc_nano.a
END GROUP
LOAD c:/program files (x86)/cypress/psoc creator/4.2/psoc creator/import/gnu/arm/5.4.1/bin/../lib/gcc/arm-none-eabi/5.4.1/armv6-m/crtend.o
LOAD c:/program files (x86)/cypress/psoc creator/4.2/psoc creator/import/gnu/arm/5.4.1/bin/../lib/gcc/arm-none-eabi/5.4.1/armv6-m/crtn.o
START GROUP
LOAD c:/program files (x86)/cypress/psoc creator/4.2/psoc creator/import/gnu/arm/5.4.1/bin/../lib/gcc/arm-none-eabi/5.4.1/armv6-m\libgcc.a
LOAD c:/program files (x86)/cypress/psoc creator/4.2/psoc creator/import/gnu/arm/5.4.1/bin/../lib/gcc/arm-none-eabi/5.4.1/../../../../arm-none-eabi/lib/armv6-m\libc.a
LOAD c:/program files (x86)/cypress/psoc creator/4.2/psoc creator/import/gnu/arm/5.4.1/bin/../lib/gcc/arm-none-eabi/5.4.1/../../../../arm-none-eabi/lib/armv6-m\libnosys.a
END GROUP
                0x00000000                CY_APPL_ORIGIN = 0x0
                0x00000100                CY_FLASH_ROW_SIZE = 0x100
                0x00000001                CY_APPL_NUM = 0x1
                0x00000001                CY_APPL_MAX = 0x1
                0x00000040                CY_METADATA_SIZE = 0x40
                0x00000000                CY_APPL_LOADABLE = 0x0
                0x00000000                CY_CHECKSUM_EXCLUDE_SIZE = ALIGN (0x0, CY_FLASH_ROW_SIZE)
                0x00000000                CY_APP_FOR_STACK_AND_COPIER = 0x0
                [!provide]                PROVIDE (__cy_heap_start, _end)
                0x00000001                PROVIDE (__cy_region_num, ((__cy_regions_end - __cy_regions) / 0x10))
                0x20008000                PROVIDE (__cy_stack, (ORIGIN (ram) + LENGTH (ram)))
                [!provide]                PROVIDE (__cy_heap_end, (__cy_stack - 0x800))

.cybootloader   0x00000000        0x0
 *(.cybootloader)
                0x00000000                appl1_start = CY_APPL_ORIGIN?CY_APPL_ORIGIN:ALIGN (CY_FLASH_ROW_SIZE)
                0x0001ff00                appl2_start = (appl1_start + ALIGN ((((LENGTH (rom) - appl1_start) - (0x2 * CY_FLASH_ROW_SIZE)) / 0x2), CY_FLASH_ROW_SIZE))
                0x00000000                appl_start = (CY_APPL_NUM == 0x1)?appl1_start:appl2_start
                0x00000001                cy_project_type_bootloader = (appl_start == 0x0)?0x1:0x0
                0x00000000                cy_project_type_app_for_stack_and_copier = (CY_APP_FOR_STACK_AND_COPIER == 0x1)?0x1:0x0

.text           0x00000000     0x2546
 CREATE_OBJECT_SYMBOLS
                0x00000000                PROVIDE (__cy_interrupt_vector, RomVectors)
 *(.romvectors)
 .romvectors    0x00000000       0x10 .\CortexM0\ARM_GCC_541\Debug\Cm0Start.o
                0x00000000                RomVectors
                0x00000001                ASSERT ((. != __cy_interrupt_vector), No interrupt vector)
                0x00000001                ASSERT (CY_APPL_ORIGIN?(SIZEOF (.cybootloader) <= CY_APPL_ORIGIN):0x1, Wrong image location)
                0x00000010                PROVIDE (__cy_reset, Reset)
 *(.text.Reset)
 .text.Reset    0x00000010        0x8 .\CortexM0\ARM_GCC_541\Debug\Cm0Start.o
                0x00000010                Reset
                0x00000001                ASSERT ((. != __cy_reset), No reset code)
 *(.psocinit)
 .psocinit      0x00000018      0x284 .\CortexM0\ARM_GCC_541\Debug\cyfitter_cfg.o
                0x00000148                cyfitter_cfg
                0x0000029c                . = MAX (., 0x100)
 *(.text .text.* .gnu.linkonce.t.*)
 .text          0x0000029c       0x60 c:/program files (x86)/cypress/psoc creator/4.2/psoc creator/import/gnu/arm/5.4.1/bin/../lib/gcc/arm-none-eabi/5.4.1/armv6-m/crtbegin.o
 .text.main     0x000002fc       0x68 .\CortexM0\ARM_GCC_541\Debug\main.o
                0x000002fc                main
 .text.cfg_write_bytes32
                0x00000364       0x34 .\CortexM0\ARM_GCC_541\Debug\cyfitter_cfg.o
 .text.CYMEMZERO
                0x00000398        0xc .\CortexM0\ARM_GCC_541\Debug\cyfitter_cfg.o
 .text.SetAnalogRoutingPumps
                0x000003a4       0x40 .\CortexM0\ARM_GCC_541\Debug\cyfitter_cfg.o
                0x000003a4                SetAnalogRoutingPumps
 .text.AnalogSetDefault
                0x000003e4       0x28 .\CortexM0\ARM_GCC_541\Debug\cyfitter_cfg.o
 .text.IntDefaultHandler
                0x0000040c       0x10 .\CortexM0\ARM_GCC_541\Debug\Cm0Start.o
                0x0000040c                IntDefaultHandler
 .text._sbrk    0x0000041c       0x30 .\CortexM0\ARM_GCC_541\Debug\Cm0Start.o
                0x0000041c                _sbrk
 .text.Start_c  0x0000044c       0x48 .\CortexM0\ARM_GCC_541\Debug\Cm0Start.o
                0x0000044c                Start_c
 .text.initialize_psoc
                0x00000494       0x4c .\CortexM0\ARM_GCC_541\Debug\Cm0Start.o
                0x00000494                initialize_psoc
 .text.UART_ScbModePostEnable
                0x000004e0        0x8 .\CortexM0\ARM_GCC_541\Debug\Lesson12_CapSense.a(UART.o)
 .text.UART_Init
                0x000004e8        0x8 .\CortexM0\ARM_GCC_541\Debug\Lesson12_CapSense.a(UART.o)
                0x000004e8                UART_Init
 .text.UART_Enable
                0x000004f0       0x18 .\CortexM0\ARM_GCC_541\Debug\Lesson12_CapSense.a(UART.o)
                0x000004f0                UART_Enable
 .text.UART_Start
                0x00000508       0x20 .\CortexM0\ARM_GCC_541\Debug\Lesson12_CapSense.a(UART.o)
                0x00000508                UART_Start
 .text.UART_UartInit
                0x00000528       0xa8 .\CortexM0\ARM_GCC_541\Debug\Lesson12_CapSense.a(UART_UART.o)
                0x00000528                UART_UartInit
 .text.UART_UartPostEnable
                0x000005d0       0x2c .\CortexM0\ARM_GCC_541\Debug\Lesson12_CapSense.a(UART_UART.o)
                0x000005d0                UART_UartPostEnable
 .text.UART_UartPutString
                0x000005fc       0x18 .\CortexM0\ARM_GCC_541\Debug\Lesson12_CapSense.a(UART_UART.o)
                0x000005fc                UART_UartPutString
 .text.CySysClkEcoReadStatus
                0x00000614       0x10 .\CortexM0\ARM_GCC_541\Debug\Lesson12_CapSense.a(CyLib.o)
                0x00000614                CySysClkEcoReadStatus
 .text.CyIntEnable
                0x00000624       0x14 .\CortexM0\ARM_GCC_541\Debug\Lesson12_CapSense.a(CyLib.o)
                0x00000624                CyIntEnable
 .text.CyIntDisable
                0x00000638       0x14 .\CortexM0\ARM_GCC_541\Debug\Lesson12_CapSense.a(CyLib.o)
                0x00000638                CyIntDisable
 .text.CyIntClearPending
                0x0000064c       0x14 .\CortexM0\ARM_GCC_541\Debug\Lesson12_CapSense.a(CyLib.o)
                0x0000064c                CyIntClearPending
 .text.CyHalt   0x00000660        0x4 .\CortexM0\ARM_GCC_541\Debug\Lesson12_CapSense.a(CyLib.o)
                0x00000660                CyHalt
 .text.CyIntSetVector
                0x00000664       0x24 .\CortexM0\ARM_GCC_541\Debug\Lesson12_CapSense.a(CyLib.o)
                0x00000664                CyIntSetVector
 .text.CyIntSetPriority
                0x00000688       0x4c .\CortexM0\ARM_GCC_541\Debug\Lesson12_CapSense.a(CyLib.o)
                0x00000688                CyIntSetPriority
 .text.CyDelayUs
                0x000006d4       0x14 .\CortexM0\ARM_GCC_541\Debug\Lesson12_CapSense.a(CyLib.o)
                0x000006d4                CyDelayUs
 .text.CySysClkWriteImoFreq
                0x000006e8      0x164 .\CortexM0\ARM_GCC_541\Debug\Lesson12_CapSense.a(CyLib.o)
                0x000006e8                CySysClkWriteImoFreq
 .text.CySysClkEcoStart
                0x0000084c       0x54 .\CortexM0\ARM_GCC_541\Debug\Lesson12_CapSense.a(CyLib.o)
                0x0000084c                CySysClkEcoStart
 .text.CySysWdtLocked
                0x000008a0       0x14 .\CortexM0\ARM_GCC_541\Debug\Lesson12_CapSense.a(CyLFClk.o)
 .text.CySysClkWcoStart
                0x000008b4       0x40 .\CortexM0\ARM_GCC_541\Debug\Lesson12_CapSense.a(CyLFClk.o)
                0x000008b4                CySysClkWcoStart
 .text.CySysClkWcoSetPowerMode
                0x000008f4       0x80 .\CortexM0\ARM_GCC_541\Debug\Lesson12_CapSense.a(CyLFClk.o)
                0x000008f4                CySysClkWcoSetPowerMode
 .text.CySysWdtLock
                0x00000974       0x1c .\CortexM0\ARM_GCC_541\Debug\Lesson12_CapSense.a(CyLFClk.o)
                0x00000974                CySysWdtLock
 .text.CySysWdtUnlock
                0x00000990       0x30 .\CortexM0\ARM_GCC_541\Debug\Lesson12_CapSense.a(CyLFClk.o)
                0x00000990                CySysWdtUnlock
 .text.CySysWdtClearInterrupt
                0x000009c0       0x4c .\CortexM0\ARM_GCC_541\Debug\Lesson12_CapSense.a(CyLFClk.o)
                0x000009c0                CySysWdtClearInterrupt
 .text.CySysWdtIsr
                0x00000a0c       0xa4 .\CortexM0\ARM_GCC_541\Debug\Lesson12_CapSense.a(CyLFClk.o)
                0x00000a0c                CySysWdtIsr
 .text.CapSense_CsdHwBlockInit
                0x00000ab0       0x7c .\CortexM0\ARM_GCC_541\Debug\Lesson12_CapSense.a(CapSense.o)
                0x00000ab0                CapSense_CsdHwBlockInit
 .text.CapSense_Enable
                0x00000b2c       0x40 .\CortexM0\ARM_GCC_541\Debug\Lesson12_CapSense.a(CapSense.o)
                0x00000b2c                CapSense_Enable
 .text.CapSense_IsBusy
                0x00000b6c       0x10 .\CortexM0\ARM_GCC_541\Debug\Lesson12_CapSense.a(CapSense.o)
                0x00000b6c                CapSense_IsBusy
 .text.CapSense_ReadSensorRaw
                0x00000b7c       0x10 .\CortexM0\ARM_GCC_541\Debug\Lesson12_CapSense.a(CapSense.o)
                0x00000b7c                CapSense_ReadSensorRaw
 .text.CapSense_EnableSensor
                0x00000b8c       0x48 .\CortexM0\ARM_GCC_541\Debug\Lesson12_CapSense.a(CapSense.o)
                0x00000b8c                CapSense_EnableSensor
 .text.CapSense_DisableSensor
                0x00000bd4       0x70 .\CortexM0\ARM_GCC_541\Debug\Lesson12_CapSense.a(CapSense.o)
                0x00000bd4                CapSense_DisableSensor
 .text.CapSense_ClearSensors
                0x00000c44       0x14 .\CortexM0\ARM_GCC_541\Debug\Lesson12_CapSense.a(CapSense.o)
                0x00000c44                CapSense_ClearSensors
 .text.CapSense_SetShieldDelay
                0x00000c58       0x18 .\CortexM0\ARM_GCC_541\Debug\Lesson12_CapSense.a(CapSense.o)
                0x00000c58                CapSense_SetShieldDelay
 .text.CapSense_GetBitValue
                0x00000c70       0x18 .\CortexM0\ARM_GCC_541\Debug\Lesson12_CapSense.a(CapSense.o)
                0x00000c70                CapSense_GetBitValue
 .text.CapSense_FindNextSensor
                0x00000c88       0x24 .\CortexM0\ARM_GCC_541\Debug\Lesson12_CapSense.a(CapSense.o)
                0x00000c88                CapSense_FindNextSensor
 .text.CapSense_PreScan
                0x00000cac      0x10c .\CortexM0\ARM_GCC_541\Debug\Lesson12_CapSense.a(CapSense.o)
                0x00000cac                CapSense_PreScan
 .text.CapSense_ScanSensor
                0x00000db8       0x1c .\CortexM0\ARM_GCC_541\Debug\Lesson12_CapSense.a(CapSense.o)
                0x00000db8                CapSense_ScanSensor
 .text.CapSense_ScanEnabledWidgets
                0x00000dd4       0x38 .\CortexM0\ARM_GCC_541\Debug\Lesson12_CapSense.a(CapSense.o)
                0x00000dd4                CapSense_ScanEnabledWidgets
 .text.CapSense_PostScan
                0x00000e0c       0x90 .\CortexM0\ARM_GCC_541\Debug\Lesson12_CapSense.a(CapSense.o)
                0x00000e0c                CapSense_PostScan
 .text.CapSense_SetBitValue
                0x00000e9c       0x28 .\CortexM0\ARM_GCC_541\Debug\Lesson12_CapSense.a(CapSense.o)
                0x00000e9c                CapSense_SetBitValue
 .text.CapSense_GetSensorRaw
                0x00000ec4       0x2c .\CortexM0\ARM_GCC_541\Debug\Lesson12_CapSense.a(CapSense.o)
                0x00000ec4                CapSense_GetSensorRaw
 .text.CapSense_SetUnscannedSensorState
                0x00000ef0        0xc .\CortexM0\ARM_GCC_541\Debug\Lesson12_CapSense.a(CapSense.o)
                0x00000ef0                CapSense_SetUnscannedSensorState
 .text.CapSense_Init
                0x00000efc       0x24 .\CortexM0\ARM_GCC_541\Debug\Lesson12_CapSense.a(CapSense.o)
                0x00000efc                CapSense_Init
 .text.CapSense_Start
                0x00000f20       0x38 .\CortexM0\ARM_GCC_541\Debug\Lesson12_CapSense.a(CapSense.o)
                0x00000f20                CapSense_Start
 .text.CapSense_NormalizeWidgets
                0x00000f58       0x40 .\CortexM0\ARM_GCC_541\Debug\Lesson12_CapSense.a(CapSense.o)
                0x00000f58                CapSense_NormalizeWidgets
 .text.CapSense_BaseInit
                0x00000f98       0x24 .\CortexM0\ARM_GCC_541\Debug\Lesson12_CapSense.a(CapSense_CSHL.o)
                0x00000f98                CapSense_BaseInit
 .text.CapSense_InitializeEnabledBaselines
                0x00000fbc       0x30 .\CortexM0\ARM_GCC_541\Debug\Lesson12_CapSense.a(CapSense_CSHL.o)
                0x00000fbc                CapSense_InitializeEnabledBaselines
 .text.CapSense_FindMaximum
                0x00000fec       0x2c .\CortexM0\ARM_GCC_541\Debug\Lesson12_CapSense.a(CapSense_CSHL.o)
                0x00000fec                CapSense_FindMaximum
 .text.CapSense_CalcCentroid
                0x00001018       0xe4 .\CortexM0\ARM_GCC_541\Debug\Lesson12_CapSense.a(CapSense_CSHL.o)
                0x00001018                CapSense_CalcCentroid
 .text.CapSense_IIR4Filter
                0x000010fc        0xc .\CortexM0\ARM_GCC_541\Debug\Lesson12_CapSense.a(CapSense_CSHL.o)
                0x000010fc                CapSense_IIR4Filter
 .text.CapSense_UpdateBaselineNoThreshold
                0x00001108      0x120 .\CortexM0\ARM_GCC_541\Debug\Lesson12_CapSense.a(CapSense_CSHL.o)
                0x00001108                CapSense_UpdateBaselineNoThreshold
 .text.CapSense_UpdateSensorBaseline
                0x00001228       0x10 .\CortexM0\ARM_GCC_541\Debug\Lesson12_CapSense.a(CapSense_CSHL.o)
                0x00001228                CapSense_UpdateSensorBaseline
 .text.CapSense_UpdateEnabledBaselines
                0x00001238       0x24 .\CortexM0\ARM_GCC_541\Debug\Lesson12_CapSense.a(CapSense_CSHL.o)
                0x00001238                CapSense_UpdateEnabledBaselines
 .text.CapSense_GetCentroidPos
                0x0000125c       0x7c .\CortexM0\ARM_GCC_541\Debug\Lesson12_CapSense.a(CapSense_CSHL.o)
                0x0000125c                CapSense_GetCentroidPos
 .text.CapSense_ISR
                0x000012d8       0x9c .\CortexM0\ARM_GCC_541\Debug\Lesson12_CapSense.a(CapSense_INT.o)
                0x000012d8                CapSense_ISR
 .text.CapSense_UpdateThresholds
                0x00001374       0x74 .\CortexM0\ARM_GCC_541\Debug\Lesson12_CapSense.a(CapSense_SMS.o)
                0x00001374                CapSense_UpdateThresholds
 .text.CapSense_SetAnalogSwitchesSrcDirect
                0x000013e8       0x10 .\CortexM0\ARM_GCC_541\Debug\Lesson12_CapSense.a(CapSense_SMS.o)
                0x000013e8                CapSense_SetAnalogSwitchesSrcDirect
 .text.CapSense_DisableBaselineIDAC
                0x000013f8       0x1c .\CortexM0\ARM_GCC_541\Debug\Lesson12_CapSense.a(CapSense_SMS.o)
                0x000013f8                CapSense_DisableBaselineIDAC
 .text.CapSense_EnableBaselineIDAC
                0x00001414       0x50 .\CortexM0\ARM_GCC_541\Debug\Lesson12_CapSense.a(CapSense_SMS.o)
                0x00001414                CapSense_EnableBaselineIDAC
 .text.CapSense_AutoTune
                0x00001464       0xbc .\CortexM0\ARM_GCC_541\Debug\Lesson12_CapSense.a(CapSense_SMS.o)
                0x00001464                CapSense_AutoTune
 .text.CapSense_SampleClk_StartEx
                0x00001520       0x1c .\CortexM0\ARM_GCC_541\Debug\Lesson12_CapSense.a(CapSense_SampleClk.o)
                0x00001520                CapSense_SampleClk_StartEx
 .text.CapSense_SampleClk_Stop
                0x0000153c       0x18 .\CortexM0\ARM_GCC_541\Debug\Lesson12_CapSense.a(CapSense_SampleClk.o)
                0x0000153c                CapSense_SampleClk_Stop
 .text.CapSense_SampleClk_SetFractionalDividerRegister
                0x00001554       0x20 .\CortexM0\ARM_GCC_541\Debug\Lesson12_CapSense.a(CapSense_SampleClk.o)
                0x00001554                CapSense_SampleClk_SetFractionalDividerRegister
 .text.CapSense_SenseClk_StartEx
                0x00001574       0x1c .\CortexM0\ARM_GCC_541\Debug\Lesson12_CapSense.a(CapSense_SenseClk.o)
                0x00001574                CapSense_SenseClk_StartEx
 .text.CapSense_SenseClk_Stop
                0x00001590       0x18 .\CortexM0\ARM_GCC_541\Debug\Lesson12_CapSense.a(CapSense_SenseClk.o)
                0x00001590                CapSense_SenseClk_Stop
 .text.CapSense_SenseClk_SetFractionalDividerRegister
                0x000015a8       0x20 .\CortexM0\ARM_GCC_541\Debug\Lesson12_CapSense.a(CapSense_SenseClk.o)
                0x000015a8                CapSense_SenseClk_SetFractionalDividerRegister
 .text.LED_PWM_WriteCounter
                0x000015c8       0x10 .\CortexM0\ARM_GCC_541\Debug\Lesson12_CapSense.a(LED_PWM.o)
                0x000015c8                LED_PWM_WriteCounter
 .text.LED_PWM_WritePeriod
                0x000015d8       0x10 .\CortexM0\ARM_GCC_541\Debug\Lesson12_CapSense.a(LED_PWM.o)
                0x000015d8                LED_PWM_WritePeriod
 .text.LED_PWM_WriteCompare
                0x000015e8       0x10 .\CortexM0\ARM_GCC_541\Debug\Lesson12_CapSense.a(LED_PWM.o)
                0x000015e8                LED_PWM_WriteCompare
 .text.LED_PWM_TriggerCommand
                0x000015f8       0x1c .\CortexM0\ARM_GCC_541\Debug\Lesson12_CapSense.a(LED_PWM.o)
                0x000015f8                LED_PWM_TriggerCommand
 .text.LED_PWM_Enable
                0x00001614       0x24 .\CortexM0\ARM_GCC_541\Debug\Lesson12_CapSense.a(LED_PWM.o)
                0x00001614                LED_PWM_Enable
 .text.LED_PWM_SetInterruptMode
                0x00001638        0xc .\CortexM0\ARM_GCC_541\Debug\Lesson12_CapSense.a(LED_PWM.o)
                0x00001638                LED_PWM_SetInterruptMode
 .text.LED_PWM_Init
                0x00001644       0x44 .\CortexM0\ARM_GCC_541\Debug\Lesson12_CapSense.a(LED_PWM.o)
                0x00001644                LED_PWM_Init
 .text.LED_PWM_Start
                0x00001688       0x20 .\CortexM0\ARM_GCC_541\Debug\Lesson12_CapSense.a(LED_PWM.o)
                0x00001688                LED_PWM_Start
 .text          0x000016a8       0x20 .\CortexM0\ARM_GCC_541\Debug\Lesson12_CapSense.a(CyBootAsmGnu.o)
                0x000016a8                CyDelayCycles
                0x000016ba                CyEnterCriticalSection
                0x000016c2                CyExitCriticalSection
 .text.UART_SpiUartWriteTxData
                0x000016c8       0x1c .\CortexM0\ARM_GCC_541\Debug\Lesson12_CapSense.a(UART_SPI_UART.o)
                0x000016c8                UART_SpiUartWriteTxData
 .text.CalibrateOneDAC_P4_v2_60
                0x000016e4       0x40 C:\Program Files (x86)\Cypress\PSoC Creator\4.2\PSoC Creator\psoc\content\CyComponentLibrary\CyComponentLibrary.cylib\CapSense_CSD_P4_v2_60\PSoC4\Library\CapsenseP4Library_GCC.a(CSD_P4_SmartSense_v2_60.o)
                0x000016e4                CalibrateOneDAC_P4_v2_60
 .text.CalibrateSensors_P4_v2_60
                0x00001724       0x22 C:\Program Files (x86)\Cypress\PSoC Creator\4.2\PSoC Creator\psoc\content\CyComponentLibrary\CyComponentLibrary.cylib\CapSense_CSD_P4_v2_60\PSoC4\Library\CapsenseP4Library_GCC.a(CSD_P4_SmartSense_v2_60.o)
                0x00001724                CalibrateSensors_P4_v2_60
 .text.TunePrescalers_P4_v2_60
                0x00001746       0x42 C:\Program Files (x86)\Cypress\PSoC Creator\4.2\PSoC Creator\psoc\content\CyComponentLibrary\CyComponentLibrary.cylib\CapSense_CSD_P4_v2_60\PSoC4\Library\CapsenseP4Library_GCC.a(CSD_P4_SmartSense_v2_60.o)
                0x00001746                TunePrescalers_P4_v2_60
 .text.TuneSensitivity_P4_v2_60
                0x00001788       0xdc C:\Program Files (x86)\Cypress\PSoC Creator\4.2\PSoC Creator\psoc\content\CyComponentLibrary\CyComponentLibrary.cylib\CapSense_CSD_P4_v2_60\PSoC4\Library\CapsenseP4Library_GCC.a(CSD_P4_SmartSense_v2_60.o)
                0x00001788                TuneSensitivity_P4_v2_60
 .text.MeasureNoiseEnvelope_P4_v2_60
                0x00001864       0xfc C:\Program Files (x86)\Cypress\PSoC Creator\4.2\PSoC Creator\psoc\content\CyComponentLibrary\CyComponentLibrary.cylib\CapSense_CSD_P4_v2_60\PSoC4\Library\CapsenseP4Library_GCC.a(CSD_P4_SmartSense_v2_60.o)
                0x00001864                MeasureNoiseEnvelope_P4_v2_60
 .text.CalculateThresholds_P4_v2_60
                0x00001960       0x36 C:\Program Files (x86)\Cypress\PSoC Creator\4.2\PSoC Creator\psoc\content\CyComponentLibrary\CyComponentLibrary.cylib\CapSense_CSD_P4_v2_60\PSoC4\Library\CapsenseP4Library_GCC.a(CSD_P4_SmartSense_v2_60.o)
                0x00001960                CalculateThresholds_P4_v2_60
 *fill*         0x00001996        0x2 
 .text          0x00001998      0x114 c:/program files (x86)/cypress/psoc creator/4.2/psoc creator/import/gnu/arm/5.4.1/bin/../lib/gcc/arm-none-eabi/5.4.1/armv6-m\libgcc.a(_udivsi3.o)
                0x00001998                __aeabi_uidiv
                0x00001998                __udivsi3
                0x00001aa4                __aeabi_uidivmod
 .text          0x00001aac      0x1d4 c:/program files (x86)/cypress/psoc creator/4.2/psoc creator/import/gnu/arm/5.4.1/bin/../lib/gcc/arm-none-eabi/5.4.1/armv6-m\libgcc.a(_divsi3.o)
                0x00001aac                __divsi3
                0x00001aac                __aeabi_idiv
                0x00001c78                __aeabi_idivmod
 .text          0x00001c80        0x4 c:/program files (x86)/cypress/psoc creator/4.2/psoc creator/import/gnu/arm/5.4.1/bin/../lib/gcc/arm-none-eabi/5.4.1/armv6-m\libgcc.a(_dvmd_tls.o)
                0x00001c80                __aeabi_idiv0
                0x00001c80                __aeabi_ldiv0
 .text.__errno  0x00001c84        0xc c:/program files (x86)/cypress/psoc creator/4.2/psoc creator/import/gnu/arm/5.4.1/bin/../lib/gcc/arm-none-eabi/5.4.1/../../../../arm-none-eabi/lib/armv6-m\libg_nano.a(lib_a-errno.o)
                0x00001c84                __errno
 .text.__libc_init_array
                0x00001c90       0x4c c:/program files (x86)/cypress/psoc creator/4.2/psoc creator/import/gnu/arm/5.4.1/bin/../lib/gcc/arm-none-eabi/5.4.1/../../../../arm-none-eabi/lib/armv6-m\libg_nano.a(lib_a-init.o)
                0x00001c90                __libc_init_array
 .text.memset   0x00001cdc       0x10 c:/program files (x86)/cypress/psoc creator/4.2/psoc creator/import/gnu/arm/5.4.1/bin/../lib/gcc/arm-none-eabi/5.4.1/../../../../arm-none-eabi/lib/armv6-m\libg_nano.a(lib_a-memset.o)
                0x00001cdc                memset
 .text.sprintf  0x00001cec       0x44 c:/program files (x86)/cypress/psoc creator/4.2/psoc creator/import/gnu/arm/5.4.1/bin/../lib/gcc/arm-none-eabi/5.4.1/../../../../arm-none-eabi/lib/armv6-m\libg_nano.a(lib_a-sprintf.o)
                0x00001cec                siprintf
                0x00001cec                sprintf
 .text.__ssputs_r
                0x00001d30       0xc4 c:/program files (x86)/cypress/psoc creator/4.2/psoc creator/import/gnu/arm/5.4.1/bin/../lib/gcc/arm-none-eabi/5.4.1/../../../../arm-none-eabi/lib/armv6-m\libg_nano.a(lib_a-nano-svfprintf.o)
                0x00001d30                __ssputs_r
 .text._svfprintf_r
                0x00001df4      0x1fc c:/program files (x86)/cypress/psoc creator/4.2/psoc creator/import/gnu/arm/5.4.1/bin/../lib/gcc/arm-none-eabi/5.4.1/../../../../arm-none-eabi/lib/armv6-m\libg_nano.a(lib_a-nano-svfprintf.o)
                0x00001df4                _svfiprintf_r
                0x00001df4                _svfprintf_r
 .text._printf_common
                0x00001ff0       0xdc c:/program files (x86)/cypress/psoc creator/4.2/psoc creator/import/gnu/arm/5.4.1/bin/../lib/gcc/arm-none-eabi/5.4.1/../../../../arm-none-eabi/lib/armv6-m\libg_nano.a(lib_a-nano-vfprintf_i.o)
                0x00001ff0                _printf_common
 .text._printf_i
                0x000020cc      0x244 c:/program files (x86)/cypress/psoc creator/4.2/psoc creator/import/gnu/arm/5.4.1/bin/../lib/gcc/arm-none-eabi/5.4.1/../../../../arm-none-eabi/lib/armv6-m\libg_nano.a(lib_a-nano-vfprintf_i.o)
                0x000020cc                _printf_i
 .text.memchr   0x00002310       0x16 c:/program files (x86)/cypress/psoc creator/4.2/psoc creator/import/gnu/arm/5.4.1/bin/../lib/gcc/arm-none-eabi/5.4.1/../../../../arm-none-eabi/lib/armv6-m\libg_nano.a(lib_a-memchr-stub.o)
                0x00002310                memchr
 .text.memcpy   0x00002326       0x12 c:/program files (x86)/cypress/psoc creator/4.2/psoc creator/import/gnu/arm/5.4.1/bin/../lib/gcc/arm-none-eabi/5.4.1/../../../../arm-none-eabi/lib/armv6-m\libg_nano.a(lib_a-memcpy-stub.o)
                0x00002326                memcpy
 .text.memmove  0x00002338       0x2a c:/program files (x86)/cypress/psoc creator/4.2/psoc creator/import/gnu/arm/5.4.1/bin/../lib/gcc/arm-none-eabi/5.4.1/../../../../arm-none-eabi/lib/armv6-m\libg_nano.a(lib_a-memmove.o)
                0x00002338                memmove
 *fill*         0x00002362        0x2 
 .text._free_r  0x00002364       0x98 c:/program files (x86)/cypress/psoc creator/4.2/psoc creator/import/gnu/arm/5.4.1/bin/../lib/gcc/arm-none-eabi/5.4.1/../../../../arm-none-eabi/lib/armv6-m\libg_nano.a(lib_a-nano-freer.o)
                0x00002364                _free_r
 .text._malloc_r
                0x000023fc       0xc0 c:/program files (x86)/cypress/psoc creator/4.2/psoc creator/import/gnu/arm/5.4.1/bin/../lib/gcc/arm-none-eabi/5.4.1/../../../../arm-none-eabi/lib/armv6-m\libg_nano.a(lib_a-nano-mallocr.o)
                0x000023fc                _malloc_r
 .text._realloc_r
                0x000024bc       0x4c c:/program files (x86)/cypress/psoc creator/4.2/psoc creator/import/gnu/arm/5.4.1/bin/../lib/gcc/arm-none-eabi/5.4.1/../../../../arm-none-eabi/lib/armv6-m\libg_nano.a(lib_a-nano-reallocr.o)
                0x000024bc                _realloc_r
 .text._sbrk_r  0x00002508       0x24 c:/program files (x86)/cypress/psoc creator/4.2/psoc creator/import/gnu/arm/5.4.1/bin/../lib/gcc/arm-none-eabi/5.4.1/../../../../arm-none-eabi/lib/armv6-m\libg_nano.a(lib_a-sbrkr.o)
                0x00002508                _sbrk_r
 .text.__malloc_lock
                0x0000252c        0x2 c:/program files (x86)/cypress/psoc creator/4.2/psoc creator/import/gnu/arm/5.4.1/bin/../lib/gcc/arm-none-eabi/5.4.1/../../../../arm-none-eabi/lib/armv6-m\libg_nano.a(lib_a-mlock.o)
                0x0000252c                __malloc_lock
 .text.__malloc_unlock
                0x0000252e        0x2 c:/program files (x86)/cypress/psoc creator/4.2/psoc creator/import/gnu/arm/5.4.1/bin/../lib/gcc/arm-none-eabi/5.4.1/../../../../arm-none-eabi/lib/armv6-m\libg_nano.a(lib_a-mlock.o)
                0x0000252e                __malloc_unlock
 .text._malloc_usable_size_r
                0x00002530       0x16 c:/program files (x86)/cypress/psoc creator/4.2/psoc creator/import/gnu/arm/5.4.1/bin/../lib/gcc/arm-none-eabi/5.4.1/../../../../arm-none-eabi/lib/armv6-m\libg_nano.a(lib_a-nano-msizer.o)
                0x00002530                _malloc_usable_size_r
 *(.plt)
 *(.gnu.warning)
 *(.glue_7t)
 .glue_7t       0x00002546        0x0 linker stubs
 *(.glue_7)
 .glue_7        0x00002546        0x0 linker stubs
 *(.vfp11_veneer)
 .vfp11_veneer  0x00002546        0x0 linker stubs
 *(.bootloader)
 *(.ARM.extab* .gnu.linkonce.armextab.*)
 *(.gcc_except_table)

.v4_bx          0x00002548        0x0
 .v4_bx         0x00002548        0x0 linker stubs

.iplt           0x00002548        0x0
 .iplt          0x00002548        0x0 c:/program files (x86)/cypress/psoc creator/4.2/psoc creator/import/gnu/arm/5.4.1/bin/../lib/gcc/arm-none-eabi/5.4.1/armv6-m/crtbegin.o

.eh_frame_hdr
 *(.eh_frame_hdr)

.eh_frame       0x00002548        0x4
 *(.eh_frame)
 .eh_frame      0x00002548        0x0 c:/program files (x86)/cypress/psoc creator/4.2/psoc creator/import/gnu/arm/5.4.1/bin/../lib/gcc/arm-none-eabi/5.4.1/armv6-m/crtbegin.o
 .eh_frame      0x00002548        0x4 c:/program files (x86)/cypress/psoc creator/4.2/psoc creator/import/gnu/arm/5.4.1/bin/../lib/gcc/arm-none-eabi/5.4.1/armv6-m/crtend.o
                [!provide]                PROVIDE (__exidx_start, .)

.ARM.exidx
 *(.ARM.exidx* .gnu.linkonce.armexidx.*)
                0x0000254c                __exidx_end = .

.rodata         0x0000254c      0x1f4
 *(.rodata .rodata.* .gnu.linkonce.r.*)
 .rodata.str1.4
                0x0000254c        0x8 .\CortexM0\ARM_GCC_541\Debug\main.o
                                  0x6 (size before relaxing)
 .rodata        0x00002554       0x58 .\CortexM0\ARM_GCC_541\Debug\cyfitter_cfg.o
 .rodata        0x000025ac       0x2e .\CortexM0\ARM_GCC_541\Debug\Lesson12_CapSense.a(CyLib.o)
                0x000025ac                cyImoFreqMhz2Reg
 *fill*         0x000025da        0x2 
 .rodata        0x000025dc       0x80 .\CortexM0\ARM_GCC_541\Debug\Lesson12_CapSense.a(CapSense.o)
                0x000025dc                CapSense_portTable
                0x000025e4                CapSense_pinShiftTbl
                0x000025ec                CapSense_prtSelTbl
                0x00002608                CapSense_prtCfgTbl
                0x00002624                CapSense_prtDRTbl
                0x00002640                CapSense_widgetNumber
                0x00002648                CapSense_maskTable
 .rodata        0x0000265c        0x5 .\CortexM0\ARM_GCC_541\Debug\Lesson12_CapSense.a(CapSense_CSHL.o)
                0x0000265c                CapSense_numberOfSensors
                0x00002660                CapSense_rawDataIndex
 *fill*         0x00002661        0x3 
 .rodata        0x00002664       0x6c .\CortexM0\ARM_GCC_541\Debug\Lesson12_CapSense.a(CapSense_SMS.o)
                0x00002664                CapSense_configPointers
                0x000026c0                CapSense_prescalerTable
 .rodata.str1.1
                0x000026d0        0x2 c:/program files (x86)/cypress/psoc creator/4.2/psoc creator/import/gnu/arm/5.4.1/bin/../lib/gcc/arm-none-eabi/5.4.1/../../../../arm-none-eabi/lib/armv6-m\libg_nano.a(lib_a-impure.o)
 .rodata.str1.1
                0x000026d2       0x11 c:/program files (x86)/cypress/psoc creator/4.2/psoc creator/import/gnu/arm/5.4.1/bin/../lib/gcc/arm-none-eabi/5.4.1/../../../../arm-none-eabi/lib/armv6-m\libg_nano.a(lib_a-nano-svfprintf.o)
 .rodata.str1.1
                0x000026e3       0x22 c:/program files (x86)/cypress/psoc creator/4.2/psoc creator/import/gnu/arm/5.4.1/bin/../lib/gcc/arm-none-eabi/5.4.1/../../../../arm-none-eabi/lib/armv6-m\libg_nano.a(lib_a-nano-vfprintf_i.o)
                0x00002708                . = ALIGN (0x4)
 *fill*         0x00002705        0x3 
 *(.init)
 .init          0x00002708        0x4 c:/program files (x86)/cypress/psoc creator/4.2/psoc creator/import/gnu/arm/5.4.1/bin/../lib/gcc/arm-none-eabi/5.4.1/armv6-m/crti.o
                0x00002708                _init
 .init          0x0000270c        0x8 c:/program files (x86)/cypress/psoc creator/4.2/psoc creator/import/gnu/arm/5.4.1/bin/../lib/gcc/arm-none-eabi/5.4.1/armv6-m/crtn.o
                0x00002714                . = ALIGN (0x4)
                0x00002714                __preinit_array_start = .
 *(.preinit_array)
                0x00002714                __preinit_array_end = .
                0x00002714                . = ALIGN (0x4)
                0x00002714                __init_array_start = .
 *(SORT(.init_array.*))
 *(.init_array)
 .init_array    0x00002714        0x4 c:/program files (x86)/cypress/psoc creator/4.2/psoc creator/import/gnu/arm/5.4.1/bin/../lib/gcc/arm-none-eabi/5.4.1/armv6-m/crtbegin.o
 .init_array    0x00002718        0x4 .\CortexM0\ARM_GCC_541\Debug\Cm0Start.o
                0x0000271c                __init_array_end = .
                0x0000271c                . = ALIGN (0x4)
 *(.fini)
 .fini          0x0000271c        0x4 c:/program files (x86)/cypress/psoc creator/4.2/psoc creator/import/gnu/arm/5.4.1/bin/../lib/gcc/arm-none-eabi/5.4.1/armv6-m/crti.o
                0x0000271c                _fini
 .fini          0x00002720        0x8 c:/program files (x86)/cypress/psoc creator/4.2/psoc creator/import/gnu/arm/5.4.1/bin/../lib/gcc/arm-none-eabi/5.4.1/armv6-m/crtn.o
                0x00002728                . = ALIGN (0x4)
                0x00002728                __fini_array_start = .
 *(.fini_array)
 .fini_array    0x00002728        0x4 c:/program files (x86)/cypress/psoc creator/4.2/psoc creator/import/gnu/arm/5.4.1/bin/../lib/gcc/arm-none-eabi/5.4.1/armv6-m/crtbegin.o
 *(SORT(.fini_array.*))
                0x0000272c                __fini_array_end = .
                0x0000272c                . = ALIGN (0x4)
 *crtbegin.o(.ctors)
 *(EXCLUDE_FILE(*crtend.o) .ctors)
 *(SORT(.ctors.*))
 *crtend.o(.ctors)
                0x0000272c                . = ALIGN (0x4)
 *crtbegin.o(.dtors)
 *(EXCLUDE_FILE(*crtend.o) .dtors)
 *(SORT(.dtors.*))
 *crtend.o(.dtors)
                0x0000272c                . = ALIGN (0x4)
                0x0000272c                __cy_regions = .
                0x0000272c        0x4 LONG 0x2740 __cy_region_init_ram
                0x00002730        0x4 LONG 0x200000c0 __cy_region_start_data
                0x00002734        0x4 LONG 0xc0 __cy_region_init_size_ram
                0x00002738        0x4 LONG 0x140 __cy_region_zero_size_ram
                0x0000273c                __cy_regions_end = .
                0x00002740                . = ALIGN (0x8)
 *fill*         0x0000273c        0x4 
                0x00002740                _etext = .

.cy_checksum_exclude
                0x00002740        0x0
 *(.cy_checksum_exclude)

.ramvectors     0x20000000       0xc0
                0x20000000                __cy_region_start_ram = .
 *(.ramvectors)
 .ramvectors    0x20000000       0xc0 .\CortexM0\ARM_GCC_541\Debug\Cm0Start.o
                0x20000000                CyRamVectors

.noinit
 *(.noinit)

.data           0x200000c0       0xc0 load address 0x00002740
                0x200000c0                __cy_region_start_data = .
 *(.jcr)
 .jcr           0x200000c0        0x0 c:/program files (x86)/cypress/psoc creator/4.2/psoc creator/import/gnu/arm/5.4.1/bin/../lib/gcc/arm-none-eabi/5.4.1/armv6-m/crtbegin.o
 .jcr           0x200000c0        0x4 c:/program files (x86)/cypress/psoc creator/4.2/psoc creator/import/gnu/arm/5.4.1/bin/../lib/gcc/arm-none-eabi/5.4.1/armv6-m/crtend.o
 *(.got.plt)
 *(.got)
 *(.shdata)
 *(.data .data.* .gnu.linkonce.d.*)
 .data          0x200000c4        0x4 .\CortexM0\ARM_GCC_541\Debug\Cm0Start.o
 .data          0x200000c8       0x14 .\CortexM0\ARM_GCC_541\Debug\Lesson12_CapSense.a(CyLib.o)
                0x200000c8                CySysClkPumpConfig
                0x200000cc                cydelay32kMs
                0x200000d0                cydelayFreqKhz
                0x200000d4                cydelayFreqMhz
                0x200000d8                cydelayFreqHz
 .data          0x200000dc        0x8 .\CortexM0\ARM_GCC_541\Debug\Lesson12_CapSense.a(CyLFClk.o)
 .data          0x200000e4       0x1c .\CortexM0\ARM_GCC_541\Debug\Lesson12_CapSense.a(CapSense.o)
                0x200000e4                CapSense_widgetResolution
                0x200000e8                CapSense_sensorEnableMask
                0x200000ec                CapSense_pcTable
 .data          0x20000100        0xf .\CortexM0\ARM_GCC_541\Debug\Lesson12_CapSense.a(CapSense_CSHL.o)
                0x20000100                CapSense_debounce
                0x20000104                CapSense_lowBaselineReset
                0x20000109                CapSense_enableRawFilters
 *fill*         0x2000010f        0x1 
 .data          0x20000110        0x5 .\CortexM0\ARM_GCC_541\Debug\Lesson12_CapSense.a(CapSense_SMS.o)
                0x20000110                CapSense_sensorSensitivity
 *fill*         0x20000115        0x3 
 .data.impure_data
                0x20000118       0x60 c:/program files (x86)/cypress/psoc creator/4.2/psoc creator/import/gnu/arm/5.4.1/bin/../lib/gcc/arm-none-eabi/5.4.1/../../../../arm-none-eabi/lib/armv6-m\libg_nano.a(lib_a-impure.o)
 .data._impure_ptr
                0x20000178        0x4 c:/program files (x86)/cypress/psoc creator/4.2/psoc creator/import/gnu/arm/5.4.1/bin/../lib/gcc/arm-none-eabi/5.4.1/../../../../arm-none-eabi/lib/armv6-m\libg_nano.a(lib_a-impure.o)
                0x20000178                _impure_ptr
                0x20000180                . = ALIGN (0x8)
 *fill*         0x2000017c        0x4 
 *(.ram)
                0x20000180                _edata = .

.igot.plt       0x20000180        0x0 load address 0x00002800
 .igot.plt      0x20000180        0x0 c:/program files (x86)/cypress/psoc creator/4.2/psoc creator/import/gnu/arm/5.4.1/bin/../lib/gcc/arm-none-eabi/5.4.1/armv6-m/crtbegin.o

.bss            0x20000180      0x140 load address 0x00002800
                0x20000180                PROVIDE (__bss_start__, .)
 *(.shbss)
 *(.bss .bss.* .gnu.linkonce.b.*)
 .bss           0x20000180       0x1c c:/program files (x86)/cypress/psoc creator/4.2/psoc creator/import/gnu/arm/5.4.1/bin/../lib/gcc/arm-none-eabi/5.4.1/armv6-m/crtbegin.o
 .bss           0x2000019c        0x4 .\CortexM0\ARM_GCC_541\Debug\Lesson12_CapSense.a(UART.o)
                0x2000019c                UART_initVar
                0x2000019e                UART_IntrTxMask
 .bss           0x200001a0       0x28 .\CortexM0\ARM_GCC_541\Debug\Lesson12_CapSense.a(CyLFClk.o)
 .bss           0x200001c8       0x11 .\CortexM0\ARM_GCC_541\Debug\Lesson12_CapSense.a(CapSense.o)
                0x200001c8                CapSense_csdStatusVar
                0x200001cc                CapSense_sensorRaw
                0x200001d6                CapSense_sensorIndex
                0x200001d8                CapSense_lowLevelTuningDone
 *fill*         0x200001d9        0x3 
 .bss           0x200001dc       0x27 .\CortexM0\ARM_GCC_541\Debug\Lesson12_CapSense.a(CapSense_CSHL.o)
                0x200001dc                CapSense_sensorBaseline
                0x200001e8                CapSense_sensorBaselineLow
                0x200001f0                CapSense_sensorSignal
                0x200001fc                CapSense_sensorOnMask
 .bss           0x20000203        0x1 .\CortexM0\ARM_GCC_541\Debug\Lesson12_CapSense.a(CapSense_INT.o)
 .bss           0x20000204        0x1 .\CortexM0\ARM_GCC_541\Debug\Lesson12_CapSense.a(LED_PWM.o)
                0x20000204                LED_PWM_initVar
 *fill*         0x20000205        0x3 
 .bss.__malloc_sbrk_start
                0x20000208        0x4 c:/program files (x86)/cypress/psoc creator/4.2/psoc creator/import/gnu/arm/5.4.1/bin/../lib/gcc/arm-none-eabi/5.4.1/../../../../arm-none-eabi/lib/armv6-m\libg_nano.a(lib_a-nano-mallocr.o)
                0x20000208                __malloc_sbrk_start
 .bss.__malloc_free_list
                0x2000020c        0x4 c:/program files (x86)/cypress/psoc creator/4.2/psoc creator/import/gnu/arm/5.4.1/bin/../lib/gcc/arm-none-eabi/5.4.1/../../../../arm-none-eabi/lib/armv6-m\libg_nano.a(lib_a-nano-mallocr.o)
                0x2000020c                __malloc_free_list
 *(COMMON)
 COMMON         0x20000210       0x31 .\CortexM0\ARM_GCC_541\Debug\Lesson12_CapSense.a(CapSense.o)
                0x20000210                CapSense_csdTrim1
                0x20000214                CapSense_scanSpeedTbl
                0x20000218                CapSense_sensorEnableMaskBackup
                0x2000021c                CapSense_senseClkDividerVal
                0x20000224                CapSense_modulationIDAC
                0x2000022c                CapSense_compensationIDAC
                0x20000234                CapSense_unscannedSnsDriveMode
                0x2000023c                CapSense_sampleClkDividerVal
 *fill*         0x20000241        0x3 
 COMMON         0x20000244       0x21 .\CortexM0\ARM_GCC_541\Debug\Lesson12_CapSense.a(CapSense_CSHL.o)
                0x20000244                CapSense_noiseThreshold
                0x20000248                CapSense_lowBaselineResetCnt
                0x20000250                CapSense_negativeNoiseThreshold
                0x20000254                CapSense_rawFilterData1
                0x20000260                CapSense_hysteresis
                0x20000264                CapSense_fingerThreshold
 *fill*         0x20000265        0x3 
 COMMON         0x20000268       0x4d .\CortexM0\ARM_GCC_541\Debug\Lesson12_CapSense.a(CapSense_SMS.o)
                0x20000268                CapSense_runningDifferenceTbl
                0x20000270                CapSense_signRegisterTbl
                0x20000278                CapSense_sampleMaxTbl
                0x20000284                CapSense_noiseEnvelopeTbl
                0x2000028c                CapSense_previousSampleTbl
                0x20000298                CapSense_sampleMinTbl
                0x200002a4                CapSense_config
                0x200002b0                CapSense_kValueTbl
 *fill*         0x200002b5        0x3 
 COMMON         0x200002b8        0x4 c:/program files (x86)/cypress/psoc creator/4.2/psoc creator/import/gnu/arm/5.4.1/bin/../lib/gcc/arm-none-eabi/5.4.1/../../../../arm-none-eabi/lib/armv6-m\libg_nano.a(lib_a-reent.o)
                0x200002b8                errno
                0x200002c0                . = ALIGN (0x8)
 *fill*         0x200002bc        0x4 
 *(.ram.b)
                0x200002c0                _end = .
                0x200002c0                __end = .
                0x200002c0                PROVIDE (end, .)
                0x200002c0                PROVIDE (__bss_end__, .)
                0x00002740                __cy_region_init_ram = LOADADDR (.data)
                0x000000c0                __cy_region_init_size_ram = (_edata - ADDR (.data))
                0x00000140                __cy_region_zero_size_ram = (_end - _edata)

.heap           0x200002c0       0x80 load address 0x00002800
                0x200002c0                . = _end
                0x20000340                . = (. + 0x80)
 *fill*         0x200002c0       0x80 
                0x20000340                __cy_heap_limit = .

.stack          0x20007800      0x800
                0x20007800                __cy_stack_limit = .
                0x20008000                . = (. + 0x800)
 *fill*         0x20007800      0x800 
                0x00000001                ASSERT ((__cy_stack_limit >= __cy_heap_limit), region RAM overflowed with stack)
                0x00000000                cy_checksum_exclude_size = (CY_APPL_LOADABLE == 0x1)?SIZEOF (.cy_checksum_exclude):0x0
                0x00000001                ASSERT ((cy_checksum_exclude_size <= CY_CHECKSUM_EXCLUDE_SIZE), CY_BOOT: Section .cy_checksum_exclude size exceedes specified limit.)
                0x0003ffc0                cyloadermeta_start = (cy_project_type_bootloader || cy_project_type_app_for_stack_and_copier)?(LENGTH (rom) - CY_METADATA_SIZE):0xf0000000

.cyloadermeta
 *(.cyloadermeta)
                0x0003ffc0                cyloadablemeta_start = cy_project_type_app_for_stack_and_copier?((LENGTH (rom) - CY_FLASH_ROW_SIZE) - CY_METADATA_SIZE):((LENGTH (rom) - (CY_FLASH_ROW_SIZE * (CY_APPL_NUM - 0x1))) - CY_METADATA_SIZE)

.cyloadablemeta
 *(.cyloadablemeta)

.cyflashprotect
                0x90400000       0x80
 *(.cyflashprotect)
 .cyflashprotect
                0x90400000       0x80 .\CortexM0\ARM_GCC_541\Debug\cymetadata.o
                0x90400000                cy_meta_flashprotect

.cymeta         0x90500000        0xc
 *(.cymeta)
 .cymeta        0x90500000        0xc .\CortexM0\ARM_GCC_541\Debug\cymetadata.o
                0x90500000                cy_metadata

.cychipprotect  0x90600000        0x1
 *(.cychipprotect)
 .cychipprotect
                0x90600000        0x1 .\CortexM0\ARM_GCC_541\Debug\cymetadata.o
                0x90600000                cy_meta_chipprotect

.rel.dyn        0x00002800        0x0 load address 0x90600004
 .rel.iplt      0x00002800        0x0 c:/program files (x86)/cypress/psoc creator/4.2/psoc creator/import/gnu/arm/5.4.1/bin/../lib/gcc/arm-none-eabi/5.4.1/armv6-m/crtbegin.o

.stab
 *(.stab)

.stabstr
 *(.stabstr)

.debug
 *(.debug)

.line
 *(.line)

.debug_srcinfo
 *(.debug_srcinfo)

.debug_sfnames
 *(.debug_sfnames)

.debug_aranges  0x00000000      0xac8
 *(.debug_aranges)
 .debug_aranges
                0x00000000       0x20 .\CortexM0\ARM_GCC_541\Debug\main.o
 .debug_aranges
                0x00000020       0x48 .\CortexM0\ARM_GCC_541\Debug\cyfitter_cfg.o
 .debug_aranges
                0x00000068       0x18 .\CortexM0\ARM_GCC_541\Debug\cymetadata.o
 .debug_aranges
                0x00000080       0x48 .\CortexM0\ARM_GCC_541\Debug\Cm0Start.o
 .debug_aranges
                0x000000c8       0x58 .\CortexM0\ARM_GCC_541\Debug\Lesson12_CapSense.a(UART.o)
 .debug_aranges
                0x00000120       0x90 .\CortexM0\ARM_GCC_541\Debug\Lesson12_CapSense.a(UART_UART.o)
 .debug_aranges
                0x000001b0      0x1d0 .\CortexM0\ARM_GCC_541\Debug\Lesson12_CapSense.a(CyLib.o)
 .debug_aranges
                0x00000380      0x188 .\CortexM0\ARM_GCC_541\Debug\Lesson12_CapSense.a(CyLFClk.o)
 .debug_aranges
                0x00000508      0x158 .\CortexM0\ARM_GCC_541\Debug\Lesson12_CapSense.a(CapSense.o)
 .debug_aranges
                0x00000660      0x148 .\CortexM0\ARM_GCC_541\Debug\Lesson12_CapSense.a(CapSense_CSHL.o)
 .debug_aranges
                0x000007a8       0x20 .\CortexM0\ARM_GCC_541\Debug\Lesson12_CapSense.a(CapSense_INT.o)
 .debug_aranges
                0x000007c8       0x60 .\CortexM0\ARM_GCC_541\Debug\Lesson12_CapSense.a(CapSense_SMS.o)
 .debug_aranges
                0x00000828       0x40 .\CortexM0\ARM_GCC_541\Debug\Lesson12_CapSense.a(CapSense_SampleClk.o)
 .debug_aranges
                0x00000868       0x40 .\CortexM0\ARM_GCC_541\Debug\Lesson12_CapSense.a(CapSense_SenseClk.o)
 .debug_aranges
                0x000008a8      0x158 .\CortexM0\ARM_GCC_541\Debug\Lesson12_CapSense.a(LED_PWM.o)
 .debug_aranges
                0x00000a00       0x20 .\CortexM0\ARM_GCC_541\Debug\Lesson12_CapSense.a(CyBootAsmGnu.o)
 .debug_aranges
                0x00000a20       0x60 .\CortexM0\ARM_GCC_541\Debug\Lesson12_CapSense.a(UART_SPI_UART.o)
 .debug_aranges
                0x00000a80       0x48 C:\Program Files (x86)\Cypress\PSoC Creator\4.2\PSoC Creator\psoc\content\CyComponentLibrary\CyComponentLibrary.cylib\CapSense_CSD_P4_v2_60\PSoC4\Library\CapsenseP4Library_GCC.a(CSD_P4_SmartSense_v2_60.o)

.debug_pubnames
 *(.debug_pubnames)

.debug_info     0x00000000     0x6eef
 *(.debug_info .gnu.linkonce.wi.*)
 .debug_info    0x00000000      0x230 .\CortexM0\ARM_GCC_541\Debug\main.o
 .debug_info    0x00000230      0x499 .\CortexM0\ARM_GCC_541\Debug\cyfitter_cfg.o
 .debug_info    0x000006c9       0xf8 .\CortexM0\ARM_GCC_541\Debug\cymetadata.o
 .debug_info    0x000007c1      0x3a2 .\CortexM0\ARM_GCC_541\Debug\Cm0Start.o
 .debug_info    0x00000b63      0x23a .\CortexM0\ARM_GCC_541\Debug\Lesson12_CapSense.a(UART.o)
 .debug_info    0x00000d9d      0x3b5 .\CortexM0\ARM_GCC_541\Debug\Lesson12_CapSense.a(UART_UART.o)
 .debug_info    0x00001152      0xd2b .\CortexM0\ARM_GCC_541\Debug\Lesson12_CapSense.a(CyLib.o)
 .debug_info    0x00001e7d     0x1071 .\CortexM0\ARM_GCC_541\Debug\Lesson12_CapSense.a(CyLFClk.o)
 .debug_info    0x00002eee     0x1111 .\CortexM0\ARM_GCC_541\Debug\Lesson12_CapSense.a(CapSense.o)
 .debug_info    0x00003fff     0x1116 .\CortexM0\ARM_GCC_541\Debug\Lesson12_CapSense.a(CapSense_CSHL.o)
 .debug_info    0x00005115      0x198 .\CortexM0\ARM_GCC_541\Debug\Lesson12_CapSense.a(CapSense_INT.o)
 .debug_info    0x000052ad      0x7ca .\CortexM0\ARM_GCC_541\Debug\Lesson12_CapSense.a(CapSense_SMS.o)
 .debug_info    0x00005a77      0x166 .\CortexM0\ARM_GCC_541\Debug\Lesson12_CapSense.a(CapSense_SampleClk.o)
 .debug_info    0x00005bdd      0x166 .\CortexM0\ARM_GCC_541\Debug\Lesson12_CapSense.a(CapSense_SenseClk.o)
 .debug_info    0x00005d43      0x909 .\CortexM0\ARM_GCC_541\Debug\Lesson12_CapSense.a(LED_PWM.o)
 .debug_info    0x0000664c       0xa1 .\CortexM0\ARM_GCC_541\Debug\Lesson12_CapSense.a(CyBootAsmGnu.o)
 .debug_info    0x000066ed      0x220 .\CortexM0\ARM_GCC_541\Debug\Lesson12_CapSense.a(UART_SPI_UART.o)
 .debug_info    0x0000690d      0x5e2 C:\Program Files (x86)\Cypress\PSoC Creator\4.2\PSoC Creator\psoc\content\CyComponentLibrary\CyComponentLibrary.cylib\CapSense_CSD_P4_v2_60\PSoC4\Library\CapsenseP4Library_GCC.a(CSD_P4_SmartSense_v2_60.o)

.debug_abbrev   0x00000000     0x16be
 *(.debug_abbrev)
 .debug_abbrev  0x00000000       0xd9 .\CortexM0\ARM_GCC_541\Debug\main.o
 .debug_abbrev  0x000000d9      0x1cf .\CortexM0\ARM_GCC_541\Debug\cyfitter_cfg.o
 .debug_abbrev  0x000002a8       0x5d .\CortexM0\ARM_GCC_541\Debug\cymetadata.o
 .debug_abbrev  0x00000305      0x1d7 .\CortexM0\ARM_GCC_541\Debug\Cm0Start.o
 .debug_abbrev  0x000004dc       0xd5 .\CortexM0\ARM_GCC_541\Debug\Lesson12_CapSense.a(UART.o)
 .debug_abbrev  0x000005b1      0x132 .\CortexM0\ARM_GCC_541\Debug\Lesson12_CapSense.a(UART_UART.o)
 .debug_abbrev  0x000006e3      0x1e0 .\CortexM0\ARM_GCC_541\Debug\Lesson12_CapSense.a(CyLib.o)
 .debug_abbrev  0x000008c3      0x248 .\CortexM0\ARM_GCC_541\Debug\Lesson12_CapSense.a(CyLFClk.o)
 .debug_abbrev  0x00000b0b      0x188 .\CortexM0\ARM_GCC_541\Debug\Lesson12_CapSense.a(CapSense.o)
 .debug_abbrev  0x00000c93      0x242 .\CortexM0\ARM_GCC_541\Debug\Lesson12_CapSense.a(CapSense_CSHL.o)
 .debug_abbrev  0x00000ed5       0xca .\CortexM0\ARM_GCC_541\Debug\Lesson12_CapSense.a(CapSense_INT.o)
 .debug_abbrev  0x00000f9f      0x1d5 .\CortexM0\ARM_GCC_541\Debug\Lesson12_CapSense.a(CapSense_SMS.o)
 .debug_abbrev  0x00001174       0xb7 .\CortexM0\ARM_GCC_541\Debug\Lesson12_CapSense.a(CapSense_SampleClk.o)
 .debug_abbrev  0x0000122b       0xb7 .\CortexM0\ARM_GCC_541\Debug\Lesson12_CapSense.a(CapSense_SenseClk.o)
 .debug_abbrev  0x000012e2      0x119 .\CortexM0\ARM_GCC_541\Debug\Lesson12_CapSense.a(LED_PWM.o)
 .debug_abbrev  0x000013fb       0x14 .\CortexM0\ARM_GCC_541\Debug\Lesson12_CapSense.a(CyBootAsmGnu.o)
 .debug_abbrev  0x0000140f      0x14f .\CortexM0\ARM_GCC_541\Debug\Lesson12_CapSense.a(UART_SPI_UART.o)
 .debug_abbrev  0x0000155e      0x160 C:\Program Files (x86)\Cypress\PSoC Creator\4.2\PSoC Creator\psoc\content\CyComponentLibrary\CyComponentLibrary.cylib\CapSense_CSD_P4_v2_60\PSoC4\Library\CapsenseP4Library_GCC.a(CSD_P4_SmartSense_v2_60.o)

.debug_line     0x00000000     0x2895
 *(.debug_line)
 .debug_line    0x00000000      0x134 .\CortexM0\ARM_GCC_541\Debug\main.o
 .debug_line    0x00000134      0x1bf .\CortexM0\ARM_GCC_541\Debug\cyfitter_cfg.o
 .debug_line    0x000002f3      0x141 .\CortexM0\ARM_GCC_541\Debug\cymetadata.o
 .debug_line    0x00000434      0x236 .\CortexM0\ARM_GCC_541\Debug\Cm0Start.o
 .debug_line    0x0000066a      0x108 .\CortexM0\ARM_GCC_541\Debug\Lesson12_CapSense.a(UART.o)
 .debug_line    0x00000772      0x1cf .\CortexM0\ARM_GCC_541\Debug\Lesson12_CapSense.a(UART_UART.o)
 .debug_line    0x00000941      0x553 .\CortexM0\ARM_GCC_541\Debug\Lesson12_CapSense.a(CyLib.o)
 .debug_line    0x00000e94      0x5db .\CortexM0\ARM_GCC_541\Debug\Lesson12_CapSense.a(CyLFClk.o)
 .debug_line    0x0000146f      0x4fb .\CortexM0\ARM_GCC_541\Debug\Lesson12_CapSense.a(CapSense.o)
 .debug_line    0x0000196a      0x47a .\CortexM0\ARM_GCC_541\Debug\Lesson12_CapSense.a(CapSense_CSHL.o)
 .debug_line    0x00001de4       0xac .\CortexM0\ARM_GCC_541\Debug\Lesson12_CapSense.a(CapSense_INT.o)
 .debug_line    0x00001e90      0x1ab .\CortexM0\ARM_GCC_541\Debug\Lesson12_CapSense.a(CapSense_SMS.o)
 .debug_line    0x0000203b       0xc5 .\CortexM0\ARM_GCC_541\Debug\Lesson12_CapSense.a(CapSense_SampleClk.o)
 .debug_line    0x00002100       0xc4 .\CortexM0\ARM_GCC_541\Debug\Lesson12_CapSense.a(CapSense_SenseClk.o)
 .debug_line    0x000021c4      0x380 .\CortexM0\ARM_GCC_541\Debug\Lesson12_CapSense.a(LED_PWM.o)
 .debug_line    0x00002544       0x68 .\CortexM0\ARM_GCC_541\Debug\Lesson12_CapSense.a(CyBootAsmGnu.o)
 .debug_line    0x000025ac      0x11a .\CortexM0\ARM_GCC_541\Debug\Lesson12_CapSense.a(UART_SPI_UART.o)
 .debug_line    0x000026c6      0x1cf C:\Program Files (x86)\Cypress\PSoC Creator\4.2\PSoC Creator\psoc\content\CyComponentLibrary\CyComponentLibrary.cylib\CapSense_CSD_P4_v2_60\PSoC4\Library\CapsenseP4Library_GCC.a(CSD_P4_SmartSense_v2_60.o)

.debug_frame    0x00000000     0x1f14
 *(.debug_frame)
 .debug_frame   0x00000000       0x30 .\CortexM0\ARM_GCC_541\Debug\main.o
 .debug_frame   0x00000030       0xb8 .\CortexM0\ARM_GCC_541\Debug\cyfitter_cfg.o
 .debug_frame   0x000000e8       0xbc .\CortexM0\ARM_GCC_541\Debug\Cm0Start.o
 .debug_frame   0x000001a4       0xd8 .\CortexM0\ARM_GCC_541\Debug\Lesson12_CapSense.a(UART.o)
 .debug_frame   0x0000027c      0x144 .\CortexM0\ARM_GCC_541\Debug\Lesson12_CapSense.a(UART_UART.o)
 .debug_frame   0x000003c0      0x4a4 .\CortexM0\ARM_GCC_541\Debug\Lesson12_CapSense.a(CyLib.o)
 .debug_frame   0x00000864      0x4a8 .\CortexM0\ARM_GCC_541\Debug\Lesson12_CapSense.a(CyLFClk.o)
 .debug_frame   0x00000d0c      0x3cc .\CortexM0\ARM_GCC_541\Debug\Lesson12_CapSense.a(CapSense.o)
 .debug_frame   0x000010d8      0x368 .\CortexM0\ARM_GCC_541\Debug\Lesson12_CapSense.a(CapSense_CSHL.o)
 .debug_frame   0x00001440       0x2c .\CortexM0\ARM_GCC_541\Debug\Lesson12_CapSense.a(CapSense_INT.o)
 .debug_frame   0x0000146c       0xec .\CortexM0\ARM_GCC_541\Debug\Lesson12_CapSense.a(CapSense_SMS.o)
 .debug_frame   0x00001558       0x6c .\CortexM0\ARM_GCC_541\Debug\Lesson12_CapSense.a(CapSense_SampleClk.o)
 .debug_frame   0x000015c4       0x6c .\CortexM0\ARM_GCC_541\Debug\Lesson12_CapSense.a(CapSense_SenseClk.o)
 .debug_frame   0x00001630      0x3a0 .\CortexM0\ARM_GCC_541\Debug\Lesson12_CapSense.a(LED_PWM.o)
 .debug_frame   0x000019d0       0xb0 .\CortexM0\ARM_GCC_541\Debug\Lesson12_CapSense.a(UART_SPI_UART.o)
 .debug_frame   0x00001a80       0xec C:\Program Files (x86)\Cypress\PSoC Creator\4.2\PSoC Creator\psoc\content\CyComponentLibrary\CyComponentLibrary.cylib\CapSense_CSD_P4_v2_60\PSoC4\Library\CapsenseP4Library_GCC.a(CSD_P4_SmartSense_v2_60.o)
 .debug_frame   0x00001b6c       0x20 c:/program files (x86)/cypress/psoc creator/4.2/psoc creator/import/gnu/arm/5.4.1/bin/../lib/gcc/arm-none-eabi/5.4.1/armv6-m\libgcc.a(_udivsi3.o)
 .debug_frame   0x00001b8c       0x20 c:/program files (x86)/cypress/psoc creator/4.2/psoc creator/import/gnu/arm/5.4.1/bin/../lib/gcc/arm-none-eabi/5.4.1/armv6-m\libgcc.a(_divsi3.o)
 .debug_frame   0x00001bac       0x20 c:/program files (x86)/cypress/psoc creator/4.2/psoc creator/import/gnu/arm/5.4.1/bin/../lib/gcc/arm-none-eabi/5.4.1/../../../../arm-none-eabi/lib/armv6-m\libg_nano.a(lib_a-errno.o)
 .debug_frame   0x00001bcc       0x28 c:/program files (x86)/cypress/psoc creator/4.2/psoc creator/import/gnu/arm/5.4.1/bin/../lib/gcc/arm-none-eabi/5.4.1/../../../../arm-none-eabi/lib/armv6-m\libg_nano.a(lib_a-exit.o)
 .debug_frame   0x00001bf4       0x2c c:/program files (x86)/cypress/psoc creator/4.2/psoc creator/import/gnu/arm/5.4.1/bin/../lib/gcc/arm-none-eabi/5.4.1/../../../../arm-none-eabi/lib/armv6-m\libg_nano.a(lib_a-init.o)
 .debug_frame   0x00001c20       0x20 c:/program files (x86)/cypress/psoc creator/4.2/psoc creator/import/gnu/arm/5.4.1/bin/../lib/gcc/arm-none-eabi/5.4.1/../../../../arm-none-eabi/lib/armv6-m\libg_nano.a(lib_a-memset.o)
 .debug_frame   0x00001c40       0x50 c:/program files (x86)/cypress/psoc creator/4.2/psoc creator/import/gnu/arm/5.4.1/bin/../lib/gcc/arm-none-eabi/5.4.1/../../../../arm-none-eabi/lib/armv6-m\libg_nano.a(lib_a-sprintf.o)
 .debug_frame   0x00001c90       0x74 c:/program files (x86)/cypress/psoc creator/4.2/psoc creator/import/gnu/arm/5.4.1/bin/../lib/gcc/arm-none-eabi/5.4.1/../../../../arm-none-eabi/lib/armv6-m\libg_nano.a(lib_a-nano-svfprintf.o)
 .debug_frame   0x00001d04       0x54 c:/program files (x86)/cypress/psoc creator/4.2/psoc creator/import/gnu/arm/5.4.1/bin/../lib/gcc/arm-none-eabi/5.4.1/../../../../arm-none-eabi/lib/armv6-m\libg_nano.a(lib_a-nano-vfprintf_i.o)
 .debug_frame   0x00001d58       0x20 c:/program files (x86)/cypress/psoc creator/4.2/psoc creator/import/gnu/arm/5.4.1/bin/../lib/gcc/arm-none-eabi/5.4.1/../../../../arm-none-eabi/lib/armv6-m\libg_nano.a(lib_a-memchr-stub.o)
 .debug_frame   0x00001d78       0x28 c:/program files (x86)/cypress/psoc creator/4.2/psoc creator/import/gnu/arm/5.4.1/bin/../lib/gcc/arm-none-eabi/5.4.1/../../../../arm-none-eabi/lib/armv6-m\libg_nano.a(lib_a-memcpy-stub.o)
 .debug_frame   0x00001da0       0x28 c:/program files (x86)/cypress/psoc creator/4.2/psoc creator/import/gnu/arm/5.4.1/bin/../lib/gcc/arm-none-eabi/5.4.1/../../../../arm-none-eabi/lib/armv6-m\libg_nano.a(lib_a-memmove.o)
 .debug_frame   0x00001dc8       0x2c c:/program files (x86)/cypress/psoc creator/4.2/psoc creator/import/gnu/arm/5.4.1/bin/../lib/gcc/arm-none-eabi/5.4.1/../../../../arm-none-eabi/lib/armv6-m\libg_nano.a(lib_a-nano-freer.o)
 .debug_frame   0x00001df4       0x2c c:/program files (x86)/cypress/psoc creator/4.2/psoc creator/import/gnu/arm/5.4.1/bin/../lib/gcc/arm-none-eabi/5.4.1/../../../../arm-none-eabi/lib/armv6-m\libg_nano.a(lib_a-nano-mallocr.o)
 .debug_frame   0x00001e20       0x30 c:/program files (x86)/cypress/psoc creator/4.2/psoc creator/import/gnu/arm/5.4.1/bin/../lib/gcc/arm-none-eabi/5.4.1/../../../../arm-none-eabi/lib/armv6-m\libg_nano.a(lib_a-nano-reallocr.o)
 .debug_frame   0x00001e50       0x2c c:/program files (x86)/cypress/psoc creator/4.2/psoc creator/import/gnu/arm/5.4.1/bin/../lib/gcc/arm-none-eabi/5.4.1/../../../../arm-none-eabi/lib/armv6-m\libg_nano.a(lib_a-sbrkr.o)
 .debug_frame   0x00001e7c       0x30 c:/program files (x86)/cypress/psoc creator/4.2/psoc creator/import/gnu/arm/5.4.1/bin/../lib/gcc/arm-none-eabi/5.4.1/../../../../arm-none-eabi/lib/armv6-m\libg_nano.a(lib_a-mlock.o)
 .debug_frame   0x00001eac       0x20 c:/program files (x86)/cypress/psoc creator/4.2/psoc creator/import/gnu/arm/5.4.1/bin/../lib/gcc/arm-none-eabi/5.4.1/../../../../arm-none-eabi/lib/armv6-m\libg_nano.a(lib_a-nano-msizer.o)
 .debug_frame   0x00001ecc       0x48 c:/program files (x86)/cypress/psoc creator/4.2/psoc creator/import/gnu/arm/5.4.1/bin/../lib/gcc/arm-none-eabi/5.4.1/../../../../arm-none-eabi/lib/armv6-m\libg_nano.a(lib_a-reent.o)

.debug_str      0x00000000     0x308a
 *(.debug_str)
 .debug_str     0x00000000      0x25d .\CortexM0\ARM_GCC_541\Debug\main.o
                                0x29d (size before relaxing)
 .debug_str     0x0000025d      0x1a3 .\CortexM0\ARM_GCC_541\Debug\cyfitter_cfg.o
                                0x360 (size before relaxing)
 .debug_str     0x00000400       0x63 .\CortexM0\ARM_GCC_541\Debug\cymetadata.o
                                0x1d9 (size before relaxing)
 .debug_str     0x00000463      0x13a .\CortexM0\ARM_GCC_541\Debug\Cm0Start.o
                                0x312 (size before relaxing)
 .debug_str     0x0000059d       0xf7 .\CortexM0\ARM_GCC_541\Debug\Lesson12_CapSense.a(UART.o)
                                0x2a8 (size before relaxing)
 .debug_str     0x00000694      0x1d8 .\CortexM0\ARM_GCC_541\Debug\Lesson12_CapSense.a(UART_UART.o)
                                0x3d9 (size before relaxing)
 .debug_str     0x0000086c      0x5d7 .\CortexM0\ARM_GCC_541\Debug\Lesson12_CapSense.a(CyLib.o)
                                0x809 (size before relaxing)
 .debug_str     0x00000e43      0x6e3 .\CortexM0\ARM_GCC_541\Debug\Lesson12_CapSense.a(CyLFClk.o)
                                0x949 (size before relaxing)
 .debug_str     0x00001526      0x862 .\CortexM0\ARM_GCC_541\Debug\Lesson12_CapSense.a(CapSense.o)
                                0xaf6 (size before relaxing)
 .debug_str     0x00001d88      0x7e1 .\CortexM0\ARM_GCC_541\Debug\Lesson12_CapSense.a(CapSense_CSHL.o)
                                0xc02 (size before relaxing)
 .debug_str     0x00002569       0x48 .\CortexM0\ARM_GCC_541\Debug\Lesson12_CapSense.a(CapSense_INT.o)
                                0x2a0 (size before relaxing)
 .debug_str     0x000025b1      0x25a .\CortexM0\ARM_GCC_541\Debug\Lesson12_CapSense.a(CapSense_SMS.o)
                                0x7f6 (size before relaxing)
 .debug_str     0x0000280b       0xb6 .\CortexM0\ARM_GCC_541\Debug\Lesson12_CapSense.a(CapSense_SampleClk.o)
                                0x2aa (size before relaxing)
 .debug_str     0x000028c1       0x7f .\CortexM0\ARM_GCC_541\Debug\Lesson12_CapSense.a(CapSense_SenseClk.o)
                                0x2a4 (size before relaxing)
 .debug_str     0x00002940      0x417 .\CortexM0\ARM_GCC_541\Debug\Lesson12_CapSense.a(LED_PWM.o)
                                0x616 (size before relaxing)
 .debug_str     0x00002d57       0xe3 .\CortexM0\ARM_GCC_541\Debug\Lesson12_CapSense.a(UART_SPI_UART.o)
                                0x2df (size before relaxing)
 .debug_str     0x00002e3a      0x250 C:\Program Files (x86)\Cypress\PSoC Creator\4.2\PSoC Creator\psoc\content\CyComponentLibrary\CyComponentLibrary.cylib\CapSense_CSD_P4_v2_60\PSoC4\Library\CapsenseP4Library_GCC.a(CSD_P4_SmartSense_v2_60.o)
                                0x59d (size before relaxing)

.debug_loc      0x00000000     0x403a
 *(.debug_loc)
 .debug_loc     0x00000000       0x55 .\CortexM0\ARM_GCC_541\Debug\main.o
 .debug_loc     0x00000055      0x14d .\CortexM0\ARM_GCC_541\Debug\cyfitter_cfg.o
 .debug_loc     0x000001a2      0x14f .\CortexM0\ARM_GCC_541\Debug\Cm0Start.o
 .debug_loc     0x000002f1       0x7e .\CortexM0\ARM_GCC_541\Debug\Lesson12_CapSense.a(UART.o)
 .debug_loc     0x0000036f      0x223 .\CortexM0\ARM_GCC_541\Debug\Lesson12_CapSense.a(UART_UART.o)
 .debug_loc     0x00000592      0x818 .\CortexM0\ARM_GCC_541\Debug\Lesson12_CapSense.a(CyLib.o)
 .debug_loc     0x00000daa      0xdaa .\CortexM0\ARM_GCC_541\Debug\Lesson12_CapSense.a(CyLFClk.o)
 .debug_loc     0x00001b54      0xb9d .\CortexM0\ARM_GCC_541\Debug\Lesson12_CapSense.a(CapSense.o)
 .debug_loc     0x000026f1      0x9e3 .\CortexM0\ARM_GCC_541\Debug\Lesson12_CapSense.a(CapSense_CSHL.o)
 .debug_loc     0x000030d4      0x20f .\CortexM0\ARM_GCC_541\Debug\Lesson12_CapSense.a(CapSense_SMS.o)
 .debug_loc     0x000032e3       0x76 .\CortexM0\ARM_GCC_541\Debug\Lesson12_CapSense.a(CapSense_SampleClk.o)
 .debug_loc     0x00003359       0x76 .\CortexM0\ARM_GCC_541\Debug\Lesson12_CapSense.a(CapSense_SenseClk.o)
 .debug_loc     0x000033cf      0x547 .\CortexM0\ARM_GCC_541\Debug\Lesson12_CapSense.a(LED_PWM.o)
 .debug_loc     0x00003916       0x96 .\CortexM0\ARM_GCC_541\Debug\Lesson12_CapSense.a(UART_SPI_UART.o)
 .debug_loc     0x000039ac      0x68e C:\Program Files (x86)\Cypress\PSoC Creator\4.2\PSoC Creator\psoc\content\CyComponentLibrary\CyComponentLibrary.cylib\CapSense_CSD_P4_v2_60\PSoC4\Library\CapsenseP4Library_GCC.a(CSD_P4_SmartSense_v2_60.o)

.debug_macinfo
 *(.debug_macinfo)

.debug_ranges   0x00000000      0x990
 *(.debug_ranges)
 .debug_ranges  0x00000000       0x10 .\CortexM0\ARM_GCC_541\Debug\main.o
 .debug_ranges  0x00000010       0x38 .\CortexM0\ARM_GCC_541\Debug\cyfitter_cfg.o
 .debug_ranges  0x00000048       0x38 .\CortexM0\ARM_GCC_541\Debug\Cm0Start.o
 .debug_ranges  0x00000080       0x48 .\CortexM0\ARM_GCC_541\Debug\Lesson12_CapSense.a(UART.o)
 .debug_ranges  0x000000c8       0x80 .\CortexM0\ARM_GCC_541\Debug\Lesson12_CapSense.a(UART_UART.o)
 .debug_ranges  0x00000148      0x1c0 .\CortexM0\ARM_GCC_541\Debug\Lesson12_CapSense.a(CyLib.o)
 .debug_ranges  0x00000308      0x178 .\CortexM0\ARM_GCC_541\Debug\Lesson12_CapSense.a(CyLFClk.o)
 .debug_ranges  0x00000480      0x148 .\CortexM0\ARM_GCC_541\Debug\Lesson12_CapSense.a(CapSense.o)
 .debug_ranges  0x000005c8      0x138 .\CortexM0\ARM_GCC_541\Debug\Lesson12_CapSense.a(CapSense_CSHL.o)
 .debug_ranges  0x00000700       0x10 .\CortexM0\ARM_GCC_541\Debug\Lesson12_CapSense.a(CapSense_INT.o)
 .debug_ranges  0x00000710       0x50 .\CortexM0\ARM_GCC_541\Debug\Lesson12_CapSense.a(CapSense_SMS.o)
 .debug_ranges  0x00000760       0x30 .\CortexM0\ARM_GCC_541\Debug\Lesson12_CapSense.a(CapSense_SampleClk.o)
 .debug_ranges  0x00000790       0x30 .\CortexM0\ARM_GCC_541\Debug\Lesson12_CapSense.a(CapSense_SenseClk.o)
 .debug_ranges  0x000007c0      0x148 .\CortexM0\ARM_GCC_541\Debug\Lesson12_CapSense.a(LED_PWM.o)
 .debug_ranges  0x00000908       0x50 .\CortexM0\ARM_GCC_541\Debug\Lesson12_CapSense.a(UART_SPI_UART.o)
 .debug_ranges  0x00000958       0x38 C:\Program Files (x86)\Cypress\PSoC Creator\4.2\PSoC Creator\psoc\content\CyComponentLibrary\CyComponentLibrary.cylib\CapSense_CSD_P4_v2_60\PSoC4\Library\CapsenseP4Library_GCC.a(CSD_P4_SmartSense_v2_60.o)

.comment        0x00000000       0xde
 .comment       0x00000000       0x6e .\CortexM0\ARM_GCC_541\Debug\main.o
                                 0x6f (size before relaxing)
 .comment       0x0000006e       0x6f .\CortexM0\ARM_GCC_541\Debug\cyfitter_cfg.o
 .comment       0x0000006e       0x6f .\CortexM0\ARM_GCC_541\Debug\cymetadata.o
 .comment       0x0000006e       0x6f .\CortexM0\ARM_GCC_541\Debug\Cm0Start.o
 .comment       0x0000006e       0x6f .\CortexM0\ARM_GCC_541\Debug\Lesson12_CapSense.a(UART.o)
 .comment       0x0000006e       0x6f .\CortexM0\ARM_GCC_541\Debug\Lesson12_CapSense.a(UART_UART.o)
 .comment       0x0000006e       0x6f .\CortexM0\ARM_GCC_541\Debug\Lesson12_CapSense.a(CyLib.o)
 .comment       0x0000006e       0x6f .\CortexM0\ARM_GCC_541\Debug\Lesson12_CapSense.a(CyLFClk.o)
 .comment       0x0000006e       0x6f .\CortexM0\ARM_GCC_541\Debug\Lesson12_CapSense.a(CapSense.o)
 .comment       0x0000006e       0x6f .\CortexM0\ARM_GCC_541\Debug\Lesson12_CapSense.a(CapSense_CSHL.o)
 .comment       0x0000006e       0x6f .\CortexM0\ARM_GCC_541\Debug\Lesson12_CapSense.a(CapSense_INT.o)
 .comment       0x0000006e       0x6f .\CortexM0\ARM_GCC_541\Debug\Lesson12_CapSense.a(CapSense_SMS.o)
 .comment       0x0000006e       0x6f .\CortexM0\ARM_GCC_541\Debug\Lesson12_CapSense.a(CapSense_SampleClk.o)
 .comment       0x0000006e       0x6f .\CortexM0\ARM_GCC_541\Debug\Lesson12_CapSense.a(CapSense_SenseClk.o)
 .comment       0x0000006e       0x6f .\CortexM0\ARM_GCC_541\Debug\Lesson12_CapSense.a(LED_PWM.o)
 .comment       0x0000006e       0x6f .\CortexM0\ARM_GCC_541\Debug\Lesson12_CapSense.a(UART_SPI_UART.o)
 .comment       0x0000006e       0x70 C:\Program Files (x86)\Cypress\PSoC Creator\4.2\PSoC Creator\psoc\content\CyComponentLibrary\CyComponentLibrary.cylib\CapSense_CSD_P4_v2_60\PSoC4\Library\CapsenseP4Library_GCC.a(CSD_P4_SmartSense_v2_60.o)
                                 0x71 (size before relaxing)

.debug_weaknames
 *(.debug_weaknames)

.debug_funcnames
 *(.debug_funcnames)

.debug_typenames
 *(.debug_typenames)

.debug_varnames
 *(.debug_varnames)

.note.gnu.arm.ident
 *(.note.gnu.arm.ident)

.ARM.attributes
                0x00000000       0x28
 *(.ARM.attributes)
 .ARM.attributes
                0x00000000       0x1e c:/program files (x86)/cypress/psoc creator/4.2/psoc creator/import/gnu/arm/5.4.1/bin/../lib/gcc/arm-none-eabi/5.4.1/armv6-m/crti.o
 .ARM.attributes
                0x0000001e       0x2c c:/program files (x86)/cypress/psoc creator/4.2/psoc creator/import/gnu/arm/5.4.1/bin/../lib/gcc/arm-none-eabi/5.4.1/armv6-m/crtbegin.o
 .ARM.attributes
                0x0000004a       0x1b c:/program files (x86)/cypress/psoc creator/4.2/psoc creator/import/gnu/arm/5.4.1/bin/../lib/gcc/arm-none-eabi/5.4.1/../../../../arm-none-eabi/lib/armv6-m/crt0.o
 .ARM.attributes
                0x00000065       0x31 .\CortexM0\ARM_GCC_541\Debug\main.o
 .ARM.attributes
                0x00000096       0x31 .\CortexM0\ARM_GCC_541\Debug\cyfitter_cfg.o
 .ARM.attributes
                0x000000c7       0x31 .\CortexM0\ARM_GCC_541\Debug\cymetadata.o
 .ARM.attributes
                0x000000f8       0x31 .\CortexM0\ARM_GCC_541\Debug\Cm0Start.o
 .ARM.attributes
                0x00000129       0x31 .\CortexM0\ARM_GCC_541\Debug\Lesson12_CapSense.a(UART.o)
 .ARM.attributes
                0x0000015a       0x31 .\CortexM0\ARM_GCC_541\Debug\Lesson12_CapSense.a(UART_UART.o)
 .ARM.attributes
                0x0000018b       0x31 .\CortexM0\ARM_GCC_541\Debug\Lesson12_CapSense.a(CyLib.o)
 .ARM.attributes
                0x000001bc       0x31 .\CortexM0\ARM_GCC_541\Debug\Lesson12_CapSense.a(CyLFClk.o)
 .ARM.attributes
                0x000001ed       0x31 .\CortexM0\ARM_GCC_541\Debug\Lesson12_CapSense.a(CapSense.o)
 .ARM.attributes
                0x0000021e       0x31 .\CortexM0\ARM_GCC_541\Debug\Lesson12_CapSense.a(CapSense_CSHL.o)
 .ARM.attributes
                0x0000024f       0x31 .\CortexM0\ARM_GCC_541\Debug\Lesson12_CapSense.a(CapSense_INT.o)
 .ARM.attributes
                0x00000280       0x31 .\CortexM0\ARM_GCC_541\Debug\Lesson12_CapSense.a(CapSense_SMS.o)
 .ARM.attributes
                0x000002b1       0x31 .\CortexM0\ARM_GCC_541\Debug\Lesson12_CapSense.a(CapSense_SampleClk.o)
 .ARM.attributes
                0x000002e2       0x31 .\CortexM0\ARM_GCC_541\Debug\Lesson12_CapSense.a(CapSense_SenseClk.o)
 .ARM.attributes
                0x00000313       0x31 .\CortexM0\ARM_GCC_541\Debug\Lesson12_CapSense.a(LED_PWM.o)
 .ARM.attributes
                0x00000344       0x21 .\CortexM0\ARM_GCC_541\Debug\Lesson12_CapSense.a(CyBootAsmGnu.o)
 .ARM.attributes
                0x00000365       0x31 .\CortexM0\ARM_GCC_541\Debug\Lesson12_CapSense.a(UART_SPI_UART.o)
 .ARM.attributes
                0x00000396       0x31 C:\Program Files (x86)\Cypress\PSoC Creator\4.2\PSoC Creator\psoc\content\CyComponentLibrary\CyComponentLibrary.cylib\CapSense_CSD_P4_v2_60\PSoC4\Library\CapsenseP4Library_GCC.a(CSD_P4_SmartSense_v2_60.o)
 .ARM.attributes
                0x000003c7       0x1e c:/program files (x86)/cypress/psoc creator/4.2/psoc creator/import/gnu/arm/5.4.1/bin/../lib/gcc/arm-none-eabi/5.4.1/armv6-m\libgcc.a(_udivsi3.o)
 .ARM.attributes
                0x000003e5       0x1e c:/program files (x86)/cypress/psoc creator/4.2/psoc creator/import/gnu/arm/5.4.1/bin/../lib/gcc/arm-none-eabi/5.4.1/armv6-m\libgcc.a(_divsi3.o)
 .ARM.attributes
                0x00000403       0x1e c:/program files (x86)/cypress/psoc creator/4.2/psoc creator/import/gnu/arm/5.4.1/bin/../lib/gcc/arm-none-eabi/5.4.1/armv6-m\libgcc.a(_dvmd_tls.o)
 .ARM.attributes
                0x00000421       0x2c c:/program files (x86)/cypress/psoc creator/4.2/psoc creator/import/gnu/arm/5.4.1/bin/../lib/gcc/arm-none-eabi/5.4.1/../../../../arm-none-eabi/lib/armv6-m\libg_nano.a(lib_a-errno.o)
 .ARM.attributes
                0x0000044d       0x2c c:/program files (x86)/cypress/psoc creator/4.2/psoc creator/import/gnu/arm/5.4.1/bin/../lib/gcc/arm-none-eabi/5.4.1/../../../../arm-none-eabi/lib/armv6-m\libg_nano.a(lib_a-exit.o)
 .ARM.attributes
                0x00000479       0x2c c:/program files (x86)/cypress/psoc creator/4.2/psoc creator/import/gnu/arm/5.4.1/bin/../lib/gcc/arm-none-eabi/5.4.1/../../../../arm-none-eabi/lib/armv6-m\libg_nano.a(lib_a-impure.o)
 .ARM.attributes
                0x000004a5       0x2c c:/program files (x86)/cypress/psoc creator/4.2/psoc creator/import/gnu/arm/5.4.1/bin/../lib/gcc/arm-none-eabi/5.4.1/../../../../arm-none-eabi/lib/armv6-m\libg_nano.a(lib_a-init.o)
 .ARM.attributes
                0x000004d1       0x2c c:/program files (x86)/cypress/psoc creator/4.2/psoc creator/import/gnu/arm/5.4.1/bin/../lib/gcc/arm-none-eabi/5.4.1/../../../../arm-none-eabi/lib/armv6-m\libg_nano.a(lib_a-memset.o)
 .ARM.attributes
                0x000004fd       0x2c c:/program files (x86)/cypress/psoc creator/4.2/psoc creator/import/gnu/arm/5.4.1/bin/../lib/gcc/arm-none-eabi/5.4.1/../../../../arm-none-eabi/lib/armv6-m\libg_nano.a(lib_a-sprintf.o)
 .ARM.attributes
                0x00000529       0x2c c:/program files (x86)/cypress/psoc creator/4.2/psoc creator/import/gnu/arm/5.4.1/bin/../lib/gcc/arm-none-eabi/5.4.1/../../../../arm-none-eabi/lib/armv6-m\libg_nano.a(lib_a-nano-svfprintf.o)
 .ARM.attributes
                0x00000555       0x2c c:/program files (x86)/cypress/psoc creator/4.2/psoc creator/import/gnu/arm/5.4.1/bin/../lib/gcc/arm-none-eabi/5.4.1/../../../../arm-none-eabi/lib/armv6-m\libg_nano.a(lib_a-nano-vfprintf_i.o)
 .ARM.attributes
                0x00000581       0x2c c:/program files (x86)/cypress/psoc creator/4.2/psoc creator/import/gnu/arm/5.4.1/bin/../lib/gcc/arm-none-eabi/5.4.1/../../../../arm-none-eabi/lib/armv6-m\libg_nano.a(lib_a-memchr-stub.o)
 .ARM.attributes
                0x000005ad       0x2c c:/program files (x86)/cypress/psoc creator/4.2/psoc creator/import/gnu/arm/5.4.1/bin/../lib/gcc/arm-none-eabi/5.4.1/../../../../arm-none-eabi/lib/armv6-m\libg_nano.a(lib_a-memcpy-stub.o)
 .ARM.attributes
                0x000005d9       0x2c c:/program files (x86)/cypress/psoc creator/4.2/psoc creator/import/gnu/arm/5.4.1/bin/../lib/gcc/arm-none-eabi/5.4.1/../../../../arm-none-eabi/lib/armv6-m\libg_nano.a(lib_a-memmove.o)
 .ARM.attributes
                0x00000605       0x2c c:/program files (x86)/cypress/psoc creator/4.2/psoc creator/import/gnu/arm/5.4.1/bin/../lib/gcc/arm-none-eabi/5.4.1/../../../../arm-none-eabi/lib/armv6-m\libg_nano.a(lib_a-nano-freer.o)
 .ARM.attributes
                0x00000631       0x2c c:/program files (x86)/cypress/psoc creator/4.2/psoc creator/import/gnu/arm/5.4.1/bin/../lib/gcc/arm-none-eabi/5.4.1/../../../../arm-none-eabi/lib/armv6-m\libg_nano.a(lib_a-nano-mallocr.o)
 .ARM.attributes
                0x0000065d       0x2c c:/program files (x86)/cypress/psoc creator/4.2/psoc creator/import/gnu/arm/5.4.1/bin/../lib/gcc/arm-none-eabi/5.4.1/../../../../arm-none-eabi/lib/armv6-m\libg_nano.a(lib_a-nano-reallocr.o)
 .ARM.attributes
                0x00000689       0x2c c:/program files (x86)/cypress/psoc creator/4.2/psoc creator/import/gnu/arm/5.4.1/bin/../lib/gcc/arm-none-eabi/5.4.1/../../../../arm-none-eabi/lib/armv6-m\libg_nano.a(lib_a-sbrkr.o)
 .ARM.attributes
                0x000006b5       0x2c c:/program files (x86)/cypress/psoc creator/4.2/psoc creator/import/gnu/arm/5.4.1/bin/../lib/gcc/arm-none-eabi/5.4.1/../../../../arm-none-eabi/lib/armv6-m\libg_nano.a(lib_a-mlock.o)
 .ARM.attributes
                0x000006e1       0x2c c:/program files (x86)/cypress/psoc creator/4.2/psoc creator/import/gnu/arm/5.4.1/bin/../lib/gcc/arm-none-eabi/5.4.1/../../../../arm-none-eabi/lib/armv6-m\libg_nano.a(lib_a-nano-msizer.o)
 .ARM.attributes
                0x0000070d       0x2c c:/program files (x86)/cypress/psoc creator/4.2/psoc creator/import/gnu/arm/5.4.1/bin/../lib/gcc/arm-none-eabi/5.4.1/../../../../arm-none-eabi/lib/armv6-m\libg_nano.a(lib_a-reent.o)
 .ARM.attributes
                0x00000739       0x2c c:/program files (x86)/cypress/psoc creator/4.2/psoc creator/import/gnu/arm/5.4.1/bin/../lib/gcc/arm-none-eabi/5.4.1/armv6-m/crtend.o
 .ARM.attributes
                0x00000765       0x1e c:/program files (x86)/cypress/psoc creator/4.2/psoc creator/import/gnu/arm/5.4.1/bin/../lib/gcc/arm-none-eabi/5.4.1/armv6-m/crtn.o

/DISCARD/
 *(.note.GNU-stack)
OUTPUT(C:\Users\ORA\OneDrive - PetNovations\Cypress - BLE\Lessons\Lesson12_CapSense.cydsn\CortexM0\ARM_GCC_541\Debug\Lesson12_CapSense.elf elf32-littlearm)
