ARM GAS  C:\Users\ORA\AppData\Local\Temp\ccjccxtM.s 			page 1


   1              		.syntax unified
   2              		.cpu cortex-m0
   3              		.fpu softvfp
   4              		.eabi_attribute 20, 1
   5              		.eabi_attribute 21, 1
   6              		.eabi_attribute 23, 3
   7              		.eabi_attribute 24, 1
   8              		.eabi_attribute 25, 1
   9              		.eabi_attribute 26, 1
  10              		.eabi_attribute 30, 1
  11              		.eabi_attribute 34, 0
  12              		.eabi_attribute 18, 4
  13              		.thumb
  14              		.syntax unified
  15              		.file	"Cm0Start.c"
  16              		.text
  17              	.Ltext0:
  18              		.cfi_sections	.debug_frame
  19              		.section	.text.IntDefaultHandler,"ax",%progbits
  20              		.align	2
  21              		.global	IntDefaultHandler
  22              		.code	16
  23              		.thumb_func
  24              		.type	IntDefaultHandler, %function
  25              	IntDefaultHandler:
  26              	.LFB2:
  27              		.file 1 "Generated_Source\\PSoC4\\Cm0Start.c"
   1:Generated_Source\PSoC4/Cm0Start.c **** /***************************************************************************//**
   2:Generated_Source\PSoC4/Cm0Start.c **** * \file Cm0Start.c
   3:Generated_Source\PSoC4/Cm0Start.c **** * \version 5.81
   4:Generated_Source\PSoC4/Cm0Start.c **** *
   5:Generated_Source\PSoC4/Cm0Start.c **** * \brief Startup code for the ARM CM0.
   6:Generated_Source\PSoC4/Cm0Start.c **** *
   7:Generated_Source\PSoC4/Cm0Start.c **** ********************************************************************************
   8:Generated_Source\PSoC4/Cm0Start.c **** * \copyright
   9:Generated_Source\PSoC4/Cm0Start.c **** * Copyright 2010-2018, Cypress Semiconductor Corporation.  All rights reserved.
  10:Generated_Source\PSoC4/Cm0Start.c **** * You may use this file only in accordance with the license, terms, conditions,
  11:Generated_Source\PSoC4/Cm0Start.c **** * disclaimers, and limitations in the end user license agreement accompanying
  12:Generated_Source\PSoC4/Cm0Start.c **** * the software package with which this file was provided.
  13:Generated_Source\PSoC4/Cm0Start.c **** *******************************************************************************/
  14:Generated_Source\PSoC4/Cm0Start.c **** 
  15:Generated_Source\PSoC4/Cm0Start.c **** #include <limits.h>
  16:Generated_Source\PSoC4/Cm0Start.c **** #include "cydevice_trm.h"
  17:Generated_Source\PSoC4/Cm0Start.c **** #include "cytypes.h"
  18:Generated_Source\PSoC4/Cm0Start.c **** #include "cyfitter_cfg.h"
  19:Generated_Source\PSoC4/Cm0Start.c **** #include "CyLib.h"
  20:Generated_Source\PSoC4/Cm0Start.c **** #include "cyfitter.h"
  21:Generated_Source\PSoC4/Cm0Start.c **** #include "cyapicallbacks.h"
  22:Generated_Source\PSoC4/Cm0Start.c **** 
  23:Generated_Source\PSoC4/Cm0Start.c **** #define CY_NUM_VECTORS              (CY_INT_IRQ_BASE + CY_NUM_INTERRUPTS)
  24:Generated_Source\PSoC4/Cm0Start.c **** 
  25:Generated_Source\PSoC4/Cm0Start.c **** #if (CY_IP_CPUSS_CM0)
  26:Generated_Source\PSoC4/Cm0Start.c ****     #define CY_CPUSS_CONFIG_VECT_IN_RAM (( uint32 ) 0x01)
  27:Generated_Source\PSoC4/Cm0Start.c **** #endif /* (CY_IP_CPUSS_CM0) */
  28:Generated_Source\PSoC4/Cm0Start.c **** 
  29:Generated_Source\PSoC4/Cm0Start.c **** 
  30:Generated_Source\PSoC4/Cm0Start.c **** #if (CY_IP_CPUSS_CM0)
ARM GAS  C:\Users\ORA\AppData\Local\Temp\ccjccxtM.s 			page 2


  31:Generated_Source\PSoC4/Cm0Start.c ****     /* CPUSS Configuration register */
  32:Generated_Source\PSoC4/Cm0Start.c ****     #define CY_CPUSS_CONFIG_REG         (*(reg32 *) CYREG_CPUSS_CONFIG)
  33:Generated_Source\PSoC4/Cm0Start.c ****     #define CY_CPUSS_CONFIG_PTR         ( (reg32 *) CYREG_CPUSS_CONFIG)
  34:Generated_Source\PSoC4/Cm0Start.c **** #endif /* (CY_IP_CPUSS_CM0) */
  35:Generated_Source\PSoC4/Cm0Start.c **** 
  36:Generated_Source\PSoC4/Cm0Start.c **** 
  37:Generated_Source\PSoC4/Cm0Start.c **** #if defined (__ICCARM__)
  38:Generated_Source\PSoC4/Cm0Start.c ****     #define CY_NUM_ROM_VECTORS      (CY_NUM_VECTORS)
  39:Generated_Source\PSoC4/Cm0Start.c **** #else
  40:Generated_Source\PSoC4/Cm0Start.c ****     #define CY_NUM_ROM_VECTORS      (4u)
  41:Generated_Source\PSoC4/Cm0Start.c **** #endif  /* defined (__ICCARM__) */
  42:Generated_Source\PSoC4/Cm0Start.c **** 
  43:Generated_Source\PSoC4/Cm0Start.c **** /* Vector table address in SRAM */
  44:Generated_Source\PSoC4/Cm0Start.c **** #define CY_CPUSS_CONFIG_VECT_ADDR_IN_RAM    (0x20000000u)
  45:Generated_Source\PSoC4/Cm0Start.c **** 
  46:Generated_Source\PSoC4/Cm0Start.c **** #ifndef CY_SYS_INITIAL_STACK_POINTER
  47:Generated_Source\PSoC4/Cm0Start.c **** 
  48:Generated_Source\PSoC4/Cm0Start.c ****     #if defined(__ARMCC_VERSION)
  49:Generated_Source\PSoC4/Cm0Start.c ****         #define CY_SYS_INITIAL_STACK_POINTER ((cyisraddress)(uint32)&Image$$ARM_LIB_STACK$$ZI$$Limi
  50:Generated_Source\PSoC4/Cm0Start.c ****     #elif defined (__GNUC__)
  51:Generated_Source\PSoC4/Cm0Start.c ****         #define CY_SYS_INITIAL_STACK_POINTER (&__cy_stack)
  52:Generated_Source\PSoC4/Cm0Start.c ****     #elif defined (__ICCARM__)
  53:Generated_Source\PSoC4/Cm0Start.c ****         #pragma language=extended
  54:Generated_Source\PSoC4/Cm0Start.c ****         #pragma segment="CSTACK"
  55:Generated_Source\PSoC4/Cm0Start.c ****         #define CY_SYS_INITIAL_STACK_POINTER  { .__ptr = __sfe( "CSTACK" ) }
  56:Generated_Source\PSoC4/Cm0Start.c **** 
  57:Generated_Source\PSoC4/Cm0Start.c ****         extern void __iar_program_start( void );
  58:Generated_Source\PSoC4/Cm0Start.c ****         extern void __iar_data_init3 (void);
  59:Generated_Source\PSoC4/Cm0Start.c ****     #endif  /* (__ARMCC_VERSION) */
  60:Generated_Source\PSoC4/Cm0Start.c **** 
  61:Generated_Source\PSoC4/Cm0Start.c **** #endif /* CY_SYS_INITIAL_STACK_POINTER */
  62:Generated_Source\PSoC4/Cm0Start.c **** 
  63:Generated_Source\PSoC4/Cm0Start.c **** 
  64:Generated_Source\PSoC4/Cm0Start.c **** #if defined(__GNUC__)
  65:Generated_Source\PSoC4/Cm0Start.c ****     #include <errno.h>
  66:Generated_Source\PSoC4/Cm0Start.c ****     extern int  end;
  67:Generated_Source\PSoC4/Cm0Start.c **** #endif  /* defined(__GNUC__) */
  68:Generated_Source\PSoC4/Cm0Start.c **** 
  69:Generated_Source\PSoC4/Cm0Start.c **** /* Extern functions */
  70:Generated_Source\PSoC4/Cm0Start.c **** extern void CyBtldr_CheckLaunch(void);
  71:Generated_Source\PSoC4/Cm0Start.c **** 
  72:Generated_Source\PSoC4/Cm0Start.c **** /* Function prototypes */
  73:Generated_Source\PSoC4/Cm0Start.c **** void initialize_psoc(void);
  74:Generated_Source\PSoC4/Cm0Start.c **** 
  75:Generated_Source\PSoC4/Cm0Start.c **** /* Global variables */
  76:Generated_Source\PSoC4/Cm0Start.c **** #if !defined (__ICCARM__)
  77:Generated_Source\PSoC4/Cm0Start.c ****     CY_NOINIT static uint32 cySysNoInitDataValid;
  78:Generated_Source\PSoC4/Cm0Start.c **** #endif  /* !defined (__ICCARM__) */
  79:Generated_Source\PSoC4/Cm0Start.c **** 
  80:Generated_Source\PSoC4/Cm0Start.c **** 
  81:Generated_Source\PSoC4/Cm0Start.c **** #if (CYDEV_PROJ_TYPE != CYDEV_PROJ_TYPE_STANDARD)
  82:Generated_Source\PSoC4/Cm0Start.c **** 
  83:Generated_Source\PSoC4/Cm0Start.c ****     /*******************************************************************************
  84:Generated_Source\PSoC4/Cm0Start.c ****     This variable is used by the Bootloader/Bootloadable components to schedule
  85:Generated_Source\PSoC4/Cm0Start.c ****     what application will be started after a software reset.
  86:Generated_Source\PSoC4/Cm0Start.c ****     *******************************************************************************/
  87:Generated_Source\PSoC4/Cm0Start.c ****     #if (__ARMCC_VERSION)
ARM GAS  C:\Users\ORA\AppData\Local\Temp\ccjccxtM.s 			page 3


  88:Generated_Source\PSoC4/Cm0Start.c ****         __attribute__ ((section(".bootloaderruntype"), zero_init))
  89:Generated_Source\PSoC4/Cm0Start.c ****     #elif defined (__GNUC__)
  90:Generated_Source\PSoC4/Cm0Start.c ****         __attribute__ ((section(".bootloaderruntype")))
  91:Generated_Source\PSoC4/Cm0Start.c ****     #elif defined (__ICCARM__)
  92:Generated_Source\PSoC4/Cm0Start.c ****         #pragma location=".bootloaderruntype"
  93:Generated_Source\PSoC4/Cm0Start.c ****     #endif /* (__ARMCC_VERSION) */
  94:Generated_Source\PSoC4/Cm0Start.c ****     volatile uint32 cyBtldrRunType;
  95:Generated_Source\PSoC4/Cm0Start.c **** 
  96:Generated_Source\PSoC4/Cm0Start.c **** #endif  /* (CYDEV_PROJ_TYPE != CYDEV_PROJ_TYPE_STANDARD) */
  97:Generated_Source\PSoC4/Cm0Start.c **** 
  98:Generated_Source\PSoC4/Cm0Start.c **** 
  99:Generated_Source\PSoC4/Cm0Start.c **** /*******************************************************************************
 100:Generated_Source\PSoC4/Cm0Start.c **** * Function Name: IntDefaultHandler
 101:Generated_Source\PSoC4/Cm0Start.c **** ****************************************************************************//**
 102:Generated_Source\PSoC4/Cm0Start.c **** *
 103:Generated_Source\PSoC4/Cm0Start.c **** *  This function is called for all interrupts, other than a reset that is called
 104:Generated_Source\PSoC4/Cm0Start.c **** *  before the system is setup.
 105:Generated_Source\PSoC4/Cm0Start.c **** *
 106:Generated_Source\PSoC4/Cm0Start.c **** *******************************************************************************/
 107:Generated_Source\PSoC4/Cm0Start.c **** CY_NORETURN
 108:Generated_Source\PSoC4/Cm0Start.c **** CY_ISR(IntDefaultHandler)
 109:Generated_Source\PSoC4/Cm0Start.c **** {
  28              		.loc 1 109 0
  29              		.cfi_startproc
  30              		@ Volatile: function does not return.
  31              		@ args = 0, pretend = 0, frame = 0
  32              		@ frame_needed = 0, uses_anonymous_args = 0
  33 0000 10B5     		push	{r4, lr}
  34              		.cfi_def_cfa_offset 8
  35              		.cfi_offset 4, -8
  36              		.cfi_offset 14, -4
 110:Generated_Source\PSoC4/Cm0Start.c ****     /***************************************************************************
 111:Generated_Source\PSoC4/Cm0Start.c ****     * We must not get here. If we do, a serious problem occurs, so go into
 112:Generated_Source\PSoC4/Cm0Start.c ****     * an infinite loop.
 113:Generated_Source\PSoC4/Cm0Start.c ****     ***************************************************************************/
 114:Generated_Source\PSoC4/Cm0Start.c **** 
 115:Generated_Source\PSoC4/Cm0Start.c ****     #if defined(__GNUC__)
 116:Generated_Source\PSoC4/Cm0Start.c ****         if (errno == ENOMEM)
  37              		.loc 1 116 0
  38 0002 FFF7FEFF 		bl	__errno
  39              	.LVL0:
  40 0006 0368     		ldr	r3, [r0]
  41 0008 0C2B     		cmp	r3, #12
  42 000a 00D1     		bne	.L2
  43              	.L3:
  44 000c FEE7     		b	.L3
  45              	.L2:
  46 000e FEE7     		b	.L2
  47              		.cfi_endproc
  48              	.LFE2:
  49              		.size	IntDefaultHandler, .-IntDefaultHandler
  50              		.section	.text._exit,"ax",%progbits
  51              		.align	2
  52              		.weak	_exit
  53              		.code	16
  54              		.thumb_func
  55              		.type	_exit, %function
ARM GAS  C:\Users\ORA\AppData\Local\Temp\ccjccxtM.s 			page 4


  56              	_exit:
  57              	.LFB3:
 117:Generated_Source\PSoC4/Cm0Start.c ****         {
 118:Generated_Source\PSoC4/Cm0Start.c ****             #ifdef CY_BOOT_INT_DEFAULT_HANDLER_ENOMEM_EXCEPTION_CALLBACK
 119:Generated_Source\PSoC4/Cm0Start.c ****                 CyBoot_IntDefaultHandler_Enomem_Exception_Callback();
 120:Generated_Source\PSoC4/Cm0Start.c ****             #endif /* CY_BOOT_INT_DEFAULT_HANDLER_ENOMEM_EXCEPTION_CALLBACK */
 121:Generated_Source\PSoC4/Cm0Start.c ****             
 122:Generated_Source\PSoC4/Cm0Start.c ****             while(1)
 123:Generated_Source\PSoC4/Cm0Start.c ****             {
 124:Generated_Source\PSoC4/Cm0Start.c ****                 /* Out Of Heap Space
 125:Generated_Source\PSoC4/Cm0Start.c ****                  * This can be increased in the System tab of the Design Wide Resources.
 126:Generated_Source\PSoC4/Cm0Start.c ****                  */
 127:Generated_Source\PSoC4/Cm0Start.c ****             }
 128:Generated_Source\PSoC4/Cm0Start.c ****         }
 129:Generated_Source\PSoC4/Cm0Start.c ****         else
 130:Generated_Source\PSoC4/Cm0Start.c ****     #endif
 131:Generated_Source\PSoC4/Cm0Start.c ****         {
 132:Generated_Source\PSoC4/Cm0Start.c ****             #ifdef CY_BOOT_INT_DEFAULT_HANDLER_EXCEPTION_ENTRY_CALLBACK
 133:Generated_Source\PSoC4/Cm0Start.c ****                 CyBoot_IntDefaultHandler_Exception_EntryCallback();
 134:Generated_Source\PSoC4/Cm0Start.c ****             #endif /* CY_BOOT_INT_DEFAULT_HANDLER_EXCEPTION_ENTRY_CALLBACK */
 135:Generated_Source\PSoC4/Cm0Start.c **** 
 136:Generated_Source\PSoC4/Cm0Start.c ****             while(1)
 137:Generated_Source\PSoC4/Cm0Start.c ****             {
 138:Generated_Source\PSoC4/Cm0Start.c **** 
 139:Generated_Source\PSoC4/Cm0Start.c ****             }
 140:Generated_Source\PSoC4/Cm0Start.c ****         }
 141:Generated_Source\PSoC4/Cm0Start.c **** }
 142:Generated_Source\PSoC4/Cm0Start.c **** 
 143:Generated_Source\PSoC4/Cm0Start.c **** #if defined(__ARMCC_VERSION)
 144:Generated_Source\PSoC4/Cm0Start.c **** 
 145:Generated_Source\PSoC4/Cm0Start.c **** /* Local function for device reset. */
 146:Generated_Source\PSoC4/Cm0Start.c **** extern void Reset(void);
 147:Generated_Source\PSoC4/Cm0Start.c **** 
 148:Generated_Source\PSoC4/Cm0Start.c **** /* Application entry point. */
 149:Generated_Source\PSoC4/Cm0Start.c **** extern void $Super$$main(void);
 150:Generated_Source\PSoC4/Cm0Start.c **** 
 151:Generated_Source\PSoC4/Cm0Start.c **** /* Linker-generated Stack Base addresses, Two Region and One Region */
 152:Generated_Source\PSoC4/Cm0Start.c **** extern unsigned long Image$$ARM_LIB_STACK$$ZI$$Limit;
 153:Generated_Source\PSoC4/Cm0Start.c **** 
 154:Generated_Source\PSoC4/Cm0Start.c **** /* RealView C Library initialization. */
 155:Generated_Source\PSoC4/Cm0Start.c **** extern int __main(void);
 156:Generated_Source\PSoC4/Cm0Start.c **** 
 157:Generated_Source\PSoC4/Cm0Start.c **** 
 158:Generated_Source\PSoC4/Cm0Start.c **** /*******************************************************************************
 159:Generated_Source\PSoC4/Cm0Start.c **** * Function Name: Reset
 160:Generated_Source\PSoC4/Cm0Start.c **** ****************************************************************************//**
 161:Generated_Source\PSoC4/Cm0Start.c **** *
 162:Generated_Source\PSoC4/Cm0Start.c **** * This function handles the reset interrupt for the MDK toolchains.
 163:Generated_Source\PSoC4/Cm0Start.c **** * This is the first bit of code that is executed at startup.
 164:Generated_Source\PSoC4/Cm0Start.c **** *
 165:Generated_Source\PSoC4/Cm0Start.c **** *******************************************************************************/
 166:Generated_Source\PSoC4/Cm0Start.c **** void Reset(void)
 167:Generated_Source\PSoC4/Cm0Start.c **** {
 168:Generated_Source\PSoC4/Cm0Start.c ****     #if (CYDEV_PROJ_TYPE == CYDEV_PROJ_TYPE_LOADABLE || CYDEV_PROJ_TYPE == CYDEV_PROJ_TYPE_LOADABLE
 169:Generated_Source\PSoC4/Cm0Start.c ****         /* The bootloadable application image is started at Reset() handler
 170:Generated_Source\PSoC4/Cm0Start.c ****         * as a result of a branch instruction execution from the bootloader.
 171:Generated_Source\PSoC4/Cm0Start.c ****         * So, the stack pointer needs to be reset to be sure that
ARM GAS  C:\Users\ORA\AppData\Local\Temp\ccjccxtM.s 			page 5


 172:Generated_Source\PSoC4/Cm0Start.c ****         * there is no garbage in the stack.
 173:Generated_Source\PSoC4/Cm0Start.c ****         */
 174:Generated_Source\PSoC4/Cm0Start.c ****         register uint32_t msp __asm("msp");
 175:Generated_Source\PSoC4/Cm0Start.c ****         msp = (uint32_t)&Image$$ARM_LIB_STACK$$ZI$$Limit;
 176:Generated_Source\PSoC4/Cm0Start.c ****     #endif /*(CYDEV_PROJ_TYPE == CYDEV_PROJ_TYPE_LOADABLE || CYDEV_PROJ_TYPE == CYDEV_PROJ_TYPE_LOA
 177:Generated_Source\PSoC4/Cm0Start.c **** 
 178:Generated_Source\PSoC4/Cm0Start.c ****     #if(CY_IP_SRSSLT)
 179:Generated_Source\PSoC4/Cm0Start.c ****         CySysWdtDisable();
 180:Generated_Source\PSoC4/Cm0Start.c ****     #endif  /* (CY_IP_SRSSLT) */
 181:Generated_Source\PSoC4/Cm0Start.c **** 
 182:Generated_Source\PSoC4/Cm0Start.c ****     #if ((CYDEV_BOOTLOADER_ENABLE) && (CYDEV_PROJ_TYPE != CYDEV_PROJ_TYPE_LOADABLEANDBOOTLOADER))
 183:Generated_Source\PSoC4/Cm0Start.c ****         CyBtldr_CheckLaunch();
 184:Generated_Source\PSoC4/Cm0Start.c ****     #endif /* ((CYDEV_BOOTLOADER_ENABLE) && (CYDEV_PROJ_TYPE != CYDEV_PROJ_TYPE_LOADABLEANDBOOTLOAD
 185:Generated_Source\PSoC4/Cm0Start.c **** 
 186:Generated_Source\PSoC4/Cm0Start.c ****     __main();
 187:Generated_Source\PSoC4/Cm0Start.c **** }
 188:Generated_Source\PSoC4/Cm0Start.c **** 
 189:Generated_Source\PSoC4/Cm0Start.c **** /*******************************************************************************
 190:Generated_Source\PSoC4/Cm0Start.c **** * Function Name: $Sub$$main
 191:Generated_Source\PSoC4/Cm0Start.c **** ****************************************************************************//**
 192:Generated_Source\PSoC4/Cm0Start.c **** *
 193:Generated_Source\PSoC4/Cm0Start.c **** * This function is called immediately before the users main
 194:Generated_Source\PSoC4/Cm0Start.c **** *
 195:Generated_Source\PSoC4/Cm0Start.c **** *******************************************************************************/
 196:Generated_Source\PSoC4/Cm0Start.c **** __attribute__ ((noreturn, __noinline__))
 197:Generated_Source\PSoC4/Cm0Start.c **** void $Sub$$main(void)
 198:Generated_Source\PSoC4/Cm0Start.c **** {
 199:Generated_Source\PSoC4/Cm0Start.c ****     initialize_psoc();
 200:Generated_Source\PSoC4/Cm0Start.c **** 
 201:Generated_Source\PSoC4/Cm0Start.c ****     /* Call original main */
 202:Generated_Source\PSoC4/Cm0Start.c ****     $Super$$main();
 203:Generated_Source\PSoC4/Cm0Start.c **** 
 204:Generated_Source\PSoC4/Cm0Start.c ****     while (1)
 205:Generated_Source\PSoC4/Cm0Start.c ****     {
 206:Generated_Source\PSoC4/Cm0Start.c ****         /* If main returns it is undefined what we should do. */
 207:Generated_Source\PSoC4/Cm0Start.c ****     }
 208:Generated_Source\PSoC4/Cm0Start.c **** }
 209:Generated_Source\PSoC4/Cm0Start.c **** 
 210:Generated_Source\PSoC4/Cm0Start.c **** #elif defined(__GNUC__)
 211:Generated_Source\PSoC4/Cm0Start.c **** 
 212:Generated_Source\PSoC4/Cm0Start.c **** /* Stack Base address */
 213:Generated_Source\PSoC4/Cm0Start.c **** extern void __cy_stack(void);
 214:Generated_Source\PSoC4/Cm0Start.c **** 
 215:Generated_Source\PSoC4/Cm0Start.c **** /* Application entry point. */
 216:Generated_Source\PSoC4/Cm0Start.c **** extern int main(void);
 217:Generated_Source\PSoC4/Cm0Start.c **** 
 218:Generated_Source\PSoC4/Cm0Start.c **** /* The static objects constructors initializer */
 219:Generated_Source\PSoC4/Cm0Start.c **** extern void __libc_init_array(void);
 220:Generated_Source\PSoC4/Cm0Start.c **** 
 221:Generated_Source\PSoC4/Cm0Start.c **** typedef unsigned char __cy_byte_align8 __attribute ((aligned (8)));
 222:Generated_Source\PSoC4/Cm0Start.c **** 
 223:Generated_Source\PSoC4/Cm0Start.c **** struct __cy_region
 224:Generated_Source\PSoC4/Cm0Start.c **** {
 225:Generated_Source\PSoC4/Cm0Start.c ****     __cy_byte_align8 *init; /* Initial contents of this region.  */
 226:Generated_Source\PSoC4/Cm0Start.c ****     __cy_byte_align8 *data; /* Start address of region.  */
 227:Generated_Source\PSoC4/Cm0Start.c ****     size_t init_size;       /* Size of initial data.  */
 228:Generated_Source\PSoC4/Cm0Start.c ****     size_t zero_size;       /* Additional size to be zeroed.  */
ARM GAS  C:\Users\ORA\AppData\Local\Temp\ccjccxtM.s 			page 6


 229:Generated_Source\PSoC4/Cm0Start.c **** };
 230:Generated_Source\PSoC4/Cm0Start.c **** 
 231:Generated_Source\PSoC4/Cm0Start.c **** extern const struct __cy_region __cy_regions[];
 232:Generated_Source\PSoC4/Cm0Start.c **** extern const char __cy_region_num __attribute__((weak));
 233:Generated_Source\PSoC4/Cm0Start.c **** #define __cy_region_num ((size_t)&__cy_region_num)
 234:Generated_Source\PSoC4/Cm0Start.c **** 
 235:Generated_Source\PSoC4/Cm0Start.c **** 
 236:Generated_Source\PSoC4/Cm0Start.c **** /*******************************************************************************
 237:Generated_Source\PSoC4/Cm0Start.c **** * System Calls of the Red Hat newlib C Library
 238:Generated_Source\PSoC4/Cm0Start.c **** *******************************************************************************/
 239:Generated_Source\PSoC4/Cm0Start.c **** 
 240:Generated_Source\PSoC4/Cm0Start.c **** 
 241:Generated_Source\PSoC4/Cm0Start.c **** /*******************************************************************************
 242:Generated_Source\PSoC4/Cm0Start.c **** * Function Name: _exit
 243:Generated_Source\PSoC4/Cm0Start.c **** ****************************************************************************//**
 244:Generated_Source\PSoC4/Cm0Start.c **** *
 245:Generated_Source\PSoC4/Cm0Start.c **** * Exit a program without cleaning up files. If your system doesn't provide
 246:Generated_Source\PSoC4/Cm0Start.c **** * this, it is best to avoid linking with subroutines that require it (exit,
 247:Generated_Source\PSoC4/Cm0Start.c **** * system).
 248:Generated_Source\PSoC4/Cm0Start.c **** *
 249:Generated_Source\PSoC4/Cm0Start.c **** * \param status: Status caused program exit.
 250:Generated_Source\PSoC4/Cm0Start.c **** *
 251:Generated_Source\PSoC4/Cm0Start.c **** *******************************************************************************/
 252:Generated_Source\PSoC4/Cm0Start.c **** __attribute__((weak))
 253:Generated_Source\PSoC4/Cm0Start.c **** void _exit(int status)
 254:Generated_Source\PSoC4/Cm0Start.c **** {
  58              		.loc 1 254 0
  59              		.cfi_startproc
  60              		@ Volatile: function does not return.
  61              		@ args = 0, pretend = 0, frame = 0
  62              		@ frame_needed = 0, uses_anonymous_args = 0
  63              	.LVL1:
  64 0000 10B5     		push	{r4, lr}
  65              		.cfi_def_cfa_offset 8
  66              		.cfi_offset 4, -8
  67              		.cfi_offset 14, -4
 255:Generated_Source\PSoC4/Cm0Start.c ****     CyHalt((uint8) status);
  68              		.loc 1 255 0
  69 0002 C0B2     		uxtb	r0, r0
  70              	.LVL2:
  71 0004 FFF7FEFF 		bl	CyHalt
  72              	.LVL3:
  73              	.L5:
  74 0008 FEE7     		b	.L5
  75              		.cfi_endproc
  76              	.LFE3:
  77              		.size	_exit, .-_exit
  78 000a C046     		.section	.text._sbrk,"ax",%progbits
  79              		.align	2
  80              		.weak	_sbrk
  81              		.code	16
  82              		.thumb_func
  83              		.type	_sbrk, %function
  84              	_sbrk:
  85              	.LFB4:
 256:Generated_Source\PSoC4/Cm0Start.c **** 
 257:Generated_Source\PSoC4/Cm0Start.c ****     while(1)
ARM GAS  C:\Users\ORA\AppData\Local\Temp\ccjccxtM.s 			page 7


 258:Generated_Source\PSoC4/Cm0Start.c ****     {
 259:Generated_Source\PSoC4/Cm0Start.c **** 
 260:Generated_Source\PSoC4/Cm0Start.c ****     }
 261:Generated_Source\PSoC4/Cm0Start.c **** }
 262:Generated_Source\PSoC4/Cm0Start.c **** 
 263:Generated_Source\PSoC4/Cm0Start.c **** 
 264:Generated_Source\PSoC4/Cm0Start.c **** /*******************************************************************************
 265:Generated_Source\PSoC4/Cm0Start.c **** * Function Name: _sbrk
 266:Generated_Source\PSoC4/Cm0Start.c **** ****************************************************************************//**
 267:Generated_Source\PSoC4/Cm0Start.c **** *
 268:Generated_Source\PSoC4/Cm0Start.c **** * Increase program data space. As malloc and related functions depend on this,
 269:Generated_Source\PSoC4/Cm0Start.c **** * it is useful to have a working implementation. The following suffices for a
 270:Generated_Source\PSoC4/Cm0Start.c **** * standalone system; it exploits the symbol end automatically defined by the
 271:Generated_Source\PSoC4/Cm0Start.c **** * GNU linker.
 272:Generated_Source\PSoC4/Cm0Start.c **** *
 273:Generated_Source\PSoC4/Cm0Start.c **** * \param nbytes: The number of bytes requested (if the parameter value is positive)
 274:Generated_Source\PSoC4/Cm0Start.c **** * from the heap or returned back to the heap (if the parameter value is
 275:Generated_Source\PSoC4/Cm0Start.c **** * negative).
 276:Generated_Source\PSoC4/Cm0Start.c **** *
 277:Generated_Source\PSoC4/Cm0Start.c **** *******************************************************************************/
 278:Generated_Source\PSoC4/Cm0Start.c **** __attribute__((weak))
 279:Generated_Source\PSoC4/Cm0Start.c **** void * _sbrk (int nbytes)
 280:Generated_Source\PSoC4/Cm0Start.c **** {
  86              		.loc 1 280 0
  87              		.cfi_startproc
  88              		@ args = 0, pretend = 0, frame = 0
  89              		@ frame_needed = 0, uses_anonymous_args = 0
  90              	.LVL4:
  91 0000 10B5     		push	{r4, lr}
  92              		.cfi_def_cfa_offset 8
  93              		.cfi_offset 4, -8
  94              		.cfi_offset 14, -4
  95 0002 0300     		movs	r3, r0
 281:Generated_Source\PSoC4/Cm0Start.c ****     extern int  end;            /* Symbol defined by linker map. Start of free memory (as symbol). 
 282:Generated_Source\PSoC4/Cm0Start.c ****     void *      returnValue;
 283:Generated_Source\PSoC4/Cm0Start.c **** 
 284:Generated_Source\PSoC4/Cm0Start.c ****     /* The statically held previous end of the heap, with its initialization. */
 285:Generated_Source\PSoC4/Cm0Start.c ****     static uint8 *heapPointer = (uint8 *) &end;                 /* Previous end */
 286:Generated_Source\PSoC4/Cm0Start.c **** 
 287:Generated_Source\PSoC4/Cm0Start.c ****     if (((heapPointer + nbytes) - (uint8 *) &end) <= CYDEV_HEAP_SIZE)
  96              		.loc 1 287 0
  97 0004 084A     		ldr	r2, .L9
  98 0006 1068     		ldr	r0, [r2]
  99              	.LVL5:
 100 0008 C318     		adds	r3, r0, r3
 101              	.LVL6:
 102 000a 084A     		ldr	r2, .L9+4
 103 000c 9A1A     		subs	r2, r3, r2
 104 000e 802A     		cmp	r2, #128
 105 0010 02DC     		bgt	.L7
 106              	.LVL7:
 288:Generated_Source\PSoC4/Cm0Start.c ****     {
 289:Generated_Source\PSoC4/Cm0Start.c ****         returnValue  = (void *) heapPointer;
 290:Generated_Source\PSoC4/Cm0Start.c ****         heapPointer += nbytes;
 107              		.loc 1 290 0
 108 0012 054A     		ldr	r2, .L9
 109 0014 1360     		str	r3, [r2]
ARM GAS  C:\Users\ORA\AppData\Local\Temp\ccjccxtM.s 			page 8


 110 0016 05E0     		b	.L8
 111              	.LVL8:
 112              	.L7:
 291:Generated_Source\PSoC4/Cm0Start.c ****     }
 292:Generated_Source\PSoC4/Cm0Start.c ****     else
 293:Generated_Source\PSoC4/Cm0Start.c ****     {
 294:Generated_Source\PSoC4/Cm0Start.c ****         errno = ENOMEM;
 113              		.loc 1 294 0
 114 0018 FFF7FEFF 		bl	__errno
 115              	.LVL9:
 116 001c 0C23     		movs	r3, #12
 117 001e 0360     		str	r3, [r0]
 118              	.LVL10:
 295:Generated_Source\PSoC4/Cm0Start.c ****         returnValue = (void *) -1;
 119              		.loc 1 295 0
 120 0020 0120     		movs	r0, #1
 121 0022 4042     		rsbs	r0, r0, #0
 122              	.LVL11:
 123              	.L8:
 296:Generated_Source\PSoC4/Cm0Start.c ****     }
 297:Generated_Source\PSoC4/Cm0Start.c **** 
 298:Generated_Source\PSoC4/Cm0Start.c ****     return (returnValue);
 299:Generated_Source\PSoC4/Cm0Start.c **** }
 124              		.loc 1 299 0
 125              		@ sp needed
 126 0024 10BD     		pop	{r4, pc}
 127              	.L10:
 128 0026 C046     		.align	2
 129              	.L9:
 130 0028 00000000 		.word	.LANCHOR0
 131 002c 00000000 		.word	end
 132              		.cfi_endproc
 133              	.LFE4:
 134              		.size	_sbrk, .-_sbrk
 135              		.section	.text.Start_c,"ax",%progbits
 136              		.align	2
 137              		.global	Start_c
 138              		.code	16
 139              		.thumb_func
 140              		.type	Start_c, %function
 141              	Start_c:
 142              	.LFB5:
 300:Generated_Source\PSoC4/Cm0Start.c **** 
 301:Generated_Source\PSoC4/Cm0Start.c **** 
 302:Generated_Source\PSoC4/Cm0Start.c **** /*******************************************************************************
 303:Generated_Source\PSoC4/Cm0Start.c **** * Function Name: Start_c
 304:Generated_Source\PSoC4/Cm0Start.c **** ****************************************************************************//**
 305:Generated_Source\PSoC4/Cm0Start.c **** *
 306:Generated_Source\PSoC4/Cm0Start.c **** * This function handles initializing the .data and .bss sections in
 307:Generated_Source\PSoC4/Cm0Start.c **** * preparation for running the standard c code.  Once initialization is complete
 308:Generated_Source\PSoC4/Cm0Start.c **** * it will call main().  This function will never return.
 309:Generated_Source\PSoC4/Cm0Start.c **** *
 310:Generated_Source\PSoC4/Cm0Start.c **** *******************************************************************************/
 311:Generated_Source\PSoC4/Cm0Start.c **** void Start_c(void)  __attribute__ ((noreturn, noinline));
 312:Generated_Source\PSoC4/Cm0Start.c **** void Start_c(void)
 313:Generated_Source\PSoC4/Cm0Start.c **** {
 143              		.loc 1 313 0
ARM GAS  C:\Users\ORA\AppData\Local\Temp\ccjccxtM.s 			page 9


 144              		.cfi_startproc
 145              		@ Volatile: function does not return.
 146              		@ args = 0, pretend = 0, frame = 0
 147              		@ frame_needed = 0, uses_anonymous_args = 0
 148 0000 70B5     		push	{r4, r5, r6, lr}
 149              		.cfi_def_cfa_offset 16
 150              		.cfi_offset 4, -16
 151              		.cfi_offset 5, -12
 152              		.cfi_offset 6, -8
 153              		.cfi_offset 14, -4
 154              	.LVL12:
 314:Generated_Source\PSoC4/Cm0Start.c ****     #ifdef CY_BOOT_START_C_CALLBACK
 315:Generated_Source\PSoC4/Cm0Start.c ****         CyBoot_Start_c_Callback();
 316:Generated_Source\PSoC4/Cm0Start.c ****     #else
 317:Generated_Source\PSoC4/Cm0Start.c ****         unsigned regions = __cy_region_num;
 318:Generated_Source\PSoC4/Cm0Start.c ****         const struct __cy_region *rptr = __cy_regions;
 319:Generated_Source\PSoC4/Cm0Start.c **** 
 320:Generated_Source\PSoC4/Cm0Start.c ****         /* Initialize memory */
 321:Generated_Source\PSoC4/Cm0Start.c ****         for (regions = __cy_region_num; regions != 0u; regions--)
 155              		.loc 1 321 0
 156 0002 0F4E     		ldr	r6, .L19
 157              	.LVL13:
 318:Generated_Source\PSoC4/Cm0Start.c **** 
 158              		.loc 1 318 0
 159 0004 0F4D     		ldr	r5, .L19+4
 160              		.loc 1 321 0
 161 0006 13E0     		b	.L12
 162              	.LVL14:
 163              	.L17:
 164              	.LBB2:
 322:Generated_Source\PSoC4/Cm0Start.c ****         {
 323:Generated_Source\PSoC4/Cm0Start.c ****             uint32 *src = (uint32 *)rptr->init;
 165              		.loc 1 323 0
 166 0008 2968     		ldr	r1, [r5]
 167              	.LVL15:
 324:Generated_Source\PSoC4/Cm0Start.c ****             uint32 *dst = (uint32 *)rptr->data;
 168              		.loc 1 324 0
 169 000a 6B68     		ldr	r3, [r5, #4]
 170              	.LVL16:
 325:Generated_Source\PSoC4/Cm0Start.c ****             unsigned limit = rptr->init_size;
 171              		.loc 1 325 0
 172 000c AC68     		ldr	r4, [r5, #8]
 173              	.LVL17:
 326:Generated_Source\PSoC4/Cm0Start.c ****             unsigned count;
 327:Generated_Source\PSoC4/Cm0Start.c **** 
 328:Generated_Source\PSoC4/Cm0Start.c ****             for (count = 0u; count != limit; count += sizeof (uint32))
 174              		.loc 1 328 0
 175 000e 0022     		movs	r2, #0
 176 0010 02E0     		b	.L13
 177              	.LVL18:
 178              	.L14:
 329:Generated_Source\PSoC4/Cm0Start.c ****             {
 330:Generated_Source\PSoC4/Cm0Start.c ****                 *dst = *src;
 179              		.loc 1 330 0 discriminator 3
 180 0012 01C9     		ldmia	r1!, {r0}
 181              	.LVL19:
 182 0014 01C3     		stmia	r3!, {r0}
ARM GAS  C:\Users\ORA\AppData\Local\Temp\ccjccxtM.s 			page 10


 183              	.LVL20:
 328:Generated_Source\PSoC4/Cm0Start.c ****             {
 184              		.loc 1 328 0 discriminator 3
 185 0016 0432     		adds	r2, r2, #4
 186              	.LVL21:
 187              	.L13:
 328:Generated_Source\PSoC4/Cm0Start.c ****             {
 188              		.loc 1 328 0 is_stmt 0 discriminator 1
 189 0018 A242     		cmp	r2, r4
 190 001a FAD1     		bne	.L14
 331:Generated_Source\PSoC4/Cm0Start.c ****                 dst++;
 332:Generated_Source\PSoC4/Cm0Start.c ****                 src++;
 333:Generated_Source\PSoC4/Cm0Start.c ****             }
 334:Generated_Source\PSoC4/Cm0Start.c ****             limit = rptr->zero_size;
 191              		.loc 1 334 0 is_stmt 1
 192 001c E868     		ldr	r0, [r5, #12]
 193              	.LVL22:
 335:Generated_Source\PSoC4/Cm0Start.c ****             for (count = 0u; count != limit; count += sizeof (uint32))
 194              		.loc 1 335 0
 195 001e 0022     		movs	r2, #0
 196 0020 02E0     		b	.L15
 197              	.LVL23:
 198              	.L16:
 336:Generated_Source\PSoC4/Cm0Start.c ****             {
 337:Generated_Source\PSoC4/Cm0Start.c ****                 *dst = 0u;
 199              		.loc 1 337 0 discriminator 3
 200 0022 0021     		movs	r1, #0
 201 0024 02C3     		stmia	r3!, {r1}
 202              	.LVL24:
 335:Generated_Source\PSoC4/Cm0Start.c ****             for (count = 0u; count != limit; count += sizeof (uint32))
 203              		.loc 1 335 0 discriminator 3
 204 0026 0432     		adds	r2, r2, #4
 205              	.LVL25:
 206              	.L15:
 335:Generated_Source\PSoC4/Cm0Start.c ****             for (count = 0u; count != limit; count += sizeof (uint32))
 207              		.loc 1 335 0 is_stmt 0 discriminator 1
 208 0028 8242     		cmp	r2, r0
 209 002a FAD1     		bne	.L16
 338:Generated_Source\PSoC4/Cm0Start.c ****                 dst++;
 339:Generated_Source\PSoC4/Cm0Start.c ****             }
 340:Generated_Source\PSoC4/Cm0Start.c **** 
 341:Generated_Source\PSoC4/Cm0Start.c ****             rptr++;
 210              		.loc 1 341 0 is_stmt 1 discriminator 2
 211 002c 1035     		adds	r5, r5, #16
 212              	.LVL26:
 213              	.LBE2:
 321:Generated_Source\PSoC4/Cm0Start.c ****         {
 214              		.loc 1 321 0 discriminator 2
 215 002e 013E     		subs	r6, r6, #1
 216              	.LVL27:
 217              	.L12:
 321:Generated_Source\PSoC4/Cm0Start.c ****         {
 218              		.loc 1 321 0 is_stmt 0 discriminator 1
 219 0030 002E     		cmp	r6, #0
 220 0032 E9D1     		bne	.L17
 342:Generated_Source\PSoC4/Cm0Start.c ****         }
 343:Generated_Source\PSoC4/Cm0Start.c **** 
ARM GAS  C:\Users\ORA\AppData\Local\Temp\ccjccxtM.s 			page 11


 344:Generated_Source\PSoC4/Cm0Start.c ****         /* Invoke static objects constructors */
 345:Generated_Source\PSoC4/Cm0Start.c ****         __libc_init_array();
 221              		.loc 1 345 0 is_stmt 1
 222 0034 FFF7FEFF 		bl	__libc_init_array
 223              	.LVL28:
 346:Generated_Source\PSoC4/Cm0Start.c ****         (void) main();
 224              		.loc 1 346 0
 225 0038 FFF7FEFF 		bl	main
 226              	.LVL29:
 227              	.L18:
 228 003c FEE7     		b	.L18
 229              	.L20:
 230 003e C046     		.align	2
 231              	.L19:
 232 0040 00000000 		.word	__cy_region_num
 233 0044 00000000 		.word	__cy_regions
 234              		.cfi_endproc
 235              	.LFE5:
 236              		.size	Start_c, .-Start_c
 237              		.section	.text.Reset,"ax",%progbits
 238              		.align	2
 239              		.global	Reset
 240              		.code	16
 241              		.thumb_func
 242              		.type	Reset, %function
 243              	Reset:
 244              	.LFB6:
 347:Generated_Source\PSoC4/Cm0Start.c **** 
 348:Generated_Source\PSoC4/Cm0Start.c ****         while (1)
 349:Generated_Source\PSoC4/Cm0Start.c ****         {
 350:Generated_Source\PSoC4/Cm0Start.c ****             /* If main returns, make sure we don't return. */
 351:Generated_Source\PSoC4/Cm0Start.c ****         }
 352:Generated_Source\PSoC4/Cm0Start.c **** 
 353:Generated_Source\PSoC4/Cm0Start.c ****     #endif /* CY_BOOT_START_C_CALLBACK */
 354:Generated_Source\PSoC4/Cm0Start.c **** }
 355:Generated_Source\PSoC4/Cm0Start.c **** 
 356:Generated_Source\PSoC4/Cm0Start.c **** 
 357:Generated_Source\PSoC4/Cm0Start.c **** /*******************************************************************************
 358:Generated_Source\PSoC4/Cm0Start.c **** * Function Name: Reset
 359:Generated_Source\PSoC4/Cm0Start.c **** ****************************************************************************//**
 360:Generated_Source\PSoC4/Cm0Start.c **** *
 361:Generated_Source\PSoC4/Cm0Start.c **** * This function handles the reset interrupt for the GCC toolchain.  This is
 362:Generated_Source\PSoC4/Cm0Start.c **** * the first bit of code that is executed at startup.
 363:Generated_Source\PSoC4/Cm0Start.c **** *
 364:Generated_Source\PSoC4/Cm0Start.c **** *******************************************************************************/
 365:Generated_Source\PSoC4/Cm0Start.c **** void Reset(void)
 366:Generated_Source\PSoC4/Cm0Start.c **** {
 245              		.loc 1 366 0
 246              		.cfi_startproc
 247              		@ Volatile: function does not return.
 248              		@ args = 0, pretend = 0, frame = 0
 249              		@ frame_needed = 0, uses_anonymous_args = 0
 250 0000 10B5     		push	{r4, lr}
 251              		.cfi_def_cfa_offset 8
 252              		.cfi_offset 4, -8
 253              		.cfi_offset 14, -4
 367:Generated_Source\PSoC4/Cm0Start.c ****     #if (CYDEV_PROJ_TYPE == CYDEV_PROJ_TYPE_LOADABLE || CYDEV_PROJ_TYPE == CYDEV_PROJ_TYPE_LOADABLE
ARM GAS  C:\Users\ORA\AppData\Local\Temp\ccjccxtM.s 			page 12


 368:Generated_Source\PSoC4/Cm0Start.c **** 
 369:Generated_Source\PSoC4/Cm0Start.c ****         /* The bootloadable application image is started at Reset() handler
 370:Generated_Source\PSoC4/Cm0Start.c ****         * as a result of a branch instruction execution from the bootloader.
 371:Generated_Source\PSoC4/Cm0Start.c ****         * So, the stack pointer needs to be reset to be sure that
 372:Generated_Source\PSoC4/Cm0Start.c ****         * there is no garbage in the stack.
 373:Generated_Source\PSoC4/Cm0Start.c ****         */
 374:Generated_Source\PSoC4/Cm0Start.c ****         __asm volatile ("MSR msp, %0\n" : : "r" ((uint32)&__cy_stack) : "sp");
 375:Generated_Source\PSoC4/Cm0Start.c ****     #endif /* CYDEV_PROJ_TYPE_LOADABLE */
 376:Generated_Source\PSoC4/Cm0Start.c **** 
 377:Generated_Source\PSoC4/Cm0Start.c ****     #if(CY_IP_SRSSLT)
 378:Generated_Source\PSoC4/Cm0Start.c ****         CySysWdtDisable();
 379:Generated_Source\PSoC4/Cm0Start.c ****     #endif  /* (CY_IP_SRSSLT) */
 380:Generated_Source\PSoC4/Cm0Start.c **** 
 381:Generated_Source\PSoC4/Cm0Start.c ****     #if ((CYDEV_BOOTLOADER_ENABLE) && (CYDEV_PROJ_TYPE != CYDEV_PROJ_TYPE_LOADABLEANDBOOTLOADER))
 382:Generated_Source\PSoC4/Cm0Start.c ****         CyBtldr_CheckLaunch();
 383:Generated_Source\PSoC4/Cm0Start.c ****     #endif /* ((CYDEV_BOOTLOADER_ENABLE) && (CYDEV_PROJ_TYPE != CYDEV_PROJ_TYPE_LOADABLEANDBOOTLOAD
 384:Generated_Source\PSoC4/Cm0Start.c ****     Start_c();
 254              		.loc 1 384 0
 255 0002 FFF7FEFF 		bl	Start_c
 256              	.LVL30:
 257              		.cfi_endproc
 258              	.LFE6:
 259              		.size	Reset, .-Reset
 260 0006 C046     		.section	.text.initialize_psoc,"ax",%progbits
 261              		.align	2
 262              		.global	initialize_psoc
 263              		.code	16
 264              		.thumb_func
 265              		.type	initialize_psoc, %function
 266              	initialize_psoc:
 267              	.LFB7:
 385:Generated_Source\PSoC4/Cm0Start.c **** }
 386:Generated_Source\PSoC4/Cm0Start.c **** 
 387:Generated_Source\PSoC4/Cm0Start.c **** #elif defined (__ICCARM__)
 388:Generated_Source\PSoC4/Cm0Start.c **** 
 389:Generated_Source\PSoC4/Cm0Start.c **** 
 390:Generated_Source\PSoC4/Cm0Start.c **** /*******************************************************************************
 391:Generated_Source\PSoC4/Cm0Start.c **** * Function Name: __low_level_init
 392:Generated_Source\PSoC4/Cm0Start.c **** ****************************************************************************//**
 393:Generated_Source\PSoC4/Cm0Start.c **** *
 394:Generated_Source\PSoC4/Cm0Start.c **** * This function performs early initializations for the IAR Embedded
 395:Generated_Source\PSoC4/Cm0Start.c **** * Workbench IDE. It is executed in the context of reset interrupt handler
 396:Generated_Source\PSoC4/Cm0Start.c **** * before the data sections are initialized.
 397:Generated_Source\PSoC4/Cm0Start.c **** *
 398:Generated_Source\PSoC4/Cm0Start.c **** * \return The value that determines whether or not data sections should be
 399:Generated_Source\PSoC4/Cm0Start.c **** * initialized by the system startup code:
 400:Generated_Source\PSoC4/Cm0Start.c **** *    0 - skip data sections initialization;
 401:Generated_Source\PSoC4/Cm0Start.c **** *    1 - initialize data sections;
 402:Generated_Source\PSoC4/Cm0Start.c **** *
 403:Generated_Source\PSoC4/Cm0Start.c **** *******************************************************************************/
 404:Generated_Source\PSoC4/Cm0Start.c **** #pragma inline = never
 405:Generated_Source\PSoC4/Cm0Start.c **** int __low_level_init(void)
 406:Generated_Source\PSoC4/Cm0Start.c **** {
 407:Generated_Source\PSoC4/Cm0Start.c ****     #if(CY_IP_SRSSLT)
 408:Generated_Source\PSoC4/Cm0Start.c ****         CySysWdtDisable();
 409:Generated_Source\PSoC4/Cm0Start.c ****     #endif  /* (CY_IP_SRSSLT) */
 410:Generated_Source\PSoC4/Cm0Start.c **** 
ARM GAS  C:\Users\ORA\AppData\Local\Temp\ccjccxtM.s 			page 13


 411:Generated_Source\PSoC4/Cm0Start.c **** #if ((CYDEV_BOOTLOADER_ENABLE) && (CYDEV_PROJ_TYPE != CYDEV_PROJ_TYPE_LOADABLEANDBOOTLOADER))
 412:Generated_Source\PSoC4/Cm0Start.c ****     CyBtldr_CheckLaunch();
 413:Generated_Source\PSoC4/Cm0Start.c **** #endif /* ((CYDEV_BOOTLOADER_ENABLE) && (CYDEV_PROJ_TYPE != CYDEV_PROJ_TYPE_LOADABLEANDBOOTLOADER))
 414:Generated_Source\PSoC4/Cm0Start.c **** 
 415:Generated_Source\PSoC4/Cm0Start.c ****     /* Initialize data sections */
 416:Generated_Source\PSoC4/Cm0Start.c ****     __iar_data_init3();
 417:Generated_Source\PSoC4/Cm0Start.c **** 
 418:Generated_Source\PSoC4/Cm0Start.c ****     initialize_psoc();
 419:Generated_Source\PSoC4/Cm0Start.c **** 
 420:Generated_Source\PSoC4/Cm0Start.c ****     return 0;
 421:Generated_Source\PSoC4/Cm0Start.c **** }
 422:Generated_Source\PSoC4/Cm0Start.c **** 
 423:Generated_Source\PSoC4/Cm0Start.c **** #endif /* __GNUC__ */
 424:Generated_Source\PSoC4/Cm0Start.c **** 
 425:Generated_Source\PSoC4/Cm0Start.c **** 
 426:Generated_Source\PSoC4/Cm0Start.c **** /*******************************************************************************
 427:Generated_Source\PSoC4/Cm0Start.c **** * Ram Interrupt Vector table storage area. Must be placed at 0x20000000.
 428:Generated_Source\PSoC4/Cm0Start.c **** *******************************************************************************/
 429:Generated_Source\PSoC4/Cm0Start.c **** 
 430:Generated_Source\PSoC4/Cm0Start.c **** #if defined (__ICCARM__)
 431:Generated_Source\PSoC4/Cm0Start.c ****     #pragma location=".ramvectors"
 432:Generated_Source\PSoC4/Cm0Start.c **** #elif defined (__ARMCC_VERSION)
 433:Generated_Source\PSoC4/Cm0Start.c ****     #ifndef CY_SYS_RAM_VECTOR_SECTION
 434:Generated_Source\PSoC4/Cm0Start.c ****         #define CY_SYS_RAM_VECTOR_SECTION __attribute__((section(".ramvectors"), zero_init))
 435:Generated_Source\PSoC4/Cm0Start.c ****     #endif /* CY_SYS_RAM_VECTOR_SECTION */
 436:Generated_Source\PSoC4/Cm0Start.c ****     CY_SYS_RAM_VECTOR_SECTION    
 437:Generated_Source\PSoC4/Cm0Start.c **** #else
 438:Generated_Source\PSoC4/Cm0Start.c ****     #ifndef CY_SYS_RAM_VECTOR_SECTION
 439:Generated_Source\PSoC4/Cm0Start.c ****         #define CY_SYS_RAM_VECTOR_SECTION CY_SECTION(".ramvectors")
 440:Generated_Source\PSoC4/Cm0Start.c ****     #endif /* CY_SYS_RAM_VECTOR_SECTION */
 441:Generated_Source\PSoC4/Cm0Start.c ****     CY_SYS_RAM_VECTOR_SECTION
 442:Generated_Source\PSoC4/Cm0Start.c **** #endif  /* defined (__ICCARM__) */
 443:Generated_Source\PSoC4/Cm0Start.c **** cyisraddress CyRamVectors[CY_NUM_VECTORS];
 444:Generated_Source\PSoC4/Cm0Start.c **** 
 445:Generated_Source\PSoC4/Cm0Start.c **** 
 446:Generated_Source\PSoC4/Cm0Start.c **** /*******************************************************************************
 447:Generated_Source\PSoC4/Cm0Start.c **** * Rom Interrupt Vector table storage area. Must be 256-byte aligned.
 448:Generated_Source\PSoC4/Cm0Start.c **** *******************************************************************************/
 449:Generated_Source\PSoC4/Cm0Start.c **** 
 450:Generated_Source\PSoC4/Cm0Start.c **** #if defined(__ARMCC_VERSION)
 451:Generated_Source\PSoC4/Cm0Start.c ****     /* Suppress diagnostic message 1296-D: extended constant initialiser used */
 452:Generated_Source\PSoC4/Cm0Start.c ****     #pragma diag_suppress 1296
 453:Generated_Source\PSoC4/Cm0Start.c **** #endif  /* defined(__ARMCC_VERSION) */
 454:Generated_Source\PSoC4/Cm0Start.c **** 
 455:Generated_Source\PSoC4/Cm0Start.c **** #if defined (__ICCARM__)
 456:Generated_Source\PSoC4/Cm0Start.c ****     #pragma location=".romvectors"
 457:Generated_Source\PSoC4/Cm0Start.c ****     const intvec_elem __vector_table[CY_NUM_ROM_VECTORS] =
 458:Generated_Source\PSoC4/Cm0Start.c **** #else
 459:Generated_Source\PSoC4/Cm0Start.c ****     #ifndef CY_SYS_ROM_VECTOR_SECTION
 460:Generated_Source\PSoC4/Cm0Start.c ****         #define CY_SYS_ROM_VECTOR_SECTION CY_SECTION(".romvectors")
 461:Generated_Source\PSoC4/Cm0Start.c ****     #endif /* CY_SYS_ROM_VECTOR_SECTION */
 462:Generated_Source\PSoC4/Cm0Start.c ****     CY_SYS_ROM_VECTOR_SECTION
 463:Generated_Source\PSoC4/Cm0Start.c ****     const cyisraddress RomVectors[CY_NUM_ROM_VECTORS] =
 464:Generated_Source\PSoC4/Cm0Start.c **** #endif  /* defined (__ICCARM__) */
 465:Generated_Source\PSoC4/Cm0Start.c **** {
 466:Generated_Source\PSoC4/Cm0Start.c ****     CY_SYS_INITIAL_STACK_POINTER,   /* The initial stack pointer  0 */
 467:Generated_Source\PSoC4/Cm0Start.c ****     #if defined (__ICCARM__) /* The reset handler          1 */
ARM GAS  C:\Users\ORA\AppData\Local\Temp\ccjccxtM.s 			page 14


 468:Generated_Source\PSoC4/Cm0Start.c ****         __iar_program_start,
 469:Generated_Source\PSoC4/Cm0Start.c ****     #else
 470:Generated_Source\PSoC4/Cm0Start.c ****         (cyisraddress)&Reset,
 471:Generated_Source\PSoC4/Cm0Start.c ****     #endif  /* defined (__ICCARM__) */
 472:Generated_Source\PSoC4/Cm0Start.c ****     &IntDefaultHandler,      /* The NMI handler            2 */
 473:Generated_Source\PSoC4/Cm0Start.c ****     &IntDefaultHandler,      /* The hard fault handler     3 */
 474:Generated_Source\PSoC4/Cm0Start.c **** };
 475:Generated_Source\PSoC4/Cm0Start.c **** 
 476:Generated_Source\PSoC4/Cm0Start.c **** #if defined(__ARMCC_VERSION)
 477:Generated_Source\PSoC4/Cm0Start.c ****     #pragma diag_default 1296
 478:Generated_Source\PSoC4/Cm0Start.c **** #endif  /* defined(__ARMCC_VERSION) */
 479:Generated_Source\PSoC4/Cm0Start.c **** 
 480:Generated_Source\PSoC4/Cm0Start.c **** 
 481:Generated_Source\PSoC4/Cm0Start.c **** /*******************************************************************************
 482:Generated_Source\PSoC4/Cm0Start.c **** * Function Name: initialize_psoc
 483:Generated_Source\PSoC4/Cm0Start.c **** ****************************************************************************//**
 484:Generated_Source\PSoC4/Cm0Start.c **** *
 485:Generated_Source\PSoC4/Cm0Start.c **** * This function is used to initialize the PSoC chip before calling main.
 486:Generated_Source\PSoC4/Cm0Start.c **** *
 487:Generated_Source\PSoC4/Cm0Start.c **** *******************************************************************************/
 488:Generated_Source\PSoC4/Cm0Start.c **** #if(defined(__GNUC__) && !defined(__ARMCC_VERSION))
 489:Generated_Source\PSoC4/Cm0Start.c **** __attribute__ ((constructor(101)))
 490:Generated_Source\PSoC4/Cm0Start.c **** #endif  /* (defined(__GNUC__) && !defined(__ARMCC_VERSION)) */
 491:Generated_Source\PSoC4/Cm0Start.c **** void initialize_psoc(void)
 492:Generated_Source\PSoC4/Cm0Start.c **** {
 268              		.loc 1 492 0
 269              		.cfi_startproc
 270              		@ args = 0, pretend = 0, frame = 0
 271              		@ frame_needed = 0, uses_anonymous_args = 0
 272 0000 10B5     		push	{r4, lr}
 273              		.cfi_def_cfa_offset 8
 274              		.cfi_offset 4, -8
 275              		.cfi_offset 14, -4
 493:Generated_Source\PSoC4/Cm0Start.c ****     uint32 indexInit;
 494:Generated_Source\PSoC4/Cm0Start.c **** 
 495:Generated_Source\PSoC4/Cm0Start.c ****     #if(CY_IP_CPUSSV2)
 496:Generated_Source\PSoC4/Cm0Start.c ****         #if (CY_IP_CPUSS_CM0)
 497:Generated_Source\PSoC4/Cm0Start.c ****             /***********************************************************************
 498:Generated_Source\PSoC4/Cm0Start.c ****             * Make sure that Vector Table is located at 0000_0000 in Flash, before
 499:Generated_Source\PSoC4/Cm0Start.c ****             * accessing RomVectors or calling functions that may be placed in
 500:Generated_Source\PSoC4/Cm0Start.c ****             * .psocinit (cyfitter_cfg and ClockSetup). Note The CY_CPUSS_CONFIG_REG
 501:Generated_Source\PSoC4/Cm0Start.c ****             * register is retention for the specified device family.
 502:Generated_Source\PSoC4/Cm0Start.c ****             ***********************************************************************/
 503:Generated_Source\PSoC4/Cm0Start.c ****             CY_CPUSS_CONFIG_REG &= (uint32) ~CY_CPUSS_CONFIG_VECT_IN_RAM;
 276              		.loc 1 503 0
 277 0002 0E4A     		ldr	r2, .L27
 278 0004 1368     		ldr	r3, [r2]
 279 0006 0121     		movs	r1, #1
 280 0008 8B43     		bics	r3, r1
 281 000a 1360     		str	r3, [r2]
 282              	.LVL31:
 504:Generated_Source\PSoC4/Cm0Start.c ****         #endif /* (CY_IP_CPUSS_CM0) */
 505:Generated_Source\PSoC4/Cm0Start.c ****     #endif  /* (CY_IP_CPUSSV2) */
 506:Generated_Source\PSoC4/Cm0Start.c **** 
 507:Generated_Source\PSoC4/Cm0Start.c ****     /* Set Ram interrupt vectors to default functions. */
 508:Generated_Source\PSoC4/Cm0Start.c ****     for (indexInit = 0u; indexInit < CY_NUM_VECTORS; indexInit++)
 283              		.loc 1 508 0
ARM GAS  C:\Users\ORA\AppData\Local\Temp\ccjccxtM.s 			page 15


 284 000c 0023     		movs	r3, #0
 285 000e 0AE0     		b	.L23
 286              	.LVL32:
 287              	.L25:
 509:Generated_Source\PSoC4/Cm0Start.c ****     {
 510:Generated_Source\PSoC4/Cm0Start.c ****         CyRamVectors[indexInit] = (indexInit < CY_NUM_ROM_VECTORS) ?
 511:Generated_Source\PSoC4/Cm0Start.c ****             #if defined (__ICCARM__)
 512:Generated_Source\PSoC4/Cm0Start.c ****                 __vector_table[indexInit].__fun : &IntDefaultHandler;
 513:Generated_Source\PSoC4/Cm0Start.c ****             #else
 514:Generated_Source\PSoC4/Cm0Start.c ****                 RomVectors[indexInit] : &IntDefaultHandler;
 288              		.loc 1 514 0
 289 0010 032B     		cmp	r3, #3
 290 0012 03D8     		bhi	.L26
 291              		.loc 1 514 0 is_stmt 0 discriminator 1
 292 0014 9A00     		lsls	r2, r3, #2
 293 0016 0A49     		ldr	r1, .L27+4
 294 0018 5058     		ldr	r0, [r2, r1]
 295 001a 00E0     		b	.L24
 296              	.L26:
 297              		.loc 1 514 0
 298 001c 0948     		ldr	r0, .L27+8
 299              	.L24:
 510:Generated_Source\PSoC4/Cm0Start.c ****             #if defined (__ICCARM__)
 300              		.loc 1 510 0 is_stmt 1 discriminator 2
 301 001e 9900     		lsls	r1, r3, #2
 302 0020 094A     		ldr	r2, .L27+12
 303 0022 8850     		str	r0, [r1, r2]
 508:Generated_Source\PSoC4/Cm0Start.c ****     {
 304              		.loc 1 508 0 discriminator 2
 305 0024 0133     		adds	r3, r3, #1
 306              	.LVL33:
 307              	.L23:
 508:Generated_Source\PSoC4/Cm0Start.c ****     {
 308              		.loc 1 508 0 is_stmt 0 discriminator 1
 309 0026 2F2B     		cmp	r3, #47
 310 0028 F2D9     		bls	.L25
 515:Generated_Source\PSoC4/Cm0Start.c ****             #endif  /* defined (__ICCARM__) */
 516:Generated_Source\PSoC4/Cm0Start.c ****     }
 517:Generated_Source\PSoC4/Cm0Start.c **** 
 518:Generated_Source\PSoC4/Cm0Start.c ****     /* Initialize configuration registers. */
 519:Generated_Source\PSoC4/Cm0Start.c ****     cyfitter_cfg();
 311              		.loc 1 519 0 is_stmt 1
 312 002a FFF7FEFF 		bl	cyfitter_cfg
 313              	.LVL34:
 520:Generated_Source\PSoC4/Cm0Start.c **** 
 521:Generated_Source\PSoC4/Cm0Start.c ****     #if !defined (__ICCARM__)
 522:Generated_Source\PSoC4/Cm0Start.c ****         /* Actually, no need to clean this variable, just to make compiler happy. */
 523:Generated_Source\PSoC4/Cm0Start.c ****         cySysNoInitDataValid = 0u;
 524:Generated_Source\PSoC4/Cm0Start.c ****     #endif  /* !defined (__ICCARM__) */
 525:Generated_Source\PSoC4/Cm0Start.c **** 
 526:Generated_Source\PSoC4/Cm0Start.c ****     #if (CYDEV_PROJ_TYPE != CYDEV_PROJ_TYPE_STANDARD)
 527:Generated_Source\PSoC4/Cm0Start.c **** 
 528:Generated_Source\PSoC4/Cm0Start.c ****         /* Need to make sure that this variable will not be optimized out */
 529:Generated_Source\PSoC4/Cm0Start.c ****         if (0u == cyBtldrRunType)
 530:Generated_Source\PSoC4/Cm0Start.c ****         {
 531:Generated_Source\PSoC4/Cm0Start.c ****             cyBtldrRunType = 0u;
 532:Generated_Source\PSoC4/Cm0Start.c ****         }
ARM GAS  C:\Users\ORA\AppData\Local\Temp\ccjccxtM.s 			page 16


 533:Generated_Source\PSoC4/Cm0Start.c **** 
 534:Generated_Source\PSoC4/Cm0Start.c ****     #endif  /* (CYDEV_PROJ_TYPE != CYDEV_PROJ_TYPE_STANDARD) */
 535:Generated_Source\PSoC4/Cm0Start.c **** 
 536:Generated_Source\PSoC4/Cm0Start.c ****     #if (CY_IP_CPUSS_CM0)
 537:Generated_Source\PSoC4/Cm0Start.c ****         /* Vector Table is located at 0x2000:0000 in SRAM */
 538:Generated_Source\PSoC4/Cm0Start.c ****         CY_CPUSS_CONFIG_REG |= CY_CPUSS_CONFIG_VECT_IN_RAM;
 314              		.loc 1 538 0
 315 002e 034A     		ldr	r2, .L27
 316 0030 1168     		ldr	r1, [r2]
 317 0032 0123     		movs	r3, #1
 318 0034 0B43     		orrs	r3, r1
 319 0036 1360     		str	r3, [r2]
 539:Generated_Source\PSoC4/Cm0Start.c **** 	#else
 540:Generated_Source\PSoC4/Cm0Start.c **** 		(*(uint32 *)CYREG_CM0P_VTOR) = CY_CPUSS_CONFIG_VECT_ADDR_IN_RAM;
 541:Generated_Source\PSoC4/Cm0Start.c ****     #endif /* (CY_IP_CPUSS_CM0) */
 542:Generated_Source\PSoC4/Cm0Start.c **** }
 320              		.loc 1 542 0
 321              		@ sp needed
 322 0038 10BD     		pop	{r4, pc}
 323              	.L28:
 324 003a C046     		.align	2
 325              	.L27:
 326 003c 00001040 		.word	1074790400
 327 0040 00000000 		.word	.LANCHOR1
 328 0044 00000000 		.word	IntDefaultHandler
 329 0048 00000000 		.word	.LANCHOR2
 330              		.cfi_endproc
 331              	.LFE7:
 332              		.size	initialize_psoc, .-initialize_psoc
 333              		.section	.init_array,"aw",%init_array
 334              		.align	2
 335 0000 00000000 		.word	initialize_psoc(target1)
 336              		.global	RomVectors
 337              		.global	CyRamVectors
 338              		.section	.romvectors,"a",%progbits
 339              		.align	2
 340              		.set	.LANCHOR1,. + 0
 341              		.type	RomVectors, %object
 342              		.size	RomVectors, 16
 343              	RomVectors:
 344 0000 00000000 		.word	__cy_stack
 345 0004 00000000 		.word	Reset
 346 0008 00000000 		.word	IntDefaultHandler
 347 000c 00000000 		.word	IntDefaultHandler
 348              		.data
 349              		.align	2
 350              		.set	.LANCHOR0,. + 0
 351              		.type	heapPointer.4890, %object
 352              		.size	heapPointer.4890, 4
 353              	heapPointer.4890:
 354 0000 00000000 		.word	end
 355              		.section	.ramvectors,"aw",%progbits
 356              		.align	2
 357              		.set	.LANCHOR2,. + 0
 358              		.type	CyRamVectors, %object
 359              		.size	CyRamVectors, 192
 360              	CyRamVectors:
ARM GAS  C:\Users\ORA\AppData\Local\Temp\ccjccxtM.s 			page 17


 361 0000 00000000 		.space	192
 361      00000000 
 361      00000000 
 361      00000000 
 361      00000000 
 362              		.weak	__cy_region_num
 363              		.text
 364              	.Letext0:
 365              		.file 2 "c:\\program files (x86)\\cypress\\psoc creator\\4.2\\psoc creator\\import\\gnu\\arm\\5.4.
 366              		.file 3 "Generated_Source\\PSoC4\\cytypes.h"
 367              		.file 4 "c:\\program files (x86)\\cypress\\psoc creator\\4.2\\psoc creator\\import\\gnu\\arm\\5.4.
 368              		.file 5 "Generated_Source\\PSoC4\\CyLib.h"
 369              		.file 6 "Generated_Source\\PSoC4\\cyfitter_cfg.h"
