ARM GAS  C:\Users\ORA\AppData\Local\Temp\ccF8tT21.s 			page 1


   1              		.syntax unified
   2              		.cpu cortex-m0
   3              		.fpu softvfp
   4              		.eabi_attribute 20, 1
   5              		.eabi_attribute 21, 1
   6              		.eabi_attribute 23, 3
   7              		.eabi_attribute 24, 1
   8              		.eabi_attribute 25, 1
   9              		.eabi_attribute 26, 1
  10              		.eabi_attribute 30, 1
  11              		.eabi_attribute 34, 0
  12              		.eabi_attribute 18, 4
  13              		.thumb
  14              		.syntax unified
  15              		.file	"cy_em_eeprom.c"
  16              		.text
  17              	.Ltext0:
  18              		.cfi_sections	.debug_frame
  19              		.section	.text.FindLastWrittenRow,"ax",%progbits
  20              		.align	2
  21              		.code	16
  22              		.thumb_func
  23              		.type	FindLastWrittenRow, %function
  24              	FindLastWrittenRow:
  25              	.LFB7:
  26              		.file 1 "Generated_Source\\PSoC4\\cy_em_eeprom.c"
   1:Generated_Source\PSoC4/cy_em_eeprom.c **** /***************************************************************************//**
   2:Generated_Source\PSoC4/cy_em_eeprom.c **** * \file cy_em_eeprom.c
   3:Generated_Source\PSoC4/cy_em_eeprom.c **** * \version 2.20
   4:Generated_Source\PSoC4/cy_em_eeprom.c **** *
   5:Generated_Source\PSoC4/cy_em_eeprom.c **** * \brief
   6:Generated_Source\PSoC4/cy_em_eeprom.c **** *  This file provides source code of the API for the Emulated EEPROM library.
   7:Generated_Source\PSoC4/cy_em_eeprom.c **** *  The Emulated EEPROM API allows creating of an emulated EEPROM in flash that
   8:Generated_Source\PSoC4/cy_em_eeprom.c **** *  has the ability to do wear leveling and restore corrupted data from a
   9:Generated_Source\PSoC4/cy_em_eeprom.c **** *  redundant copy.
  10:Generated_Source\PSoC4/cy_em_eeprom.c **** *
  11:Generated_Source\PSoC4/cy_em_eeprom.c **** ********************************************************************************
  12:Generated_Source\PSoC4/cy_em_eeprom.c **** * \copyright
  13:Generated_Source\PSoC4/cy_em_eeprom.c **** * Copyright 2017, Cypress Semiconductor Corporation.  All rights reserved.
  14:Generated_Source\PSoC4/cy_em_eeprom.c **** * You may use this file only in accordance with the license, terms, conditions,
  15:Generated_Source\PSoC4/cy_em_eeprom.c **** * disclaimers, and limitations in the end user license agreement accompanying
  16:Generated_Source\PSoC4/cy_em_eeprom.c **** * the software package with which this file was provided.
  17:Generated_Source\PSoC4/cy_em_eeprom.c **** *******************************************************************************/
  18:Generated_Source\PSoC4/cy_em_eeprom.c **** 
  19:Generated_Source\PSoC4/cy_em_eeprom.c **** 
  20:Generated_Source\PSoC4/cy_em_eeprom.c **** #include "cytypes.h"
  21:Generated_Source\PSoC4/cy_em_eeprom.c **** #include <string.h>
  22:Generated_Source\PSoC4/cy_em_eeprom.c **** 
  23:Generated_Source\PSoC4/cy_em_eeprom.c **** #if (CYDEV_CHIP_FAMILY_USED == CYDEV_CHIP_FAMILY_PSOC6)
  24:Generated_Source\PSoC4/cy_em_eeprom.c ****     #include "em_eeprom/cy_em_eeprom.h"
  25:Generated_Source\PSoC4/cy_em_eeprom.c **** #else
  26:Generated_Source\PSoC4/cy_em_eeprom.c ****     #include "cy_em_eeprom.h"
  27:Generated_Source\PSoC4/cy_em_eeprom.c **** #endif /* (CYDEV_CHIP_FAMILY_USED == CYDEV_CHIP_FAMILY_PSOC6) */
  28:Generated_Source\PSoC4/cy_em_eeprom.c **** 
  29:Generated_Source\PSoC4/cy_em_eeprom.c **** 
  30:Generated_Source\PSoC4/cy_em_eeprom.c **** #if defined(__cplusplus)
  31:Generated_Source\PSoC4/cy_em_eeprom.c **** extern "C" {
ARM GAS  C:\Users\ORA\AppData\Local\Temp\ccF8tT21.s 			page 2


  32:Generated_Source\PSoC4/cy_em_eeprom.c **** #endif
  33:Generated_Source\PSoC4/cy_em_eeprom.c **** 
  34:Generated_Source\PSoC4/cy_em_eeprom.c **** 
  35:Generated_Source\PSoC4/cy_em_eeprom.c **** /***************************************
  36:Generated_Source\PSoC4/cy_em_eeprom.c **** * Private Function Prototypes
  37:Generated_Source\PSoC4/cy_em_eeprom.c **** ***************************************/
  38:Generated_Source\PSoC4/cy_em_eeprom.c **** static void FindLastWrittenRow(uint32 * lastWrRowPtr, cy_stc_eeprom_context_t * context);
  39:Generated_Source\PSoC4/cy_em_eeprom.c **** static uint32 GetRowAddrBySeqNum(uint32 seqNum, cy_stc_eeprom_context_t * context);
  40:Generated_Source\PSoC4/cy_em_eeprom.c **** static uint8 CalcChecksum(uint8 rowData[], uint32 len);
  41:Generated_Source\PSoC4/cy_em_eeprom.c **** static void GetNextRowToWrite(uint32 seqNum,
  42:Generated_Source\PSoC4/cy_em_eeprom.c ****                             uint32 * rowToWrPtr,
  43:Generated_Source\PSoC4/cy_em_eeprom.c ****                             uint32 * rowToRdPtr,
  44:Generated_Source\PSoC4/cy_em_eeprom.c ****                             cy_stc_eeprom_context_t * context);
  45:Generated_Source\PSoC4/cy_em_eeprom.c **** static cy_en_em_eeprom_status_t CheckRanges(cy_stc_eeprom_config_t* config);
  46:Generated_Source\PSoC4/cy_em_eeprom.c **** static cy_en_em_eeprom_status_t WriteRow(uint32 rowAddr, uint32 *rowData, cy_stc_eeprom_context_t *
  47:Generated_Source\PSoC4/cy_em_eeprom.c **** static cy_en_em_eeprom_status_t EraseRow(uint32 rowAddr, uint32 ramBuffAddr, cy_stc_eeprom_context_
  48:Generated_Source\PSoC4/cy_em_eeprom.c **** static cy_en_em_eeprom_status_t CheckCrcAndCopy(uint32 startAddr,
  49:Generated_Source\PSoC4/cy_em_eeprom.c ****                                                 uint32 dstAddr,
  50:Generated_Source\PSoC4/cy_em_eeprom.c ****                                                 uint32 rowOffset,
  51:Generated_Source\PSoC4/cy_em_eeprom.c ****                                                 uint32 numBytes,
  52:Generated_Source\PSoC4/cy_em_eeprom.c ****                                                 cy_stc_eeprom_context_t * context);
  53:Generated_Source\PSoC4/cy_em_eeprom.c **** static uint32 GetAddresses(uint32 *startAddr, uint32 *endAddr, uint32 *offset, uint32 rowNum, uint3
  54:Generated_Source\PSoC4/cy_em_eeprom.c **** static cy_en_em_eeprom_status_t FillChecksum(cy_stc_eeprom_context_t * context);
  55:Generated_Source\PSoC4/cy_em_eeprom.c **** 
  56:Generated_Source\PSoC4/cy_em_eeprom.c **** /**
  57:Generated_Source\PSoC4/cy_em_eeprom.c **** * \addtogroup group_em_eeprom_functions
  58:Generated_Source\PSoC4/cy_em_eeprom.c **** * \{
  59:Generated_Source\PSoC4/cy_em_eeprom.c **** */
  60:Generated_Source\PSoC4/cy_em_eeprom.c **** 
  61:Generated_Source\PSoC4/cy_em_eeprom.c **** /*******************************************************************************
  62:Generated_Source\PSoC4/cy_em_eeprom.c **** * Function Name: Cy_Em_EEPROM_Init
  63:Generated_Source\PSoC4/cy_em_eeprom.c **** ****************************************************************************//**
  64:Generated_Source\PSoC4/cy_em_eeprom.c **** *
  65:Generated_Source\PSoC4/cy_em_eeprom.c **** * Initializes the Emulated EEPROM library by filling the context structure. 
  66:Generated_Source\PSoC4/cy_em_eeprom.c **** *
  67:Generated_Source\PSoC4/cy_em_eeprom.c **** * \param config
  68:Generated_Source\PSoC4/cy_em_eeprom.c **** * The pointer to a configuration structure. See \ref cy_stc_eeprom_config_t.
  69:Generated_Source\PSoC4/cy_em_eeprom.c **** *
  70:Generated_Source\PSoC4/cy_em_eeprom.c **** * \param context
  71:Generated_Source\PSoC4/cy_em_eeprom.c **** * The pointer to the EEPROM context structure to be filled by the function.
  72:Generated_Source\PSoC4/cy_em_eeprom.c **** * \ref cy_stc_eeprom_context_t.
  73:Generated_Source\PSoC4/cy_em_eeprom.c **** *
  74:Generated_Source\PSoC4/cy_em_eeprom.c **** * \return
  75:Generated_Source\PSoC4/cy_em_eeprom.c **** * error / status code. See \ref cy_en_em_eeprom_status_t.
  76:Generated_Source\PSoC4/cy_em_eeprom.c **** *
  77:Generated_Source\PSoC4/cy_em_eeprom.c **** * \note
  78:Generated_Source\PSoC4/cy_em_eeprom.c **** * The context structure should not be modified by the user after it is filled
  79:Generated_Source\PSoC4/cy_em_eeprom.c **** * with this function. Modification of context structure may cause the 
  80:Generated_Source\PSoC4/cy_em_eeprom.c **** * unexpected behavior of the Cy_Em_EEPROM API functions which rely on it.
  81:Generated_Source\PSoC4/cy_em_eeprom.c **** *
  82:Generated_Source\PSoC4/cy_em_eeprom.c **** * \note
  83:Generated_Source\PSoC4/cy_em_eeprom.c **** * This function uses a buffer of the flash row size to perform read
  84:Generated_Source\PSoC4/cy_em_eeprom.c **** * operation. For the size of the row refer to the specific PSoC device
  85:Generated_Source\PSoC4/cy_em_eeprom.c **** * datasheet.
  86:Generated_Source\PSoC4/cy_em_eeprom.c **** *
  87:Generated_Source\PSoC4/cy_em_eeprom.c **** * \sideeffect 
  88:Generated_Source\PSoC4/cy_em_eeprom.c **** * If the "Redundant Copy" option is used, the function performs a number of 
ARM GAS  C:\Users\ORA\AppData\Local\Temp\ccF8tT21.s 			page 3


  89:Generated_Source\PSoC4/cy_em_eeprom.c **** * write operations to the EEPROM to initialize flash rows checksums. Therefore,
  90:Generated_Source\PSoC4/cy_em_eeprom.c **** * Cy_Em_EEPROM_NumWrites(), when it is called right after Cy_Em_EEPROM_Init(), 
  91:Generated_Source\PSoC4/cy_em_eeprom.c **** * will return a non-zero value that identifies the number of writes performed 
  92:Generated_Source\PSoC4/cy_em_eeprom.c **** * by Cy_Em_EEPROM_Init().
  93:Generated_Source\PSoC4/cy_em_eeprom.c **** *
  94:Generated_Source\PSoC4/cy_em_eeprom.c **** *******************************************************************************/
  95:Generated_Source\PSoC4/cy_em_eeprom.c **** cy_en_em_eeprom_status_t Cy_Em_EEPROM_Init(cy_stc_eeprom_config_t* config, cy_stc_eeprom_context_t 
  96:Generated_Source\PSoC4/cy_em_eeprom.c **** {
  97:Generated_Source\PSoC4/cy_em_eeprom.c ****     cy_en_em_eeprom_status_t ret = CY_EM_EEPROM_BAD_PARAM;
  98:Generated_Source\PSoC4/cy_em_eeprom.c **** 
  99:Generated_Source\PSoC4/cy_em_eeprom.c ****     if((NULL != context) && (NULL != config) && (NULL != ((uint32 *)config->userFlashStartAddr)) &&
 100:Generated_Source\PSoC4/cy_em_eeprom.c ****         (config->wearLevelingFactor <= CY_EM_EEPROM_MAX_WEAR_LEVELING_FACTOR) && (config->eepromSiz
 101:Generated_Source\PSoC4/cy_em_eeprom.c ****     {
 102:Generated_Source\PSoC4/cy_em_eeprom.c ****         ret = CheckRanges(config);
 103:Generated_Source\PSoC4/cy_em_eeprom.c **** 
 104:Generated_Source\PSoC4/cy_em_eeprom.c ****         if(CY_EM_EEPROM_SUCCESS == ret)
 105:Generated_Source\PSoC4/cy_em_eeprom.c ****         {
 106:Generated_Source\PSoC4/cy_em_eeprom.c ****             /* Copy the user config structure fields into context */
 107:Generated_Source\PSoC4/cy_em_eeprom.c ****             context->eepromSize = config->eepromSize;
 108:Generated_Source\PSoC4/cy_em_eeprom.c ****             context->wearLevelingFactor = config->wearLevelingFactor;
 109:Generated_Source\PSoC4/cy_em_eeprom.c ****             context->redundantCopy = config->redundantCopy;
 110:Generated_Source\PSoC4/cy_em_eeprom.c ****             context->blockingWrite = config->blockingWrite;
 111:Generated_Source\PSoC4/cy_em_eeprom.c ****             context->userFlashStartAddr = config->userFlashStartAddr;
 112:Generated_Source\PSoC4/cy_em_eeprom.c ****             /* Store frequently used data for internal use */
 113:Generated_Source\PSoC4/cy_em_eeprom.c ****             context->numberOfRows = CY_EM_EEPROM_GET_NUM_ROWS_IN_EEPROM(config->eepromSize);
 114:Generated_Source\PSoC4/cy_em_eeprom.c ****             context->wlEndAddr = ((CY_EM_EEPROM_GET_EEPROM_SIZE(context->numberOfRows) * config->we
 115:Generated_Source\PSoC4/cy_em_eeprom.c ****                     config->userFlashStartAddr);
 116:Generated_Source\PSoC4/cy_em_eeprom.c ****             /* Find last written EEPROM row and store it for quick access */
 117:Generated_Source\PSoC4/cy_em_eeprom.c ****             FindLastWrittenRow(&context->lastWrRowAddr, context);
 118:Generated_Source\PSoC4/cy_em_eeprom.c **** 
 119:Generated_Source\PSoC4/cy_em_eeprom.c ****             if((0u == CY_EM_EEPROM_GET_SEQ_NUM(context->lastWrRowAddr)) && (0u != context->redundan
 120:Generated_Source\PSoC4/cy_em_eeprom.c ****             {
 121:Generated_Source\PSoC4/cy_em_eeprom.c ****                 /* Call the function only after device reprogramming in case
 122:Generated_Source\PSoC4/cy_em_eeprom.c ****                 * if redundant copy is enabled.
 123:Generated_Source\PSoC4/cy_em_eeprom.c ****                 */
 124:Generated_Source\PSoC4/cy_em_eeprom.c ****                 ret = FillChecksum(context);
 125:Generated_Source\PSoC4/cy_em_eeprom.c ****                 
 126:Generated_Source\PSoC4/cy_em_eeprom.c ****                 /* Update the last written EEPROM row for Cy_Em_EEPROM_NumWrites() */
 127:Generated_Source\PSoC4/cy_em_eeprom.c ****                 FindLastWrittenRow(&context->lastWrRowAddr, context);
 128:Generated_Source\PSoC4/cy_em_eeprom.c ****             }
 129:Generated_Source\PSoC4/cy_em_eeprom.c ****         }
 130:Generated_Source\PSoC4/cy_em_eeprom.c ****     }
 131:Generated_Source\PSoC4/cy_em_eeprom.c **** 
 132:Generated_Source\PSoC4/cy_em_eeprom.c ****     return(ret);
 133:Generated_Source\PSoC4/cy_em_eeprom.c **** }
 134:Generated_Source\PSoC4/cy_em_eeprom.c **** 
 135:Generated_Source\PSoC4/cy_em_eeprom.c **** 
 136:Generated_Source\PSoC4/cy_em_eeprom.c **** /*******************************************************************************
 137:Generated_Source\PSoC4/cy_em_eeprom.c **** * Function Name: Cy_Em_EEPROM_Read
 138:Generated_Source\PSoC4/cy_em_eeprom.c **** ****************************************************************************//**
 139:Generated_Source\PSoC4/cy_em_eeprom.c **** *
 140:Generated_Source\PSoC4/cy_em_eeprom.c **** * This function takes the logical EEPROM address, converts it to the actual
 141:Generated_Source\PSoC4/cy_em_eeprom.c **** * physical address where the data is stored and returns the data to the user.
 142:Generated_Source\PSoC4/cy_em_eeprom.c **** *
 143:Generated_Source\PSoC4/cy_em_eeprom.c **** * \param addr
 144:Generated_Source\PSoC4/cy_em_eeprom.c **** * The logical start address in EEPROM to start reading data from.
 145:Generated_Source\PSoC4/cy_em_eeprom.c **** *
ARM GAS  C:\Users\ORA\AppData\Local\Temp\ccF8tT21.s 			page 4


 146:Generated_Source\PSoC4/cy_em_eeprom.c **** * \param eepromData
 147:Generated_Source\PSoC4/cy_em_eeprom.c **** * The pointer to a user array to write data to.
 148:Generated_Source\PSoC4/cy_em_eeprom.c **** *
 149:Generated_Source\PSoC4/cy_em_eeprom.c **** * \param size
 150:Generated_Source\PSoC4/cy_em_eeprom.c **** * The amount of data to read.
 151:Generated_Source\PSoC4/cy_em_eeprom.c **** *
 152:Generated_Source\PSoC4/cy_em_eeprom.c **** * \param context
 153:Generated_Source\PSoC4/cy_em_eeprom.c **** * The pointer to the EEPROM context structure \ref cy_stc_eeprom_context_t.
 154:Generated_Source\PSoC4/cy_em_eeprom.c **** *
 155:Generated_Source\PSoC4/cy_em_eeprom.c **** * \return
 156:Generated_Source\PSoC4/cy_em_eeprom.c **** * This function returns \ref cy_en_em_eeprom_status_t.
 157:Generated_Source\PSoC4/cy_em_eeprom.c **** *
 158:Generated_Source\PSoC4/cy_em_eeprom.c **** * \note
 159:Generated_Source\PSoC4/cy_em_eeprom.c **** * This function uses a buffer of the flash row size to perform read
 160:Generated_Source\PSoC4/cy_em_eeprom.c **** * operation. For the size of the row refer to the specific PSoC device
 161:Generated_Source\PSoC4/cy_em_eeprom.c **** * datasheet.
 162:Generated_Source\PSoC4/cy_em_eeprom.c **** *
 163:Generated_Source\PSoC4/cy_em_eeprom.c **** * \note
 164:Generated_Source\PSoC4/cy_em_eeprom.c **** * In case if redundant copy option is enabled the function may perform writes
 165:Generated_Source\PSoC4/cy_em_eeprom.c **** * to EEPROM. This is done in case if the data in the EEPPROM is corrupted and
 166:Generated_Source\PSoC4/cy_em_eeprom.c **** * the data in redundant copy is valid based on CRC-8 data integrity check.
 167:Generated_Source\PSoC4/cy_em_eeprom.c **** *
 168:Generated_Source\PSoC4/cy_em_eeprom.c **** *******************************************************************************/
 169:Generated_Source\PSoC4/cy_em_eeprom.c **** cy_en_em_eeprom_status_t Cy_Em_EEPROM_Read(uint32 addr, 
 170:Generated_Source\PSoC4/cy_em_eeprom.c ****                                         void * eepromData, 
 171:Generated_Source\PSoC4/cy_em_eeprom.c ****                                         uint32 size,
 172:Generated_Source\PSoC4/cy_em_eeprom.c ****                                         cy_stc_eeprom_context_t * context)
 173:Generated_Source\PSoC4/cy_em_eeprom.c **** {
 174:Generated_Source\PSoC4/cy_em_eeprom.c ****     cy_en_em_eeprom_status_t ret = CY_EM_EEPROM_BAD_PARAM;
 175:Generated_Source\PSoC4/cy_em_eeprom.c ****     uint32 i;
 176:Generated_Source\PSoC4/cy_em_eeprom.c ****     uint32 numBytesToRead;
 177:Generated_Source\PSoC4/cy_em_eeprom.c ****     uint32 curEepromBaseAddr;
 178:Generated_Source\PSoC4/cy_em_eeprom.c ****     uint32 curRowOffset;
 179:Generated_Source\PSoC4/cy_em_eeprom.c ****     uint32 startRowAddr;
 180:Generated_Source\PSoC4/cy_em_eeprom.c ****     uint32 actEepromRowNum;
 181:Generated_Source\PSoC4/cy_em_eeprom.c ****     uint32 curRdEepromRowNum = 0u;
 182:Generated_Source\PSoC4/cy_em_eeprom.c ****     uint32 dataStartEepromRowNum = 0u;
 183:Generated_Source\PSoC4/cy_em_eeprom.c ****     uint32 eeData = (uint32) eepromData; /* To avoid the pointer arithmetic with void */
 184:Generated_Source\PSoC4/cy_em_eeprom.c **** 
 185:Generated_Source\PSoC4/cy_em_eeprom.c ****     /* Validate input parameters */
 186:Generated_Source\PSoC4/cy_em_eeprom.c ****     if((0u != size) && ((addr + size) <= (context->eepromSize)) && (NULL != eepromData))
 187:Generated_Source\PSoC4/cy_em_eeprom.c ****     {
 188:Generated_Source\PSoC4/cy_em_eeprom.c ****         uint32 rdAddr = addr;
 189:Generated_Source\PSoC4/cy_em_eeprom.c ****         uint32 rdSize = size;
 190:Generated_Source\PSoC4/cy_em_eeprom.c ****         /* Get the sequence number of the last written row */
 191:Generated_Source\PSoC4/cy_em_eeprom.c ****         uint32 seqNum = CY_EM_EEPROM_GET_SEQ_NUM(context->lastWrRowAddr);
 192:Generated_Source\PSoC4/cy_em_eeprom.c ****         uint32 updateAddrFlag = 0u;
 193:Generated_Source\PSoC4/cy_em_eeprom.c **** 
 194:Generated_Source\PSoC4/cy_em_eeprom.c ****         /* Calculate the number of the row read operations. Currently this only concerns
 195:Generated_Source\PSoC4/cy_em_eeprom.c ****         * the reads from the EEPROM data locations.
 196:Generated_Source\PSoC4/cy_em_eeprom.c ****         */
 197:Generated_Source\PSoC4/cy_em_eeprom.c ****         uint32 numRowReads = ((((rdAddr + rdSize) - 1u) / CY_EM_EEPROM_EEPROM_DATA_LEN) -
 198:Generated_Source\PSoC4/cy_em_eeprom.c ****                               (rdAddr / CY_EM_EEPROM_EEPROM_DATA_LEN)) + 1u;
 199:Generated_Source\PSoC4/cy_em_eeprom.c **** 
 200:Generated_Source\PSoC4/cy_em_eeprom.c ****         /* Get the address of the first row of the currently active EEPROM sector. If
 201:Generated_Source\PSoC4/cy_em_eeprom.c ****         * no wear leveling is used - the EEPROM has only one sector, so use the base
 202:Generated_Source\PSoC4/cy_em_eeprom.c ****         * addr stored in "context->userFlashStartAddr".
ARM GAS  C:\Users\ORA\AppData\Local\Temp\ccF8tT21.s 			page 5


 203:Generated_Source\PSoC4/cy_em_eeprom.c ****         */
 204:Generated_Source\PSoC4/cy_em_eeprom.c ****         curEepromBaseAddr = (((context->lastWrRowAddr - context->userFlashStartAddr) /
 205:Generated_Source\PSoC4/cy_em_eeprom.c ****                               (CY_EM_EEPROM_FLASH_SIZEOF_ROW * context->numberOfRows)) *
 206:Generated_Source\PSoC4/cy_em_eeprom.c ****                               (CY_EM_EEPROM_FLASH_SIZEOF_ROW * context->numberOfRows)) +
 207:Generated_Source\PSoC4/cy_em_eeprom.c ****                                context->userFlashStartAddr;
 208:Generated_Source\PSoC4/cy_em_eeprom.c **** 
 209:Generated_Source\PSoC4/cy_em_eeprom.c ****         /* Find the number of the row that contains the start address of the data */
 210:Generated_Source\PSoC4/cy_em_eeprom.c ****         for(i = 0u; i < context->numberOfRows; i++)
 211:Generated_Source\PSoC4/cy_em_eeprom.c ****         {
 212:Generated_Source\PSoC4/cy_em_eeprom.c ****             if(0u != CY_EM_EEPROM_IS_ADDR_IN_ROW_RANGE(rdAddr, i))
 213:Generated_Source\PSoC4/cy_em_eeprom.c ****             {
 214:Generated_Source\PSoC4/cy_em_eeprom.c ****                 dataStartEepromRowNum = i;
 215:Generated_Source\PSoC4/cy_em_eeprom.c ****                 curRdEepromRowNum = dataStartEepromRowNum;
 216:Generated_Source\PSoC4/cy_em_eeprom.c ****                 break;
 217:Generated_Source\PSoC4/cy_em_eeprom.c ****             }
 218:Generated_Source\PSoC4/cy_em_eeprom.c ****         }
 219:Generated_Source\PSoC4/cy_em_eeprom.c **** 
 220:Generated_Source\PSoC4/cy_em_eeprom.c ****         /* Find the row number of the last written row */
 221:Generated_Source\PSoC4/cy_em_eeprom.c ****         actEepromRowNum = (context->lastWrRowAddr - curEepromBaseAddr) / CY_EM_EEPROM_FLASH_SIZEOF_
 222:Generated_Source\PSoC4/cy_em_eeprom.c **** 
 223:Generated_Source\PSoC4/cy_em_eeprom.c ****         /* Check if wear leveling is used */
 224:Generated_Source\PSoC4/cy_em_eeprom.c ****         if(context->wearLevelingFactor > 1u)
 225:Generated_Source\PSoC4/cy_em_eeprom.c ****         {
 226:Generated_Source\PSoC4/cy_em_eeprom.c ****             uint32 dataEndEepromRowNum = dataStartEepromRowNum + (numRowReads - 1u);
 227:Generated_Source\PSoC4/cy_em_eeprom.c **** 
 228:Generated_Source\PSoC4/cy_em_eeprom.c ****             /* Check if the future validation of the read address is required. */
 229:Generated_Source\PSoC4/cy_em_eeprom.c ****             updateAddrFlag = (dataStartEepromRowNum > actEepromRowNum) ? 1u :
 230:Generated_Source\PSoC4/cy_em_eeprom.c ****                               ((dataEndEepromRowNum > actEepromRowNum) ? 1u : 0u);
 231:Generated_Source\PSoC4/cy_em_eeprom.c ****         }
 232:Generated_Source\PSoC4/cy_em_eeprom.c **** 
 233:Generated_Source\PSoC4/cy_em_eeprom.c ****         /* Copy data from the EEPROM data locations to the user buffer */
 234:Generated_Source\PSoC4/cy_em_eeprom.c ****         for(i = 0u; i < numRowReads; i++)
 235:Generated_Source\PSoC4/cy_em_eeprom.c ****         {
 236:Generated_Source\PSoC4/cy_em_eeprom.c ****             startRowAddr = curEepromBaseAddr + (curRdEepromRowNum * CY_EM_EEPROM_FLASH_SIZEOF_ROW);
 237:Generated_Source\PSoC4/cy_em_eeprom.c ****             curRowOffset = CY_EM_EEPROM_EEPROM_DATA_LEN + (rdAddr % CY_EM_EEPROM_EEPROM_DATA_LEN);
 238:Generated_Source\PSoC4/cy_em_eeprom.c **** 
 239:Generated_Source\PSoC4/cy_em_eeprom.c ****             /* Check if there are more reads pending and update the number of the
 240:Generated_Source\PSoC4/cy_em_eeprom.c ****             * remaining bytes to read respectively.
 241:Generated_Source\PSoC4/cy_em_eeprom.c ****             */
 242:Generated_Source\PSoC4/cy_em_eeprom.c ****             if((i + 1u) < numRowReads)
 243:Generated_Source\PSoC4/cy_em_eeprom.c ****             {
 244:Generated_Source\PSoC4/cy_em_eeprom.c ****                 numBytesToRead = CY_EM_EEPROM_EEPROM_DATA_LEN - (rdAddr % CY_EM_EEPROM_EEPROM_DATA_
 245:Generated_Source\PSoC4/cy_em_eeprom.c ****             }
 246:Generated_Source\PSoC4/cy_em_eeprom.c ****             else
 247:Generated_Source\PSoC4/cy_em_eeprom.c ****             {
 248:Generated_Source\PSoC4/cy_em_eeprom.c ****                 numBytesToRead = rdSize;
 249:Generated_Source\PSoC4/cy_em_eeprom.c ****             }
 250:Generated_Source\PSoC4/cy_em_eeprom.c **** 
 251:Generated_Source\PSoC4/cy_em_eeprom.c ****             /* Check if the read address needs to be updated to point to the correct
 252:Generated_Source\PSoC4/cy_em_eeprom.c ****             * EEPROM sector.
 253:Generated_Source\PSoC4/cy_em_eeprom.c ****             */
 254:Generated_Source\PSoC4/cy_em_eeprom.c ****             if((0u != updateAddrFlag) && (curRdEepromRowNum > actEepromRowNum))
 255:Generated_Source\PSoC4/cy_em_eeprom.c ****             {
 256:Generated_Source\PSoC4/cy_em_eeprom.c ****                 startRowAddr -= context->numberOfRows * CY_EM_EEPROM_FLASH_SIZEOF_ROW;
 257:Generated_Source\PSoC4/cy_em_eeprom.c **** 
 258:Generated_Source\PSoC4/cy_em_eeprom.c ****                 if(startRowAddr < context->userFlashStartAddr)
 259:Generated_Source\PSoC4/cy_em_eeprom.c ****                 {
ARM GAS  C:\Users\ORA\AppData\Local\Temp\ccF8tT21.s 			page 6


 260:Generated_Source\PSoC4/cy_em_eeprom.c ****                     startRowAddr = context->wlEndAddr -
 261:Generated_Source\PSoC4/cy_em_eeprom.c ****                         ((context->numberOfRows - curRdEepromRowNum) * CY_EM_EEPROM_FLASH_SIZEOF_RO
 262:Generated_Source\PSoC4/cy_em_eeprom.c ****                 }
 263:Generated_Source\PSoC4/cy_em_eeprom.c ****             }
 264:Generated_Source\PSoC4/cy_em_eeprom.c **** 
 265:Generated_Source\PSoC4/cy_em_eeprom.c ****             if(0u != context->redundantCopy)
 266:Generated_Source\PSoC4/cy_em_eeprom.c ****             {
 267:Generated_Source\PSoC4/cy_em_eeprom.c ****                 /* Check a checksum of the EEPROM row and if it is bad, check a checksum in
 268:Generated_Source\PSoC4/cy_em_eeprom.c ****                 * the corresponding row in redundant copy, otherwise return failure.
 269:Generated_Source\PSoC4/cy_em_eeprom.c ****                 */
 270:Generated_Source\PSoC4/cy_em_eeprom.c ****                 ret = CheckCrcAndCopy(startRowAddr, eeData, curRowOffset, numBytesToRead, context);
 271:Generated_Source\PSoC4/cy_em_eeprom.c **** 
 272:Generated_Source\PSoC4/cy_em_eeprom.c ****                 if(CY_EM_EEPROM_SUCCESS != ret)
 273:Generated_Source\PSoC4/cy_em_eeprom.c ****                 {
 274:Generated_Source\PSoC4/cy_em_eeprom.c ****                     break;
 275:Generated_Source\PSoC4/cy_em_eeprom.c ****                 }
 276:Generated_Source\PSoC4/cy_em_eeprom.c ****             }
 277:Generated_Source\PSoC4/cy_em_eeprom.c ****             else
 278:Generated_Source\PSoC4/cy_em_eeprom.c ****             {
 279:Generated_Source\PSoC4/cy_em_eeprom.c ****                 /* Copy the data to the user buffer */
 280:Generated_Source\PSoC4/cy_em_eeprom.c ****                 (void)memcpy((void *)(eeData),
 281:Generated_Source\PSoC4/cy_em_eeprom.c ****                              (void *)(startRowAddr + curRowOffset),
 282:Generated_Source\PSoC4/cy_em_eeprom.c ****                              numBytesToRead);
 283:Generated_Source\PSoC4/cy_em_eeprom.c **** 
 284:Generated_Source\PSoC4/cy_em_eeprom.c ****                 /* Indicate success to be able to execute next code block */
 285:Generated_Source\PSoC4/cy_em_eeprom.c ****                 ret = CY_EM_EEPROM_SUCCESS;
 286:Generated_Source\PSoC4/cy_em_eeprom.c ****             }
 287:Generated_Source\PSoC4/cy_em_eeprom.c **** 
 288:Generated_Source\PSoC4/cy_em_eeprom.c ****             /* Update variables anticipated in the read operation */
 289:Generated_Source\PSoC4/cy_em_eeprom.c ****             rdAddr += numBytesToRead;
 290:Generated_Source\PSoC4/cy_em_eeprom.c ****             rdSize -= numBytesToRead;
 291:Generated_Source\PSoC4/cy_em_eeprom.c ****             eeData += numBytesToRead;
 292:Generated_Source\PSoC4/cy_em_eeprom.c ****             curRdEepromRowNum++;
 293:Generated_Source\PSoC4/cy_em_eeprom.c ****         }
 294:Generated_Source\PSoC4/cy_em_eeprom.c **** 
 295:Generated_Source\PSoC4/cy_em_eeprom.c ****         /* This code block will copy the latest data from the EEPROM headers into the
 296:Generated_Source\PSoC4/cy_em_eeprom.c ****         * user buffer. The data previously copied into the user buffer may be updated
 297:Generated_Source\PSoC4/cy_em_eeprom.c ****         * as the EEPROM headers contain more recent data. 
 298:Generated_Source\PSoC4/cy_em_eeprom.c ****         * The code block is executed when two following conditions are true:
 299:Generated_Source\PSoC4/cy_em_eeprom.c ****         *  1) The reads from "historic" data locations were successful;
 300:Generated_Source\PSoC4/cy_em_eeprom.c ****         *  2) The user performed at least one write operation to Em_EEPROM (0u !=
 301:Generated_Source\PSoC4/cy_em_eeprom.c ****         *     seqNum).        
 302:Generated_Source\PSoC4/cy_em_eeprom.c ****         */
 303:Generated_Source\PSoC4/cy_em_eeprom.c ****         if((CY_EM_EEPROM_SUCCESS == ret) && (0u != seqNum))
 304:Generated_Source\PSoC4/cy_em_eeprom.c ****         {
 305:Generated_Source\PSoC4/cy_em_eeprom.c ****             numRowReads = (context->numberOfRows <= seqNum) ? (context->numberOfRows) : (seqNum);
 306:Generated_Source\PSoC4/cy_em_eeprom.c ****             numRowReads--;
 307:Generated_Source\PSoC4/cy_em_eeprom.c **** 
 308:Generated_Source\PSoC4/cy_em_eeprom.c ****             for(i = (seqNum - numRowReads); i <= seqNum; i++)
 309:Generated_Source\PSoC4/cy_em_eeprom.c ****             {
 310:Generated_Source\PSoC4/cy_em_eeprom.c ****                 startRowAddr = GetRowAddrBySeqNum(i, context);
 311:Generated_Source\PSoC4/cy_em_eeprom.c **** 
 312:Generated_Source\PSoC4/cy_em_eeprom.c ****                 if (0u != startRowAddr)
 313:Generated_Source\PSoC4/cy_em_eeprom.c ****                 {
 314:Generated_Source\PSoC4/cy_em_eeprom.c ****                     /* The following variables are introduced to increase code readability. */
 315:Generated_Source\PSoC4/cy_em_eeprom.c ****                     uint32 startAddr  = *(uint32 *)(startRowAddr + CY_EM_EEPROM_HEADER_ADDR_OFFSET)
 316:Generated_Source\PSoC4/cy_em_eeprom.c ****                     uint32 endAddr    = startAddr + (*(uint32 *)(startRowAddr + CY_EM_EEPROM_HEADER
ARM GAS  C:\Users\ORA\AppData\Local\Temp\ccF8tT21.s 			page 7


 317:Generated_Source\PSoC4/cy_em_eeprom.c **** 
 318:Generated_Source\PSoC4/cy_em_eeprom.c ****                     /* Check if the current row EEPROM header contains the data requested for read 
 319:Generated_Source\PSoC4/cy_em_eeprom.c ****                     if(0u != CY_EM_EEPROM_IS_ADDRESES_CROSSING(startAddr, endAddr, addr, addr + siz
 320:Generated_Source\PSoC4/cy_em_eeprom.c ****                     {
 321:Generated_Source\PSoC4/cy_em_eeprom.c ****                         uint32 srcOffset = (startAddr > addr) ? (0u) : (addr - startAddr);
 322:Generated_Source\PSoC4/cy_em_eeprom.c ****                         uint32 dstOffset = (startAddr > addr) ? (startAddr - addr): (0u);
 323:Generated_Source\PSoC4/cy_em_eeprom.c ****                         rdAddr = (startAddr > addr) ? (startAddr) : (addr);
 324:Generated_Source\PSoC4/cy_em_eeprom.c **** 
 325:Generated_Source\PSoC4/cy_em_eeprom.c ****                         srcOffset += CY_EM_EEPROM_HEADER_DATA_OFFSET;
 326:Generated_Source\PSoC4/cy_em_eeprom.c **** 
 327:Generated_Source\PSoC4/cy_em_eeprom.c ****                         /* Calculate the number of bytes to be read from the current row's EEPROM h
 328:Generated_Source\PSoC4/cy_em_eeprom.c ****                         numBytesToRead = ((endAddr < (addr + size)) ? endAddr : (addr + size)) - rd
 329:Generated_Source\PSoC4/cy_em_eeprom.c **** 
 330:Generated_Source\PSoC4/cy_em_eeprom.c ****                         /* Calculate the offset in the user buffer from which the data will be upda
 331:Generated_Source\PSoC4/cy_em_eeprom.c ****                         eeData = ((uint32)eepromData) + dstOffset;
 332:Generated_Source\PSoC4/cy_em_eeprom.c **** 
 333:Generated_Source\PSoC4/cy_em_eeprom.c ****                         /* Check a checksum of the EEPROM row and if it is bad, check a checksum in
 334:Generated_Source\PSoC4/cy_em_eeprom.c ****                         * corresponding row in redundant copy, otherwise return failure. Copy the d
 335:Generated_Source\PSoC4/cy_em_eeprom.c ****                         * from the recent EEPROM headers to the user buffer. This will overwrite th
 336:Generated_Source\PSoC4/cy_em_eeprom.c ****                         * data copied form EEPROM data locations as the data in EEPROM headers is n
 337:Generated_Source\PSoC4/cy_em_eeprom.c ****                         */
 338:Generated_Source\PSoC4/cy_em_eeprom.c ****                         if(0u != context->redundantCopy)
 339:Generated_Source\PSoC4/cy_em_eeprom.c ****                         {
 340:Generated_Source\PSoC4/cy_em_eeprom.c ****                             ret = CheckCrcAndCopy(startRowAddr, eeData, srcOffset, numBytesToRead, 
 341:Generated_Source\PSoC4/cy_em_eeprom.c **** 
 342:Generated_Source\PSoC4/cy_em_eeprom.c ****                             if(CY_EM_EEPROM_SUCCESS != ret)
 343:Generated_Source\PSoC4/cy_em_eeprom.c ****                             {
 344:Generated_Source\PSoC4/cy_em_eeprom.c ****                                 break;
 345:Generated_Source\PSoC4/cy_em_eeprom.c ****                             }
 346:Generated_Source\PSoC4/cy_em_eeprom.c ****                         }
 347:Generated_Source\PSoC4/cy_em_eeprom.c ****                         else
 348:Generated_Source\PSoC4/cy_em_eeprom.c ****                         {
 349:Generated_Source\PSoC4/cy_em_eeprom.c ****                             (void)memcpy((void *)(eeData), (void *)(startRowAddr + srcOffset), numB
 350:Generated_Source\PSoC4/cy_em_eeprom.c ****                         }
 351:Generated_Source\PSoC4/cy_em_eeprom.c ****                     }
 352:Generated_Source\PSoC4/cy_em_eeprom.c ****                 }
 353:Generated_Source\PSoC4/cy_em_eeprom.c ****             }
 354:Generated_Source\PSoC4/cy_em_eeprom.c ****         }
 355:Generated_Source\PSoC4/cy_em_eeprom.c ****     }
 356:Generated_Source\PSoC4/cy_em_eeprom.c **** 
 357:Generated_Source\PSoC4/cy_em_eeprom.c ****     return(ret);
 358:Generated_Source\PSoC4/cy_em_eeprom.c **** }
 359:Generated_Source\PSoC4/cy_em_eeprom.c **** 
 360:Generated_Source\PSoC4/cy_em_eeprom.c **** 
 361:Generated_Source\PSoC4/cy_em_eeprom.c **** /*******************************************************************************
 362:Generated_Source\PSoC4/cy_em_eeprom.c **** * Function Name: Cy_Em_EEPROM_Write
 363:Generated_Source\PSoC4/cy_em_eeprom.c **** ****************************************************************************//**
 364:Generated_Source\PSoC4/cy_em_eeprom.c **** *
 365:Generated_Source\PSoC4/cy_em_eeprom.c **** * This function takes the logical EEPROM address and converts it to the actual
 366:Generated_Source\PSoC4/cy_em_eeprom.c **** * physical address and writes data there. If wear leveling is implemented, the
 367:Generated_Source\PSoC4/cy_em_eeprom.c **** * writing process will use the wear leveling techniques. This is a blocking
 368:Generated_Source\PSoC4/cy_em_eeprom.c **** * function and it does not return until the write operation is completed. The
 369:Generated_Source\PSoC4/cy_em_eeprom.c **** * user firmware should not enter Hibernate mode until write is completed. The
 370:Generated_Source\PSoC4/cy_em_eeprom.c **** * write operation is allowed in Sleep and Deep-Sleep modes. During the flash
 371:Generated_Source\PSoC4/cy_em_eeprom.c **** * operation, the device should not be reset, including the XRES pin, a software
 372:Generated_Source\PSoC4/cy_em_eeprom.c **** * reset, and watchdog reset sources. Also, low-voltage detect circuits should
 373:Generated_Source\PSoC4/cy_em_eeprom.c **** * be configured to generate an interrupt instead of a reset. Otherwise, portions
ARM GAS  C:\Users\ORA\AppData\Local\Temp\ccF8tT21.s 			page 8


 374:Generated_Source\PSoC4/cy_em_eeprom.c **** * of flash may undergo unexpected changes.
 375:Generated_Source\PSoC4/cy_em_eeprom.c **** *
 376:Generated_Source\PSoC4/cy_em_eeprom.c **** * \param addr
 377:Generated_Source\PSoC4/cy_em_eeprom.c **** * The logical start address in EEPROM to start writing data from.
 378:Generated_Source\PSoC4/cy_em_eeprom.c **** *
 379:Generated_Source\PSoC4/cy_em_eeprom.c **** * \param eepromData
 380:Generated_Source\PSoC4/cy_em_eeprom.c **** * Data to write to EEPROM.
 381:Generated_Source\PSoC4/cy_em_eeprom.c **** *
 382:Generated_Source\PSoC4/cy_em_eeprom.c **** * \param size
 383:Generated_Source\PSoC4/cy_em_eeprom.c **** * The amount of data to write to EEPROM.
 384:Generated_Source\PSoC4/cy_em_eeprom.c **** *
 385:Generated_Source\PSoC4/cy_em_eeprom.c **** * \param context
 386:Generated_Source\PSoC4/cy_em_eeprom.c **** * The pointer to the EEPROM context structure \ref cy_stc_eeprom_context_t.
 387:Generated_Source\PSoC4/cy_em_eeprom.c **** *
 388:Generated_Source\PSoC4/cy_em_eeprom.c **** * \return
 389:Generated_Source\PSoC4/cy_em_eeprom.c **** * This function returns \ref cy_en_em_eeprom_status_t.
 390:Generated_Source\PSoC4/cy_em_eeprom.c **** *
 391:Generated_Source\PSoC4/cy_em_eeprom.c **** * \note
 392:Generated_Source\PSoC4/cy_em_eeprom.c **** * This function uses a buffer of the flash row size to perform write
 393:Generated_Source\PSoC4/cy_em_eeprom.c **** * operation. For the size of the row refer to the specific PSoC device
 394:Generated_Source\PSoC4/cy_em_eeprom.c **** * datasheet.
 395:Generated_Source\PSoC4/cy_em_eeprom.c **** *
 396:Generated_Source\PSoC4/cy_em_eeprom.c **** * \sideeffect
 397:Generated_Source\PSoC4/cy_em_eeprom.c **** * In case when blocking write option is used, if this function is called by
 398:Generated_Source\PSoC4/cy_em_eeprom.c **** * the CM4 the user code on CM0P and the user code on CM4 are blocked until erase
 399:Generated_Source\PSoC4/cy_em_eeprom.c **** * flash row operation is finished. If this function is called by the CM0P the
 400:Generated_Source\PSoC4/cy_em_eeprom.c **** * user code on CM4 is not blocked and the user code on CM0P is blocked until
 401:Generated_Source\PSoC4/cy_em_eeprom.c **** * erase flash row operation is finished. Plan your task allocation accordingly.
 402:Generated_Source\PSoC4/cy_em_eeprom.c **** *
 403:Generated_Source\PSoC4/cy_em_eeprom.c **** * \sideeffect
 404:Generated_Source\PSoC4/cy_em_eeprom.c **** * In case if non-blocking write option is used and when user flash is used as
 405:Generated_Source\PSoC4/cy_em_eeprom.c **** * an EEPROM storage care should be taken to prevent the read while write (RWW)
 406:Generated_Source\PSoC4/cy_em_eeprom.c **** * exception. To prevent the RWW exception the user flash macro that includes
 407:Generated_Source\PSoC4/cy_em_eeprom.c **** * the EEPROM storage should not be read while the EEPROM write is not completed.
 408:Generated_Source\PSoC4/cy_em_eeprom.c **** * The read also means the user code execution from the respective flash macro.
 409:Generated_Source\PSoC4/cy_em_eeprom.c **** *
 410:Generated_Source\PSoC4/cy_em_eeprom.c **** *******************************************************************************/
 411:Generated_Source\PSoC4/cy_em_eeprom.c **** cy_en_em_eeprom_status_t Cy_Em_EEPROM_Write(uint32 addr,
 412:Generated_Source\PSoC4/cy_em_eeprom.c ****                                             void * eepromData,
 413:Generated_Source\PSoC4/cy_em_eeprom.c ****                                             uint32 size,
 414:Generated_Source\PSoC4/cy_em_eeprom.c ****                                             cy_stc_eeprom_context_t * context)
 415:Generated_Source\PSoC4/cy_em_eeprom.c **** {
 416:Generated_Source\PSoC4/cy_em_eeprom.c ****     cy_en_em_eeprom_status_t ret = CY_EM_EEPROM_BAD_PARAM;
 417:Generated_Source\PSoC4/cy_em_eeprom.c ****     uint32 i;
 418:Generated_Source\PSoC4/cy_em_eeprom.c ****     uint32 wrCnt;
 419:Generated_Source\PSoC4/cy_em_eeprom.c ****     uint32 actEmEepromRowNum;
 420:Generated_Source\PSoC4/cy_em_eeprom.c ****     uint32 writeRamBuffer[CY_EM_EEPROM_FLASH_SIZEOF_ROW / CY_EM_EEPROM_U32_DIV];
 421:Generated_Source\PSoC4/cy_em_eeprom.c ****     uint32 startAddr = 0u;
 422:Generated_Source\PSoC4/cy_em_eeprom.c ****     uint32 endAddr = 0u;
 423:Generated_Source\PSoC4/cy_em_eeprom.c ****     uint32 tmpRowAddr;
 424:Generated_Source\PSoC4/cy_em_eeprom.c ****     uint32 emEepromRowAddr = context->lastWrRowAddr;
 425:Generated_Source\PSoC4/cy_em_eeprom.c ****     uint32 emEepromRowRdAddr;
 426:Generated_Source\PSoC4/cy_em_eeprom.c ****     void * tmpData;
 427:Generated_Source\PSoC4/cy_em_eeprom.c ****     uint32 eeData = (uint32) eepromData; /* To avoid the pointer arithmetic with void */
 428:Generated_Source\PSoC4/cy_em_eeprom.c **** 
 429:Generated_Source\PSoC4/cy_em_eeprom.c ****     /* Check if the EEPROM data does not exceed the EEPROM capacity */
 430:Generated_Source\PSoC4/cy_em_eeprom.c ****     if((0u != size) && ((addr + size) <= (context->eepromSize)) && (NULL != eepromData))
ARM GAS  C:\Users\ORA\AppData\Local\Temp\ccF8tT21.s 			page 9


 431:Generated_Source\PSoC4/cy_em_eeprom.c ****     {
 432:Generated_Source\PSoC4/cy_em_eeprom.c ****         uint32 numWrites = ((size - 1u) / CY_EM_EEPROM_HEADER_DATA_LEN) + 1u;
 433:Generated_Source\PSoC4/cy_em_eeprom.c ****         uint32 eeHeaderDataOffset = 0u;
 434:Generated_Source\PSoC4/cy_em_eeprom.c **** 
 435:Generated_Source\PSoC4/cy_em_eeprom.c ****         for(wrCnt = 0u; wrCnt < numWrites; wrCnt++)
 436:Generated_Source\PSoC4/cy_em_eeprom.c ****         {
 437:Generated_Source\PSoC4/cy_em_eeprom.c ****             uint32 skipOperation = 0u;
 438:Generated_Source\PSoC4/cy_em_eeprom.c ****             /* Get the sequence number of the last written row */
 439:Generated_Source\PSoC4/cy_em_eeprom.c ****             uint32 seqNum = CY_EM_EEPROM_GET_SEQ_NUM(emEepromRowAddr);
 440:Generated_Source\PSoC4/cy_em_eeprom.c **** 
 441:Generated_Source\PSoC4/cy_em_eeprom.c ****             /* Get the address of the row to be written. The "emEepromRowAddr" may be
 442:Generated_Source\PSoC4/cy_em_eeprom.c ****             * updated with the proper address (if wear leveling is used). The
 443:Generated_Source\PSoC4/cy_em_eeprom.c ****             * "emEepromRowRdAddr" will point to the row address from which the historic
 444:Generated_Source\PSoC4/cy_em_eeprom.c ****             * data will be read into the RAM buffer.
 445:Generated_Source\PSoC4/cy_em_eeprom.c ****             */
 446:Generated_Source\PSoC4/cy_em_eeprom.c ****             GetNextRowToWrite(seqNum, &emEepromRowAddr, &emEepromRowRdAddr, context);
 447:Generated_Source\PSoC4/cy_em_eeprom.c **** 
 448:Generated_Source\PSoC4/cy_em_eeprom.c ****             /* Clear the RAM buffer so to not put junk into flash */
 449:Generated_Source\PSoC4/cy_em_eeprom.c ****             (void)memset(writeRamBuffer, 0, CY_EM_EEPROM_FLASH_SIZEOF_ROW);
 450:Generated_Source\PSoC4/cy_em_eeprom.c **** 
 451:Generated_Source\PSoC4/cy_em_eeprom.c ****             /* Fill the EM_EEPROM header info for the row in the RAM buffer */
 452:Generated_Source\PSoC4/cy_em_eeprom.c ****             seqNum++;
 453:Generated_Source\PSoC4/cy_em_eeprom.c ****             writeRamBuffer[CY_EM_EEPROM_HEADER_SEQ_NUM_OFFSET_U32] = seqNum;
 454:Generated_Source\PSoC4/cy_em_eeprom.c ****             writeRamBuffer[CY_EM_EEPROM_HEADER_ADDR_OFFSET_U32] = addr;
 455:Generated_Source\PSoC4/cy_em_eeprom.c ****             tmpData = (void *) eeData;
 456:Generated_Source\PSoC4/cy_em_eeprom.c **** 
 457:Generated_Source\PSoC4/cy_em_eeprom.c ****             /* Check if this is the last row to write */
 458:Generated_Source\PSoC4/cy_em_eeprom.c ****             if(wrCnt == (numWrites - 1u))
 459:Generated_Source\PSoC4/cy_em_eeprom.c ****             {
 460:Generated_Source\PSoC4/cy_em_eeprom.c ****                 /* Fill in the remaining size value to the EEPROM header. */
 461:Generated_Source\PSoC4/cy_em_eeprom.c ****                 writeRamBuffer[CY_EM_EEPROM_HEADER_LEN_OFFSET_U32] = size;
 462:Generated_Source\PSoC4/cy_em_eeprom.c ****             }
 463:Generated_Source\PSoC4/cy_em_eeprom.c ****             else
 464:Generated_Source\PSoC4/cy_em_eeprom.c ****             {
 465:Generated_Source\PSoC4/cy_em_eeprom.c ****                 /* This is not the last row to write in the current EEPROM write operation.
 466:Generated_Source\PSoC4/cy_em_eeprom.c ****                 * Write the maximum possible data size to the EEPROM header. Update the
 467:Generated_Source\PSoC4/cy_em_eeprom.c ****                 * size, eeData and addr respectively.
 468:Generated_Source\PSoC4/cy_em_eeprom.c ****                 */
 469:Generated_Source\PSoC4/cy_em_eeprom.c ****                 writeRamBuffer[CY_EM_EEPROM_HEADER_LEN_OFFSET_U32] = CY_EM_EEPROM_HEADER_DATA_LEN;
 470:Generated_Source\PSoC4/cy_em_eeprom.c ****                 size -= CY_EM_EEPROM_HEADER_DATA_LEN;
 471:Generated_Source\PSoC4/cy_em_eeprom.c ****                 addr += CY_EM_EEPROM_HEADER_DATA_LEN;
 472:Generated_Source\PSoC4/cy_em_eeprom.c ****                 eeData += CY_EM_EEPROM_HEADER_DATA_LEN;
 473:Generated_Source\PSoC4/cy_em_eeprom.c ****             }
 474:Generated_Source\PSoC4/cy_em_eeprom.c **** 
 475:Generated_Source\PSoC4/cy_em_eeprom.c ****             /* Write the data to the EEPROM header */
 476:Generated_Source\PSoC4/cy_em_eeprom.c ****             (void)memcpy((void *)&writeRamBuffer[CY_EM_EEPROM_HEADER_DATA_OFFSET_U32],
 477:Generated_Source\PSoC4/cy_em_eeprom.c ****                          tmpData,
 478:Generated_Source\PSoC4/cy_em_eeprom.c ****                          writeRamBuffer[CY_EM_EEPROM_HEADER_LEN_OFFSET_U32]);
 479:Generated_Source\PSoC4/cy_em_eeprom.c **** 
 480:Generated_Source\PSoC4/cy_em_eeprom.c ****             if(emEepromRowRdAddr != 0UL)
 481:Generated_Source\PSoC4/cy_em_eeprom.c ****             {
 482:Generated_Source\PSoC4/cy_em_eeprom.c ****                 /* Copy the EEPROM historic data for this row from flash to RAM */
 483:Generated_Source\PSoC4/cy_em_eeprom.c ****                 (void)memcpy((void *)&writeRamBuffer[CY_EM_EEPROM_EEPROM_DATA_OFFSET_U32],
 484:Generated_Source\PSoC4/cy_em_eeprom.c ****                              (void *)(emEepromRowRdAddr + CY_EM_EEPROM_EEPROM_DATA_LEN),
 485:Generated_Source\PSoC4/cy_em_eeprom.c ****                              CY_EM_EEPROM_EEPROM_DATA_LEN);
 486:Generated_Source\PSoC4/cy_em_eeprom.c ****             }
 487:Generated_Source\PSoC4/cy_em_eeprom.c **** 
ARM GAS  C:\Users\ORA\AppData\Local\Temp\ccF8tT21.s 			page 10


 488:Generated_Source\PSoC4/cy_em_eeprom.c ****             /* Check if there is data for this location in other EEPROM headers:
 489:Generated_Source\PSoC4/cy_em_eeprom.c ****             * find out the row with the lowest possible sequence number which
 490:Generated_Source\PSoC4/cy_em_eeprom.c ****             * may contain the data for the current row.
 491:Generated_Source\PSoC4/cy_em_eeprom.c ****             */
 492:Generated_Source\PSoC4/cy_em_eeprom.c ****             i = (seqNum > context->numberOfRows) ? ((seqNum - (context->numberOfRows)) + 1u) : 1u;
 493:Generated_Source\PSoC4/cy_em_eeprom.c **** 
 494:Generated_Source\PSoC4/cy_em_eeprom.c ****             for(; i <= seqNum; i++)
 495:Generated_Source\PSoC4/cy_em_eeprom.c ****             {
 496:Generated_Source\PSoC4/cy_em_eeprom.c ****                 if(i == seqNum)
 497:Generated_Source\PSoC4/cy_em_eeprom.c ****                 {
 498:Generated_Source\PSoC4/cy_em_eeprom.c ****                     /* The code reached the row that is about to be written. Analyze the recently
 499:Generated_Source\PSoC4/cy_em_eeprom.c ****                     * created EEPROM header (stored in the RAM buffer currently): if it contains
 500:Generated_Source\PSoC4/cy_em_eeprom.c ****                     * the data for EEPROM data locations in the row that is about to be written.
 501:Generated_Source\PSoC4/cy_em_eeprom.c ****                     */
 502:Generated_Source\PSoC4/cy_em_eeprom.c ****                     tmpRowAddr = (uint32) writeRamBuffer;
 503:Generated_Source\PSoC4/cy_em_eeprom.c ****                 }
 504:Generated_Source\PSoC4/cy_em_eeprom.c ****                 else
 505:Generated_Source\PSoC4/cy_em_eeprom.c ****                 {
 506:Generated_Source\PSoC4/cy_em_eeprom.c ****                     /* Retrieve the address of the previously written row by its sequence number.
 507:Generated_Source\PSoC4/cy_em_eeprom.c ****                     * The pointer will be used to get data from the respective EEPROM header.
 508:Generated_Source\PSoC4/cy_em_eeprom.c ****                     */
 509:Generated_Source\PSoC4/cy_em_eeprom.c ****                     tmpRowAddr = GetRowAddrBySeqNum(i, context);
 510:Generated_Source\PSoC4/cy_em_eeprom.c ****                 }
 511:Generated_Source\PSoC4/cy_em_eeprom.c **** 
 512:Generated_Source\PSoC4/cy_em_eeprom.c ****                 actEmEepromRowNum = CY_EM_EEPROM_GET_ACT_ROW_NUM_FROM_ADDR(emEepromRowAddr,
 513:Generated_Source\PSoC4/cy_em_eeprom.c ****                                                                            context->numberOfRows,
 514:Generated_Source\PSoC4/cy_em_eeprom.c ****                                                                            context->userFlashStartA
 515:Generated_Source\PSoC4/cy_em_eeprom.c ****                 if(0UL != tmpRowAddr)
 516:Generated_Source\PSoC4/cy_em_eeprom.c ****                 {
 517:Generated_Source\PSoC4/cy_em_eeprom.c ****                     /* Calculate the required addressed for the later EEPROM historic data update *
 518:Generated_Source\PSoC4/cy_em_eeprom.c ****                     skipOperation = GetAddresses(
 519:Generated_Source\PSoC4/cy_em_eeprom.c ****                                               &startAddr,
 520:Generated_Source\PSoC4/cy_em_eeprom.c ****                                               &endAddr,
 521:Generated_Source\PSoC4/cy_em_eeprom.c ****                                               &eeHeaderDataOffset,
 522:Generated_Source\PSoC4/cy_em_eeprom.c ****                                               actEmEepromRowNum,
 523:Generated_Source\PSoC4/cy_em_eeprom.c ****                                               *(uint32 *)(tmpRowAddr + CY_EM_EEPROM_HEADER_ADDR_OFF
 524:Generated_Source\PSoC4/cy_em_eeprom.c ****                                               *(uint32 *)(tmpRowAddr + CY_EM_EEPROM_HEADER_LEN_OFFS
 525:Generated_Source\PSoC4/cy_em_eeprom.c ****                 }
 526:Generated_Source\PSoC4/cy_em_eeprom.c ****                 else
 527:Generated_Source\PSoC4/cy_em_eeprom.c ****                 {
 528:Generated_Source\PSoC4/cy_em_eeprom.c ****                     /* Skip writes to the RAM buffer */
 529:Generated_Source\PSoC4/cy_em_eeprom.c ****                     skipOperation++;
 530:Generated_Source\PSoC4/cy_em_eeprom.c ****                 }
 531:Generated_Source\PSoC4/cy_em_eeprom.c **** 
 532:Generated_Source\PSoC4/cy_em_eeprom.c ****                 /* Write data to the RAM buffer */
 533:Generated_Source\PSoC4/cy_em_eeprom.c ****                 if(0u == skipOperation)
 534:Generated_Source\PSoC4/cy_em_eeprom.c ****                 {
 535:Generated_Source\PSoC4/cy_em_eeprom.c ****                     uint32 dataAddr = ((uint32)((uint8 *)&writeRamBuffer)) + startAddr;
 536:Generated_Source\PSoC4/cy_em_eeprom.c **** 
 537:Generated_Source\PSoC4/cy_em_eeprom.c ****                     /* Update the address to point to the EEPROM header data and not to
 538:Generated_Source\PSoC4/cy_em_eeprom.c ****                     * the start of the row.
 539:Generated_Source\PSoC4/cy_em_eeprom.c ****                     */
 540:Generated_Source\PSoC4/cy_em_eeprom.c ****                     tmpRowAddr = tmpRowAddr + CY_EM_EEPROM_HEADER_DATA_OFFSET + eeHeaderDataOffset;
 541:Generated_Source\PSoC4/cy_em_eeprom.c ****                     (void)memcpy((void *)(dataAddr), (void *)(tmpRowAddr), endAddr - startAddr);
 542:Generated_Source\PSoC4/cy_em_eeprom.c ****                 }
 543:Generated_Source\PSoC4/cy_em_eeprom.c **** 
 544:Generated_Source\PSoC4/cy_em_eeprom.c ****                 /* Calculate the checksum if redundant copy is enabled */
ARM GAS  C:\Users\ORA\AppData\Local\Temp\ccF8tT21.s 			page 11


 545:Generated_Source\PSoC4/cy_em_eeprom.c ****                 if(0u != context->redundantCopy)
 546:Generated_Source\PSoC4/cy_em_eeprom.c ****                 {
 547:Generated_Source\PSoC4/cy_em_eeprom.c ****                     writeRamBuffer[CY_EM_EEPROM_HEADER_CHECKSUM_OFFSET_U32] = (uint32)
 548:Generated_Source\PSoC4/cy_em_eeprom.c ****                         CalcChecksum((uint8 *) &writeRamBuffer[CY_EM_EEPROM_EEPROM_DATA_OFFSET_U32]
 549:Generated_Source\PSoC4/cy_em_eeprom.c ****                                                   CY_EM_EEPROM_EEPROM_DATA_LEN);
 550:Generated_Source\PSoC4/cy_em_eeprom.c ****                 }
 551:Generated_Source\PSoC4/cy_em_eeprom.c ****             }
 552:Generated_Source\PSoC4/cy_em_eeprom.c **** 
 553:Generated_Source\PSoC4/cy_em_eeprom.c ****             /* Write the data to the specified flash row */
 554:Generated_Source\PSoC4/cy_em_eeprom.c ****             ret = WriteRow(emEepromRowAddr, writeRamBuffer, context);
 555:Generated_Source\PSoC4/cy_em_eeprom.c ****             tmpRowAddr = emEepromRowAddr;
 556:Generated_Source\PSoC4/cy_em_eeprom.c **** 
 557:Generated_Source\PSoC4/cy_em_eeprom.c ****             /* Check if redundant copy is used */
 558:Generated_Source\PSoC4/cy_em_eeprom.c ****             if((0u != context->redundantCopy) && (CY_EM_EEPROM_SUCCESS == ret))
 559:Generated_Source\PSoC4/cy_em_eeprom.c ****             {
 560:Generated_Source\PSoC4/cy_em_eeprom.c ****                 /* Update the row address to point to the row in the redundant EEPROM's copy */
 561:Generated_Source\PSoC4/cy_em_eeprom.c ****                 tmpRowAddr = (emEepromRowAddr - context->userFlashStartAddr) + context->wlEndAddr;
 562:Generated_Source\PSoC4/cy_em_eeprom.c **** 
 563:Generated_Source\PSoC4/cy_em_eeprom.c ****                 /* Write the data to the specified flash row */
 564:Generated_Source\PSoC4/cy_em_eeprom.c ****                 ret = WriteRow(tmpRowAddr, writeRamBuffer, context);
 565:Generated_Source\PSoC4/cy_em_eeprom.c ****             }
 566:Generated_Source\PSoC4/cy_em_eeprom.c **** 
 567:Generated_Source\PSoC4/cy_em_eeprom.c ****             if(CY_EM_EEPROM_SUCCESS == ret)
 568:Generated_Source\PSoC4/cy_em_eeprom.c ****             {
 569:Generated_Source\PSoC4/cy_em_eeprom.c ****                 /* Store last written row address only when EEPROM and redundant
 570:Generated_Source\PSoC4/cy_em_eeprom.c ****                 * copy writes were successful.
 571:Generated_Source\PSoC4/cy_em_eeprom.c ****                 */
 572:Generated_Source\PSoC4/cy_em_eeprom.c ****                 context->lastWrRowAddr = emEepromRowAddr;
 573:Generated_Source\PSoC4/cy_em_eeprom.c ****             }
 574:Generated_Source\PSoC4/cy_em_eeprom.c ****             else
 575:Generated_Source\PSoC4/cy_em_eeprom.c ****             {
 576:Generated_Source\PSoC4/cy_em_eeprom.c ****                 break;
 577:Generated_Source\PSoC4/cy_em_eeprom.c ****             }
 578:Generated_Source\PSoC4/cy_em_eeprom.c ****         }
 579:Generated_Source\PSoC4/cy_em_eeprom.c ****     }
 580:Generated_Source\PSoC4/cy_em_eeprom.c ****     return(ret);
 581:Generated_Source\PSoC4/cy_em_eeprom.c **** }
 582:Generated_Source\PSoC4/cy_em_eeprom.c **** 
 583:Generated_Source\PSoC4/cy_em_eeprom.c **** 
 584:Generated_Source\PSoC4/cy_em_eeprom.c **** /*******************************************************************************
 585:Generated_Source\PSoC4/cy_em_eeprom.c **** * Function Name: Cy_Em_EEPROM_Erase
 586:Generated_Source\PSoC4/cy_em_eeprom.c **** ****************************************************************************//**
 587:Generated_Source\PSoC4/cy_em_eeprom.c **** *
 588:Generated_Source\PSoC4/cy_em_eeprom.c **** * This function erases the entire contents of the EEPROM. Erased values are all
 589:Generated_Source\PSoC4/cy_em_eeprom.c **** * zeros. This is a blocking function and it does not return until the write
 590:Generated_Source\PSoC4/cy_em_eeprom.c **** * operation is completed. The user firmware should not enter Hibernate mode until
 591:Generated_Source\PSoC4/cy_em_eeprom.c **** * erase is completed. The erase operation is allowed in Sleep and Deep-Sleep modes.
 592:Generated_Source\PSoC4/cy_em_eeprom.c **** * During the flash operation, the device should not be reset, including the
 593:Generated_Source\PSoC4/cy_em_eeprom.c **** * XRES pin, a software reset, and watchdog reset sources. Also, low-voltage
 594:Generated_Source\PSoC4/cy_em_eeprom.c **** * detect circuits should be configured to generate an interrupt instead of a
 595:Generated_Source\PSoC4/cy_em_eeprom.c **** * reset. Otherwise, portions of flash may undergo unexpected changes.
 596:Generated_Source\PSoC4/cy_em_eeprom.c **** *
 597:Generated_Source\PSoC4/cy_em_eeprom.c **** * \param context
 598:Generated_Source\PSoC4/cy_em_eeprom.c **** * The pointer to the EEPROM context structure \ref cy_stc_eeprom_context_t.
 599:Generated_Source\PSoC4/cy_em_eeprom.c **** *
 600:Generated_Source\PSoC4/cy_em_eeprom.c **** * \return
 601:Generated_Source\PSoC4/cy_em_eeprom.c **** * This function returns \ref cy_en_em_eeprom_status_t.
ARM GAS  C:\Users\ORA\AppData\Local\Temp\ccF8tT21.s 			page 12


 602:Generated_Source\PSoC4/cy_em_eeprom.c **** *
 603:Generated_Source\PSoC4/cy_em_eeprom.c **** * \note
 604:Generated_Source\PSoC4/cy_em_eeprom.c **** * For all non PSoC 6 devices the erase operation is performed by clearing
 605:Generated_Source\PSoC4/cy_em_eeprom.c **** * the EEPROM data using flash write. This affects the flash durability.
 606:Generated_Source\PSoC4/cy_em_eeprom.c **** * So it is recommended to use this function in utmost case to prolongate
 607:Generated_Source\PSoC4/cy_em_eeprom.c **** * flash life.
 608:Generated_Source\PSoC4/cy_em_eeprom.c **** *
 609:Generated_Source\PSoC4/cy_em_eeprom.c **** * \note
 610:Generated_Source\PSoC4/cy_em_eeprom.c **** * This function uses a buffer of the flash row size to perform erase
 611:Generated_Source\PSoC4/cy_em_eeprom.c **** * operation. For the size of the row refer to the specific PSoC device
 612:Generated_Source\PSoC4/cy_em_eeprom.c **** * datasheet.
 613:Generated_Source\PSoC4/cy_em_eeprom.c **** *
 614:Generated_Source\PSoC4/cy_em_eeprom.c **** * \sideeffect
 615:Generated_Source\PSoC4/cy_em_eeprom.c **** * In case when blocking write option is used, if this function is called by
 616:Generated_Source\PSoC4/cy_em_eeprom.c **** * the CM4 the user code on CM0P and the user code on CM4 are blocked until erase
 617:Generated_Source\PSoC4/cy_em_eeprom.c **** * flash row operation is finished. If this function is called by the CM0P the
 618:Generated_Source\PSoC4/cy_em_eeprom.c **** * user code on CM4 is not blocked and the user code on CM0P is blocked until
 619:Generated_Source\PSoC4/cy_em_eeprom.c **** * erase flash row operation is finished. Plan your task allocation accordingly.
 620:Generated_Source\PSoC4/cy_em_eeprom.c **** *
 621:Generated_Source\PSoC4/cy_em_eeprom.c **** * \sideeffect
 622:Generated_Source\PSoC4/cy_em_eeprom.c **** * In case if non-blocking write option is used and when user flash is used as
 623:Generated_Source\PSoC4/cy_em_eeprom.c **** * an EEPROM storage care should be taken to prevent the read while write (RWW)
 624:Generated_Source\PSoC4/cy_em_eeprom.c **** * exception. To prevent the RWW exception the user flash macro that includes
 625:Generated_Source\PSoC4/cy_em_eeprom.c **** * the EEPROM storage should not be read while the EEPROM erase is not completed.
 626:Generated_Source\PSoC4/cy_em_eeprom.c **** * The read also means the user code execution from the respective flash macro.
 627:Generated_Source\PSoC4/cy_em_eeprom.c **** *
 628:Generated_Source\PSoC4/cy_em_eeprom.c **** *******************************************************************************/
 629:Generated_Source\PSoC4/cy_em_eeprom.c **** cy_en_em_eeprom_status_t Cy_Em_EEPROM_Erase(cy_stc_eeprom_context_t * context)
 630:Generated_Source\PSoC4/cy_em_eeprom.c **** {
 631:Generated_Source\PSoC4/cy_em_eeprom.c ****     uint32 i;
 632:Generated_Source\PSoC4/cy_em_eeprom.c ****     uint32 seqNum;
 633:Generated_Source\PSoC4/cy_em_eeprom.c ****     uint32 emEepromRowAddr = context->lastWrRowAddr;
 634:Generated_Source\PSoC4/cy_em_eeprom.c ****     uint32 emEepromRowRdAddr;
 635:Generated_Source\PSoC4/cy_em_eeprom.c ****     cy_en_em_eeprom_status_t ret = CY_EM_EEPROM_WRITE_FAIL;
 636:Generated_Source\PSoC4/cy_em_eeprom.c ****     uint32 writeRamBuffer[CY_EM_EEPROM_FLASH_SIZEOF_ROW / CY_EM_EEPROM_U32_DIV] = {0u};
 637:Generated_Source\PSoC4/cy_em_eeprom.c **** #if (CY_PSOC6)
 638:Generated_Source\PSoC4/cy_em_eeprom.c ****     uint32 emEepromStoredRowAddr = context->lastWrRowAddr;
 639:Generated_Source\PSoC4/cy_em_eeprom.c ****     uint32 storedSeqNum;
 640:Generated_Source\PSoC4/cy_em_eeprom.c **** #endif /* (!CY_PSOC6) */
 641:Generated_Source\PSoC4/cy_em_eeprom.c **** 
 642:Generated_Source\PSoC4/cy_em_eeprom.c ****     /* Get the sequence number of the last written row */
 643:Generated_Source\PSoC4/cy_em_eeprom.c ****     seqNum = CY_EM_EEPROM_GET_SEQ_NUM(emEepromRowAddr);
 644:Generated_Source\PSoC4/cy_em_eeprom.c **** 
 645:Generated_Source\PSoC4/cy_em_eeprom.c ****     /* If there were no writes to EEPROM - nothing to erase */
 646:Generated_Source\PSoC4/cy_em_eeprom.c ****     if(0u != seqNum)
 647:Generated_Source\PSoC4/cy_em_eeprom.c ****     {
 648:Generated_Source\PSoC4/cy_em_eeprom.c ****         /* Calculate the number of row erase operations required */
 649:Generated_Source\PSoC4/cy_em_eeprom.c ****         uint32 numWrites = context->numberOfRows * context->wearLevelingFactor;
 650:Generated_Source\PSoC4/cy_em_eeprom.c **** 
 651:Generated_Source\PSoC4/cy_em_eeprom.c ****     #if (CY_PSOC6)
 652:Generated_Source\PSoC4/cy_em_eeprom.c ****         GetNextRowToWrite(seqNum, &emEepromStoredRowAddr, &emEepromRowRdAddr, context);
 653:Generated_Source\PSoC4/cy_em_eeprom.c ****         storedSeqNum = seqNum + 1u;
 654:Generated_Source\PSoC4/cy_em_eeprom.c ****     #endif /* (CY_PSOC6) */
 655:Generated_Source\PSoC4/cy_em_eeprom.c **** 
 656:Generated_Source\PSoC4/cy_em_eeprom.c ****         if(0u != context->redundantCopy)
 657:Generated_Source\PSoC4/cy_em_eeprom.c ****         {
 658:Generated_Source\PSoC4/cy_em_eeprom.c ****             writeRamBuffer[CY_EM_EEPROM_HEADER_CHECKSUM_OFFSET_U32] = (uint32)
ARM GAS  C:\Users\ORA\AppData\Local\Temp\ccF8tT21.s 			page 13


 659:Generated_Source\PSoC4/cy_em_eeprom.c ****                         CalcChecksum((uint8 *) &writeRamBuffer[CY_EM_EEPROM_EEPROM_DATA_OFFSET_U32]
 660:Generated_Source\PSoC4/cy_em_eeprom.c ****                                                   CY_EM_EEPROM_EEPROM_DATA_LEN);
 661:Generated_Source\PSoC4/cy_em_eeprom.c ****         }
 662:Generated_Source\PSoC4/cy_em_eeprom.c **** 
 663:Generated_Source\PSoC4/cy_em_eeprom.c ****         for(i = 0u; i < numWrites; i++)
 664:Generated_Source\PSoC4/cy_em_eeprom.c ****         {
 665:Generated_Source\PSoC4/cy_em_eeprom.c ****         #if (CY_PSOC6)
 666:Generated_Source\PSoC4/cy_em_eeprom.c ****             /* For PSoC 6 the erase operation moves backwards. From last written row
 667:Generated_Source\PSoC4/cy_em_eeprom.c ****             * identified by "seqNum" down to "seqNum" - "numWrites". If "emEepromRowAddr"
 668:Generated_Source\PSoC4/cy_em_eeprom.c ****             * is zero this means that the row identified by "seqNum" was previously 
 669:Generated_Source\PSoC4/cy_em_eeprom.c ****             * erased.
 670:Generated_Source\PSoC4/cy_em_eeprom.c ****             */
 671:Generated_Source\PSoC4/cy_em_eeprom.c ****             if(0u != emEepromRowAddr)
 672:Generated_Source\PSoC4/cy_em_eeprom.c ****             {
 673:Generated_Source\PSoC4/cy_em_eeprom.c ****                 ret = EraseRow(emEepromRowAddr, (uint32)writeRamBuffer, context);
 674:Generated_Source\PSoC4/cy_em_eeprom.c ****             }
 675:Generated_Source\PSoC4/cy_em_eeprom.c **** 
 676:Generated_Source\PSoC4/cy_em_eeprom.c ****             seqNum--;
 677:Generated_Source\PSoC4/cy_em_eeprom.c **** 
 678:Generated_Source\PSoC4/cy_em_eeprom.c ****             if(0u == seqNum)
 679:Generated_Source\PSoC4/cy_em_eeprom.c ****             {
 680:Generated_Source\PSoC4/cy_em_eeprom.c ****                 /* Exit the loop as there is no more row is EEPROM to be erased */
 681:Generated_Source\PSoC4/cy_em_eeprom.c ****                 break;
 682:Generated_Source\PSoC4/cy_em_eeprom.c ****             }
 683:Generated_Source\PSoC4/cy_em_eeprom.c ****             emEepromRowAddr = GetRowAddrBySeqNum(seqNum, context);
 684:Generated_Source\PSoC4/cy_em_eeprom.c ****         #else
 685:Generated_Source\PSoC4/cy_em_eeprom.c ****             seqNum = CY_EM_EEPROM_GET_SEQ_NUM(emEepromRowAddr);
 686:Generated_Source\PSoC4/cy_em_eeprom.c ****             /* Get the address of the row to be erased. "emEepromRowAddr" may be updated
 687:Generated_Source\PSoC4/cy_em_eeprom.c ****             * with the proper address (if wear leveling is used).
 688:Generated_Source\PSoC4/cy_em_eeprom.c ****             */
 689:Generated_Source\PSoC4/cy_em_eeprom.c ****             GetNextRowToWrite(seqNum, &emEepromRowAddr, &emEepromRowRdAddr, context);
 690:Generated_Source\PSoC4/cy_em_eeprom.c ****             seqNum++;
 691:Generated_Source\PSoC4/cy_em_eeprom.c ****             writeRamBuffer[0u] = seqNum;
 692:Generated_Source\PSoC4/cy_em_eeprom.c ****             ret = EraseRow(emEepromRowAddr, (uint32)writeRamBuffer, context);
 693:Generated_Source\PSoC4/cy_em_eeprom.c ****         #endif /* (CY_PSOC6) */
 694:Generated_Source\PSoC4/cy_em_eeprom.c ****         }
 695:Generated_Source\PSoC4/cy_em_eeprom.c **** 
 696:Generated_Source\PSoC4/cy_em_eeprom.c ****     #if (CY_PSOC6)
 697:Generated_Source\PSoC4/cy_em_eeprom.c ****         if(CY_EM_EEPROM_SUCCESS == ret)
 698:Generated_Source\PSoC4/cy_em_eeprom.c ****         {
 699:Generated_Source\PSoC4/cy_em_eeprom.c ****             writeRamBuffer[0u] = storedSeqNum;
 700:Generated_Source\PSoC4/cy_em_eeprom.c **** 
 701:Generated_Source\PSoC4/cy_em_eeprom.c ****             /* Write the previously stored sequence number to the flash row which would be
 702:Generated_Source\PSoC4/cy_em_eeprom.c ****             * written next if the erase wouldn't happen. In this case the write to
 703:Generated_Source\PSoC4/cy_em_eeprom.c ****             * redundant copy can be skipped as it does not add any value.
 704:Generated_Source\PSoC4/cy_em_eeprom.c ****             */
 705:Generated_Source\PSoC4/cy_em_eeprom.c ****             ret = WriteRow(emEepromStoredRowAddr, writeRamBuffer, context);
 706:Generated_Source\PSoC4/cy_em_eeprom.c **** 
 707:Generated_Source\PSoC4/cy_em_eeprom.c ****             if(CY_EM_EEPROM_SUCCESS == ret)
 708:Generated_Source\PSoC4/cy_em_eeprom.c ****             {
 709:Generated_Source\PSoC4/cy_em_eeprom.c ****                 context->lastWrRowAddr = emEepromStoredRowAddr;
 710:Generated_Source\PSoC4/cy_em_eeprom.c ****             }
 711:Generated_Source\PSoC4/cy_em_eeprom.c ****         }
 712:Generated_Source\PSoC4/cy_em_eeprom.c ****     #endif /* (CY_PSOC6) */
 713:Generated_Source\PSoC4/cy_em_eeprom.c **** 
 714:Generated_Source\PSoC4/cy_em_eeprom.c ****     }
 715:Generated_Source\PSoC4/cy_em_eeprom.c ****     return(ret);
ARM GAS  C:\Users\ORA\AppData\Local\Temp\ccF8tT21.s 			page 14


 716:Generated_Source\PSoC4/cy_em_eeprom.c **** }
 717:Generated_Source\PSoC4/cy_em_eeprom.c **** 
 718:Generated_Source\PSoC4/cy_em_eeprom.c **** 
 719:Generated_Source\PSoC4/cy_em_eeprom.c **** /*******************************************************************************
 720:Generated_Source\PSoC4/cy_em_eeprom.c **** * Function Name: Cy_Em_EEPROM_NumWrites
 721:Generated_Source\PSoC4/cy_em_eeprom.c **** ****************************************************************************//**
 722:Generated_Source\PSoC4/cy_em_eeprom.c **** *
 723:Generated_Source\PSoC4/cy_em_eeprom.c **** * Returns the number of the EEPROM writes completed so far.
 724:Generated_Source\PSoC4/cy_em_eeprom.c **** *
 725:Generated_Source\PSoC4/cy_em_eeprom.c **** * \param context
 726:Generated_Source\PSoC4/cy_em_eeprom.c **** * The pointer to the EEPROM context structure \ref cy_stc_eeprom_context_t.
 727:Generated_Source\PSoC4/cy_em_eeprom.c **** *
 728:Generated_Source\PSoC4/cy_em_eeprom.c **** * \return
 729:Generated_Source\PSoC4/cy_em_eeprom.c **** * The number of writes performed to the EEPROM.
 730:Generated_Source\PSoC4/cy_em_eeprom.c **** *
 731:Generated_Source\PSoC4/cy_em_eeprom.c **** *******************************************************************************/
 732:Generated_Source\PSoC4/cy_em_eeprom.c **** uint32 Cy_Em_EEPROM_NumWrites(cy_stc_eeprom_context_t * context)
 733:Generated_Source\PSoC4/cy_em_eeprom.c **** {
 734:Generated_Source\PSoC4/cy_em_eeprom.c ****     return(CY_EM_EEPROM_GET_SEQ_NUM(context->lastWrRowAddr));
 735:Generated_Source\PSoC4/cy_em_eeprom.c **** }
 736:Generated_Source\PSoC4/cy_em_eeprom.c **** 
 737:Generated_Source\PSoC4/cy_em_eeprom.c **** /** \} */
 738:Generated_Source\PSoC4/cy_em_eeprom.c **** 
 739:Generated_Source\PSoC4/cy_em_eeprom.c **** /** \cond INTERNAL */
 740:Generated_Source\PSoC4/cy_em_eeprom.c **** 
 741:Generated_Source\PSoC4/cy_em_eeprom.c **** 
 742:Generated_Source\PSoC4/cy_em_eeprom.c **** /*******************************************************************************
 743:Generated_Source\PSoC4/cy_em_eeprom.c **** * Function Name: FindLastWrittenRow
 744:Generated_Source\PSoC4/cy_em_eeprom.c **** ****************************************************************************//**
 745:Generated_Source\PSoC4/cy_em_eeprom.c **** *
 746:Generated_Source\PSoC4/cy_em_eeprom.c **** * Performs a search of the last written row address of the EEPROM associated
 747:Generated_Source\PSoC4/cy_em_eeprom.c **** * with the context structure. If there were no writes to the EEPROM the
 748:Generated_Source\PSoC4/cy_em_eeprom.c **** * function returns the start address of the EEPROM. The row address is returned
 749:Generated_Source\PSoC4/cy_em_eeprom.c **** * in the input parameter.
 750:Generated_Source\PSoC4/cy_em_eeprom.c **** *
 751:Generated_Source\PSoC4/cy_em_eeprom.c **** * \param lastWrRowPtr
 752:Generated_Source\PSoC4/cy_em_eeprom.c **** * The pointer to a memory where the last written row will be returned.
 753:Generated_Source\PSoC4/cy_em_eeprom.c **** *
 754:Generated_Source\PSoC4/cy_em_eeprom.c **** * \param context
 755:Generated_Source\PSoC4/cy_em_eeprom.c **** * The pointer to the EEPROM context structure \ref cy_stc_eeprom_context_t.
 756:Generated_Source\PSoC4/cy_em_eeprom.c **** *
 757:Generated_Source\PSoC4/cy_em_eeprom.c **** *******************************************************************************/
 758:Generated_Source\PSoC4/cy_em_eeprom.c **** static void FindLastWrittenRow(uint32 * lastWrRowPtr, cy_stc_eeprom_context_t * context)
 759:Generated_Source\PSoC4/cy_em_eeprom.c **** {
  27              		.loc 1 759 0
  28              		.cfi_startproc
  29              		@ args = 0, pretend = 0, frame = 0
  30              		@ frame_needed = 0, uses_anonymous_args = 0
  31              	.LVL0:
  32 0000 70B5     		push	{r4, r5, r6, lr}
  33              		.cfi_def_cfa_offset 16
  34              		.cfi_offset 4, -16
  35              		.cfi_offset 5, -12
  36              		.cfi_offset 6, -8
  37              		.cfi_offset 14, -4
  38              	.LVL1:
 760:Generated_Source\PSoC4/cy_em_eeprom.c ****     uint32 seqNum = 0u;
ARM GAS  C:\Users\ORA\AppData\Local\Temp\ccF8tT21.s 			page 15


 761:Generated_Source\PSoC4/cy_em_eeprom.c ****     uint32 prevSeqNum = 0u;
 762:Generated_Source\PSoC4/cy_em_eeprom.c ****     uint32 numRows;
 763:Generated_Source\PSoC4/cy_em_eeprom.c ****     uint32 emEepromAddr = context->userFlashStartAddr;
  39              		.loc 1 763 0
  40 0002 8A69     		ldr	r2, [r1, #24]
  41              	.LVL2:
 764:Generated_Source\PSoC4/cy_em_eeprom.c **** 
 765:Generated_Source\PSoC4/cy_em_eeprom.c ****     *lastWrRowPtr = emEepromAddr;
  42              		.loc 1 765 0
  43 0004 0260     		str	r2, [r0]
  44              	.LVL3:
 766:Generated_Source\PSoC4/cy_em_eeprom.c **** 
 767:Generated_Source\PSoC4/cy_em_eeprom.c ****     for(numRows = 0u; numRows < (context->numberOfRows * context->wearLevelingFactor); numRows++)
  45              		.loc 1 767 0
  46 0006 0024     		movs	r4, #0
 761:Generated_Source\PSoC4/cy_em_eeprom.c ****     uint32 numRows;
  47              		.loc 1 761 0
  48 0008 0025     		movs	r5, #0
  49              		.loc 1 767 0
  50 000a 09E0     		b	.L2
  51              	.LVL4:
  52              	.L4:
 768:Generated_Source\PSoC4/cy_em_eeprom.c ****     {
 769:Generated_Source\PSoC4/cy_em_eeprom.c ****         seqNum = CY_EM_EEPROM_GET_SEQ_NUM(emEepromAddr);
  53              		.loc 1 769 0
  54 000c 1368     		ldr	r3, [r2]
  55              	.LVL5:
 770:Generated_Source\PSoC4/cy_em_eeprom.c ****         if((0u != seqNum) && (seqNum > prevSeqNum))
  56              		.loc 1 770 0
  57 000e 002B     		cmp	r3, #0
  58 0010 03D0     		beq	.L3
  59              		.loc 1 770 0 is_stmt 0 discriminator 1
  60 0012 9D42     		cmp	r5, r3
  61 0014 01D2     		bcs	.L3
  62              	.LVL6:
 771:Generated_Source\PSoC4/cy_em_eeprom.c ****         {
 772:Generated_Source\PSoC4/cy_em_eeprom.c ****             /* Some record in EEPROM was found. Store found sequence
 773:Generated_Source\PSoC4/cy_em_eeprom.c ****             * number and row address.
 774:Generated_Source\PSoC4/cy_em_eeprom.c ****             */
 775:Generated_Source\PSoC4/cy_em_eeprom.c ****             prevSeqNum = seqNum;
 776:Generated_Source\PSoC4/cy_em_eeprom.c ****             *lastWrRowPtr = emEepromAddr;
  63              		.loc 1 776 0 is_stmt 1
  64 0016 0260     		str	r2, [r0]
 775:Generated_Source\PSoC4/cy_em_eeprom.c ****             *lastWrRowPtr = emEepromAddr;
  65              		.loc 1 775 0
  66 0018 1D00     		movs	r5, r3
  67              	.LVL7:
  68              	.L3:
 777:Generated_Source\PSoC4/cy_em_eeprom.c ****         }
 778:Generated_Source\PSoC4/cy_em_eeprom.c **** 
 779:Generated_Source\PSoC4/cy_em_eeprom.c ****         /* Switch to the next row */
 780:Generated_Source\PSoC4/cy_em_eeprom.c ****         emEepromAddr = emEepromAddr + CY_EM_EEPROM_FLASH_SIZEOF_ROW;
  69              		.loc 1 780 0 discriminator 2
  70 001a 0132     		adds	r2, r2, #1
  71              	.LVL8:
  72 001c FF32     		adds	r2, r2, #255
  73              	.LVL9:
ARM GAS  C:\Users\ORA\AppData\Local\Temp\ccF8tT21.s 			page 16


 767:Generated_Source\PSoC4/cy_em_eeprom.c ****     {
  74              		.loc 1 767 0 discriminator 2
  75 001e 0134     		adds	r4, r4, #1
  76              	.LVL10:
  77              	.L2:
 767:Generated_Source\PSoC4/cy_em_eeprom.c ****     {
  78              		.loc 1 767 0 is_stmt 0 discriminator 1
  79 0020 0B69     		ldr	r3, [r1, #16]
  80 0022 4E68     		ldr	r6, [r1, #4]
  81 0024 7343     		muls	r3, r6
  82 0026 9C42     		cmp	r4, r3
  83 0028 F0D3     		bcc	.L4
 781:Generated_Source\PSoC4/cy_em_eeprom.c ****     }
 782:Generated_Source\PSoC4/cy_em_eeprom.c **** }
  84              		.loc 1 782 0 is_stmt 1
  85              		@ sp needed
  86              	.LVL11:
  87              	.LVL12:
  88 002a 70BD     		pop	{r4, r5, r6, pc}
  89              		.cfi_endproc
  90              	.LFE7:
  91              		.size	FindLastWrittenRow, .-FindLastWrittenRow
  92              		.section	.text.GetRowAddrBySeqNum,"ax",%progbits
  93              		.align	2
  94              		.code	16
  95              		.thumb_func
  96              		.type	GetRowAddrBySeqNum, %function
  97              	GetRowAddrBySeqNum:
  98              	.LFB8:
 783:Generated_Source\PSoC4/cy_em_eeprom.c **** 
 784:Generated_Source\PSoC4/cy_em_eeprom.c **** 
 785:Generated_Source\PSoC4/cy_em_eeprom.c **** /*******************************************************************************
 786:Generated_Source\PSoC4/cy_em_eeprom.c **** * Function Name: GetRowAddrBySeqNum
 787:Generated_Source\PSoC4/cy_em_eeprom.c **** ****************************************************************************//**
 788:Generated_Source\PSoC4/cy_em_eeprom.c **** *
 789:Generated_Source\PSoC4/cy_em_eeprom.c **** * Returns the address of the row in EEPROM using its sequence number.
 790:Generated_Source\PSoC4/cy_em_eeprom.c **** *
 791:Generated_Source\PSoC4/cy_em_eeprom.c **** * \param seqNum
 792:Generated_Source\PSoC4/cy_em_eeprom.c **** * The sequence number of the row.
 793:Generated_Source\PSoC4/cy_em_eeprom.c **** *
 794:Generated_Source\PSoC4/cy_em_eeprom.c **** * \param context
 795:Generated_Source\PSoC4/cy_em_eeprom.c **** * The pointer to the EEPROM context structure.
 796:Generated_Source\PSoC4/cy_em_eeprom.c **** *
 797:Generated_Source\PSoC4/cy_em_eeprom.c **** * \return
 798:Generated_Source\PSoC4/cy_em_eeprom.c **** * The address of the row or zero if the row with the sequence number was not
 799:Generated_Source\PSoC4/cy_em_eeprom.c **** * found.
 800:Generated_Source\PSoC4/cy_em_eeprom.c **** *
 801:Generated_Source\PSoC4/cy_em_eeprom.c **** *******************************************************************************/
 802:Generated_Source\PSoC4/cy_em_eeprom.c **** static uint32 GetRowAddrBySeqNum(uint32 seqNum, cy_stc_eeprom_context_t * context)
 803:Generated_Source\PSoC4/cy_em_eeprom.c **** {
  99              		.loc 1 803 0
 100              		.cfi_startproc
 101              		@ args = 0, pretend = 0, frame = 0
 102              		@ frame_needed = 0, uses_anonymous_args = 0
 103              		@ link register save eliminated.
 104              	.LVL13:
 804:Generated_Source\PSoC4/cy_em_eeprom.c ****     uint32 emEepromAddr = context->userFlashStartAddr;
ARM GAS  C:\Users\ORA\AppData\Local\Temp\ccF8tT21.s 			page 17


 105              		.loc 1 804 0
 106 0000 8B69     		ldr	r3, [r1, #24]
 107              	.LVL14:
 805:Generated_Source\PSoC4/cy_em_eeprom.c **** 
 806:Generated_Source\PSoC4/cy_em_eeprom.c ****     while(CY_EM_EEPROM_GET_SEQ_NUM(emEepromAddr) != seqNum)
 108              		.loc 1 806 0
 109 0002 04E0     		b	.L6
 110              	.L8:
 807:Generated_Source\PSoC4/cy_em_eeprom.c ****     {
 808:Generated_Source\PSoC4/cy_em_eeprom.c ****         /* Switch to the next row */
 809:Generated_Source\PSoC4/cy_em_eeprom.c ****         emEepromAddr = emEepromAddr + CY_EM_EEPROM_FLASH_SIZEOF_ROW;
 111              		.loc 1 809 0
 112 0004 0133     		adds	r3, r3, #1
 113              	.LVL15:
 114 0006 FF33     		adds	r3, r3, #255
 115              	.LVL16:
 810:Generated_Source\PSoC4/cy_em_eeprom.c **** 
 811:Generated_Source\PSoC4/cy_em_eeprom.c ****         if (CY_EM_EEPROM_ADDR_IN_RANGE !=
 116              		.loc 1 811 0
 117 0008 0A68     		ldr	r2, [r1]
 118 000a 9342     		cmp	r3, r2
 119 000c 03D2     		bcs	.L9
 120              	.L6:
 806:Generated_Source\PSoC4/cy_em_eeprom.c ****     {
 121              		.loc 1 806 0
 122 000e 1A68     		ldr	r2, [r3]
 123 0010 8242     		cmp	r2, r0
 124 0012 F7D1     		bne	.L8
 125 0014 00E0     		b	.L7
 126              	.L9:
 812:Generated_Source\PSoC4/cy_em_eeprom.c ****             CY_EM_EEPROM_IS_ADDR_EXCEED_RANGE(emEepromAddr, context->wlEndAddr))
 813:Generated_Source\PSoC4/cy_em_eeprom.c ****         {
 814:Generated_Source\PSoC4/cy_em_eeprom.c ****             emEepromAddr = 0u;
 127              		.loc 1 814 0
 128 0016 0023     		movs	r3, #0
 129              	.LVL17:
 130              	.L7:
 815:Generated_Source\PSoC4/cy_em_eeprom.c ****             /* Exit the loop as we reached the end of EEPROM */
 816:Generated_Source\PSoC4/cy_em_eeprom.c ****             break;
 817:Generated_Source\PSoC4/cy_em_eeprom.c ****         }
 818:Generated_Source\PSoC4/cy_em_eeprom.c ****     }
 819:Generated_Source\PSoC4/cy_em_eeprom.c **** 
 820:Generated_Source\PSoC4/cy_em_eeprom.c ****     return (emEepromAddr);
 821:Generated_Source\PSoC4/cy_em_eeprom.c **** }
 131              		.loc 1 821 0
 132 0018 1800     		movs	r0, r3
 133              	.LVL18:
 134              		@ sp needed
 135 001a 7047     		bx	lr
 136              		.cfi_endproc
 137              	.LFE8:
 138              		.size	GetRowAddrBySeqNum, .-GetRowAddrBySeqNum
 139              		.section	.text.GetNextRowToWrite,"ax",%progbits
 140              		.align	2
 141              		.code	16
 142              		.thumb_func
 143              		.type	GetNextRowToWrite, %function
ARM GAS  C:\Users\ORA\AppData\Local\Temp\ccF8tT21.s 			page 18


 144              	GetNextRowToWrite:
 145              	.LFB9:
 822:Generated_Source\PSoC4/cy_em_eeprom.c **** 
 823:Generated_Source\PSoC4/cy_em_eeprom.c **** 
 824:Generated_Source\PSoC4/cy_em_eeprom.c **** /*******************************************************************************
 825:Generated_Source\PSoC4/cy_em_eeprom.c **** * Function Name: GetNextRowToWrite
 826:Generated_Source\PSoC4/cy_em_eeprom.c **** ****************************************************************************//**
 827:Generated_Source\PSoC4/cy_em_eeprom.c **** *
 828:Generated_Source\PSoC4/cy_em_eeprom.c **** * Performs a range check of the row that should be written and updates the
 829:Generated_Source\PSoC4/cy_em_eeprom.c **** * address to the row respectively. The similar actions are done for the read
 830:Generated_Source\PSoC4/cy_em_eeprom.c **** * address.
 831:Generated_Source\PSoC4/cy_em_eeprom.c **** *
 832:Generated_Source\PSoC4/cy_em_eeprom.c **** * \param seqNum
 833:Generated_Source\PSoC4/cy_em_eeprom.c **** * The sequence number of the last written row.
 834:Generated_Source\PSoC4/cy_em_eeprom.c **** *
 835:Generated_Source\PSoC4/cy_em_eeprom.c **** * \param rowToWrPtr
 836:Generated_Source\PSoC4/cy_em_eeprom.c **** * The address of the last written row (input). The address of the row to be 
 837:Generated_Source\PSoC4/cy_em_eeprom.c **** * written (output).
 838:Generated_Source\PSoC4/cy_em_eeprom.c **** *
 839:Generated_Source\PSoC4/cy_em_eeprom.c **** * \param rowToRdPtr
 840:Generated_Source\PSoC4/cy_em_eeprom.c **** * The address of the row from which the data should be read into the RAM buffer
 841:Generated_Source\PSoC4/cy_em_eeprom.c **** * in a later write operation. Out parameter.
 842:Generated_Source\PSoC4/cy_em_eeprom.c **** *
 843:Generated_Source\PSoC4/cy_em_eeprom.c **** * \param context
 844:Generated_Source\PSoC4/cy_em_eeprom.c **** * The pointer to the EEPROM context structure \ref cy_stc_eeprom_context_t.
 845:Generated_Source\PSoC4/cy_em_eeprom.c **** *
 846:Generated_Source\PSoC4/cy_em_eeprom.c **** *******************************************************************************/
 847:Generated_Source\PSoC4/cy_em_eeprom.c **** static void GetNextRowToWrite(uint32 seqNum,
 848:Generated_Source\PSoC4/cy_em_eeprom.c ****                             uint32 * rowToWrPtr,
 849:Generated_Source\PSoC4/cy_em_eeprom.c ****                             uint32 * rowToRdPtr,
 850:Generated_Source\PSoC4/cy_em_eeprom.c ****                             cy_stc_eeprom_context_t * context)
 851:Generated_Source\PSoC4/cy_em_eeprom.c **** {
 146              		.loc 1 851 0
 147              		.cfi_startproc
 148              		@ args = 0, pretend = 0, frame = 0
 149              		@ frame_needed = 0, uses_anonymous_args = 0
 150              	.LVL19:
 151 0000 30B5     		push	{r4, r5, lr}
 152              		.cfi_def_cfa_offset 12
 153              		.cfi_offset 4, -12
 154              		.cfi_offset 5, -8
 155              		.cfi_offset 14, -4
 852:Generated_Source\PSoC4/cy_em_eeprom.c ****     /* Switch to the next row to be written if the current sequence number is
 853:Generated_Source\PSoC4/cy_em_eeprom.c ****     * not zero.
 854:Generated_Source\PSoC4/cy_em_eeprom.c ****     */
 855:Generated_Source\PSoC4/cy_em_eeprom.c ****     if(0u != seqNum)
 156              		.loc 1 855 0
 157 0002 0028     		cmp	r0, #0
 158 0004 03D0     		beq	.L11
 856:Generated_Source\PSoC4/cy_em_eeprom.c ****     {
 857:Generated_Source\PSoC4/cy_em_eeprom.c ****         *rowToWrPtr = (*rowToWrPtr + CY_EM_EEPROM_FLASH_SIZEOF_ROW);
 159              		.loc 1 857 0
 160 0006 0C68     		ldr	r4, [r1]
 161 0008 0134     		adds	r4, r4, #1
 162 000a FF34     		adds	r4, r4, #255
 163 000c 0C60     		str	r4, [r1]
 164              	.L11:
ARM GAS  C:\Users\ORA\AppData\Local\Temp\ccF8tT21.s 			page 19


 858:Generated_Source\PSoC4/cy_em_eeprom.c ****     }
 859:Generated_Source\PSoC4/cy_em_eeprom.c **** 
 860:Generated_Source\PSoC4/cy_em_eeprom.c ****     /* If the resulting row address is out of EEPROM, then switch to the base
 861:Generated_Source\PSoC4/cy_em_eeprom.c ****     * EEPROM address (Row#0).
 862:Generated_Source\PSoC4/cy_em_eeprom.c ****     */
 863:Generated_Source\PSoC4/cy_em_eeprom.c ****     if(CY_EM_EEPROM_ADDR_IN_RANGE !=
 165              		.loc 1 863 0
 166 000e 0C68     		ldr	r4, [r1]
 167 0010 1D68     		ldr	r5, [r3]
 168 0012 AC42     		cmp	r4, r5
 169 0014 01D3     		bcc	.L12
 864:Generated_Source\PSoC4/cy_em_eeprom.c ****             CY_EM_EEPROM_IS_ADDR_EXCEED_RANGE(*rowToWrPtr, context->wlEndAddr))
 865:Generated_Source\PSoC4/cy_em_eeprom.c ****     {
 866:Generated_Source\PSoC4/cy_em_eeprom.c ****         *rowToWrPtr = context->userFlashStartAddr;
 170              		.loc 1 866 0
 171 0016 9C69     		ldr	r4, [r3, #24]
 172 0018 0C60     		str	r4, [r1]
 173              	.L12:
 867:Generated_Source\PSoC4/cy_em_eeprom.c ****     }
 868:Generated_Source\PSoC4/cy_em_eeprom.c **** 
 869:Generated_Source\PSoC4/cy_em_eeprom.c ****     *rowToRdPtr = 0u;
 174              		.loc 1 869 0
 175 001a 0024     		movs	r4, #0
 176 001c 1460     		str	r4, [r2]
 870:Generated_Source\PSoC4/cy_em_eeprom.c **** 
 871:Generated_Source\PSoC4/cy_em_eeprom.c ****     /* Check if the sequence number is larger than the number of rows in the EEPROM.
 872:Generated_Source\PSoC4/cy_em_eeprom.c ****     * If not, do not update the row read address because there is no historic
 873:Generated_Source\PSoC4/cy_em_eeprom.c ****     * data to be read.
 874:Generated_Source\PSoC4/cy_em_eeprom.c ****     */
 875:Generated_Source\PSoC4/cy_em_eeprom.c ****     if(context->numberOfRows <= seqNum)
 177              		.loc 1 875 0
 178 001e 5C68     		ldr	r4, [r3, #4]
 179 0020 A042     		cmp	r0, r4
 180 0022 16D3     		bcc	.L10
 876:Generated_Source\PSoC4/cy_em_eeprom.c ****     {
 877:Generated_Source\PSoC4/cy_em_eeprom.c ****         /* Check if wear leveling is used in EEPROM */
 878:Generated_Source\PSoC4/cy_em_eeprom.c ****         if(context->wearLevelingFactor > 1u)
 181              		.loc 1 878 0
 182 0024 1D69     		ldr	r5, [r3, #16]
 183 0026 012D     		cmp	r5, #1
 184 0028 11D9     		bls	.L14
 879:Generated_Source\PSoC4/cy_em_eeprom.c ****         {
 880:Generated_Source\PSoC4/cy_em_eeprom.c ****             /* The read row address should be taken from an EEPROM copy that became
 881:Generated_Source\PSoC4/cy_em_eeprom.c ****             * inactive recently. This condition check handles that.
 882:Generated_Source\PSoC4/cy_em_eeprom.c ****             */
 883:Generated_Source\PSoC4/cy_em_eeprom.c ****             if((*rowToWrPtr - (context->numberOfRows * CY_EM_EEPROM_FLASH_SIZEOF_ROW)) <
 185              		.loc 1 883 0
 186 002a 0868     		ldr	r0, [r1]
 187              	.LVL20:
 188 002c 2102     		lsls	r1, r4, #8
 189              	.LVL21:
 190 002e 411A     		subs	r1, r0, r1
 884:Generated_Source\PSoC4/cy_em_eeprom.c ****                 context->userFlashStartAddr)
 191              		.loc 1 884 0
 192 0030 9B69     		ldr	r3, [r3, #24]
 193              	.LVL22:
 883:Generated_Source\PSoC4/cy_em_eeprom.c ****                 context->userFlashStartAddr)
ARM GAS  C:\Users\ORA\AppData\Local\Temp\ccF8tT21.s 			page 20


 194              		.loc 1 883 0
 195 0032 9942     		cmp	r1, r3
 196 0034 09D2     		bcs	.L15
 885:Generated_Source\PSoC4/cy_em_eeprom.c ****             {
 886:Generated_Source\PSoC4/cy_em_eeprom.c ****                 *rowToRdPtr = context->userFlashStartAddr +
 887:Generated_Source\PSoC4/cy_em_eeprom.c ****                     (context->numberOfRows * (context->wearLevelingFactor - 1u) *
 197              		.loc 1 887 0
 198 0036 0749     		ldr	r1, .L16
 199 0038 8C46     		mov	ip, r1
 200 003a 6544     		add	r5, r5, ip
 201 003c 6C43     		muls	r4, r5
 202 003e 2402     		lsls	r4, r4, #8
 886:Generated_Source\PSoC4/cy_em_eeprom.c ****                     (context->numberOfRows * (context->wearLevelingFactor - 1u) *
 203              		.loc 1 886 0
 204 0040 1C19     		adds	r4, r3, r4
 888:Generated_Source\PSoC4/cy_em_eeprom.c ****                         CY_EM_EEPROM_FLASH_SIZEOF_ROW) + (*rowToWrPtr - context->userFlashStartAddr
 205              		.loc 1 888 0
 206 0042 C01A     		subs	r0, r0, r3
 207 0044 2418     		adds	r4, r4, r0
 886:Generated_Source\PSoC4/cy_em_eeprom.c ****                     (context->numberOfRows * (context->wearLevelingFactor - 1u) *
 208              		.loc 1 886 0
 209 0046 1460     		str	r4, [r2]
 210 0048 03E0     		b	.L10
 211              	.L15:
 889:Generated_Source\PSoC4/cy_em_eeprom.c ****             }
 890:Generated_Source\PSoC4/cy_em_eeprom.c ****             else
 891:Generated_Source\PSoC4/cy_em_eeprom.c ****             {
 892:Generated_Source\PSoC4/cy_em_eeprom.c ****                 *rowToRdPtr = *rowToWrPtr - (context->numberOfRows * CY_EM_EEPROM_FLASH_SIZEOF_ROW)
 212              		.loc 1 892 0
 213 004a 1160     		str	r1, [r2]
 214 004c 01E0     		b	.L10
 215              	.LVL23:
 216              	.L14:
 893:Generated_Source\PSoC4/cy_em_eeprom.c ****             }
 894:Generated_Source\PSoC4/cy_em_eeprom.c ****         }
 895:Generated_Source\PSoC4/cy_em_eeprom.c ****         else
 896:Generated_Source\PSoC4/cy_em_eeprom.c ****         {
 897:Generated_Source\PSoC4/cy_em_eeprom.c ****             /* If no wear leveling, always read from the same flash row that
 898:Generated_Source\PSoC4/cy_em_eeprom.c ****             * should be written.
 899:Generated_Source\PSoC4/cy_em_eeprom.c ****             */
 900:Generated_Source\PSoC4/cy_em_eeprom.c ****             *rowToRdPtr = *rowToWrPtr;
 217              		.loc 1 900 0
 218 004e 0B68     		ldr	r3, [r1]
 219              	.LVL24:
 220 0050 1360     		str	r3, [r2]
 221              	.LVL25:
 222              	.L10:
 901:Generated_Source\PSoC4/cy_em_eeprom.c ****         }
 902:Generated_Source\PSoC4/cy_em_eeprom.c ****     }
 903:Generated_Source\PSoC4/cy_em_eeprom.c **** }
 223              		.loc 1 903 0
 224              		@ sp needed
 225 0052 30BD     		pop	{r4, r5, pc}
 226              	.L17:
 227              		.align	2
 228              	.L16:
 229 0054 FFFFFF00 		.word	16777215
ARM GAS  C:\Users\ORA\AppData\Local\Temp\ccF8tT21.s 			page 21


 230              		.cfi_endproc
 231              	.LFE9:
 232              		.size	GetNextRowToWrite, .-GetNextRowToWrite
 233              		.section	.text.CalcChecksum,"ax",%progbits
 234              		.align	2
 235              		.code	16
 236              		.thumb_func
 237              		.type	CalcChecksum, %function
 238              	CalcChecksum:
 239              	.LFB10:
 904:Generated_Source\PSoC4/cy_em_eeprom.c **** 
 905:Generated_Source\PSoC4/cy_em_eeprom.c **** 
 906:Generated_Source\PSoC4/cy_em_eeprom.c **** /*******************************************************************************
 907:Generated_Source\PSoC4/cy_em_eeprom.c **** * Function Name: CalcChecksum
 908:Generated_Source\PSoC4/cy_em_eeprom.c **** ****************************************************************************//**
 909:Generated_Source\PSoC4/cy_em_eeprom.c **** *
 910:Generated_Source\PSoC4/cy_em_eeprom.c **** * Implements CRC-8 that is used in checksum calculation for the redundant copy
 911:Generated_Source\PSoC4/cy_em_eeprom.c **** * algorithm.
 912:Generated_Source\PSoC4/cy_em_eeprom.c **** *
 913:Generated_Source\PSoC4/cy_em_eeprom.c **** * \param rowData
 914:Generated_Source\PSoC4/cy_em_eeprom.c **** * The row data to be used to calculate the checksum.
 915:Generated_Source\PSoC4/cy_em_eeprom.c **** *
 916:Generated_Source\PSoC4/cy_em_eeprom.c **** * \param len
 917:Generated_Source\PSoC4/cy_em_eeprom.c **** * The length of rowData.
 918:Generated_Source\PSoC4/cy_em_eeprom.c **** *
 919:Generated_Source\PSoC4/cy_em_eeprom.c **** * \return
 920:Generated_Source\PSoC4/cy_em_eeprom.c **** * The calculated value of CRC-8.
 921:Generated_Source\PSoC4/cy_em_eeprom.c **** *
 922:Generated_Source\PSoC4/cy_em_eeprom.c **** *******************************************************************************/
 923:Generated_Source\PSoC4/cy_em_eeprom.c **** static uint8 CalcChecksum(uint8 rowData[], uint32 len)
 924:Generated_Source\PSoC4/cy_em_eeprom.c **** {
 240              		.loc 1 924 0
 241              		.cfi_startproc
 242              		@ args = 0, pretend = 0, frame = 0
 243              		@ frame_needed = 0, uses_anonymous_args = 0
 244              	.LVL26:
 245 0000 30B5     		push	{r4, r5, lr}
 246              		.cfi_def_cfa_offset 12
 247              		.cfi_offset 4, -12
 248              		.cfi_offset 5, -8
 249              		.cfi_offset 14, -4
 250 0002 0500     		movs	r5, r0
 251              	.LVL27:
 925:Generated_Source\PSoC4/cy_em_eeprom.c ****     uint8 crc = CY_EM_EEPROM_CRC8_SEED;
 926:Generated_Source\PSoC4/cy_em_eeprom.c ****     uint8 i;
 927:Generated_Source\PSoC4/cy_em_eeprom.c ****     uint16 cnt = 0u;
 252              		.loc 1 927 0
 253 0004 0024     		movs	r4, #0
 925:Generated_Source\PSoC4/cy_em_eeprom.c ****     uint8 crc = CY_EM_EEPROM_CRC8_SEED;
 254              		.loc 1 925 0
 255 0006 FF20     		movs	r0, #255
 256              	.LVL28:
 928:Generated_Source\PSoC4/cy_em_eeprom.c **** 
 929:Generated_Source\PSoC4/cy_em_eeprom.c ****     while(cnt != len)
 257              		.loc 1 929 0
 258 0008 14E0     		b	.L19
 259              	.LVL29:
ARM GAS  C:\Users\ORA\AppData\Local\Temp\ccF8tT21.s 			page 22


 260              	.L24:
 930:Generated_Source\PSoC4/cy_em_eeprom.c ****     {
 931:Generated_Source\PSoC4/cy_em_eeprom.c ****         crc ^= rowData[cnt];
 261              		.loc 1 931 0
 262 000a 2B5D     		ldrb	r3, [r5, r4]
 263 000c 5840     		eors	r0, r3
 264              	.LVL30:
 932:Generated_Source\PSoC4/cy_em_eeprom.c ****         for (i = 0u; i < CY_EM_EEPROM_CRC8_POLYNOM_LEN; i++)
 265              		.loc 1 932 0
 266 000e 0022     		movs	r2, #0
 267 0010 0CE0     		b	.L20
 268              	.LVL31:
 269              	.L23:
 933:Generated_Source\PSoC4/cy_em_eeprom.c ****         {
 934:Generated_Source\PSoC4/cy_em_eeprom.c ****             crc = CY_EM_EEPROM_CALCULATE_CRC8(crc);
 270              		.loc 1 934 0
 271 0012 43B2     		sxtb	r3, r0
 272 0014 002B     		cmp	r3, #0
 273 0016 05DA     		bge	.L21
 274              		.loc 1 934 0 is_stmt 0 discriminator 1
 275 0018 4000     		lsls	r0, r0, #1
 276              	.LVL32:
 277 001a C3B2     		uxtb	r3, r0
 278              	.LVL33:
 279 001c 3120     		movs	r0, #49
 280 001e 4340     		eors	r3, r0
 281 0020 D8B2     		uxtb	r0, r3
 282 0022 01E0     		b	.L22
 283              	.LVL34:
 284              	.L21:
 285              		.loc 1 934 0 discriminator 2
 286 0024 4000     		lsls	r0, r0, #1
 287              	.LVL35:
 288 0026 C0B2     		uxtb	r0, r0
 289              	.LVL36:
 290              	.L22:
 932:Generated_Source\PSoC4/cy_em_eeprom.c ****         for (i = 0u; i < CY_EM_EEPROM_CRC8_POLYNOM_LEN; i++)
 291              		.loc 1 932 0 is_stmt 1 discriminator 4
 292 0028 0132     		adds	r2, r2, #1
 293              	.LVL37:
 294 002a D2B2     		uxtb	r2, r2
 295              	.LVL38:
 296              	.L20:
 932:Generated_Source\PSoC4/cy_em_eeprom.c ****         for (i = 0u; i < CY_EM_EEPROM_CRC8_POLYNOM_LEN; i++)
 297              		.loc 1 932 0 is_stmt 0 discriminator 2
 298 002c 072A     		cmp	r2, #7
 299 002e F0D9     		bls	.L23
 935:Generated_Source\PSoC4/cy_em_eeprom.c ****         }
 936:Generated_Source\PSoC4/cy_em_eeprom.c ****         cnt++;
 300              		.loc 1 936 0 is_stmt 1
 301 0030 0134     		adds	r4, r4, #1
 302              	.LVL39:
 303 0032 A4B2     		uxth	r4, r4
 304              	.LVL40:
 305              	.L19:
 929:Generated_Source\PSoC4/cy_em_eeprom.c ****     {
 306              		.loc 1 929 0
ARM GAS  C:\Users\ORA\AppData\Local\Temp\ccF8tT21.s 			page 23


 307 0034 8C42     		cmp	r4, r1
 308 0036 E8D1     		bne	.L24
 937:Generated_Source\PSoC4/cy_em_eeprom.c ****     }
 938:Generated_Source\PSoC4/cy_em_eeprom.c **** 
 939:Generated_Source\PSoC4/cy_em_eeprom.c ****     return (crc);
 940:Generated_Source\PSoC4/cy_em_eeprom.c **** }
 309              		.loc 1 940 0
 310              		@ sp needed
 311              	.LVL41:
 312              	.LVL42:
 313 0038 30BD     		pop	{r4, r5, pc}
 314              		.cfi_endproc
 315              	.LFE10:
 316              		.size	CalcChecksum, .-CalcChecksum
 317 003a C046     		.section	.text.CheckRanges,"ax",%progbits
 318              		.align	2
 319              		.code	16
 320              		.thumb_func
 321              		.type	CheckRanges, %function
 322              	CheckRanges:
 323              	.LFB11:
 941:Generated_Source\PSoC4/cy_em_eeprom.c **** 
 942:Generated_Source\PSoC4/cy_em_eeprom.c **** 
 943:Generated_Source\PSoC4/cy_em_eeprom.c **** /*******************************************************************************
 944:Generated_Source\PSoC4/cy_em_eeprom.c **** * Function Name: CheckRanges
 945:Generated_Source\PSoC4/cy_em_eeprom.c **** ****************************************************************************//**
 946:Generated_Source\PSoC4/cy_em_eeprom.c **** *
 947:Generated_Source\PSoC4/cy_em_eeprom.c **** * Checks if the EEPROM of the requested size can be placed in flash.
 948:Generated_Source\PSoC4/cy_em_eeprom.c **** *
 949:Generated_Source\PSoC4/cy_em_eeprom.c **** * \param config
 950:Generated_Source\PSoC4/cy_em_eeprom.c **** * The pointer to a configuration structure. See \ref cy_stc_eeprom_config_t.
 951:Generated_Source\PSoC4/cy_em_eeprom.c **** *
 952:Generated_Source\PSoC4/cy_em_eeprom.c **** * \return
 953:Generated_Source\PSoC4/cy_em_eeprom.c **** * error / status code. See \ref cy_en_em_eeprom_status_t.
 954:Generated_Source\PSoC4/cy_em_eeprom.c **** *
 955:Generated_Source\PSoC4/cy_em_eeprom.c **** *******************************************************************************/
 956:Generated_Source\PSoC4/cy_em_eeprom.c **** static cy_en_em_eeprom_status_t CheckRanges(cy_stc_eeprom_config_t* config)
 957:Generated_Source\PSoC4/cy_em_eeprom.c **** {
 324              		.loc 1 957 0
 325              		.cfi_startproc
 326              		@ args = 0, pretend = 0, frame = 0
 327              		@ frame_needed = 0, uses_anonymous_args = 0
 328              	.LVL43:
 329 0000 10B5     		push	{r4, lr}
 330              		.cfi_def_cfa_offset 8
 331              		.cfi_offset 4, -8
 332              		.cfi_offset 14, -4
 333              	.LVL44:
 958:Generated_Source\PSoC4/cy_em_eeprom.c ****     cy_en_em_eeprom_status_t ret = CY_EM_EEPROM_BAD_DATA;
 959:Generated_Source\PSoC4/cy_em_eeprom.c ****     uint32 startAddr = config->userFlashStartAddr;
 334              		.loc 1 959 0
 335 0002 C468     		ldr	r4, [r0, #12]
 336              	.LVL45:
 960:Generated_Source\PSoC4/cy_em_eeprom.c ****     uint32 endAddr = startAddr + CY_EM_EEPROM_GET_PHYSICAL_SIZE(config->eepromSize,
 337              		.loc 1 960 0
 338 0004 0268     		ldr	r2, [r0]
 339 0006 D109     		lsrs	r1, r2, #7
ARM GAS  C:\Users\ORA\AppData\Local\Temp\ccF8tT21.s 			page 24


 340 0008 7F23     		movs	r3, #127
 341 000a 1340     		ands	r3, r2
 342 000c 00D0     		beq	.L26
 343 000e 0123     		movs	r3, #1
 344              	.L26:
 345              		.loc 1 960 0 is_stmt 0 discriminator 4
 346 0010 5B18     		adds	r3, r3, r1
 347 0012 4268     		ldr	r2, [r0, #4]
 348 0014 5343     		muls	r3, r2
 349 0016 027A     		ldrb	r2, [r0, #8]
 350 0018 0132     		adds	r2, r2, #1
 351 001a 5343     		muls	r3, r2
 352 001c 1B02     		lsls	r3, r3, #8
 353 001e E318     		adds	r3, r4, r3
 354              	.LVL46:
 961:Generated_Source\PSoC4/cy_em_eeprom.c ****             config->wearLevelingFactor, config->redundantCopy);
 962:Generated_Source\PSoC4/cy_em_eeprom.c **** 
 963:Generated_Source\PSoC4/cy_em_eeprom.c ****     /* Range check if there is enough flash for EEPROM */
 964:Generated_Source\PSoC4/cy_em_eeprom.c ****     if (CY_EM_EEPROM_IS_IN_FLASH_RANGE(startAddr, endAddr))
 355              		.loc 1 964 0 is_stmt 1 discriminator 4
 356 0020 002C     		cmp	r4, #0
 357 0022 05D0     		beq	.L28
 358              		.loc 1 964 0 is_stmt 0 discriminator 1
 359 0024 8022     		movs	r2, #128
 360 0026 D202     		lsls	r2, r2, #11
 361 0028 9342     		cmp	r3, r2
 362 002a 03D9     		bls	.L29
 958:Generated_Source\PSoC4/cy_em_eeprom.c ****     uint32 startAddr = config->userFlashStartAddr;
 363              		.loc 1 958 0 is_stmt 1
 364 002c 0320     		movs	r0, #3
 365              	.LVL47:
 366 002e 02E0     		b	.L27
 367              	.LVL48:
 368              	.L28:
 369 0030 0320     		movs	r0, #3
 370              	.LVL49:
 371 0032 00E0     		b	.L27
 372              	.LVL50:
 373              	.L29:
 965:Generated_Source\PSoC4/cy_em_eeprom.c ****     {
 966:Generated_Source\PSoC4/cy_em_eeprom.c ****         ret = CY_EM_EEPROM_SUCCESS;
 374              		.loc 1 966 0
 375 0034 0020     		movs	r0, #0
 376              	.LVL51:
 377              	.L27:
 967:Generated_Source\PSoC4/cy_em_eeprom.c ****     }
 968:Generated_Source\PSoC4/cy_em_eeprom.c ****     return (ret);
 969:Generated_Source\PSoC4/cy_em_eeprom.c **** }
 378              		.loc 1 969 0
 379              		@ sp needed
 380              	.LVL52:
 381 0036 10BD     		pop	{r4, pc}
 382              		.cfi_endproc
 383              	.LFE11:
 384              		.size	CheckRanges, .-CheckRanges
 385              		.section	.text.GetAddresses,"ax",%progbits
 386              		.align	2
ARM GAS  C:\Users\ORA\AppData\Local\Temp\ccF8tT21.s 			page 25


 387              		.code	16
 388              		.thumb_func
 389              		.type	GetAddresses, %function
 390              	GetAddresses:
 391              	.LFB15:
 970:Generated_Source\PSoC4/cy_em_eeprom.c **** 
 971:Generated_Source\PSoC4/cy_em_eeprom.c **** 
 972:Generated_Source\PSoC4/cy_em_eeprom.c **** /*******************************************************************************
 973:Generated_Source\PSoC4/cy_em_eeprom.c **** * Function Name: WriteRow
 974:Generated_Source\PSoC4/cy_em_eeprom.c **** ****************************************************************************//**
 975:Generated_Source\PSoC4/cy_em_eeprom.c **** *
 976:Generated_Source\PSoC4/cy_em_eeprom.c **** * Writes one flash row starting from the specified row address.
 977:Generated_Source\PSoC4/cy_em_eeprom.c **** *
 978:Generated_Source\PSoC4/cy_em_eeprom.c **** * \param rowAdd
 979:Generated_Source\PSoC4/cy_em_eeprom.c **** * The address of the flash row.
 980:Generated_Source\PSoC4/cy_em_eeprom.c **** *
 981:Generated_Source\PSoC4/cy_em_eeprom.c **** * \param rowData
 982:Generated_Source\PSoC4/cy_em_eeprom.c **** * The pointer to the data to be written to the row.
 983:Generated_Source\PSoC4/cy_em_eeprom.c **** *
 984:Generated_Source\PSoC4/cy_em_eeprom.c **** * \param context
 985:Generated_Source\PSoC4/cy_em_eeprom.c **** * The pointer to the EEPROM context structure \ref cy_stc_eeprom_context_t.
 986:Generated_Source\PSoC4/cy_em_eeprom.c **** *
 987:Generated_Source\PSoC4/cy_em_eeprom.c **** * \return
 988:Generated_Source\PSoC4/cy_em_eeprom.c **** * error / status code. See \ref cy_en_em_eeprom_status_t.
 989:Generated_Source\PSoC4/cy_em_eeprom.c **** *
 990:Generated_Source\PSoC4/cy_em_eeprom.c **** *******************************************************************************/
 991:Generated_Source\PSoC4/cy_em_eeprom.c **** static cy_en_em_eeprom_status_t WriteRow(uint32 rowAddr,
 992:Generated_Source\PSoC4/cy_em_eeprom.c ****                                         uint32 *rowData,
 993:Generated_Source\PSoC4/cy_em_eeprom.c ****                                         cy_stc_eeprom_context_t * context)
 994:Generated_Source\PSoC4/cy_em_eeprom.c **** {
 995:Generated_Source\PSoC4/cy_em_eeprom.c ****     cy_en_em_eeprom_status_t ret = CY_EM_EEPROM_WRITE_FAIL;
 996:Generated_Source\PSoC4/cy_em_eeprom.c **** #if (!CY_PSOC6)
 997:Generated_Source\PSoC4/cy_em_eeprom.c ****     cystatus rc;
 998:Generated_Source\PSoC4/cy_em_eeprom.c ****     #if ((CY_PSOC3) || (CY_PSOC5))
 999:Generated_Source\PSoC4/cy_em_eeprom.c ****         uint32 arrayId;
1000:Generated_Source\PSoC4/cy_em_eeprom.c ****         uint32 rowId;
1001:Generated_Source\PSoC4/cy_em_eeprom.c ****     #else
1002:Generated_Source\PSoC4/cy_em_eeprom.c ****         uint32 rowNum;
1003:Generated_Source\PSoC4/cy_em_eeprom.c ****     #endif /* (CY_PSOC3) */
1004:Generated_Source\PSoC4/cy_em_eeprom.c ****     
1005:Generated_Source\PSoC4/cy_em_eeprom.c ****     #if (CY_PSOC3)
1006:Generated_Source\PSoC4/cy_em_eeprom.c ****         rowAddr &= CY_EM_EEPROM_CODE_ADDR_MASK;
1007:Generated_Source\PSoC4/cy_em_eeprom.c ****         context = context;      /* To avoid compiler warning generation */
1008:Generated_Source\PSoC4/cy_em_eeprom.c ****     #else
1009:Generated_Source\PSoC4/cy_em_eeprom.c ****         (void)context;          /* To avoid compiler warning generation */
1010:Generated_Source\PSoC4/cy_em_eeprom.c ****     #endif /* ((CY_PSOC3) */
1011:Generated_Source\PSoC4/cy_em_eeprom.c ****     
1012:Generated_Source\PSoC4/cy_em_eeprom.c ****     /* Write the flash row */
1013:Generated_Source\PSoC4/cy_em_eeprom.c ****     #if (CY_PSOC4)
1014:Generated_Source\PSoC4/cy_em_eeprom.c ****         /* For PSoC 4 devices, the array ID is included in the row number */
1015:Generated_Source\PSoC4/cy_em_eeprom.c ****         rowNum = rowAddr / CY_EM_EEPROM_FLASH_SIZEOF_ROW;
1016:Generated_Source\PSoC4/cy_em_eeprom.c ****         
1017:Generated_Source\PSoC4/cy_em_eeprom.c ****         rc = CySysFlashWriteRow(rowNum, (uint8 *)rowData);
1018:Generated_Source\PSoC4/cy_em_eeprom.c ****     #else
1019:Generated_Source\PSoC4/cy_em_eeprom.c ****         /* For PSoC 3/5 devices, the array ID and row ID needed to write the row */
1020:Generated_Source\PSoC4/cy_em_eeprom.c ****         rowId = (rowAddr / CY_EM_EEPROM_FLASH_SIZEOF_ROW) % CY_EM_EEPROM_ROWS_IN_ARRAY;
1021:Generated_Source\PSoC4/cy_em_eeprom.c ****         
ARM GAS  C:\Users\ORA\AppData\Local\Temp\ccF8tT21.s 			page 26


1022:Generated_Source\PSoC4/cy_em_eeprom.c ****         #ifndef CY_EM_EEPROM_SKIP_TEMP_MEASUREMENT
1023:Generated_Source\PSoC4/cy_em_eeprom.c ****             (void)CySetTemp();
1024:Generated_Source\PSoC4/cy_em_eeprom.c ****         #endif /* (CY_EM_EEPROM_SKIP_TEMP_MEASUREMENT) */
1025:Generated_Source\PSoC4/cy_em_eeprom.c **** 
1026:Generated_Source\PSoC4/cy_em_eeprom.c ****         arrayId = rowAddr / CY_FLASH_SIZEOF_ARRAY;
1027:Generated_Source\PSoC4/cy_em_eeprom.c ****         rc = CyWriteRowData((uint8)arrayId, (uint16)rowId, (uint8 *)rowData);
1028:Generated_Source\PSoC4/cy_em_eeprom.c ****         
1029:Generated_Source\PSoC4/cy_em_eeprom.c ****         #if (CY_PSOC5)
1030:Generated_Source\PSoC4/cy_em_eeprom.c ****             CyFlushCache();
1031:Generated_Source\PSoC4/cy_em_eeprom.c ****         #endif /* (CY_PSOC5) */
1032:Generated_Source\PSoC4/cy_em_eeprom.c ****     #endif /* (CY_PSOC4) */
1033:Generated_Source\PSoC4/cy_em_eeprom.c **** 
1034:Generated_Source\PSoC4/cy_em_eeprom.c ****     if(CYRET_SUCCESS == rc)
1035:Generated_Source\PSoC4/cy_em_eeprom.c ****     {
1036:Generated_Source\PSoC4/cy_em_eeprom.c ****         ret = CY_EM_EEPROM_SUCCESS;
1037:Generated_Source\PSoC4/cy_em_eeprom.c ****     }
1038:Generated_Source\PSoC4/cy_em_eeprom.c **** #else /* PSoC 6 */
1039:Generated_Source\PSoC4/cy_em_eeprom.c ****     if(0u != context->blockingWrite)
1040:Generated_Source\PSoC4/cy_em_eeprom.c ****     {
1041:Generated_Source\PSoC4/cy_em_eeprom.c ****         /* Do blocking write */
1042:Generated_Source\PSoC4/cy_em_eeprom.c ****         if(CY_FLASH_DRV_SUCCESS == Cy_Flash_WriteRow(rowAddr, (const uint32 *)rowData))
1043:Generated_Source\PSoC4/cy_em_eeprom.c ****         {
1044:Generated_Source\PSoC4/cy_em_eeprom.c ****             ret = CY_EM_EEPROM_SUCCESS;
1045:Generated_Source\PSoC4/cy_em_eeprom.c ****         }
1046:Generated_Source\PSoC4/cy_em_eeprom.c ****     }
1047:Generated_Source\PSoC4/cy_em_eeprom.c ****     else
1048:Generated_Source\PSoC4/cy_em_eeprom.c ****     {
1049:Generated_Source\PSoC4/cy_em_eeprom.c ****         /* Initiate write */
1050:Generated_Source\PSoC4/cy_em_eeprom.c ****         if(CY_FLASH_DRV_OPERATION_STARTED == Cy_Flash_StartWrite(rowAddr, (const uint32 *)rowData))
1051:Generated_Source\PSoC4/cy_em_eeprom.c ****         {
1052:Generated_Source\PSoC4/cy_em_eeprom.c ****             uint32 countMs = CY_EM_EEPROM_MAX_WRITE_DURATION_MS;
1053:Generated_Source\PSoC4/cy_em_eeprom.c ****             cy_en_flashdrv_status_t rc;
1054:Generated_Source\PSoC4/cy_em_eeprom.c **** 
1055:Generated_Source\PSoC4/cy_em_eeprom.c ****             do
1056:Generated_Source\PSoC4/cy_em_eeprom.c ****             {
1057:Generated_Source\PSoC4/cy_em_eeprom.c ****                 CyDelay(1u);                         /* Wait 1ms */
1058:Generated_Source\PSoC4/cy_em_eeprom.c ****                 rc = Cy_Flash_IsWriteComplete();     /* Check if write completed */
1059:Generated_Source\PSoC4/cy_em_eeprom.c ****                 countMs--;
1060:Generated_Source\PSoC4/cy_em_eeprom.c ****             }
1061:Generated_Source\PSoC4/cy_em_eeprom.c ****             while ((rc == CY_FLASH_DRV_OPCODE_BUSY) && (0u != countMs));
1062:Generated_Source\PSoC4/cy_em_eeprom.c **** 
1063:Generated_Source\PSoC4/cy_em_eeprom.c ****             if(CY_FLASH_DRV_SUCCESS == rc)
1064:Generated_Source\PSoC4/cy_em_eeprom.c ****             {
1065:Generated_Source\PSoC4/cy_em_eeprom.c ****                 ret = CY_EM_EEPROM_SUCCESS;
1066:Generated_Source\PSoC4/cy_em_eeprom.c ****             }
1067:Generated_Source\PSoC4/cy_em_eeprom.c ****         }
1068:Generated_Source\PSoC4/cy_em_eeprom.c ****     }
1069:Generated_Source\PSoC4/cy_em_eeprom.c **** #endif /* (CY_PSOC6) */
1070:Generated_Source\PSoC4/cy_em_eeprom.c **** 
1071:Generated_Source\PSoC4/cy_em_eeprom.c ****     return (ret);
1072:Generated_Source\PSoC4/cy_em_eeprom.c **** }
1073:Generated_Source\PSoC4/cy_em_eeprom.c **** 
1074:Generated_Source\PSoC4/cy_em_eeprom.c **** 
1075:Generated_Source\PSoC4/cy_em_eeprom.c **** /*******************************************************************************
1076:Generated_Source\PSoC4/cy_em_eeprom.c **** * Function Name: EraseRow
1077:Generated_Source\PSoC4/cy_em_eeprom.c **** ****************************************************************************//**
1078:Generated_Source\PSoC4/cy_em_eeprom.c **** *
ARM GAS  C:\Users\ORA\AppData\Local\Temp\ccF8tT21.s 			page 27


1079:Generated_Source\PSoC4/cy_em_eeprom.c **** * Erases one flash row starting from the specified row address. If the redundant
1080:Generated_Source\PSoC4/cy_em_eeprom.c **** * copy option is enabled the corresponding row in the redundant copy will also
1081:Generated_Source\PSoC4/cy_em_eeprom.c **** * be erased.
1082:Generated_Source\PSoC4/cy_em_eeprom.c **** *
1083:Generated_Source\PSoC4/cy_em_eeprom.c **** * \param rowAdd
1084:Generated_Source\PSoC4/cy_em_eeprom.c **** * The address of the flash row.
1085:Generated_Source\PSoC4/cy_em_eeprom.c **** *
1086:Generated_Source\PSoC4/cy_em_eeprom.c **** * \param ramBuffAddr
1087:Generated_Source\PSoC4/cy_em_eeprom.c **** * The address of the RAM buffer that contains zeroed data (used only for
1088:Generated_Source\PSoC4/cy_em_eeprom.c **** * non-PSoC 6 devices).
1089:Generated_Source\PSoC4/cy_em_eeprom.c **** *
1090:Generated_Source\PSoC4/cy_em_eeprom.c **** * \param context
1091:Generated_Source\PSoC4/cy_em_eeprom.c **** * The pointer to the EEPROM context structure \ref cy_stc_eeprom_context_t.
1092:Generated_Source\PSoC4/cy_em_eeprom.c **** *
1093:Generated_Source\PSoC4/cy_em_eeprom.c **** * \return
1094:Generated_Source\PSoC4/cy_em_eeprom.c **** * error / status code. See \ref cy_en_em_eeprom_status_t.
1095:Generated_Source\PSoC4/cy_em_eeprom.c **** *
1096:Generated_Source\PSoC4/cy_em_eeprom.c **** *******************************************************************************/
1097:Generated_Source\PSoC4/cy_em_eeprom.c **** static cy_en_em_eeprom_status_t EraseRow(uint32 rowAddr,
1098:Generated_Source\PSoC4/cy_em_eeprom.c ****                                         uint32 ramBuffAddr,
1099:Generated_Source\PSoC4/cy_em_eeprom.c ****                                         cy_stc_eeprom_context_t * context)
1100:Generated_Source\PSoC4/cy_em_eeprom.c **** {
1101:Generated_Source\PSoC4/cy_em_eeprom.c ****     uint32 emEepromRowAddr = rowAddr;
1102:Generated_Source\PSoC4/cy_em_eeprom.c ****     cy_en_em_eeprom_status_t ret = CY_EM_EEPROM_WRITE_FAIL;
1103:Generated_Source\PSoC4/cy_em_eeprom.c **** #if (CY_PSOC6)
1104:Generated_Source\PSoC4/cy_em_eeprom.c ****     uint32 i = 1u;
1105:Generated_Source\PSoC4/cy_em_eeprom.c **** 
1106:Generated_Source\PSoC4/cy_em_eeprom.c ****     (void)ramBuffAddr; /* To avoid compiler warning */
1107:Generated_Source\PSoC4/cy_em_eeprom.c **** 
1108:Generated_Source\PSoC4/cy_em_eeprom.c ****     if(0u != context->redundantCopy)
1109:Generated_Source\PSoC4/cy_em_eeprom.c ****     {
1110:Generated_Source\PSoC4/cy_em_eeprom.c ****         i++;
1111:Generated_Source\PSoC4/cy_em_eeprom.c ****     }
1112:Generated_Source\PSoC4/cy_em_eeprom.c **** 
1113:Generated_Source\PSoC4/cy_em_eeprom.c ****     do
1114:Generated_Source\PSoC4/cy_em_eeprom.c ****     {
1115:Generated_Source\PSoC4/cy_em_eeprom.c ****         if(0u != context->blockingWrite)
1116:Generated_Source\PSoC4/cy_em_eeprom.c ****         {
1117:Generated_Source\PSoC4/cy_em_eeprom.c ****             /* Erase the flash row */
1118:Generated_Source\PSoC4/cy_em_eeprom.c ****             if(CY_FLASH_DRV_SUCCESS == Cy_Flash_EraseRow(emEepromRowAddr))
1119:Generated_Source\PSoC4/cy_em_eeprom.c ****             {
1120:Generated_Source\PSoC4/cy_em_eeprom.c ****                 ret = CY_EM_EEPROM_SUCCESS;
1121:Generated_Source\PSoC4/cy_em_eeprom.c ****             }
1122:Generated_Source\PSoC4/cy_em_eeprom.c ****         }
1123:Generated_Source\PSoC4/cy_em_eeprom.c ****         else
1124:Generated_Source\PSoC4/cy_em_eeprom.c ****         {
1125:Generated_Source\PSoC4/cy_em_eeprom.c ****             /* Initiate erase */
1126:Generated_Source\PSoC4/cy_em_eeprom.c ****             if(CY_FLASH_DRV_OPERATION_STARTED == Cy_Flash_StartErase(emEepromRowAddr))
1127:Generated_Source\PSoC4/cy_em_eeprom.c ****             {
1128:Generated_Source\PSoC4/cy_em_eeprom.c ****                 uint32 countMs = CY_EM_EEPROM_MAX_WRITE_DURATION_MS;
1129:Generated_Source\PSoC4/cy_em_eeprom.c ****                 cy_en_flashdrv_status_t rc;
1130:Generated_Source\PSoC4/cy_em_eeprom.c **** 
1131:Generated_Source\PSoC4/cy_em_eeprom.c ****                 do
1132:Generated_Source\PSoC4/cy_em_eeprom.c ****                 {
1133:Generated_Source\PSoC4/cy_em_eeprom.c ****                     CyDelay(1u);                         /* Wait 1ms */
1134:Generated_Source\PSoC4/cy_em_eeprom.c ****                     rc = Cy_Flash_IsWriteComplete();     /* Check if erase completed */
1135:Generated_Source\PSoC4/cy_em_eeprom.c ****                     countMs--;
ARM GAS  C:\Users\ORA\AppData\Local\Temp\ccF8tT21.s 			page 28


1136:Generated_Source\PSoC4/cy_em_eeprom.c ****                 }
1137:Generated_Source\PSoC4/cy_em_eeprom.c ****                 while ((rc == CY_FLASH_DRV_OPCODE_BUSY) && (0u != countMs));
1138:Generated_Source\PSoC4/cy_em_eeprom.c **** 
1139:Generated_Source\PSoC4/cy_em_eeprom.c ****                 if(CY_FLASH_DRV_SUCCESS == rc)
1140:Generated_Source\PSoC4/cy_em_eeprom.c ****                 {
1141:Generated_Source\PSoC4/cy_em_eeprom.c ****                     ret = CY_EM_EEPROM_SUCCESS;
1142:Generated_Source\PSoC4/cy_em_eeprom.c ****                 }
1143:Generated_Source\PSoC4/cy_em_eeprom.c ****             }
1144:Generated_Source\PSoC4/cy_em_eeprom.c ****         }
1145:Generated_Source\PSoC4/cy_em_eeprom.c **** 
1146:Generated_Source\PSoC4/cy_em_eeprom.c ****         if(CY_EM_EEPROM_SUCCESS == ret)
1147:Generated_Source\PSoC4/cy_em_eeprom.c ****         {
1148:Generated_Source\PSoC4/cy_em_eeprom.c ****             /* Update the address to point to the redundant copy row */
1149:Generated_Source\PSoC4/cy_em_eeprom.c ****             emEepromRowAddr = (emEepromRowAddr - context->userFlashStartAddr) + context->wlEndAddr;
1150:Generated_Source\PSoC4/cy_em_eeprom.c ****         }
1151:Generated_Source\PSoC4/cy_em_eeprom.c ****         else
1152:Generated_Source\PSoC4/cy_em_eeprom.c ****         {
1153:Generated_Source\PSoC4/cy_em_eeprom.c ****             break;
1154:Generated_Source\PSoC4/cy_em_eeprom.c ****         }
1155:Generated_Source\PSoC4/cy_em_eeprom.c ****         i--;
1156:Generated_Source\PSoC4/cy_em_eeprom.c ****     } while (0u != i);
1157:Generated_Source\PSoC4/cy_em_eeprom.c **** #else
1158:Generated_Source\PSoC4/cy_em_eeprom.c ****     /* Write the data to the specified flash row */
1159:Generated_Source\PSoC4/cy_em_eeprom.c ****     ret = WriteRow(emEepromRowAddr, (uint32 *)ramBuffAddr, context);
1160:Generated_Source\PSoC4/cy_em_eeprom.c **** 
1161:Generated_Source\PSoC4/cy_em_eeprom.c ****     if((CY_EM_EEPROM_SUCCESS == ret) && (0u != context->redundantCopy))
1162:Generated_Source\PSoC4/cy_em_eeprom.c ****     {
1163:Generated_Source\PSoC4/cy_em_eeprom.c ****         /* Update the address to point to the redundant copy row */
1164:Generated_Source\PSoC4/cy_em_eeprom.c ****         emEepromRowAddr = (emEepromRowAddr - context->userFlashStartAddr) + context->wlEndAddr;
1165:Generated_Source\PSoC4/cy_em_eeprom.c ****         ret = WriteRow(emEepromRowAddr, (uint32 *)ramBuffAddr, context);
1166:Generated_Source\PSoC4/cy_em_eeprom.c ****     }
1167:Generated_Source\PSoC4/cy_em_eeprom.c **** 
1168:Generated_Source\PSoC4/cy_em_eeprom.c ****     if(CY_EM_EEPROM_SUCCESS == ret)
1169:Generated_Source\PSoC4/cy_em_eeprom.c ****     {
1170:Generated_Source\PSoC4/cy_em_eeprom.c ****         context->lastWrRowAddr = rowAddr;
1171:Generated_Source\PSoC4/cy_em_eeprom.c ****     }
1172:Generated_Source\PSoC4/cy_em_eeprom.c **** #endif /* (CY_PSOC6) */
1173:Generated_Source\PSoC4/cy_em_eeprom.c **** 
1174:Generated_Source\PSoC4/cy_em_eeprom.c ****     return(ret);
1175:Generated_Source\PSoC4/cy_em_eeprom.c **** }
1176:Generated_Source\PSoC4/cy_em_eeprom.c **** 
1177:Generated_Source\PSoC4/cy_em_eeprom.c **** 
1178:Generated_Source\PSoC4/cy_em_eeprom.c **** /*******************************************************************************
1179:Generated_Source\PSoC4/cy_em_eeprom.c **** * Function Name: CheckCrcAndCopy
1180:Generated_Source\PSoC4/cy_em_eeprom.c **** ****************************************************************************//**
1181:Generated_Source\PSoC4/cy_em_eeprom.c **** *
1182:Generated_Source\PSoC4/cy_em_eeprom.c **** * Checks the checksum of the specific row in EEPROM. If the CRC matches - copies
1183:Generated_Source\PSoC4/cy_em_eeprom.c **** * the data to the "datAddr" from EEPROM. f the CRC does not match checks the
1184:Generated_Source\PSoC4/cy_em_eeprom.c **** * CRC of the corresponding row in the EEPROM's redundant copy. If the CRC
1185:Generated_Source\PSoC4/cy_em_eeprom.c **** * matches - copies the data to the "datAddr" from EEPROM redundant copy. If the
1186:Generated_Source\PSoC4/cy_em_eeprom.c **** * CRC of the redundant copy does not match - returns bad checksum.
1187:Generated_Source\PSoC4/cy_em_eeprom.c **** *
1188:Generated_Source\PSoC4/cy_em_eeprom.c **** * \param startAddr
1189:Generated_Source\PSoC4/cy_em_eeprom.c **** * The address that points to the start of the specified row.
1190:Generated_Source\PSoC4/cy_em_eeprom.c **** *
1191:Generated_Source\PSoC4/cy_em_eeprom.c **** * \param datAddr
1192:Generated_Source\PSoC4/cy_em_eeprom.c **** * The start address of where the row data will be copied if the CRC check
ARM GAS  C:\Users\ORA\AppData\Local\Temp\ccF8tT21.s 			page 29


1193:Generated_Source\PSoC4/cy_em_eeprom.c **** * will succeed.
1194:Generated_Source\PSoC4/cy_em_eeprom.c **** *
1195:Generated_Source\PSoC4/cy_em_eeprom.c **** * \param rowOffset
1196:Generated_Source\PSoC4/cy_em_eeprom.c **** * The offset in the row from which the data should be copied.
1197:Generated_Source\PSoC4/cy_em_eeprom.c **** *
1198:Generated_Source\PSoC4/cy_em_eeprom.c **** * \param numBytes
1199:Generated_Source\PSoC4/cy_em_eeprom.c **** * The number of bytes to be copied.
1200:Generated_Source\PSoC4/cy_em_eeprom.c **** *
1201:Generated_Source\PSoC4/cy_em_eeprom.c **** * \param context
1202:Generated_Source\PSoC4/cy_em_eeprom.c **** * The pointer to the EEPROM context structure \ref cy_stc_eeprom_context_t.
1203:Generated_Source\PSoC4/cy_em_eeprom.c **** *
1204:Generated_Source\PSoC4/cy_em_eeprom.c **** * \return
1205:Generated_Source\PSoC4/cy_em_eeprom.c **** * error / status code. See \ref cy_en_em_eeprom_status_t.
1206:Generated_Source\PSoC4/cy_em_eeprom.c **** *
1207:Generated_Source\PSoC4/cy_em_eeprom.c **** * \note
1208:Generated_Source\PSoC4/cy_em_eeprom.c **** * This function uses a buffer of the flash row size to perform read
1209:Generated_Source\PSoC4/cy_em_eeprom.c **** * operation. For the size of the row refer to the specific PSoC device
1210:Generated_Source\PSoC4/cy_em_eeprom.c **** * datasheet.
1211:Generated_Source\PSoC4/cy_em_eeprom.c **** *
1212:Generated_Source\PSoC4/cy_em_eeprom.c **** *******************************************************************************/
1213:Generated_Source\PSoC4/cy_em_eeprom.c **** static cy_en_em_eeprom_status_t CheckCrcAndCopy(uint32 startAddr,
1214:Generated_Source\PSoC4/cy_em_eeprom.c ****                                                 uint32 dstAddr,
1215:Generated_Source\PSoC4/cy_em_eeprom.c ****                                                 uint32 rowOffset,
1216:Generated_Source\PSoC4/cy_em_eeprom.c ****                                                 uint32 numBytes,
1217:Generated_Source\PSoC4/cy_em_eeprom.c ****                                                 cy_stc_eeprom_context_t * context)
1218:Generated_Source\PSoC4/cy_em_eeprom.c **** {
1219:Generated_Source\PSoC4/cy_em_eeprom.c ****     cy_en_em_eeprom_status_t ret;
1220:Generated_Source\PSoC4/cy_em_eeprom.c ****     uint32 writeRamBuffer[CY_EM_EEPROM_FLASH_SIZEOF_ROW / CY_EM_EEPROM_U32_DIV];
1221:Generated_Source\PSoC4/cy_em_eeprom.c **** 
1222:Generated_Source\PSoC4/cy_em_eeprom.c ****     /* Calculate the row address in the EEPROM's redundant copy */
1223:Generated_Source\PSoC4/cy_em_eeprom.c ****     uint32 rcStartRowAddr = (startAddr - context->userFlashStartAddr) + context->wlEndAddr;
1224:Generated_Source\PSoC4/cy_em_eeprom.c **** 
1225:Generated_Source\PSoC4/cy_em_eeprom.c ****     /* Check the row data CRC in the EEPROM */
1226:Generated_Source\PSoC4/cy_em_eeprom.c ****     if((*(uint32 *)(startAddr + CY_EM_EEPROM_HEADER_CHECKSUM_OFFSET)) ==
1227:Generated_Source\PSoC4/cy_em_eeprom.c ****         ((uint32) CalcChecksum((uint8 *)(startAddr + CY_EM_EEPROM_EEPROM_DATA_OFFSET),
1228:Generated_Source\PSoC4/cy_em_eeprom.c ****             CY_EM_EEPROM_EEPROM_DATA_LEN)))
1229:Generated_Source\PSoC4/cy_em_eeprom.c ****     {
1230:Generated_Source\PSoC4/cy_em_eeprom.c ****         (void)memcpy((void *)(dstAddr), (void *)(startAddr + rowOffset), numBytes);
1231:Generated_Source\PSoC4/cy_em_eeprom.c **** 
1232:Generated_Source\PSoC4/cy_em_eeprom.c ****         ret = CY_EM_EEPROM_SUCCESS;
1233:Generated_Source\PSoC4/cy_em_eeprom.c ****     }
1234:Generated_Source\PSoC4/cy_em_eeprom.c ****     /* Check the row data CRC in the EEPROM's redundant copy */
1235:Generated_Source\PSoC4/cy_em_eeprom.c ****     else if((*(uint32 *)(rcStartRowAddr + CY_EM_EEPROM_HEADER_CHECKSUM_OFFSET)) ==
1236:Generated_Source\PSoC4/cy_em_eeprom.c ****             ((uint32) CalcChecksum((uint8 *)(rcStartRowAddr + CY_EM_EEPROM_EEPROM_DATA_OFFSET),
1237:Generated_Source\PSoC4/cy_em_eeprom.c ****                 CY_EM_EEPROM_EEPROM_DATA_LEN)))
1238:Generated_Source\PSoC4/cy_em_eeprom.c ****     {
1239:Generated_Source\PSoC4/cy_em_eeprom.c ****         /* Copy the redundant copy row to RAM buffer to avoid read while write (RWW)
1240:Generated_Source\PSoC4/cy_em_eeprom.c ****         * flash exception. The RWW occurs while trying to write and read the data from
1241:Generated_Source\PSoC4/cy_em_eeprom.c ****         * same flash macro.
1242:Generated_Source\PSoC4/cy_em_eeprom.c ****         */
1243:Generated_Source\PSoC4/cy_em_eeprom.c ****         (void)memcpy((void *)(writeRamBuffer), (void *)(rcStartRowAddr), CY_EM_EEPROM_FLASH_SIZEOF_
1244:Generated_Source\PSoC4/cy_em_eeprom.c **** 
1245:Generated_Source\PSoC4/cy_em_eeprom.c ****         /* Restore bad row data from the RAM buffer */
1246:Generated_Source\PSoC4/cy_em_eeprom.c ****         ret = WriteRow(startAddr, (uint32 *)writeRamBuffer, context);
1247:Generated_Source\PSoC4/cy_em_eeprom.c **** 
1248:Generated_Source\PSoC4/cy_em_eeprom.c ****         if(CY_EM_EEPROM_SUCCESS == ret)
1249:Generated_Source\PSoC4/cy_em_eeprom.c ****         {
ARM GAS  C:\Users\ORA\AppData\Local\Temp\ccF8tT21.s 			page 30


1250:Generated_Source\PSoC4/cy_em_eeprom.c ****             (void)memcpy((void *)(dstAddr), (void *)(writeRamBuffer + rowOffset), numBytes);
1251:Generated_Source\PSoC4/cy_em_eeprom.c ****         }
1252:Generated_Source\PSoC4/cy_em_eeprom.c ****     }
1253:Generated_Source\PSoC4/cy_em_eeprom.c ****     else
1254:Generated_Source\PSoC4/cy_em_eeprom.c ****     {
1255:Generated_Source\PSoC4/cy_em_eeprom.c ****         ret = CY_EM_EEPROM_BAD_CHECKSUM;
1256:Generated_Source\PSoC4/cy_em_eeprom.c ****     }
1257:Generated_Source\PSoC4/cy_em_eeprom.c **** 
1258:Generated_Source\PSoC4/cy_em_eeprom.c ****     return(ret);
1259:Generated_Source\PSoC4/cy_em_eeprom.c **** }
1260:Generated_Source\PSoC4/cy_em_eeprom.c **** 
1261:Generated_Source\PSoC4/cy_em_eeprom.c **** 
1262:Generated_Source\PSoC4/cy_em_eeprom.c **** /*******************************************************************************
1263:Generated_Source\PSoC4/cy_em_eeprom.c **** * Function Name: GetAddresses
1264:Generated_Source\PSoC4/cy_em_eeprom.c **** ****************************************************************************//**
1265:Generated_Source\PSoC4/cy_em_eeprom.c **** *
1266:Generated_Source\PSoC4/cy_em_eeprom.c **** * Calculates the start and end address of the row's EEPROM data to be updated.
1267:Generated_Source\PSoC4/cy_em_eeprom.c **** * The start and end are not absolute addresses but a relative addresses in a
1268:Generated_Source\PSoC4/cy_em_eeprom.c **** * flash row.
1269:Generated_Source\PSoC4/cy_em_eeprom.c **** *
1270:Generated_Source\PSoC4/cy_em_eeprom.c **** * \param startAddr
1271:Generated_Source\PSoC4/cy_em_eeprom.c **** * The pointer the address where the EEPROM data start address will be returned.
1272:Generated_Source\PSoC4/cy_em_eeprom.c **** *
1273:Generated_Source\PSoC4/cy_em_eeprom.c **** * \param endAddr
1274:Generated_Source\PSoC4/cy_em_eeprom.c **** * The pointer the address where the EEPROM data end address will be returned.
1275:Generated_Source\PSoC4/cy_em_eeprom.c **** *
1276:Generated_Source\PSoC4/cy_em_eeprom.c **** * \param offset
1277:Generated_Source\PSoC4/cy_em_eeprom.c **** * The pointer the address where the calculated offset of the EEPROM header data
1278:Generated_Source\PSoC4/cy_em_eeprom.c **** * will be returned.
1279:Generated_Source\PSoC4/cy_em_eeprom.c **** *
1280:Generated_Source\PSoC4/cy_em_eeprom.c **** * \param rowNum
1281:Generated_Source\PSoC4/cy_em_eeprom.c **** * The row number that is about to be written.
1282:Generated_Source\PSoC4/cy_em_eeprom.c **** *
1283:Generated_Source\PSoC4/cy_em_eeprom.c **** * \param addr
1284:Generated_Source\PSoC4/cy_em_eeprom.c **** * The address of the EEPROM header data in the currently analyzed row that may
1285:Generated_Source\PSoC4/cy_em_eeprom.c **** * concern to the row about to be written.
1286:Generated_Source\PSoC4/cy_em_eeprom.c **** *
1287:Generated_Source\PSoC4/cy_em_eeprom.c **** * \param len
1288:Generated_Source\PSoC4/cy_em_eeprom.c **** * The length of the EEPROM header data in the currently analyzed row that may
1289:Generated_Source\PSoC4/cy_em_eeprom.c **** * concern to the row about to be written.
1290:Generated_Source\PSoC4/cy_em_eeprom.c **** *
1291:Generated_Source\PSoC4/cy_em_eeprom.c **** * \return
1292:Generated_Source\PSoC4/cy_em_eeprom.c **** * Zero indicates that the currently analyzed row has the data to be written to
1293:Generated_Source\PSoC4/cy_em_eeprom.c **** * the active EEPROM row data locations. Non zero value indicates that there is
1294:Generated_Source\PSoC4/cy_em_eeprom.c **** * no data to be written
1295:Generated_Source\PSoC4/cy_em_eeprom.c **** *
1296:Generated_Source\PSoC4/cy_em_eeprom.c **** *******************************************************************************/
1297:Generated_Source\PSoC4/cy_em_eeprom.c **** static uint32 GetAddresses(uint32 *startAddr, 
1298:Generated_Source\PSoC4/cy_em_eeprom.c ****                         uint32 *endAddr, 
1299:Generated_Source\PSoC4/cy_em_eeprom.c ****                         uint32 *offset,
1300:Generated_Source\PSoC4/cy_em_eeprom.c ****                         uint32 rowNum,
1301:Generated_Source\PSoC4/cy_em_eeprom.c ****                         uint32 addr,
1302:Generated_Source\PSoC4/cy_em_eeprom.c ****                         uint32 len)
1303:Generated_Source\PSoC4/cy_em_eeprom.c **** {
 392              		.loc 1 1303 0
 393              		.cfi_startproc
 394              		@ args = 8, pretend = 0, frame = 0
ARM GAS  C:\Users\ORA\AppData\Local\Temp\ccF8tT21.s 			page 31


 395              		@ frame_needed = 0, uses_anonymous_args = 0
 396              	.LVL53:
 397 0000 F0B5     		push	{r4, r5, r6, r7, lr}
 398              		.cfi_def_cfa_offset 20
 399              		.cfi_offset 4, -20
 400              		.cfi_offset 5, -16
 401              		.cfi_offset 6, -12
 402              		.cfi_offset 7, -8
 403              		.cfi_offset 14, -4
 404 0002 059C     		ldr	r4, [sp, #20]
 405              	.LVL54:
1304:Generated_Source\PSoC4/cy_em_eeprom.c ****     uint32 skip = 0u;
1305:Generated_Source\PSoC4/cy_em_eeprom.c **** 
1306:Generated_Source\PSoC4/cy_em_eeprom.c ****     *offset =0u;
 406              		.loc 1 1306 0
 407 0004 0025     		movs	r5, #0
 408 0006 1560     		str	r5, [r2]
1307:Generated_Source\PSoC4/cy_em_eeprom.c **** 
1308:Generated_Source\PSoC4/cy_em_eeprom.c ****     if(0u != CY_EM_EEPROM_IS_ADDR_IN_ROW_RANGE(addr, rowNum))
 409              		.loc 1 1308 0
 410 0008 DD01     		lsls	r5, r3, #7
 411 000a A542     		cmp	r5, r4
 412 000c 06D8     		bhi	.L37
 413              		.loc 1 1308 0 is_stmt 0 discriminator 1
 414 000e 5E1C     		adds	r6, r3, #1
 415 0010 F601     		lsls	r6, r6, #7
 416 0012 013E     		subs	r6, r6, #1
 417 0014 B442     		cmp	r4, r6
 418 0016 03D9     		bls	.L38
 419              		.loc 1 1308 0
 420 0018 0026     		movs	r6, #0
 421 001a 02E0     		b	.L31
 422              	.L37:
 423 001c 0026     		movs	r6, #0
 424 001e 00E0     		b	.L31
 425              	.L38:
 426 0020 0126     		movs	r6, #1
 427              	.L31:
 428              		.loc 1 1308 0 discriminator 6
 429 0022 002E     		cmp	r6, #0
 430 0024 1FD0     		beq	.L32
1309:Generated_Source\PSoC4/cy_em_eeprom.c ****     {
1310:Generated_Source\PSoC4/cy_em_eeprom.c ****         *startAddr = CY_EM_EEPROM_EEPROM_DATA_LEN + (addr % CY_EM_EEPROM_EEPROM_DATA_LEN);
 431              		.loc 1 1310 0 is_stmt 1
 432 0026 7F22     		movs	r2, #127
 433              	.LVL55:
 434 0028 2240     		ands	r2, r4
 435 002a 8032     		adds	r2, r2, #128
 436 002c 0260     		str	r2, [r0]
1311:Generated_Source\PSoC4/cy_em_eeprom.c **** 
1312:Generated_Source\PSoC4/cy_em_eeprom.c ****         if(0u != CY_EM_EEPROM_IS_ADDR_IN_ROW_RANGE(addr + len, rowNum))
 437              		.loc 1 1312 0
 438 002e 0698     		ldr	r0, [sp, #24]
 439              	.LVL56:
 440 0030 8446     		mov	ip, r0
 441 0032 6444     		add	r4, r4, ip
 442 0034 A542     		cmp	r5, r4
ARM GAS  C:\Users\ORA\AppData\Local\Temp\ccF8tT21.s 			page 32


 443 0036 06D8     		bhi	.L39
 444              		.loc 1 1312 0 is_stmt 0 discriminator 1
 445 0038 0133     		adds	r3, r3, #1
 446              	.LVL57:
 447 003a DB01     		lsls	r3, r3, #7
 448              	.LVL58:
 449 003c 013B     		subs	r3, r3, #1
 450 003e 9C42     		cmp	r4, r3
 451 0040 03D9     		bls	.L40
 452              		.loc 1 1312 0
 453 0042 0023     		movs	r3, #0
 454 0044 02E0     		b	.L33
 455              	.LVL59:
 456              	.L39:
 457 0046 0023     		movs	r3, #0
 458              	.LVL60:
 459 0048 00E0     		b	.L33
 460              	.L40:
 461 004a 0123     		movs	r3, #1
 462              	.L33:
 463              		.loc 1 1312 0 discriminator 6
 464 004c 002B     		cmp	r3, #0
 465 004e 05D0     		beq	.L34
1313:Generated_Source\PSoC4/cy_em_eeprom.c ****         {
1314:Generated_Source\PSoC4/cy_em_eeprom.c ****             *endAddr = *startAddr + len;
 466              		.loc 1 1314 0 is_stmt 1
 467 0050 069B     		ldr	r3, [sp, #24]
 468 0052 9C46     		mov	ip, r3
 469 0054 6244     		add	r2, r2, ip
 470 0056 0A60     		str	r2, [r1]
1304:Generated_Source\PSoC4/cy_em_eeprom.c **** 
 471              		.loc 1 1304 0
 472 0058 0020     		movs	r0, #0
 473 005a 22E0     		b	.L35
 474              	.L34:
1315:Generated_Source\PSoC4/cy_em_eeprom.c ****         }
1316:Generated_Source\PSoC4/cy_em_eeprom.c ****         else
1317:Generated_Source\PSoC4/cy_em_eeprom.c ****         {
1318:Generated_Source\PSoC4/cy_em_eeprom.c ****             *endAddr = CY_EM_EEPROM_FLASH_SIZEOF_ROW;
 475              		.loc 1 1318 0
 476 005c 8023     		movs	r3, #128
 477 005e 5B00     		lsls	r3, r3, #1
 478 0060 0B60     		str	r3, [r1]
1304:Generated_Source\PSoC4/cy_em_eeprom.c **** 
 479              		.loc 1 1304 0
 480 0062 0020     		movs	r0, #0
 481 0064 1DE0     		b	.L35
 482              	.LVL61:
 483              	.L32:
1319:Generated_Source\PSoC4/cy_em_eeprom.c ****         }
1320:Generated_Source\PSoC4/cy_em_eeprom.c ****     }
1321:Generated_Source\PSoC4/cy_em_eeprom.c ****     else
1322:Generated_Source\PSoC4/cy_em_eeprom.c ****     {
1323:Generated_Source\PSoC4/cy_em_eeprom.c **** 
1324:Generated_Source\PSoC4/cy_em_eeprom.c ****         if(0u != CY_EM_EEPROM_IS_ADDR_IN_ROW_RANGE(addr + len, rowNum))
 484              		.loc 1 1324 0
 485 0066 069F     		ldr	r7, [sp, #24]
ARM GAS  C:\Users\ORA\AppData\Local\Temp\ccF8tT21.s 			page 33


 486 0068 E719     		adds	r7, r4, r7
 487 006a BD42     		cmp	r5, r7
 488 006c 05D8     		bhi	.L36
 489              		.loc 1 1324 0 is_stmt 0 discriminator 1
 490 006e 0133     		adds	r3, r3, #1
 491              	.LVL62:
 492 0070 DB01     		lsls	r3, r3, #7
 493              	.LVL63:
 494 0072 013B     		subs	r3, r3, #1
 495 0074 9F42     		cmp	r7, r3
 496 0076 00D8     		bhi	.L36
 497              		.loc 1 1324 0
 498 0078 0126     		movs	r6, #1
 499              	.L36:
 500              		.loc 1 1324 0 discriminator 6
 501 007a 002E     		cmp	r6, #0
 502 007c 10D0     		beq	.L42
1325:Generated_Source\PSoC4/cy_em_eeprom.c ****         {
1326:Generated_Source\PSoC4/cy_em_eeprom.c ****             *startAddr = CY_EM_EEPROM_EEPROM_DATA_LEN;
 503              		.loc 1 1326 0 is_stmt 1
 504 007e 8023     		movs	r3, #128
 505 0080 0360     		str	r3, [r0]
1327:Generated_Source\PSoC4/cy_em_eeprom.c ****             *endAddr = (*startAddr + len) - (*startAddr - (addr % CY_EM_EEPROM_EEPROM_DATA_LEN));
 506              		.loc 1 1327 0
 507 0082 069B     		ldr	r3, [sp, #24]
 508 0084 8033     		adds	r3, r3, #128
 509 0086 7F25     		movs	r5, #127
 510 0088 2C40     		ands	r4, r5
 511 008a 803C     		subs	r4, r4, #128
 512 008c 1C19     		adds	r4, r3, r4
 513 008e 0C60     		str	r4, [r1]
1328:Generated_Source\PSoC4/cy_em_eeprom.c ****             *offset = len - (*endAddr - *startAddr);
 514              		.loc 1 1328 0
 515 0090 0368     		ldr	r3, [r0]
 516 0092 1C1B     		subs	r4, r3, r4
 517 0094 069B     		ldr	r3, [sp, #24]
 518 0096 9C46     		mov	ip, r3
 519 0098 6444     		add	r4, r4, ip
 520 009a 1460     		str	r4, [r2]
1304:Generated_Source\PSoC4/cy_em_eeprom.c **** 
 521              		.loc 1 1304 0
 522 009c 0020     		movs	r0, #0
 523              	.LVL64:
 524 009e 00E0     		b	.L35
 525              	.LVL65:
 526              	.L42:
1329:Generated_Source\PSoC4/cy_em_eeprom.c ****         }
1330:Generated_Source\PSoC4/cy_em_eeprom.c ****         else
1331:Generated_Source\PSoC4/cy_em_eeprom.c ****         {
1332:Generated_Source\PSoC4/cy_em_eeprom.c ****             skip++;
 527              		.loc 1 1332 0
 528 00a0 0120     		movs	r0, #1
 529              	.LVL66:
 530              	.L35:
1333:Generated_Source\PSoC4/cy_em_eeprom.c ****         }
1334:Generated_Source\PSoC4/cy_em_eeprom.c ****     }
1335:Generated_Source\PSoC4/cy_em_eeprom.c **** 
ARM GAS  C:\Users\ORA\AppData\Local\Temp\ccF8tT21.s 			page 34


1336:Generated_Source\PSoC4/cy_em_eeprom.c ****     return (skip);
1337:Generated_Source\PSoC4/cy_em_eeprom.c **** }
 531              		.loc 1 1337 0
 532              		@ sp needed
 533 00a2 F0BD     		pop	{r4, r5, r6, r7, pc}
 534              		.cfi_endproc
 535              	.LFE15:
 536              		.size	GetAddresses, .-GetAddresses
 537              		.section	.text.WriteRow,"ax",%progbits
 538              		.align	2
 539              		.code	16
 540              		.thumb_func
 541              		.type	WriteRow, %function
 542              	WriteRow:
 543              	.LFB12:
 994:Generated_Source\PSoC4/cy_em_eeprom.c ****     cy_en_em_eeprom_status_t ret = CY_EM_EEPROM_WRITE_FAIL;
 544              		.loc 1 994 0
 545              		.cfi_startproc
 546              		@ args = 0, pretend = 0, frame = 0
 547              		@ frame_needed = 0, uses_anonymous_args = 0
 548              	.LVL67:
 549 0000 10B5     		push	{r4, lr}
 550              		.cfi_def_cfa_offset 8
 551              		.cfi_offset 4, -8
 552              		.cfi_offset 14, -4
 553              	.LVL68:
1015:Generated_Source\PSoC4/cy_em_eeprom.c ****         
 554              		.loc 1 1015 0
 555 0002 000A     		lsrs	r0, r0, #8
 556              	.LVL69:
1017:Generated_Source\PSoC4/cy_em_eeprom.c ****     #else
 557              		.loc 1 1017 0
 558 0004 FFF7FEFF 		bl	CySysFlashWriteRow
 559              	.LVL70:
1034:Generated_Source\PSoC4/cy_em_eeprom.c ****     {
 560              		.loc 1 1034 0
 561 0008 0028     		cmp	r0, #0
 562 000a 01D0     		beq	.L45
 995:Generated_Source\PSoC4/cy_em_eeprom.c **** #if (!CY_PSOC6)
 563              		.loc 1 995 0
 564 000c 0420     		movs	r0, #4
 565              	.LVL71:
 566 000e 00E0     		b	.L44
 567              	.LVL72:
 568              	.L45:
1036:Generated_Source\PSoC4/cy_em_eeprom.c ****     }
 569              		.loc 1 1036 0
 570 0010 0020     		movs	r0, #0
 571              	.LVL73:
 572              	.L44:
1072:Generated_Source\PSoC4/cy_em_eeprom.c **** 
 573              		.loc 1 1072 0
 574              		@ sp needed
 575 0012 10BD     		pop	{r4, pc}
 576              		.cfi_endproc
 577              	.LFE12:
 578              		.size	WriteRow, .-WriteRow
ARM GAS  C:\Users\ORA\AppData\Local\Temp\ccF8tT21.s 			page 35


 579              		.section	.text.FillChecksum,"ax",%progbits
 580              		.align	2
 581              		.code	16
 582              		.thumb_func
 583              		.type	FillChecksum, %function
 584              	FillChecksum:
 585              	.LFB16:
1338:Generated_Source\PSoC4/cy_em_eeprom.c **** 
1339:Generated_Source\PSoC4/cy_em_eeprom.c **** 
1340:Generated_Source\PSoC4/cy_em_eeprom.c **** /*******************************************************************************
1341:Generated_Source\PSoC4/cy_em_eeprom.c **** * Function Name: FillChecksum
1342:Generated_Source\PSoC4/cy_em_eeprom.c **** ****************************************************************************//**
1343:Generated_Source\PSoC4/cy_em_eeprom.c **** *
1344:Generated_Source\PSoC4/cy_em_eeprom.c **** * Performs calculation of the checksum on each row in the Em_EEPROM and fills
1345:Generated_Source\PSoC4/cy_em_eeprom.c **** * the Em_EEPROM headers checksum field with the calculated checksums.
1346:Generated_Source\PSoC4/cy_em_eeprom.c **** *
1347:Generated_Source\PSoC4/cy_em_eeprom.c **** * \param context
1348:Generated_Source\PSoC4/cy_em_eeprom.c **** * The pointer to the EEPROM context structure.
1349:Generated_Source\PSoC4/cy_em_eeprom.c **** *
1350:Generated_Source\PSoC4/cy_em_eeprom.c **** * \return
1351:Generated_Source\PSoC4/cy_em_eeprom.c **** * error / status code. See \ref cy_en_em_eeprom_status_t.
1352:Generated_Source\PSoC4/cy_em_eeprom.c **** *
1353:Generated_Source\PSoC4/cy_em_eeprom.c **** * \theory 
1354:Generated_Source\PSoC4/cy_em_eeprom.c **** * In case if redundant copy option is used the Em_EEPROM would return bad 
1355:Generated_Source\PSoC4/cy_em_eeprom.c **** * checksum while trying to read the EEPROM rows which were not yet written by 
1356:Generated_Source\PSoC4/cy_em_eeprom.c **** * the user. E.g. any read after device reprogramming without previous Write() 
1357:Generated_Source\PSoC4/cy_em_eeprom.c **** * operation to the EEPROM would fail. This would happen because the Em_EEPROM 
1358:Generated_Source\PSoC4/cy_em_eeprom.c **** * headers checksum field values (which is zero at the moment) would not be 
1359:Generated_Source\PSoC4/cy_em_eeprom.c **** * equal to the actual data checksum. This function allows to avoid read failure
1360:Generated_Source\PSoC4/cy_em_eeprom.c **** * after device reprogramming. 
1361:Generated_Source\PSoC4/cy_em_eeprom.c **** *
1362:Generated_Source\PSoC4/cy_em_eeprom.c **** * \note
1363:Generated_Source\PSoC4/cy_em_eeprom.c **** * This function uses a buffer of the flash row size to perform read
1364:Generated_Source\PSoC4/cy_em_eeprom.c **** * operation. For the size of the row refer to the specific PSoC device
1365:Generated_Source\PSoC4/cy_em_eeprom.c **** * datasheet.
1366:Generated_Source\PSoC4/cy_em_eeprom.c **** *
1367:Generated_Source\PSoC4/cy_em_eeprom.c **** *******************************************************************************/
1368:Generated_Source\PSoC4/cy_em_eeprom.c **** static cy_en_em_eeprom_status_t FillChecksum(cy_stc_eeprom_context_t * context)
1369:Generated_Source\PSoC4/cy_em_eeprom.c **** {
 586              		.loc 1 1369 0
 587              		.cfi_startproc
 588              		@ args = 0, pretend = 0, frame = 264
 589              		@ frame_needed = 0, uses_anonymous_args = 0
 590              	.LVL74:
 591 0000 F0B5     		push	{r4, r5, r6, r7, lr}
 592              		.cfi_def_cfa_offset 20
 593              		.cfi_offset 4, -20
 594              		.cfi_offset 5, -16
 595              		.cfi_offset 6, -12
 596              		.cfi_offset 7, -8
 597              		.cfi_offset 14, -4
 598 0002 C3B0     		sub	sp, sp, #268
 599              		.cfi_def_cfa_offset 288
 600 0004 0400     		movs	r4, r0
1370:Generated_Source\PSoC4/cy_em_eeprom.c ****     uint32 i;
1371:Generated_Source\PSoC4/cy_em_eeprom.c ****     uint32 rdAddr;
1372:Generated_Source\PSoC4/cy_em_eeprom.c ****     uint32 writeRamBuffer[CY_EM_EEPROM_FLASH_SIZEOF_ROW / CY_EM_EEPROM_U32_DIV];
ARM GAS  C:\Users\ORA\AppData\Local\Temp\ccF8tT21.s 			page 36


1373:Generated_Source\PSoC4/cy_em_eeprom.c ****     uint32 wrAddr = context->lastWrRowAddr;
 601              		.loc 1 1373 0
 602 0006 8368     		ldr	r3, [r0, #8]
 603 0008 0093     		str	r3, [sp]
1374:Generated_Source\PSoC4/cy_em_eeprom.c ****     uint32 tmpRowAddr;
1375:Generated_Source\PSoC4/cy_em_eeprom.c ****     /* Get the sequence number (number of writes) */
1376:Generated_Source\PSoC4/cy_em_eeprom.c ****     uint32 seqNum = CY_EM_EEPROM_GET_SEQ_NUM(wrAddr);
 604              		.loc 1 1376 0
 605 000a 1D68     		ldr	r5, [r3]
 606              	.LVL75:
1377:Generated_Source\PSoC4/cy_em_eeprom.c ****     cy_en_em_eeprom_status_t ret = CY_EM_EEPROM_BAD_PARAM;
 607              		.loc 1 1377 0
 608 000c 0126     		movs	r6, #1
1378:Generated_Source\PSoC4/cy_em_eeprom.c **** 
1379:Generated_Source\PSoC4/cy_em_eeprom.c ****     for(i = 0u; i < (context->numberOfRows * context->wearLevelingFactor); i++)
 609              		.loc 1 1379 0
 610 000e 0027     		movs	r7, #0
 611 0010 24E0     		b	.L47
 612              	.LVL76:
 613              	.L48:
1380:Generated_Source\PSoC4/cy_em_eeprom.c ****     {
1381:Generated_Source\PSoC4/cy_em_eeprom.c ****         /* Copy the EEPROM row from Flash to RAM */
1382:Generated_Source\PSoC4/cy_em_eeprom.c ****         (void)memcpy((void *)&writeRamBuffer[0u], (void *)(wrAddr), CY_EM_EEPROM_FLASH_SIZEOF_ROW);
 614              		.loc 1 1382 0 discriminator 3
 615 0012 009E     		ldr	r6, [sp]
 616              	.LVL77:
 617 0014 8022     		movs	r2, #128
 618 0016 5200     		lsls	r2, r2, #1
 619 0018 3100     		movs	r1, r6
 620 001a 01A8     		add	r0, sp, #4
 621 001c FFF7FEFF 		bl	memcpy
 622              	.LVL78:
1383:Generated_Source\PSoC4/cy_em_eeprom.c **** 
1384:Generated_Source\PSoC4/cy_em_eeprom.c ****         /* Increment the sequence number */
1385:Generated_Source\PSoC4/cy_em_eeprom.c ****         seqNum++;
 623              		.loc 1 1385 0 discriminator 3
 624 0020 0135     		adds	r5, r5, #1
 625              	.LVL79:
1386:Generated_Source\PSoC4/cy_em_eeprom.c ****         writeRamBuffer[CY_EM_EEPROM_HEADER_SEQ_NUM_OFFSET_U32] = seqNum;
 626              		.loc 1 1386 0 discriminator 3
 627 0022 0195     		str	r5, [sp, #4]
1387:Generated_Source\PSoC4/cy_em_eeprom.c **** 
1388:Generated_Source\PSoC4/cy_em_eeprom.c ****         /* Calculate and fill the checksum to the Em_EEPROM header */
1389:Generated_Source\PSoC4/cy_em_eeprom.c ****         writeRamBuffer[CY_EM_EEPROM_HEADER_CHECKSUM_OFFSET_U32] = (uint32)
1390:Generated_Source\PSoC4/cy_em_eeprom.c ****                     CalcChecksum((uint8 *) &writeRamBuffer[CY_EM_EEPROM_EEPROM_DATA_OFFSET_U32],
 628              		.loc 1 1390 0 discriminator 3
 629 0024 8021     		movs	r1, #128
 630 0026 21A8     		add	r0, sp, #132
 631 0028 FFF7FEFF 		bl	CalcChecksum
 632              	.LVL80:
1389:Generated_Source\PSoC4/cy_em_eeprom.c ****                     CalcChecksum((uint8 *) &writeRamBuffer[CY_EM_EEPROM_EEPROM_DATA_OFFSET_U32],
 633              		.loc 1 1389 0 discriminator 3
 634 002c 2090     		str	r0, [sp, #128]
1391:Generated_Source\PSoC4/cy_em_eeprom.c ****                                               CY_EM_EEPROM_EEPROM_DATA_LEN);
1392:Generated_Source\PSoC4/cy_em_eeprom.c **** 
1393:Generated_Source\PSoC4/cy_em_eeprom.c ****         /* Write the data to the specified flash row */
1394:Generated_Source\PSoC4/cy_em_eeprom.c ****         ret = WriteRow(wrAddr, writeRamBuffer, context);
ARM GAS  C:\Users\ORA\AppData\Local\Temp\ccF8tT21.s 			page 37


 635              		.loc 1 1394 0 discriminator 3
 636 002e 2200     		movs	r2, r4
 637 0030 01A9     		add	r1, sp, #4
 638 0032 3000     		movs	r0, r6
 639 0034 FFF7FEFF 		bl	WriteRow
 640              	.LVL81:
1395:Generated_Source\PSoC4/cy_em_eeprom.c **** 
1396:Generated_Source\PSoC4/cy_em_eeprom.c ****         /* Update the row address to point to the relevant row in the redundant 
1397:Generated_Source\PSoC4/cy_em_eeprom.c ****         * EEPROM's copy.
1398:Generated_Source\PSoC4/cy_em_eeprom.c ****         */
1399:Generated_Source\PSoC4/cy_em_eeprom.c ****         tmpRowAddr = (wrAddr - context->userFlashStartAddr) + context->wlEndAddr;
 641              		.loc 1 1399 0 discriminator 3
 642 0038 009B     		ldr	r3, [sp]
 643 003a A269     		ldr	r2, [r4, #24]
 644 003c 981A     		subs	r0, r3, r2
 645 003e 2368     		ldr	r3, [r4]
 646 0040 9C46     		mov	ip, r3
 647 0042 6044     		add	r0, r0, ip
 648              	.LVL82:
1400:Generated_Source\PSoC4/cy_em_eeprom.c **** 
1401:Generated_Source\PSoC4/cy_em_eeprom.c ****         /* Write the data to the specified flash row */
1402:Generated_Source\PSoC4/cy_em_eeprom.c ****         ret = WriteRow(tmpRowAddr, writeRamBuffer, context);
 649              		.loc 1 1402 0 discriminator 3
 650 0044 2200     		movs	r2, r4
 651 0046 01A9     		add	r1, sp, #4
 652 0048 FFF7FEFF 		bl	WriteRow
 653              	.LVL83:
 654 004c 0600     		movs	r6, r0
 655              	.LVL84:
1403:Generated_Source\PSoC4/cy_em_eeprom.c **** 
1404:Generated_Source\PSoC4/cy_em_eeprom.c ****         /* Get the address of the next row to be written. 
1405:Generated_Source\PSoC4/cy_em_eeprom.c ****         * "rdAddr" is not used in this function but provided to prevent NULL 
1406:Generated_Source\PSoC4/cy_em_eeprom.c ****         * pointer exception in GetNextRowToWrite().
1407:Generated_Source\PSoC4/cy_em_eeprom.c ****         */
1408:Generated_Source\PSoC4/cy_em_eeprom.c ****         GetNextRowToWrite(seqNum, &wrAddr, &rdAddr, context);
 656              		.loc 1 1408 0 discriminator 3
 657 004e 2300     		movs	r3, r4
 658 0050 41AA     		add	r2, sp, #260
 659 0052 6946     		mov	r1, sp
 660 0054 2800     		movs	r0, r5
 661              	.LVL85:
 662 0056 FFF7FEFF 		bl	GetNextRowToWrite
 663              	.LVL86:
1379:Generated_Source\PSoC4/cy_em_eeprom.c ****     {
 664              		.loc 1 1379 0 discriminator 3
 665 005a 0137     		adds	r7, r7, #1
 666              	.LVL87:
 667              	.L47:
1379:Generated_Source\PSoC4/cy_em_eeprom.c ****     {
 668              		.loc 1 1379 0 is_stmt 0 discriminator 1
 669 005c 2369     		ldr	r3, [r4, #16]
 670 005e 6268     		ldr	r2, [r4, #4]
 671 0060 5343     		muls	r3, r2
 672 0062 9F42     		cmp	r7, r3
 673 0064 D5D3     		bcc	.L48
1409:Generated_Source\PSoC4/cy_em_eeprom.c ****     }
1410:Generated_Source\PSoC4/cy_em_eeprom.c ****     
ARM GAS  C:\Users\ORA\AppData\Local\Temp\ccF8tT21.s 			page 38


1411:Generated_Source\PSoC4/cy_em_eeprom.c ****     return(ret);
1412:Generated_Source\PSoC4/cy_em_eeprom.c **** }
 674              		.loc 1 1412 0 is_stmt 1
 675 0066 3000     		movs	r0, r6
 676 0068 43B0     		add	sp, sp, #268
 677              		@ sp needed
 678              	.LVL88:
 679              	.LVL89:
 680              	.LVL90:
 681              	.LVL91:
 682 006a F0BD     		pop	{r4, r5, r6, r7, pc}
 683              		.cfi_endproc
 684              	.LFE16:
 685              		.size	FillChecksum, .-FillChecksum
 686              		.section	.text.CheckCrcAndCopy,"ax",%progbits
 687              		.align	2
 688              		.code	16
 689              		.thumb_func
 690              		.type	CheckCrcAndCopy, %function
 691              	CheckCrcAndCopy:
 692              	.LFB14:
1218:Generated_Source\PSoC4/cy_em_eeprom.c ****     cy_en_em_eeprom_status_t ret;
 693              		.loc 1 1218 0
 694              		.cfi_startproc
 695              		@ args = 4, pretend = 0, frame = 272
 696              		@ frame_needed = 0, uses_anonymous_args = 0
 697              	.LVL92:
 698 0000 F0B5     		push	{r4, r5, r6, r7, lr}
 699              		.cfi_def_cfa_offset 20
 700              		.cfi_offset 4, -20
 701              		.cfi_offset 5, -16
 702              		.cfi_offset 6, -12
 703              		.cfi_offset 7, -8
 704              		.cfi_offset 14, -4
 705 0002 C5B0     		sub	sp, sp, #276
 706              		.cfi_def_cfa_offset 296
 707 0004 0600     		movs	r6, r0
 708 0006 0191     		str	r1, [sp, #4]
 709 0008 0292     		str	r2, [sp, #8]
 710 000a 0393     		str	r3, [sp, #12]
 711 000c 4A9F     		ldr	r7, [sp, #296]
1223:Generated_Source\PSoC4/cy_em_eeprom.c **** 
 712              		.loc 1 1223 0
 713 000e BB69     		ldr	r3, [r7, #24]
 714              	.LVL93:
 715 0010 C41A     		subs	r4, r0, r3
 716 0012 3B68     		ldr	r3, [r7]
 717 0014 9C46     		mov	ip, r3
 718 0016 6444     		add	r4, r4, ip
 719              	.LVL94:
1226:Generated_Source\PSoC4/cy_em_eeprom.c ****         ((uint32) CalcChecksum((uint8 *)(startAddr + CY_EM_EEPROM_EEPROM_DATA_OFFSET),
 720              		.loc 1 1226 0
 721 0018 C56F     		ldr	r5, [r0, #124]
1227:Generated_Source\PSoC4/cy_em_eeprom.c ****             CY_EM_EEPROM_EEPROM_DATA_LEN)))
 722              		.loc 1 1227 0
 723 001a 8030     		adds	r0, r0, #128
 724              	.LVL95:
ARM GAS  C:\Users\ORA\AppData\Local\Temp\ccF8tT21.s 			page 39


 725 001c 8021     		movs	r1, #128
 726              	.LVL96:
 727 001e FFF7FEFF 		bl	CalcChecksum
 728              	.LVL97:
1226:Generated_Source\PSoC4/cy_em_eeprom.c ****         ((uint32) CalcChecksum((uint8 *)(startAddr + CY_EM_EEPROM_EEPROM_DATA_OFFSET),
 729              		.loc 1 1226 0
 730 0022 8542     		cmp	r5, r0
 731 0024 07D1     		bne	.L50
1230:Generated_Source\PSoC4/cy_em_eeprom.c **** 
 732              		.loc 1 1230 0
 733 0026 029B     		ldr	r3, [sp, #8]
 734 0028 F118     		adds	r1, r6, r3
 735 002a 039A     		ldr	r2, [sp, #12]
 736 002c 0198     		ldr	r0, [sp, #4]
 737 002e FFF7FEFF 		bl	memcpy
 738              	.LVL98:
1232:Generated_Source\PSoC4/cy_em_eeprom.c ****     }
 739              		.loc 1 1232 0
 740 0032 0024     		movs	r4, #0
 741              	.LVL99:
 742 0034 1FE0     		b	.L51
 743              	.LVL100:
 744              	.L50:
1235:Generated_Source\PSoC4/cy_em_eeprom.c ****             ((uint32) CalcChecksum((uint8 *)(rcStartRowAddr + CY_EM_EEPROM_EEPROM_DATA_OFFSET),
 745              		.loc 1 1235 0
 746 0036 E56F     		ldr	r5, [r4, #124]
1236:Generated_Source\PSoC4/cy_em_eeprom.c ****                 CY_EM_EEPROM_EEPROM_DATA_LEN)))
 747              		.loc 1 1236 0
 748 0038 2000     		movs	r0, r4
 749 003a 8030     		adds	r0, r0, #128
 750 003c 8021     		movs	r1, #128
 751 003e FFF7FEFF 		bl	CalcChecksum
 752              	.LVL101:
1235:Generated_Source\PSoC4/cy_em_eeprom.c ****             ((uint32) CalcChecksum((uint8 *)(rcStartRowAddr + CY_EM_EEPROM_EEPROM_DATA_OFFSET),
 753              		.loc 1 1235 0
 754 0042 8542     		cmp	r5, r0
 755 0044 16D1     		bne	.L52
1243:Generated_Source\PSoC4/cy_em_eeprom.c **** 
 756              		.loc 1 1243 0
 757 0046 8022     		movs	r2, #128
 758 0048 5200     		lsls	r2, r2, #1
 759 004a 2100     		movs	r1, r4
 760 004c 04A8     		add	r0, sp, #16
 761 004e FFF7FEFF 		bl	memcpy
 762              	.LVL102:
1246:Generated_Source\PSoC4/cy_em_eeprom.c **** 
 763              		.loc 1 1246 0
 764 0052 3A00     		movs	r2, r7
 765 0054 04A9     		add	r1, sp, #16
 766 0056 3000     		movs	r0, r6
 767 0058 FFF7FEFF 		bl	WriteRow
 768              	.LVL103:
 769 005c 041E     		subs	r4, r0, #0
 770              	.LVL104:
1248:Generated_Source\PSoC4/cy_em_eeprom.c ****         {
 771              		.loc 1 1248 0
 772 005e 0AD1     		bne	.L51
ARM GAS  C:\Users\ORA\AppData\Local\Temp\ccF8tT21.s 			page 40


1250:Generated_Source\PSoC4/cy_em_eeprom.c ****         }
 773              		.loc 1 1250 0
 774 0060 029B     		ldr	r3, [sp, #8]
 775 0062 9900     		lsls	r1, r3, #2
 776 0064 04AB     		add	r3, sp, #16
 777 0066 9C46     		mov	ip, r3
 778 0068 6144     		add	r1, r1, ip
 779 006a 039A     		ldr	r2, [sp, #12]
 780 006c 0198     		ldr	r0, [sp, #4]
 781              	.LVL105:
 782 006e FFF7FEFF 		bl	memcpy
 783              	.LVL106:
 784 0072 00E0     		b	.L51
 785              	.LVL107:
 786              	.L52:
1255:Generated_Source\PSoC4/cy_em_eeprom.c ****     }
 787              		.loc 1 1255 0
 788 0074 0224     		movs	r4, #2
 789              	.LVL108:
 790              	.L51:
1259:Generated_Source\PSoC4/cy_em_eeprom.c **** 
 791              		.loc 1 1259 0
 792 0076 2000     		movs	r0, r4
 793 0078 45B0     		add	sp, sp, #276
 794              		@ sp needed
 795              	.LVL109:
 796              	.LVL110:
 797 007a F0BD     		pop	{r4, r5, r6, r7, pc}
 798              		.cfi_endproc
 799              	.LFE14:
 800              		.size	CheckCrcAndCopy, .-CheckCrcAndCopy
 801              		.section	.text.EraseRow,"ax",%progbits
 802              		.align	2
 803              		.code	16
 804              		.thumb_func
 805              		.type	EraseRow, %function
 806              	EraseRow:
 807              	.LFB13:
1100:Generated_Source\PSoC4/cy_em_eeprom.c ****     uint32 emEepromRowAddr = rowAddr;
 808              		.loc 1 1100 0
 809              		.cfi_startproc
 810              		@ args = 0, pretend = 0, frame = 0
 811              		@ frame_needed = 0, uses_anonymous_args = 0
 812              	.LVL111:
 813 0000 70B5     		push	{r4, r5, r6, lr}
 814              		.cfi_def_cfa_offset 16
 815              		.cfi_offset 4, -16
 816              		.cfi_offset 5, -12
 817              		.cfi_offset 6, -8
 818              		.cfi_offset 14, -4
 819 0002 0400     		movs	r4, r0
 820 0004 0D00     		movs	r5, r1
 821 0006 1600     		movs	r6, r2
 822              	.LVL112:
1159:Generated_Source\PSoC4/cy_em_eeprom.c **** 
 823              		.loc 1 1159 0
 824 0008 FFF7FEFF 		bl	WriteRow
ARM GAS  C:\Users\ORA\AppData\Local\Temp\ccF8tT21.s 			page 41


 825              	.LVL113:
1161:Generated_Source\PSoC4/cy_em_eeprom.c ****     {
 826              		.loc 1 1161 0
 827 000c 0028     		cmp	r0, #0
 828 000e 0BD1     		bne	.L54
1161:Generated_Source\PSoC4/cy_em_eeprom.c ****     {
 829              		.loc 1 1161 0 is_stmt 0 discriminator 1
 830 0010 337D     		ldrb	r3, [r6, #20]
 831 0012 002B     		cmp	r3, #0
 832 0014 08D0     		beq	.L54
1164:Generated_Source\PSoC4/cy_em_eeprom.c ****         ret = WriteRow(emEepromRowAddr, (uint32 *)ramBuffAddr, context);
 833              		.loc 1 1164 0 is_stmt 1
 834 0016 B369     		ldr	r3, [r6, #24]
 835 0018 E01A     		subs	r0, r4, r3
 836              	.LVL114:
 837 001a 3368     		ldr	r3, [r6]
 838 001c 9C46     		mov	ip, r3
 839 001e 6044     		add	r0, r0, ip
 840              	.LVL115:
1165:Generated_Source\PSoC4/cy_em_eeprom.c ****     }
 841              		.loc 1 1165 0
 842 0020 3200     		movs	r2, r6
 843 0022 2900     		movs	r1, r5
 844 0024 FFF7FEFF 		bl	WriteRow
 845              	.LVL116:
 846              	.L54:
1168:Generated_Source\PSoC4/cy_em_eeprom.c ****     {
 847              		.loc 1 1168 0
 848 0028 0028     		cmp	r0, #0
 849 002a 00D1     		bne	.L55
1170:Generated_Source\PSoC4/cy_em_eeprom.c ****     }
 850              		.loc 1 1170 0
 851 002c B460     		str	r4, [r6, #8]
 852              	.L55:
1175:Generated_Source\PSoC4/cy_em_eeprom.c **** 
 853              		.loc 1 1175 0
 854              		@ sp needed
 855              	.LVL117:
 856              	.LVL118:
 857              	.LVL119:
 858 002e 70BD     		pop	{r4, r5, r6, pc}
 859              		.cfi_endproc
 860              	.LFE13:
 861              		.size	EraseRow, .-EraseRow
 862              		.section	.text.Cy_Em_EEPROM_Init,"ax",%progbits
 863              		.align	2
 864              		.global	Cy_Em_EEPROM_Init
 865              		.code	16
 866              		.thumb_func
 867              		.type	Cy_Em_EEPROM_Init, %function
 868              	Cy_Em_EEPROM_Init:
 869              	.LFB2:
  96:Generated_Source\PSoC4/cy_em_eeprom.c ****     cy_en_em_eeprom_status_t ret = CY_EM_EEPROM_BAD_PARAM;
 870              		.loc 1 96 0
 871              		.cfi_startproc
 872              		@ args = 0, pretend = 0, frame = 0
 873              		@ frame_needed = 0, uses_anonymous_args = 0
ARM GAS  C:\Users\ORA\AppData\Local\Temp\ccF8tT21.s 			page 42


 874              	.LVL120:
 875 0000 F8B5     		push	{r3, r4, r5, r6, r7, lr}
 876              		.cfi_def_cfa_offset 24
 877              		.cfi_offset 3, -24
 878              		.cfi_offset 4, -20
 879              		.cfi_offset 5, -16
 880              		.cfi_offset 6, -12
 881              		.cfi_offset 7, -8
 882              		.cfi_offset 14, -4
 883 0002 0400     		movs	r4, r0
 884 0004 0D1E     		subs	r5, r1, #0
 885              	.LVL121:
  99:Generated_Source\PSoC4/cy_em_eeprom.c ****         (config->wearLevelingFactor <= CY_EM_EEPROM_MAX_WEAR_LEVELING_FACTOR) && (config->eepromSiz
 886              		.loc 1 99 0
 887 0006 3BD0     		beq	.L59
  99:Generated_Source\PSoC4/cy_em_eeprom.c ****         (config->wearLevelingFactor <= CY_EM_EEPROM_MAX_WEAR_LEVELING_FACTOR) && (config->eepromSiz
 888              		.loc 1 99 0 is_stmt 0 discriminator 1
 889 0008 0028     		cmp	r0, #0
 890 000a 3BD0     		beq	.L60
  99:Generated_Source\PSoC4/cy_em_eeprom.c ****         (config->wearLevelingFactor <= CY_EM_EEPROM_MAX_WEAR_LEVELING_FACTOR) && (config->eepromSiz
 891              		.loc 1 99 0 discriminator 2
 892 000c C368     		ldr	r3, [r0, #12]
 893 000e 002B     		cmp	r3, #0
 894 0010 3AD0     		beq	.L61
  99:Generated_Source\PSoC4/cy_em_eeprom.c ****         (config->wearLevelingFactor <= CY_EM_EEPROM_MAX_WEAR_LEVELING_FACTOR) && (config->eepromSiz
 895              		.loc 1 99 0 discriminator 3
 896 0012 4368     		ldr	r3, [r0, #4]
 897 0014 0A2B     		cmp	r3, #10
 898 0016 39D8     		bhi	.L62
 100:Generated_Source\PSoC4/cy_em_eeprom.c ****     {
 899              		.loc 1 100 0 is_stmt 1
 900 0018 0768     		ldr	r7, [r0]
 901 001a 002F     		cmp	r7, #0
 902 001c 38D0     		beq	.L63
 102:Generated_Source\PSoC4/cy_em_eeprom.c **** 
 903              		.loc 1 102 0
 904 001e FFF7FEFF 		bl	CheckRanges
 905              	.LVL122:
 906 0022 061E     		subs	r6, r0, #0
 907              	.LVL123:
 104:Generated_Source\PSoC4/cy_em_eeprom.c ****         {
 908              		.loc 1 104 0
 909 0024 35D1     		bne	.L57
 107:Generated_Source\PSoC4/cy_em_eeprom.c ****             context->wearLevelingFactor = config->wearLevelingFactor;
 910              		.loc 1 107 0
 911 0026 EF60     		str	r7, [r5, #12]
 108:Generated_Source\PSoC4/cy_em_eeprom.c ****             context->redundantCopy = config->redundantCopy;
 912              		.loc 1 108 0
 913 0028 6368     		ldr	r3, [r4, #4]
 914 002a 2B61     		str	r3, [r5, #16]
 109:Generated_Source\PSoC4/cy_em_eeprom.c ****             context->blockingWrite = config->blockingWrite;
 915              		.loc 1 109 0
 916 002c 237A     		ldrb	r3, [r4, #8]
 917 002e 2B75     		strb	r3, [r5, #20]
 110:Generated_Source\PSoC4/cy_em_eeprom.c ****             context->userFlashStartAddr = config->userFlashStartAddr;
 918              		.loc 1 110 0
 919 0030 637A     		ldrb	r3, [r4, #9]
ARM GAS  C:\Users\ORA\AppData\Local\Temp\ccF8tT21.s 			page 43


 920 0032 6B75     		strb	r3, [r5, #21]
 111:Generated_Source\PSoC4/cy_em_eeprom.c ****             /* Store frequently used data for internal use */
 921              		.loc 1 111 0
 922 0034 E368     		ldr	r3, [r4, #12]
 923 0036 AB61     		str	r3, [r5, #24]
 113:Generated_Source\PSoC4/cy_em_eeprom.c ****             context->wlEndAddr = ((CY_EM_EEPROM_GET_EEPROM_SIZE(context->numberOfRows) * config->we
 924              		.loc 1 113 0
 925 0038 2268     		ldr	r2, [r4]
 926 003a D109     		lsrs	r1, r2, #7
 927 003c 7F23     		movs	r3, #127
 928 003e 1340     		ands	r3, r2
 929 0040 00D0     		beq	.L58
 930 0042 0123     		movs	r3, #1
 931              	.L58:
 113:Generated_Source\PSoC4/cy_em_eeprom.c ****             context->wlEndAddr = ((CY_EM_EEPROM_GET_EEPROM_SIZE(context->numberOfRows) * config->we
 932              		.loc 1 113 0 is_stmt 0 discriminator 4
 933 0044 5B18     		adds	r3, r3, r1
 934 0046 6B60     		str	r3, [r5, #4]
 114:Generated_Source\PSoC4/cy_em_eeprom.c ****                     config->userFlashStartAddr);
 935              		.loc 1 114 0 is_stmt 1 discriminator 4
 936 0048 6268     		ldr	r2, [r4, #4]
 937 004a 5343     		muls	r3, r2
 938 004c 1B02     		lsls	r3, r3, #8
 115:Generated_Source\PSoC4/cy_em_eeprom.c ****             /* Find last written EEPROM row and store it for quick access */
 939              		.loc 1 115 0 discriminator 4
 940 004e E268     		ldr	r2, [r4, #12]
 114:Generated_Source\PSoC4/cy_em_eeprom.c ****                     config->userFlashStartAddr);
 941              		.loc 1 114 0 discriminator 4
 942 0050 9B18     		adds	r3, r3, r2
 943 0052 2B60     		str	r3, [r5]
 117:Generated_Source\PSoC4/cy_em_eeprom.c **** 
 944              		.loc 1 117 0 discriminator 4
 945 0054 2C00     		movs	r4, r5
 946              	.LVL124:
 947 0056 0834     		adds	r4, r4, #8
 948 0058 2900     		movs	r1, r5
 949 005a 2000     		movs	r0, r4
 950              	.LVL125:
 951 005c FFF7FEFF 		bl	FindLastWrittenRow
 952              	.LVL126:
 119:Generated_Source\PSoC4/cy_em_eeprom.c ****             {
 953              		.loc 1 119 0 discriminator 4
 954 0060 AB68     		ldr	r3, [r5, #8]
 955 0062 1B68     		ldr	r3, [r3]
 956 0064 002B     		cmp	r3, #0
 957 0066 14D1     		bne	.L57
 119:Generated_Source\PSoC4/cy_em_eeprom.c ****             {
 958              		.loc 1 119 0 is_stmt 0 discriminator 1
 959 0068 2B7D     		ldrb	r3, [r5, #20]
 960 006a 002B     		cmp	r3, #0
 961 006c 11D0     		beq	.L57
 124:Generated_Source\PSoC4/cy_em_eeprom.c ****                 
 962              		.loc 1 124 0 is_stmt 1
 963 006e 2800     		movs	r0, r5
 964 0070 FFF7FEFF 		bl	FillChecksum
 965              	.LVL127:
 966 0074 0600     		movs	r6, r0
ARM GAS  C:\Users\ORA\AppData\Local\Temp\ccF8tT21.s 			page 44


 967              	.LVL128:
 127:Generated_Source\PSoC4/cy_em_eeprom.c ****             }
 968              		.loc 1 127 0
 969 0076 2900     		movs	r1, r5
 970 0078 2000     		movs	r0, r4
 971              	.LVL129:
 972 007a FFF7FEFF 		bl	FindLastWrittenRow
 973              	.LVL130:
 974 007e 08E0     		b	.L57
 975              	.LVL131:
 976              	.L59:
  97:Generated_Source\PSoC4/cy_em_eeprom.c **** 
 977              		.loc 1 97 0
 978 0080 0126     		movs	r6, #1
 979 0082 06E0     		b	.L57
 980              	.L60:
 981 0084 0126     		movs	r6, #1
 982 0086 04E0     		b	.L57
 983              	.L61:
 984 0088 0126     		movs	r6, #1
 985 008a 02E0     		b	.L57
 986              	.L62:
 987 008c 0126     		movs	r6, #1
 988 008e 00E0     		b	.L57
 989              	.L63:
 990 0090 0126     		movs	r6, #1
 991              	.LVL132:
 992              	.L57:
 133:Generated_Source\PSoC4/cy_em_eeprom.c **** 
 993              		.loc 1 133 0
 994 0092 3000     		movs	r0, r6
 995              		@ sp needed
 996              	.LVL133:
 997              	.LVL134:
 998 0094 F8BD     		pop	{r3, r4, r5, r6, r7, pc}
 999              		.cfi_endproc
 1000              	.LFE2:
 1001              		.size	Cy_Em_EEPROM_Init, .-Cy_Em_EEPROM_Init
 1002              		.global	__aeabi_uidiv
 1003 0096 C046     		.section	.text.Cy_Em_EEPROM_Read,"ax",%progbits
 1004              		.align	2
 1005              		.global	Cy_Em_EEPROM_Read
 1006              		.code	16
 1007              		.thumb_func
 1008              		.type	Cy_Em_EEPROM_Read, %function
 1009              	Cy_Em_EEPROM_Read:
 1010              	.LFB3:
 173:Generated_Source\PSoC4/cy_em_eeprom.c ****     cy_en_em_eeprom_status_t ret = CY_EM_EEPROM_BAD_PARAM;
 1011              		.loc 1 173 0
 1012              		.cfi_startproc
 1013              		@ args = 0, pretend = 0, frame = 32
 1014              		@ frame_needed = 0, uses_anonymous_args = 0
 1015              	.LVL135:
 1016 0000 F0B5     		push	{r4, r5, r6, r7, lr}
 1017              		.cfi_def_cfa_offset 20
 1018              		.cfi_offset 4, -20
 1019              		.cfi_offset 5, -16
ARM GAS  C:\Users\ORA\AppData\Local\Temp\ccF8tT21.s 			page 45


 1020              		.cfi_offset 6, -12
 1021              		.cfi_offset 7, -8
 1022              		.cfi_offset 14, -4
 1023 0002 5F46     		mov	r7, fp
 1024 0004 5646     		mov	r6, r10
 1025 0006 4D46     		mov	r5, r9
 1026 0008 4446     		mov	r4, r8
 1027 000a F0B4     		push	{r4, r5, r6, r7}
 1028              		.cfi_def_cfa_offset 36
 1029              		.cfi_offset 8, -36
 1030              		.cfi_offset 9, -32
 1031              		.cfi_offset 10, -28
 1032              		.cfi_offset 11, -24
 1033 000c 8BB0     		sub	sp, sp, #44
 1034              		.cfi_def_cfa_offset 80
 1035 000e 8146     		mov	r9, r0
 1036 0010 0791     		str	r1, [sp, #28]
 1037 0012 9246     		mov	r10, r2
 1038 0014 1F00     		movs	r7, r3
 1039              	.LVL136:
 183:Generated_Source\PSoC4/cy_em_eeprom.c **** 
 1040              		.loc 1 183 0
 1041 0016 0B00     		movs	r3, r1
 1042              	.LVL137:
 1043 0018 0691     		str	r1, [sp, #24]
 1044              	.LVL138:
 186:Generated_Source\PSoC4/cy_em_eeprom.c ****     {
 1045              		.loc 1 186 0
 1046 001a 002A     		cmp	r2, #0
 1047 001c 00D1     		bne	.LCB1085
 1048 001e F6E0     		b	.L89	@long jump
 1049              	.LCB1085:
 186:Generated_Source\PSoC4/cy_em_eeprom.c ****     {
 1050              		.loc 1 186 0 is_stmt 0 discriminator 1
 1051 0020 4A44     		add	r2, r2, r9
 1052              	.LVL139:
 1053 0022 0892     		str	r2, [sp, #32]
 1054 0024 F868     		ldr	r0, [r7, #12]
 1055              	.LVL140:
 1056 0026 8242     		cmp	r2, r0
 1057 0028 00D9     		bls	.LCB1093
 1058 002a F3E0     		b	.L90	@long jump
 1059              	.LCB1093:
 186:Generated_Source\PSoC4/cy_em_eeprom.c ****     {
 1060              		.loc 1 186 0 discriminator 2
 1061 002c 002B     		cmp	r3, #0
 1062 002e 00D1     		bne	.LCB1095
 1063 0030 F3E0     		b	.L91	@long jump
 1064              	.LCB1095:
 1065              	.LVL141:
 1066              	.LBB2:
 191:Generated_Source\PSoC4/cy_em_eeprom.c ****         uint32 updateAddrFlag = 0u;
 1067              		.loc 1 191 0 is_stmt 1
 1068 0032 BC68     		ldr	r4, [r7, #8]
 1069 0034 2368     		ldr	r3, [r4]
 1070 0036 0993     		str	r3, [sp, #36]
 1071              	.LVL142:
ARM GAS  C:\Users\ORA\AppData\Local\Temp\ccF8tT21.s 			page 46


 197:Generated_Source\PSoC4/cy_em_eeprom.c ****                               (rdAddr / CY_EM_EEPROM_EEPROM_DATA_LEN)) + 1u;
 1072              		.loc 1 197 0
 1073 0038 531E     		subs	r3, r2, #1
 1074              	.LVL143:
 1075 003a DB09     		lsrs	r3, r3, #7
 198:Generated_Source\PSoC4/cy_em_eeprom.c **** 
 1076              		.loc 1 198 0
 1077 003c 4A46     		mov	r2, r9
 1078 003e D209     		lsrs	r2, r2, #7
 197:Generated_Source\PSoC4/cy_em_eeprom.c ****                               (rdAddr / CY_EM_EEPROM_EEPROM_DATA_LEN)) + 1u;
 1079              		.loc 1 197 0
 1080 0040 9B1A     		subs	r3, r3, r2
 1081 0042 0133     		adds	r3, r3, #1
 1082 0044 9B46     		mov	fp, r3
 1083              	.LVL144:
 204:Generated_Source\PSoC4/cy_em_eeprom.c ****                               (CY_EM_EEPROM_FLASH_SIZEOF_ROW * context->numberOfRows)) *
 1084              		.loc 1 204 0
 1085 0046 BD69     		ldr	r5, [r7, #24]
 1086 0048 601B     		subs	r0, r4, r5
 205:Generated_Source\PSoC4/cy_em_eeprom.c ****                               (CY_EM_EEPROM_FLASH_SIZEOF_ROW * context->numberOfRows)) +
 1087              		.loc 1 205 0
 1088 004a 7E68     		ldr	r6, [r7, #4]
 1089 004c 3102     		lsls	r1, r6, #8
 1090              	.LVL145:
 204:Generated_Source\PSoC4/cy_em_eeprom.c ****                               (CY_EM_EEPROM_FLASH_SIZEOF_ROW * context->numberOfRows)) *
 1091              		.loc 1 204 0
 1092 004e FFF7FEFF 		bl	__aeabi_uidiv
 1093              	.LVL146:
 205:Generated_Source\PSoC4/cy_em_eeprom.c ****                               (CY_EM_EEPROM_FLASH_SIZEOF_ROW * context->numberOfRows)) +
 1094              		.loc 1 205 0
 1095 0052 7043     		muls	r0, r6
 1096 0054 0002     		lsls	r0, r0, #8
 204:Generated_Source\PSoC4/cy_em_eeprom.c ****                               (CY_EM_EEPROM_FLASH_SIZEOF_ROW * context->numberOfRows)) *
 1097              		.loc 1 204 0
 1098 0056 2B18     		adds	r3, r5, r0
 1099 0058 0393     		str	r3, [sp, #12]
 1100              	.LVL147:
 210:Generated_Source\PSoC4/cy_em_eeprom.c ****         {
 1101              		.loc 1 210 0
 1102 005a 0025     		movs	r5, #0
 1103 005c 4A46     		mov	r2, r9
 1104 005e 0FE0     		b	.L66
 1105              	.LVL148:
 1106              	.L69:
 212:Generated_Source\PSoC4/cy_em_eeprom.c ****             {
 1107              		.loc 1 212 0
 1108 0060 EB01     		lsls	r3, r5, #7
 1109 0062 9A42     		cmp	r2, r3
 1110 0064 06D3     		bcc	.L92
 212:Generated_Source\PSoC4/cy_em_eeprom.c ****             {
 1111              		.loc 1 212 0 is_stmt 0 discriminator 1
 1112 0066 6B1C     		adds	r3, r5, #1
 1113 0068 DB01     		lsls	r3, r3, #7
 1114 006a 013B     		subs	r3, r3, #1
 1115 006c 9A42     		cmp	r2, r3
 1116 006e 03D9     		bls	.L93
 212:Generated_Source\PSoC4/cy_em_eeprom.c ****             {
ARM GAS  C:\Users\ORA\AppData\Local\Temp\ccF8tT21.s 			page 47


 1117              		.loc 1 212 0
 1118 0070 0023     		movs	r3, #0
 1119 0072 02E0     		b	.L67
 1120              	.L92:
 1121 0074 0023     		movs	r3, #0
 1122 0076 00E0     		b	.L67
 1123              	.L93:
 1124 0078 0123     		movs	r3, #1
 1125              	.L67:
 212:Generated_Source\PSoC4/cy_em_eeprom.c ****             {
 1126              		.loc 1 212 0 discriminator 6
 1127 007a 002B     		cmp	r3, #0
 1128 007c 05D1     		bne	.L100
 210:Generated_Source\PSoC4/cy_em_eeprom.c ****         {
 1129              		.loc 1 210 0 is_stmt 1 discriminator 2
 1130 007e 0135     		adds	r5, r5, #1
 1131              	.LVL149:
 1132              	.L66:
 210:Generated_Source\PSoC4/cy_em_eeprom.c ****         {
 1133              		.loc 1 210 0 is_stmt 0 discriminator 1
 1134 0080 B542     		cmp	r5, r6
 1135 0082 EDD3     		bcc	.L69
 1136 0084 9146     		mov	r9, r2
 1137              	.LVL150:
 1138              	.LBE2:
 181:Generated_Source\PSoC4/cy_em_eeprom.c ****     uint32 dataStartEepromRowNum = 0u;
 1139              		.loc 1 181 0 is_stmt 1
 1140 0086 0025     		movs	r5, #0
 1141              	.LVL151:
 1142 0088 00E0     		b	.L68
 1143              	.LVL152:
 1144              	.L100:
 1145 008a 9146     		mov	r9, r2
 1146              	.LVL153:
 1147              	.L68:
 1148              	.LBB9:
 221:Generated_Source\PSoC4/cy_em_eeprom.c **** 
 1149              		.loc 1 221 0
 1150 008c 039B     		ldr	r3, [sp, #12]
 1151 008e E31A     		subs	r3, r4, r3
 1152 0090 1B0A     		lsrs	r3, r3, #8
 1153 0092 1900     		movs	r1, r3
 1154 0094 0593     		str	r3, [sp, #20]
 1155              	.LVL154:
 224:Generated_Source\PSoC4/cy_em_eeprom.c ****         {
 1156              		.loc 1 224 0
 1157 0096 3B69     		ldr	r3, [r7, #16]
 1158 0098 012B     		cmp	r3, #1
 1159 009a 09D9     		bls	.L94
 1160              	.LBB3:
 226:Generated_Source\PSoC4/cy_em_eeprom.c **** 
 1161              		.loc 1 226 0
 1162 009c 5B46     		mov	r3, fp
 1163 009e EB18     		adds	r3, r5, r3
 1164 00a0 013B     		subs	r3, r3, #1
 1165              	.LVL155:
 229:Generated_Source\PSoC4/cy_em_eeprom.c ****                               ((dataEndEepromRowNum > actEepromRowNum) ? 1u : 0u);
ARM GAS  C:\Users\ORA\AppData\Local\Temp\ccF8tT21.s 			page 48


 1166              		.loc 1 229 0
 1167 00a2 8D42     		cmp	r5, r1
 1168 00a4 07D8     		bhi	.L95
 229:Generated_Source\PSoC4/cy_em_eeprom.c ****                               ((dataEndEepromRowNum > actEepromRowNum) ? 1u : 0u);
 1169              		.loc 1 229 0 is_stmt 0 discriminator 1
 1170 00a6 9942     		cmp	r1, r3
 1171 00a8 08D2     		bcs	.L96
 229:Generated_Source\PSoC4/cy_em_eeprom.c ****                               ((dataEndEepromRowNum > actEepromRowNum) ? 1u : 0u);
 1172              		.loc 1 229 0
 1173 00aa 0123     		movs	r3, #1
 1174              	.LVL156:
 1175 00ac 0493     		str	r3, [sp, #16]
 1176 00ae 07E0     		b	.L70
 1177              	.LVL157:
 1178              	.L94:
 1179              	.LBE3:
 192:Generated_Source\PSoC4/cy_em_eeprom.c **** 
 1180              		.loc 1 192 0 is_stmt 1
 1181 00b0 0023     		movs	r3, #0
 1182 00b2 0493     		str	r3, [sp, #16]
 1183 00b4 04E0     		b	.L70
 1184              	.LVL158:
 1185              	.L95:
 1186              	.LBB4:
 229:Generated_Source\PSoC4/cy_em_eeprom.c ****                               ((dataEndEepromRowNum > actEepromRowNum) ? 1u : 0u);
 1187              		.loc 1 229 0
 1188 00b6 0123     		movs	r3, #1
 1189              	.LVL159:
 1190 00b8 0493     		str	r3, [sp, #16]
 1191 00ba 01E0     		b	.L70
 1192              	.LVL160:
 1193              	.L96:
 1194 00bc 0023     		movs	r3, #0
 1195              	.LVL161:
 1196 00be 0493     		str	r3, [sp, #16]
 1197              	.LVL162:
 1198              	.L70:
 1199              	.LBE4:
 188:Generated_Source\PSoC4/cy_em_eeprom.c ****         uint32 rdSize = size;
 1200              		.loc 1 188 0
 1201 00c0 C846     		mov	r8, r9
 1202              	.LBE9:
 183:Generated_Source\PSoC4/cy_em_eeprom.c **** 
 1203              		.loc 1 183 0
 1204 00c2 079B     		ldr	r3, [sp, #28]
 1205              	.LBB10:
 234:Generated_Source\PSoC4/cy_em_eeprom.c ****         {
 1206              		.loc 1 234 0
 1207 00c4 0026     		movs	r6, #0
 1208              	.LBE10:
 174:Generated_Source\PSoC4/cy_em_eeprom.c ****     uint32 i;
 1209              		.loc 1 174 0
 1210 00c6 0122     		movs	r2, #1
 1211              	.LVL163:
 1212 00c8 1000     		movs	r0, r2
 1213 00ca 4A46     		mov	r2, r9
 1214 00cc 0792     		str	r2, [sp, #28]
ARM GAS  C:\Users\ORA\AppData\Local\Temp\ccF8tT21.s 			page 49


 1215              	.LVL164:
 1216 00ce B946     		mov	r9, r7
 1217              	.LVL165:
 1218 00d0 4746     		mov	r7, r8
 1219              	.LVL166:
 1220 00d2 9846     		mov	r8, r3
 1221              	.LBB11:
 234:Generated_Source\PSoC4/cy_em_eeprom.c ****         {
 1222              		.loc 1 234 0
 1223 00d4 3EE0     		b	.L71
 1224              	.LVL167:
 1225              	.L77:
 236:Generated_Source\PSoC4/cy_em_eeprom.c ****             curRowOffset = CY_EM_EEPROM_EEPROM_DATA_LEN + (rdAddr % CY_EM_EEPROM_EEPROM_DATA_LEN);
 1226              		.loc 1 236 0
 1227 00d6 2802     		lsls	r0, r5, #8
 1228              	.LVL168:
 1229 00d8 039B     		ldr	r3, [sp, #12]
 1230 00da 9C46     		mov	ip, r3
 1231 00dc 6044     		add	r0, r0, ip
 1232              	.LVL169:
 237:Generated_Source\PSoC4/cy_em_eeprom.c **** 
 1233              		.loc 1 237 0
 1234 00de 7F24     		movs	r4, #127
 1235 00e0 3C40     		ands	r4, r7
 1236 00e2 2200     		movs	r2, r4
 1237 00e4 8032     		adds	r2, r2, #128
 1238              	.LVL170:
 242:Generated_Source\PSoC4/cy_em_eeprom.c ****             {
 1239              		.loc 1 242 0
 1240 00e6 0136     		adds	r6, r6, #1
 1241              	.LVL171:
 1242 00e8 B345     		cmp	fp, r6
 1243 00ea 02D9     		bls	.L97
 244:Generated_Source\PSoC4/cy_em_eeprom.c ****             }
 1244              		.loc 1 244 0
 1245 00ec 8023     		movs	r3, #128
 1246 00ee 1C1B     		subs	r4, r3, r4
 1247              	.LVL172:
 1248 00f0 00E0     		b	.L72
 1249              	.LVL173:
 1250              	.L97:
 248:Generated_Source\PSoC4/cy_em_eeprom.c ****             }
 1251              		.loc 1 248 0
 1252 00f2 5446     		mov	r4, r10
 1253              	.L72:
 1254              	.LVL174:
 254:Generated_Source\PSoC4/cy_em_eeprom.c ****             {
 1255              		.loc 1 254 0
 1256 00f4 049B     		ldr	r3, [sp, #16]
 1257 00f6 002B     		cmp	r3, #0
 1258 00f8 0FD0     		beq	.L73
 254:Generated_Source\PSoC4/cy_em_eeprom.c ****             {
 1259              		.loc 1 254 0 is_stmt 0 discriminator 1
 1260 00fa 059B     		ldr	r3, [sp, #20]
 1261 00fc 9D42     		cmp	r5, r3
 1262 00fe 0CD9     		bls	.L73
 256:Generated_Source\PSoC4/cy_em_eeprom.c **** 
ARM GAS  C:\Users\ORA\AppData\Local\Temp\ccF8tT21.s 			page 50


 1263              		.loc 1 256 0 is_stmt 1
 1264 0100 4B46     		mov	r3, r9
 1265 0102 5B68     		ldr	r3, [r3, #4]
 1266 0104 1902     		lsls	r1, r3, #8
 1267 0106 401A     		subs	r0, r0, r1
 1268              	.LVL175:
 258:Generated_Source\PSoC4/cy_em_eeprom.c ****                 {
 1269              		.loc 1 258 0
 1270 0108 4946     		mov	r1, r9
 1271 010a 8969     		ldr	r1, [r1, #24]
 1272 010c 8842     		cmp	r0, r1
 1273 010e 04D2     		bcs	.L73
 261:Generated_Source\PSoC4/cy_em_eeprom.c ****                 }
 1274              		.loc 1 261 0
 1275 0110 581B     		subs	r0, r3, r5
 1276              	.LVL176:
 1277 0112 0302     		lsls	r3, r0, #8
 1278              	.LVL177:
 260:Generated_Source\PSoC4/cy_em_eeprom.c ****                         ((context->numberOfRows - curRdEepromRowNum) * CY_EM_EEPROM_FLASH_SIZEOF_RO
 1279              		.loc 1 260 0
 1280 0114 4946     		mov	r1, r9
 1281 0116 0968     		ldr	r1, [r1]
 1282 0118 C81A     		subs	r0, r1, r3
 1283              	.LVL178:
 1284              	.L73:
 265:Generated_Source\PSoC4/cy_em_eeprom.c ****             {
 1285              		.loc 1 265 0
 1286 011a 4B46     		mov	r3, r9
 1287 011c 1B7D     		ldrb	r3, [r3, #20]
 1288 011e 002B     		cmp	r3, #0
 1289 0120 0CD0     		beq	.L74
 270:Generated_Source\PSoC4/cy_em_eeprom.c **** 
 1290              		.loc 1 270 0
 1291 0122 4B46     		mov	r3, r9
 1292 0124 0093     		str	r3, [sp]
 1293 0126 2300     		movs	r3, r4
 1294 0128 4146     		mov	r1, r8
 1295 012a FFF7FEFF 		bl	CheckCrcAndCopy
 1296              	.LVL179:
 272:Generated_Source\PSoC4/cy_em_eeprom.c ****                 {
 1297              		.loc 1 272 0
 1298 012e 0028     		cmp	r0, #0
 1299 0130 0AD0     		beq	.L76
 1300 0132 8246     		mov	r10, r0
 1301              	.LVL180:
 1302 0134 4F46     		mov	r7, r9
 1303              	.LVL181:
 1304 0136 079B     		ldr	r3, [sp, #28]
 1305 0138 9946     		mov	r9, r3
 1306              	.LVL182:
 1307 013a 11E0     		b	.L75
 1308              	.LVL183:
 1309              	.L74:
 281:Generated_Source\PSoC4/cy_em_eeprom.c ****                              numBytesToRead);
 1310              		.loc 1 281 0
 1311 013c 8118     		adds	r1, r0, r2
 280:Generated_Source\PSoC4/cy_em_eeprom.c ****                              (void *)(startRowAddr + curRowOffset),
ARM GAS  C:\Users\ORA\AppData\Local\Temp\ccF8tT21.s 			page 51


 1312              		.loc 1 280 0
 1313 013e 2200     		movs	r2, r4
 1314              	.LVL184:
 1315 0140 4046     		mov	r0, r8
 1316              	.LVL185:
 1317 0142 FFF7FEFF 		bl	memcpy
 1318              	.LVL186:
 285:Generated_Source\PSoC4/cy_em_eeprom.c ****             }
 1319              		.loc 1 285 0
 1320 0146 0020     		movs	r0, #0
 1321              	.LVL187:
 1322              	.L76:
 289:Generated_Source\PSoC4/cy_em_eeprom.c ****             rdSize -= numBytesToRead;
 1323              		.loc 1 289 0 discriminator 2
 1324 0148 3F19     		adds	r7, r7, r4
 1325              	.LVL188:
 290:Generated_Source\PSoC4/cy_em_eeprom.c ****             eeData += numBytesToRead;
 1326              		.loc 1 290 0 discriminator 2
 1327 014a 5346     		mov	r3, r10
 1328 014c 1B1B     		subs	r3, r3, r4
 1329 014e 9A46     		mov	r10, r3
 1330              	.LVL189:
 291:Generated_Source\PSoC4/cy_em_eeprom.c ****             curRdEepromRowNum++;
 1331              		.loc 1 291 0 discriminator 2
 1332 0150 A044     		add	r8, r8, r4
 1333              	.LVL190:
 292:Generated_Source\PSoC4/cy_em_eeprom.c ****         }
 1334              		.loc 1 292 0 discriminator 2
 1335 0152 0135     		adds	r5, r5, #1
 1336              	.LVL191:
 1337              	.L71:
 234:Generated_Source\PSoC4/cy_em_eeprom.c ****         {
 1338              		.loc 1 234 0 discriminator 1
 1339 0154 5E45     		cmp	r6, fp
 1340 0156 BED3     		bcc	.L77
 1341 0158 8246     		mov	r10, r0
 1342              	.LVL192:
 1343 015a 4F46     		mov	r7, r9
 1344              	.LVL193:
 1345 015c 079B     		ldr	r3, [sp, #28]
 1346 015e 9946     		mov	r9, r3
 1347              	.LVL194:
 1348              	.L75:
 303:Generated_Source\PSoC4/cy_em_eeprom.c ****         {
 1349              		.loc 1 303 0
 1350 0160 5346     		mov	r3, r10
 1351 0162 002B     		cmp	r3, #0
 1352 0164 5BD1     		bne	.L65
 303:Generated_Source\PSoC4/cy_em_eeprom.c ****         {
 1353              		.loc 1 303 0 is_stmt 0 discriminator 1
 1354 0166 099A     		ldr	r2, [sp, #36]
 1355 0168 002A     		cmp	r2, #0
 1356 016a 58D0     		beq	.L65
 305:Generated_Source\PSoC4/cy_em_eeprom.c ****             numRowReads--;
 1357              		.loc 1 305 0 is_stmt 1
 1358 016c 7B68     		ldr	r3, [r7, #4]
 1359 016e 1400     		movs	r4, r2
ARM GAS  C:\Users\ORA\AppData\Local\Temp\ccF8tT21.s 			page 52


 1360 0170 9A42     		cmp	r2, r3
 1361 0172 00D9     		bls	.L78
 1362 0174 1C00     		movs	r4, r3
 1363              	.L78:
 1364              	.LVL195:
 306:Generated_Source\PSoC4/cy_em_eeprom.c **** 
 1365              		.loc 1 306 0
 1366 0176 013C     		subs	r4, r4, #1
 1367              	.LVL196:
 308:Generated_Source\PSoC4/cy_em_eeprom.c ****             {
 1368              		.loc 1 308 0
 1369 0178 099B     		ldr	r3, [sp, #36]
 1370 017a 1C1B     		subs	r4, r3, r4
 1371              	.LVL197:
 1372 017c 089A     		ldr	r2, [sp, #32]
 1373 017e 9046     		mov	r8, r2
 1374              	.LVL198:
 1375 0180 1D00     		movs	r5, r3
 1376              	.LVL199:
 1377 0182 0397     		str	r7, [sp, #12]
 1378              	.LVL200:
 1379 0184 4F46     		mov	r7, r9
 1380              	.LVL201:
 1381 0186 3FE0     		b	.L79
 1382              	.L88:
 310:Generated_Source\PSoC4/cy_em_eeprom.c **** 
 1383              		.loc 1 310 0
 1384 0188 0399     		ldr	r1, [sp, #12]
 1385 018a 2000     		movs	r0, r4
 1386 018c FFF7FEFF 		bl	GetRowAddrBySeqNum
 1387              	.LVL202:
 312:Generated_Source\PSoC4/cy_em_eeprom.c ****                 {
 1388              		.loc 1 312 0
 1389 0190 0028     		cmp	r0, #0
 1390 0192 38D0     		beq	.L80
 1391              	.LBB5:
 315:Generated_Source\PSoC4/cy_em_eeprom.c ****                     uint32 endAddr    = startAddr + (*(uint32 *)(startRowAddr + CY_EM_EEPROM_HEADER
 1392              		.loc 1 315 0
 1393 0194 4668     		ldr	r6, [r0, #4]
 1394              	.LVL203:
 316:Generated_Source\PSoC4/cy_em_eeprom.c **** 
 1395              		.loc 1 316 0
 1396 0196 8368     		ldr	r3, [r0, #8]
 1397 0198 F318     		adds	r3, r6, r3
 1398              	.LVL204:
 319:Generated_Source\PSoC4/cy_em_eeprom.c ****                     {
 1399              		.loc 1 319 0
 1400 019a B742     		cmp	r7, r6
 1401 019c 03D2     		bcs	.L81
 319:Generated_Source\PSoC4/cy_em_eeprom.c ****                     {
 1402              		.loc 1 319 0 is_stmt 0 discriminator 1
 1403 019e 4645     		cmp	r6, r8
 1404 01a0 9241     		sbcs	r2, r2, r2
 1405 01a2 5242     		rsbs	r2, r2, #0
 1406 01a4 02E0     		b	.L82
 1407              	.L81:
 319:Generated_Source\PSoC4/cy_em_eeprom.c ****                     {
ARM GAS  C:\Users\ORA\AppData\Local\Temp\ccF8tT21.s 			page 53


 1408              		.loc 1 319 0 discriminator 2
 1409 01a6 9F42     		cmp	r7, r3
 1410 01a8 9241     		sbcs	r2, r2, r2
 1411 01aa 5242     		rsbs	r2, r2, #0
 1412              	.L82:
 319:Generated_Source\PSoC4/cy_em_eeprom.c ****                     {
 1413              		.loc 1 319 0 discriminator 4
 1414 01ac 002A     		cmp	r2, #0
 1415 01ae 2AD0     		beq	.L80
 1416              	.LBB6:
 321:Generated_Source\PSoC4/cy_em_eeprom.c ****                         uint32 dstOffset = (startAddr > addr) ? (startAddr - addr): (0u);
 1417              		.loc 1 321 0 is_stmt 1
 1418 01b0 B742     		cmp	r7, r6
 1419 01b2 01D3     		bcc	.L98
 321:Generated_Source\PSoC4/cy_em_eeprom.c ****                         uint32 dstOffset = (startAddr > addr) ? (startAddr - addr): (0u);
 1420              		.loc 1 321 0 is_stmt 0 discriminator 1
 1421 01b4 BA1B     		subs	r2, r7, r6
 1422 01b6 00E0     		b	.L83
 1423              	.L98:
 321:Generated_Source\PSoC4/cy_em_eeprom.c ****                         uint32 dstOffset = (startAddr > addr) ? (startAddr - addr): (0u);
 1424              		.loc 1 321 0
 1425 01b8 0022     		movs	r2, #0
 1426              	.L83:
 1427              	.LVL205:
 322:Generated_Source\PSoC4/cy_em_eeprom.c ****                         rdAddr = (startAddr > addr) ? (startAddr) : (addr);
 1428              		.loc 1 322 0 is_stmt 1 discriminator 4
 1429 01ba B742     		cmp	r7, r6
 1430 01bc 02D2     		bcs	.L99
 322:Generated_Source\PSoC4/cy_em_eeprom.c ****                         rdAddr = (startAddr > addr) ? (startAddr) : (addr);
 1431              		.loc 1 322 0 is_stmt 0 discriminator 1
 1432 01be F11B     		subs	r1, r6, r7
 1433 01c0 8C46     		mov	ip, r1
 1434 01c2 01E0     		b	.L84
 1435              	.L99:
 322:Generated_Source\PSoC4/cy_em_eeprom.c ****                         rdAddr = (startAddr > addr) ? (startAddr) : (addr);
 1436              		.loc 1 322 0
 1437 01c4 0021     		movs	r1, #0
 1438 01c6 8C46     		mov	ip, r1
 1439              	.L84:
 1440              	.LVL206:
 323:Generated_Source\PSoC4/cy_em_eeprom.c **** 
 1441              		.loc 1 323 0 is_stmt 1 discriminator 4
 1442 01c8 3900     		movs	r1, r7
 1443 01ca B742     		cmp	r7, r6
 1444 01cc 00D2     		bcs	.L85
 1445 01ce 3100     		movs	r1, r6
 1446              	.L85:
 1447              	.LVL207:
 325:Generated_Source\PSoC4/cy_em_eeprom.c **** 
 1448              		.loc 1 325 0 discriminator 4
 1449 01d0 0C32     		adds	r2, r2, #12
 1450              	.LVL208:
 328:Generated_Source\PSoC4/cy_em_eeprom.c **** 
 1451              		.loc 1 328 0 discriminator 4
 1452 01d2 4646     		mov	r6, r8
 1453              	.LVL209:
 1454 01d4 9845     		cmp	r8, r3
ARM GAS  C:\Users\ORA\AppData\Local\Temp\ccF8tT21.s 			page 54


 1455 01d6 00D9     		bls	.L86
 1456 01d8 1E00     		movs	r6, r3
 1457              	.L86:
 1458 01da 731A     		subs	r3, r6, r1
 1459              	.LVL210:
 331:Generated_Source\PSoC4/cy_em_eeprom.c **** 
 1460              		.loc 1 331 0 discriminator 4
 1461 01dc 0699     		ldr	r1, [sp, #24]
 1462              	.LVL211:
 1463 01de 6144     		add	r1, r1, ip
 1464 01e0 0E00     		movs	r6, r1
 1465              	.LVL212:
 338:Generated_Source\PSoC4/cy_em_eeprom.c ****                         {
 1466              		.loc 1 338 0 discriminator 4
 1467 01e2 0399     		ldr	r1, [sp, #12]
 1468              	.LVL213:
 1469 01e4 097D     		ldrb	r1, [r1, #20]
 1470 01e6 0029     		cmp	r1, #0
 1471 01e8 08D0     		beq	.L87
 340:Generated_Source\PSoC4/cy_em_eeprom.c **** 
 1472              		.loc 1 340 0
 1473 01ea 0399     		ldr	r1, [sp, #12]
 1474 01ec 0091     		str	r1, [sp]
 1475              	.LVL214:
 1476 01ee 3100     		movs	r1, r6
 1477 01f0 FFF7FEFF 		bl	CheckCrcAndCopy
 1478              	.LVL215:
 1479 01f4 8246     		mov	r10, r0
 1480              	.LVL216:
 342:Generated_Source\PSoC4/cy_em_eeprom.c ****                             {
 1481              		.loc 1 342 0
 1482 01f6 0028     		cmp	r0, #0
 1483 01f8 05D0     		beq	.L80
 1484              	.LBE6:
 1485              	.LBE5:
 1486 01fa 10E0     		b	.L65
 1487              	.LVL217:
 1488              	.L87:
 1489              	.LBB8:
 1490              	.LBB7:
 349:Generated_Source\PSoC4/cy_em_eeprom.c ****                         }
 1491              		.loc 1 349 0
 1492 01fc 8118     		adds	r1, r0, r2
 1493 01fe 1A00     		movs	r2, r3
 1494              	.LVL218:
 1495 0200 3000     		movs	r0, r6
 1496              	.LVL219:
 1497 0202 FFF7FEFF 		bl	memcpy
 1498              	.LVL220:
 1499              	.L80:
 1500              	.LBE7:
 1501              	.LBE8:
 308:Generated_Source\PSoC4/cy_em_eeprom.c ****             {
 1502              		.loc 1 308 0 discriminator 2
 1503 0206 0134     		adds	r4, r4, #1
 1504              	.LVL221:
 1505              	.L79:
ARM GAS  C:\Users\ORA\AppData\Local\Temp\ccF8tT21.s 			page 55


 308:Generated_Source\PSoC4/cy_em_eeprom.c ****             {
 1506              		.loc 1 308 0 is_stmt 0 discriminator 1
 1507 0208 AC42     		cmp	r4, r5
 1508 020a BDD9     		bls	.L88
 1509 020c 07E0     		b	.L65
 1510              	.LVL222:
 1511              	.L89:
 1512              	.LBE11:
 174:Generated_Source\PSoC4/cy_em_eeprom.c ****     uint32 i;
 1513              		.loc 1 174 0 is_stmt 1
 1514 020e 0123     		movs	r3, #1
 1515 0210 9A46     		mov	r10, r3
 1516 0212 04E0     		b	.L65
 1517              	.LVL223:
 1518              	.L90:
 1519 0214 0123     		movs	r3, #1
 1520 0216 9A46     		mov	r10, r3
 1521              	.LVL224:
 1522 0218 01E0     		b	.L65
 1523              	.LVL225:
 1524              	.L91:
 1525 021a 0123     		movs	r3, #1
 1526 021c 9A46     		mov	r10, r3
 1527              	.LVL226:
 1528              	.L65:
 358:Generated_Source\PSoC4/cy_em_eeprom.c **** 
 1529              		.loc 1 358 0
 1530 021e 5046     		mov	r0, r10
 1531 0220 0BB0     		add	sp, sp, #44
 1532              		@ sp needed
 1533              	.LVL227:
 1534 0222 3CBC     		pop	{r2, r3, r4, r5}
 1535 0224 9046     		mov	r8, r2
 1536 0226 9946     		mov	r9, r3
 1537 0228 A246     		mov	r10, r4
 1538 022a AB46     		mov	fp, r5
 1539 022c F0BD     		pop	{r4, r5, r6, r7, pc}
 1540              		.cfi_endproc
 1541              	.LFE3:
 1542              		.size	Cy_Em_EEPROM_Read, .-Cy_Em_EEPROM_Read
 1543              		.global	__aeabi_uidivmod
 1544 022e C046     		.section	.text.Cy_Em_EEPROM_Write,"ax",%progbits
 1545              		.align	2
 1546              		.global	Cy_Em_EEPROM_Write
 1547              		.code	16
 1548              		.thumb_func
 1549              		.type	Cy_Em_EEPROM_Write, %function
 1550              	Cy_Em_EEPROM_Write:
 1551              	.LFB4:
 415:Generated_Source\PSoC4/cy_em_eeprom.c ****     cy_en_em_eeprom_status_t ret = CY_EM_EEPROM_BAD_PARAM;
 1552              		.loc 1 415 0
 1553              		.cfi_startproc
 1554              		@ args = 0, pretend = 0, frame = 296
 1555              		@ frame_needed = 0, uses_anonymous_args = 0
 1556              	.LVL228:
 1557 0000 F0B5     		push	{r4, r5, r6, r7, lr}
 1558              		.cfi_def_cfa_offset 20
ARM GAS  C:\Users\ORA\AppData\Local\Temp\ccF8tT21.s 			page 56


 1559              		.cfi_offset 4, -20
 1560              		.cfi_offset 5, -16
 1561              		.cfi_offset 6, -12
 1562              		.cfi_offset 7, -8
 1563              		.cfi_offset 14, -4
 1564 0002 5F46     		mov	r7, fp
 1565 0004 5646     		mov	r6, r10
 1566 0006 4D46     		mov	r5, r9
 1567 0008 4446     		mov	r4, r8
 1568 000a F0B4     		push	{r4, r5, r6, r7}
 1569              		.cfi_def_cfa_offset 36
 1570              		.cfi_offset 8, -36
 1571              		.cfi_offset 9, -32
 1572              		.cfi_offset 10, -28
 1573              		.cfi_offset 11, -24
 1574 000c CDB0     		sub	sp, sp, #308
 1575              		.cfi_def_cfa_offset 344
 1576 000e 8246     		mov	r10, r0
 1577 0010 9346     		mov	fp, r2
 1578 0012 1D00     		movs	r5, r3
 1579              	.LVL229:
 421:Generated_Source\PSoC4/cy_em_eeprom.c ****     uint32 endAddr = 0u;
 1580              		.loc 1 421 0
 1581 0014 0023     		movs	r3, #0
 1582              	.LVL230:
 1583 0016 0B93     		str	r3, [sp, #44]
 422:Generated_Source\PSoC4/cy_em_eeprom.c ****     uint32 tmpRowAddr;
 1584              		.loc 1 422 0
 1585 0018 0A93     		str	r3, [sp, #40]
 424:Generated_Source\PSoC4/cy_em_eeprom.c ****     uint32 emEepromRowRdAddr;
 1586              		.loc 1 424 0
 1587 001a AB68     		ldr	r3, [r5, #8]
 1588 001c 0993     		str	r3, [sp, #36]
 427:Generated_Source\PSoC4/cy_em_eeprom.c **** 
 1589              		.loc 1 427 0
 1590 001e 0391     		str	r1, [sp, #12]
 1591              	.LVL231:
 430:Generated_Source\PSoC4/cy_em_eeprom.c ****     {
 1592              		.loc 1 430 0
 1593 0020 131E     		subs	r3, r2, #0
 1594 0022 00D1     		bne	.LCB1777
 1595 0024 A8E0     		b	.L119	@long jump
 1596              	.LCB1777:
 430:Generated_Source\PSoC4/cy_em_eeprom.c ****     {
 1597              		.loc 1 430 0 is_stmt 0 discriminator 1
 1598 0026 5344     		add	r3, r3, r10
 1599 0028 EA68     		ldr	r2, [r5, #12]
 1600              	.LVL232:
 1601 002a 9342     		cmp	r3, r2
 1602 002c 00D9     		bls	.LCB1783
 1603 002e A5E0     		b	.L120	@long jump
 1604              	.LCB1783:
 430:Generated_Source\PSoC4/cy_em_eeprom.c ****     {
 1605              		.loc 1 430 0 discriminator 2
 1606 0030 0029     		cmp	r1, #0
 1607 0032 00D1     		bne	.LCB1785
 1608 0034 A4E0     		b	.L121	@long jump
ARM GAS  C:\Users\ORA\AppData\Local\Temp\ccF8tT21.s 			page 57


 1609              	.LCB1785:
 1610              	.LBB12:
 432:Generated_Source\PSoC4/cy_em_eeprom.c ****         uint32 eeHeaderDataOffset = 0u;
 1611              		.loc 1 432 0 is_stmt 1
 1612 0036 5B46     		mov	r3, fp
 1613 0038 581E     		subs	r0, r3, #1
 1614              	.LVL233:
 1615 003a 7021     		movs	r1, #112
 1616              	.LVL234:
 1617 003c FFF7FEFF 		bl	__aeabi_uidiv
 1618              	.LVL235:
 1619 0040 0300     		movs	r3, r0
 1620 0042 0590     		str	r0, [sp, #20]
 1621 0044 0133     		adds	r3, r3, #1
 1622 0046 0493     		str	r3, [sp, #16]
 1623              	.LVL236:
 433:Generated_Source\PSoC4/cy_em_eeprom.c **** 
 1624              		.loc 1 433 0
 1625 0048 0023     		movs	r3, #0
 1626              	.LVL237:
 1627 004a 0793     		str	r3, [sp, #28]
 1628              	.LVL238:
 435:Generated_Source\PSoC4/cy_em_eeprom.c ****         {
 1629              		.loc 1 435 0
 1630 004c 9946     		mov	r9, r3
 1631              	.LBE12:
 416:Generated_Source\PSoC4/cy_em_eeprom.c ****     uint32 i;
 1632              		.loc 1 416 0
 1633 004e 0120     		movs	r0, #1
 1634              	.LBB15:
 435:Generated_Source\PSoC4/cy_em_eeprom.c ****         {
 1635              		.loc 1 435 0
 1636 0050 8DE0     		b	.L103
 1637              	.LVL239:
 1638              	.L118:
 1639              	.LBB13:
 439:Generated_Source\PSoC4/cy_em_eeprom.c **** 
 1640              		.loc 1 439 0
 1641 0052 099B     		ldr	r3, [sp, #36]
 1642 0054 1C68     		ldr	r4, [r3]
 1643              	.LVL240:
 446:Generated_Source\PSoC4/cy_em_eeprom.c **** 
 1644              		.loc 1 446 0
 1645 0056 2B00     		movs	r3, r5
 1646 0058 08AA     		add	r2, sp, #32
 1647 005a 09A9     		add	r1, sp, #36
 1648 005c 2000     		movs	r0, r4
 1649              	.LVL241:
 1650 005e FFF7FEFF 		bl	GetNextRowToWrite
 1651              	.LVL242:
 449:Generated_Source\PSoC4/cy_em_eeprom.c **** 
 1652              		.loc 1 449 0
 1653 0062 8022     		movs	r2, #128
 1654 0064 5200     		lsls	r2, r2, #1
 1655 0066 0021     		movs	r1, #0
 1656 0068 0CA8     		add	r0, sp, #48
 1657 006a FFF7FEFF 		bl	memset
ARM GAS  C:\Users\ORA\AppData\Local\Temp\ccF8tT21.s 			page 58


 1658              	.LVL243:
 452:Generated_Source\PSoC4/cy_em_eeprom.c ****             writeRamBuffer[CY_EM_EEPROM_HEADER_SEQ_NUM_OFFSET_U32] = seqNum;
 1659              		.loc 1 452 0
 1660 006e 631C     		adds	r3, r4, #1
 1661 0070 9846     		mov	r8, r3
 1662              	.LVL244:
 453:Generated_Source\PSoC4/cy_em_eeprom.c ****             writeRamBuffer[CY_EM_EEPROM_HEADER_ADDR_OFFSET_U32] = addr;
 1663              		.loc 1 453 0
 1664 0072 0C93     		str	r3, [sp, #48]
 454:Generated_Source\PSoC4/cy_em_eeprom.c ****             tmpData = (void *) eeData;
 1665              		.loc 1 454 0
 1666 0074 5346     		mov	r3, r10
 1667              	.LVL245:
 1668 0076 0D93     		str	r3, [sp, #52]
 455:Generated_Source\PSoC4/cy_em_eeprom.c **** 
 1669              		.loc 1 455 0
 1670 0078 0399     		ldr	r1, [sp, #12]
 1671              	.LVL246:
 458:Generated_Source\PSoC4/cy_em_eeprom.c ****             {
 1672              		.loc 1 458 0
 1673 007a 059B     		ldr	r3, [sp, #20]
 1674 007c 9945     		cmp	r9, r3
 1675 007e 02D1     		bne	.L104
 461:Generated_Source\PSoC4/cy_em_eeprom.c ****             }
 1676              		.loc 1 461 0
 1677 0080 5B46     		mov	r3, fp
 1678 0082 0E93     		str	r3, [sp, #56]
 1679 0084 0AE0     		b	.L105
 1680              	.L104:
 469:Generated_Source\PSoC4/cy_em_eeprom.c ****                 size -= CY_EM_EEPROM_HEADER_DATA_LEN;
 1681              		.loc 1 469 0
 1682 0086 7023     		movs	r3, #112
 1683 0088 0E93     		str	r3, [sp, #56]
 470:Generated_Source\PSoC4/cy_em_eeprom.c ****                 addr += CY_EM_EEPROM_HEADER_DATA_LEN;
 1684              		.loc 1 470 0
