ARM GAS  C:\Users\ORA\AppData\Local\Temp\ccD4Qtzw.s 			page 1


   1              		.syntax unified
   2              		.cpu cortex-m0
   3              		.fpu softvfp
   4              		.eabi_attribute 20, 1
   5              		.eabi_attribute 21, 1
   6              		.eabi_attribute 23, 3
   7              		.eabi_attribute 24, 1
   8              		.eabi_attribute 25, 1
   9              		.eabi_attribute 26, 1
  10              		.eabi_attribute 30, 1
  11              		.eabi_attribute 34, 0
  12              		.eabi_attribute 18, 4
  13              		.thumb
  14              		.syntax unified
  15              		.file	"main.c"
  16              		.text
  17              	.Ltext0:
  18              		.cfi_sections	.debug_frame
  19              		.section	.text.main,"ax",%progbits
  20              		.align	2
  21              		.global	main
  22              		.code	16
  23              		.thumb_func
  24              		.type	main, %function
  25              	main:
  26              	.LFB35:
  27              		.file 1 "main.c"
   1:main.c        **** /* ========================================
   2:main.c        ****  *
   3:main.c        ****  * Copyright YOUR COMPANY, THE YEAR
   4:main.c        ****  * All Rights Reserved
   5:main.c        ****  * UNPUBLISHED, LICENSED SOFTWARE.
   6:main.c        ****  *
   7:main.c        ****  * CONFIDENTIAL AND PROPRIETARY INFORMATION
   8:main.c        ****  * WHICH IS THE PROPERTY OF your company.
   9:main.c        ****  *
  10:main.c        ****  * ========================================
  11:main.c        **** */
  12:main.c        **** #include "project.h"
  13:main.c        **** 
  14:main.c        **** 
  15:main.c        **** int main(void)
  16:main.c        **** {
  28              		.loc 1 16 0
  29              		.cfi_startproc
  30              		@ args = 0, pretend = 0, frame = 0
  31              		@ frame_needed = 0, uses_anonymous_args = 0
  32 0000 70B5     		push	{r4, r5, r6, lr}
  33              		.cfi_def_cfa_offset 16
  34              		.cfi_offset 4, -16
  35              		.cfi_offset 5, -12
  36              		.cfi_offset 6, -8
  37              		.cfi_offset 14, -4
  38              	.LVL0:
  17:main.c        ****     int status = 0 ;
  18:main.c        ****     int oldStatus = -1 ;
  19:main.c        ****     
ARM GAS  C:\Users\ORA\AppData\Local\Temp\ccD4Qtzw.s 			page 2


  20:main.c        ****     CyGlobalIntEnable; /* Enable global interrupts. */
  39              		.loc 1 20 0
  40              		.syntax divided
  41              	@ 20 "main.c" 1
  42 0002 62B6     		CPSIE   i
  43              	@ 0 "" 2
  21:main.c        ****     UART_Start();
  44              		.loc 1 21 0
  45              		.thumb
  46              		.syntax unified
  47 0004 FFF7FEFF 		bl	UART_Start
  48              	.LVL1:
  22:main.c        ****     UART_UartPutString("LED Status : \n");
  49              		.loc 1 22 0
  50 0008 0848     		ldr	r0, .L4
  51 000a FFF7FEFF 		bl	UART_UartPutString
  52              	.LVL2:
  18:main.c        ****     
  53              		.loc 1 18 0
  54 000e 0125     		movs	r5, #1
  55 0010 6D42     		rsbs	r5, r5, #0
  56              	.LVL3:
  57              	.L2:
  23:main.c        ****     for (;;){
  24:main.c        ****         status = Status_Read();
  58              		.loc 1 24 0
  59 0012 FFF7FEFF 		bl	Status_Read
  60              	.LVL4:
  61 0016 0400     		movs	r4, r0
  62              	.LVL5:
  25:main.c        ****         if (status != oldStatus){
  63              		.loc 1 25 0
  64 0018 8542     		cmp	r5, r0
  65 001a FAD0     		beq	.L2
  26:main.c        ****             UART_UartPutChar('0' + status);
  66              		.loc 1 26 0
  67 001c 3030     		adds	r0, r0, #48
  68              	.LVL6:
  69 001e FFF7FEFF 		bl	UART_SpiUartWriteTxData
  70              	.LVL7:
  27:main.c        ****             UART_UartPutChar('\r');
  71              		.loc 1 27 0
  72 0022 0D20     		movs	r0, #13
  73 0024 FFF7FEFF 		bl	UART_SpiUartWriteTxData
  74              	.LVL8:
  28:main.c        ****             oldStatus = status;
  75              		.loc 1 28 0
  76 0028 2500     		movs	r5, r4
  77 002a F2E7     		b	.L2
  78              	.L5:
  79              		.align	2
  80              	.L4:
  81 002c 00000000 		.word	.LC0
  82              		.cfi_endproc
  83              	.LFE35:
  84              		.size	main, .-main
  85              		.section	.rodata.str1.4,"aMS",%progbits,1
ARM GAS  C:\Users\ORA\AppData\Local\Temp\ccD4Qtzw.s 			page 3


  86              		.align	2
  87              	.LC0:
  88 0000 4C454420 		.ascii	"LED Status : \012\000"
  88      53746174 
  88      7573203A 
  88      200A00
  89              		.text
  90              	.Letext0:
  91              		.file 2 "Generated_Source\\PSoC4/UART.h"
  92              		.file 3 "Generated_Source\\PSoC4/UART_SPI_UART.h"
  93              		.file 4 "Generated_Source\\PSoC4/Status.h"
  94              		.file 5 "Generated_Source\\PSoC4/cytypes.h"
