ARM GAS  C:\Users\ORA\AppData\Local\Temp\ccMLbHOE.s 			page 1


   1              		.syntax unified
   2              		.cpu cortex-m0
   3              		.fpu softvfp
   4              		.eabi_attribute 20, 1
   5              		.eabi_attribute 21, 1
   6              		.eabi_attribute 23, 3
   7              		.eabi_attribute 24, 1
   8              		.eabi_attribute 25, 1
   9              		.eabi_attribute 26, 1
  10              		.eabi_attribute 30, 1
  11              		.eabi_attribute 34, 0
  12              		.eabi_attribute 18, 4
  13              		.thumb
  14              		.syntax unified
  15              		.file	"I2C_SCBCLK.c"
  16              		.text
  17              	.Ltext0:
  18              		.cfi_sections	.debug_frame
  19              		.section	.text.I2C_SCBCLK_StartEx,"ax",%progbits
  20              		.align	2
  21              		.global	I2C_SCBCLK_StartEx
  22              		.code	16
  23              		.thumb_func
  24              		.type	I2C_SCBCLK_StartEx, %function
  25              	I2C_SCBCLK_StartEx:
  26              	.LFB0:
  27              		.file 1 "Generated_Source\\PSoC4\\I2C_SCBCLK.c"
   1:Generated_Source\PSoC4/I2C_SCBCLK.c **** /*******************************************************************************
   2:Generated_Source\PSoC4/I2C_SCBCLK.c **** * File Name: I2C_SCBCLK.c
   3:Generated_Source\PSoC4/I2C_SCBCLK.c **** * Version 2.20
   4:Generated_Source\PSoC4/I2C_SCBCLK.c **** *
   5:Generated_Source\PSoC4/I2C_SCBCLK.c **** *  Description:
   6:Generated_Source\PSoC4/I2C_SCBCLK.c **** *   Provides system API for the clocking, interrupts and watchdog timer.
   7:Generated_Source\PSoC4/I2C_SCBCLK.c **** *
   8:Generated_Source\PSoC4/I2C_SCBCLK.c **** *  Note:
   9:Generated_Source\PSoC4/I2C_SCBCLK.c **** *   Documentation of the API's in this file is located in the
  10:Generated_Source\PSoC4/I2C_SCBCLK.c **** *   System Reference Guide provided with PSoC Creator.
  11:Generated_Source\PSoC4/I2C_SCBCLK.c **** *
  12:Generated_Source\PSoC4/I2C_SCBCLK.c **** ********************************************************************************
  13:Generated_Source\PSoC4/I2C_SCBCLK.c **** * Copyright 2008-2012, Cypress Semiconductor Corporation.  All rights reserved.
  14:Generated_Source\PSoC4/I2C_SCBCLK.c **** * You may use this file only in accordance with the license, terms, conditions,
  15:Generated_Source\PSoC4/I2C_SCBCLK.c **** * disclaimers, and limitations in the end user license agreement accompanying
  16:Generated_Source\PSoC4/I2C_SCBCLK.c **** * the software package with which this file was provided.
  17:Generated_Source\PSoC4/I2C_SCBCLK.c **** *******************************************************************************/
  18:Generated_Source\PSoC4/I2C_SCBCLK.c **** 
  19:Generated_Source\PSoC4/I2C_SCBCLK.c **** #include <cydevice_trm.h>
  20:Generated_Source\PSoC4/I2C_SCBCLK.c **** #include "I2C_SCBCLK.h"
  21:Generated_Source\PSoC4/I2C_SCBCLK.c **** 
  22:Generated_Source\PSoC4/I2C_SCBCLK.c **** #if defined CYREG_PERI_DIV_CMD
  23:Generated_Source\PSoC4/I2C_SCBCLK.c **** 
  24:Generated_Source\PSoC4/I2C_SCBCLK.c **** /*******************************************************************************
  25:Generated_Source\PSoC4/I2C_SCBCLK.c **** * Function Name: I2C_SCBCLK_StartEx
  26:Generated_Source\PSoC4/I2C_SCBCLK.c **** ********************************************************************************
  27:Generated_Source\PSoC4/I2C_SCBCLK.c **** *
  28:Generated_Source\PSoC4/I2C_SCBCLK.c **** * Summary:
  29:Generated_Source\PSoC4/I2C_SCBCLK.c **** *  Starts the clock, aligned to the specified running clock.
  30:Generated_Source\PSoC4/I2C_SCBCLK.c **** *
ARM GAS  C:\Users\ORA\AppData\Local\Temp\ccMLbHOE.s 			page 2


  31:Generated_Source\PSoC4/I2C_SCBCLK.c **** * Parameters:
  32:Generated_Source\PSoC4/I2C_SCBCLK.c **** *  alignClkDiv:  The divider to which phase alignment is performed when the
  33:Generated_Source\PSoC4/I2C_SCBCLK.c **** *    clock is started.
  34:Generated_Source\PSoC4/I2C_SCBCLK.c **** *
  35:Generated_Source\PSoC4/I2C_SCBCLK.c **** * Returns:
  36:Generated_Source\PSoC4/I2C_SCBCLK.c **** *  None
  37:Generated_Source\PSoC4/I2C_SCBCLK.c **** *
  38:Generated_Source\PSoC4/I2C_SCBCLK.c **** *******************************************************************************/
  39:Generated_Source\PSoC4/I2C_SCBCLK.c **** void I2C_SCBCLK_StartEx(uint32 alignClkDiv)
  40:Generated_Source\PSoC4/I2C_SCBCLK.c **** {
  28              		.loc 1 40 0
  29              		.cfi_startproc
  30              		@ args = 0, pretend = 0, frame = 0
  31              		@ frame_needed = 0, uses_anonymous_args = 0
  32              		@ link register save eliminated.
  33              	.LVL0:
  34              	.L2:
  41:Generated_Source\PSoC4/I2C_SCBCLK.c ****     /* Make sure any previous start command has finished. */
  42:Generated_Source\PSoC4/I2C_SCBCLK.c ****     while((I2C_SCBCLK_CMD_REG & I2C_SCBCLK_CMD_ENABLE_MASK) != 0u)
  35              		.loc 1 42 0 discriminator 1
  36 0000 044B     		ldr	r3, .L3
  37 0002 1B68     		ldr	r3, [r3]
  38 0004 002B     		cmp	r3, #0
  39 0006 FBDB     		blt	.L2
  43:Generated_Source\PSoC4/I2C_SCBCLK.c ****     {
  44:Generated_Source\PSoC4/I2C_SCBCLK.c ****     }
  45:Generated_Source\PSoC4/I2C_SCBCLK.c ****     
  46:Generated_Source\PSoC4/I2C_SCBCLK.c ****     /* Specify the target divider and it's alignment divider, and enable. */
  47:Generated_Source\PSoC4/I2C_SCBCLK.c ****     I2C_SCBCLK_CMD_REG =
  48:Generated_Source\PSoC4/I2C_SCBCLK.c ****         ((uint32)I2C_SCBCLK__DIV_ID << I2C_SCBCLK_CMD_DIV_SHIFT)|
  49:Generated_Source\PSoC4/I2C_SCBCLK.c ****         (alignClkDiv << I2C_SCBCLK_CMD_PA_DIV_SHIFT) |
  40              		.loc 1 49 0
  41 0008 0002     		lsls	r0, r0, #8
  42              	.LVL1:
  43 000a 034B     		ldr	r3, .L3+4
  44 000c 1843     		orrs	r0, r3
  47:Generated_Source\PSoC4/I2C_SCBCLK.c ****         ((uint32)I2C_SCBCLK__DIV_ID << I2C_SCBCLK_CMD_DIV_SHIFT)|
  45              		.loc 1 47 0
  46 000e 014B     		ldr	r3, .L3
  47 0010 1860     		str	r0, [r3]
  50:Generated_Source\PSoC4/I2C_SCBCLK.c ****         (uint32)I2C_SCBCLK_CMD_ENABLE_MASK;
  51:Generated_Source\PSoC4/I2C_SCBCLK.c **** }
  48              		.loc 1 51 0
  49              		@ sp needed
  50 0012 7047     		bx	lr
  51              	.L4:
  52              		.align	2
  53              	.L3:
  54 0014 00000140 		.word	1073807360
  55 0018 41000080 		.word	-2147483583
  56              		.cfi_endproc
  57              	.LFE0:
  58              		.size	I2C_SCBCLK_StartEx, .-I2C_SCBCLK_StartEx
  59              		.section	.text.I2C_SCBCLK_Stop,"ax",%progbits
  60              		.align	2
  61              		.global	I2C_SCBCLK_Stop
  62              		.code	16
ARM GAS  C:\Users\ORA\AppData\Local\Temp\ccMLbHOE.s 			page 3


  63              		.thumb_func
  64              		.type	I2C_SCBCLK_Stop, %function
  65              	I2C_SCBCLK_Stop:
  66              	.LFB1:
  52:Generated_Source\PSoC4/I2C_SCBCLK.c **** 
  53:Generated_Source\PSoC4/I2C_SCBCLK.c **** #else
  54:Generated_Source\PSoC4/I2C_SCBCLK.c **** 
  55:Generated_Source\PSoC4/I2C_SCBCLK.c **** /*******************************************************************************
  56:Generated_Source\PSoC4/I2C_SCBCLK.c **** * Function Name: I2C_SCBCLK_Start
  57:Generated_Source\PSoC4/I2C_SCBCLK.c **** ********************************************************************************
  58:Generated_Source\PSoC4/I2C_SCBCLK.c **** *
  59:Generated_Source\PSoC4/I2C_SCBCLK.c **** * Summary:
  60:Generated_Source\PSoC4/I2C_SCBCLK.c **** *  Starts the clock.
  61:Generated_Source\PSoC4/I2C_SCBCLK.c **** *
  62:Generated_Source\PSoC4/I2C_SCBCLK.c **** * Parameters:
  63:Generated_Source\PSoC4/I2C_SCBCLK.c **** *  None
  64:Generated_Source\PSoC4/I2C_SCBCLK.c **** *
  65:Generated_Source\PSoC4/I2C_SCBCLK.c **** * Returns:
  66:Generated_Source\PSoC4/I2C_SCBCLK.c **** *  None
  67:Generated_Source\PSoC4/I2C_SCBCLK.c **** *
  68:Generated_Source\PSoC4/I2C_SCBCLK.c **** *******************************************************************************/
  69:Generated_Source\PSoC4/I2C_SCBCLK.c **** 
  70:Generated_Source\PSoC4/I2C_SCBCLK.c **** void I2C_SCBCLK_Start(void)
  71:Generated_Source\PSoC4/I2C_SCBCLK.c **** {
  72:Generated_Source\PSoC4/I2C_SCBCLK.c ****     /* Set the bit to enable the clock. */
  73:Generated_Source\PSoC4/I2C_SCBCLK.c ****     I2C_SCBCLK_ENABLE_REG |= I2C_SCBCLK__ENABLE_MASK;
  74:Generated_Source\PSoC4/I2C_SCBCLK.c **** }
  75:Generated_Source\PSoC4/I2C_SCBCLK.c **** 
  76:Generated_Source\PSoC4/I2C_SCBCLK.c **** #endif /* CYREG_PERI_DIV_CMD */
  77:Generated_Source\PSoC4/I2C_SCBCLK.c **** 
  78:Generated_Source\PSoC4/I2C_SCBCLK.c **** 
  79:Generated_Source\PSoC4/I2C_SCBCLK.c **** /*******************************************************************************
  80:Generated_Source\PSoC4/I2C_SCBCLK.c **** * Function Name: I2C_SCBCLK_Stop
  81:Generated_Source\PSoC4/I2C_SCBCLK.c **** ********************************************************************************
  82:Generated_Source\PSoC4/I2C_SCBCLK.c **** *
  83:Generated_Source\PSoC4/I2C_SCBCLK.c **** * Summary:
  84:Generated_Source\PSoC4/I2C_SCBCLK.c **** *  Stops the clock and returns immediately. This API does not require the
  85:Generated_Source\PSoC4/I2C_SCBCLK.c **** *  source clock to be running but may return before the hardware is actually
  86:Generated_Source\PSoC4/I2C_SCBCLK.c **** *  disabled.
  87:Generated_Source\PSoC4/I2C_SCBCLK.c **** *
  88:Generated_Source\PSoC4/I2C_SCBCLK.c **** * Parameters:
  89:Generated_Source\PSoC4/I2C_SCBCLK.c **** *  None
  90:Generated_Source\PSoC4/I2C_SCBCLK.c **** *
  91:Generated_Source\PSoC4/I2C_SCBCLK.c **** * Returns:
  92:Generated_Source\PSoC4/I2C_SCBCLK.c **** *  None
  93:Generated_Source\PSoC4/I2C_SCBCLK.c **** *
  94:Generated_Source\PSoC4/I2C_SCBCLK.c **** *******************************************************************************/
  95:Generated_Source\PSoC4/I2C_SCBCLK.c **** void I2C_SCBCLK_Stop(void)
  96:Generated_Source\PSoC4/I2C_SCBCLK.c **** {
  67              		.loc 1 96 0
  68              		.cfi_startproc
  69              		@ args = 0, pretend = 0, frame = 0
  70              		@ frame_needed = 0, uses_anonymous_args = 0
  71              		@ link register save eliminated.
  72              	.L6:
  97:Generated_Source\PSoC4/I2C_SCBCLK.c **** #if defined CYREG_PERI_DIV_CMD
  98:Generated_Source\PSoC4/I2C_SCBCLK.c **** 
ARM GAS  C:\Users\ORA\AppData\Local\Temp\ccMLbHOE.s 			page 4


  99:Generated_Source\PSoC4/I2C_SCBCLK.c ****     /* Make sure any previous start command has finished. */
 100:Generated_Source\PSoC4/I2C_SCBCLK.c ****     while((I2C_SCBCLK_CMD_REG & I2C_SCBCLK_CMD_ENABLE_MASK) != 0u)
  73              		.loc 1 100 0 discriminator 1
  74 0000 034B     		ldr	r3, .L7
  75 0002 1B68     		ldr	r3, [r3]
  76 0004 002B     		cmp	r3, #0
  77 0006 FBDB     		blt	.L6
 101:Generated_Source\PSoC4/I2C_SCBCLK.c ****     {
 102:Generated_Source\PSoC4/I2C_SCBCLK.c ****     }
 103:Generated_Source\PSoC4/I2C_SCBCLK.c ****     
 104:Generated_Source\PSoC4/I2C_SCBCLK.c ****     /* Specify the target divider and it's alignment divider, and disable. */
 105:Generated_Source\PSoC4/I2C_SCBCLK.c ****     I2C_SCBCLK_CMD_REG =
  78              		.loc 1 105 0
  79 0008 024A     		ldr	r2, .L7+4
  80 000a 014B     		ldr	r3, .L7
  81 000c 1A60     		str	r2, [r3]
 106:Generated_Source\PSoC4/I2C_SCBCLK.c ****         ((uint32)I2C_SCBCLK__DIV_ID << I2C_SCBCLK_CMD_DIV_SHIFT)|
 107:Generated_Source\PSoC4/I2C_SCBCLK.c ****         ((uint32)I2C_SCBCLK_CMD_DISABLE_MASK);
 108:Generated_Source\PSoC4/I2C_SCBCLK.c **** 
 109:Generated_Source\PSoC4/I2C_SCBCLK.c **** #else
 110:Generated_Source\PSoC4/I2C_SCBCLK.c **** 
 111:Generated_Source\PSoC4/I2C_SCBCLK.c ****     /* Clear the bit to disable the clock. */
 112:Generated_Source\PSoC4/I2C_SCBCLK.c ****     I2C_SCBCLK_ENABLE_REG &= (uint32)(~I2C_SCBCLK__ENABLE_MASK);
 113:Generated_Source\PSoC4/I2C_SCBCLK.c ****     
 114:Generated_Source\PSoC4/I2C_SCBCLK.c **** #endif /* CYREG_PERI_DIV_CMD */
 115:Generated_Source\PSoC4/I2C_SCBCLK.c **** }
  82              		.loc 1 115 0
  83              		@ sp needed
  84 000e 7047     		bx	lr
  85              	.L8:
  86              		.align	2
  87              	.L7:
  88 0010 00000140 		.word	1073807360
  89 0014 41000040 		.word	1073741889
  90              		.cfi_endproc
  91              	.LFE1:
  92              		.size	I2C_SCBCLK_Stop, .-I2C_SCBCLK_Stop
  93              		.section	.text.I2C_SCBCLK_SetFractionalDividerRegister,"ax",%progbits
  94              		.align	2
  95              		.global	I2C_SCBCLK_SetFractionalDividerRegister
  96              		.code	16
  97              		.thumb_func
  98              		.type	I2C_SCBCLK_SetFractionalDividerRegister, %function
  99              	I2C_SCBCLK_SetFractionalDividerRegister:
 100              	.LFB2:
 116:Generated_Source\PSoC4/I2C_SCBCLK.c **** 
 117:Generated_Source\PSoC4/I2C_SCBCLK.c **** 
 118:Generated_Source\PSoC4/I2C_SCBCLK.c **** /*******************************************************************************
 119:Generated_Source\PSoC4/I2C_SCBCLK.c **** * Function Name: I2C_SCBCLK_SetFractionalDividerRegister
 120:Generated_Source\PSoC4/I2C_SCBCLK.c **** ********************************************************************************
 121:Generated_Source\PSoC4/I2C_SCBCLK.c **** *
 122:Generated_Source\PSoC4/I2C_SCBCLK.c **** * Summary:
 123:Generated_Source\PSoC4/I2C_SCBCLK.c **** *  Modifies the clock divider and the fractional divider.
 124:Generated_Source\PSoC4/I2C_SCBCLK.c **** *
 125:Generated_Source\PSoC4/I2C_SCBCLK.c **** * Parameters:
 126:Generated_Source\PSoC4/I2C_SCBCLK.c **** *  clkDivider:  Divider register value (0-65535). This value is NOT the
 127:Generated_Source\PSoC4/I2C_SCBCLK.c **** *    divider; the clock hardware divides by clkDivider plus one. For example,
ARM GAS  C:\Users\ORA\AppData\Local\Temp\ccMLbHOE.s 			page 5


 128:Generated_Source\PSoC4/I2C_SCBCLK.c **** *    to divide the clock by 2, this parameter should be set to 1.
 129:Generated_Source\PSoC4/I2C_SCBCLK.c **** *  fracDivider:  Fractional Divider register value (0-31).
 130:Generated_Source\PSoC4/I2C_SCBCLK.c **** * Returns:
 131:Generated_Source\PSoC4/I2C_SCBCLK.c **** *  None
 132:Generated_Source\PSoC4/I2C_SCBCLK.c **** *
 133:Generated_Source\PSoC4/I2C_SCBCLK.c **** *******************************************************************************/
 134:Generated_Source\PSoC4/I2C_SCBCLK.c **** void I2C_SCBCLK_SetFractionalDividerRegister(uint16 clkDivider, uint8 clkFractional)
 135:Generated_Source\PSoC4/I2C_SCBCLK.c **** {
 101              		.loc 1 135 0
 102              		.cfi_startproc
 103              		@ args = 0, pretend = 0, frame = 0
 104              		@ frame_needed = 0, uses_anonymous_args = 0
 105              	.LVL2:
 106 0000 10B5     		push	{r4, lr}
 107              		.cfi_def_cfa_offset 8
 108              		.cfi_offset 4, -8
 109              		.cfi_offset 14, -4
 136:Generated_Source\PSoC4/I2C_SCBCLK.c ****     uint32 maskVal;
 137:Generated_Source\PSoC4/I2C_SCBCLK.c ****     uint32 regVal;
 138:Generated_Source\PSoC4/I2C_SCBCLK.c ****     
 139:Generated_Source\PSoC4/I2C_SCBCLK.c **** #if defined (I2C_SCBCLK__FRAC_MASK) || defined (CYREG_PERI_DIV_CMD)
 140:Generated_Source\PSoC4/I2C_SCBCLK.c ****     
 141:Generated_Source\PSoC4/I2C_SCBCLK.c **** 	/* get all but divider bits */
 142:Generated_Source\PSoC4/I2C_SCBCLK.c ****     maskVal = I2C_SCBCLK_DIV_REG & 
 110              		.loc 1 142 0
 111 0002 064A     		ldr	r2, .L10
 112 0004 1368     		ldr	r3, [r2]
 113 0006 0724     		movs	r4, #7
 114 0008 2340     		ands	r3, r4
 115              	.LVL3:
 143:Generated_Source\PSoC4/I2C_SCBCLK.c ****                     (uint32)(~(uint32)(I2C_SCBCLK_DIV_INT_MASK | I2C_SCBCLK_DIV_FRAC_MASK)); 
 144:Generated_Source\PSoC4/I2C_SCBCLK.c **** 	/* combine mask and new divider vals into 32-bit value */
 145:Generated_Source\PSoC4/I2C_SCBCLK.c ****     regVal = maskVal |
 146:Generated_Source\PSoC4/I2C_SCBCLK.c ****         ((uint32)((uint32)clkDivider <<  I2C_SCBCLK_DIV_INT_SHIFT) & I2C_SCBCLK_DIV_INT_MASK) |
 116              		.loc 1 146 0
 117 000a 0002     		lsls	r0, r0, #8
 118              	.LVL4:
 145:Generated_Source\PSoC4/I2C_SCBCLK.c ****         ((uint32)((uint32)clkDivider <<  I2C_SCBCLK_DIV_INT_SHIFT) & I2C_SCBCLK_DIV_INT_MASK) |
 119              		.loc 1 145 0
 120 000c 1843     		orrs	r0, r3
 147:Generated_Source\PSoC4/I2C_SCBCLK.c ****         ((uint32)((uint32)clkFractional << I2C_SCBCLK_DIV_FRAC_SHIFT) & I2C_SCBCLK_DIV_FRAC_MASK);
 121              		.loc 1 147 0
 122 000e CB00     		lsls	r3, r1, #3
 123              	.LVL5:
 124 0010 FF21     		movs	r1, #255
 125              	.LVL6:
 126 0012 1940     		ands	r1, r3
 145:Generated_Source\PSoC4/I2C_SCBCLK.c ****         ((uint32)((uint32)clkDivider <<  I2C_SCBCLK_DIV_INT_SHIFT) & I2C_SCBCLK_DIV_INT_MASK) |
 127              		.loc 1 145 0
 128 0014 0143     		orrs	r1, r0
 129              	.LVL7:
 148:Generated_Source\PSoC4/I2C_SCBCLK.c ****     
 149:Generated_Source\PSoC4/I2C_SCBCLK.c **** #else
 150:Generated_Source\PSoC4/I2C_SCBCLK.c ****     /* get all but integer divider bits */
 151:Generated_Source\PSoC4/I2C_SCBCLK.c ****     maskVal = I2C_SCBCLK_DIV_REG & (uint32)(~(uint32)I2C_SCBCLK__DIVIDER_MASK);
 152:Generated_Source\PSoC4/I2C_SCBCLK.c ****     /* combine mask and new divider val into 32-bit value */
 153:Generated_Source\PSoC4/I2C_SCBCLK.c ****     regVal = clkDivider | maskVal;
ARM GAS  C:\Users\ORA\AppData\Local\Temp\ccMLbHOE.s 			page 6


 154:Generated_Source\PSoC4/I2C_SCBCLK.c ****     
 155:Generated_Source\PSoC4/I2C_SCBCLK.c **** #endif /* I2C_SCBCLK__FRAC_MASK || CYREG_PERI_DIV_CMD */
 156:Generated_Source\PSoC4/I2C_SCBCLK.c **** 
 157:Generated_Source\PSoC4/I2C_SCBCLK.c ****     I2C_SCBCLK_DIV_REG = regVal;
 130              		.loc 1 157 0
 131 0016 1160     		str	r1, [r2]
 158:Generated_Source\PSoC4/I2C_SCBCLK.c **** }
 132              		.loc 1 158 0
 133              		@ sp needed
 134 0018 10BD     		pop	{r4, pc}
 135              	.L11:
 136 001a C046     		.align	2
 137              	.L10:
 138 001c 04030140 		.word	1073808132
 139              		.cfi_endproc
 140              	.LFE2:
 141              		.size	I2C_SCBCLK_SetFractionalDividerRegister, .-I2C_SCBCLK_SetFractionalDividerRegister
 142              		.section	.text.I2C_SCBCLK_GetDividerRegister,"ax",%progbits
 143              		.align	2
 144              		.global	I2C_SCBCLK_GetDividerRegister
 145              		.code	16
 146              		.thumb_func
 147              		.type	I2C_SCBCLK_GetDividerRegister, %function
 148              	I2C_SCBCLK_GetDividerRegister:
 149              	.LFB3:
 159:Generated_Source\PSoC4/I2C_SCBCLK.c **** 
 160:Generated_Source\PSoC4/I2C_SCBCLK.c **** 
 161:Generated_Source\PSoC4/I2C_SCBCLK.c **** /*******************************************************************************
 162:Generated_Source\PSoC4/I2C_SCBCLK.c **** * Function Name: I2C_SCBCLK_GetDividerRegister
 163:Generated_Source\PSoC4/I2C_SCBCLK.c **** ********************************************************************************
 164:Generated_Source\PSoC4/I2C_SCBCLK.c **** *
 165:Generated_Source\PSoC4/I2C_SCBCLK.c **** * Summary:
 166:Generated_Source\PSoC4/I2C_SCBCLK.c **** *  Gets the clock divider register value.
 167:Generated_Source\PSoC4/I2C_SCBCLK.c **** *
 168:Generated_Source\PSoC4/I2C_SCBCLK.c **** * Parameters:
 169:Generated_Source\PSoC4/I2C_SCBCLK.c **** *  None
 170:Generated_Source\PSoC4/I2C_SCBCLK.c **** *
 171:Generated_Source\PSoC4/I2C_SCBCLK.c **** * Returns:
 172:Generated_Source\PSoC4/I2C_SCBCLK.c **** *  Divide value of the clock minus 1. For example, if the clock is set to
 173:Generated_Source\PSoC4/I2C_SCBCLK.c **** *  divide by 2, the return value will be 1.
 174:Generated_Source\PSoC4/I2C_SCBCLK.c **** *
 175:Generated_Source\PSoC4/I2C_SCBCLK.c **** *******************************************************************************/
 176:Generated_Source\PSoC4/I2C_SCBCLK.c **** uint16 I2C_SCBCLK_GetDividerRegister(void)
 177:Generated_Source\PSoC4/I2C_SCBCLK.c **** {
 150              		.loc 1 177 0
 151              		.cfi_startproc
 152              		@ args = 0, pretend = 0, frame = 0
 153              		@ frame_needed = 0, uses_anonymous_args = 0
 154              		@ link register save eliminated.
 178:Generated_Source\PSoC4/I2C_SCBCLK.c ****     return (uint16)((I2C_SCBCLK_DIV_REG & I2C_SCBCLK_DIV_INT_MASK)
 155              		.loc 1 178 0
 156 0000 024B     		ldr	r3, .L13
 157 0002 1868     		ldr	r0, [r3]
 158 0004 000A     		lsrs	r0, r0, #8
 159 0006 80B2     		uxth	r0, r0
 179:Generated_Source\PSoC4/I2C_SCBCLK.c ****         >> I2C_SCBCLK_DIV_INT_SHIFT);
 180:Generated_Source\PSoC4/I2C_SCBCLK.c **** }
ARM GAS  C:\Users\ORA\AppData\Local\Temp\ccMLbHOE.s 			page 7


 160              		.loc 1 180 0
 161              		@ sp needed
 162 0008 7047     		bx	lr
 163              	.L14:
 164 000a C046     		.align	2
 165              	.L13:
 166 000c 04030140 		.word	1073808132
 167              		.cfi_endproc
 168              	.LFE3:
 169              		.size	I2C_SCBCLK_GetDividerRegister, .-I2C_SCBCLK_GetDividerRegister
 170              		.section	.text.I2C_SCBCLK_GetFractionalDividerRegister,"ax",%progbits
 171              		.align	2
 172              		.global	I2C_SCBCLK_GetFractionalDividerRegister
 173              		.code	16
 174              		.thumb_func
 175              		.type	I2C_SCBCLK_GetFractionalDividerRegister, %function
 176              	I2C_SCBCLK_GetFractionalDividerRegister:
 177              	.LFB4:
 181:Generated_Source\PSoC4/I2C_SCBCLK.c **** 
 182:Generated_Source\PSoC4/I2C_SCBCLK.c **** 
 183:Generated_Source\PSoC4/I2C_SCBCLK.c **** /*******************************************************************************
 184:Generated_Source\PSoC4/I2C_SCBCLK.c **** * Function Name: I2C_SCBCLK_GetFractionalDividerRegister
 185:Generated_Source\PSoC4/I2C_SCBCLK.c **** ********************************************************************************
 186:Generated_Source\PSoC4/I2C_SCBCLK.c **** *
 187:Generated_Source\PSoC4/I2C_SCBCLK.c **** * Summary:
 188:Generated_Source\PSoC4/I2C_SCBCLK.c **** *  Gets the clock fractional divider register value.
 189:Generated_Source\PSoC4/I2C_SCBCLK.c **** *
 190:Generated_Source\PSoC4/I2C_SCBCLK.c **** * Parameters:
 191:Generated_Source\PSoC4/I2C_SCBCLK.c **** *  None
 192:Generated_Source\PSoC4/I2C_SCBCLK.c **** *
 193:Generated_Source\PSoC4/I2C_SCBCLK.c **** * Returns:
 194:Generated_Source\PSoC4/I2C_SCBCLK.c **** *  Fractional Divide value of the clock
 195:Generated_Source\PSoC4/I2C_SCBCLK.c **** *  0 if the fractional divider is not in use.
 196:Generated_Source\PSoC4/I2C_SCBCLK.c **** *
 197:Generated_Source\PSoC4/I2C_SCBCLK.c **** *******************************************************************************/
 198:Generated_Source\PSoC4/I2C_SCBCLK.c **** uint8 I2C_SCBCLK_GetFractionalDividerRegister(void)
 199:Generated_Source\PSoC4/I2C_SCBCLK.c **** {
 178              		.loc 1 199 0
 179              		.cfi_startproc
 180              		@ args = 0, pretend = 0, frame = 0
 181              		@ frame_needed = 0, uses_anonymous_args = 0
 182              		@ link register save eliminated.
 200:Generated_Source\PSoC4/I2C_SCBCLK.c **** #if defined (I2C_SCBCLK__FRAC_MASK)
 201:Generated_Source\PSoC4/I2C_SCBCLK.c ****     /* return fractional divider bits */
 202:Generated_Source\PSoC4/I2C_SCBCLK.c ****     return (uint8)((I2C_SCBCLK_DIV_REG & I2C_SCBCLK_DIV_FRAC_MASK)
 203:Generated_Source\PSoC4/I2C_SCBCLK.c ****         >> I2C_SCBCLK_DIV_FRAC_SHIFT);
 204:Generated_Source\PSoC4/I2C_SCBCLK.c **** #else
 205:Generated_Source\PSoC4/I2C_SCBCLK.c ****     return 0u;
 206:Generated_Source\PSoC4/I2C_SCBCLK.c **** #endif /* I2C_SCBCLK__FRAC_MASK */
 207:Generated_Source\PSoC4/I2C_SCBCLK.c **** }
 183              		.loc 1 207 0
 184 0000 0020     		movs	r0, #0
 185              		@ sp needed
 186 0002 7047     		bx	lr
 187              		.cfi_endproc
 188              	.LFE4:
 189              		.size	I2C_SCBCLK_GetFractionalDividerRegister, .-I2C_SCBCLK_GetFractionalDividerRegister
ARM GAS  C:\Users\ORA\AppData\Local\Temp\ccMLbHOE.s 			page 8


 190              		.text
 191              	.Letext0:
 192              		.file 2 "Generated_Source\\PSoC4/cytypes.h"
