ARM GAS  C:\Users\ORA\AppData\Local\Temp\ccbWTaCf.s 			page 1


   1              		.syntax unified
   2              		.cpu cortex-m0
   3              		.fpu softvfp
   4              		.eabi_attribute 20, 1
   5              		.eabi_attribute 21, 1
   6              		.eabi_attribute 23, 3
   7              		.eabi_attribute 24, 1
   8              		.eabi_attribute 25, 1
   9              		.eabi_attribute 26, 1
  10              		.eabi_attribute 30, 1
  11              		.eabi_attribute 34, 0
  12              		.eabi_attribute 18, 4
  13              		.thumb
  14              		.syntax unified
  15              		.file	"LED_GREEN_PWM.c"
  16              		.text
  17              	.Ltext0:
  18              		.cfi_sections	.debug_frame
  19              		.section	.text.LED_GREEN_PWM_Stop,"ax",%progbits
  20              		.align	2
  21              		.global	LED_GREEN_PWM_Stop
  22              		.code	16
  23              		.thumb_func
  24              		.type	LED_GREEN_PWM_Stop, %function
  25              	LED_GREEN_PWM_Stop:
  26              	.LFB5:
  27              		.file 1 "Generated_Source\\PSoC4\\LED_GREEN_PWM.c"
   1:Generated_Source\PSoC4/LED_GREEN_PWM.c **** /*******************************************************************************
   2:Generated_Source\PSoC4/LED_GREEN_PWM.c **** * File Name: LED_GREEN_PWM.c
   3:Generated_Source\PSoC4/LED_GREEN_PWM.c **** * Version 2.10
   4:Generated_Source\PSoC4/LED_GREEN_PWM.c **** *
   5:Generated_Source\PSoC4/LED_GREEN_PWM.c **** * Description:
   6:Generated_Source\PSoC4/LED_GREEN_PWM.c **** *  This file provides the source code to the API for the LED_GREEN_PWM
   7:Generated_Source\PSoC4/LED_GREEN_PWM.c **** *  component
   8:Generated_Source\PSoC4/LED_GREEN_PWM.c **** *
   9:Generated_Source\PSoC4/LED_GREEN_PWM.c **** * Note:
  10:Generated_Source\PSoC4/LED_GREEN_PWM.c **** *  None
  11:Generated_Source\PSoC4/LED_GREEN_PWM.c **** *
  12:Generated_Source\PSoC4/LED_GREEN_PWM.c **** ********************************************************************************
  13:Generated_Source\PSoC4/LED_GREEN_PWM.c **** * Copyright 2013-2015, Cypress Semiconductor Corporation.  All rights reserved.
  14:Generated_Source\PSoC4/LED_GREEN_PWM.c **** * You may use this file only in accordance with the license, terms, conditions,
  15:Generated_Source\PSoC4/LED_GREEN_PWM.c **** * disclaimers, and limitations in the end user license agreement accompanying
  16:Generated_Source\PSoC4/LED_GREEN_PWM.c **** * the software package with which this file was provided.
  17:Generated_Source\PSoC4/LED_GREEN_PWM.c **** *******************************************************************************/
  18:Generated_Source\PSoC4/LED_GREEN_PWM.c **** 
  19:Generated_Source\PSoC4/LED_GREEN_PWM.c **** #include "LED_GREEN_PWM.h"
  20:Generated_Source\PSoC4/LED_GREEN_PWM.c **** 
  21:Generated_Source\PSoC4/LED_GREEN_PWM.c **** uint8 LED_GREEN_PWM_initVar = 0u;
  22:Generated_Source\PSoC4/LED_GREEN_PWM.c **** 
  23:Generated_Source\PSoC4/LED_GREEN_PWM.c **** 
  24:Generated_Source\PSoC4/LED_GREEN_PWM.c **** /*******************************************************************************
  25:Generated_Source\PSoC4/LED_GREEN_PWM.c **** * Function Name: LED_GREEN_PWM_Init
  26:Generated_Source\PSoC4/LED_GREEN_PWM.c **** ********************************************************************************
  27:Generated_Source\PSoC4/LED_GREEN_PWM.c **** *
  28:Generated_Source\PSoC4/LED_GREEN_PWM.c **** * Summary:
  29:Generated_Source\PSoC4/LED_GREEN_PWM.c **** *  Initialize/Restore default LED_GREEN_PWM configuration.
  30:Generated_Source\PSoC4/LED_GREEN_PWM.c **** *
ARM GAS  C:\Users\ORA\AppData\Local\Temp\ccbWTaCf.s 			page 2


  31:Generated_Source\PSoC4/LED_GREEN_PWM.c **** * Parameters:
  32:Generated_Source\PSoC4/LED_GREEN_PWM.c **** *  None
  33:Generated_Source\PSoC4/LED_GREEN_PWM.c **** *
  34:Generated_Source\PSoC4/LED_GREEN_PWM.c **** * Return:
  35:Generated_Source\PSoC4/LED_GREEN_PWM.c **** *  None
  36:Generated_Source\PSoC4/LED_GREEN_PWM.c **** *
  37:Generated_Source\PSoC4/LED_GREEN_PWM.c **** *******************************************************************************/
  38:Generated_Source\PSoC4/LED_GREEN_PWM.c **** void LED_GREEN_PWM_Init(void)
  39:Generated_Source\PSoC4/LED_GREEN_PWM.c **** {
  40:Generated_Source\PSoC4/LED_GREEN_PWM.c **** 
  41:Generated_Source\PSoC4/LED_GREEN_PWM.c ****     /* Set values from customizer to CTRL */
  42:Generated_Source\PSoC4/LED_GREEN_PWM.c ****     #if (LED_GREEN_PWM__QUAD == LED_GREEN_PWM_CONFIG)
  43:Generated_Source\PSoC4/LED_GREEN_PWM.c ****         LED_GREEN_PWM_CONTROL_REG = LED_GREEN_PWM_CTRL_QUAD_BASE_CONFIG;
  44:Generated_Source\PSoC4/LED_GREEN_PWM.c ****         
  45:Generated_Source\PSoC4/LED_GREEN_PWM.c ****         /* Set values from customizer to CTRL1 */
  46:Generated_Source\PSoC4/LED_GREEN_PWM.c ****         LED_GREEN_PWM_TRIG_CONTROL1_REG  = LED_GREEN_PWM_QUAD_SIGNALS_MODES;
  47:Generated_Source\PSoC4/LED_GREEN_PWM.c **** 
  48:Generated_Source\PSoC4/LED_GREEN_PWM.c ****         /* Set values from customizer to INTR */
  49:Generated_Source\PSoC4/LED_GREEN_PWM.c ****         LED_GREEN_PWM_SetInterruptMode(LED_GREEN_PWM_QUAD_INTERRUPT_MASK);
  50:Generated_Source\PSoC4/LED_GREEN_PWM.c ****         
  51:Generated_Source\PSoC4/LED_GREEN_PWM.c ****          /* Set other values */
  52:Generated_Source\PSoC4/LED_GREEN_PWM.c ****         LED_GREEN_PWM_SetCounterMode(LED_GREEN_PWM_COUNT_DOWN);
  53:Generated_Source\PSoC4/LED_GREEN_PWM.c ****         LED_GREEN_PWM_WritePeriod(LED_GREEN_PWM_QUAD_PERIOD_INIT_VALUE);
  54:Generated_Source\PSoC4/LED_GREEN_PWM.c ****         LED_GREEN_PWM_WriteCounter(LED_GREEN_PWM_QUAD_PERIOD_INIT_VALUE);
  55:Generated_Source\PSoC4/LED_GREEN_PWM.c ****     #endif  /* (LED_GREEN_PWM__QUAD == LED_GREEN_PWM_CONFIG) */
  56:Generated_Source\PSoC4/LED_GREEN_PWM.c **** 
  57:Generated_Source\PSoC4/LED_GREEN_PWM.c ****     #if (LED_GREEN_PWM__TIMER == LED_GREEN_PWM_CONFIG)
  58:Generated_Source\PSoC4/LED_GREEN_PWM.c ****         LED_GREEN_PWM_CONTROL_REG = LED_GREEN_PWM_CTRL_TIMER_BASE_CONFIG;
  59:Generated_Source\PSoC4/LED_GREEN_PWM.c ****         
  60:Generated_Source\PSoC4/LED_GREEN_PWM.c ****         /* Set values from customizer to CTRL1 */
  61:Generated_Source\PSoC4/LED_GREEN_PWM.c ****         LED_GREEN_PWM_TRIG_CONTROL1_REG  = LED_GREEN_PWM_TIMER_SIGNALS_MODES;
  62:Generated_Source\PSoC4/LED_GREEN_PWM.c ****     
  63:Generated_Source\PSoC4/LED_GREEN_PWM.c ****         /* Set values from customizer to INTR */
  64:Generated_Source\PSoC4/LED_GREEN_PWM.c ****         LED_GREEN_PWM_SetInterruptMode(LED_GREEN_PWM_TC_INTERRUPT_MASK);
  65:Generated_Source\PSoC4/LED_GREEN_PWM.c ****         
  66:Generated_Source\PSoC4/LED_GREEN_PWM.c ****         /* Set other values from customizer */
  67:Generated_Source\PSoC4/LED_GREEN_PWM.c ****         LED_GREEN_PWM_WritePeriod(LED_GREEN_PWM_TC_PERIOD_VALUE );
  68:Generated_Source\PSoC4/LED_GREEN_PWM.c **** 
  69:Generated_Source\PSoC4/LED_GREEN_PWM.c ****         #if (LED_GREEN_PWM__COMPARE == LED_GREEN_PWM_TC_COMP_CAP_MODE)
  70:Generated_Source\PSoC4/LED_GREEN_PWM.c ****             LED_GREEN_PWM_WriteCompare(LED_GREEN_PWM_TC_COMPARE_VALUE);
  71:Generated_Source\PSoC4/LED_GREEN_PWM.c **** 
  72:Generated_Source\PSoC4/LED_GREEN_PWM.c ****             #if (1u == LED_GREEN_PWM_TC_COMPARE_SWAP)
  73:Generated_Source\PSoC4/LED_GREEN_PWM.c ****                 LED_GREEN_PWM_SetCompareSwap(1u);
  74:Generated_Source\PSoC4/LED_GREEN_PWM.c ****                 LED_GREEN_PWM_WriteCompareBuf(LED_GREEN_PWM_TC_COMPARE_BUF_VALUE);
  75:Generated_Source\PSoC4/LED_GREEN_PWM.c ****             #endif  /* (1u == LED_GREEN_PWM_TC_COMPARE_SWAP) */
  76:Generated_Source\PSoC4/LED_GREEN_PWM.c ****         #endif  /* (LED_GREEN_PWM__COMPARE == LED_GREEN_PWM_TC_COMP_CAP_MODE) */
  77:Generated_Source\PSoC4/LED_GREEN_PWM.c **** 
  78:Generated_Source\PSoC4/LED_GREEN_PWM.c ****         /* Initialize counter value */
  79:Generated_Source\PSoC4/LED_GREEN_PWM.c ****         #if (LED_GREEN_PWM_CY_TCPWM_V2 && LED_GREEN_PWM_TIMER_UPDOWN_CNT_USED && !LED_GREEN_PWM_CY_
  80:Generated_Source\PSoC4/LED_GREEN_PWM.c ****             LED_GREEN_PWM_WriteCounter(1u);
  81:Generated_Source\PSoC4/LED_GREEN_PWM.c ****         #elif(LED_GREEN_PWM__COUNT_DOWN == LED_GREEN_PWM_TC_COUNTER_MODE)
  82:Generated_Source\PSoC4/LED_GREEN_PWM.c ****             LED_GREEN_PWM_WriteCounter(LED_GREEN_PWM_TC_PERIOD_VALUE);
  83:Generated_Source\PSoC4/LED_GREEN_PWM.c ****         #else
  84:Generated_Source\PSoC4/LED_GREEN_PWM.c ****             LED_GREEN_PWM_WriteCounter(0u);
  85:Generated_Source\PSoC4/LED_GREEN_PWM.c ****         #endif /* (LED_GREEN_PWM_CY_TCPWM_V2 && LED_GREEN_PWM_TIMER_UPDOWN_CNT_USED && !LED_GREEN_P
  86:Generated_Source\PSoC4/LED_GREEN_PWM.c ****     #endif  /* (LED_GREEN_PWM__TIMER == LED_GREEN_PWM_CONFIG) */
  87:Generated_Source\PSoC4/LED_GREEN_PWM.c **** 
ARM GAS  C:\Users\ORA\AppData\Local\Temp\ccbWTaCf.s 			page 3


  88:Generated_Source\PSoC4/LED_GREEN_PWM.c ****     #if (LED_GREEN_PWM__PWM_SEL == LED_GREEN_PWM_CONFIG)
  89:Generated_Source\PSoC4/LED_GREEN_PWM.c ****         LED_GREEN_PWM_CONTROL_REG = LED_GREEN_PWM_CTRL_PWM_BASE_CONFIG;
  90:Generated_Source\PSoC4/LED_GREEN_PWM.c **** 
  91:Generated_Source\PSoC4/LED_GREEN_PWM.c ****         #if (LED_GREEN_PWM__PWM_PR == LED_GREEN_PWM_PWM_MODE)
  92:Generated_Source\PSoC4/LED_GREEN_PWM.c ****             LED_GREEN_PWM_CONTROL_REG |= LED_GREEN_PWM_CTRL_PWM_RUN_MODE;
  93:Generated_Source\PSoC4/LED_GREEN_PWM.c ****             LED_GREEN_PWM_WriteCounter(LED_GREEN_PWM_PWM_PR_INIT_VALUE);
  94:Generated_Source\PSoC4/LED_GREEN_PWM.c ****         #else
  95:Generated_Source\PSoC4/LED_GREEN_PWM.c ****             LED_GREEN_PWM_CONTROL_REG |= LED_GREEN_PWM_CTRL_PWM_ALIGN | LED_GREEN_PWM_CTRL_PWM_KILL
  96:Generated_Source\PSoC4/LED_GREEN_PWM.c ****             
  97:Generated_Source\PSoC4/LED_GREEN_PWM.c ****             /* Initialize counter value */
  98:Generated_Source\PSoC4/LED_GREEN_PWM.c ****             #if (LED_GREEN_PWM_CY_TCPWM_V2 && LED_GREEN_PWM_PWM_UPDOWN_CNT_USED && !LED_GREEN_PWM_C
  99:Generated_Source\PSoC4/LED_GREEN_PWM.c ****                 LED_GREEN_PWM_WriteCounter(1u);
 100:Generated_Source\PSoC4/LED_GREEN_PWM.c ****             #elif (LED_GREEN_PWM__RIGHT == LED_GREEN_PWM_PWM_ALIGN)
 101:Generated_Source\PSoC4/LED_GREEN_PWM.c ****                 LED_GREEN_PWM_WriteCounter(LED_GREEN_PWM_PWM_PERIOD_VALUE);
 102:Generated_Source\PSoC4/LED_GREEN_PWM.c ****             #else 
 103:Generated_Source\PSoC4/LED_GREEN_PWM.c ****                 LED_GREEN_PWM_WriteCounter(0u);
 104:Generated_Source\PSoC4/LED_GREEN_PWM.c ****             #endif  /* (LED_GREEN_PWM_CY_TCPWM_V2 && LED_GREEN_PWM_PWM_UPDOWN_CNT_USED && !LED_GREE
 105:Generated_Source\PSoC4/LED_GREEN_PWM.c ****         #endif  /* (LED_GREEN_PWM__PWM_PR == LED_GREEN_PWM_PWM_MODE) */
 106:Generated_Source\PSoC4/LED_GREEN_PWM.c **** 
 107:Generated_Source\PSoC4/LED_GREEN_PWM.c ****         #if (LED_GREEN_PWM__PWM_DT == LED_GREEN_PWM_PWM_MODE)
 108:Generated_Source\PSoC4/LED_GREEN_PWM.c ****             LED_GREEN_PWM_CONTROL_REG |= LED_GREEN_PWM_CTRL_PWM_DEAD_TIME_CYCLE;
 109:Generated_Source\PSoC4/LED_GREEN_PWM.c ****         #endif  /* (LED_GREEN_PWM__PWM_DT == LED_GREEN_PWM_PWM_MODE) */
 110:Generated_Source\PSoC4/LED_GREEN_PWM.c **** 
 111:Generated_Source\PSoC4/LED_GREEN_PWM.c ****         #if (LED_GREEN_PWM__PWM == LED_GREEN_PWM_PWM_MODE)
 112:Generated_Source\PSoC4/LED_GREEN_PWM.c ****             LED_GREEN_PWM_CONTROL_REG |= LED_GREEN_PWM_CTRL_PWM_PRESCALER;
 113:Generated_Source\PSoC4/LED_GREEN_PWM.c ****         #endif  /* (LED_GREEN_PWM__PWM == LED_GREEN_PWM_PWM_MODE) */
 114:Generated_Source\PSoC4/LED_GREEN_PWM.c **** 
 115:Generated_Source\PSoC4/LED_GREEN_PWM.c ****         /* Set values from customizer to CTRL1 */
 116:Generated_Source\PSoC4/LED_GREEN_PWM.c ****         LED_GREEN_PWM_TRIG_CONTROL1_REG  = LED_GREEN_PWM_PWM_SIGNALS_MODES;
 117:Generated_Source\PSoC4/LED_GREEN_PWM.c ****     
 118:Generated_Source\PSoC4/LED_GREEN_PWM.c ****         /* Set values from customizer to INTR */
 119:Generated_Source\PSoC4/LED_GREEN_PWM.c ****         LED_GREEN_PWM_SetInterruptMode(LED_GREEN_PWM_PWM_INTERRUPT_MASK);
 120:Generated_Source\PSoC4/LED_GREEN_PWM.c **** 
 121:Generated_Source\PSoC4/LED_GREEN_PWM.c ****         /* Set values from customizer to CTRL2 */
 122:Generated_Source\PSoC4/LED_GREEN_PWM.c ****         #if (LED_GREEN_PWM__PWM_PR == LED_GREEN_PWM_PWM_MODE)
 123:Generated_Source\PSoC4/LED_GREEN_PWM.c ****             LED_GREEN_PWM_TRIG_CONTROL2_REG =
 124:Generated_Source\PSoC4/LED_GREEN_PWM.c ****                     (LED_GREEN_PWM_CC_MATCH_NO_CHANGE    |
 125:Generated_Source\PSoC4/LED_GREEN_PWM.c ****                     LED_GREEN_PWM_OVERLOW_NO_CHANGE      |
 126:Generated_Source\PSoC4/LED_GREEN_PWM.c ****                     LED_GREEN_PWM_UNDERFLOW_NO_CHANGE);
 127:Generated_Source\PSoC4/LED_GREEN_PWM.c ****         #else
 128:Generated_Source\PSoC4/LED_GREEN_PWM.c ****             #if (LED_GREEN_PWM__LEFT == LED_GREEN_PWM_PWM_ALIGN)
 129:Generated_Source\PSoC4/LED_GREEN_PWM.c ****                 LED_GREEN_PWM_TRIG_CONTROL2_REG = LED_GREEN_PWM_PWM_MODE_LEFT;
 130:Generated_Source\PSoC4/LED_GREEN_PWM.c ****             #endif  /* ( LED_GREEN_PWM_PWM_LEFT == LED_GREEN_PWM_PWM_ALIGN) */
 131:Generated_Source\PSoC4/LED_GREEN_PWM.c **** 
 132:Generated_Source\PSoC4/LED_GREEN_PWM.c ****             #if (LED_GREEN_PWM__RIGHT == LED_GREEN_PWM_PWM_ALIGN)
 133:Generated_Source\PSoC4/LED_GREEN_PWM.c ****                 LED_GREEN_PWM_TRIG_CONTROL2_REG = LED_GREEN_PWM_PWM_MODE_RIGHT;
 134:Generated_Source\PSoC4/LED_GREEN_PWM.c ****             #endif  /* ( LED_GREEN_PWM_PWM_RIGHT == LED_GREEN_PWM_PWM_ALIGN) */
 135:Generated_Source\PSoC4/LED_GREEN_PWM.c **** 
 136:Generated_Source\PSoC4/LED_GREEN_PWM.c ****             #if (LED_GREEN_PWM__CENTER == LED_GREEN_PWM_PWM_ALIGN)
 137:Generated_Source\PSoC4/LED_GREEN_PWM.c ****                 LED_GREEN_PWM_TRIG_CONTROL2_REG = LED_GREEN_PWM_PWM_MODE_CENTER;
 138:Generated_Source\PSoC4/LED_GREEN_PWM.c ****             #endif  /* ( LED_GREEN_PWM_PWM_CENTER == LED_GREEN_PWM_PWM_ALIGN) */
 139:Generated_Source\PSoC4/LED_GREEN_PWM.c **** 
 140:Generated_Source\PSoC4/LED_GREEN_PWM.c ****             #if (LED_GREEN_PWM__ASYMMETRIC == LED_GREEN_PWM_PWM_ALIGN)
 141:Generated_Source\PSoC4/LED_GREEN_PWM.c ****                 LED_GREEN_PWM_TRIG_CONTROL2_REG = LED_GREEN_PWM_PWM_MODE_ASYM;
 142:Generated_Source\PSoC4/LED_GREEN_PWM.c ****             #endif  /* (LED_GREEN_PWM__ASYMMETRIC == LED_GREEN_PWM_PWM_ALIGN) */
 143:Generated_Source\PSoC4/LED_GREEN_PWM.c ****         #endif  /* (LED_GREEN_PWM__PWM_PR == LED_GREEN_PWM_PWM_MODE) */
 144:Generated_Source\PSoC4/LED_GREEN_PWM.c **** 
ARM GAS  C:\Users\ORA\AppData\Local\Temp\ccbWTaCf.s 			page 4


 145:Generated_Source\PSoC4/LED_GREEN_PWM.c ****         /* Set other values from customizer */
 146:Generated_Source\PSoC4/LED_GREEN_PWM.c ****         LED_GREEN_PWM_WritePeriod(LED_GREEN_PWM_PWM_PERIOD_VALUE );
 147:Generated_Source\PSoC4/LED_GREEN_PWM.c ****         LED_GREEN_PWM_WriteCompare(LED_GREEN_PWM_PWM_COMPARE_VALUE);
 148:Generated_Source\PSoC4/LED_GREEN_PWM.c **** 
 149:Generated_Source\PSoC4/LED_GREEN_PWM.c ****         #if (1u == LED_GREEN_PWM_PWM_COMPARE_SWAP)
 150:Generated_Source\PSoC4/LED_GREEN_PWM.c ****             LED_GREEN_PWM_SetCompareSwap(1u);
 151:Generated_Source\PSoC4/LED_GREEN_PWM.c ****             LED_GREEN_PWM_WriteCompareBuf(LED_GREEN_PWM_PWM_COMPARE_BUF_VALUE);
 152:Generated_Source\PSoC4/LED_GREEN_PWM.c ****         #endif  /* (1u == LED_GREEN_PWM_PWM_COMPARE_SWAP) */
 153:Generated_Source\PSoC4/LED_GREEN_PWM.c **** 
 154:Generated_Source\PSoC4/LED_GREEN_PWM.c ****         #if (1u == LED_GREEN_PWM_PWM_PERIOD_SWAP)
 155:Generated_Source\PSoC4/LED_GREEN_PWM.c ****             LED_GREEN_PWM_SetPeriodSwap(1u);
 156:Generated_Source\PSoC4/LED_GREEN_PWM.c ****             LED_GREEN_PWM_WritePeriodBuf(LED_GREEN_PWM_PWM_PERIOD_BUF_VALUE);
 157:Generated_Source\PSoC4/LED_GREEN_PWM.c ****         #endif  /* (1u == LED_GREEN_PWM_PWM_PERIOD_SWAP) */
 158:Generated_Source\PSoC4/LED_GREEN_PWM.c ****     #endif  /* (LED_GREEN_PWM__PWM_SEL == LED_GREEN_PWM_CONFIG) */
 159:Generated_Source\PSoC4/LED_GREEN_PWM.c ****     
 160:Generated_Source\PSoC4/LED_GREEN_PWM.c **** }
 161:Generated_Source\PSoC4/LED_GREEN_PWM.c **** 
 162:Generated_Source\PSoC4/LED_GREEN_PWM.c **** 
 163:Generated_Source\PSoC4/LED_GREEN_PWM.c **** /*******************************************************************************
 164:Generated_Source\PSoC4/LED_GREEN_PWM.c **** * Function Name: LED_GREEN_PWM_Enable
 165:Generated_Source\PSoC4/LED_GREEN_PWM.c **** ********************************************************************************
 166:Generated_Source\PSoC4/LED_GREEN_PWM.c **** *
 167:Generated_Source\PSoC4/LED_GREEN_PWM.c **** * Summary:
 168:Generated_Source\PSoC4/LED_GREEN_PWM.c **** *  Enables the LED_GREEN_PWM.
 169:Generated_Source\PSoC4/LED_GREEN_PWM.c **** *
 170:Generated_Source\PSoC4/LED_GREEN_PWM.c **** * Parameters:
 171:Generated_Source\PSoC4/LED_GREEN_PWM.c **** *  None
 172:Generated_Source\PSoC4/LED_GREEN_PWM.c **** *
 173:Generated_Source\PSoC4/LED_GREEN_PWM.c **** * Return:
 174:Generated_Source\PSoC4/LED_GREEN_PWM.c **** *  None
 175:Generated_Source\PSoC4/LED_GREEN_PWM.c **** *
 176:Generated_Source\PSoC4/LED_GREEN_PWM.c **** *******************************************************************************/
 177:Generated_Source\PSoC4/LED_GREEN_PWM.c **** void LED_GREEN_PWM_Enable(void)
 178:Generated_Source\PSoC4/LED_GREEN_PWM.c **** {
 179:Generated_Source\PSoC4/LED_GREEN_PWM.c ****     uint8 enableInterrupts;
 180:Generated_Source\PSoC4/LED_GREEN_PWM.c **** 
 181:Generated_Source\PSoC4/LED_GREEN_PWM.c ****     enableInterrupts = CyEnterCriticalSection();
 182:Generated_Source\PSoC4/LED_GREEN_PWM.c ****     LED_GREEN_PWM_BLOCK_CONTROL_REG |= LED_GREEN_PWM_MASK;
 183:Generated_Source\PSoC4/LED_GREEN_PWM.c ****     CyExitCriticalSection(enableInterrupts);
 184:Generated_Source\PSoC4/LED_GREEN_PWM.c **** 
 185:Generated_Source\PSoC4/LED_GREEN_PWM.c ****     /* Start Timer or PWM if start input is absent */
 186:Generated_Source\PSoC4/LED_GREEN_PWM.c ****     #if (LED_GREEN_PWM__PWM_SEL == LED_GREEN_PWM_CONFIG)
 187:Generated_Source\PSoC4/LED_GREEN_PWM.c ****         #if (0u == LED_GREEN_PWM_PWM_START_SIGNAL_PRESENT)
 188:Generated_Source\PSoC4/LED_GREEN_PWM.c ****             LED_GREEN_PWM_TriggerCommand(LED_GREEN_PWM_MASK, LED_GREEN_PWM_CMD_START);
 189:Generated_Source\PSoC4/LED_GREEN_PWM.c ****         #endif /* (0u == LED_GREEN_PWM_PWM_START_SIGNAL_PRESENT) */
 190:Generated_Source\PSoC4/LED_GREEN_PWM.c ****     #endif /* (LED_GREEN_PWM__PWM_SEL == LED_GREEN_PWM_CONFIG) */
 191:Generated_Source\PSoC4/LED_GREEN_PWM.c **** 
 192:Generated_Source\PSoC4/LED_GREEN_PWM.c ****     #if (LED_GREEN_PWM__TIMER == LED_GREEN_PWM_CONFIG)
 193:Generated_Source\PSoC4/LED_GREEN_PWM.c ****         #if (0u == LED_GREEN_PWM_TC_START_SIGNAL_PRESENT)
 194:Generated_Source\PSoC4/LED_GREEN_PWM.c ****             LED_GREEN_PWM_TriggerCommand(LED_GREEN_PWM_MASK, LED_GREEN_PWM_CMD_START);
 195:Generated_Source\PSoC4/LED_GREEN_PWM.c ****         #endif /* (0u == LED_GREEN_PWM_TC_START_SIGNAL_PRESENT) */
 196:Generated_Source\PSoC4/LED_GREEN_PWM.c ****     #endif /* (LED_GREEN_PWM__TIMER == LED_GREEN_PWM_CONFIG) */
 197:Generated_Source\PSoC4/LED_GREEN_PWM.c ****     
 198:Generated_Source\PSoC4/LED_GREEN_PWM.c ****     #if (LED_GREEN_PWM__QUAD == LED_GREEN_PWM_CONFIG)
 199:Generated_Source\PSoC4/LED_GREEN_PWM.c ****         #if (0u != LED_GREEN_PWM_QUAD_AUTO_START)
 200:Generated_Source\PSoC4/LED_GREEN_PWM.c ****             LED_GREEN_PWM_TriggerCommand(LED_GREEN_PWM_MASK, LED_GREEN_PWM_CMD_RELOAD);
 201:Generated_Source\PSoC4/LED_GREEN_PWM.c ****         #endif /* (0u != LED_GREEN_PWM_QUAD_AUTO_START) */
ARM GAS  C:\Users\ORA\AppData\Local\Temp\ccbWTaCf.s 			page 5


 202:Generated_Source\PSoC4/LED_GREEN_PWM.c ****     #endif  /* (LED_GREEN_PWM__QUAD == LED_GREEN_PWM_CONFIG) */
 203:Generated_Source\PSoC4/LED_GREEN_PWM.c **** }
 204:Generated_Source\PSoC4/LED_GREEN_PWM.c **** 
 205:Generated_Source\PSoC4/LED_GREEN_PWM.c **** 
 206:Generated_Source\PSoC4/LED_GREEN_PWM.c **** /*******************************************************************************
 207:Generated_Source\PSoC4/LED_GREEN_PWM.c **** * Function Name: LED_GREEN_PWM_Start
 208:Generated_Source\PSoC4/LED_GREEN_PWM.c **** ********************************************************************************
 209:Generated_Source\PSoC4/LED_GREEN_PWM.c **** *
 210:Generated_Source\PSoC4/LED_GREEN_PWM.c **** * Summary:
 211:Generated_Source\PSoC4/LED_GREEN_PWM.c **** *  Initializes the LED_GREEN_PWM with default customizer
 212:Generated_Source\PSoC4/LED_GREEN_PWM.c **** *  values when called the first time and enables the LED_GREEN_PWM.
 213:Generated_Source\PSoC4/LED_GREEN_PWM.c **** *  For subsequent calls the configuration is left unchanged and the component is
 214:Generated_Source\PSoC4/LED_GREEN_PWM.c **** *  just enabled.
 215:Generated_Source\PSoC4/LED_GREEN_PWM.c **** *
 216:Generated_Source\PSoC4/LED_GREEN_PWM.c **** * Parameters:
 217:Generated_Source\PSoC4/LED_GREEN_PWM.c **** *  None
 218:Generated_Source\PSoC4/LED_GREEN_PWM.c **** *
 219:Generated_Source\PSoC4/LED_GREEN_PWM.c **** * Return:
 220:Generated_Source\PSoC4/LED_GREEN_PWM.c **** *  None
 221:Generated_Source\PSoC4/LED_GREEN_PWM.c **** *
 222:Generated_Source\PSoC4/LED_GREEN_PWM.c **** * Global variables:
 223:Generated_Source\PSoC4/LED_GREEN_PWM.c **** *  LED_GREEN_PWM_initVar: global variable is used to indicate initial
 224:Generated_Source\PSoC4/LED_GREEN_PWM.c **** *  configuration of this component.  The variable is initialized to zero and set
 225:Generated_Source\PSoC4/LED_GREEN_PWM.c **** *  to 1 the first time LED_GREEN_PWM_Start() is called. This allows
 226:Generated_Source\PSoC4/LED_GREEN_PWM.c **** *  enabling/disabling a component without re-initialization in all subsequent
 227:Generated_Source\PSoC4/LED_GREEN_PWM.c **** *  calls to the LED_GREEN_PWM_Start() routine.
 228:Generated_Source\PSoC4/LED_GREEN_PWM.c **** *
 229:Generated_Source\PSoC4/LED_GREEN_PWM.c **** *******************************************************************************/
 230:Generated_Source\PSoC4/LED_GREEN_PWM.c **** void LED_GREEN_PWM_Start(void)
 231:Generated_Source\PSoC4/LED_GREEN_PWM.c **** {
 232:Generated_Source\PSoC4/LED_GREEN_PWM.c ****     if (0u == LED_GREEN_PWM_initVar)
 233:Generated_Source\PSoC4/LED_GREEN_PWM.c ****     {
 234:Generated_Source\PSoC4/LED_GREEN_PWM.c ****         LED_GREEN_PWM_Init();
 235:Generated_Source\PSoC4/LED_GREEN_PWM.c ****         LED_GREEN_PWM_initVar = 1u;
 236:Generated_Source\PSoC4/LED_GREEN_PWM.c ****     }
 237:Generated_Source\PSoC4/LED_GREEN_PWM.c **** 
 238:Generated_Source\PSoC4/LED_GREEN_PWM.c ****     LED_GREEN_PWM_Enable();
 239:Generated_Source\PSoC4/LED_GREEN_PWM.c **** }
 240:Generated_Source\PSoC4/LED_GREEN_PWM.c **** 
 241:Generated_Source\PSoC4/LED_GREEN_PWM.c **** 
 242:Generated_Source\PSoC4/LED_GREEN_PWM.c **** /*******************************************************************************
 243:Generated_Source\PSoC4/LED_GREEN_PWM.c **** * Function Name: LED_GREEN_PWM_Stop
 244:Generated_Source\PSoC4/LED_GREEN_PWM.c **** ********************************************************************************
 245:Generated_Source\PSoC4/LED_GREEN_PWM.c **** *
 246:Generated_Source\PSoC4/LED_GREEN_PWM.c **** * Summary:
 247:Generated_Source\PSoC4/LED_GREEN_PWM.c **** *  Disables the LED_GREEN_PWM.
 248:Generated_Source\PSoC4/LED_GREEN_PWM.c **** *
 249:Generated_Source\PSoC4/LED_GREEN_PWM.c **** * Parameters:
 250:Generated_Source\PSoC4/LED_GREEN_PWM.c **** *  None
 251:Generated_Source\PSoC4/LED_GREEN_PWM.c **** *
 252:Generated_Source\PSoC4/LED_GREEN_PWM.c **** * Return:
 253:Generated_Source\PSoC4/LED_GREEN_PWM.c **** *  None
 254:Generated_Source\PSoC4/LED_GREEN_PWM.c **** *
 255:Generated_Source\PSoC4/LED_GREEN_PWM.c **** *******************************************************************************/
 256:Generated_Source\PSoC4/LED_GREEN_PWM.c **** void LED_GREEN_PWM_Stop(void)
 257:Generated_Source\PSoC4/LED_GREEN_PWM.c **** {
  28              		.loc 1 257 0
ARM GAS  C:\Users\ORA\AppData\Local\Temp\ccbWTaCf.s 			page 6


  29              		.cfi_startproc
  30              		@ args = 0, pretend = 0, frame = 0
  31              		@ frame_needed = 0, uses_anonymous_args = 0
  32 0000 10B5     		push	{r4, lr}
  33              		.cfi_def_cfa_offset 8
  34              		.cfi_offset 4, -8
  35              		.cfi_offset 14, -4
 258:Generated_Source\PSoC4/LED_GREEN_PWM.c ****     uint8 enableInterrupts;
 259:Generated_Source\PSoC4/LED_GREEN_PWM.c **** 
 260:Generated_Source\PSoC4/LED_GREEN_PWM.c ****     enableInterrupts = CyEnterCriticalSection();
  36              		.loc 1 260 0
  37 0002 FFF7FEFF 		bl	CyEnterCriticalSection
  38              	.LVL0:
 261:Generated_Source\PSoC4/LED_GREEN_PWM.c **** 
 262:Generated_Source\PSoC4/LED_GREEN_PWM.c ****     LED_GREEN_PWM_BLOCK_CONTROL_REG &= (uint32)~LED_GREEN_PWM_MASK;
  39              		.loc 1 262 0
  40 0006 044A     		ldr	r2, .L2
  41 0008 1368     		ldr	r3, [r2]
  42 000a 0821     		movs	r1, #8
  43 000c 8B43     		bics	r3, r1
  44 000e 1360     		str	r3, [r2]
 263:Generated_Source\PSoC4/LED_GREEN_PWM.c **** 
 264:Generated_Source\PSoC4/LED_GREEN_PWM.c ****     CyExitCriticalSection(enableInterrupts);
  45              		.loc 1 264 0
  46 0010 FFF7FEFF 		bl	CyExitCriticalSection
  47              	.LVL1:
 265:Generated_Source\PSoC4/LED_GREEN_PWM.c **** }
  48              		.loc 1 265 0
  49              		@ sp needed
  50 0014 10BD     		pop	{r4, pc}
  51              	.L3:
  52 0016 C046     		.align	2
  53              	.L2:
  54 0018 00002040 		.word	1075838976
  55              		.cfi_endproc
  56              	.LFE5:
  57              		.size	LED_GREEN_PWM_Stop, .-LED_GREEN_PWM_Stop
  58              		.section	.text.LED_GREEN_PWM_SetMode,"ax",%progbits
  59              		.align	2
  60              		.global	LED_GREEN_PWM_SetMode
  61              		.code	16
  62              		.thumb_func
  63              		.type	LED_GREEN_PWM_SetMode, %function
  64              	LED_GREEN_PWM_SetMode:
  65              	.LFB6:
 266:Generated_Source\PSoC4/LED_GREEN_PWM.c **** 
 267:Generated_Source\PSoC4/LED_GREEN_PWM.c **** 
 268:Generated_Source\PSoC4/LED_GREEN_PWM.c **** /*******************************************************************************
 269:Generated_Source\PSoC4/LED_GREEN_PWM.c **** * Function Name: LED_GREEN_PWM_SetMode
 270:Generated_Source\PSoC4/LED_GREEN_PWM.c **** ********************************************************************************
 271:Generated_Source\PSoC4/LED_GREEN_PWM.c **** *
 272:Generated_Source\PSoC4/LED_GREEN_PWM.c **** * Summary:
 273:Generated_Source\PSoC4/LED_GREEN_PWM.c **** *  Sets the operation mode of the LED_GREEN_PWM. This function is used when
 274:Generated_Source\PSoC4/LED_GREEN_PWM.c **** *  configured as a generic LED_GREEN_PWM and the actual mode of operation is
 275:Generated_Source\PSoC4/LED_GREEN_PWM.c **** *  set at runtime. The mode must be set while the component is disabled.
 276:Generated_Source\PSoC4/LED_GREEN_PWM.c **** *
 277:Generated_Source\PSoC4/LED_GREEN_PWM.c **** * Parameters:
ARM GAS  C:\Users\ORA\AppData\Local\Temp\ccbWTaCf.s 			page 7


 278:Generated_Source\PSoC4/LED_GREEN_PWM.c **** *  mode: Mode for the LED_GREEN_PWM to operate in
 279:Generated_Source\PSoC4/LED_GREEN_PWM.c **** *   Values:
 280:Generated_Source\PSoC4/LED_GREEN_PWM.c **** *   - LED_GREEN_PWM_MODE_TIMER_COMPARE - Timer / Counter with
 281:Generated_Source\PSoC4/LED_GREEN_PWM.c **** *                                                 compare capability
 282:Generated_Source\PSoC4/LED_GREEN_PWM.c **** *         - LED_GREEN_PWM_MODE_TIMER_CAPTURE - Timer / Counter with
 283:Generated_Source\PSoC4/LED_GREEN_PWM.c **** *                                                 capture capability
 284:Generated_Source\PSoC4/LED_GREEN_PWM.c **** *         - LED_GREEN_PWM_MODE_QUAD - Quadrature decoder
 285:Generated_Source\PSoC4/LED_GREEN_PWM.c **** *         - LED_GREEN_PWM_MODE_PWM - PWM
 286:Generated_Source\PSoC4/LED_GREEN_PWM.c **** *         - LED_GREEN_PWM_MODE_PWM_DT - PWM with dead time
 287:Generated_Source\PSoC4/LED_GREEN_PWM.c **** *         - LED_GREEN_PWM_MODE_PWM_PR - PWM with pseudo random capability
 288:Generated_Source\PSoC4/LED_GREEN_PWM.c **** *
 289:Generated_Source\PSoC4/LED_GREEN_PWM.c **** * Return:
 290:Generated_Source\PSoC4/LED_GREEN_PWM.c **** *  None
 291:Generated_Source\PSoC4/LED_GREEN_PWM.c **** *
 292:Generated_Source\PSoC4/LED_GREEN_PWM.c **** *******************************************************************************/
 293:Generated_Source\PSoC4/LED_GREEN_PWM.c **** void LED_GREEN_PWM_SetMode(uint32 mode)
 294:Generated_Source\PSoC4/LED_GREEN_PWM.c **** {
  66              		.loc 1 294 0
  67              		.cfi_startproc
  68              		@ args = 0, pretend = 0, frame = 0
  69              		@ frame_needed = 0, uses_anonymous_args = 0
  70              	.LVL2:
  71 0000 10B5     		push	{r4, lr}
  72              		.cfi_def_cfa_offset 8
  73              		.cfi_offset 4, -8
  74              		.cfi_offset 14, -4
  75 0002 0400     		movs	r4, r0
 295:Generated_Source\PSoC4/LED_GREEN_PWM.c ****     uint8 enableInterrupts;
 296:Generated_Source\PSoC4/LED_GREEN_PWM.c **** 
 297:Generated_Source\PSoC4/LED_GREEN_PWM.c ****     enableInterrupts = CyEnterCriticalSection();
  76              		.loc 1 297 0
  77 0004 FFF7FEFF 		bl	CyEnterCriticalSection
  78              	.LVL3:
 298:Generated_Source\PSoC4/LED_GREEN_PWM.c **** 
 299:Generated_Source\PSoC4/LED_GREEN_PWM.c ****     LED_GREEN_PWM_CONTROL_REG &= (uint32)~LED_GREEN_PWM_MODE_MASK;
  79              		.loc 1 299 0
  80 0008 054B     		ldr	r3, .L5
  81 000a 1968     		ldr	r1, [r3]
  82 000c 054A     		ldr	r2, .L5+4
  83 000e 0A40     		ands	r2, r1
  84 0010 1A60     		str	r2, [r3]
 300:Generated_Source\PSoC4/LED_GREEN_PWM.c ****     LED_GREEN_PWM_CONTROL_REG |= mode;
  85              		.loc 1 300 0
  86 0012 1A68     		ldr	r2, [r3]
  87 0014 1443     		orrs	r4, r2
  88              	.LVL4:
  89 0016 1C60     		str	r4, [r3]
 301:Generated_Source\PSoC4/LED_GREEN_PWM.c **** 
 302:Generated_Source\PSoC4/LED_GREEN_PWM.c ****     CyExitCriticalSection(enableInterrupts);
  90              		.loc 1 302 0
  91 0018 FFF7FEFF 		bl	CyExitCriticalSection
  92              	.LVL5:
 303:Generated_Source\PSoC4/LED_GREEN_PWM.c **** }
  93              		.loc 1 303 0
  94              		@ sp needed
  95 001c 10BD     		pop	{r4, pc}
  96              	.L6:
ARM GAS  C:\Users\ORA\AppData\Local\Temp\ccbWTaCf.s 			page 8


  97 001e C046     		.align	2
  98              	.L5:
  99 0020 C0012040 		.word	1075839424
 100 0024 FFFFFFF8 		.word	-117440513
 101              		.cfi_endproc
 102              	.LFE6:
 103              		.size	LED_GREEN_PWM_SetMode, .-LED_GREEN_PWM_SetMode
 104              		.section	.text.LED_GREEN_PWM_SetQDMode,"ax",%progbits
 105              		.align	2
 106              		.global	LED_GREEN_PWM_SetQDMode
 107              		.code	16
 108              		.thumb_func
 109              		.type	LED_GREEN_PWM_SetQDMode, %function
 110              	LED_GREEN_PWM_SetQDMode:
 111              	.LFB7:
 304:Generated_Source\PSoC4/LED_GREEN_PWM.c **** 
 305:Generated_Source\PSoC4/LED_GREEN_PWM.c **** 
 306:Generated_Source\PSoC4/LED_GREEN_PWM.c **** /*******************************************************************************
 307:Generated_Source\PSoC4/LED_GREEN_PWM.c **** * Function Name: LED_GREEN_PWM_SetQDMode
 308:Generated_Source\PSoC4/LED_GREEN_PWM.c **** ********************************************************************************
 309:Generated_Source\PSoC4/LED_GREEN_PWM.c **** *
 310:Generated_Source\PSoC4/LED_GREEN_PWM.c **** * Summary:
 311:Generated_Source\PSoC4/LED_GREEN_PWM.c **** *  Sets the the Quadrature Decoder to one of the 3 supported modes.
 312:Generated_Source\PSoC4/LED_GREEN_PWM.c **** *  Its functionality is only applicable to Quadrature Decoder operation.
 313:Generated_Source\PSoC4/LED_GREEN_PWM.c **** *
 314:Generated_Source\PSoC4/LED_GREEN_PWM.c **** * Parameters:
 315:Generated_Source\PSoC4/LED_GREEN_PWM.c **** *  qdMode: Quadrature Decoder mode
 316:Generated_Source\PSoC4/LED_GREEN_PWM.c **** *   Values:
 317:Generated_Source\PSoC4/LED_GREEN_PWM.c **** *         - LED_GREEN_PWM_MODE_X1 - Counts on phi 1 rising
 318:Generated_Source\PSoC4/LED_GREEN_PWM.c **** *         - LED_GREEN_PWM_MODE_X2 - Counts on both edges of phi1 (2x faster)
 319:Generated_Source\PSoC4/LED_GREEN_PWM.c **** *         - LED_GREEN_PWM_MODE_X4 - Counts on both edges of phi1 and phi2
 320:Generated_Source\PSoC4/LED_GREEN_PWM.c **** *                                        (4x faster)
 321:Generated_Source\PSoC4/LED_GREEN_PWM.c **** *
 322:Generated_Source\PSoC4/LED_GREEN_PWM.c **** * Return:
 323:Generated_Source\PSoC4/LED_GREEN_PWM.c **** *  None
 324:Generated_Source\PSoC4/LED_GREEN_PWM.c **** *
 325:Generated_Source\PSoC4/LED_GREEN_PWM.c **** *******************************************************************************/
 326:Generated_Source\PSoC4/LED_GREEN_PWM.c **** void LED_GREEN_PWM_SetQDMode(uint32 qdMode)
 327:Generated_Source\PSoC4/LED_GREEN_PWM.c **** {
 112              		.loc 1 327 0
 113              		.cfi_startproc
 114              		@ args = 0, pretend = 0, frame = 0
 115              		@ frame_needed = 0, uses_anonymous_args = 0
 116              	.LVL6:
 117 0000 10B5     		push	{r4, lr}
 118              		.cfi_def_cfa_offset 8
 119              		.cfi_offset 4, -8
 120              		.cfi_offset 14, -4
 121 0002 0400     		movs	r4, r0
 328:Generated_Source\PSoC4/LED_GREEN_PWM.c ****     uint8 enableInterrupts;
 329:Generated_Source\PSoC4/LED_GREEN_PWM.c **** 
 330:Generated_Source\PSoC4/LED_GREEN_PWM.c ****     enableInterrupts = CyEnterCriticalSection();
 122              		.loc 1 330 0
 123 0004 FFF7FEFF 		bl	CyEnterCriticalSection
 124              	.LVL7:
 331:Generated_Source\PSoC4/LED_GREEN_PWM.c **** 
 332:Generated_Source\PSoC4/LED_GREEN_PWM.c ****     LED_GREEN_PWM_CONTROL_REG &= (uint32)~LED_GREEN_PWM_QUAD_MODE_MASK;
ARM GAS  C:\Users\ORA\AppData\Local\Temp\ccbWTaCf.s 			page 9


 125              		.loc 1 332 0
 126 0008 054B     		ldr	r3, .L8
 127 000a 1968     		ldr	r1, [r3]
 128 000c 054A     		ldr	r2, .L8+4
 129 000e 0A40     		ands	r2, r1
 130 0010 1A60     		str	r2, [r3]
 333:Generated_Source\PSoC4/LED_GREEN_PWM.c ****     LED_GREEN_PWM_CONTROL_REG |= qdMode;
 131              		.loc 1 333 0
 132 0012 1A68     		ldr	r2, [r3]
 133 0014 1443     		orrs	r4, r2
 134              	.LVL8:
 135 0016 1C60     		str	r4, [r3]
 334:Generated_Source\PSoC4/LED_GREEN_PWM.c **** 
 335:Generated_Source\PSoC4/LED_GREEN_PWM.c ****     CyExitCriticalSection(enableInterrupts);
 136              		.loc 1 335 0
 137 0018 FFF7FEFF 		bl	CyExitCriticalSection
 138              	.LVL9:
 336:Generated_Source\PSoC4/LED_GREEN_PWM.c **** }
 139              		.loc 1 336 0
 140              		@ sp needed
 141 001c 10BD     		pop	{r4, pc}
 142              	.L9:
 143 001e C046     		.align	2
 144              	.L8:
 145 0020 C0012040 		.word	1075839424
 146 0024 FFFF8FFF 		.word	-7340033
 147              		.cfi_endproc
 148              	.LFE7:
 149              		.size	LED_GREEN_PWM_SetQDMode, .-LED_GREEN_PWM_SetQDMode
 150              		.section	.text.LED_GREEN_PWM_SetPrescaler,"ax",%progbits
 151              		.align	2
 152              		.global	LED_GREEN_PWM_SetPrescaler
 153              		.code	16
 154              		.thumb_func
 155              		.type	LED_GREEN_PWM_SetPrescaler, %function
 156              	LED_GREEN_PWM_SetPrescaler:
 157              	.LFB8:
 337:Generated_Source\PSoC4/LED_GREEN_PWM.c **** 
 338:Generated_Source\PSoC4/LED_GREEN_PWM.c **** 
 339:Generated_Source\PSoC4/LED_GREEN_PWM.c **** /*******************************************************************************
 340:Generated_Source\PSoC4/LED_GREEN_PWM.c **** * Function Name: LED_GREEN_PWM_SetPrescaler
 341:Generated_Source\PSoC4/LED_GREEN_PWM.c **** ********************************************************************************
 342:Generated_Source\PSoC4/LED_GREEN_PWM.c **** *
 343:Generated_Source\PSoC4/LED_GREEN_PWM.c **** * Summary:
 344:Generated_Source\PSoC4/LED_GREEN_PWM.c **** *  Sets the prescaler value that is applied to the clock input.  Not applicable
 345:Generated_Source\PSoC4/LED_GREEN_PWM.c **** *  to a PWM with the dead time mode or Quadrature Decoder mode.
 346:Generated_Source\PSoC4/LED_GREEN_PWM.c **** *
 347:Generated_Source\PSoC4/LED_GREEN_PWM.c **** * Parameters:
 348:Generated_Source\PSoC4/LED_GREEN_PWM.c **** *  prescaler: Prescaler divider value
 349:Generated_Source\PSoC4/LED_GREEN_PWM.c **** *   Values:
 350:Generated_Source\PSoC4/LED_GREEN_PWM.c **** *         - LED_GREEN_PWM_PRESCALE_DIVBY1    - Divide by 1 (no prescaling)
 351:Generated_Source\PSoC4/LED_GREEN_PWM.c **** *         - LED_GREEN_PWM_PRESCALE_DIVBY2    - Divide by 2
 352:Generated_Source\PSoC4/LED_GREEN_PWM.c **** *         - LED_GREEN_PWM_PRESCALE_DIVBY4    - Divide by 4
 353:Generated_Source\PSoC4/LED_GREEN_PWM.c **** *         - LED_GREEN_PWM_PRESCALE_DIVBY8    - Divide by 8
 354:Generated_Source\PSoC4/LED_GREEN_PWM.c **** *         - LED_GREEN_PWM_PRESCALE_DIVBY16   - Divide by 16
 355:Generated_Source\PSoC4/LED_GREEN_PWM.c **** *         - LED_GREEN_PWM_PRESCALE_DIVBY32   - Divide by 32
 356:Generated_Source\PSoC4/LED_GREEN_PWM.c **** *         - LED_GREEN_PWM_PRESCALE_DIVBY64   - Divide by 64
ARM GAS  C:\Users\ORA\AppData\Local\Temp\ccbWTaCf.s 			page 10


 357:Generated_Source\PSoC4/LED_GREEN_PWM.c **** *         - LED_GREEN_PWM_PRESCALE_DIVBY128  - Divide by 128
 358:Generated_Source\PSoC4/LED_GREEN_PWM.c **** *
 359:Generated_Source\PSoC4/LED_GREEN_PWM.c **** * Return:
 360:Generated_Source\PSoC4/LED_GREEN_PWM.c **** *  None
 361:Generated_Source\PSoC4/LED_GREEN_PWM.c **** *
 362:Generated_Source\PSoC4/LED_GREEN_PWM.c **** *******************************************************************************/
 363:Generated_Source\PSoC4/LED_GREEN_PWM.c **** void LED_GREEN_PWM_SetPrescaler(uint32 prescaler)
 364:Generated_Source\PSoC4/LED_GREEN_PWM.c **** {
 158              		.loc 1 364 0
 159              		.cfi_startproc
 160              		@ args = 0, pretend = 0, frame = 0
 161              		@ frame_needed = 0, uses_anonymous_args = 0
 162              	.LVL10:
 163 0000 10B5     		push	{r4, lr}
 164              		.cfi_def_cfa_offset 8
 165              		.cfi_offset 4, -8
 166              		.cfi_offset 14, -4
 167 0002 0400     		movs	r4, r0
 365:Generated_Source\PSoC4/LED_GREEN_PWM.c ****     uint8 enableInterrupts;
 366:Generated_Source\PSoC4/LED_GREEN_PWM.c **** 
 367:Generated_Source\PSoC4/LED_GREEN_PWM.c ****     enableInterrupts = CyEnterCriticalSection();
 168              		.loc 1 367 0
 169 0004 FFF7FEFF 		bl	CyEnterCriticalSection
 170              	.LVL11:
 368:Generated_Source\PSoC4/LED_GREEN_PWM.c **** 
 369:Generated_Source\PSoC4/LED_GREEN_PWM.c ****     LED_GREEN_PWM_CONTROL_REG &= (uint32)~LED_GREEN_PWM_PRESCALER_MASK;
 171              		.loc 1 369 0
 172 0008 054B     		ldr	r3, .L11
 173 000a 1968     		ldr	r1, [r3]
 174 000c 054A     		ldr	r2, .L11+4
 175 000e 0A40     		ands	r2, r1
 176 0010 1A60     		str	r2, [r3]
 370:Generated_Source\PSoC4/LED_GREEN_PWM.c ****     LED_GREEN_PWM_CONTROL_REG |= prescaler;
 177              		.loc 1 370 0
 178 0012 1A68     		ldr	r2, [r3]
 179 0014 1443     		orrs	r4, r2
 180              	.LVL12:
 181 0016 1C60     		str	r4, [r3]
 371:Generated_Source\PSoC4/LED_GREEN_PWM.c **** 
 372:Generated_Source\PSoC4/LED_GREEN_PWM.c ****     CyExitCriticalSection(enableInterrupts);
 182              		.loc 1 372 0
 183 0018 FFF7FEFF 		bl	CyExitCriticalSection
 184              	.LVL13:
 373:Generated_Source\PSoC4/LED_GREEN_PWM.c **** }
 185              		.loc 1 373 0
 186              		@ sp needed
 187 001c 10BD     		pop	{r4, pc}
 188              	.L12:
 189 001e C046     		.align	2
 190              	.L11:
 191 0020 C0012040 		.word	1075839424
 192 0024 FF00FFFF 		.word	-65281
 193              		.cfi_endproc
 194              	.LFE8:
 195              		.size	LED_GREEN_PWM_SetPrescaler, .-LED_GREEN_PWM_SetPrescaler
 196              		.section	.text.LED_GREEN_PWM_SetOneShot,"ax",%progbits
 197              		.align	2
ARM GAS  C:\Users\ORA\AppData\Local\Temp\ccbWTaCf.s 			page 11


 198              		.global	LED_GREEN_PWM_SetOneShot
 199              		.code	16
 200              		.thumb_func
 201              		.type	LED_GREEN_PWM_SetOneShot, %function
 202              	LED_GREEN_PWM_SetOneShot:
 203              	.LFB9:
 374:Generated_Source\PSoC4/LED_GREEN_PWM.c **** 
 375:Generated_Source\PSoC4/LED_GREEN_PWM.c **** 
 376:Generated_Source\PSoC4/LED_GREEN_PWM.c **** /*******************************************************************************
 377:Generated_Source\PSoC4/LED_GREEN_PWM.c **** * Function Name: LED_GREEN_PWM_SetOneShot
 378:Generated_Source\PSoC4/LED_GREEN_PWM.c **** ********************************************************************************
 379:Generated_Source\PSoC4/LED_GREEN_PWM.c **** *
 380:Generated_Source\PSoC4/LED_GREEN_PWM.c **** * Summary:
 381:Generated_Source\PSoC4/LED_GREEN_PWM.c **** *  Writes the register that controls whether the LED_GREEN_PWM runs
 382:Generated_Source\PSoC4/LED_GREEN_PWM.c **** *  continuously or stops when terminal count is reached.  By default the
 383:Generated_Source\PSoC4/LED_GREEN_PWM.c **** *  LED_GREEN_PWM operates in the continuous mode.
 384:Generated_Source\PSoC4/LED_GREEN_PWM.c **** *
 385:Generated_Source\PSoC4/LED_GREEN_PWM.c **** * Parameters:
 386:Generated_Source\PSoC4/LED_GREEN_PWM.c **** *  oneShotEnable
 387:Generated_Source\PSoC4/LED_GREEN_PWM.c **** *   Values:
 388:Generated_Source\PSoC4/LED_GREEN_PWM.c **** *     - 0 - Continuous
 389:Generated_Source\PSoC4/LED_GREEN_PWM.c **** *     - 1 - Enable One Shot
 390:Generated_Source\PSoC4/LED_GREEN_PWM.c **** *
 391:Generated_Source\PSoC4/LED_GREEN_PWM.c **** * Return:
 392:Generated_Source\PSoC4/LED_GREEN_PWM.c **** *  None
 393:Generated_Source\PSoC4/LED_GREEN_PWM.c **** *
 394:Generated_Source\PSoC4/LED_GREEN_PWM.c **** *******************************************************************************/
 395:Generated_Source\PSoC4/LED_GREEN_PWM.c **** void LED_GREEN_PWM_SetOneShot(uint32 oneShotEnable)
 396:Generated_Source\PSoC4/LED_GREEN_PWM.c **** {
 204              		.loc 1 396 0
 205              		.cfi_startproc
 206              		@ args = 0, pretend = 0, frame = 0
 207              		@ frame_needed = 0, uses_anonymous_args = 0
 208              	.LVL14:
 209 0000 70B5     		push	{r4, r5, r6, lr}
 210              		.cfi_def_cfa_offset 16
 211              		.cfi_offset 4, -16
 212              		.cfi_offset 5, -12
 213              		.cfi_offset 6, -8
 214              		.cfi_offset 14, -4
 215 0002 0400     		movs	r4, r0
 397:Generated_Source\PSoC4/LED_GREEN_PWM.c ****     uint8 enableInterrupts;
 398:Generated_Source\PSoC4/LED_GREEN_PWM.c **** 
 399:Generated_Source\PSoC4/LED_GREEN_PWM.c ****     enableInterrupts = CyEnterCriticalSection();
 216              		.loc 1 399 0
 217 0004 FFF7FEFF 		bl	CyEnterCriticalSection
 218              	.LVL15:
 400:Generated_Source\PSoC4/LED_GREEN_PWM.c **** 
 401:Generated_Source\PSoC4/LED_GREEN_PWM.c ****     LED_GREEN_PWM_CONTROL_REG &= (uint32)~LED_GREEN_PWM_ONESHOT_MASK;
 219              		.loc 1 401 0
 220 0008 0749     		ldr	r1, .L14
 221 000a 0A68     		ldr	r2, [r1]
 222 000c 074B     		ldr	r3, .L14+4
 223 000e 1340     		ands	r3, r2
 224 0010 0B60     		str	r3, [r1]
 402:Generated_Source\PSoC4/LED_GREEN_PWM.c ****     LED_GREEN_PWM_CONTROL_REG |= ((uint32)((oneShotEnable & LED_GREEN_PWM_1BIT_MASK) <<
 225              		.loc 1 402 0
ARM GAS  C:\Users\ORA\AppData\Local\Temp\ccbWTaCf.s 			page 12


 226 0012 0D68     		ldr	r5, [r1]
 227 0014 A304     		lsls	r3, r4, #18
 228 0016 8022     		movs	r2, #128
 229 0018 D202     		lsls	r2, r2, #11
 230 001a 1340     		ands	r3, r2
 231 001c 2B43     		orrs	r3, r5
 232 001e 0B60     		str	r3, [r1]
 403:Generated_Source\PSoC4/LED_GREEN_PWM.c ****                                                                LED_GREEN_PWM_ONESHOT_SHIFT));
 404:Generated_Source\PSoC4/LED_GREEN_PWM.c **** 
 405:Generated_Source\PSoC4/LED_GREEN_PWM.c ****     CyExitCriticalSection(enableInterrupts);
 233              		.loc 1 405 0
 234 0020 FFF7FEFF 		bl	CyExitCriticalSection
 235              	.LVL16:
 406:Generated_Source\PSoC4/LED_GREEN_PWM.c **** }
 236              		.loc 1 406 0
 237              		@ sp needed
 238              	.LVL17:
 239 0024 70BD     		pop	{r4, r5, r6, pc}
 240              	.L15:
 241 0026 C046     		.align	2
 242              	.L14:
 243 0028 C0012040 		.word	1075839424
 244 002c FFFFFBFF 		.word	-262145
 245              		.cfi_endproc
 246              	.LFE9:
 247              		.size	LED_GREEN_PWM_SetOneShot, .-LED_GREEN_PWM_SetOneShot
 248              		.section	.text.LED_GREEN_PWM_SetPWMMode,"ax",%progbits
 249              		.align	2
 250              		.global	LED_GREEN_PWM_SetPWMMode
 251              		.code	16
 252              		.thumb_func
 253              		.type	LED_GREEN_PWM_SetPWMMode, %function
 254              	LED_GREEN_PWM_SetPWMMode:
 255              	.LFB10:
 407:Generated_Source\PSoC4/LED_GREEN_PWM.c **** 
 408:Generated_Source\PSoC4/LED_GREEN_PWM.c **** 
 409:Generated_Source\PSoC4/LED_GREEN_PWM.c **** /*******************************************************************************
 410:Generated_Source\PSoC4/LED_GREEN_PWM.c **** * Function Name: LED_GREEN_PWM_SetPWMMode
 411:Generated_Source\PSoC4/LED_GREEN_PWM.c **** ********************************************************************************
 412:Generated_Source\PSoC4/LED_GREEN_PWM.c **** *
 413:Generated_Source\PSoC4/LED_GREEN_PWM.c **** * Summary:
 414:Generated_Source\PSoC4/LED_GREEN_PWM.c **** *  Writes the control register that determines what mode of operation the PWM
 415:Generated_Source\PSoC4/LED_GREEN_PWM.c **** *  output lines are driven in.  There is a setting for what to do on a
 416:Generated_Source\PSoC4/LED_GREEN_PWM.c **** *  comparison match (CC_MATCH), on an overflow (OVERFLOW) and on an underflow
 417:Generated_Source\PSoC4/LED_GREEN_PWM.c **** *  (UNDERFLOW).  The value for each of the three must be ORed together to form
 418:Generated_Source\PSoC4/LED_GREEN_PWM.c **** *  the mode.
 419:Generated_Source\PSoC4/LED_GREEN_PWM.c **** *
 420:Generated_Source\PSoC4/LED_GREEN_PWM.c **** * Parameters:
 421:Generated_Source\PSoC4/LED_GREEN_PWM.c **** *  modeMask: A combination of three mode settings.  Mask must include a value
 422:Generated_Source\PSoC4/LED_GREEN_PWM.c **** *  for each of the three or use one of the preconfigured PWM settings.
 423:Generated_Source\PSoC4/LED_GREEN_PWM.c **** *   Values:
 424:Generated_Source\PSoC4/LED_GREEN_PWM.c **** *     - CC_MATCH_SET        - Set on comparison match
 425:Generated_Source\PSoC4/LED_GREEN_PWM.c **** *     - CC_MATCH_CLEAR      - Clear on comparison match
 426:Generated_Source\PSoC4/LED_GREEN_PWM.c **** *     - CC_MATCH_INVERT     - Invert on comparison match
 427:Generated_Source\PSoC4/LED_GREEN_PWM.c **** *     - CC_MATCH_NO_CHANGE  - No change on comparison match
 428:Generated_Source\PSoC4/LED_GREEN_PWM.c **** *     - OVERLOW_SET         - Set on overflow
 429:Generated_Source\PSoC4/LED_GREEN_PWM.c **** *     - OVERLOW_CLEAR       - Clear on  overflow
ARM GAS  C:\Users\ORA\AppData\Local\Temp\ccbWTaCf.s 			page 13


 430:Generated_Source\PSoC4/LED_GREEN_PWM.c **** *     - OVERLOW_INVERT      - Invert on overflow
 431:Generated_Source\PSoC4/LED_GREEN_PWM.c **** *     - OVERLOW_NO_CHANGE   - No change on overflow
 432:Generated_Source\PSoC4/LED_GREEN_PWM.c **** *     - UNDERFLOW_SET       - Set on underflow
 433:Generated_Source\PSoC4/LED_GREEN_PWM.c **** *     - UNDERFLOW_CLEAR     - Clear on underflow
 434:Generated_Source\PSoC4/LED_GREEN_PWM.c **** *     - UNDERFLOW_INVERT    - Invert on underflow
 435:Generated_Source\PSoC4/LED_GREEN_PWM.c **** *     - UNDERFLOW_NO_CHANGE - No change on underflow
 436:Generated_Source\PSoC4/LED_GREEN_PWM.c **** *     - PWM_MODE_LEFT       - Setting for left aligned PWM.  Should be combined
 437:Generated_Source\PSoC4/LED_GREEN_PWM.c **** *                             with up counting mode
 438:Generated_Source\PSoC4/LED_GREEN_PWM.c **** *     - PWM_MODE_RIGHT      - Setting for right aligned PWM.  Should be combined
 439:Generated_Source\PSoC4/LED_GREEN_PWM.c **** *                             with down counting mode
 440:Generated_Source\PSoC4/LED_GREEN_PWM.c **** *     - PWM_MODE_CENTER     - Setting for center aligned PWM.  Should be
 441:Generated_Source\PSoC4/LED_GREEN_PWM.c **** *                             combined with up/down 0 mode
 442:Generated_Source\PSoC4/LED_GREEN_PWM.c **** *     - PWM_MODE_ASYM       - Setting for asymmetric PWM.  Should be combined
 443:Generated_Source\PSoC4/LED_GREEN_PWM.c **** *                             with up/down 1 mode
 444:Generated_Source\PSoC4/LED_GREEN_PWM.c **** *
 445:Generated_Source\PSoC4/LED_GREEN_PWM.c **** * Return:
 446:Generated_Source\PSoC4/LED_GREEN_PWM.c **** *  None
 447:Generated_Source\PSoC4/LED_GREEN_PWM.c **** *
 448:Generated_Source\PSoC4/LED_GREEN_PWM.c **** *******************************************************************************/
 449:Generated_Source\PSoC4/LED_GREEN_PWM.c **** void LED_GREEN_PWM_SetPWMMode(uint32 modeMask)
 450:Generated_Source\PSoC4/LED_GREEN_PWM.c **** {
 256              		.loc 1 450 0
 257              		.cfi_startproc
 258              		@ args = 0, pretend = 0, frame = 0
 259              		@ frame_needed = 0, uses_anonymous_args = 0
 260              		@ link register save eliminated.
 261              	.LVL18:
 451:Generated_Source\PSoC4/LED_GREEN_PWM.c ****     LED_GREEN_PWM_TRIG_CONTROL2_REG = (modeMask & LED_GREEN_PWM_6BIT_MASK);
 262              		.loc 1 451 0
 263 0000 3F23     		movs	r3, #63
 264 0002 1840     		ands	r0, r3
 265              	.LVL19:
 266 0004 014B     		ldr	r3, .L17
 267 0006 1860     		str	r0, [r3]
 452:Generated_Source\PSoC4/LED_GREEN_PWM.c **** }
 268              		.loc 1 452 0
 269              		@ sp needed
 270 0008 7047     		bx	lr
 271              	.L18:
 272 000a C046     		.align	2
 273              	.L17:
 274 000c E8012040 		.word	1075839464
 275              		.cfi_endproc
 276              	.LFE10:
 277              		.size	LED_GREEN_PWM_SetPWMMode, .-LED_GREEN_PWM_SetPWMMode
 278              		.section	.text.LED_GREEN_PWM_SetPWMSyncKill,"ax",%progbits
 279              		.align	2
 280              		.global	LED_GREEN_PWM_SetPWMSyncKill
 281              		.code	16
 282              		.thumb_func
 283              		.type	LED_GREEN_PWM_SetPWMSyncKill, %function
 284              	LED_GREEN_PWM_SetPWMSyncKill:
 285              	.LFB11:
 453:Generated_Source\PSoC4/LED_GREEN_PWM.c **** 
 454:Generated_Source\PSoC4/LED_GREEN_PWM.c **** 
 455:Generated_Source\PSoC4/LED_GREEN_PWM.c **** 
 456:Generated_Source\PSoC4/LED_GREEN_PWM.c **** /*******************************************************************************
ARM GAS  C:\Users\ORA\AppData\Local\Temp\ccbWTaCf.s 			page 14


 457:Generated_Source\PSoC4/LED_GREEN_PWM.c **** * Function Name: LED_GREEN_PWM_SetPWMSyncKill
 458:Generated_Source\PSoC4/LED_GREEN_PWM.c **** ********************************************************************************
 459:Generated_Source\PSoC4/LED_GREEN_PWM.c **** *
 460:Generated_Source\PSoC4/LED_GREEN_PWM.c **** * Summary:
 461:Generated_Source\PSoC4/LED_GREEN_PWM.c **** *  Writes the register that controls whether the PWM kill signal (stop input)
 462:Generated_Source\PSoC4/LED_GREEN_PWM.c **** *  causes asynchronous or synchronous kill operation.  By default the kill
 463:Generated_Source\PSoC4/LED_GREEN_PWM.c **** *  operation is asynchronous.  This functionality is only applicable to the PWM
 464:Generated_Source\PSoC4/LED_GREEN_PWM.c **** *  and PWM with dead time modes.
 465:Generated_Source\PSoC4/LED_GREEN_PWM.c **** *
 466:Generated_Source\PSoC4/LED_GREEN_PWM.c **** *  For Synchronous mode the kill signal disables both the line and line_n
 467:Generated_Source\PSoC4/LED_GREEN_PWM.c **** *  signals until the next terminal count.
 468:Generated_Source\PSoC4/LED_GREEN_PWM.c **** *
 469:Generated_Source\PSoC4/LED_GREEN_PWM.c **** *  For Asynchronous mode the kill signal disables both the line and line_n
 470:Generated_Source\PSoC4/LED_GREEN_PWM.c **** *  signals when the kill signal is present.  This mode should only be used
 471:Generated_Source\PSoC4/LED_GREEN_PWM.c **** *  when the kill signal (stop input) is configured in the pass through mode
 472:Generated_Source\PSoC4/LED_GREEN_PWM.c **** *  (Level sensitive signal).
 473:Generated_Source\PSoC4/LED_GREEN_PWM.c **** 
 474:Generated_Source\PSoC4/LED_GREEN_PWM.c **** *
 475:Generated_Source\PSoC4/LED_GREEN_PWM.c **** * Parameters:
 476:Generated_Source\PSoC4/LED_GREEN_PWM.c **** *  syncKillEnable
 477:Generated_Source\PSoC4/LED_GREEN_PWM.c **** *   Values:
 478:Generated_Source\PSoC4/LED_GREEN_PWM.c **** *     - 0 - Asynchronous
 479:Generated_Source\PSoC4/LED_GREEN_PWM.c **** *     - 1 - Synchronous
 480:Generated_Source\PSoC4/LED_GREEN_PWM.c **** *
 481:Generated_Source\PSoC4/LED_GREEN_PWM.c **** * Return:
 482:Generated_Source\PSoC4/LED_GREEN_PWM.c **** *  None
 483:Generated_Source\PSoC4/LED_GREEN_PWM.c **** *
 484:Generated_Source\PSoC4/LED_GREEN_PWM.c **** *******************************************************************************/
 485:Generated_Source\PSoC4/LED_GREEN_PWM.c **** void LED_GREEN_PWM_SetPWMSyncKill(uint32 syncKillEnable)
 486:Generated_Source\PSoC4/LED_GREEN_PWM.c **** {
 286              		.loc 1 486 0
 287              		.cfi_startproc
 288              		@ args = 0, pretend = 0, frame = 0
 289              		@ frame_needed = 0, uses_anonymous_args = 0
 290              	.LVL20:
 291 0000 70B5     		push	{r4, r5, r6, lr}
 292              		.cfi_def_cfa_offset 16
 293              		.cfi_offset 4, -16
 294              		.cfi_offset 5, -12
 295              		.cfi_offset 6, -8
 296              		.cfi_offset 14, -4
 297 0002 0400     		movs	r4, r0
 487:Generated_Source\PSoC4/LED_GREEN_PWM.c ****     uint8 enableInterrupts;
 488:Generated_Source\PSoC4/LED_GREEN_PWM.c **** 
 489:Generated_Source\PSoC4/LED_GREEN_PWM.c ****     enableInterrupts = CyEnterCriticalSection();
 298              		.loc 1 489 0
 299 0004 FFF7FEFF 		bl	CyEnterCriticalSection
 300              	.LVL21:
 490:Generated_Source\PSoC4/LED_GREEN_PWM.c **** 
 491:Generated_Source\PSoC4/LED_GREEN_PWM.c ****     LED_GREEN_PWM_CONTROL_REG &= (uint32)~LED_GREEN_PWM_PWM_SYNC_KILL_MASK;
 301              		.loc 1 491 0
 302 0008 064A     		ldr	r2, .L20
 303 000a 1368     		ldr	r3, [r2]
 304 000c 0421     		movs	r1, #4
 305 000e 8B43     		bics	r3, r1
 306 0010 1360     		str	r3, [r2]
 492:Generated_Source\PSoC4/LED_GREEN_PWM.c ****     LED_GREEN_PWM_CONTROL_REG |= ((uint32)((syncKillEnable & LED_GREEN_PWM_1BIT_MASK)  <<
ARM GAS  C:\Users\ORA\AppData\Local\Temp\ccbWTaCf.s 			page 15


 307              		.loc 1 492 0
 308 0012 1568     		ldr	r5, [r2]
 309 0014 A300     		lsls	r3, r4, #2
 310 0016 1940     		ands	r1, r3
 311 0018 0C00     		movs	r4, r1
 312              	.LVL22:
 313 001a 2C43     		orrs	r4, r5
 314 001c 1460     		str	r4, [r2]
 493:Generated_Source\PSoC4/LED_GREEN_PWM.c ****                                                LED_GREEN_PWM_PWM_SYNC_KILL_SHIFT));
 494:Generated_Source\PSoC4/LED_GREEN_PWM.c **** 
 495:Generated_Source\PSoC4/LED_GREEN_PWM.c ****     CyExitCriticalSection(enableInterrupts);
 315              		.loc 1 495 0
 316 001e FFF7FEFF 		bl	CyExitCriticalSection
 317              	.LVL23:
 496:Generated_Source\PSoC4/LED_GREEN_PWM.c **** }
 318              		.loc 1 496 0
 319              		@ sp needed
 320 0022 70BD     		pop	{r4, r5, r6, pc}
 321              	.L21:
 322              		.align	2
 323              	.L20:
 324 0024 C0012040 		.word	1075839424
 325              		.cfi_endproc
 326              	.LFE11:
 327              		.size	LED_GREEN_PWM_SetPWMSyncKill, .-LED_GREEN_PWM_SetPWMSyncKill
 328              		.section	.text.LED_GREEN_PWM_SetPWMStopOnKill,"ax",%progbits
 329              		.align	2
 330              		.global	LED_GREEN_PWM_SetPWMStopOnKill
 331              		.code	16
 332              		.thumb_func
 333              		.type	LED_GREEN_PWM_SetPWMStopOnKill, %function
 334              	LED_GREEN_PWM_SetPWMStopOnKill:
 335              	.LFB12:
 497:Generated_Source\PSoC4/LED_GREEN_PWM.c **** 
 498:Generated_Source\PSoC4/LED_GREEN_PWM.c **** 
 499:Generated_Source\PSoC4/LED_GREEN_PWM.c **** /*******************************************************************************
 500:Generated_Source\PSoC4/LED_GREEN_PWM.c **** * Function Name: LED_GREEN_PWM_SetPWMStopOnKill
 501:Generated_Source\PSoC4/LED_GREEN_PWM.c **** ********************************************************************************
 502:Generated_Source\PSoC4/LED_GREEN_PWM.c **** *
 503:Generated_Source\PSoC4/LED_GREEN_PWM.c **** * Summary:
 504:Generated_Source\PSoC4/LED_GREEN_PWM.c **** *  Writes the register that controls whether the PWM kill signal (stop input)
 505:Generated_Source\PSoC4/LED_GREEN_PWM.c **** *  causes the PWM counter to stop.  By default the kill operation does not stop
 506:Generated_Source\PSoC4/LED_GREEN_PWM.c **** *  the counter.  This functionality is only applicable to the three PWM modes.
 507:Generated_Source\PSoC4/LED_GREEN_PWM.c **** *
 508:Generated_Source\PSoC4/LED_GREEN_PWM.c **** *
 509:Generated_Source\PSoC4/LED_GREEN_PWM.c **** * Parameters:
 510:Generated_Source\PSoC4/LED_GREEN_PWM.c **** *  stopOnKillEnable
 511:Generated_Source\PSoC4/LED_GREEN_PWM.c **** *   Values:
 512:Generated_Source\PSoC4/LED_GREEN_PWM.c **** *     - 0 - Don't stop
 513:Generated_Source\PSoC4/LED_GREEN_PWM.c **** *     - 1 - Stop
 514:Generated_Source\PSoC4/LED_GREEN_PWM.c **** *
 515:Generated_Source\PSoC4/LED_GREEN_PWM.c **** * Return:
 516:Generated_Source\PSoC4/LED_GREEN_PWM.c **** *  None
 517:Generated_Source\PSoC4/LED_GREEN_PWM.c **** *
 518:Generated_Source\PSoC4/LED_GREEN_PWM.c **** *******************************************************************************/
 519:Generated_Source\PSoC4/LED_GREEN_PWM.c **** void LED_GREEN_PWM_SetPWMStopOnKill(uint32 stopOnKillEnable)
 520:Generated_Source\PSoC4/LED_GREEN_PWM.c **** {
ARM GAS  C:\Users\ORA\AppData\Local\Temp\ccbWTaCf.s 			page 16


 336              		.loc 1 520 0
 337              		.cfi_startproc
 338              		@ args = 0, pretend = 0, frame = 0
 339              		@ frame_needed = 0, uses_anonymous_args = 0
 340              	.LVL24:
 341 0000 70B5     		push	{r4, r5, r6, lr}
 342              		.cfi_def_cfa_offset 16
 343              		.cfi_offset 4, -16
 344              		.cfi_offset 5, -12
 345              		.cfi_offset 6, -8
 346              		.cfi_offset 14, -4
 347 0002 0400     		movs	r4, r0
 521:Generated_Source\PSoC4/LED_GREEN_PWM.c ****     uint8 enableInterrupts;
 522:Generated_Source\PSoC4/LED_GREEN_PWM.c **** 
 523:Generated_Source\PSoC4/LED_GREEN_PWM.c ****     enableInterrupts = CyEnterCriticalSection();
 348              		.loc 1 523 0
 349 0004 FFF7FEFF 		bl	CyEnterCriticalSection
 350              	.LVL25:
 524:Generated_Source\PSoC4/LED_GREEN_PWM.c **** 
 525:Generated_Source\PSoC4/LED_GREEN_PWM.c ****     LED_GREEN_PWM_CONTROL_REG &= (uint32)~LED_GREEN_PWM_PWM_STOP_KILL_MASK;
 351              		.loc 1 525 0
 352 0008 064A     		ldr	r2, .L23
 353 000a 1368     		ldr	r3, [r2]
 354 000c 0821     		movs	r1, #8
 355 000e 8B43     		bics	r3, r1
 356 0010 1360     		str	r3, [r2]
 526:Generated_Source\PSoC4/LED_GREEN_PWM.c ****     LED_GREEN_PWM_CONTROL_REG |= ((uint32)((stopOnKillEnable & LED_GREEN_PWM_1BIT_MASK)  <<
 357              		.loc 1 526 0
 358 0012 1568     		ldr	r5, [r2]
 359 0014 E300     		lsls	r3, r4, #3
 360 0016 1940     		ands	r1, r3
 361 0018 0C00     		movs	r4, r1
 362              	.LVL26:
 363 001a 2C43     		orrs	r4, r5
 364 001c 1460     		str	r4, [r2]
 527:Generated_Source\PSoC4/LED_GREEN_PWM.c ****                                                          LED_GREEN_PWM_PWM_STOP_KILL_SHIFT));
 528:Generated_Source\PSoC4/LED_GREEN_PWM.c **** 
 529:Generated_Source\PSoC4/LED_GREEN_PWM.c ****     CyExitCriticalSection(enableInterrupts);
 365              		.loc 1 529 0
 366 001e FFF7FEFF 		bl	CyExitCriticalSection
 367              	.LVL27:
 530:Generated_Source\PSoC4/LED_GREEN_PWM.c **** }
 368              		.loc 1 530 0
 369              		@ sp needed
 370 0022 70BD     		pop	{r4, r5, r6, pc}
 371              	.L24:
 372              		.align	2
 373              	.L23:
 374 0024 C0012040 		.word	1075839424
 375              		.cfi_endproc
 376              	.LFE12:
 377              		.size	LED_GREEN_PWM_SetPWMStopOnKill, .-LED_GREEN_PWM_SetPWMStopOnKill
 378              		.section	.text.LED_GREEN_PWM_SetPWMDeadTime,"ax",%progbits
 379              		.align	2
 380              		.global	LED_GREEN_PWM_SetPWMDeadTime
 381              		.code	16
 382              		.thumb_func
ARM GAS  C:\Users\ORA\AppData\Local\Temp\ccbWTaCf.s 			page 17


 383              		.type	LED_GREEN_PWM_SetPWMDeadTime, %function
 384              	LED_GREEN_PWM_SetPWMDeadTime:
 385              	.LFB13:
 531:Generated_Source\PSoC4/LED_GREEN_PWM.c **** 
 532:Generated_Source\PSoC4/LED_GREEN_PWM.c **** 
 533:Generated_Source\PSoC4/LED_GREEN_PWM.c **** /*******************************************************************************
 534:Generated_Source\PSoC4/LED_GREEN_PWM.c **** * Function Name: LED_GREEN_PWM_SetPWMDeadTime
 535:Generated_Source\PSoC4/LED_GREEN_PWM.c **** ********************************************************************************
 536:Generated_Source\PSoC4/LED_GREEN_PWM.c **** *
 537:Generated_Source\PSoC4/LED_GREEN_PWM.c **** * Summary:
 538:Generated_Source\PSoC4/LED_GREEN_PWM.c **** *  Writes the dead time control value.  This value delays the rising edge of
 539:Generated_Source\PSoC4/LED_GREEN_PWM.c **** *  both the line and line_n signals the designated number of cycles resulting
 540:Generated_Source\PSoC4/LED_GREEN_PWM.c **** *  in both signals being inactive for that many cycles.  This functionality is
 541:Generated_Source\PSoC4/LED_GREEN_PWM.c **** *  only applicable to the PWM in the dead time mode.
 542:Generated_Source\PSoC4/LED_GREEN_PWM.c **** 
 543:Generated_Source\PSoC4/LED_GREEN_PWM.c **** *
 544:Generated_Source\PSoC4/LED_GREEN_PWM.c **** * Parameters:
 545:Generated_Source\PSoC4/LED_GREEN_PWM.c **** *  Dead time to insert
 546:Generated_Source\PSoC4/LED_GREEN_PWM.c **** *   Values: 0 to 255
 547:Generated_Source\PSoC4/LED_GREEN_PWM.c **** *
 548:Generated_Source\PSoC4/LED_GREEN_PWM.c **** * Return:
 549:Generated_Source\PSoC4/LED_GREEN_PWM.c **** *  None
 550:Generated_Source\PSoC4/LED_GREEN_PWM.c **** *
 551:Generated_Source\PSoC4/LED_GREEN_PWM.c **** *******************************************************************************/
 552:Generated_Source\PSoC4/LED_GREEN_PWM.c **** void LED_GREEN_PWM_SetPWMDeadTime(uint32 deadTime)
 553:Generated_Source\PSoC4/LED_GREEN_PWM.c **** {
 386              		.loc 1 553 0
 387              		.cfi_startproc
 388              		@ args = 0, pretend = 0, frame = 0
 389              		@ frame_needed = 0, uses_anonymous_args = 0
 390              	.LVL28:
 391 0000 10B5     		push	{r4, lr}
 392              		.cfi_def_cfa_offset 8
 393              		.cfi_offset 4, -8
 394              		.cfi_offset 14, -4
 395 0002 0400     		movs	r4, r0
 554:Generated_Source\PSoC4/LED_GREEN_PWM.c ****     uint8 enableInterrupts;
 555:Generated_Source\PSoC4/LED_GREEN_PWM.c **** 
 556:Generated_Source\PSoC4/LED_GREEN_PWM.c ****     enableInterrupts = CyEnterCriticalSection();
 396              		.loc 1 556 0
 397 0004 FFF7FEFF 		bl	CyEnterCriticalSection
 398              	.LVL29:
 557:Generated_Source\PSoC4/LED_GREEN_PWM.c **** 
 558:Generated_Source\PSoC4/LED_GREEN_PWM.c ****     LED_GREEN_PWM_CONTROL_REG &= (uint32)~LED_GREEN_PWM_PRESCALER_MASK;
 399              		.loc 1 558 0
 400 0008 064B     		ldr	r3, .L26
 401 000a 1968     		ldr	r1, [r3]
 402 000c 064A     		ldr	r2, .L26+4
 403 000e 0A40     		ands	r2, r1
 404 0010 1A60     		str	r2, [r3]
 559:Generated_Source\PSoC4/LED_GREEN_PWM.c ****     LED_GREEN_PWM_CONTROL_REG |= ((uint32)((deadTime & LED_GREEN_PWM_8BIT_MASK) <<
 405              		.loc 1 559 0
 406 0012 1A68     		ldr	r2, [r3]
 407 0014 2406     		lsls	r4, r4, #24
 408              	.LVL30:
 409 0016 240C     		lsrs	r4, r4, #16
 410 0018 1443     		orrs	r4, r2
ARM GAS  C:\Users\ORA\AppData\Local\Temp\ccbWTaCf.s 			page 18


 411 001a 1C60     		str	r4, [r3]
 560:Generated_Source\PSoC4/LED_GREEN_PWM.c ****                                                           LED_GREEN_PWM_PRESCALER_SHIFT));
 561:Generated_Source\PSoC4/LED_GREEN_PWM.c **** 
 562:Generated_Source\PSoC4/LED_GREEN_PWM.c ****     CyExitCriticalSection(enableInterrupts);
 412              		.loc 1 562 0
 413 001c FFF7FEFF 		bl	CyExitCriticalSection
 414              	.LVL31:
 563:Generated_Source\PSoC4/LED_GREEN_PWM.c **** }
 415              		.loc 1 563 0
 416              		@ sp needed
 417 0020 10BD     		pop	{r4, pc}
 418              	.L27:
 419 0022 C046     		.align	2
 420              	.L26:
 421 0024 C0012040 		.word	1075839424
 422 0028 FF00FFFF 		.word	-65281
 423              		.cfi_endproc
 424              	.LFE13:
 425              		.size	LED_GREEN_PWM_SetPWMDeadTime, .-LED_GREEN_PWM_SetPWMDeadTime
 426              		.section	.text.LED_GREEN_PWM_SetPWMInvert,"ax",%progbits
 427              		.align	2
 428              		.global	LED_GREEN_PWM_SetPWMInvert
 429              		.code	16
 430              		.thumb_func
 431              		.type	LED_GREEN_PWM_SetPWMInvert, %function
 432              	LED_GREEN_PWM_SetPWMInvert:
 433              	.LFB14:
 564:Generated_Source\PSoC4/LED_GREEN_PWM.c **** 
 565:Generated_Source\PSoC4/LED_GREEN_PWM.c **** 
 566:Generated_Source\PSoC4/LED_GREEN_PWM.c **** /*******************************************************************************
 567:Generated_Source\PSoC4/LED_GREEN_PWM.c **** * Function Name: LED_GREEN_PWM_SetPWMInvert
 568:Generated_Source\PSoC4/LED_GREEN_PWM.c **** ********************************************************************************
 569:Generated_Source\PSoC4/LED_GREEN_PWM.c **** *
 570:Generated_Source\PSoC4/LED_GREEN_PWM.c **** * Summary:
 571:Generated_Source\PSoC4/LED_GREEN_PWM.c **** *  Writes the bits that control whether the line and line_n outputs are
 572:Generated_Source\PSoC4/LED_GREEN_PWM.c **** *  inverted from their normal output values.  This functionality is only
 573:Generated_Source\PSoC4/LED_GREEN_PWM.c **** *  applicable to the three PWM modes.
 574:Generated_Source\PSoC4/LED_GREEN_PWM.c **** *
 575:Generated_Source\PSoC4/LED_GREEN_PWM.c **** * Parameters:
 576:Generated_Source\PSoC4/LED_GREEN_PWM.c **** *  mask: Mask of outputs to invert.
 577:Generated_Source\PSoC4/LED_GREEN_PWM.c **** *   Values:
 578:Generated_Source\PSoC4/LED_GREEN_PWM.c **** *         - LED_GREEN_PWM_INVERT_LINE   - Inverts the line output
 579:Generated_Source\PSoC4/LED_GREEN_PWM.c **** *         - LED_GREEN_PWM_INVERT_LINE_N - Inverts the line_n output
 580:Generated_Source\PSoC4/LED_GREEN_PWM.c **** *
 581:Generated_Source\PSoC4/LED_GREEN_PWM.c **** * Return:
 582:Generated_Source\PSoC4/LED_GREEN_PWM.c **** *  None
 583:Generated_Source\PSoC4/LED_GREEN_PWM.c **** *
 584:Generated_Source\PSoC4/LED_GREEN_PWM.c **** *******************************************************************************/
 585:Generated_Source\PSoC4/LED_GREEN_PWM.c **** void LED_GREEN_PWM_SetPWMInvert(uint32 mask)
 586:Generated_Source\PSoC4/LED_GREEN_PWM.c **** {
 434              		.loc 1 586 0
 435              		.cfi_startproc
 436              		@ args = 0, pretend = 0, frame = 0
 437              		@ frame_needed = 0, uses_anonymous_args = 0
 438              	.LVL32:
 439 0000 10B5     		push	{r4, lr}
 440              		.cfi_def_cfa_offset 8
ARM GAS  C:\Users\ORA\AppData\Local\Temp\ccbWTaCf.s 			page 19


 441              		.cfi_offset 4, -8
 442              		.cfi_offset 14, -4
 443 0002 0400     		movs	r4, r0
 587:Generated_Source\PSoC4/LED_GREEN_PWM.c ****     uint8 enableInterrupts;
 588:Generated_Source\PSoC4/LED_GREEN_PWM.c **** 
 589:Generated_Source\PSoC4/LED_GREEN_PWM.c ****     enableInterrupts = CyEnterCriticalSection();
 444              		.loc 1 589 0
 445 0004 FFF7FEFF 		bl	CyEnterCriticalSection
 446              	.LVL33:
 590:Generated_Source\PSoC4/LED_GREEN_PWM.c **** 
 591:Generated_Source\PSoC4/LED_GREEN_PWM.c ****     LED_GREEN_PWM_CONTROL_REG &= (uint32)~LED_GREEN_PWM_INV_OUT_MASK;
 447              		.loc 1 591 0
 448 0008 054B     		ldr	r3, .L29
 449 000a 1968     		ldr	r1, [r3]
 450 000c 054A     		ldr	r2, .L29+4
 451 000e 0A40     		ands	r2, r1
 452 0010 1A60     		str	r2, [r3]
 592:Generated_Source\PSoC4/LED_GREEN_PWM.c ****     LED_GREEN_PWM_CONTROL_REG |= mask;
 453              		.loc 1 592 0
 454 0012 1A68     		ldr	r2, [r3]
 455 0014 1443     		orrs	r4, r2
 456              	.LVL34:
 457 0016 1C60     		str	r4, [r3]
 593:Generated_Source\PSoC4/LED_GREEN_PWM.c **** 
 594:Generated_Source\PSoC4/LED_GREEN_PWM.c ****     CyExitCriticalSection(enableInterrupts);
 458              		.loc 1 594 0
 459 0018 FFF7FEFF 		bl	CyExitCriticalSection
 460              	.LVL35:
 595:Generated_Source\PSoC4/LED_GREEN_PWM.c **** }
 461              		.loc 1 595 0
 462              		@ sp needed
 463 001c 10BD     		pop	{r4, pc}
 464              	.L30:
 465 001e C046     		.align	2
 466              	.L29:
 467 0020 C0012040 		.word	1075839424
 468 0024 FFFFCFFF 		.word	-3145729
 469              		.cfi_endproc
 470              	.LFE14:
 471              		.size	LED_GREEN_PWM_SetPWMInvert, .-LED_GREEN_PWM_SetPWMInvert
 472              		.section	.text.LED_GREEN_PWM_WriteCounter,"ax",%progbits
 473              		.align	2
 474              		.global	LED_GREEN_PWM_WriteCounter
 475              		.code	16
 476              		.thumb_func
 477              		.type	LED_GREEN_PWM_WriteCounter, %function
 478              	LED_GREEN_PWM_WriteCounter:
 479              	.LFB15:
 596:Generated_Source\PSoC4/LED_GREEN_PWM.c **** 
 597:Generated_Source\PSoC4/LED_GREEN_PWM.c **** 
 598:Generated_Source\PSoC4/LED_GREEN_PWM.c **** 
 599:Generated_Source\PSoC4/LED_GREEN_PWM.c **** /*******************************************************************************
 600:Generated_Source\PSoC4/LED_GREEN_PWM.c **** * Function Name: LED_GREEN_PWM_WriteCounter
 601:Generated_Source\PSoC4/LED_GREEN_PWM.c **** ********************************************************************************
 602:Generated_Source\PSoC4/LED_GREEN_PWM.c **** *
 603:Generated_Source\PSoC4/LED_GREEN_PWM.c **** * Summary:
 604:Generated_Source\PSoC4/LED_GREEN_PWM.c **** *  Writes a new 16bit counter value directly into the counter register, thus
ARM GAS  C:\Users\ORA\AppData\Local\Temp\ccbWTaCf.s 			page 20


 605:Generated_Source\PSoC4/LED_GREEN_PWM.c **** *  setting the counter (not the period) to the value written. It is not
 606:Generated_Source\PSoC4/LED_GREEN_PWM.c **** *  advised to write to this field when the counter is running.
 607:Generated_Source\PSoC4/LED_GREEN_PWM.c **** *
 608:Generated_Source\PSoC4/LED_GREEN_PWM.c **** * Parameters:
 609:Generated_Source\PSoC4/LED_GREEN_PWM.c **** *  count: value to write
 610:Generated_Source\PSoC4/LED_GREEN_PWM.c **** *
 611:Generated_Source\PSoC4/LED_GREEN_PWM.c **** * Return:
 612:Generated_Source\PSoC4/LED_GREEN_PWM.c **** *  None
 613:Generated_Source\PSoC4/LED_GREEN_PWM.c **** *
 614:Generated_Source\PSoC4/LED_GREEN_PWM.c **** *******************************************************************************/
 615:Generated_Source\PSoC4/LED_GREEN_PWM.c **** void LED_GREEN_PWM_WriteCounter(uint32 count)
 616:Generated_Source\PSoC4/LED_GREEN_PWM.c **** {
 480              		.loc 1 616 0
 481              		.cfi_startproc
 482              		@ args = 0, pretend = 0, frame = 0
 483              		@ frame_needed = 0, uses_anonymous_args = 0
 484              		@ link register save eliminated.
 485              	.LVL36:
 617:Generated_Source\PSoC4/LED_GREEN_PWM.c ****     LED_GREEN_PWM_COUNTER_REG = (count & LED_GREEN_PWM_16BIT_MASK);
 486              		.loc 1 617 0
 487 0000 0004     		lsls	r0, r0, #16
 488              	.LVL37:
 489 0002 000C     		lsrs	r0, r0, #16
 490 0004 014B     		ldr	r3, .L32
 491 0006 1860     		str	r0, [r3]
 618:Generated_Source\PSoC4/LED_GREEN_PWM.c **** }
 492              		.loc 1 618 0
 493              		@ sp needed
 494 0008 7047     		bx	lr
 495              	.L33:
 496 000a C046     		.align	2
 497              	.L32:
 498 000c C8012040 		.word	1075839432
 499              		.cfi_endproc
 500              	.LFE15:
 501              		.size	LED_GREEN_PWM_WriteCounter, .-LED_GREEN_PWM_WriteCounter
 502              		.section	.text.LED_GREEN_PWM_ReadCounter,"ax",%progbits
 503              		.align	2
 504              		.global	LED_GREEN_PWM_ReadCounter
 505              		.code	16
 506              		.thumb_func
 507              		.type	LED_GREEN_PWM_ReadCounter, %function
 508              	LED_GREEN_PWM_ReadCounter:
 509              	.LFB16:
 619:Generated_Source\PSoC4/LED_GREEN_PWM.c **** 
 620:Generated_Source\PSoC4/LED_GREEN_PWM.c **** 
 621:Generated_Source\PSoC4/LED_GREEN_PWM.c **** /*******************************************************************************
 622:Generated_Source\PSoC4/LED_GREEN_PWM.c **** * Function Name: LED_GREEN_PWM_ReadCounter
 623:Generated_Source\PSoC4/LED_GREEN_PWM.c **** ********************************************************************************
 624:Generated_Source\PSoC4/LED_GREEN_PWM.c **** *
 625:Generated_Source\PSoC4/LED_GREEN_PWM.c **** * Summary:
 626:Generated_Source\PSoC4/LED_GREEN_PWM.c **** *  Reads the current counter value.
 627:Generated_Source\PSoC4/LED_GREEN_PWM.c **** *
 628:Generated_Source\PSoC4/LED_GREEN_PWM.c **** * Parameters:
 629:Generated_Source\PSoC4/LED_GREEN_PWM.c **** *  None
 630:Generated_Source\PSoC4/LED_GREEN_PWM.c **** *
 631:Generated_Source\PSoC4/LED_GREEN_PWM.c **** * Return:
ARM GAS  C:\Users\ORA\AppData\Local\Temp\ccbWTaCf.s 			page 21


 632:Generated_Source\PSoC4/LED_GREEN_PWM.c **** *  Current counter value
 633:Generated_Source\PSoC4/LED_GREEN_PWM.c **** *
 634:Generated_Source\PSoC4/LED_GREEN_PWM.c **** *******************************************************************************/
 635:Generated_Source\PSoC4/LED_GREEN_PWM.c **** uint32 LED_GREEN_PWM_ReadCounter(void)
 636:Generated_Source\PSoC4/LED_GREEN_PWM.c **** {
 510              		.loc 1 636 0
 511              		.cfi_startproc
 512              		@ args = 0, pretend = 0, frame = 0
 513              		@ frame_needed = 0, uses_anonymous_args = 0
 514              		@ link register save eliminated.
 637:Generated_Source\PSoC4/LED_GREEN_PWM.c ****     return (LED_GREEN_PWM_COUNTER_REG & LED_GREEN_PWM_16BIT_MASK);
 515              		.loc 1 637 0
 516 0000 024B     		ldr	r3, .L35
 517 0002 1868     		ldr	r0, [r3]
 518 0004 0004     		lsls	r0, r0, #16
 519 0006 000C     		lsrs	r0, r0, #16
 638:Generated_Source\PSoC4/LED_GREEN_PWM.c **** }
 520              		.loc 1 638 0
 521              		@ sp needed
 522 0008 7047     		bx	lr
 523              	.L36:
 524 000a C046     		.align	2
 525              	.L35:
 526 000c C8012040 		.word	1075839432
 527              		.cfi_endproc
 528              	.LFE16:
 529              		.size	LED_GREEN_PWM_ReadCounter, .-LED_GREEN_PWM_ReadCounter
 530              		.section	.text.LED_GREEN_PWM_SetCounterMode,"ax",%progbits
 531              		.align	2
 532              		.global	LED_GREEN_PWM_SetCounterMode
 533              		.code	16
 534              		.thumb_func
 535              		.type	LED_GREEN_PWM_SetCounterMode, %function
 536              	LED_GREEN_PWM_SetCounterMode:
 537              	.LFB17:
 639:Generated_Source\PSoC4/LED_GREEN_PWM.c **** 
 640:Generated_Source\PSoC4/LED_GREEN_PWM.c **** 
 641:Generated_Source\PSoC4/LED_GREEN_PWM.c **** /*******************************************************************************
 642:Generated_Source\PSoC4/LED_GREEN_PWM.c **** * Function Name: LED_GREEN_PWM_SetCounterMode
 643:Generated_Source\PSoC4/LED_GREEN_PWM.c **** ********************************************************************************
 644:Generated_Source\PSoC4/LED_GREEN_PWM.c **** *
 645:Generated_Source\PSoC4/LED_GREEN_PWM.c **** * Summary:
 646:Generated_Source\PSoC4/LED_GREEN_PWM.c **** *  Sets the counter mode.  Applicable to all modes except Quadrature Decoder
 647:Generated_Source\PSoC4/LED_GREEN_PWM.c **** *  and the PWM with a pseudo random output.
 648:Generated_Source\PSoC4/LED_GREEN_PWM.c **** *
 649:Generated_Source\PSoC4/LED_GREEN_PWM.c **** * Parameters:
 650:Generated_Source\PSoC4/LED_GREEN_PWM.c **** *  counterMode: Enumerated counter type values
 651:Generated_Source\PSoC4/LED_GREEN_PWM.c **** *   Values:
 652:Generated_Source\PSoC4/LED_GREEN_PWM.c **** *     - LED_GREEN_PWM_COUNT_UP       - Counts up
 653:Generated_Source\PSoC4/LED_GREEN_PWM.c **** *     - LED_GREEN_PWM_COUNT_DOWN     - Counts down
 654:Generated_Source\PSoC4/LED_GREEN_PWM.c **** *     - LED_GREEN_PWM_COUNT_UPDOWN0  - Counts up and down. Terminal count
 655:Generated_Source\PSoC4/LED_GREEN_PWM.c **** *                                         generated when counter reaches 0
 656:Generated_Source\PSoC4/LED_GREEN_PWM.c **** *     - LED_GREEN_PWM_COUNT_UPDOWN1  - Counts up and down. Terminal count
 657:Generated_Source\PSoC4/LED_GREEN_PWM.c **** *                                         generated both when counter reaches 0
 658:Generated_Source\PSoC4/LED_GREEN_PWM.c **** *                                         and period
 659:Generated_Source\PSoC4/LED_GREEN_PWM.c **** *
 660:Generated_Source\PSoC4/LED_GREEN_PWM.c **** * Return:
ARM GAS  C:\Users\ORA\AppData\Local\Temp\ccbWTaCf.s 			page 22


 661:Generated_Source\PSoC4/LED_GREEN_PWM.c **** *  None
 662:Generated_Source\PSoC4/LED_GREEN_PWM.c **** *
 663:Generated_Source\PSoC4/LED_GREEN_PWM.c **** *******************************************************************************/
 664:Generated_Source\PSoC4/LED_GREEN_PWM.c **** void LED_GREEN_PWM_SetCounterMode(uint32 counterMode)
 665:Generated_Source\PSoC4/LED_GREEN_PWM.c **** {
 538              		.loc 1 665 0
 539              		.cfi_startproc
 540              		@ args = 0, pretend = 0, frame = 0
 541              		@ frame_needed = 0, uses_anonymous_args = 0
 542              	.LVL38:
 543 0000 10B5     		push	{r4, lr}
 544              		.cfi_def_cfa_offset 8
 545              		.cfi_offset 4, -8
 546              		.cfi_offset 14, -4
 547 0002 0400     		movs	r4, r0
 666:Generated_Source\PSoC4/LED_GREEN_PWM.c ****     uint8 enableInterrupts;
 667:Generated_Source\PSoC4/LED_GREEN_PWM.c **** 
 668:Generated_Source\PSoC4/LED_GREEN_PWM.c ****     enableInterrupts = CyEnterCriticalSection();
 548              		.loc 1 668 0
 549 0004 FFF7FEFF 		bl	CyEnterCriticalSection
 550              	.LVL39:
 669:Generated_Source\PSoC4/LED_GREEN_PWM.c **** 
 670:Generated_Source\PSoC4/LED_GREEN_PWM.c ****     LED_GREEN_PWM_CONTROL_REG &= (uint32)~LED_GREEN_PWM_UPDOWN_MASK;
 551              		.loc 1 670 0
 552 0008 054B     		ldr	r3, .L38
 553 000a 1968     		ldr	r1, [r3]
 554 000c 054A     		ldr	r2, .L38+4
 555 000e 0A40     		ands	r2, r1
 556 0010 1A60     		str	r2, [r3]
 671:Generated_Source\PSoC4/LED_GREEN_PWM.c ****     LED_GREEN_PWM_CONTROL_REG |= counterMode;
 557              		.loc 1 671 0
 558 0012 1A68     		ldr	r2, [r3]
 559 0014 1443     		orrs	r4, r2
 560              	.LVL40:
 561 0016 1C60     		str	r4, [r3]
 672:Generated_Source\PSoC4/LED_GREEN_PWM.c **** 
 673:Generated_Source\PSoC4/LED_GREEN_PWM.c ****     CyExitCriticalSection(enableInterrupts);
 562              		.loc 1 673 0
 563 0018 FFF7FEFF 		bl	CyExitCriticalSection
 564              	.LVL41:
 674:Generated_Source\PSoC4/LED_GREEN_PWM.c **** }
 565              		.loc 1 674 0
 566              		@ sp needed
 567 001c 10BD     		pop	{r4, pc}
 568              	.L39:
 569 001e C046     		.align	2
 570              	.L38:
 571 0020 C0012040 		.word	1075839424
 572 0024 FFFFFCFF 		.word	-196609
 573              		.cfi_endproc
 574              	.LFE17:
 575              		.size	LED_GREEN_PWM_SetCounterMode, .-LED_GREEN_PWM_SetCounterMode
 576              		.section	.text.LED_GREEN_PWM_WritePeriod,"ax",%progbits
 577              		.align	2
 578              		.global	LED_GREEN_PWM_WritePeriod
 579              		.code	16
 580              		.thumb_func
ARM GAS  C:\Users\ORA\AppData\Local\Temp\ccbWTaCf.s 			page 23


 581              		.type	LED_GREEN_PWM_WritePeriod, %function
 582              	LED_GREEN_PWM_WritePeriod:
 583              	.LFB18:
 675:Generated_Source\PSoC4/LED_GREEN_PWM.c **** 
 676:Generated_Source\PSoC4/LED_GREEN_PWM.c **** 
 677:Generated_Source\PSoC4/LED_GREEN_PWM.c **** /*******************************************************************************
 678:Generated_Source\PSoC4/LED_GREEN_PWM.c **** * Function Name: LED_GREEN_PWM_WritePeriod
 679:Generated_Source\PSoC4/LED_GREEN_PWM.c **** ********************************************************************************
 680:Generated_Source\PSoC4/LED_GREEN_PWM.c **** *
 681:Generated_Source\PSoC4/LED_GREEN_PWM.c **** * Summary:
 682:Generated_Source\PSoC4/LED_GREEN_PWM.c **** *  Writes the 16 bit period register with the new period value.
 683:Generated_Source\PSoC4/LED_GREEN_PWM.c **** *  To cause the counter to count for N cycles this register should be written
 684:Generated_Source\PSoC4/LED_GREEN_PWM.c **** *  with N-1 (counts from 0 to period inclusive).
 685:Generated_Source\PSoC4/LED_GREEN_PWM.c **** *
 686:Generated_Source\PSoC4/LED_GREEN_PWM.c **** * Parameters:
 687:Generated_Source\PSoC4/LED_GREEN_PWM.c **** *  period: Period value
 688:Generated_Source\PSoC4/LED_GREEN_PWM.c **** *
 689:Generated_Source\PSoC4/LED_GREEN_PWM.c **** * Return:
 690:Generated_Source\PSoC4/LED_GREEN_PWM.c **** *  None
 691:Generated_Source\PSoC4/LED_GREEN_PWM.c **** *
 692:Generated_Source\PSoC4/LED_GREEN_PWM.c **** *******************************************************************************/
 693:Generated_Source\PSoC4/LED_GREEN_PWM.c **** void LED_GREEN_PWM_WritePeriod(uint32 period)
 694:Generated_Source\PSoC4/LED_GREEN_PWM.c **** {
 584              		.loc 1 694 0
 585              		.cfi_startproc
 586              		@ args = 0, pretend = 0, frame = 0
 587              		@ frame_needed = 0, uses_anonymous_args = 0
 588              		@ link register save eliminated.
 589              	.LVL42:
 695:Generated_Source\PSoC4/LED_GREEN_PWM.c ****     LED_GREEN_PWM_PERIOD_REG = (period & LED_GREEN_PWM_16BIT_MASK);
 590              		.loc 1 695 0
 591 0000 0004     		lsls	r0, r0, #16
 592              	.LVL43:
 593 0002 000C     		lsrs	r0, r0, #16
 594 0004 014B     		ldr	r3, .L41
 595 0006 1860     		str	r0, [r3]
 696:Generated_Source\PSoC4/LED_GREEN_PWM.c **** }
 596              		.loc 1 696 0
 597              		@ sp needed
 598 0008 7047     		bx	lr
 599              	.L42:
 600 000a C046     		.align	2
 601              	.L41:
 602 000c D4012040 		.word	1075839444
 603              		.cfi_endproc
 604              	.LFE18:
 605              		.size	LED_GREEN_PWM_WritePeriod, .-LED_GREEN_PWM_WritePeriod
 606              		.section	.text.LED_GREEN_PWM_ReadPeriod,"ax",%progbits
 607              		.align	2
 608              		.global	LED_GREEN_PWM_ReadPeriod
 609              		.code	16
 610              		.thumb_func
 611              		.type	LED_GREEN_PWM_ReadPeriod, %function
 612              	LED_GREEN_PWM_ReadPeriod:
 613              	.LFB19:
 697:Generated_Source\PSoC4/LED_GREEN_PWM.c **** 
 698:Generated_Source\PSoC4/LED_GREEN_PWM.c **** 
ARM GAS  C:\Users\ORA\AppData\Local\Temp\ccbWTaCf.s 			page 24


 699:Generated_Source\PSoC4/LED_GREEN_PWM.c **** /*******************************************************************************
 700:Generated_Source\PSoC4/LED_GREEN_PWM.c **** * Function Name: LED_GREEN_PWM_ReadPeriod
 701:Generated_Source\PSoC4/LED_GREEN_PWM.c **** ********************************************************************************
 702:Generated_Source\PSoC4/LED_GREEN_PWM.c **** *
 703:Generated_Source\PSoC4/LED_GREEN_PWM.c **** * Summary:
 704:Generated_Source\PSoC4/LED_GREEN_PWM.c **** *  Reads the 16 bit period register.
 705:Generated_Source\PSoC4/LED_GREEN_PWM.c **** *
 706:Generated_Source\PSoC4/LED_GREEN_PWM.c **** * Parameters:
 707:Generated_Source\PSoC4/LED_GREEN_PWM.c **** *  None
 708:Generated_Source\PSoC4/LED_GREEN_PWM.c **** *
 709:Generated_Source\PSoC4/LED_GREEN_PWM.c **** * Return:
 710:Generated_Source\PSoC4/LED_GREEN_PWM.c **** *  Period value
 711:Generated_Source\PSoC4/LED_GREEN_PWM.c **** *
 712:Generated_Source\PSoC4/LED_GREEN_PWM.c **** *******************************************************************************/
 713:Generated_Source\PSoC4/LED_GREEN_PWM.c **** uint32 LED_GREEN_PWM_ReadPeriod(void)
 714:Generated_Source\PSoC4/LED_GREEN_PWM.c **** {
 614              		.loc 1 714 0
 615              		.cfi_startproc
 616              		@ args = 0, pretend = 0, frame = 0
 617              		@ frame_needed = 0, uses_anonymous_args = 0
 618              		@ link register save eliminated.
 715:Generated_Source\PSoC4/LED_GREEN_PWM.c ****     return (LED_GREEN_PWM_PERIOD_REG & LED_GREEN_PWM_16BIT_MASK);
 619              		.loc 1 715 0
 620 0000 024B     		ldr	r3, .L44
 621 0002 1868     		ldr	r0, [r3]
 622 0004 0004     		lsls	r0, r0, #16
 623 0006 000C     		lsrs	r0, r0, #16
 716:Generated_Source\PSoC4/LED_GREEN_PWM.c **** }
 624              		.loc 1 716 0
 625              		@ sp needed
 626 0008 7047     		bx	lr
 627              	.L45:
 628 000a C046     		.align	2
 629              	.L44:
 630 000c D4012040 		.word	1075839444
 631              		.cfi_endproc
 632              	.LFE19:
 633              		.size	LED_GREEN_PWM_ReadPeriod, .-LED_GREEN_PWM_ReadPeriod
 634              		.section	.text.LED_GREEN_PWM_SetCompareSwap,"ax",%progbits
 635              		.align	2
 636              		.global	LED_GREEN_PWM_SetCompareSwap
 637              		.code	16
 638              		.thumb_func
 639              		.type	LED_GREEN_PWM_SetCompareSwap, %function
 640              	LED_GREEN_PWM_SetCompareSwap:
 641              	.LFB20:
 717:Generated_Source\PSoC4/LED_GREEN_PWM.c **** 
 718:Generated_Source\PSoC4/LED_GREEN_PWM.c **** 
 719:Generated_Source\PSoC4/LED_GREEN_PWM.c **** /*******************************************************************************
 720:Generated_Source\PSoC4/LED_GREEN_PWM.c **** * Function Name: LED_GREEN_PWM_SetCompareSwap
 721:Generated_Source\PSoC4/LED_GREEN_PWM.c **** ********************************************************************************
 722:Generated_Source\PSoC4/LED_GREEN_PWM.c **** *
 723:Generated_Source\PSoC4/LED_GREEN_PWM.c **** * Summary:
 724:Generated_Source\PSoC4/LED_GREEN_PWM.c **** *  Writes the register that controls whether the compare registers are
 725:Generated_Source\PSoC4/LED_GREEN_PWM.c **** *  swapped. When enabled in the Timer/Counter mode(without capture) the swap
 726:Generated_Source\PSoC4/LED_GREEN_PWM.c **** *  occurs at a TC event. In the PWM mode the swap occurs at the next TC event
 727:Generated_Source\PSoC4/LED_GREEN_PWM.c **** *  following a hardware switch event.
ARM GAS  C:\Users\ORA\AppData\Local\Temp\ccbWTaCf.s 			page 25


 728:Generated_Source\PSoC4/LED_GREEN_PWM.c **** *
 729:Generated_Source\PSoC4/LED_GREEN_PWM.c **** * Parameters:
 730:Generated_Source\PSoC4/LED_GREEN_PWM.c **** *  swapEnable
 731:Generated_Source\PSoC4/LED_GREEN_PWM.c **** *   Values:
 732:Generated_Source\PSoC4/LED_GREEN_PWM.c **** *     - 0 - Disable swap
 733:Generated_Source\PSoC4/LED_GREEN_PWM.c **** *     - 1 - Enable swap
 734:Generated_Source\PSoC4/LED_GREEN_PWM.c **** *
 735:Generated_Source\PSoC4/LED_GREEN_PWM.c **** * Return:
 736:Generated_Source\PSoC4/LED_GREEN_PWM.c **** *  None
 737:Generated_Source\PSoC4/LED_GREEN_PWM.c **** *
 738:Generated_Source\PSoC4/LED_GREEN_PWM.c **** *******************************************************************************/
 739:Generated_Source\PSoC4/LED_GREEN_PWM.c **** void LED_GREEN_PWM_SetCompareSwap(uint32 swapEnable)
 740:Generated_Source\PSoC4/LED_GREEN_PWM.c **** {
 642              		.loc 1 740 0
 643              		.cfi_startproc
 644              		@ args = 0, pretend = 0, frame = 0
 645              		@ frame_needed = 0, uses_anonymous_args = 0
 646              	.LVL44:
 647 0000 10B5     		push	{r4, lr}
 648              		.cfi_def_cfa_offset 8
 649              		.cfi_offset 4, -8
 650              		.cfi_offset 14, -4
 651 0002 0400     		movs	r4, r0
 741:Generated_Source\PSoC4/LED_GREEN_PWM.c ****     uint8 enableInterrupts;
 742:Generated_Source\PSoC4/LED_GREEN_PWM.c **** 
 743:Generated_Source\PSoC4/LED_GREEN_PWM.c ****     enableInterrupts = CyEnterCriticalSection();
 652              		.loc 1 743 0
 653 0004 FFF7FEFF 		bl	CyEnterCriticalSection
 654              	.LVL45:
 744:Generated_Source\PSoC4/LED_GREEN_PWM.c **** 
 745:Generated_Source\PSoC4/LED_GREEN_PWM.c ****     LED_GREEN_PWM_CONTROL_REG &= (uint32)~LED_GREEN_PWM_RELOAD_CC_MASK;
 655              		.loc 1 745 0
 656 0008 054B     		ldr	r3, .L47
 657 000a 1A68     		ldr	r2, [r3]
 658 000c 0121     		movs	r1, #1
 659 000e 8A43     		bics	r2, r1
 660 0010 1A60     		str	r2, [r3]
 746:Generated_Source\PSoC4/LED_GREEN_PWM.c ****     LED_GREEN_PWM_CONTROL_REG |= (swapEnable & LED_GREEN_PWM_1BIT_MASK);
 661              		.loc 1 746 0
 662 0012 1A68     		ldr	r2, [r3]
 663 0014 0C40     		ands	r4, r1
 664              	.LVL46:
 665 0016 1443     		orrs	r4, r2
 666 0018 1C60     		str	r4, [r3]
 747:Generated_Source\PSoC4/LED_GREEN_PWM.c **** 
 748:Generated_Source\PSoC4/LED_GREEN_PWM.c ****     CyExitCriticalSection(enableInterrupts);
 667              		.loc 1 748 0
 668 001a FFF7FEFF 		bl	CyExitCriticalSection
 669              	.LVL47:
 749:Generated_Source\PSoC4/LED_GREEN_PWM.c **** }
 670              		.loc 1 749 0
 671              		@ sp needed
 672 001e 10BD     		pop	{r4, pc}
 673              	.L48:
 674              		.align	2
 675              	.L47:
 676 0020 C0012040 		.word	1075839424
ARM GAS  C:\Users\ORA\AppData\Local\Temp\ccbWTaCf.s 			page 26


 677              		.cfi_endproc
 678              	.LFE20:
 679              		.size	LED_GREEN_PWM_SetCompareSwap, .-LED_GREEN_PWM_SetCompareSwap
 680              		.section	.text.LED_GREEN_PWM_WritePeriodBuf,"ax",%progbits
 681              		.align	2
 682              		.global	LED_GREEN_PWM_WritePeriodBuf
 683              		.code	16
 684              		.thumb_func
 685              		.type	LED_GREEN_PWM_WritePeriodBuf, %function
 686              	LED_GREEN_PWM_WritePeriodBuf:
 687              	.LFB21:
 750:Generated_Source\PSoC4/LED_GREEN_PWM.c **** 
 751:Generated_Source\PSoC4/LED_GREEN_PWM.c **** 
 752:Generated_Source\PSoC4/LED_GREEN_PWM.c **** /*******************************************************************************
 753:Generated_Source\PSoC4/LED_GREEN_PWM.c **** * Function Name: LED_GREEN_PWM_WritePeriodBuf
 754:Generated_Source\PSoC4/LED_GREEN_PWM.c **** ********************************************************************************
 755:Generated_Source\PSoC4/LED_GREEN_PWM.c **** *
 756:Generated_Source\PSoC4/LED_GREEN_PWM.c **** * Summary:
 757:Generated_Source\PSoC4/LED_GREEN_PWM.c **** *  Writes the 16 bit period buf register with the new period value.
 758:Generated_Source\PSoC4/LED_GREEN_PWM.c **** *
 759:Generated_Source\PSoC4/LED_GREEN_PWM.c **** * Parameters:
 760:Generated_Source\PSoC4/LED_GREEN_PWM.c **** *  periodBuf: Period value
 761:Generated_Source\PSoC4/LED_GREEN_PWM.c **** *
 762:Generated_Source\PSoC4/LED_GREEN_PWM.c **** * Return:
 763:Generated_Source\PSoC4/LED_GREEN_PWM.c **** *  None
 764:Generated_Source\PSoC4/LED_GREEN_PWM.c **** *
 765:Generated_Source\PSoC4/LED_GREEN_PWM.c **** *******************************************************************************/
 766:Generated_Source\PSoC4/LED_GREEN_PWM.c **** void LED_GREEN_PWM_WritePeriodBuf(uint32 periodBuf)
 767:Generated_Source\PSoC4/LED_GREEN_PWM.c **** {
 688              		.loc 1 767 0
 689              		.cfi_startproc
 690              		@ args = 0, pretend = 0, frame = 0
 691              		@ frame_needed = 0, uses_anonymous_args = 0
 692              		@ link register save eliminated.
 693              	.LVL48:
 768:Generated_Source\PSoC4/LED_GREEN_PWM.c ****     LED_GREEN_PWM_PERIOD_BUF_REG = (periodBuf & LED_GREEN_PWM_16BIT_MASK);
 694              		.loc 1 768 0
 695 0000 0004     		lsls	r0, r0, #16
 696              	.LVL49:
 697 0002 000C     		lsrs	r0, r0, #16
 698 0004 014B     		ldr	r3, .L50
 699 0006 1860     		str	r0, [r3]
 769:Generated_Source\PSoC4/LED_GREEN_PWM.c **** }
 700              		.loc 1 769 0
 701              		@ sp needed
 702 0008 7047     		bx	lr
 703              	.L51:
 704 000a C046     		.align	2
 705              	.L50:
 706 000c D8012040 		.word	1075839448
 707              		.cfi_endproc
 708              	.LFE21:
 709              		.size	LED_GREEN_PWM_WritePeriodBuf, .-LED_GREEN_PWM_WritePeriodBuf
 710              		.section	.text.LED_GREEN_PWM_ReadPeriodBuf,"ax",%progbits
 711              		.align	2
 712              		.global	LED_GREEN_PWM_ReadPeriodBuf
 713              		.code	16
ARM GAS  C:\Users\ORA\AppData\Local\Temp\ccbWTaCf.s 			page 27


 714              		.thumb_func
 715              		.type	LED_GREEN_PWM_ReadPeriodBuf, %function
 716              	LED_GREEN_PWM_ReadPeriodBuf:
 717              	.LFB22:
 770:Generated_Source\PSoC4/LED_GREEN_PWM.c **** 
 771:Generated_Source\PSoC4/LED_GREEN_PWM.c **** 
 772:Generated_Source\PSoC4/LED_GREEN_PWM.c **** /*******************************************************************************
 773:Generated_Source\PSoC4/LED_GREEN_PWM.c **** * Function Name: LED_GREEN_PWM_ReadPeriodBuf
 774:Generated_Source\PSoC4/LED_GREEN_PWM.c **** ********************************************************************************
 775:Generated_Source\PSoC4/LED_GREEN_PWM.c **** *
 776:Generated_Source\PSoC4/LED_GREEN_PWM.c **** * Summary:
 777:Generated_Source\PSoC4/LED_GREEN_PWM.c **** *  Reads the 16 bit period buf register.
 778:Generated_Source\PSoC4/LED_GREEN_PWM.c **** *
 779:Generated_Source\PSoC4/LED_GREEN_PWM.c **** * Parameters:
 780:Generated_Source\PSoC4/LED_GREEN_PWM.c **** *  None
 781:Generated_Source\PSoC4/LED_GREEN_PWM.c **** *
 782:Generated_Source\PSoC4/LED_GREEN_PWM.c **** * Return:
 783:Generated_Source\PSoC4/LED_GREEN_PWM.c **** *  Period value
 784:Generated_Source\PSoC4/LED_GREEN_PWM.c **** *
 785:Generated_Source\PSoC4/LED_GREEN_PWM.c **** *******************************************************************************/
 786:Generated_Source\PSoC4/LED_GREEN_PWM.c **** uint32 LED_GREEN_PWM_ReadPeriodBuf(void)
 787:Generated_Source\PSoC4/LED_GREEN_PWM.c **** {
 718              		.loc 1 787 0
 719              		.cfi_startproc
 720              		@ args = 0, pretend = 0, frame = 0
 721              		@ frame_needed = 0, uses_anonymous_args = 0
 722              		@ link register save eliminated.
 788:Generated_Source\PSoC4/LED_GREEN_PWM.c ****     return (LED_GREEN_PWM_PERIOD_BUF_REG & LED_GREEN_PWM_16BIT_MASK);
 723              		.loc 1 788 0
 724 0000 024B     		ldr	r3, .L53
 725 0002 1868     		ldr	r0, [r3]
 726 0004 0004     		lsls	r0, r0, #16
 727 0006 000C     		lsrs	r0, r0, #16
 789:Generated_Source\PSoC4/LED_GREEN_PWM.c **** }
 728              		.loc 1 789 0
 729              		@ sp needed
 730 0008 7047     		bx	lr
 731              	.L54:
 732 000a C046     		.align	2
 733              	.L53:
 734 000c D8012040 		.word	1075839448
 735              		.cfi_endproc
 736              	.LFE22:
 737              		.size	LED_GREEN_PWM_ReadPeriodBuf, .-LED_GREEN_PWM_ReadPeriodBuf
 738              		.section	.text.LED_GREEN_PWM_SetPeriodSwap,"ax",%progbits
 739              		.align	2
 740              		.global	LED_GREEN_PWM_SetPeriodSwap
 741              		.code	16
 742              		.thumb_func
 743              		.type	LED_GREEN_PWM_SetPeriodSwap, %function
 744              	LED_GREEN_PWM_SetPeriodSwap:
 745              	.LFB23:
 790:Generated_Source\PSoC4/LED_GREEN_PWM.c **** 
 791:Generated_Source\PSoC4/LED_GREEN_PWM.c **** 
 792:Generated_Source\PSoC4/LED_GREEN_PWM.c **** /*******************************************************************************
 793:Generated_Source\PSoC4/LED_GREEN_PWM.c **** * Function Name: LED_GREEN_PWM_SetPeriodSwap
 794:Generated_Source\PSoC4/LED_GREEN_PWM.c **** ********************************************************************************
ARM GAS  C:\Users\ORA\AppData\Local\Temp\ccbWTaCf.s 			page 28


 795:Generated_Source\PSoC4/LED_GREEN_PWM.c **** *
 796:Generated_Source\PSoC4/LED_GREEN_PWM.c **** * Summary:
 797:Generated_Source\PSoC4/LED_GREEN_PWM.c **** *  Writes the register that controls whether the period registers are
 798:Generated_Source\PSoC4/LED_GREEN_PWM.c **** *  swapped. When enabled in Timer/Counter mode the swap occurs at a TC event.
 799:Generated_Source\PSoC4/LED_GREEN_PWM.c **** *  In the PWM mode the swap occurs at the next TC event following a hardware
 800:Generated_Source\PSoC4/LED_GREEN_PWM.c **** *  switch event.
 801:Generated_Source\PSoC4/LED_GREEN_PWM.c **** *
 802:Generated_Source\PSoC4/LED_GREEN_PWM.c **** * Parameters:
 803:Generated_Source\PSoC4/LED_GREEN_PWM.c **** *  swapEnable
 804:Generated_Source\PSoC4/LED_GREEN_PWM.c **** *   Values:
 805:Generated_Source\PSoC4/LED_GREEN_PWM.c **** *     - 0 - Disable swap
 806:Generated_Source\PSoC4/LED_GREEN_PWM.c **** *     - 1 - Enable swap
 807:Generated_Source\PSoC4/LED_GREEN_PWM.c **** *
 808:Generated_Source\PSoC4/LED_GREEN_PWM.c **** * Return:
 809:Generated_Source\PSoC4/LED_GREEN_PWM.c **** *  None
 810:Generated_Source\PSoC4/LED_GREEN_PWM.c **** *
 811:Generated_Source\PSoC4/LED_GREEN_PWM.c **** *******************************************************************************/
 812:Generated_Source\PSoC4/LED_GREEN_PWM.c **** void LED_GREEN_PWM_SetPeriodSwap(uint32 swapEnable)
 813:Generated_Source\PSoC4/LED_GREEN_PWM.c **** {
 746              		.loc 1 813 0
 747              		.cfi_startproc
 748              		@ args = 0, pretend = 0, frame = 0
 749              		@ frame_needed = 0, uses_anonymous_args = 0
 750              	.LVL50:
 751 0000 70B5     		push	{r4, r5, r6, lr}
 752              		.cfi_def_cfa_offset 16
 753              		.cfi_offset 4, -16
 754              		.cfi_offset 5, -12
 755              		.cfi_offset 6, -8
 756              		.cfi_offset 14, -4
 757 0002 0400     		movs	r4, r0
 814:Generated_Source\PSoC4/LED_GREEN_PWM.c ****     uint8 enableInterrupts;
 815:Generated_Source\PSoC4/LED_GREEN_PWM.c **** 
 816:Generated_Source\PSoC4/LED_GREEN_PWM.c ****     enableInterrupts = CyEnterCriticalSection();
 758              		.loc 1 816 0
 759 0004 FFF7FEFF 		bl	CyEnterCriticalSection
 760              	.LVL51:
 817:Generated_Source\PSoC4/LED_GREEN_PWM.c **** 
 818:Generated_Source\PSoC4/LED_GREEN_PWM.c ****     LED_GREEN_PWM_CONTROL_REG &= (uint32)~LED_GREEN_PWM_RELOAD_PERIOD_MASK;
 761              		.loc 1 818 0
 762 0008 064A     		ldr	r2, .L56
 763 000a 1368     		ldr	r3, [r2]
 764 000c 0221     		movs	r1, #2
 765 000e 8B43     		bics	r3, r1
 766 0010 1360     		str	r3, [r2]
 819:Generated_Source\PSoC4/LED_GREEN_PWM.c ****     LED_GREEN_PWM_CONTROL_REG |= ((uint32)((swapEnable & LED_GREEN_PWM_1BIT_MASK) <<
 767              		.loc 1 819 0
 768 0012 1568     		ldr	r5, [r2]
 769 0014 6300     		lsls	r3, r4, #1
 770 0016 1940     		ands	r1, r3
 771 0018 0C00     		movs	r4, r1
 772              	.LVL52:
 773 001a 2C43     		orrs	r4, r5
 774 001c 1460     		str	r4, [r2]
 820:Generated_Source\PSoC4/LED_GREEN_PWM.c ****                                                             LED_GREEN_PWM_RELOAD_PERIOD_SHIFT));
 821:Generated_Source\PSoC4/LED_GREEN_PWM.c **** 
 822:Generated_Source\PSoC4/LED_GREEN_PWM.c ****     CyExitCriticalSection(enableInterrupts);
ARM GAS  C:\Users\ORA\AppData\Local\Temp\ccbWTaCf.s 			page 29


 775              		.loc 1 822 0
 776 001e FFF7FEFF 		bl	CyExitCriticalSection
 777              	.LVL53:
 823:Generated_Source\PSoC4/LED_GREEN_PWM.c **** }
 778              		.loc 1 823 0
 779              		@ sp needed
 780 0022 70BD     		pop	{r4, r5, r6, pc}
 781              	.L57:
 782              		.align	2
 783              	.L56:
 784 0024 C0012040 		.word	1075839424
 785              		.cfi_endproc
 786              	.LFE23:
 787              		.size	LED_GREEN_PWM_SetPeriodSwap, .-LED_GREEN_PWM_SetPeriodSwap
 788              		.section	.text.LED_GREEN_PWM_WriteCompare,"ax",%progbits
 789              		.align	2
 790              		.global	LED_GREEN_PWM_WriteCompare
 791              		.code	16
 792              		.thumb_func
 793              		.type	LED_GREEN_PWM_WriteCompare, %function
 794              	LED_GREEN_PWM_WriteCompare:
 795              	.LFB24:
 824:Generated_Source\PSoC4/LED_GREEN_PWM.c **** 
 825:Generated_Source\PSoC4/LED_GREEN_PWM.c **** 
 826:Generated_Source\PSoC4/LED_GREEN_PWM.c **** /*******************************************************************************
 827:Generated_Source\PSoC4/LED_GREEN_PWM.c **** * Function Name: LED_GREEN_PWM_WriteCompare
 828:Generated_Source\PSoC4/LED_GREEN_PWM.c **** ********************************************************************************
 829:Generated_Source\PSoC4/LED_GREEN_PWM.c **** *
 830:Generated_Source\PSoC4/LED_GREEN_PWM.c **** * Summary:
 831:Generated_Source\PSoC4/LED_GREEN_PWM.c **** *  Writes the 16 bit compare register with the new compare value. Not
 832:Generated_Source\PSoC4/LED_GREEN_PWM.c **** *  applicable for Timer/Counter with Capture or in Quadrature Decoder modes.
 833:Generated_Source\PSoC4/LED_GREEN_PWM.c **** *
 834:Generated_Source\PSoC4/LED_GREEN_PWM.c **** * Parameters:
 835:Generated_Source\PSoC4/LED_GREEN_PWM.c **** *  compare: Compare value
 836:Generated_Source\PSoC4/LED_GREEN_PWM.c **** *
 837:Generated_Source\PSoC4/LED_GREEN_PWM.c **** * Return:
 838:Generated_Source\PSoC4/LED_GREEN_PWM.c **** *  None
 839:Generated_Source\PSoC4/LED_GREEN_PWM.c **** *
 840:Generated_Source\PSoC4/LED_GREEN_PWM.c **** * Note:
 841:Generated_Source\PSoC4/LED_GREEN_PWM.c **** *  It is not recommended to use the value equal to "0" or equal to 
 842:Generated_Source\PSoC4/LED_GREEN_PWM.c **** *  "period value" in Center or Asymmetric align PWM modes on the 
 843:Generated_Source\PSoC4/LED_GREEN_PWM.c **** *  PSoC 4100/PSoC 4200 devices.
 844:Generated_Source\PSoC4/LED_GREEN_PWM.c **** *  PSoC 4000 devices write the 16 bit compare register with the decremented 
 845:Generated_Source\PSoC4/LED_GREEN_PWM.c **** *  compare value in the Up counting mode (except 0x0u), and the incremented 
 846:Generated_Source\PSoC4/LED_GREEN_PWM.c **** *  compare value in the Down counting mode (except 0xFFFFu).
 847:Generated_Source\PSoC4/LED_GREEN_PWM.c **** *
 848:Generated_Source\PSoC4/LED_GREEN_PWM.c **** *******************************************************************************/
 849:Generated_Source\PSoC4/LED_GREEN_PWM.c **** void LED_GREEN_PWM_WriteCompare(uint32 compare)
 850:Generated_Source\PSoC4/LED_GREEN_PWM.c **** {
 796              		.loc 1 850 0
 797              		.cfi_startproc
 798              		@ args = 0, pretend = 0, frame = 0
 799              		@ frame_needed = 0, uses_anonymous_args = 0
 800              		@ link register save eliminated.
 801              	.LVL54:
 851:Generated_Source\PSoC4/LED_GREEN_PWM.c ****     #if (LED_GREEN_PWM_CY_TCPWM_4000)
 852:Generated_Source\PSoC4/LED_GREEN_PWM.c ****         uint32 currentMode;
ARM GAS  C:\Users\ORA\AppData\Local\Temp\ccbWTaCf.s 			page 30


 853:Generated_Source\PSoC4/LED_GREEN_PWM.c ****     #endif /* (LED_GREEN_PWM_CY_TCPWM_4000) */
 854:Generated_Source\PSoC4/LED_GREEN_PWM.c **** 
 855:Generated_Source\PSoC4/LED_GREEN_PWM.c ****     #if (LED_GREEN_PWM_CY_TCPWM_4000)
 856:Generated_Source\PSoC4/LED_GREEN_PWM.c ****         currentMode = ((LED_GREEN_PWM_CONTROL_REG & LED_GREEN_PWM_UPDOWN_MASK) >> LED_GREEN_PWM_UPD
 857:Generated_Source\PSoC4/LED_GREEN_PWM.c **** 
 858:Generated_Source\PSoC4/LED_GREEN_PWM.c ****         if (((uint32)LED_GREEN_PWM__COUNT_DOWN == currentMode) && (0xFFFFu != compare))
 859:Generated_Source\PSoC4/LED_GREEN_PWM.c ****         {
 860:Generated_Source\PSoC4/LED_GREEN_PWM.c ****             compare++;
 861:Generated_Source\PSoC4/LED_GREEN_PWM.c ****         }
 862:Generated_Source\PSoC4/LED_GREEN_PWM.c ****         else if (((uint32)LED_GREEN_PWM__COUNT_UP == currentMode) && (0u != compare))
 863:Generated_Source\PSoC4/LED_GREEN_PWM.c ****         {
 864:Generated_Source\PSoC4/LED_GREEN_PWM.c ****             compare--;
 865:Generated_Source\PSoC4/LED_GREEN_PWM.c ****         }
 866:Generated_Source\PSoC4/LED_GREEN_PWM.c ****         else
 867:Generated_Source\PSoC4/LED_GREEN_PWM.c ****         {
 868:Generated_Source\PSoC4/LED_GREEN_PWM.c ****         }
 869:Generated_Source\PSoC4/LED_GREEN_PWM.c ****         
 870:Generated_Source\PSoC4/LED_GREEN_PWM.c ****     
 871:Generated_Source\PSoC4/LED_GREEN_PWM.c ****     #endif /* (LED_GREEN_PWM_CY_TCPWM_4000) */
 872:Generated_Source\PSoC4/LED_GREEN_PWM.c ****     
 873:Generated_Source\PSoC4/LED_GREEN_PWM.c ****     LED_GREEN_PWM_COMP_CAP_REG = (compare & LED_GREEN_PWM_16BIT_MASK);
 802              		.loc 1 873 0
 803 0000 0004     		lsls	r0, r0, #16
 804              	.LVL55:
 805 0002 000C     		lsrs	r0, r0, #16
 806 0004 014B     		ldr	r3, .L59
 807 0006 1860     		str	r0, [r3]
 874:Generated_Source\PSoC4/LED_GREEN_PWM.c **** }
 808              		.loc 1 874 0
 809              		@ sp needed
 810 0008 7047     		bx	lr
 811              	.L60:
 812 000a C046     		.align	2
 813              	.L59:
 814 000c CC012040 		.word	1075839436
 815              		.cfi_endproc
 816              	.LFE24:
 817              		.size	LED_GREEN_PWM_WriteCompare, .-LED_GREEN_PWM_WriteCompare
 818              		.section	.text.LED_GREEN_PWM_ReadCompare,"ax",%progbits
 819              		.align	2
 820              		.global	LED_GREEN_PWM_ReadCompare
 821              		.code	16
 822              		.thumb_func
 823              		.type	LED_GREEN_PWM_ReadCompare, %function
 824              	LED_GREEN_PWM_ReadCompare:
 825              	.LFB25:
 875:Generated_Source\PSoC4/LED_GREEN_PWM.c **** 
 876:Generated_Source\PSoC4/LED_GREEN_PWM.c **** 
 877:Generated_Source\PSoC4/LED_GREEN_PWM.c **** /*******************************************************************************
 878:Generated_Source\PSoC4/LED_GREEN_PWM.c **** * Function Name: LED_GREEN_PWM_ReadCompare
 879:Generated_Source\PSoC4/LED_GREEN_PWM.c **** ********************************************************************************
 880:Generated_Source\PSoC4/LED_GREEN_PWM.c **** *
 881:Generated_Source\PSoC4/LED_GREEN_PWM.c **** * Summary:
 882:Generated_Source\PSoC4/LED_GREEN_PWM.c **** *  Reads the compare register. Not applicable for Timer/Counter with Capture
 883:Generated_Source\PSoC4/LED_GREEN_PWM.c **** *  or in Quadrature Decoder modes.
 884:Generated_Source\PSoC4/LED_GREEN_PWM.c **** *  PSoC 4000 devices read the incremented compare register value in the 
 885:Generated_Source\PSoC4/LED_GREEN_PWM.c **** *  Up counting mode (except 0xFFFFu), and the decremented value in the 
ARM GAS  C:\Users\ORA\AppData\Local\Temp\ccbWTaCf.s 			page 31


 886:Generated_Source\PSoC4/LED_GREEN_PWM.c **** *  Down counting mode (except 0x0u).
 887:Generated_Source\PSoC4/LED_GREEN_PWM.c **** *
 888:Generated_Source\PSoC4/LED_GREEN_PWM.c **** * Parameters:
 889:Generated_Source\PSoC4/LED_GREEN_PWM.c **** *  None
 890:Generated_Source\PSoC4/LED_GREEN_PWM.c **** *
 891:Generated_Source\PSoC4/LED_GREEN_PWM.c **** * Return:
 892:Generated_Source\PSoC4/LED_GREEN_PWM.c **** *  Compare value
 893:Generated_Source\PSoC4/LED_GREEN_PWM.c **** *
 894:Generated_Source\PSoC4/LED_GREEN_PWM.c **** * Note:
 895:Generated_Source\PSoC4/LED_GREEN_PWM.c **** *  PSoC 4000 devices read the incremented compare register value in the 
 896:Generated_Source\PSoC4/LED_GREEN_PWM.c **** *  Up counting mode (except 0xFFFFu), and the decremented value in the 
 897:Generated_Source\PSoC4/LED_GREEN_PWM.c **** *  Down counting mode (except 0x0u).
 898:Generated_Source\PSoC4/LED_GREEN_PWM.c **** *
 899:Generated_Source\PSoC4/LED_GREEN_PWM.c **** *******************************************************************************/
 900:Generated_Source\PSoC4/LED_GREEN_PWM.c **** uint32 LED_GREEN_PWM_ReadCompare(void)
 901:Generated_Source\PSoC4/LED_GREEN_PWM.c **** {
 826              		.loc 1 901 0
 827              		.cfi_startproc
 828              		@ args = 0, pretend = 0, frame = 0
 829              		@ frame_needed = 0, uses_anonymous_args = 0
 830              		@ link register save eliminated.
 902:Generated_Source\PSoC4/LED_GREEN_PWM.c ****     #if (LED_GREEN_PWM_CY_TCPWM_4000)
 903:Generated_Source\PSoC4/LED_GREEN_PWM.c ****         uint32 currentMode;
 904:Generated_Source\PSoC4/LED_GREEN_PWM.c ****         uint32 regVal;
 905:Generated_Source\PSoC4/LED_GREEN_PWM.c ****     #endif /* (LED_GREEN_PWM_CY_TCPWM_4000) */
 906:Generated_Source\PSoC4/LED_GREEN_PWM.c **** 
 907:Generated_Source\PSoC4/LED_GREEN_PWM.c ****     #if (LED_GREEN_PWM_CY_TCPWM_4000)
 908:Generated_Source\PSoC4/LED_GREEN_PWM.c ****         currentMode = ((LED_GREEN_PWM_CONTROL_REG & LED_GREEN_PWM_UPDOWN_MASK) >> LED_GREEN_PWM_UPD
 909:Generated_Source\PSoC4/LED_GREEN_PWM.c ****         
 910:Generated_Source\PSoC4/LED_GREEN_PWM.c ****         regVal = LED_GREEN_PWM_COMP_CAP_REG;
 911:Generated_Source\PSoC4/LED_GREEN_PWM.c ****         
 912:Generated_Source\PSoC4/LED_GREEN_PWM.c ****         if (((uint32)LED_GREEN_PWM__COUNT_DOWN == currentMode) && (0u != regVal))
 913:Generated_Source\PSoC4/LED_GREEN_PWM.c ****         {
 914:Generated_Source\PSoC4/LED_GREEN_PWM.c ****             regVal--;
 915:Generated_Source\PSoC4/LED_GREEN_PWM.c ****         }
 916:Generated_Source\PSoC4/LED_GREEN_PWM.c ****         else if (((uint32)LED_GREEN_PWM__COUNT_UP == currentMode) && (0xFFFFu != regVal))
 917:Generated_Source\PSoC4/LED_GREEN_PWM.c ****         {
 918:Generated_Source\PSoC4/LED_GREEN_PWM.c ****             regVal++;
 919:Generated_Source\PSoC4/LED_GREEN_PWM.c ****         }
 920:Generated_Source\PSoC4/LED_GREEN_PWM.c ****         else
 921:Generated_Source\PSoC4/LED_GREEN_PWM.c ****         {
 922:Generated_Source\PSoC4/LED_GREEN_PWM.c ****         }
 923:Generated_Source\PSoC4/LED_GREEN_PWM.c **** 
 924:Generated_Source\PSoC4/LED_GREEN_PWM.c ****         return (regVal & LED_GREEN_PWM_16BIT_MASK);
 925:Generated_Source\PSoC4/LED_GREEN_PWM.c ****     #else
 926:Generated_Source\PSoC4/LED_GREEN_PWM.c ****         return (LED_GREEN_PWM_COMP_CAP_REG & LED_GREEN_PWM_16BIT_MASK);
 831              		.loc 1 926 0
 832 0000 024B     		ldr	r3, .L62
 833 0002 1868     		ldr	r0, [r3]
 834 0004 0004     		lsls	r0, r0, #16
 835 0006 000C     		lsrs	r0, r0, #16
 927:Generated_Source\PSoC4/LED_GREEN_PWM.c ****     #endif /* (LED_GREEN_PWM_CY_TCPWM_4000) */
 928:Generated_Source\PSoC4/LED_GREEN_PWM.c **** }
 836              		.loc 1 928 0
 837              		@ sp needed
 838 0008 7047     		bx	lr
 839              	.L63:
ARM GAS  C:\Users\ORA\AppData\Local\Temp\ccbWTaCf.s 			page 32


 840 000a C046     		.align	2
 841              	.L62:
 842 000c CC012040 		.word	1075839436
 843              		.cfi_endproc
 844              	.LFE25:
 845              		.size	LED_GREEN_PWM_ReadCompare, .-LED_GREEN_PWM_ReadCompare
 846              		.section	.text.LED_GREEN_PWM_WriteCompareBuf,"ax",%progbits
 847              		.align	2
 848              		.global	LED_GREEN_PWM_WriteCompareBuf
 849              		.code	16
 850              		.thumb_func
 851              		.type	LED_GREEN_PWM_WriteCompareBuf, %function
 852              	LED_GREEN_PWM_WriteCompareBuf:
 853              	.LFB26:
 929:Generated_Source\PSoC4/LED_GREEN_PWM.c **** 
 930:Generated_Source\PSoC4/LED_GREEN_PWM.c **** 
 931:Generated_Source\PSoC4/LED_GREEN_PWM.c **** /*******************************************************************************
 932:Generated_Source\PSoC4/LED_GREEN_PWM.c **** * Function Name: LED_GREEN_PWM_WriteCompareBuf
 933:Generated_Source\PSoC4/LED_GREEN_PWM.c **** ********************************************************************************
 934:Generated_Source\PSoC4/LED_GREEN_PWM.c **** *
 935:Generated_Source\PSoC4/LED_GREEN_PWM.c **** * Summary:
 936:Generated_Source\PSoC4/LED_GREEN_PWM.c **** *  Writes the 16 bit compare buffer register with the new compare value. Not
 937:Generated_Source\PSoC4/LED_GREEN_PWM.c **** *  applicable for Timer/Counter with Capture or in Quadrature Decoder modes.
 938:Generated_Source\PSoC4/LED_GREEN_PWM.c **** *
 939:Generated_Source\PSoC4/LED_GREEN_PWM.c **** * Parameters:
 940:Generated_Source\PSoC4/LED_GREEN_PWM.c **** *  compareBuf: Compare value
 941:Generated_Source\PSoC4/LED_GREEN_PWM.c **** *
 942:Generated_Source\PSoC4/LED_GREEN_PWM.c **** * Return:
 943:Generated_Source\PSoC4/LED_GREEN_PWM.c **** *  None
 944:Generated_Source\PSoC4/LED_GREEN_PWM.c **** *
 945:Generated_Source\PSoC4/LED_GREEN_PWM.c **** * Note:
 946:Generated_Source\PSoC4/LED_GREEN_PWM.c **** *  It is not recommended to use the value equal to "0" or equal to 
 947:Generated_Source\PSoC4/LED_GREEN_PWM.c **** *  "period value" in Center or Asymmetric align PWM modes on the 
 948:Generated_Source\PSoC4/LED_GREEN_PWM.c **** *  PSoC 4100/PSoC 4200 devices.
 949:Generated_Source\PSoC4/LED_GREEN_PWM.c **** *  PSoC 4000 devices write the 16 bit compare register with the decremented 
 950:Generated_Source\PSoC4/LED_GREEN_PWM.c **** *  compare value in the Up counting mode (except 0x0u), and the incremented 
 951:Generated_Source\PSoC4/LED_GREEN_PWM.c **** *  compare value in the Down counting mode (except 0xFFFFu).
 952:Generated_Source\PSoC4/LED_GREEN_PWM.c **** *
 953:Generated_Source\PSoC4/LED_GREEN_PWM.c **** *******************************************************************************/
 954:Generated_Source\PSoC4/LED_GREEN_PWM.c **** void LED_GREEN_PWM_WriteCompareBuf(uint32 compareBuf)
 955:Generated_Source\PSoC4/LED_GREEN_PWM.c **** {
 854              		.loc 1 955 0
 855              		.cfi_startproc
 856              		@ args = 0, pretend = 0, frame = 0
 857              		@ frame_needed = 0, uses_anonymous_args = 0
 858              		@ link register save eliminated.
 859              	.LVL56:
 956:Generated_Source\PSoC4/LED_GREEN_PWM.c ****     #if (LED_GREEN_PWM_CY_TCPWM_4000)
 957:Generated_Source\PSoC4/LED_GREEN_PWM.c ****         uint32 currentMode;
 958:Generated_Source\PSoC4/LED_GREEN_PWM.c ****     #endif /* (LED_GREEN_PWM_CY_TCPWM_4000) */
 959:Generated_Source\PSoC4/LED_GREEN_PWM.c **** 
 960:Generated_Source\PSoC4/LED_GREEN_PWM.c ****     #if (LED_GREEN_PWM_CY_TCPWM_4000)
 961:Generated_Source\PSoC4/LED_GREEN_PWM.c ****         currentMode = ((LED_GREEN_PWM_CONTROL_REG & LED_GREEN_PWM_UPDOWN_MASK) >> LED_GREEN_PWM_UPD
 962:Generated_Source\PSoC4/LED_GREEN_PWM.c **** 
 963:Generated_Source\PSoC4/LED_GREEN_PWM.c ****         if (((uint32)LED_GREEN_PWM__COUNT_DOWN == currentMode) && (0xFFFFu != compareBuf))
 964:Generated_Source\PSoC4/LED_GREEN_PWM.c ****         {
 965:Generated_Source\PSoC4/LED_GREEN_PWM.c ****             compareBuf++;
ARM GAS  C:\Users\ORA\AppData\Local\Temp\ccbWTaCf.s 			page 33


 966:Generated_Source\PSoC4/LED_GREEN_PWM.c ****         }
 967:Generated_Source\PSoC4/LED_GREEN_PWM.c ****         else if (((uint32)LED_GREEN_PWM__COUNT_UP == currentMode) && (0u != compareBuf))
 968:Generated_Source\PSoC4/LED_GREEN_PWM.c ****         {
 969:Generated_Source\PSoC4/LED_GREEN_PWM.c ****             compareBuf --;
 970:Generated_Source\PSoC4/LED_GREEN_PWM.c ****         }
 971:Generated_Source\PSoC4/LED_GREEN_PWM.c ****         else
 972:Generated_Source\PSoC4/LED_GREEN_PWM.c ****         {
 973:Generated_Source\PSoC4/LED_GREEN_PWM.c ****         }
 974:Generated_Source\PSoC4/LED_GREEN_PWM.c ****     #endif /* (LED_GREEN_PWM_CY_TCPWM_4000) */
 975:Generated_Source\PSoC4/LED_GREEN_PWM.c ****     
 976:Generated_Source\PSoC4/LED_GREEN_PWM.c ****     LED_GREEN_PWM_COMP_CAP_BUF_REG = (compareBuf & LED_GREEN_PWM_16BIT_MASK);
 860              		.loc 1 976 0
 861 0000 0004     		lsls	r0, r0, #16
 862              	.LVL57:
 863 0002 000C     		lsrs	r0, r0, #16
 864 0004 014B     		ldr	r3, .L65
 865 0006 1860     		str	r0, [r3]
 977:Generated_Source\PSoC4/LED_GREEN_PWM.c **** }
 866              		.loc 1 977 0
 867              		@ sp needed
 868 0008 7047     		bx	lr
 869              	.L66:
 870 000a C046     		.align	2
 871              	.L65:
 872 000c D0012040 		.word	1075839440
 873              		.cfi_endproc
 874              	.LFE26:
 875              		.size	LED_GREEN_PWM_WriteCompareBuf, .-LED_GREEN_PWM_WriteCompareBuf
 876              		.section	.text.LED_GREEN_PWM_ReadCompareBuf,"ax",%progbits
 877              		.align	2
 878              		.global	LED_GREEN_PWM_ReadCompareBuf
 879              		.code	16
 880              		.thumb_func
 881              		.type	LED_GREEN_PWM_ReadCompareBuf, %function
 882              	LED_GREEN_PWM_ReadCompareBuf:
 883              	.LFB27:
 978:Generated_Source\PSoC4/LED_GREEN_PWM.c **** 
 979:Generated_Source\PSoC4/LED_GREEN_PWM.c **** 
 980:Generated_Source\PSoC4/LED_GREEN_PWM.c **** /*******************************************************************************
 981:Generated_Source\PSoC4/LED_GREEN_PWM.c **** * Function Name: LED_GREEN_PWM_ReadCompareBuf
 982:Generated_Source\PSoC4/LED_GREEN_PWM.c **** ********************************************************************************
 983:Generated_Source\PSoC4/LED_GREEN_PWM.c **** *
 984:Generated_Source\PSoC4/LED_GREEN_PWM.c **** * Summary:
 985:Generated_Source\PSoC4/LED_GREEN_PWM.c **** *  Reads the compare buffer register. Not applicable for Timer/Counter with
 986:Generated_Source\PSoC4/LED_GREEN_PWM.c **** *  Capture or in Quadrature Decoder modes.
 987:Generated_Source\PSoC4/LED_GREEN_PWM.c **** *
 988:Generated_Source\PSoC4/LED_GREEN_PWM.c **** * Parameters:
 989:Generated_Source\PSoC4/LED_GREEN_PWM.c **** *  None
 990:Generated_Source\PSoC4/LED_GREEN_PWM.c **** *
 991:Generated_Source\PSoC4/LED_GREEN_PWM.c **** * Return:
 992:Generated_Source\PSoC4/LED_GREEN_PWM.c **** *  Compare buffer value
 993:Generated_Source\PSoC4/LED_GREEN_PWM.c **** *
 994:Generated_Source\PSoC4/LED_GREEN_PWM.c **** * Note:
 995:Generated_Source\PSoC4/LED_GREEN_PWM.c **** *  PSoC 4000 devices read the incremented compare register value in the 
 996:Generated_Source\PSoC4/LED_GREEN_PWM.c **** *  Up counting mode (except 0xFFFFu), and the decremented value in the 
 997:Generated_Source\PSoC4/LED_GREEN_PWM.c **** *  Down counting mode (except 0x0u).
 998:Generated_Source\PSoC4/LED_GREEN_PWM.c **** *
ARM GAS  C:\Users\ORA\AppData\Local\Temp\ccbWTaCf.s 			page 34


 999:Generated_Source\PSoC4/LED_GREEN_PWM.c **** *******************************************************************************/
1000:Generated_Source\PSoC4/LED_GREEN_PWM.c **** uint32 LED_GREEN_PWM_ReadCompareBuf(void)
1001:Generated_Source\PSoC4/LED_GREEN_PWM.c **** {
 884              		.loc 1 1001 0
 885              		.cfi_startproc
 886              		@ args = 0, pretend = 0, frame = 0
 887              		@ frame_needed = 0, uses_anonymous_args = 0
 888              		@ link register save eliminated.
1002:Generated_Source\PSoC4/LED_GREEN_PWM.c ****     #if (LED_GREEN_PWM_CY_TCPWM_4000)
1003:Generated_Source\PSoC4/LED_GREEN_PWM.c ****         uint32 currentMode;
1004:Generated_Source\PSoC4/LED_GREEN_PWM.c ****         uint32 regVal;
1005:Generated_Source\PSoC4/LED_GREEN_PWM.c ****     #endif /* (LED_GREEN_PWM_CY_TCPWM_4000) */
1006:Generated_Source\PSoC4/LED_GREEN_PWM.c **** 
1007:Generated_Source\PSoC4/LED_GREEN_PWM.c ****     #if (LED_GREEN_PWM_CY_TCPWM_4000)
1008:Generated_Source\PSoC4/LED_GREEN_PWM.c ****         currentMode = ((LED_GREEN_PWM_CONTROL_REG & LED_GREEN_PWM_UPDOWN_MASK) >> LED_GREEN_PWM_UPD
1009:Generated_Source\PSoC4/LED_GREEN_PWM.c **** 
1010:Generated_Source\PSoC4/LED_GREEN_PWM.c ****         regVal = LED_GREEN_PWM_COMP_CAP_BUF_REG;
1011:Generated_Source\PSoC4/LED_GREEN_PWM.c ****         
1012:Generated_Source\PSoC4/LED_GREEN_PWM.c ****         if (((uint32)LED_GREEN_PWM__COUNT_DOWN == currentMode) && (0u != regVal))
1013:Generated_Source\PSoC4/LED_GREEN_PWM.c ****         {
1014:Generated_Source\PSoC4/LED_GREEN_PWM.c ****             regVal--;
1015:Generated_Source\PSoC4/LED_GREEN_PWM.c ****         }
1016:Generated_Source\PSoC4/LED_GREEN_PWM.c ****         else if (((uint32)LED_GREEN_PWM__COUNT_UP == currentMode) && (0xFFFFu != regVal))
1017:Generated_Source\PSoC4/LED_GREEN_PWM.c ****         {
1018:Generated_Source\PSoC4/LED_GREEN_PWM.c ****             regVal++;
1019:Generated_Source\PSoC4/LED_GREEN_PWM.c ****         }
1020:Generated_Source\PSoC4/LED_GREEN_PWM.c ****         else
1021:Generated_Source\PSoC4/LED_GREEN_PWM.c ****         {
1022:Generated_Source\PSoC4/LED_GREEN_PWM.c ****         }
1023:Generated_Source\PSoC4/LED_GREEN_PWM.c **** 
1024:Generated_Source\PSoC4/LED_GREEN_PWM.c ****         return (regVal & LED_GREEN_PWM_16BIT_MASK);
1025:Generated_Source\PSoC4/LED_GREEN_PWM.c ****     #else
1026:Generated_Source\PSoC4/LED_GREEN_PWM.c ****         return (LED_GREEN_PWM_COMP_CAP_BUF_REG & LED_GREEN_PWM_16BIT_MASK);
 889              		.loc 1 1026 0
 890 0000 024B     		ldr	r3, .L68
 891 0002 1868     		ldr	r0, [r3]
 892 0004 0004     		lsls	r0, r0, #16
 893 0006 000C     		lsrs	r0, r0, #16
1027:Generated_Source\PSoC4/LED_GREEN_PWM.c ****     #endif /* (LED_GREEN_PWM_CY_TCPWM_4000) */
1028:Generated_Source\PSoC4/LED_GREEN_PWM.c **** }
 894              		.loc 1 1028 0
 895              		@ sp needed
 896 0008 7047     		bx	lr
 897              	.L69:
 898 000a C046     		.align	2
 899              	.L68:
 900 000c D0012040 		.word	1075839440
 901              		.cfi_endproc
 902              	.LFE27:
 903              		.size	LED_GREEN_PWM_ReadCompareBuf, .-LED_GREEN_PWM_ReadCompareBuf
 904              		.section	.text.LED_GREEN_PWM_ReadCapture,"ax",%progbits
 905              		.align	2
 906              		.global	LED_GREEN_PWM_ReadCapture
 907              		.code	16
 908              		.thumb_func
 909              		.type	LED_GREEN_PWM_ReadCapture, %function
 910              	LED_GREEN_PWM_ReadCapture:
ARM GAS  C:\Users\ORA\AppData\Local\Temp\ccbWTaCf.s 			page 35


 911              	.LFB28:
1029:Generated_Source\PSoC4/LED_GREEN_PWM.c **** 
1030:Generated_Source\PSoC4/LED_GREEN_PWM.c **** 
1031:Generated_Source\PSoC4/LED_GREEN_PWM.c **** /*******************************************************************************
1032:Generated_Source\PSoC4/LED_GREEN_PWM.c **** * Function Name: LED_GREEN_PWM_ReadCapture
1033:Generated_Source\PSoC4/LED_GREEN_PWM.c **** ********************************************************************************
1034:Generated_Source\PSoC4/LED_GREEN_PWM.c **** *
1035:Generated_Source\PSoC4/LED_GREEN_PWM.c **** * Summary:
1036:Generated_Source\PSoC4/LED_GREEN_PWM.c **** *  Reads the captured counter value. This API is applicable only for
1037:Generated_Source\PSoC4/LED_GREEN_PWM.c **** *  Timer/Counter with the capture mode and Quadrature Decoder modes.
1038:Generated_Source\PSoC4/LED_GREEN_PWM.c **** *
1039:Generated_Source\PSoC4/LED_GREEN_PWM.c **** * Parameters:
1040:Generated_Source\PSoC4/LED_GREEN_PWM.c **** *  None
1041:Generated_Source\PSoC4/LED_GREEN_PWM.c **** *
1042:Generated_Source\PSoC4/LED_GREEN_PWM.c **** * Return:
1043:Generated_Source\PSoC4/LED_GREEN_PWM.c **** *  Capture value
1044:Generated_Source\PSoC4/LED_GREEN_PWM.c **** *
1045:Generated_Source\PSoC4/LED_GREEN_PWM.c **** *******************************************************************************/
1046:Generated_Source\PSoC4/LED_GREEN_PWM.c **** uint32 LED_GREEN_PWM_ReadCapture(void)
1047:Generated_Source\PSoC4/LED_GREEN_PWM.c **** {
 912              		.loc 1 1047 0
 913              		.cfi_startproc
 914              		@ args = 0, pretend = 0, frame = 0
 915              		@ frame_needed = 0, uses_anonymous_args = 0
 916              		@ link register save eliminated.
1048:Generated_Source\PSoC4/LED_GREEN_PWM.c ****     return (LED_GREEN_PWM_COMP_CAP_REG & LED_GREEN_PWM_16BIT_MASK);
 917              		.loc 1 1048 0
 918 0000 024B     		ldr	r3, .L71
 919 0002 1868     		ldr	r0, [r3]
 920 0004 0004     		lsls	r0, r0, #16
 921 0006 000C     		lsrs	r0, r0, #16
1049:Generated_Source\PSoC4/LED_GREEN_PWM.c **** }
 922              		.loc 1 1049 0
 923              		@ sp needed
 924 0008 7047     		bx	lr
 925              	.L72:
 926 000a C046     		.align	2
 927              	.L71:
 928 000c CC012040 		.word	1075839436
 929              		.cfi_endproc
 930              	.LFE28:
 931              		.size	LED_GREEN_PWM_ReadCapture, .-LED_GREEN_PWM_ReadCapture
 932              		.section	.text.LED_GREEN_PWM_ReadCaptureBuf,"ax",%progbits
 933              		.align	2
 934              		.global	LED_GREEN_PWM_ReadCaptureBuf
 935              		.code	16
 936              		.thumb_func
 937              		.type	LED_GREEN_PWM_ReadCaptureBuf, %function
 938              	LED_GREEN_PWM_ReadCaptureBuf:
 939              	.LFB29:
1050:Generated_Source\PSoC4/LED_GREEN_PWM.c **** 
1051:Generated_Source\PSoC4/LED_GREEN_PWM.c **** 
1052:Generated_Source\PSoC4/LED_GREEN_PWM.c **** /*******************************************************************************
1053:Generated_Source\PSoC4/LED_GREEN_PWM.c **** * Function Name: LED_GREEN_PWM_ReadCaptureBuf
1054:Generated_Source\PSoC4/LED_GREEN_PWM.c **** ********************************************************************************
1055:Generated_Source\PSoC4/LED_GREEN_PWM.c **** *
1056:Generated_Source\PSoC4/LED_GREEN_PWM.c **** * Summary:
ARM GAS  C:\Users\ORA\AppData\Local\Temp\ccbWTaCf.s 			page 36


1057:Generated_Source\PSoC4/LED_GREEN_PWM.c **** *  Reads the capture buffer register. This API is applicable only for
1058:Generated_Source\PSoC4/LED_GREEN_PWM.c **** *  Timer/Counter with the capture mode and Quadrature Decoder modes.
1059:Generated_Source\PSoC4/LED_GREEN_PWM.c **** *
1060:Generated_Source\PSoC4/LED_GREEN_PWM.c **** * Parameters:
1061:Generated_Source\PSoC4/LED_GREEN_PWM.c **** *  None
1062:Generated_Source\PSoC4/LED_GREEN_PWM.c **** *
1063:Generated_Source\PSoC4/LED_GREEN_PWM.c **** * Return:
1064:Generated_Source\PSoC4/LED_GREEN_PWM.c **** *  Capture buffer value
1065:Generated_Source\PSoC4/LED_GREEN_PWM.c **** *
1066:Generated_Source\PSoC4/LED_GREEN_PWM.c **** *******************************************************************************/
1067:Generated_Source\PSoC4/LED_GREEN_PWM.c **** uint32 LED_GREEN_PWM_ReadCaptureBuf(void)
1068:Generated_Source\PSoC4/LED_GREEN_PWM.c **** {
 940              		.loc 1 1068 0
 941              		.cfi_startproc
 942              		@ args = 0, pretend = 0, frame = 0
 943              		@ frame_needed = 0, uses_anonymous_args = 0
 944              		@ link register save eliminated.
1069:Generated_Source\PSoC4/LED_GREEN_PWM.c ****     return (LED_GREEN_PWM_COMP_CAP_BUF_REG & LED_GREEN_PWM_16BIT_MASK);
 945              		.loc 1 1069 0
 946 0000 024B     		ldr	r3, .L74
 947 0002 1868     		ldr	r0, [r3]
 948 0004 0004     		lsls	r0, r0, #16
 949 0006 000C     		lsrs	r0, r0, #16
1070:Generated_Source\PSoC4/LED_GREEN_PWM.c **** }
 950              		.loc 1 1070 0
 951              		@ sp needed
 952 0008 7047     		bx	lr
 953              	.L75:
 954 000a C046     		.align	2
 955              	.L74:
 956 000c D0012040 		.word	1075839440
 957              		.cfi_endproc
 958              	.LFE29:
 959              		.size	LED_GREEN_PWM_ReadCaptureBuf, .-LED_GREEN_PWM_ReadCaptureBuf
 960              		.section	.text.LED_GREEN_PWM_SetCaptureMode,"ax",%progbits
 961              		.align	2
 962              		.global	LED_GREEN_PWM_SetCaptureMode
 963              		.code	16
 964              		.thumb_func
 965              		.type	LED_GREEN_PWM_SetCaptureMode, %function
 966              	LED_GREEN_PWM_SetCaptureMode:
 967              	.LFB30:
1071:Generated_Source\PSoC4/LED_GREEN_PWM.c **** 
1072:Generated_Source\PSoC4/LED_GREEN_PWM.c **** 
1073:Generated_Source\PSoC4/LED_GREEN_PWM.c **** /*******************************************************************************
1074:Generated_Source\PSoC4/LED_GREEN_PWM.c **** * Function Name: LED_GREEN_PWM_SetCaptureMode
1075:Generated_Source\PSoC4/LED_GREEN_PWM.c **** ********************************************************************************
1076:Generated_Source\PSoC4/LED_GREEN_PWM.c **** *
1077:Generated_Source\PSoC4/LED_GREEN_PWM.c **** * Summary:
1078:Generated_Source\PSoC4/LED_GREEN_PWM.c **** *  Sets the capture trigger mode. For PWM mode this is the switch input.
1079:Generated_Source\PSoC4/LED_GREEN_PWM.c **** *  This input is not applicable to the Timer/Counter without Capture and
1080:Generated_Source\PSoC4/LED_GREEN_PWM.c **** *  Quadrature Decoder modes.
1081:Generated_Source\PSoC4/LED_GREEN_PWM.c **** *
1082:Generated_Source\PSoC4/LED_GREEN_PWM.c **** * Parameters:
1083:Generated_Source\PSoC4/LED_GREEN_PWM.c **** *  triggerMode: Enumerated trigger mode value
1084:Generated_Source\PSoC4/LED_GREEN_PWM.c **** *   Values:
1085:Generated_Source\PSoC4/LED_GREEN_PWM.c **** *     - LED_GREEN_PWM_TRIG_LEVEL     - Level
ARM GAS  C:\Users\ORA\AppData\Local\Temp\ccbWTaCf.s 			page 37


1086:Generated_Source\PSoC4/LED_GREEN_PWM.c **** *     - LED_GREEN_PWM_TRIG_RISING    - Rising edge
1087:Generated_Source\PSoC4/LED_GREEN_PWM.c **** *     - LED_GREEN_PWM_TRIG_FALLING   - Falling edge
1088:Generated_Source\PSoC4/LED_GREEN_PWM.c **** *     - LED_GREEN_PWM_TRIG_BOTH      - Both rising and falling edge
1089:Generated_Source\PSoC4/LED_GREEN_PWM.c **** *
1090:Generated_Source\PSoC4/LED_GREEN_PWM.c **** * Return:
1091:Generated_Source\PSoC4/LED_GREEN_PWM.c **** *  None
1092:Generated_Source\PSoC4/LED_GREEN_PWM.c **** *
1093:Generated_Source\PSoC4/LED_GREEN_PWM.c **** *******************************************************************************/
1094:Generated_Source\PSoC4/LED_GREEN_PWM.c **** void LED_GREEN_PWM_SetCaptureMode(uint32 triggerMode)
1095:Generated_Source\PSoC4/LED_GREEN_PWM.c **** {
 968              		.loc 1 1095 0
 969              		.cfi_startproc
 970              		@ args = 0, pretend = 0, frame = 0
 971              		@ frame_needed = 0, uses_anonymous_args = 0
 972              	.LVL58:
 973 0000 10B5     		push	{r4, lr}
 974              		.cfi_def_cfa_offset 8
 975              		.cfi_offset 4, -8
 976              		.cfi_offset 14, -4
 977 0002 0400     		movs	r4, r0
1096:Generated_Source\PSoC4/LED_GREEN_PWM.c ****     uint8 enableInterrupts;
1097:Generated_Source\PSoC4/LED_GREEN_PWM.c **** 
1098:Generated_Source\PSoC4/LED_GREEN_PWM.c ****     enableInterrupts = CyEnterCriticalSection();
 978              		.loc 1 1098 0
 979 0004 FFF7FEFF 		bl	CyEnterCriticalSection
 980              	.LVL59:
1099:Generated_Source\PSoC4/LED_GREEN_PWM.c **** 
1100:Generated_Source\PSoC4/LED_GREEN_PWM.c ****     LED_GREEN_PWM_TRIG_CONTROL1_REG &= (uint32)~LED_GREEN_PWM_CAPTURE_MASK;
 981              		.loc 1 1100 0
 982 0008 054B     		ldr	r3, .L77
 983 000a 1A68     		ldr	r2, [r3]
 984 000c 0321     		movs	r1, #3
 985 000e 8A43     		bics	r2, r1
 986 0010 1A60     		str	r2, [r3]
1101:Generated_Source\PSoC4/LED_GREEN_PWM.c ****     LED_GREEN_PWM_TRIG_CONTROL1_REG |= triggerMode;
 987              		.loc 1 1101 0
 988 0012 1A68     		ldr	r2, [r3]
 989 0014 1443     		orrs	r4, r2
 990              	.LVL60:
 991 0016 1C60     		str	r4, [r3]
1102:Generated_Source\PSoC4/LED_GREEN_PWM.c **** 
1103:Generated_Source\PSoC4/LED_GREEN_PWM.c ****     CyExitCriticalSection(enableInterrupts);
 992              		.loc 1 1103 0
 993 0018 FFF7FEFF 		bl	CyExitCriticalSection
 994              	.LVL61:
1104:Generated_Source\PSoC4/LED_GREEN_PWM.c **** }
 995              		.loc 1 1104 0
 996              		@ sp needed
 997 001c 10BD     		pop	{r4, pc}
 998              	.L78:
 999 001e C046     		.align	2
 1000              	.L77:
 1001 0020 E4012040 		.word	1075839460
 1002              		.cfi_endproc
 1003              	.LFE30:
 1004              		.size	LED_GREEN_PWM_SetCaptureMode, .-LED_GREEN_PWM_SetCaptureMode
 1005              		.section	.text.LED_GREEN_PWM_SetReloadMode,"ax",%progbits
ARM GAS  C:\Users\ORA\AppData\Local\Temp\ccbWTaCf.s 			page 38


 1006              		.align	2
 1007              		.global	LED_GREEN_PWM_SetReloadMode
 1008              		.code	16
 1009              		.thumb_func
 1010              		.type	LED_GREEN_PWM_SetReloadMode, %function
 1011              	LED_GREEN_PWM_SetReloadMode:
 1012              	.LFB31:
1105:Generated_Source\PSoC4/LED_GREEN_PWM.c **** 
1106:Generated_Source\PSoC4/LED_GREEN_PWM.c **** 
1107:Generated_Source\PSoC4/LED_GREEN_PWM.c **** /*******************************************************************************
1108:Generated_Source\PSoC4/LED_GREEN_PWM.c **** * Function Name: LED_GREEN_PWM_SetReloadMode
1109:Generated_Source\PSoC4/LED_GREEN_PWM.c **** ********************************************************************************
1110:Generated_Source\PSoC4/LED_GREEN_PWM.c **** *
1111:Generated_Source\PSoC4/LED_GREEN_PWM.c **** * Summary:
1112:Generated_Source\PSoC4/LED_GREEN_PWM.c **** *  Sets the reload trigger mode. For Quadrature Decoder mode this is the index
1113:Generated_Source\PSoC4/LED_GREEN_PWM.c **** *  input.
1114:Generated_Source\PSoC4/LED_GREEN_PWM.c **** *
1115:Generated_Source\PSoC4/LED_GREEN_PWM.c **** * Parameters:
1116:Generated_Source\PSoC4/LED_GREEN_PWM.c **** *  triggerMode: Enumerated trigger mode value
1117:Generated_Source\PSoC4/LED_GREEN_PWM.c **** *   Values:
1118:Generated_Source\PSoC4/LED_GREEN_PWM.c **** *     - LED_GREEN_PWM_TRIG_LEVEL     - Level
1119:Generated_Source\PSoC4/LED_GREEN_PWM.c **** *     - LED_GREEN_PWM_TRIG_RISING    - Rising edge
1120:Generated_Source\PSoC4/LED_GREEN_PWM.c **** *     - LED_GREEN_PWM_TRIG_FALLING   - Falling edge
1121:Generated_Source\PSoC4/LED_GREEN_PWM.c **** *     - LED_GREEN_PWM_TRIG_BOTH      - Both rising and falling edge
1122:Generated_Source\PSoC4/LED_GREEN_PWM.c **** *
1123:Generated_Source\PSoC4/LED_GREEN_PWM.c **** * Return:
1124:Generated_Source\PSoC4/LED_GREEN_PWM.c **** *  None
1125:Generated_Source\PSoC4/LED_GREEN_PWM.c **** *
1126:Generated_Source\PSoC4/LED_GREEN_PWM.c **** *******************************************************************************/
1127:Generated_Source\PSoC4/LED_GREEN_PWM.c **** void LED_GREEN_PWM_SetReloadMode(uint32 triggerMode)
1128:Generated_Source\PSoC4/LED_GREEN_PWM.c **** {
 1013              		.loc 1 1128 0
 1014              		.cfi_startproc
 1015              		@ args = 0, pretend = 0, frame = 0
 1016              		@ frame_needed = 0, uses_anonymous_args = 0
 1017              	.LVL62:
 1018 0000 10B5     		push	{r4, lr}
 1019              		.cfi_def_cfa_offset 8
 1020              		.cfi_offset 4, -8
 1021              		.cfi_offset 14, -4
 1022 0002 0400     		movs	r4, r0
1129:Generated_Source\PSoC4/LED_GREEN_PWM.c ****     uint8 enableInterrupts;
1130:Generated_Source\PSoC4/LED_GREEN_PWM.c **** 
1131:Generated_Source\PSoC4/LED_GREEN_PWM.c ****     enableInterrupts = CyEnterCriticalSection();
 1023              		.loc 1 1131 0
 1024 0004 FFF7FEFF 		bl	CyEnterCriticalSection
 1025              	.LVL63:
1132:Generated_Source\PSoC4/LED_GREEN_PWM.c **** 
1133:Generated_Source\PSoC4/LED_GREEN_PWM.c ****     LED_GREEN_PWM_TRIG_CONTROL1_REG &= (uint32)~LED_GREEN_PWM_RELOAD_MASK;
 1026              		.loc 1 1133 0
 1027 0008 054B     		ldr	r3, .L80
 1028 000a 1A68     		ldr	r2, [r3]
 1029 000c 3021     		movs	r1, #48
 1030 000e 8A43     		bics	r2, r1
 1031 0010 1A60     		str	r2, [r3]
1134:Generated_Source\PSoC4/LED_GREEN_PWM.c ****     LED_GREEN_PWM_TRIG_CONTROL1_REG |= ((uint32)(triggerMode << LED_GREEN_PWM_RELOAD_SHIFT));
 1032              		.loc 1 1134 0
ARM GAS  C:\Users\ORA\AppData\Local\Temp\ccbWTaCf.s 			page 39


 1033 0012 1A68     		ldr	r2, [r3]
 1034 0014 2401     		lsls	r4, r4, #4
 1035              	.LVL64:
 1036 0016 1443     		orrs	r4, r2
 1037 0018 1C60     		str	r4, [r3]
1135:Generated_Source\PSoC4/LED_GREEN_PWM.c **** 
1136:Generated_Source\PSoC4/LED_GREEN_PWM.c ****     CyExitCriticalSection(enableInterrupts);
 1038              		.loc 1 1136 0
 1039 001a FFF7FEFF 		bl	CyExitCriticalSection
 1040              	.LVL65:
1137:Generated_Source\PSoC4/LED_GREEN_PWM.c **** }
 1041              		.loc 1 1137 0
 1042              		@ sp needed
 1043 001e 10BD     		pop	{r4, pc}
 1044              	.L81:
 1045              		.align	2
 1046              	.L80:
 1047 0020 E4012040 		.word	1075839460
 1048              		.cfi_endproc
 1049              	.LFE31:
 1050              		.size	LED_GREEN_PWM_SetReloadMode, .-LED_GREEN_PWM_SetReloadMode
 1051              		.section	.text.LED_GREEN_PWM_SetStartMode,"ax",%progbits
 1052              		.align	2
 1053              		.global	LED_GREEN_PWM_SetStartMode
 1054              		.code	16
 1055              		.thumb_func
 1056              		.type	LED_GREEN_PWM_SetStartMode, %function
 1057              	LED_GREEN_PWM_SetStartMode:
 1058              	.LFB32:
1138:Generated_Source\PSoC4/LED_GREEN_PWM.c **** 
1139:Generated_Source\PSoC4/LED_GREEN_PWM.c **** 
1140:Generated_Source\PSoC4/LED_GREEN_PWM.c **** /*******************************************************************************
1141:Generated_Source\PSoC4/LED_GREEN_PWM.c **** * Function Name: LED_GREEN_PWM_SetStartMode
1142:Generated_Source\PSoC4/LED_GREEN_PWM.c **** ********************************************************************************
1143:Generated_Source\PSoC4/LED_GREEN_PWM.c **** *
1144:Generated_Source\PSoC4/LED_GREEN_PWM.c **** * Summary:
1145:Generated_Source\PSoC4/LED_GREEN_PWM.c **** *  Sets the start trigger mode. For Quadrature Decoder mode this is the
1146:Generated_Source\PSoC4/LED_GREEN_PWM.c **** *  phiB input.
1147:Generated_Source\PSoC4/LED_GREEN_PWM.c **** *
1148:Generated_Source\PSoC4/LED_GREEN_PWM.c **** * Parameters:
1149:Generated_Source\PSoC4/LED_GREEN_PWM.c **** *  triggerMode: Enumerated trigger mode value
1150:Generated_Source\PSoC4/LED_GREEN_PWM.c **** *   Values:
1151:Generated_Source\PSoC4/LED_GREEN_PWM.c **** *     - LED_GREEN_PWM_TRIG_LEVEL     - Level
1152:Generated_Source\PSoC4/LED_GREEN_PWM.c **** *     - LED_GREEN_PWM_TRIG_RISING    - Rising edge
1153:Generated_Source\PSoC4/LED_GREEN_PWM.c **** *     - LED_GREEN_PWM_TRIG_FALLING   - Falling edge
1154:Generated_Source\PSoC4/LED_GREEN_PWM.c **** *     - LED_GREEN_PWM_TRIG_BOTH      - Both rising and falling edge
1155:Generated_Source\PSoC4/LED_GREEN_PWM.c **** *
1156:Generated_Source\PSoC4/LED_GREEN_PWM.c **** * Return:
1157:Generated_Source\PSoC4/LED_GREEN_PWM.c **** *  None
1158:Generated_Source\PSoC4/LED_GREEN_PWM.c **** *
1159:Generated_Source\PSoC4/LED_GREEN_PWM.c **** *******************************************************************************/
1160:Generated_Source\PSoC4/LED_GREEN_PWM.c **** void LED_GREEN_PWM_SetStartMode(uint32 triggerMode)
1161:Generated_Source\PSoC4/LED_GREEN_PWM.c **** {
 1059              		.loc 1 1161 0
 1060              		.cfi_startproc
 1061              		@ args = 0, pretend = 0, frame = 0
 1062              		@ frame_needed = 0, uses_anonymous_args = 0
ARM GAS  C:\Users\ORA\AppData\Local\Temp\ccbWTaCf.s 			page 40


 1063              	.LVL66:
 1064 0000 10B5     		push	{r4, lr}
 1065              		.cfi_def_cfa_offset 8
 1066              		.cfi_offset 4, -8
 1067              		.cfi_offset 14, -4
 1068 0002 0400     		movs	r4, r0
1162:Generated_Source\PSoC4/LED_GREEN_PWM.c ****     uint8 enableInterrupts;
1163:Generated_Source\PSoC4/LED_GREEN_PWM.c **** 
1164:Generated_Source\PSoC4/LED_GREEN_PWM.c ****     enableInterrupts = CyEnterCriticalSection();
 1069              		.loc 1 1164 0
 1070 0004 FFF7FEFF 		bl	CyEnterCriticalSection
 1071              	.LVL67:
1165:Generated_Source\PSoC4/LED_GREEN_PWM.c **** 
1166:Generated_Source\PSoC4/LED_GREEN_PWM.c ****     LED_GREEN_PWM_TRIG_CONTROL1_REG &= (uint32)~LED_GREEN_PWM_START_MASK;
 1072              		.loc 1 1166 0
 1073 0008 054B     		ldr	r3, .L83
 1074 000a 1968     		ldr	r1, [r3]
 1075 000c 054A     		ldr	r2, .L83+4
 1076 000e 0A40     		ands	r2, r1
 1077 0010 1A60     		str	r2, [r3]
1167:Generated_Source\PSoC4/LED_GREEN_PWM.c ****     LED_GREEN_PWM_TRIG_CONTROL1_REG |= ((uint32)(triggerMode << LED_GREEN_PWM_START_SHIFT));
 1078              		.loc 1 1167 0
 1079 0012 1A68     		ldr	r2, [r3]
 1080 0014 2402     		lsls	r4, r4, #8
 1081              	.LVL68:
 1082 0016 1443     		orrs	r4, r2
 1083 0018 1C60     		str	r4, [r3]
1168:Generated_Source\PSoC4/LED_GREEN_PWM.c **** 
1169:Generated_Source\PSoC4/LED_GREEN_PWM.c ****     CyExitCriticalSection(enableInterrupts);
 1084              		.loc 1 1169 0
 1085 001a FFF7FEFF 		bl	CyExitCriticalSection
 1086              	.LVL69:
1170:Generated_Source\PSoC4/LED_GREEN_PWM.c **** }
 1087              		.loc 1 1170 0
 1088              		@ sp needed
 1089 001e 10BD     		pop	{r4, pc}
 1090              	.L84:
 1091              		.align	2
 1092              	.L83:
 1093 0020 E4012040 		.word	1075839460
 1094 0024 FFFCFFFF 		.word	-769
 1095              		.cfi_endproc
 1096              	.LFE32:
 1097              		.size	LED_GREEN_PWM_SetStartMode, .-LED_GREEN_PWM_SetStartMode
 1098              		.section	.text.LED_GREEN_PWM_SetStopMode,"ax",%progbits
 1099              		.align	2
 1100              		.global	LED_GREEN_PWM_SetStopMode
 1101              		.code	16
 1102              		.thumb_func
 1103              		.type	LED_GREEN_PWM_SetStopMode, %function
 1104              	LED_GREEN_PWM_SetStopMode:
 1105              	.LFB33:
1171:Generated_Source\PSoC4/LED_GREEN_PWM.c **** 
1172:Generated_Source\PSoC4/LED_GREEN_PWM.c **** 
1173:Generated_Source\PSoC4/LED_GREEN_PWM.c **** /*******************************************************************************
1174:Generated_Source\PSoC4/LED_GREEN_PWM.c **** * Function Name: LED_GREEN_PWM_SetStopMode
1175:Generated_Source\PSoC4/LED_GREEN_PWM.c **** ********************************************************************************
ARM GAS  C:\Users\ORA\AppData\Local\Temp\ccbWTaCf.s 			page 41


1176:Generated_Source\PSoC4/LED_GREEN_PWM.c **** *
1177:Generated_Source\PSoC4/LED_GREEN_PWM.c **** * Summary:
1178:Generated_Source\PSoC4/LED_GREEN_PWM.c **** *  Sets the stop trigger mode. For PWM mode this is the kill input.
1179:Generated_Source\PSoC4/LED_GREEN_PWM.c **** *
1180:Generated_Source\PSoC4/LED_GREEN_PWM.c **** * Parameters:
1181:Generated_Source\PSoC4/LED_GREEN_PWM.c **** *  triggerMode: Enumerated trigger mode value
1182:Generated_Source\PSoC4/LED_GREEN_PWM.c **** *   Values:
1183:Generated_Source\PSoC4/LED_GREEN_PWM.c **** *     - LED_GREEN_PWM_TRIG_LEVEL     - Level
1184:Generated_Source\PSoC4/LED_GREEN_PWM.c **** *     - LED_GREEN_PWM_TRIG_RISING    - Rising edge
1185:Generated_Source\PSoC4/LED_GREEN_PWM.c **** *     - LED_GREEN_PWM_TRIG_FALLING   - Falling edge
1186:Generated_Source\PSoC4/LED_GREEN_PWM.c **** *     - LED_GREEN_PWM_TRIG_BOTH      - Both rising and falling edge
1187:Generated_Source\PSoC4/LED_GREEN_PWM.c **** *
1188:Generated_Source\PSoC4/LED_GREEN_PWM.c **** * Return:
1189:Generated_Source\PSoC4/LED_GREEN_PWM.c **** *  None
1190:Generated_Source\PSoC4/LED_GREEN_PWM.c **** *
1191:Generated_Source\PSoC4/LED_GREEN_PWM.c **** *******************************************************************************/
1192:Generated_Source\PSoC4/LED_GREEN_PWM.c **** void LED_GREEN_PWM_SetStopMode(uint32 triggerMode)
1193:Generated_Source\PSoC4/LED_GREEN_PWM.c **** {
 1106              		.loc 1 1193 0
 1107              		.cfi_startproc
 1108              		@ args = 0, pretend = 0, frame = 0
 1109              		@ frame_needed = 0, uses_anonymous_args = 0
 1110              	.LVL70:
 1111 0000 10B5     		push	{r4, lr}
 1112              		.cfi_def_cfa_offset 8
 1113              		.cfi_offset 4, -8
 1114              		.cfi_offset 14, -4
 1115 0002 0400     		movs	r4, r0
1194:Generated_Source\PSoC4/LED_GREEN_PWM.c ****     uint8 enableInterrupts;
1195:Generated_Source\PSoC4/LED_GREEN_PWM.c **** 
1196:Generated_Source\PSoC4/LED_GREEN_PWM.c ****     enableInterrupts = CyEnterCriticalSection();
 1116              		.loc 1 1196 0
 1117 0004 FFF7FEFF 		bl	CyEnterCriticalSection
 1118              	.LVL71:
1197:Generated_Source\PSoC4/LED_GREEN_PWM.c **** 
1198:Generated_Source\PSoC4/LED_GREEN_PWM.c ****     LED_GREEN_PWM_TRIG_CONTROL1_REG &= (uint32)~LED_GREEN_PWM_STOP_MASK;
 1119              		.loc 1 1198 0
 1120 0008 054B     		ldr	r3, .L86
 1121 000a 1A68     		ldr	r2, [r3]
 1122 000c C021     		movs	r1, #192
 1123 000e 8A43     		bics	r2, r1
 1124 0010 1A60     		str	r2, [r3]
1199:Generated_Source\PSoC4/LED_GREEN_PWM.c ****     LED_GREEN_PWM_TRIG_CONTROL1_REG |= ((uint32)(triggerMode << LED_GREEN_PWM_STOP_SHIFT));
 1125              		.loc 1 1199 0
 1126 0012 1A68     		ldr	r2, [r3]
 1127 0014 A401     		lsls	r4, r4, #6
 1128              	.LVL72:
 1129 0016 1443     		orrs	r4, r2
 1130 0018 1C60     		str	r4, [r3]
1200:Generated_Source\PSoC4/LED_GREEN_PWM.c **** 
1201:Generated_Source\PSoC4/LED_GREEN_PWM.c ****     CyExitCriticalSection(enableInterrupts);
 1131              		.loc 1 1201 0
 1132 001a FFF7FEFF 		bl	CyExitCriticalSection
 1133              	.LVL73:
1202:Generated_Source\PSoC4/LED_GREEN_PWM.c **** }
 1134              		.loc 1 1202 0
 1135              		@ sp needed
ARM GAS  C:\Users\ORA\AppData\Local\Temp\ccbWTaCf.s 			page 42


 1136 001e 10BD     		pop	{r4, pc}
 1137              	.L87:
 1138              		.align	2
 1139              	.L86:
 1140 0020 E4012040 		.word	1075839460
 1141              		.cfi_endproc
 1142              	.LFE33:
 1143              		.size	LED_GREEN_PWM_SetStopMode, .-LED_GREEN_PWM_SetStopMode
 1144              		.section	.text.LED_GREEN_PWM_SetCountMode,"ax",%progbits
 1145              		.align	2
 1146              		.global	LED_GREEN_PWM_SetCountMode
 1147              		.code	16
 1148              		.thumb_func
 1149              		.type	LED_GREEN_PWM_SetCountMode, %function
 1150              	LED_GREEN_PWM_SetCountMode:
 1151              	.LFB34:
1203:Generated_Source\PSoC4/LED_GREEN_PWM.c **** 
1204:Generated_Source\PSoC4/LED_GREEN_PWM.c **** 
1205:Generated_Source\PSoC4/LED_GREEN_PWM.c **** /*******************************************************************************
1206:Generated_Source\PSoC4/LED_GREEN_PWM.c **** * Function Name: LED_GREEN_PWM_SetCountMode
1207:Generated_Source\PSoC4/LED_GREEN_PWM.c **** ********************************************************************************
1208:Generated_Source\PSoC4/LED_GREEN_PWM.c **** *
1209:Generated_Source\PSoC4/LED_GREEN_PWM.c **** * Summary:
1210:Generated_Source\PSoC4/LED_GREEN_PWM.c **** *  Sets the count trigger mode. For Quadrature Decoder mode this is the phiA
1211:Generated_Source\PSoC4/LED_GREEN_PWM.c **** *  input.
1212:Generated_Source\PSoC4/LED_GREEN_PWM.c **** *
1213:Generated_Source\PSoC4/LED_GREEN_PWM.c **** * Parameters:
1214:Generated_Source\PSoC4/LED_GREEN_PWM.c **** *  triggerMode: Enumerated trigger mode value
1215:Generated_Source\PSoC4/LED_GREEN_PWM.c **** *   Values:
1216:Generated_Source\PSoC4/LED_GREEN_PWM.c **** *     - LED_GREEN_PWM_TRIG_LEVEL     - Level
1217:Generated_Source\PSoC4/LED_GREEN_PWM.c **** *     - LED_GREEN_PWM_TRIG_RISING    - Rising edge
1218:Generated_Source\PSoC4/LED_GREEN_PWM.c **** *     - LED_GREEN_PWM_TRIG_FALLING   - Falling edge
1219:Generated_Source\PSoC4/LED_GREEN_PWM.c **** *     - LED_GREEN_PWM_TRIG_BOTH      - Both rising and falling edge
1220:Generated_Source\PSoC4/LED_GREEN_PWM.c **** *
1221:Generated_Source\PSoC4/LED_GREEN_PWM.c **** * Return:
1222:Generated_Source\PSoC4/LED_GREEN_PWM.c **** *  None
1223:Generated_Source\PSoC4/LED_GREEN_PWM.c **** *
1224:Generated_Source\PSoC4/LED_GREEN_PWM.c **** *******************************************************************************/
1225:Generated_Source\PSoC4/LED_GREEN_PWM.c **** void LED_GREEN_PWM_SetCountMode(uint32 triggerMode)
1226:Generated_Source\PSoC4/LED_GREEN_PWM.c **** {
 1152              		.loc 1 1226 0
 1153              		.cfi_startproc
 1154              		@ args = 0, pretend = 0, frame = 0
 1155              		@ frame_needed = 0, uses_anonymous_args = 0
 1156              	.LVL74:
 1157 0000 10B5     		push	{r4, lr}
 1158              		.cfi_def_cfa_offset 8
 1159              		.cfi_offset 4, -8
 1160              		.cfi_offset 14, -4
 1161 0002 0400     		movs	r4, r0
1227:Generated_Source\PSoC4/LED_GREEN_PWM.c ****     uint8 enableInterrupts;
1228:Generated_Source\PSoC4/LED_GREEN_PWM.c **** 
1229:Generated_Source\PSoC4/LED_GREEN_PWM.c ****     enableInterrupts = CyEnterCriticalSection();
 1162              		.loc 1 1229 0
 1163 0004 FFF7FEFF 		bl	CyEnterCriticalSection
 1164              	.LVL75:
1230:Generated_Source\PSoC4/LED_GREEN_PWM.c **** 
ARM GAS  C:\Users\ORA\AppData\Local\Temp\ccbWTaCf.s 			page 43


1231:Generated_Source\PSoC4/LED_GREEN_PWM.c ****     LED_GREEN_PWM_TRIG_CONTROL1_REG &= (uint32)~LED_GREEN_PWM_COUNT_MASK;
 1165              		.loc 1 1231 0
 1166 0008 054B     		ldr	r3, .L89
 1167 000a 1A68     		ldr	r2, [r3]
 1168 000c 0C21     		movs	r1, #12
 1169 000e 8A43     		bics	r2, r1
 1170 0010 1A60     		str	r2, [r3]
1232:Generated_Source\PSoC4/LED_GREEN_PWM.c ****     LED_GREEN_PWM_TRIG_CONTROL1_REG |= ((uint32)(triggerMode << LED_GREEN_PWM_COUNT_SHIFT));
 1171              		.loc 1 1232 0
 1172 0012 1A68     		ldr	r2, [r3]
 1173 0014 A400     		lsls	r4, r4, #2
 1174              	.LVL76:
 1175 0016 1443     		orrs	r4, r2
 1176 0018 1C60     		str	r4, [r3]
1233:Generated_Source\PSoC4/LED_GREEN_PWM.c **** 
1234:Generated_Source\PSoC4/LED_GREEN_PWM.c ****     CyExitCriticalSection(enableInterrupts);
 1177              		.loc 1 1234 0
 1178 001a FFF7FEFF 		bl	CyExitCriticalSection
 1179              	.LVL77:
1235:Generated_Source\PSoC4/LED_GREEN_PWM.c **** }
 1180              		.loc 1 1235 0
 1181              		@ sp needed
 1182 001e 10BD     		pop	{r4, pc}
 1183              	.L90:
 1184              		.align	2
 1185              	.L89:
 1186 0020 E4012040 		.word	1075839460
 1187              		.cfi_endproc
 1188              	.LFE34:
 1189              		.size	LED_GREEN_PWM_SetCountMode, .-LED_GREEN_PWM_SetCountMode
 1190              		.section	.text.LED_GREEN_PWM_TriggerCommand,"ax",%progbits
 1191              		.align	2
 1192              		.global	LED_GREEN_PWM_TriggerCommand
 1193              		.code	16
 1194              		.thumb_func
 1195              		.type	LED_GREEN_PWM_TriggerCommand, %function
 1196              	LED_GREEN_PWM_TriggerCommand:
 1197              	.LFB35:
1236:Generated_Source\PSoC4/LED_GREEN_PWM.c **** 
1237:Generated_Source\PSoC4/LED_GREEN_PWM.c **** 
1238:Generated_Source\PSoC4/LED_GREEN_PWM.c **** /*******************************************************************************
1239:Generated_Source\PSoC4/LED_GREEN_PWM.c **** * Function Name: LED_GREEN_PWM_TriggerCommand
1240:Generated_Source\PSoC4/LED_GREEN_PWM.c **** ********************************************************************************
1241:Generated_Source\PSoC4/LED_GREEN_PWM.c **** *
1242:Generated_Source\PSoC4/LED_GREEN_PWM.c **** * Summary:
1243:Generated_Source\PSoC4/LED_GREEN_PWM.c **** *  Triggers the designated command to occur on the designated TCPWM instances.
1244:Generated_Source\PSoC4/LED_GREEN_PWM.c **** *  The mask can be used to apply this command simultaneously to more than one
1245:Generated_Source\PSoC4/LED_GREEN_PWM.c **** *  instance.  This allows multiple TCPWM instances to be synchronized.
1246:Generated_Source\PSoC4/LED_GREEN_PWM.c **** *
1247:Generated_Source\PSoC4/LED_GREEN_PWM.c **** * Parameters:
1248:Generated_Source\PSoC4/LED_GREEN_PWM.c **** *  mask: A combination of mask bits for each instance of the TCPWM that the
1249:Generated_Source\PSoC4/LED_GREEN_PWM.c **** *        command should apply to.  This function from one instance can be used
1250:Generated_Source\PSoC4/LED_GREEN_PWM.c **** *        to apply the command to any of the instances in the design.
1251:Generated_Source\PSoC4/LED_GREEN_PWM.c **** *        The mask value for a specific instance is available with the MASK
1252:Generated_Source\PSoC4/LED_GREEN_PWM.c **** *        define.
1253:Generated_Source\PSoC4/LED_GREEN_PWM.c **** *  command: Enumerated command values. Capture command only applicable for
1254:Generated_Source\PSoC4/LED_GREEN_PWM.c **** *           Timer/Counter with Capture and PWM modes.
ARM GAS  C:\Users\ORA\AppData\Local\Temp\ccbWTaCf.s 			page 44


1255:Generated_Source\PSoC4/LED_GREEN_PWM.c **** *   Values:
1256:Generated_Source\PSoC4/LED_GREEN_PWM.c **** *     - LED_GREEN_PWM_CMD_CAPTURE    - Trigger Capture/Switch command
1257:Generated_Source\PSoC4/LED_GREEN_PWM.c **** *     - LED_GREEN_PWM_CMD_RELOAD     - Trigger Reload/Index command
1258:Generated_Source\PSoC4/LED_GREEN_PWM.c **** *     - LED_GREEN_PWM_CMD_STOP       - Trigger Stop/Kill command
1259:Generated_Source\PSoC4/LED_GREEN_PWM.c **** *     - LED_GREEN_PWM_CMD_START      - Trigger Start/phiB command
1260:Generated_Source\PSoC4/LED_GREEN_PWM.c **** *
1261:Generated_Source\PSoC4/LED_GREEN_PWM.c **** * Return:
1262:Generated_Source\PSoC4/LED_GREEN_PWM.c **** *  None
1263:Generated_Source\PSoC4/LED_GREEN_PWM.c **** *
1264:Generated_Source\PSoC4/LED_GREEN_PWM.c **** *******************************************************************************/
1265:Generated_Source\PSoC4/LED_GREEN_PWM.c **** void LED_GREEN_PWM_TriggerCommand(uint32 mask, uint32 command)
1266:Generated_Source\PSoC4/LED_GREEN_PWM.c **** {
 1198              		.loc 1 1266 0
 1199              		.cfi_startproc
 1200              		@ args = 0, pretend = 0, frame = 0
 1201              		@ frame_needed = 0, uses_anonymous_args = 0
 1202              	.LVL78:
 1203 0000 70B5     		push	{r4, r5, r6, lr}
 1204              		.cfi_def_cfa_offset 16
 1205              		.cfi_offset 4, -16
 1206              		.cfi_offset 5, -12
 1207              		.cfi_offset 6, -8
 1208              		.cfi_offset 14, -4
 1209 0002 0400     		movs	r4, r0
 1210 0004 0D00     		movs	r5, r1
1267:Generated_Source\PSoC4/LED_GREEN_PWM.c ****     uint8 enableInterrupts;
1268:Generated_Source\PSoC4/LED_GREEN_PWM.c **** 
1269:Generated_Source\PSoC4/LED_GREEN_PWM.c ****     enableInterrupts = CyEnterCriticalSection();
 1211              		.loc 1 1269 0
 1212 0006 FFF7FEFF 		bl	CyEnterCriticalSection
 1213              	.LVL79:
1270:Generated_Source\PSoC4/LED_GREEN_PWM.c **** 
1271:Generated_Source\PSoC4/LED_GREEN_PWM.c ****     LED_GREEN_PWM_COMMAND_REG = ((uint32)(mask << command));
 1214              		.loc 1 1271 0
 1215 000a AC40     		lsls	r4, r4, r5
 1216              	.LVL80:
 1217 000c 024B     		ldr	r3, .L92
 1218 000e 1C60     		str	r4, [r3]
1272:Generated_Source\PSoC4/LED_GREEN_PWM.c **** 
1273:Generated_Source\PSoC4/LED_GREEN_PWM.c ****     CyExitCriticalSection(enableInterrupts);
 1219              		.loc 1 1273 0
 1220 0010 FFF7FEFF 		bl	CyExitCriticalSection
 1221              	.LVL81:
1274:Generated_Source\PSoC4/LED_GREEN_PWM.c **** }
 1222              		.loc 1 1274 0
 1223              		@ sp needed
 1224              	.LVL82:
 1225 0014 70BD     		pop	{r4, r5, r6, pc}
 1226              	.L93:
 1227 0016 C046     		.align	2
 1228              	.L92:
 1229 0018 08002040 		.word	1075838984
 1230              		.cfi_endproc
 1231              	.LFE35:
 1232              		.size	LED_GREEN_PWM_TriggerCommand, .-LED_GREEN_PWM_TriggerCommand
 1233              		.section	.text.LED_GREEN_PWM_Enable,"ax",%progbits
 1234              		.align	2
ARM GAS  C:\Users\ORA\AppData\Local\Temp\ccbWTaCf.s 			page 45


 1235              		.global	LED_GREEN_PWM_Enable
 1236              		.code	16
 1237              		.thumb_func
 1238              		.type	LED_GREEN_PWM_Enable, %function
 1239              	LED_GREEN_PWM_Enable:
 1240              	.LFB3:
 178:Generated_Source\PSoC4/LED_GREEN_PWM.c ****     uint8 enableInterrupts;
 1241              		.loc 1 178 0
 1242              		.cfi_startproc
 1243              		@ args = 0, pretend = 0, frame = 0
 1244              		@ frame_needed = 0, uses_anonymous_args = 0
 1245 0000 10B5     		push	{r4, lr}
 1246              		.cfi_def_cfa_offset 8
 1247              		.cfi_offset 4, -8
 1248              		.cfi_offset 14, -4
 181:Generated_Source\PSoC4/LED_GREEN_PWM.c ****     LED_GREEN_PWM_BLOCK_CONTROL_REG |= LED_GREEN_PWM_MASK;
 1249              		.loc 1 181 0
 1250 0002 FFF7FEFF 		bl	CyEnterCriticalSection
 1251              	.LVL83:
 182:Generated_Source\PSoC4/LED_GREEN_PWM.c ****     CyExitCriticalSection(enableInterrupts);
 1252              		.loc 1 182 0
 1253 0006 064A     		ldr	r2, .L95
 1254 0008 1168     		ldr	r1, [r2]
 1255 000a 0823     		movs	r3, #8
 1256 000c 0B43     		orrs	r3, r1
 1257 000e 1360     		str	r3, [r2]
 183:Generated_Source\PSoC4/LED_GREEN_PWM.c **** 
 1258              		.loc 1 183 0
 1259 0010 FFF7FEFF 		bl	CyExitCriticalSection
 1260              	.LVL84:
 188:Generated_Source\PSoC4/LED_GREEN_PWM.c ****         #endif /* (0u == LED_GREEN_PWM_PWM_START_SIGNAL_PRESENT) */
 1261              		.loc 1 188 0
 1262 0014 1821     		movs	r1, #24
 1263 0016 0820     		movs	r0, #8
 1264 0018 FFF7FEFF 		bl	LED_GREEN_PWM_TriggerCommand
 1265              	.LVL85:
 203:Generated_Source\PSoC4/LED_GREEN_PWM.c **** 
 1266              		.loc 1 203 0
 1267              		@ sp needed
 1268 001c 10BD     		pop	{r4, pc}
 1269              	.L96:
 1270 001e C046     		.align	2
 1271              	.L95:
 1272 0020 00002040 		.word	1075838976
 1273              		.cfi_endproc
 1274              	.LFE3:
 1275              		.size	LED_GREEN_PWM_Enable, .-LED_GREEN_PWM_Enable
 1276              		.section	.text.LED_GREEN_PWM_ReadStatus,"ax",%progbits
 1277              		.align	2
 1278              		.global	LED_GREEN_PWM_ReadStatus
 1279              		.code	16
 1280              		.thumb_func
 1281              		.type	LED_GREEN_PWM_ReadStatus, %function
 1282              	LED_GREEN_PWM_ReadStatus:
 1283              	.LFB36:
1275:Generated_Source\PSoC4/LED_GREEN_PWM.c **** 
1276:Generated_Source\PSoC4/LED_GREEN_PWM.c **** 
ARM GAS  C:\Users\ORA\AppData\Local\Temp\ccbWTaCf.s 			page 46


1277:Generated_Source\PSoC4/LED_GREEN_PWM.c **** /*******************************************************************************
1278:Generated_Source\PSoC4/LED_GREEN_PWM.c **** * Function Name: LED_GREEN_PWM_ReadStatus
1279:Generated_Source\PSoC4/LED_GREEN_PWM.c **** ********************************************************************************
1280:Generated_Source\PSoC4/LED_GREEN_PWM.c **** *
1281:Generated_Source\PSoC4/LED_GREEN_PWM.c **** * Summary:
1282:Generated_Source\PSoC4/LED_GREEN_PWM.c **** *  Reads the status of the LED_GREEN_PWM.
1283:Generated_Source\PSoC4/LED_GREEN_PWM.c **** *
1284:Generated_Source\PSoC4/LED_GREEN_PWM.c **** * Parameters:
1285:Generated_Source\PSoC4/LED_GREEN_PWM.c **** *  None
1286:Generated_Source\PSoC4/LED_GREEN_PWM.c **** *
1287:Generated_Source\PSoC4/LED_GREEN_PWM.c **** * Return:
1288:Generated_Source\PSoC4/LED_GREEN_PWM.c **** *  Status
1289:Generated_Source\PSoC4/LED_GREEN_PWM.c **** *   Values:
1290:Generated_Source\PSoC4/LED_GREEN_PWM.c **** *     - LED_GREEN_PWM_STATUS_DOWN    - Set if counting down
1291:Generated_Source\PSoC4/LED_GREEN_PWM.c **** *     - LED_GREEN_PWM_STATUS_RUNNING - Set if counter is running
1292:Generated_Source\PSoC4/LED_GREEN_PWM.c **** *
1293:Generated_Source\PSoC4/LED_GREEN_PWM.c **** *******************************************************************************/
1294:Generated_Source\PSoC4/LED_GREEN_PWM.c **** uint32 LED_GREEN_PWM_ReadStatus(void)
1295:Generated_Source\PSoC4/LED_GREEN_PWM.c **** {
 1284              		.loc 1 1295 0
 1285              		.cfi_startproc
 1286              		@ args = 0, pretend = 0, frame = 0
 1287              		@ frame_needed = 0, uses_anonymous_args = 0
 1288              		@ link register save eliminated.
1296:Generated_Source\PSoC4/LED_GREEN_PWM.c ****     return ((LED_GREEN_PWM_STATUS_REG >> LED_GREEN_PWM_RUNNING_STATUS_SHIFT) |
 1289              		.loc 1 1296 0
 1290 0000 034B     		ldr	r3, .L98
 1291 0002 1868     		ldr	r0, [r3]
 1292 0004 820F     		lsrs	r2, r0, #30
1297:Generated_Source\PSoC4/LED_GREEN_PWM.c ****             (LED_GREEN_PWM_STATUS_REG & LED_GREEN_PWM_STATUS_DOWN));
 1293              		.loc 1 1297 0
 1294 0006 1B68     		ldr	r3, [r3]
 1295 0008 0120     		movs	r0, #1
 1296 000a 1840     		ands	r0, r3
1296:Generated_Source\PSoC4/LED_GREEN_PWM.c ****     return ((LED_GREEN_PWM_STATUS_REG >> LED_GREEN_PWM_RUNNING_STATUS_SHIFT) |
 1297              		.loc 1 1296 0
 1298 000c 1043     		orrs	r0, r2
1298:Generated_Source\PSoC4/LED_GREEN_PWM.c **** }
 1299              		.loc 1 1298 0
 1300              		@ sp needed
 1301 000e 7047     		bx	lr
 1302              	.L99:
 1303              		.align	2
 1304              	.L98:
 1305 0010 C4012040 		.word	1075839428
 1306              		.cfi_endproc
 1307              	.LFE36:
 1308              		.size	LED_GREEN_PWM_ReadStatus, .-LED_GREEN_PWM_ReadStatus
 1309              		.section	.text.LED_GREEN_PWM_SetInterruptMode,"ax",%progbits
 1310              		.align	2
 1311              		.global	LED_GREEN_PWM_SetInterruptMode
 1312              		.code	16
 1313              		.thumb_func
 1314              		.type	LED_GREEN_PWM_SetInterruptMode, %function
 1315              	LED_GREEN_PWM_SetInterruptMode:
 1316              	.LFB37:
1299:Generated_Source\PSoC4/LED_GREEN_PWM.c **** 
ARM GAS  C:\Users\ORA\AppData\Local\Temp\ccbWTaCf.s 			page 47


1300:Generated_Source\PSoC4/LED_GREEN_PWM.c **** 
1301:Generated_Source\PSoC4/LED_GREEN_PWM.c **** /*******************************************************************************
1302:Generated_Source\PSoC4/LED_GREEN_PWM.c **** * Function Name: LED_GREEN_PWM_SetInterruptMode
1303:Generated_Source\PSoC4/LED_GREEN_PWM.c **** ********************************************************************************
1304:Generated_Source\PSoC4/LED_GREEN_PWM.c **** *
1305:Generated_Source\PSoC4/LED_GREEN_PWM.c **** * Summary:
1306:Generated_Source\PSoC4/LED_GREEN_PWM.c **** *  Sets the interrupt mask to control which interrupt
1307:Generated_Source\PSoC4/LED_GREEN_PWM.c **** *  requests generate the interrupt signal.
1308:Generated_Source\PSoC4/LED_GREEN_PWM.c **** *
1309:Generated_Source\PSoC4/LED_GREEN_PWM.c **** * Parameters:
1310:Generated_Source\PSoC4/LED_GREEN_PWM.c **** *   interruptMask: Mask of bits to be enabled
1311:Generated_Source\PSoC4/LED_GREEN_PWM.c **** *   Values:
1312:Generated_Source\PSoC4/LED_GREEN_PWM.c **** *     - LED_GREEN_PWM_INTR_MASK_TC       - Terminal count mask
1313:Generated_Source\PSoC4/LED_GREEN_PWM.c **** *     - LED_GREEN_PWM_INTR_MASK_CC_MATCH - Compare count / capture mask
1314:Generated_Source\PSoC4/LED_GREEN_PWM.c **** *
1315:Generated_Source\PSoC4/LED_GREEN_PWM.c **** * Return:
1316:Generated_Source\PSoC4/LED_GREEN_PWM.c **** *  None
1317:Generated_Source\PSoC4/LED_GREEN_PWM.c **** *
1318:Generated_Source\PSoC4/LED_GREEN_PWM.c **** *******************************************************************************/
1319:Generated_Source\PSoC4/LED_GREEN_PWM.c **** void LED_GREEN_PWM_SetInterruptMode(uint32 interruptMask)
1320:Generated_Source\PSoC4/LED_GREEN_PWM.c **** {
 1317              		.loc 1 1320 0
 1318              		.cfi_startproc
 1319              		@ args = 0, pretend = 0, frame = 0
 1320              		@ frame_needed = 0, uses_anonymous_args = 0
 1321              		@ link register save eliminated.
 1322              	.LVL86:
1321:Generated_Source\PSoC4/LED_GREEN_PWM.c ****     LED_GREEN_PWM_INTERRUPT_MASK_REG =  interruptMask;
 1323              		.loc 1 1321 0
 1324 0000 014B     		ldr	r3, .L101
 1325 0002 1860     		str	r0, [r3]
1322:Generated_Source\PSoC4/LED_GREEN_PWM.c **** }
 1326              		.loc 1 1322 0
 1327              		@ sp needed
 1328 0004 7047     		bx	lr
 1329              	.L102:
 1330 0006 C046     		.align	2
 1331              	.L101:
 1332 0008 F8012040 		.word	1075839480
 1333              		.cfi_endproc
 1334              	.LFE37:
 1335              		.size	LED_GREEN_PWM_SetInterruptMode, .-LED_GREEN_PWM_SetInterruptMode
 1336              		.section	.text.LED_GREEN_PWM_Init,"ax",%progbits
 1337              		.align	2
 1338              		.global	LED_GREEN_PWM_Init
 1339              		.code	16
 1340              		.thumb_func
 1341              		.type	LED_GREEN_PWM_Init, %function
 1342              	LED_GREEN_PWM_Init:
 1343              	.LFB2:
  39:Generated_Source\PSoC4/LED_GREEN_PWM.c **** 
 1344              		.loc 1 39 0
 1345              		.cfi_startproc
 1346              		@ args = 0, pretend = 0, frame = 0
 1347              		@ frame_needed = 0, uses_anonymous_args = 0
 1348 0000 10B5     		push	{r4, lr}
 1349              		.cfi_def_cfa_offset 8
ARM GAS  C:\Users\ORA\AppData\Local\Temp\ccbWTaCf.s 			page 48


 1350              		.cfi_offset 4, -8
 1351              		.cfi_offset 14, -4
  89:Generated_Source\PSoC4/LED_GREEN_PWM.c **** 
 1352              		.loc 1 89 0
 1353 0002 0E4C     		ldr	r4, .L104
 1354 0004 8023     		movs	r3, #128
 1355 0006 DB04     		lsls	r3, r3, #19
 1356 0008 2360     		str	r3, [r4]
  95:Generated_Source\PSoC4/LED_GREEN_PWM.c ****             
 1357              		.loc 1 95 0
 1358 000a 2368     		ldr	r3, [r4]
 1359 000c 2360     		str	r3, [r4]
 103:Generated_Source\PSoC4/LED_GREEN_PWM.c ****             #endif  /* (LED_GREEN_PWM_CY_TCPWM_V2 && LED_GREEN_PWM_PWM_UPDOWN_CNT_USED && !LED_GREE
 1360              		.loc 1 103 0
 1361 000e 0020     		movs	r0, #0
 1362 0010 FFF7FEFF 		bl	LED_GREEN_PWM_WriteCounter
 1363              	.LVL87:
 112:Generated_Source\PSoC4/LED_GREEN_PWM.c ****         #endif  /* (LED_GREEN_PWM__PWM == LED_GREEN_PWM_PWM_MODE) */
 1364              		.loc 1 112 0
 1365 0014 2368     		ldr	r3, [r4]
 1366 0016 2360     		str	r3, [r4]
 116:Generated_Source\PSoC4/LED_GREEN_PWM.c ****     
 1367              		.loc 1 116 0
 1368 0018 0C22     		movs	r2, #12
 1369 001a 094B     		ldr	r3, .L104+4
 1370 001c 1A60     		str	r2, [r3]
 119:Generated_Source\PSoC4/LED_GREEN_PWM.c **** 
 1371              		.loc 1 119 0
 1372 001e 0120     		movs	r0, #1
 1373 0020 FFF7FEFF 		bl	LED_GREEN_PWM_SetInterruptMode
 1374              	.LVL88:
 129:Generated_Source\PSoC4/LED_GREEN_PWM.c ****             #endif  /* ( LED_GREEN_PWM_PWM_LEFT == LED_GREEN_PWM_PWM_ALIGN) */
 1375              		.loc 1 129 0
 1376 0024 3122     		movs	r2, #49
 1377 0026 074B     		ldr	r3, .L104+8
 1378 0028 1A60     		str	r2, [r3]
 146:Generated_Source\PSoC4/LED_GREEN_PWM.c ****         LED_GREEN_PWM_WriteCompare(LED_GREEN_PWM_PWM_COMPARE_VALUE);
 1379              		.loc 1 146 0
 1380 002a 8020     		movs	r0, #128
 1381 002c 4000     		lsls	r0, r0, #1
 1382 002e FFF7FEFF 		bl	LED_GREEN_PWM_WritePeriod
 1383              	.LVL89:
 147:Generated_Source\PSoC4/LED_GREEN_PWM.c **** 
 1384              		.loc 1 147 0
 1385 0032 0020     		movs	r0, #0
 1386 0034 FFF7FEFF 		bl	LED_GREEN_PWM_WriteCompare
 1387              	.LVL90:
 160:Generated_Source\PSoC4/LED_GREEN_PWM.c **** 
 1388              		.loc 1 160 0
 1389              		@ sp needed
 1390 0038 10BD     		pop	{r4, pc}
 1391              	.L105:
 1392 003a C046     		.align	2
 1393              	.L104:
 1394 003c C0012040 		.word	1075839424
 1395 0040 E4012040 		.word	1075839460
 1396 0044 E8012040 		.word	1075839464
ARM GAS  C:\Users\ORA\AppData\Local\Temp\ccbWTaCf.s 			page 49


 1397              		.cfi_endproc
 1398              	.LFE2:
 1399              		.size	LED_GREEN_PWM_Init, .-LED_GREEN_PWM_Init
 1400              		.section	.text.LED_GREEN_PWM_Start,"ax",%progbits
 1401              		.align	2
 1402              		.global	LED_GREEN_PWM_Start
 1403              		.code	16
 1404              		.thumb_func
 1405              		.type	LED_GREEN_PWM_Start, %function
 1406              	LED_GREEN_PWM_Start:
 1407              	.LFB4:
 231:Generated_Source\PSoC4/LED_GREEN_PWM.c ****     if (0u == LED_GREEN_PWM_initVar)
 1408              		.loc 1 231 0
 1409              		.cfi_startproc
 1410              		@ args = 0, pretend = 0, frame = 0
 1411              		@ frame_needed = 0, uses_anonymous_args = 0
 1412 0000 10B5     		push	{r4, lr}
 1413              		.cfi_def_cfa_offset 8
 1414              		.cfi_offset 4, -8
 1415              		.cfi_offset 14, -4
 232:Generated_Source\PSoC4/LED_GREEN_PWM.c ****     {
 1416              		.loc 1 232 0
 1417 0002 064B     		ldr	r3, .L108
 1418 0004 1B78     		ldrb	r3, [r3]
 1419 0006 002B     		cmp	r3, #0
 1420 0008 04D1     		bne	.L107
 234:Generated_Source\PSoC4/LED_GREEN_PWM.c ****         LED_GREEN_PWM_initVar = 1u;
 1421              		.loc 1 234 0
 1422 000a FFF7FEFF 		bl	LED_GREEN_PWM_Init
 1423              	.LVL91:
 235:Generated_Source\PSoC4/LED_GREEN_PWM.c ****     }
 1424              		.loc 1 235 0
 1425 000e 0122     		movs	r2, #1
 1426 0010 024B     		ldr	r3, .L108
 1427 0012 1A70     		strb	r2, [r3]
 1428              	.L107:
 238:Generated_Source\PSoC4/LED_GREEN_PWM.c **** }
 1429              		.loc 1 238 0
 1430 0014 FFF7FEFF 		bl	LED_GREEN_PWM_Enable
 1431              	.LVL92:
 239:Generated_Source\PSoC4/LED_GREEN_PWM.c **** 
 1432              		.loc 1 239 0
 1433              		@ sp needed
 1434 0018 10BD     		pop	{r4, pc}
 1435              	.L109:
 1436 001a C046     		.align	2
 1437              	.L108:
 1438 001c 00000000 		.word	.LANCHOR0
 1439              		.cfi_endproc
 1440              	.LFE4:
 1441              		.size	LED_GREEN_PWM_Start, .-LED_GREEN_PWM_Start
 1442              		.section	.text.LED_GREEN_PWM_GetInterruptSourceMasked,"ax",%progbits
 1443              		.align	2
 1444              		.global	LED_GREEN_PWM_GetInterruptSourceMasked
 1445              		.code	16
 1446              		.thumb_func
 1447              		.type	LED_GREEN_PWM_GetInterruptSourceMasked, %function
ARM GAS  C:\Users\ORA\AppData\Local\Temp\ccbWTaCf.s 			page 50


 1448              	LED_GREEN_PWM_GetInterruptSourceMasked:
 1449              	.LFB38:
1323:Generated_Source\PSoC4/LED_GREEN_PWM.c **** 
1324:Generated_Source\PSoC4/LED_GREEN_PWM.c **** 
1325:Generated_Source\PSoC4/LED_GREEN_PWM.c **** /*******************************************************************************
1326:Generated_Source\PSoC4/LED_GREEN_PWM.c **** * Function Name: LED_GREEN_PWM_GetInterruptSourceMasked
1327:Generated_Source\PSoC4/LED_GREEN_PWM.c **** ********************************************************************************
1328:Generated_Source\PSoC4/LED_GREEN_PWM.c **** *
1329:Generated_Source\PSoC4/LED_GREEN_PWM.c **** * Summary:
1330:Generated_Source\PSoC4/LED_GREEN_PWM.c **** *  Gets the interrupt requests masked by the interrupt mask.
1331:Generated_Source\PSoC4/LED_GREEN_PWM.c **** *
1332:Generated_Source\PSoC4/LED_GREEN_PWM.c **** * Parameters:
1333:Generated_Source\PSoC4/LED_GREEN_PWM.c **** *   None
1334:Generated_Source\PSoC4/LED_GREEN_PWM.c **** *
1335:Generated_Source\PSoC4/LED_GREEN_PWM.c **** * Return:
1336:Generated_Source\PSoC4/LED_GREEN_PWM.c **** *  Masked interrupt source
1337:Generated_Source\PSoC4/LED_GREEN_PWM.c **** *   Values:
1338:Generated_Source\PSoC4/LED_GREEN_PWM.c **** *     - LED_GREEN_PWM_INTR_MASK_TC       - Terminal count mask
1339:Generated_Source\PSoC4/LED_GREEN_PWM.c **** *     - LED_GREEN_PWM_INTR_MASK_CC_MATCH - Compare count / capture mask
1340:Generated_Source\PSoC4/LED_GREEN_PWM.c **** *
1341:Generated_Source\PSoC4/LED_GREEN_PWM.c **** *******************************************************************************/
1342:Generated_Source\PSoC4/LED_GREEN_PWM.c **** uint32 LED_GREEN_PWM_GetInterruptSourceMasked(void)
1343:Generated_Source\PSoC4/LED_GREEN_PWM.c **** {
 1450              		.loc 1 1343 0
 1451              		.cfi_startproc
 1452              		@ args = 0, pretend = 0, frame = 0
 1453              		@ frame_needed = 0, uses_anonymous_args = 0
 1454              		@ link register save eliminated.
1344:Generated_Source\PSoC4/LED_GREEN_PWM.c ****     return (LED_GREEN_PWM_INTERRUPT_MASKED_REG);
 1455              		.loc 1 1344 0
 1456 0000 014B     		ldr	r3, .L111
 1457 0002 1868     		ldr	r0, [r3]
1345:Generated_Source\PSoC4/LED_GREEN_PWM.c **** }
 1458              		.loc 1 1345 0
 1459              		@ sp needed
 1460 0004 7047     		bx	lr
 1461              	.L112:
 1462 0006 C046     		.align	2
 1463              	.L111:
 1464 0008 FC012040 		.word	1075839484
 1465              		.cfi_endproc
 1466              	.LFE38:
 1467              		.size	LED_GREEN_PWM_GetInterruptSourceMasked, .-LED_GREEN_PWM_GetInterruptSourceMasked
 1468              		.section	.text.LED_GREEN_PWM_GetInterruptSource,"ax",%progbits
 1469              		.align	2
 1470              		.global	LED_GREEN_PWM_GetInterruptSource
 1471              		.code	16
 1472              		.thumb_func
 1473              		.type	LED_GREEN_PWM_GetInterruptSource, %function
 1474              	LED_GREEN_PWM_GetInterruptSource:
 1475              	.LFB39:
1346:Generated_Source\PSoC4/LED_GREEN_PWM.c **** 
1347:Generated_Source\PSoC4/LED_GREEN_PWM.c **** 
1348:Generated_Source\PSoC4/LED_GREEN_PWM.c **** /*******************************************************************************
1349:Generated_Source\PSoC4/LED_GREEN_PWM.c **** * Function Name: LED_GREEN_PWM_GetInterruptSource
1350:Generated_Source\PSoC4/LED_GREEN_PWM.c **** ********************************************************************************
1351:Generated_Source\PSoC4/LED_GREEN_PWM.c **** *
ARM GAS  C:\Users\ORA\AppData\Local\Temp\ccbWTaCf.s 			page 51


1352:Generated_Source\PSoC4/LED_GREEN_PWM.c **** * Summary:
1353:Generated_Source\PSoC4/LED_GREEN_PWM.c **** *  Gets the interrupt requests (without masking).
1354:Generated_Source\PSoC4/LED_GREEN_PWM.c **** *
1355:Generated_Source\PSoC4/LED_GREEN_PWM.c **** * Parameters:
1356:Generated_Source\PSoC4/LED_GREEN_PWM.c **** *  None
1357:Generated_Source\PSoC4/LED_GREEN_PWM.c **** *
1358:Generated_Source\PSoC4/LED_GREEN_PWM.c **** * Return:
1359:Generated_Source\PSoC4/LED_GREEN_PWM.c **** *  Interrupt request value
1360:Generated_Source\PSoC4/LED_GREEN_PWM.c **** *   Values:
1361:Generated_Source\PSoC4/LED_GREEN_PWM.c **** *     - LED_GREEN_PWM_INTR_MASK_TC       - Terminal count mask
1362:Generated_Source\PSoC4/LED_GREEN_PWM.c **** *     - LED_GREEN_PWM_INTR_MASK_CC_MATCH - Compare count / capture mask
1363:Generated_Source\PSoC4/LED_GREEN_PWM.c **** *
1364:Generated_Source\PSoC4/LED_GREEN_PWM.c **** *******************************************************************************/
1365:Generated_Source\PSoC4/LED_GREEN_PWM.c **** uint32 LED_GREEN_PWM_GetInterruptSource(void)
1366:Generated_Source\PSoC4/LED_GREEN_PWM.c **** {
 1476              		.loc 1 1366 0
 1477              		.cfi_startproc
 1478              		@ args = 0, pretend = 0, frame = 0
 1479              		@ frame_needed = 0, uses_anonymous_args = 0
 1480              		@ link register save eliminated.
1367:Generated_Source\PSoC4/LED_GREEN_PWM.c ****     return (LED_GREEN_PWM_INTERRUPT_REQ_REG);
 1481              		.loc 1 1367 0
 1482 0000 014B     		ldr	r3, .L114
 1483 0002 1868     		ldr	r0, [r3]
1368:Generated_Source\PSoC4/LED_GREEN_PWM.c **** }
 1484              		.loc 1 1368 0
 1485              		@ sp needed
 1486 0004 7047     		bx	lr
 1487              	.L115:
 1488 0006 C046     		.align	2
 1489              	.L114:
 1490 0008 F0012040 		.word	1075839472
 1491              		.cfi_endproc
 1492              	.LFE39:
 1493              		.size	LED_GREEN_PWM_GetInterruptSource, .-LED_GREEN_PWM_GetInterruptSource
 1494              		.section	.text.LED_GREEN_PWM_ClearInterrupt,"ax",%progbits
 1495              		.align	2
 1496              		.global	LED_GREEN_PWM_ClearInterrupt
 1497              		.code	16
 1498              		.thumb_func
 1499              		.type	LED_GREEN_PWM_ClearInterrupt, %function
 1500              	LED_GREEN_PWM_ClearInterrupt:
 1501              	.LFB40:
1369:Generated_Source\PSoC4/LED_GREEN_PWM.c **** 
1370:Generated_Source\PSoC4/LED_GREEN_PWM.c **** 
1371:Generated_Source\PSoC4/LED_GREEN_PWM.c **** /*******************************************************************************
1372:Generated_Source\PSoC4/LED_GREEN_PWM.c **** * Function Name: LED_GREEN_PWM_ClearInterrupt
1373:Generated_Source\PSoC4/LED_GREEN_PWM.c **** ********************************************************************************
1374:Generated_Source\PSoC4/LED_GREEN_PWM.c **** *
1375:Generated_Source\PSoC4/LED_GREEN_PWM.c **** * Summary:
1376:Generated_Source\PSoC4/LED_GREEN_PWM.c **** *  Clears the interrupt request.
1377:Generated_Source\PSoC4/LED_GREEN_PWM.c **** *
1378:Generated_Source\PSoC4/LED_GREEN_PWM.c **** * Parameters:
1379:Generated_Source\PSoC4/LED_GREEN_PWM.c **** *   interruptMask: Mask of interrupts to clear
1380:Generated_Source\PSoC4/LED_GREEN_PWM.c **** *   Values:
1381:Generated_Source\PSoC4/LED_GREEN_PWM.c **** *     - LED_GREEN_PWM_INTR_MASK_TC       - Terminal count mask
1382:Generated_Source\PSoC4/LED_GREEN_PWM.c **** *     - LED_GREEN_PWM_INTR_MASK_CC_MATCH - Compare count / capture mask
ARM GAS  C:\Users\ORA\AppData\Local\Temp\ccbWTaCf.s 			page 52


1383:Generated_Source\PSoC4/LED_GREEN_PWM.c **** *
1384:Generated_Source\PSoC4/LED_GREEN_PWM.c **** * Return:
1385:Generated_Source\PSoC4/LED_GREEN_PWM.c **** *  None
1386:Generated_Source\PSoC4/LED_GREEN_PWM.c **** *
1387:Generated_Source\PSoC4/LED_GREEN_PWM.c **** *******************************************************************************/
1388:Generated_Source\PSoC4/LED_GREEN_PWM.c **** void LED_GREEN_PWM_ClearInterrupt(uint32 interruptMask)
1389:Generated_Source\PSoC4/LED_GREEN_PWM.c **** {
 1502              		.loc 1 1389 0
 1503              		.cfi_startproc
 1504              		@ args = 0, pretend = 0, frame = 0
 1505              		@ frame_needed = 0, uses_anonymous_args = 0
 1506              		@ link register save eliminated.
 1507              	.LVL93:
1390:Generated_Source\PSoC4/LED_GREEN_PWM.c ****     LED_GREEN_PWM_INTERRUPT_REQ_REG = interruptMask;
 1508              		.loc 1 1390 0
 1509 0000 014B     		ldr	r3, .L117
 1510 0002 1860     		str	r0, [r3]
1391:Generated_Source\PSoC4/LED_GREEN_PWM.c **** }
 1511              		.loc 1 1391 0
 1512              		@ sp needed
 1513 0004 7047     		bx	lr
 1514              	.L118:
 1515 0006 C046     		.align	2
 1516              	.L117:
 1517 0008 F0012040 		.word	1075839472
 1518              		.cfi_endproc
 1519              	.LFE40:
 1520              		.size	LED_GREEN_PWM_ClearInterrupt, .-LED_GREEN_PWM_ClearInterrupt
 1521              		.section	.text.LED_GREEN_PWM_SetInterrupt,"ax",%progbits
 1522              		.align	2
 1523              		.global	LED_GREEN_PWM_SetInterrupt
 1524              		.code	16
 1525              		.thumb_func
 1526              		.type	LED_GREEN_PWM_SetInterrupt, %function
 1527              	LED_GREEN_PWM_SetInterrupt:
 1528              	.LFB41:
1392:Generated_Source\PSoC4/LED_GREEN_PWM.c **** 
1393:Generated_Source\PSoC4/LED_GREEN_PWM.c **** 
1394:Generated_Source\PSoC4/LED_GREEN_PWM.c **** /*******************************************************************************
1395:Generated_Source\PSoC4/LED_GREEN_PWM.c **** * Function Name: LED_GREEN_PWM_SetInterrupt
1396:Generated_Source\PSoC4/LED_GREEN_PWM.c **** ********************************************************************************
1397:Generated_Source\PSoC4/LED_GREEN_PWM.c **** *
1398:Generated_Source\PSoC4/LED_GREEN_PWM.c **** * Summary:
1399:Generated_Source\PSoC4/LED_GREEN_PWM.c **** *  Sets a software interrupt request.
1400:Generated_Source\PSoC4/LED_GREEN_PWM.c **** *
1401:Generated_Source\PSoC4/LED_GREEN_PWM.c **** * Parameters:
1402:Generated_Source\PSoC4/LED_GREEN_PWM.c **** *   interruptMask: Mask of interrupts to set
1403:Generated_Source\PSoC4/LED_GREEN_PWM.c **** *   Values:
1404:Generated_Source\PSoC4/LED_GREEN_PWM.c **** *     - LED_GREEN_PWM_INTR_MASK_TC       - Terminal count mask
1405:Generated_Source\PSoC4/LED_GREEN_PWM.c **** *     - LED_GREEN_PWM_INTR_MASK_CC_MATCH - Compare count / capture mask
1406:Generated_Source\PSoC4/LED_GREEN_PWM.c **** *
1407:Generated_Source\PSoC4/LED_GREEN_PWM.c **** * Return:
1408:Generated_Source\PSoC4/LED_GREEN_PWM.c **** *  None
1409:Generated_Source\PSoC4/LED_GREEN_PWM.c **** *
1410:Generated_Source\PSoC4/LED_GREEN_PWM.c **** *******************************************************************************/
1411:Generated_Source\PSoC4/LED_GREEN_PWM.c **** void LED_GREEN_PWM_SetInterrupt(uint32 interruptMask)
1412:Generated_Source\PSoC4/LED_GREEN_PWM.c **** {
ARM GAS  C:\Users\ORA\AppData\Local\Temp\ccbWTaCf.s 			page 53


 1529              		.loc 1 1412 0
 1530              		.cfi_startproc
 1531              		@ args = 0, pretend = 0, frame = 0
 1532              		@ frame_needed = 0, uses_anonymous_args = 0
 1533              		@ link register save eliminated.
 1534              	.LVL94:
1413:Generated_Source\PSoC4/LED_GREEN_PWM.c ****     LED_GREEN_PWM_INTERRUPT_SET_REG = interruptMask;
 1535              		.loc 1 1413 0
 1536 0000 014B     		ldr	r3, .L120
 1537 0002 1860     		str	r0, [r3]
1414:Generated_Source\PSoC4/LED_GREEN_PWM.c **** }
 1538              		.loc 1 1414 0
 1539              		@ sp needed
 1540 0004 7047     		bx	lr
 1541              	.L121:
 1542 0006 C046     		.align	2
 1543              	.L120:
 1544 0008 F4012040 		.word	1075839476
 1545              		.cfi_endproc
 1546              	.LFE41:
 1547              		.size	LED_GREEN_PWM_SetInterrupt, .-LED_GREEN_PWM_SetInterrupt
 1548              		.global	LED_GREEN_PWM_initVar
 1549              		.bss
 1550              		.set	.LANCHOR0,. + 0
 1551              		.type	LED_GREEN_PWM_initVar, %object
 1552              		.size	LED_GREEN_PWM_initVar, 1
 1553              	LED_GREEN_PWM_initVar:
 1554 0000 00       		.space	1
 1555              		.text
 1556              	.Letext0:
 1557              		.file 2 "Generated_Source\\PSoC4\\cytypes.h"
 1558              		.file 3 "Generated_Source\\PSoC4\\CyLib.h"
