Archive member included to satisfy reference by file (symbol)

.\CortexM0\ARM_GCC_541\Debug\Lesson9_I2C.a(CyLib.o)
                              .\CortexM0\ARM_GCC_541\Debug\cyfitter_cfg.o (CyIntEnable)
.\CortexM0\ARM_GCC_541\Debug\Lesson9_I2C.a(CyLFClk.o)
                              .\CortexM0\ARM_GCC_541\Debug\cyfitter_cfg.o (CySysClkWcoStart)
.\CortexM0\ARM_GCC_541\Debug\Lesson9_I2C.a(I2C.o)
                              .\CortexM0\ARM_GCC_541\Debug\main.o (I2C_Start)
.\CortexM0\ARM_GCC_541\Debug\Lesson9_I2C.a(I2C_EZI2C.o)
                              .\CortexM0\ARM_GCC_541\Debug\Lesson9_I2C.a(I2C.o) (I2C_EzI2CInit)
.\CortexM0\ARM_GCC_541\Debug\Lesson9_I2C.a(I2C_EZI2C_INT.o)
                              .\CortexM0\ARM_GCC_541\Debug\Lesson9_I2C.a(I2C_EZI2C.o) (I2C_EZI2C_STRETCH_ISR)
.\CortexM0\ARM_GCC_541\Debug\Lesson9_I2C.a(LED_RED_PWM.o)
                              .\CortexM0\ARM_GCC_541\Debug\main.o (LED_RED_PWM_WriteCompare)
.\CortexM0\ARM_GCC_541\Debug\Lesson9_I2C.a(LED_GREEN_PWM.o)
                              .\CortexM0\ARM_GCC_541\Debug\main.o (LED_GREEN_PWM_WriteCompare)
.\CortexM0\ARM_GCC_541\Debug\Lesson9_I2C.a(CyBootAsmGnu.o)
                              .\CortexM0\ARM_GCC_541\Debug\cyfitter_cfg.o (CyDelayCycles)
c:/program files (x86)/cypress/psoc creator/4.2/psoc creator/import/gnu/arm/5.4.1/bin/../lib/gcc/arm-none-eabi/5.4.1/armv6-m\libgcc.a(_udivsi3.o)
                              .\CortexM0\ARM_GCC_541\Debug\Lesson9_I2C.a(CyLib.o) (__aeabi_uidiv)
c:/program files (x86)/cypress/psoc creator/4.2/psoc creator/import/gnu/arm/5.4.1/bin/../lib/gcc/arm-none-eabi/5.4.1/armv6-m\libgcc.a(_divsi3.o)
                              .\CortexM0\ARM_GCC_541\Debug\Lesson9_I2C.a(CyLFClk.o) (__aeabi_idiv)
c:/program files (x86)/cypress/psoc creator/4.2/psoc creator/import/gnu/arm/5.4.1/bin/../lib/gcc/arm-none-eabi/5.4.1/armv6-m\libgcc.a(_dvmd_tls.o)
                              c:/program files (x86)/cypress/psoc creator/4.2/psoc creator/import/gnu/arm/5.4.1/bin/../lib/gcc/arm-none-eabi/5.4.1/armv6-m\libgcc.a(_udivsi3.o) (__aeabi_idiv0)
c:/program files (x86)/cypress/psoc creator/4.2/psoc creator/import/gnu/arm/5.4.1/bin/../lib/gcc/arm-none-eabi/5.4.1/../../../../arm-none-eabi/lib/armv6-m\libg_nano.a(lib_a-errno.o)
                              .\CortexM0\ARM_GCC_541\Debug\Cm0Start.o (__errno)
c:/program files (x86)/cypress/psoc creator/4.2/psoc creator/import/gnu/arm/5.4.1/bin/../lib/gcc/arm-none-eabi/5.4.1/../../../../arm-none-eabi/lib/armv6-m\libg_nano.a(lib_a-exit.o)
                              c:/program files (x86)/cypress/psoc creator/4.2/psoc creator/import/gnu/arm/5.4.1/bin/../lib/gcc/arm-none-eabi/5.4.1/../../../../arm-none-eabi/lib/armv6-m/crt0.o (exit)
c:/program files (x86)/cypress/psoc creator/4.2/psoc creator/import/gnu/arm/5.4.1/bin/../lib/gcc/arm-none-eabi/5.4.1/../../../../arm-none-eabi/lib/armv6-m\libg_nano.a(lib_a-impure.o)
                              c:/program files (x86)/cypress/psoc creator/4.2/psoc creator/import/gnu/arm/5.4.1/bin/../lib/gcc/arm-none-eabi/5.4.1/../../../../arm-none-eabi/lib/armv6-m\libg_nano.a(lib_a-exit.o) (_global_impure_ptr)
c:/program files (x86)/cypress/psoc creator/4.2/psoc creator/import/gnu/arm/5.4.1/bin/../lib/gcc/arm-none-eabi/5.4.1/../../../../arm-none-eabi/lib/armv6-m\libg_nano.a(lib_a-init.o)
                              c:/program files (x86)/cypress/psoc creator/4.2/psoc creator/import/gnu/arm/5.4.1/bin/../lib/gcc/arm-none-eabi/5.4.1/../../../../arm-none-eabi/lib/armv6-m/crt0.o (__libc_init_array)
c:/program files (x86)/cypress/psoc creator/4.2/psoc creator/import/gnu/arm/5.4.1/bin/../lib/gcc/arm-none-eabi/5.4.1/../../../../arm-none-eabi/lib/armv6-m\libg_nano.a(lib_a-memset.o)
                              c:/program files (x86)/cypress/psoc creator/4.2/psoc creator/import/gnu/arm/5.4.1/bin/../lib/gcc/arm-none-eabi/5.4.1/../../../../arm-none-eabi/lib/armv6-m/crt0.o (memset)

Allocating common symbols
Common symbol       size              file

I2C_protectBuf1     0x2               .\CortexM0\ARM_GCC_541\Debug\Lesson9_I2C.a(I2C_EZI2C.o)
I2C_curStatus       0x1               .\CortexM0\ARM_GCC_541\Debug\Lesson9_I2C.a(I2C_EZI2C.o)
I2C_indexBuf1       0x2               .\CortexM0\ARM_GCC_541\Debug\Lesson9_I2C.a(I2C_EZI2C.o)
I2C_dataBuffer1     0x4               .\CortexM0\ARM_GCC_541\Debug\Lesson9_I2C.a(I2C_EZI2C.o)
I2C_offsetBuf1      0x1               .\CortexM0\ARM_GCC_541\Debug\Lesson9_I2C.a(I2C_EZI2C.o)
I2C_bufSizeBuf1     0x2               .\CortexM0\ARM_GCC_541\Debug\Lesson9_I2C.a(I2C_EZI2C.o)
I2C_fsmState        0x1               .\CortexM0\ARM_GCC_541\Debug\Lesson9_I2C.a(I2C_EZI2C.o)
diff                0x2               .\CortexM0\ARM_GCC_541\Debug\main.o

Discarded input sections

 .text          0x00000000        0x0 c:/program files (x86)/cypress/psoc creator/4.2/psoc creator/import/gnu/arm/5.4.1/bin/../lib/gcc/arm-none-eabi/5.4.1/armv6-m/crti.o
 .data          0x00000000        0x0 c:/program files (x86)/cypress/psoc creator/4.2/psoc creator/import/gnu/arm/5.4.1/bin/../lib/gcc/arm-none-eabi/5.4.1/armv6-m/crti.o
 .bss           0x00000000        0x0 c:/program files (x86)/cypress/psoc creator/4.2/psoc creator/import/gnu/arm/5.4.1/bin/../lib/gcc/arm-none-eabi/5.4.1/armv6-m/crti.o
 .data          0x00000000        0x4 c:/program files (x86)/cypress/psoc creator/4.2/psoc creator/import/gnu/arm/5.4.1/bin/../lib/gcc/arm-none-eabi/5.4.1/armv6-m/crtbegin.o
 .text          0x00000000       0x78 c:/program files (x86)/cypress/psoc creator/4.2/psoc creator/import/gnu/arm/5.4.1/bin/../lib/gcc/arm-none-eabi/5.4.1/../../../../arm-none-eabi/lib/armv6-m/crt0.o
 .data          0x00000000        0x0 c:/program files (x86)/cypress/psoc creator/4.2/psoc creator/import/gnu/arm/5.4.1/bin/../lib/gcc/arm-none-eabi/5.4.1/../../../../arm-none-eabi/lib/armv6-m/crt0.o
 .bss           0x00000000        0x0 c:/program files (x86)/cypress/psoc creator/4.2/psoc creator/import/gnu/arm/5.4.1/bin/../lib/gcc/arm-none-eabi/5.4.1/../../../../arm-none-eabi/lib/armv6-m/crt0.o
 .ARM.extab     0x00000000        0x0 c:/program files (x86)/cypress/psoc creator/4.2/psoc creator/import/gnu/arm/5.4.1/bin/../lib/gcc/arm-none-eabi/5.4.1/../../../../arm-none-eabi/lib/armv6-m/crt0.o
 .ARM.exidx     0x00000000        0x8 c:/program files (x86)/cypress/psoc creator/4.2/psoc creator/import/gnu/arm/5.4.1/bin/../lib/gcc/arm-none-eabi/5.4.1/../../../../arm-none-eabi/lib/armv6-m/crt0.o
 .text          0x00000000        0x0 .\CortexM0\ARM_GCC_541\Debug\main.o
 .data          0x00000000        0x0 .\CortexM0\ARM_GCC_541\Debug\main.o
 .bss           0x00000000        0x4 .\CortexM0\ARM_GCC_541\Debug\main.o
 COMMON         0x00000000        0x2 .\CortexM0\ARM_GCC_541\Debug\main.o
 .text          0x00000000        0x0 .\CortexM0\ARM_GCC_541\Debug\cyfitter_cfg.o
 .data          0x00000000        0x0 .\CortexM0\ARM_GCC_541\Debug\cyfitter_cfg.o
 .bss           0x00000000        0x0 .\CortexM0\ARM_GCC_541\Debug\cyfitter_cfg.o
 .text          0x00000000        0x0 .\CortexM0\ARM_GCC_541\Debug\cymetadata.o
 .data          0x00000000        0x0 .\CortexM0\ARM_GCC_541\Debug\cymetadata.o
Memory Configuration

Name             Origin             Length             Attributes
rom              0x00000000         0x00040000         xr
ram              0x20000000         0x00008000         xrw
*default*        0x00000000         0xffffffff

Linker script and memory map

LOAD c:/program files (x86)/cypress/psoc creator/4.2/psoc creator/import/gnu/arm/5.4.1/bin/../lib/gcc/arm-none-eabi/5.4.1/armv6-m/crti.o
LOAD c:/program files (x86)/cypress/psoc creator/4.2/psoc creator/import/gnu/arm/5.4.1/bin/../lib/gcc/arm-none-eabi/5.4.1/armv6-m/crtbegin.o
LOAD c:/program files (x86)/cypress/psoc creator/4.2/psoc creator/import/gnu/arm/5.4.1/bin/../lib/gcc/arm-none-eabi/5.4.1/../../../../arm-none-eabi/lib/armv6-m/crt0.o
START GROUP
LOAD .\CortexM0\ARM_GCC_541\Debug\main.o
LOAD .\CortexM0\ARM_GCC_541\Debug\cyfitter_cfg.o
LOAD .\CortexM0\ARM_GCC_541\Debug\cymetadata.o
LOAD .\CortexM0\ARM_GCC_541\Debug\Cm0Start.o
LOAD .\CortexM0\ARM_GCC_541\Debug\Lesson9_I2C.a
END GROUP
START GROUP
LOAD c:/program files (x86)/cypress/psoc creator/4.2/psoc creator/import/gnu/arm/5.4.1/bin/../lib/gcc/arm-none-eabi/5.4.1/armv6-m\libgcc.a
LOAD c:/program files (x86)/cypress/psoc creator/4.2/psoc creator/import/gnu/arm/5.4.1/bin/../lib/gcc/arm-none-eabi/5.4.1/../../../../arm-none-eabi/lib/armv6-m\libg_nano.a
LOAD c:/program files (x86)/cypress/psoc creator/4.2/psoc creator/import/gnu/arm/5.4.1/bin/../lib/gcc/arm-none-eabi/5.4.1/../../../../arm-none-eabi/lib/armv6-m\libc_nano.a
END GROUP
START GROUP
LOAD c:/program files (x86)/cypress/psoc creator/4.2/psoc creator/import/gnu/arm/5.4.1/bin/../lib/gcc/arm-none-eabi/5.4.1/armv6-m\libgcc.a
LOAD c:/program files (x86)/cypress/psoc creator/4.2/psoc creator/import/gnu/arm/5.4.1/bin/../lib/gcc/arm-none-eabi/5.4.1/../../../../arm-none-eabi/lib/armv6-m\libc_nano.a
END GROUP
LOAD c:/program files (x86)/cypress/psoc creator/4.2/psoc creator/import/gnu/arm/5.4.1/bin/../lib/gcc/arm-none-eabi/5.4.1/armv6-m/crtend.o
LOAD c:/program files (x86)/cypress/psoc creator/4.2/psoc creator/import/gnu/arm/5.4.1/bin/../lib/gcc/arm-none-eabi/5.4.1/armv6-m/crtn.o
START GROUP
LOAD c:/program files (x86)/cypress/psoc creator/4.2/psoc creator/import/gnu/arm/5.4.1/bin/../lib/gcc/arm-none-eabi/5.4.1/armv6-m\libgcc.a
LOAD c:/program files (x86)/cypress/psoc creator/4.2/psoc creator/import/gnu/arm/5.4.1/bin/../lib/gcc/arm-none-eabi/5.4.1/../../../../arm-none-eabi/lib/armv6-m\libc.a
LOAD c:/program files (x86)/cypress/psoc creator/4.2/psoc creator/import/gnu/arm/5.4.1/bin/../lib/gcc/arm-none-eabi/5.4.1/../../../../arm-none-eabi/lib/armv6-m\libnosys.a
END GROUP
                0x00000000                CY_APPL_ORIGIN = 0x0
                0x00000100                CY_FLASH_ROW_SIZE = 0x100
                0x00000001                CY_APPL_NUM = 0x1
                0x00000001                CY_APPL_MAX = 0x1
                0x00000040                CY_METADATA_SIZE = 0x40
                0x00000000                CY_APPL_LOADABLE = 0x0
                0x00000000                CY_CHECKSUM_EXCLUDE_SIZE = ALIGN (0x0, CY_FLASH_ROW_SIZE)
                0x00000000                CY_APP_FOR_STACK_AND_COPIER = 0x0
                [!provide]                PROVIDE (__cy_heap_start, _end)
                0x00000001                PROVIDE (__cy_region_num, ((__cy_regions_end - __cy_regions) / 0x10))
                0x20008000                PROVIDE (__cy_stack, (ORIGIN (ram) + LENGTH (ram)))
                [!provide]                PROVIDE (__cy_heap_end, (__cy_stack - 0x800))

.cybootloader   0x00000000        0x0
 *(.cybootloader)
                0x00000000                appl1_start = CY_APPL_ORIGIN?CY_APPL_ORIGIN:ALIGN (CY_FLASH_ROW_SIZE)
                0x0001ff00                appl2_start = (appl1_start + ALIGN ((((LENGTH (rom) - appl1_start) - (0x2 * CY_FLASH_ROW_SIZE)) / 0x2), CY_FLASH_ROW_SIZE))
                0x00000000                appl_start = (CY_APPL_NUM == 0x1)?appl1_start:appl2_start
                0x00000001                cy_project_type_bootloader = (appl_start == 0x0)?0x1:0x0
                0x00000000                cy_project_type_app_for_stack_and_copier = (CY_APP_FOR_STACK_AND_COPIER == 0x1)?0x1:0x0

.text           0x00000000      0xee8
 CREATE_OBJECT_SYMBOLS
                0x00000000                PROVIDE (__cy_interrupt_vector, RomVectors)
 *(.romvectors)
 .romvectors    0x00000000       0x10 .\CortexM0\ARM_GCC_541\Debug\Cm0Start.o
                0x00000000                RomVectors
                0x00000001                ASSERT ((. != __cy_interrupt_vector), No interrupt vector)
                0x00000001                ASSERT (CY_APPL_ORIGIN?(SIZEOF (.cybootloader) <= CY_APPL_ORIGIN):0x1, Wrong image location)
                0x00000010                PROVIDE (__cy_reset, Reset)
 *(.text.Reset)
 .text.Reset    0x00000010        0x8 .\CortexM0\ARM_GCC_541\Debug\Cm0Start.o
                0x00000010                Reset
                0x00000001                ASSERT ((. != __cy_reset), No reset code)
 *(.psocinit)
 .psocinit      0x00000018      0x1e8 .\CortexM0\ARM_GCC_541\Debug\cyfitter_cfg.o
                0x00000118                cyfitter_cfg
                0x00000200                . = MAX (., 0x100)
 *(.text .text.* .gnu.linkonce.t.*)
 .text          0x00000200       0x60 c:/program files (x86)/cypress/psoc creator/4.2/psoc creator/import/gnu/arm/5.4.1/bin/../lib/gcc/arm-none-eabi/5.4.1/armv6-m/crtbegin.o
 .text.main     0x00000260       0x44 .\CortexM0\ARM_GCC_541\Debug\main.o
                0x00000260                main
 .text.cfg_write_bytes32
                0x000002a4       0x34 .\CortexM0\ARM_GCC_541\Debug\cyfitter_cfg.o
 .text.AnalogSetDefault
                0x000002d8       0x20 .\CortexM0\ARM_GCC_541\Debug\cyfitter_cfg.o
 .text.CYMEMZERO
                0x000002f8        0xc .\CortexM0\ARM_GCC_541\Debug\cyfitter_cfg.o
 .text.IntDefaultHandler
                0x00000304       0x10 .\CortexM0\ARM_GCC_541\Debug\Cm0Start.o
                0x00000304                IntDefaultHandler
 .text.Start_c  0x00000314       0x48 .\CortexM0\ARM_GCC_541\Debug\Cm0Start.o
                0x00000314                Start_c
 .text.initialize_psoc
                0x0000035c       0x4c .\CortexM0\ARM_GCC_541\Debug\Cm0Start.o
                0x0000035c                initialize_psoc
 .text.CySysClkEcoReadStatus
                0x000003a8       0x10 .\CortexM0\ARM_GCC_541\Debug\Lesson9_I2C.a(CyLib.o)
                0x000003a8                CySysClkEcoReadStatus
 .text.CyIntEnable
                0x000003b8       0x14 .\CortexM0\ARM_GCC_541\Debug\Lesson9_I2C.a(CyLib.o)
                0x000003b8                CyIntEnable
 .text.CyIntDisable
                0x000003cc       0x14 .\CortexM0\ARM_GCC_541\Debug\Lesson9_I2C.a(CyLib.o)
                0x000003cc                CyIntDisable
 .text.CyHalt   0x000003e0        0x4 .\CortexM0\ARM_GCC_541\Debug\Lesson9_I2C.a(CyLib.o)
                0x000003e0                CyHalt
 .text.CyIntSetVector
                0x000003e4       0x24 .\CortexM0\ARM_GCC_541\Debug\Lesson9_I2C.a(CyLib.o)
                0x000003e4                CyIntSetVector
 .text.CyIntSetPriority
                0x00000408       0x4c .\CortexM0\ARM_GCC_541\Debug\Lesson9_I2C.a(CyLib.o)
                0x00000408                CyIntSetPriority
 .text.CyDelayUs
                0x00000454       0x14 .\CortexM0\ARM_GCC_541\Debug\Lesson9_I2C.a(CyLib.o)
                0x00000454                CyDelayUs
 .text.CySysClkWriteImoFreq
                0x00000468      0x164 .\CortexM0\ARM_GCC_541\Debug\Lesson9_I2C.a(CyLib.o)
                0x00000468                CySysClkWriteImoFreq
 .text.CySysClkEcoStart
                0x000005cc       0x54 .\CortexM0\ARM_GCC_541\Debug\Lesson9_I2C.a(CyLib.o)
                0x000005cc                CySysClkEcoStart
 .text.CySysWdtLocked
                0x00000620       0x14 .\CortexM0\ARM_GCC_541\Debug\Lesson9_I2C.a(CyLFClk.o)
 .text.CySysClkWcoStart
                0x00000634       0x40 .\CortexM0\ARM_GCC_541\Debug\Lesson9_I2C.a(CyLFClk.o)
                0x00000634                CySysClkWcoStart
 .text.CySysClkWcoSetPowerMode
                0x00000674       0x80 .\CortexM0\ARM_GCC_541\Debug\Lesson9_I2C.a(CyLFClk.o)
                0x00000674                CySysClkWcoSetPowerMode
 .text.CySysWdtLock
                0x000006f4       0x1c .\CortexM0\ARM_GCC_541\Debug\Lesson9_I2C.a(CyLFClk.o)
                0x000006f4                CySysWdtLock
 .text.CySysWdtUnlock
                0x00000710       0x30 .\CortexM0\ARM_GCC_541\Debug\Lesson9_I2C.a(CyLFClk.o)
                0x00000710                CySysWdtUnlock
 .text.CySysWdtClearInterrupt
                0x00000740       0x4c .\CortexM0\ARM_GCC_541\Debug\Lesson9_I2C.a(CyLFClk.o)
                0x00000740                CySysWdtClearInterrupt
 .text.CySysWdtIsr
                0x0000078c       0xa4 .\CortexM0\ARM_GCC_541\Debug\Lesson9_I2C.a(CyLFClk.o)
                0x0000078c                CySysWdtIsr
 .text.I2C_ScbEnableIntr
                0x00000830        0xc .\CortexM0\ARM_GCC_541\Debug\Lesson9_I2C.a(I2C.o)
 .text.I2C_Init
                0x0000083c        0x8 .\CortexM0\ARM_GCC_541\Debug\Lesson9_I2C.a(I2C.o)
                0x0000083c                I2C_Init
 .text.I2C_Enable
                0x00000844       0x18 .\CortexM0\ARM_GCC_541\Debug\Lesson9_I2C.a(I2C.o)
                0x00000844                I2C_Enable
 .text.I2C_Start
                0x0000085c       0x20 .\CortexM0\ARM_GCC_541\Debug\Lesson9_I2C.a(I2C.o)
                0x0000085c                I2C_Start
 .text.I2C_EzI2CInit
                0x0000087c       0xc0 .\CortexM0\ARM_GCC_541\Debug\Lesson9_I2C.a(I2C_EZI2C.o)
                0x0000087c                I2C_EzI2CInit
 .text.I2C_EzI2CSetBuffer1
                0x0000093c       0x30 .\CortexM0\ARM_GCC_541\Debug\Lesson9_I2C.a(I2C_EZI2C.o)
                0x0000093c                I2C_EzI2CSetBuffer1
 .text.I2C_EZI2C_STRETCH_ISR
                0x0000096c      0x32c .\CortexM0\ARM_GCC_541\Debug\Lesson9_I2C.a(I2C_EZI2C_INT.o)
                0x0000096c                I2C_EZI2C_STRETCH_ISR
 .text.LED_RED_PWM_WriteCounter
                0x00000c98       0x10 .\CortexM0\ARM_GCC_541\Debug\Lesson9_I2C.a(LED_RED_PWM.o)
                0x00000c98                LED_RED_PWM_WriteCounter
 .text.LED_RED_PWM_WritePeriod
                0x00000ca8       0x10 .\CortexM0\ARM_GCC_541\Debug\Lesson9_I2C.a(LED_RED_PWM.o)
                0x00000ca8                LED_RED_PWM_WritePeriod
 .text.LED_RED_PWM_WriteCompare
                0x00000cb8       0x10 .\CortexM0\ARM_GCC_541\Debug\Lesson9_I2C.a(LED_RED_PWM.o)
                0x00000cb8                LED_RED_PWM_WriteCompare
 .text.LED_RED_PWM_TriggerCommand
                0x00000cc8       0x1c .\CortexM0\ARM_GCC_541\Debug\Lesson9_I2C.a(LED_RED_PWM.o)
                0x00000cc8                LED_RED_PWM_TriggerCommand
 .text.LED_RED_PWM_Enable
                0x00000ce4       0x24 .\CortexM0\ARM_GCC_541\Debug\Lesson9_I2C.a(LED_RED_PWM.o)
                0x00000ce4                LED_RED_PWM_Enable
 .text.LED_RED_PWM_SetInterruptMode
                0x00000d08        0xc .\CortexM0\ARM_GCC_541\Debug\Lesson9_I2C.a(LED_RED_PWM.o)
                0x00000d08                LED_RED_PWM_SetInterruptMode
 .text.LED_RED_PWM_Init
                0x00000d14       0x48 .\CortexM0\ARM_GCC_541\Debug\Lesson9_I2C.a(LED_RED_PWM.o)
                0x00000d14                LED_RED_PWM_Init
 .text.LED_RED_PWM_Start
                0x00000d5c       0x20 .\CortexM0\ARM_GCC_541\Debug\Lesson9_I2C.a(LED_RED_PWM.o)
                0x00000d5c                LED_RED_PWM_Start
 .text.LED_GREEN_PWM_WriteCounter
                0x00000d7c       0x10 .\CortexM0\ARM_GCC_541\Debug\Lesson9_I2C.a(LED_GREEN_PWM.o)
                0x00000d7c                LED_GREEN_PWM_WriteCounter
 .text.LED_GREEN_PWM_WritePeriod
                0x00000d8c       0x10 .\CortexM0\ARM_GCC_541\Debug\Lesson9_I2C.a(LED_GREEN_PWM.o)
                0x00000d8c                LED_GREEN_PWM_WritePeriod
 .text.LED_GREEN_PWM_WriteCompare
                0x00000d9c       0x10 .\CortexM0\ARM_GCC_541\Debug\Lesson9_I2C.a(LED_GREEN_PWM.o)
                0x00000d9c                LED_GREEN_PWM_WriteCompare
 .text.LED_GREEN_PWM_TriggerCommand
                0x00000dac       0x1c .\CortexM0\ARM_GCC_541\Debug\Lesson9_I2C.a(LED_GREEN_PWM.o)
                0x00000dac                LED_GREEN_PWM_TriggerCommand
 .text.LED_GREEN_PWM_Enable
                0x00000dc8       0x24 .\CortexM0\ARM_GCC_541\Debug\Lesson9_I2C.a(LED_GREEN_PWM.o)
                0x00000dc8                LED_GREEN_PWM_Enable
 .text.LED_GREEN_PWM_SetInterruptMode
                0x00000dec        0xc .\CortexM0\ARM_GCC_541\Debug\Lesson9_I2C.a(LED_GREEN_PWM.o)
                0x00000dec                LED_GREEN_PWM_SetInterruptMode
 .text.LED_GREEN_PWM_Init
                0x00000df8       0x48 .\CortexM0\ARM_GCC_541\Debug\Lesson9_I2C.a(LED_GREEN_PWM.o)
                0x00000df8                LED_GREEN_PWM_Init
 .text.LED_GREEN_PWM_Start
                0x00000e40       0x20 .\CortexM0\ARM_GCC_541\Debug\Lesson9_I2C.a(LED_GREEN_PWM.o)
                0x00000e40                LED_GREEN_PWM_Start
 .text          0x00000e60       0x20 .\CortexM0\ARM_GCC_541\Debug\Lesson9_I2C.a(CyBootAsmGnu.o)
                0x00000e60                CyDelayCycles
                0x00000e72                CyEnterCriticalSection
                0x00000e7a                CyExitCriticalSection
 .text.__errno  0x00000e80        0xc c:/program files (x86)/cypress/psoc creator/4.2/psoc creator/import/gnu/arm/5.4.1/bin/../lib/gcc/arm-none-eabi/5.4.1/../../../../arm-none-eabi/lib/armv6-m\libg_nano.a(lib_a-errno.o)
                0x00000e80                __errno
 .text.__libc_init_array
                0x00000e8c       0x4c c:/program files (x86)/cypress/psoc creator/4.2/psoc creator/import/gnu/arm/5.4.1/bin/../lib/gcc/arm-none-eabi/5.4.1/../../../../arm-none-eabi/lib/armv6-m\libg_nano.a(lib_a-init.o)
                0x00000e8c                __libc_init_array
 .text.memset   0x00000ed8       0x10 c:/program files (x86)/cypress/psoc creator/4.2/psoc creator/import/gnu/arm/5.4.1/bin/../lib/gcc/arm-none-eabi/5.4.1/../../../../arm-none-eabi/lib/armv6-m\libg_nano.a(lib_a-memset.o)
                0x00000ed8                memset
 *(.plt)
 *(.gnu.warning)
 *(.glue_7t)
 .glue_7t       0x00000ee8        0x0 linker stubs
 *(.glue_7)
 .glue_7        0x00000ee8        0x0 linker stubs
 *(.vfp11_veneer)
 .vfp11_veneer  0x00000ee8        0x0 linker stubs
 *(.bootloader)
 *(.ARM.extab* .gnu.linkonce.armextab.*)
 *(.gcc_except_table)

.v4_bx          0x00000ee8        0x0
 .v4_bx         0x00000ee8        0x0 linker stubs

.iplt           0x00000ee8        0x0
 .iplt          0x00000ee8        0x0 c:/program files (x86)/cypress/psoc creator/4.2/psoc creator/import/gnu/arm/5.4.1/bin/../lib/gcc/arm-none-eabi/5.4.1/armv6-m/crtbegin.o

.eh_frame_hdr
 *(.eh_frame_hdr)

.eh_frame       0x00000ee8        0x4
 *(.eh_frame)
 .eh_frame      0x00000ee8        0x0 c:/program files (x86)/cypress/psoc creator/4.2/psoc creator/import/gnu/arm/5.4.1/bin/../lib/gcc/arm-none-eabi/5.4.1/armv6-m/crtbegin.o
 .eh_frame      0x00000ee8        0x4 c:/program files (x86)/cypress/psoc creator/4.2/psoc creator/import/gnu/arm/5.4.1/bin/../lib/gcc/arm-none-eabi/5.4.1/armv6-m/crtend.o
                [!provide]                PROVIDE (__exidx_start, .)

.ARM.exidx
 *(.ARM.exidx* .gnu.linkonce.armexidx.*)
                0x00000eec                __exidx_end = .

.rodata         0x00000eec       0x7c
 *(.rodata .rodata.* .gnu.linkonce.r.*)
 .rodata        0x00000eec       0x18 .\CortexM0\ARM_GCC_541\Debug\cyfitter_cfg.o
 .rodata        0x00000f04       0x2e .\CortexM0\ARM_GCC_541\Debug\Lesson9_I2C.a(CyLib.o)
                0x00000f04                cyImoFreqMhz2Reg
 .rodata.str1.1
                0x00000f32        0x2 c:/program files (x86)/cypress/psoc creator/4.2/psoc creator/import/gnu/arm/5.4.1/bin/../lib/gcc/arm-none-eabi/5.4.1/../../../../arm-none-eabi/lib/armv6-m\libg_nano.a(lib_a-impure.o)
                0x00000f34                . = ALIGN (0x4)
 *(.init)
 .init          0x00000f34        0x4 c:/program files (x86)/cypress/psoc creator/4.2/psoc creator/import/gnu/arm/5.4.1/bin/../lib/gcc/arm-none-eabi/5.4.1/armv6-m/crti.o
                0x00000f34                _init
 .init          0x00000f38        0x8 c:/program files (x86)/cypress/psoc creator/4.2/psoc creator/import/gnu/arm/5.4.1/bin/../lib/gcc/arm-none-eabi/5.4.1/armv6-m/crtn.o
                0x00000f40                . = ALIGN (0x4)
                0x00000f40                __preinit_array_start = .
 *(.preinit_array)
                0x00000f40                __preinit_array_end = .
                0x00000f40                . = ALIGN (0x4)
                0x00000f40                __init_array_start = .
 *(SORT(.init_array.*))
 *(.init_array)
 .init_array    0x00000f40        0x4 c:/program files (x86)/cypress/psoc creator/4.2/psoc creator/import/gnu/arm/5.4.1/bin/../lib/gcc/arm-none-eabi/5.4.1/armv6-m/crtbegin.o
 .init_array    0x00000f44        0x4 .\CortexM0\ARM_GCC_541\Debug\Cm0Start.o
                0x00000f48                __init_array_end = .
                0x00000f48                . = ALIGN (0x4)
 *(.fini)
 .fini          0x00000f48        0x4 c:/program files (x86)/cypress/psoc creator/4.2/psoc creator/import/gnu/arm/5.4.1/bin/../lib/gcc/arm-none-eabi/5.4.1/armv6-m/crti.o
                0x00000f48                _fini
 .fini          0x00000f4c        0x8 c:/program files (x86)/cypress/psoc creator/4.2/psoc creator/import/gnu/arm/5.4.1/bin/../lib/gcc/arm-none-eabi/5.4.1/armv6-m/crtn.o
                0x00000f54                . = ALIGN (0x4)
                0x00000f54                __fini_array_start = .
 *(.fini_array)
 .fini_array    0x00000f54        0x4 c:/program files (x86)/cypress/psoc creator/4.2/psoc creator/import/gnu/arm/5.4.1/bin/../lib/gcc/arm-none-eabi/5.4.1/armv6-m/crtbegin.o
 *(SORT(.fini_array.*))
                0x00000f58                __fini_array_end = .
                0x00000f58                . = ALIGN (0x4)
 *crtbegin.o(.ctors)
 *(EXCLUDE_FILE(*crtend.o) .ctors)
 *(SORT(.ctors.*))
 *crtend.o(.ctors)
                0x00000f58                . = ALIGN (0x4)
 *crtbegin.o(.dtors)
 *(EXCLUDE_FILE(*crtend.o) .dtors)
 *(SORT(.dtors.*))
 *crtend.o(.dtors)
                0x00000f58                . = ALIGN (0x4)
                0x00000f58                __cy_regions = .
                0x00000f58        0x4 LONG 0xf68 __cy_region_init_ram
                0x00000f5c        0x4 LONG 0x200000c0 __cy_region_start_data
                0x00000f60        0x4 LONG 0x88 __cy_region_init_size_ram
                0x00000f64        0x4 LONG 0x68 __cy_region_zero_size_ram
                0x00000f68                __cy_regions_end = .
                0x00000f68                . = ALIGN (0x8)
                0x00000f68                _etext = .

.cy_checksum_exclude
                0x00000f68        0x0
 *(.cy_checksum_exclude)

.ramvectors     0x20000000       0xc0
                0x20000000                __cy_region_start_ram = .
 *(.ramvectors)
 .ramvectors    0x20000000       0xc0 .\CortexM0\ARM_GCC_541\Debug\Cm0Start.o
                0x20000000                CyRamVectors

.noinit
 *(.noinit)

.data           0x200000c0       0x88 load address 0x00000f68
                0x200000c0                __cy_region_start_data = .
 *(.jcr)
 .jcr           0x200000c0        0x0 c:/program files (x86)/cypress/psoc creator/4.2/psoc creator/import/gnu/arm/5.4.1/bin/../lib/gcc/arm-none-eabi/5.4.1/armv6-m/crtbegin.o
 .jcr           0x200000c0        0x4 c:/program files (x86)/cypress/psoc creator/4.2/psoc creator/import/gnu/arm/5.4.1/bin/../lib/gcc/arm-none-eabi/5.4.1/armv6-m/crtend.o
 *(.got.plt)
 *(.got)
 *(.shdata)
 *(.data .data.* .gnu.linkonce.d.*)
 .data          0x200000c4       0x14 .\CortexM0\ARM_GCC_541\Debug\Lesson9_I2C.a(CyLib.o)
                0x200000c4                CySysClkPumpConfig
                0x200000c8                cydelay32kMs
                0x200000cc                cydelayFreqKhz
                0x200000d0                cydelayFreqMhz
                0x200000d4                cydelayFreqHz
 .data          0x200000d8        0x8 .\CortexM0\ARM_GCC_541\Debug\Lesson9_I2C.a(CyLFClk.o)
 .data.impure_data
                0x200000e0       0x60 c:/program files (x86)/cypress/psoc creator/4.2/psoc creator/import/gnu/arm/5.4.1/bin/../lib/gcc/arm-none-eabi/5.4.1/../../../../arm-none-eabi/lib/armv6-m\libg_nano.a(lib_a-impure.o)
 .data._impure_ptr
                0x20000140        0x4 c:/program files (x86)/cypress/psoc creator/4.2/psoc creator/import/gnu/arm/5.4.1/bin/../lib/gcc/arm-none-eabi/5.4.1/../../../../arm-none-eabi/lib/armv6-m\libg_nano.a(lib_a-impure.o)
                0x20000140                _impure_ptr
                0x20000148                . = ALIGN (0x8)
 *fill*         0x20000144        0x4 
 *(.ram)
                0x20000148                _edata = .

.igot.plt       0x20000148        0x0 load address 0x00000ff0
 .igot.plt      0x20000148        0x0 c:/program files (x86)/cypress/psoc creator/4.2/psoc creator/import/gnu/arm/5.4.1/bin/../lib/gcc/arm-none-eabi/5.4.1/armv6-m/crtbegin.o

.bss            0x20000148       0x68 load address 0x00000ff0
                0x20000148                PROVIDE (__bss_start__, .)
 *(.shbss)
 *(.bss .bss.* .gnu.linkonce.b.*)
 .bss           0x20000148       0x1c c:/program files (x86)/cypress/psoc creator/4.2/psoc creator/import/gnu/arm/5.4.1/bin/../lib/gcc/arm-none-eabi/5.4.1/armv6-m/crtbegin.o
 .bss           0x20000164       0x28 .\CortexM0\ARM_GCC_541\Debug\Lesson9_I2C.a(CyLFClk.o)
 .bss           0x2000018c        0x8 .\CortexM0\ARM_GCC_541\Debug\Lesson9_I2C.a(I2C.o)
                0x2000018c                I2C_initVar
                0x20000190                I2C_customIntrHandler
 .bss           0x20000194        0x2 .\CortexM0\ARM_GCC_541\Debug\Lesson9_I2C.a(I2C_EZI2C_INT.o)
 .bss           0x20000196        0x1 .\CortexM0\ARM_GCC_541\Debug\Lesson9_I2C.a(LED_RED_PWM.o)
                0x20000196                LED_RED_PWM_initVar
 .bss           0x20000197        0x1 .\CortexM0\ARM_GCC_541\Debug\Lesson9_I2C.a(LED_GREEN_PWM.o)
                0x20000197                LED_GREEN_PWM_initVar
 *(COMMON)
 COMMON         0x20000198       0x11 .\CortexM0\ARM_GCC_541\Debug\Lesson9_I2C.a(I2C_EZI2C.o)
                0x20000198                I2C_protectBuf1
                0x2000019a                I2C_curStatus
                0x2000019c                I2C_indexBuf1
                0x200001a0                I2C_dataBuffer1
                0x200001a4                I2C_offsetBuf1
                0x200001a6                I2C_bufSizeBuf1
                0x200001a8                I2C_fsmState
                0x200001b0                . = ALIGN (0x8)
 *fill*         0x200001a9        0x7 
 *(.ram.b)
                0x200001b0                _end = .
                0x200001b0                __end = .
                0x200001b0                PROVIDE (end, .)
                0x200001b0                PROVIDE (__bss_end__, .)
                0x00000f68                __cy_region_init_ram = LOADADDR (.data)
                0x00000088                __cy_region_init_size_ram = (_edata - ADDR (.data))
                0x00000068                __cy_region_zero_size_ram = (_end - _edata)

.heap           0x200001b0       0x80 load address 0x00000ff0
                0x200001b0                . = _end
                0x20000230                . = (. + 0x80)
 *fill*         0x200001b0       0x80 
                0x20000230                __cy_heap_limit = .

.stack          0x20007800      0x800
                0x20007800                __cy_stack_limit = .
                0x20008000                . = (. + 0x800)
 *fill*         0x20007800      0x800 
                0x00000001                ASSERT ((__cy_stack_limit >= __cy_heap_limit), region RAM overflowed with stack)
                0x00000000                cy_checksum_exclude_size = (CY_APPL_LOADABLE == 0x1)?SIZEOF (.cy_checksum_exclude):0x0
                0x00000001                ASSERT ((cy_checksum_exclude_size <= CY_CHECKSUM_EXCLUDE_SIZE), CY_BOOT: Section .cy_checksum_exclude size exceedes specified limit.)
                0x0003ffc0                cyloadermeta_start = (cy_project_type_bootloader || cy_project_type_app_for_stack_and_copier)?(LENGTH (rom) - CY_METADATA_SIZE):0xf0000000

.cyloadermeta
 *(.cyloadermeta)
                0x0003ffc0                cyloadablemeta_start = cy_project_type_app_for_stack_and_copier?((LENGTH (rom) - CY_FLASH_ROW_SIZE) - CY_METADATA_SIZE):((LENGTH (rom) - (CY_FLASH_ROW_SIZE * (CY_APPL_NUM - 0x1))) - CY_METADATA_SIZE)

.cyloadablemeta
 *(.cyloadablemeta)

.cyflashprotect
                0x90400000       0x80
 *(.cyflashprotect)
 .cyflashprotect
                0x90400000       0x80 .\CortexM0\ARM_GCC_541\Debug\cymetadata.o
                0x90400000                cy_meta_flashprotect

.cymeta         0x90500000        0xc
 *(.cymeta)
 .cymeta        0x90500000        0xc .\CortexM0\ARM_GCC_541\Debug\cymetadata.o
                0x90500000                cy_metadata

.cychipprotect  0x90600000        0x1
 *(.cychipprotect)
 .cychipprotect
                0x90600000        0x1 .\CortexM0\ARM_GCC_541\Debug\cymetadata.o
                0x90600000                cy_meta_chipprotect

.rel.dyn        0x00000ff0        0x0 load address 0x90600004
 .rel.iplt      0x00000ff0        0x0 c:/program files (x86)/cypress/psoc creator/4.2/psoc creator/import/gnu/arm/5.4.1/bin/../lib/gcc/arm-none-eabi/5.4.1/armv6-m/crtbegin.o

.stab
 *(.stab)

.stabstr
 *(.stabstr)

.debug
 *(.debug)

.line
 *(.line)

.debug_srcinfo
 *(.debug_srcinfo)

.debug_sfnames
 *(.debug_sfnames)

.debug_aranges  0x00000000      0x7b8
 *(.debug_aranges)
 .debug_aranges
                0x00000000       0x20 .\CortexM0\ARM_GCC_541\Debug\main.o
 .debug_aranges
                0x00000020       0x40 .\CortexM0\ARM_GCC_541\Debug\cyfitter_cfg.o
 .debug_aranges
                0x00000060       0x18 .\CortexM0\ARM_GCC_541\Debug\cymetadata.o
 .debug_aranges
                0x00000078       0x48 .\CortexM0\ARM_GCC_541\Debug\Cm0Start.o
 .debug_aranges
                0x000000c0      0x1d0 .\CortexM0\ARM_GCC_541\Debug\Lesson9_I2C.a(CyLib.o)
 .debug_aranges
                0x00000290      0x188 .\CortexM0\ARM_GCC_541\Debug\Lesson9_I2C.a(CyLFClk.o)
 .debug_aranges
                0x00000418       0x60 .\CortexM0\ARM_GCC_541\Debug\Lesson9_I2C.a(I2C.o)
 .debug_aranges
                0x00000478       0x50 .\CortexM0\ARM_GCC_541\Debug\Lesson9_I2C.a(I2C_EZI2C.o)
 .debug_aranges
                0x000004c8       0x20 .\CortexM0\ARM_GCC_541\Debug\Lesson9_I2C.a(I2C_EZI2C_INT.o)
 .debug_aranges
                0x000004e8      0x158 .\CortexM0\ARM_GCC_541\Debug\Lesson9_I2C.a(LED_RED_PWM.o)
 .debug_aranges
                0x00000640      0x158 .\CortexM0\ARM_GCC_541\Debug\Lesson9_I2C.a(LED_GREEN_PWM.o)
 .debug_aranges
                0x00000798       0x20 .\CortexM0\ARM_GCC_541\Debug\Lesson9_I2C.a(CyBootAsmGnu.o)

.debug_pubnames
 *(.debug_pubnames)

.debug_info     0x00000000     0x429b
 *(.debug_info .gnu.linkonce.wi.*)
 .debug_info    0x00000000      0x1d3 .\CortexM0\ARM_GCC_541\Debug\main.o
 .debug_info    0x000001d3      0x450 .\CortexM0\ARM_GCC_541\Debug\cyfitter_cfg.o
 .debug_info    0x00000623       0xf8 .\CortexM0\ARM_GCC_541\Debug\cymetadata.o
 .debug_info    0x0000071b      0x3a2 .\CortexM0\ARM_GCC_541\Debug\Cm0Start.o
 .debug_info    0x00000abd      0xd2b .\CortexM0\ARM_GCC_541\Debug\Lesson9_I2C.a(CyLib.o)
 .debug_info    0x000017e8     0x1071 .\CortexM0\ARM_GCC_541\Debug\Lesson9_I2C.a(CyLFClk.o)
 .debug_info    0x00002859      0x298 .\CortexM0\ARM_GCC_541\Debug\Lesson9_I2C.a(I2C.o)
 .debug_info    0x00002af1      0x319 .\CortexM0\ARM_GCC_541\Debug\Lesson9_I2C.a(I2C_EZI2C.o)
 .debug_info    0x00002e0a      0x1e4 .\CortexM0\ARM_GCC_541\Debug\Lesson9_I2C.a(I2C_EZI2C_INT.o)
 .debug_info    0x00002fee      0x909 .\CortexM0\ARM_GCC_541\Debug\Lesson9_I2C.a(LED_RED_PWM.o)
 .debug_info    0x000038f7      0x909 .\CortexM0\ARM_GCC_541\Debug\Lesson9_I2C.a(LED_GREEN_PWM.o)
 .debug_info    0x00004200       0x9b .\CortexM0\ARM_GCC_541\Debug\Lesson9_I2C.a(CyBootAsmGnu.o)

.debug_abbrev   0x00000000      0xe4a
 *(.debug_abbrev)
 .debug_abbrev  0x00000000       0xe8 .\CortexM0\ARM_GCC_541\Debug\main.o
 .debug_abbrev  0x000000e8      0x1af .\CortexM0\ARM_GCC_541\Debug\cyfitter_cfg.o
 .debug_abbrev  0x00000297       0x5d .\CortexM0\ARM_GCC_541\Debug\cymetadata.o
 .debug_abbrev  0x000002f4      0x1d7 .\CortexM0\ARM_GCC_541\Debug\Cm0Start.o
 .debug_abbrev  0x000004cb      0x1e0 .\CortexM0\ARM_GCC_541\Debug\Lesson9_I2C.a(CyLib.o)
 .debug_abbrev  0x000006ab      0x248 .\CortexM0\ARM_GCC_541\Debug\Lesson9_I2C.a(CyLFClk.o)
 .debug_abbrev  0x000008f3      0x118 .\CortexM0\ARM_GCC_541\Debug\Lesson9_I2C.a(I2C.o)
 .debug_abbrev  0x00000a0b      0x13a .\CortexM0\ARM_GCC_541\Debug\Lesson9_I2C.a(I2C_EZI2C.o)
 .debug_abbrev  0x00000b45       0xbf .\CortexM0\ARM_GCC_541\Debug\Lesson9_I2C.a(I2C_EZI2C_INT.o)
 .debug_abbrev  0x00000c04      0x119 .\CortexM0\ARM_GCC_541\Debug\Lesson9_I2C.a(LED_RED_PWM.o)
 .debug_abbrev  0x00000d1d      0x119 .\CortexM0\ARM_GCC_541\Debug\Lesson9_I2C.a(LED_GREEN_PWM.o)
 .debug_abbrev  0x00000e36       0x14 .\CortexM0\ARM_GCC_541\Debug\Lesson9_I2C.a(CyBootAsmGnu.o)

.debug_line     0x00000000     0x1baa
 *(.debug_line)
 .debug_line    0x00000000       0xab .\CortexM0\ARM_GCC_541\Debug\main.o
 .debug_line    0x000000ab      0x192 .\CortexM0\ARM_GCC_541\Debug\cyfitter_cfg.o
 .debug_line    0x0000023d      0x141 .\CortexM0\ARM_GCC_541\Debug\cymetadata.o
 .debug_line    0x0000037e      0x236 .\CortexM0\ARM_GCC_541\Debug\Cm0Start.o
 .debug_line    0x000005b4      0x553 .\CortexM0\ARM_GCC_541\Debug\Lesson9_I2C.a(CyLib.o)
 .debug_line    0x00000b07      0x5db .\CortexM0\ARM_GCC_541\Debug\Lesson9_I2C.a(CyLFClk.o)
 .debug_line    0x000010e2      0x124 .\CortexM0\ARM_GCC_541\Debug\Lesson9_I2C.a(I2C.o)
 .debug_line    0x00001206      0x101 .\CortexM0\ARM_GCC_541\Debug\Lesson9_I2C.a(I2C_EZI2C.o)
 .debug_line    0x00001307      0x131 .\CortexM0\ARM_GCC_541\Debug\Lesson9_I2C.a(I2C_EZI2C_INT.o)
 .debug_line    0x00001438      0x384 .\CortexM0\ARM_GCC_541\Debug\Lesson9_I2C.a(LED_RED_PWM.o)
 .debug_line    0x000017bc      0x386 .\CortexM0\ARM_GCC_541\Debug\Lesson9_I2C.a(LED_GREEN_PWM.o)
 .debug_line    0x00001b42       0x68 .\CortexM0\ARM_GCC_541\Debug\Lesson9_I2C.a(CyBootAsmGnu.o)

.debug_frame    0x00000000     0x14a8
 *(.debug_frame)
 .debug_frame   0x00000000       0x30 .\CortexM0\ARM_GCC_541\Debug\main.o
 .debug_frame   0x00000030       0x9c .\CortexM0\ARM_GCC_541\Debug\cyfitter_cfg.o
 .debug_frame   0x000000cc       0xbc .\CortexM0\ARM_GCC_541\Debug\Cm0Start.o
 .debug_frame   0x00000188      0x4a4 .\CortexM0\ARM_GCC_541\Debug\Lesson9_I2C.a(CyLib.o)
 .debug_frame   0x0000062c      0x4a8 .\CortexM0\ARM_GCC_541\Debug\Lesson9_I2C.a(CyLFClk.o)
 .debug_frame   0x00000ad4       0xe8 .\CortexM0\ARM_GCC_541\Debug\Lesson9_I2C.a(I2C.o)
 .debug_frame   0x00000bbc       0xa8 .\CortexM0\ARM_GCC_541\Debug\Lesson9_I2C.a(I2C_EZI2C.o)
 .debug_frame   0x00000c64       0x30 .\CortexM0\ARM_GCC_541\Debug\Lesson9_I2C.a(I2C_EZI2C_INT.o)
 .debug_frame   0x00000c94      0x3a0 .\CortexM0\ARM_GCC_541\Debug\Lesson9_I2C.a(LED_RED_PWM.o)
 .debug_frame   0x00001034      0x3a0 .\CortexM0\ARM_GCC_541\Debug\Lesson9_I2C.a(LED_GREEN_PWM.o)
 .debug_frame   0x000013d4       0x20 c:/program files (x86)/cypress/psoc creator/4.2/psoc creator/import/gnu/arm/5.4.1/bin/../lib/gcc/arm-none-eabi/5.4.1/armv6-m\libgcc.a(_udivsi3.o)
 .debug_frame   0x000013f4       0x20 c:/program files (x86)/cypress/psoc creator/4.2/psoc creator/import/gnu/arm/5.4.1/bin/../lib/gcc/arm-none-eabi/5.4.1/armv6-m\libgcc.a(_divsi3.o)
 .debug_frame   0x00001414       0x20 c:/program files (x86)/cypress/psoc creator/4.2/psoc creator/import/gnu/arm/5.4.1/bin/../lib/gcc/arm-none-eabi/5.4.1/../../../../arm-none-eabi/lib/armv6-m\libg_nano.a(lib_a-errno.o)
 .debug_frame   0x00001434       0x28 c:/program files (x86)/cypress/psoc creator/4.2/psoc creator/import/gnu/arm/5.4.1/bin/../lib/gcc/arm-none-eabi/5.4.1/../../../../arm-none-eabi/lib/armv6-m\libg_nano.a(lib_a-exit.o)
 .debug_frame   0x0000145c       0x2c c:/program files (x86)/cypress/psoc creator/4.2/psoc creator/import/gnu/arm/5.4.1/bin/../lib/gcc/arm-none-eabi/5.4.1/../../../../arm-none-eabi/lib/armv6-m\libg_nano.a(lib_a-init.o)
 .debug_frame   0x00001488       0x20 c:/program files (x86)/cypress/psoc creator/4.2/psoc creator/import/gnu/arm/5.4.1/bin/../lib/gcc/arm-none-eabi/5.4.1/../../../../arm-none-eabi/lib/armv6-m\libg_nano.a(lib_a-memset.o)

.debug_str      0x00000000     0x1d82
 *(.debug_str)
 .debug_str     0x00000000      0x207 .\CortexM0\ARM_GCC_541\Debug\main.o
                                0x247 (size before relaxing)
 .debug_str     0x00000207      0x17d .\CortexM0\ARM_GCC_541\Debug\cyfitter_cfg.o
                                0x333 (size before relaxing)
 .debug_str     0x00000384       0x63 .\CortexM0\ARM_GCC_541\Debug\cymetadata.o
                                0x1d3 (size before relaxing)
 .debug_str     0x000003e7      0x13a .\CortexM0\ARM_GCC_541\Debug\Cm0Start.o
                                0x30c (size before relaxing)
 .debug_str     0x00000521      0x5d7 .\CortexM0\ARM_GCC_541\Debug\Lesson9_I2C.a(CyLib.o)
                                0x803 (size before relaxing)
 .debug_str     0x00000af8      0x6ec .\CortexM0\ARM_GCC_541\Debug\Lesson9_I2C.a(CyLFClk.o)
                                0x943 (size before relaxing)
 .debug_str     0x000011e4       0xff .\CortexM0\ARM_GCC_541\Debug\Lesson9_I2C.a(I2C.o)
                                0x2cd (size before relaxing)
 .debug_str     0x000012e3      0x10d .\CortexM0\ARM_GCC_541\Debug\Lesson9_I2C.a(I2C_EZI2C.o)
                                0x325 (size before relaxing)
 .debug_str     0x000013f0       0x93 .\CortexM0\ARM_GCC_541\Debug\Lesson9_I2C.a(I2C_EZI2C_INT.o)
                                0x2c5 (size before relaxing)
 .debug_str     0x00001483      0x4b7 .\CortexM0\ARM_GCC_541\Debug\Lesson9_I2C.a(LED_RED_PWM.o)
                                0x6b8 (size before relaxing)
 .debug_str     0x0000193a      0x448 .\CortexM0\ARM_GCC_541\Debug\Lesson9_I2C.a(LED_GREEN_PWM.o)
                                0x70c (size before relaxing)

.debug_loc      0x00000000     0x259b
 *(.debug_loc)
 .debug_loc     0x00000000       0x48 .\CortexM0\ARM_GCC_541\Debug\main.o
 .debug_loc     0x00000048      0x118 .\CortexM0\ARM_GCC_541\Debug\cyfitter_cfg.o
 .debug_loc     0x00000160      0x14f .\CortexM0\ARM_GCC_541\Debug\Cm0Start.o
 .debug_loc     0x000002af      0x818 .\CortexM0\ARM_GCC_541\Debug\Lesson9_I2C.a(CyLib.o)
 .debug_loc     0x00000ac7      0xdaa .\CortexM0\ARM_GCC_541\Debug\Lesson9_I2C.a(CyLFClk.o)
 .debug_loc     0x00001871       0x7e .\CortexM0\ARM_GCC_541\Debug\Lesson9_I2C.a(I2C.o)
 .debug_loc     0x000018ef       0xec .\CortexM0\ARM_GCC_541\Debug\Lesson9_I2C.a(I2C_EZI2C.o)
 .debug_loc     0x000019db      0x132 .\CortexM0\ARM_GCC_541\Debug\Lesson9_I2C.a(I2C_EZI2C_INT.o)
 .debug_loc     0x00001b0d      0x547 .\CortexM0\ARM_GCC_541\Debug\Lesson9_I2C.a(LED_RED_PWM.o)
 .debug_loc     0x00002054      0x547 .\CortexM0\ARM_GCC_541\Debug\Lesson9_I2C.a(LED_GREEN_PWM.o)

.debug_macinfo
 *(.debug_macinfo)

.debug_ranges   0x00000000      0x6e0
 *(.debug_ranges)
 .debug_ranges  0x00000000       0x10 .\CortexM0\ARM_GCC_541\Debug\main.o
 .debug_ranges  0x00000010       0x30 .\CortexM0\ARM_GCC_541\Debug\cyfitter_cfg.o
 .debug_ranges  0x00000040       0x38 .\CortexM0\ARM_GCC_541\Debug\Cm0Start.o
 .debug_ranges  0x00000078      0x1c0 .\CortexM0\ARM_GCC_541\Debug\Lesson9_I2C.a(CyLib.o)
 .debug_ranges  0x00000238      0x178 .\CortexM0\ARM_GCC_541\Debug\Lesson9_I2C.a(CyLFClk.o)
 .debug_ranges  0x000003b0       0x50 .\CortexM0\ARM_GCC_541\Debug\Lesson9_I2C.a(I2C.o)
 .debug_ranges  0x00000400       0x40 .\CortexM0\ARM_GCC_541\Debug\Lesson9_I2C.a(I2C_EZI2C.o)
 .debug_ranges  0x00000440       0x10 .\CortexM0\ARM_GCC_541\Debug\Lesson9_I2C.a(I2C_EZI2C_INT.o)
 .debug_ranges  0x00000450      0x148 .\CortexM0\ARM_GCC_541\Debug\Lesson9_I2C.a(LED_RED_PWM.o)
 .debug_ranges  0x00000598      0x148 .\CortexM0\ARM_GCC_541\Debug\Lesson9_I2C.a(LED_GREEN_PWM.o)

.comment        0x00000000       0x6e
 .comment       0x00000000       0x6e .\CortexM0\ARM_GCC_541\Debug\main.o
                                 0x6f (size before relaxing)
 .comment       0x0000006e       0x6f .\CortexM0\ARM_GCC_541\Debug\cyfitter_cfg.o
 .comment       0x0000006e       0x6f .\CortexM0\ARM_GCC_541\Debug\cymetadata.o
 .comment       0x0000006e       0x6f .\CortexM0\ARM_GCC_541\Debug\Cm0Start.o
 .comment       0x0000006e       0x6f .\CortexM0\ARM_GCC_541\Debug\Lesson9_I2C.a(CyLib.o)
 .comment       0x0000006e       0x6f .\CortexM0\ARM_GCC_541\Debug\Lesson9_I2C.a(CyLFClk.o)
 .comment       0x0000006e       0x6f .\CortexM0\ARM_GCC_541\Debug\Lesson9_I2C.a(I2C.o)
 .comment       0x0000006e       0x6f .\CortexM0\ARM_GCC_541\Debug\Lesson9_I2C.a(I2C_EZI2C.o)
 .comment       0x0000006e       0x6f .\CortexM0\ARM_GCC_541\Debug\Lesson9_I2C.a(I2C_EZI2C_INT.o)
 .comment       0x0000006e       0x6f .\CortexM0\ARM_GCC_541\Debug\Lesson9_I2C.a(LED_RED_PWM.o)
 .comment       0x0000006e       0x6f .\CortexM0\ARM_GCC_541\Debug\Lesson9_I2C.a(LED_GREEN_PWM.o)

.debug_weaknames
 *(.debug_weaknames)

.debug_funcnames
 *(.debug_funcnames)

.debug_typenames
 *(.debug_typenames)

.debug_varnames
 *(.debug_varnames)

.note.gnu.arm.ident
 *(.note.gnu.arm.ident)

.ARM.attributes
                0x00000000       0x28
 *(.ARM.attributes)
 .ARM.attributes
                0x00000000       0x1e c:/program files (x86)/cypress/psoc creator/4.2/psoc creator/import/gnu/arm/5.4.1/bin/../lib/gcc/arm-none-eabi/5.4.1/armv6-m/crti.o
 .ARM.attributes
                0x0000001e       0x2c c:/program files (x86)/cypress/psoc creator/4.2/psoc creator/import/gnu/arm/5.4.1/bin/../lib/gcc/arm-none-eabi/5.4.1/armv6-m/crtbegin.o
 .ARM.attributes
                0x0000004a       0x1b c:/program files (x86)/cypress/psoc creator/4.2/psoc creator/import/gnu/arm/5.4.1/bin/../lib/gcc/arm-none-eabi/5.4.1/../../../../arm-none-eabi/lib/armv6-m/crt0.o
 .ARM.attributes
                0x00000065       0x31 .\CortexM0\ARM_GCC_541\Debug\main.o
 .ARM.attributes
                0x00000096       0x31 .\CortexM0\ARM_GCC_541\Debug\cyfitter_cfg.o
 .ARM.attributes
                0x000000c7       0x31 .\CortexM0\ARM_GCC_541\Debug\cymetadata.o
 .ARM.attributes
                0x000000f8       0x31 .\CortexM0\ARM_GCC_541\Debug\Cm0Start.o
 .ARM.attributes
                0x00000129       0x31 .\CortexM0\ARM_GCC_541\Debug\Lesson9_I2C.a(CyLib.o)
 .ARM.attributes
                0x0000015a       0x31 .\CortexM0\ARM_GCC_541\Debug\Lesson9_I2C.a(CyLFClk.o)
 .ARM.attributes
                0x0000018b       0x31 .\CortexM0\ARM_GCC_541\Debug\Lesson9_I2C.a(I2C.o)
 .ARM.attributes
                0x000001bc       0x31 .\CortexM0\ARM_GCC_541\Debug\Lesson9_I2C.a(I2C_EZI2C.o)
 .ARM.attributes
                0x000001ed       0x31 .\CortexM0\ARM_GCC_541\Debug\Lesson9_I2C.a(I2C_EZI2C_INT.o)
 .ARM.attributes
                0x0000021e       0x31 .\CortexM0\ARM_GCC_541\Debug\Lesson9_I2C.a(LED_RED_PWM.o)
 .ARM.attributes
                0x0000024f       0x31 .\CortexM0\ARM_GCC_541\Debug\Lesson9_I2C.a(LED_GREEN_PWM.o)
 .ARM.attributes
                0x00000280       0x21 .\CortexM0\ARM_GCC_541\Debug\Lesson9_I2C.a(CyBootAsmGnu.o)
 .ARM.attributes
                0x000002a1       0x1e c:/program files (x86)/cypress/psoc creator/4.2/psoc creator/import/gnu/arm/5.4.1/bin/../lib/gcc/arm-none-eabi/5.4.1/armv6-m\libgcc.a(_udivsi3.o)
 .ARM.attributes
                0x000002bf       0x1e c:/program files (x86)/cypress/psoc creator/4.2/psoc creator/import/gnu/arm/5.4.1/bin/../lib/gcc/arm-none-eabi/5.4.1/armv6-m\libgcc.a(_divsi3.o)
 .ARM.attributes
                0x000002dd       0x1e c:/program files (x86)/cypress/psoc creator/4.2/psoc creator/import/gnu/arm/5.4.1/bin/../lib/gcc/arm-none-eabi/5.4.1/armv6-m\libgcc.a(_dvmd_tls.o)
 .ARM.attributes
                0x000002fb       0x2c c:/program files (x86)/cypress/psoc creator/4.2/psoc creator/import/gnu/arm/5.4.1/bin/../lib/gcc/arm-none-eabi/5.4.1/../../../../arm-none-eabi/lib/armv6-m\libg_nano.a(lib_a-errno.o)
 .ARM.attributes
                0x00000327       0x2c c:/program files (x86)/cypress/psoc creator/4.2/psoc creator/import/gnu/arm/5.4.1/bin/../lib/gcc/arm-none-eabi/5.4.1/../../../../arm-none-eabi/lib/armv6-m\libg_nano.a(lib_a-exit.o)
 .ARM.attributes
                0x00000353       0x2c c:/program files (x86)/cypress/psoc creator/4.2/psoc creator/import/gnu/arm/5.4.1/bin/../lib/gcc/arm-none-eabi/5.4.1/../../../../arm-none-eabi/lib/armv6-m\libg_nano.a(lib_a-impure.o)
 .ARM.attributes
                0x0000037f       0x2c c:/program files (x86)/cypress/psoc creator/4.2/psoc creator/import/gnu/arm/5.4.1/bin/../lib/gcc/arm-none-eabi/5.4.1/../../../../arm-none-eabi/lib/armv6-m\libg_nano.a(lib_a-init.o)
 .ARM.attributes
                0x000003ab       0x2c c:/program files (x86)/cypress/psoc creator/4.2/psoc creator/import/gnu/arm/5.4.1/bin/../lib/gcc/arm-none-eabi/5.4.1/../../../../arm-none-eabi/lib/armv6-m\libg_nano.a(lib_a-memset.o)
 .ARM.attributes
                0x000003d7       0x2c c:/program files (x86)/cypress/psoc creator/4.2/psoc creator/import/gnu/arm/5.4.1/bin/../lib/gcc/arm-none-eabi/5.4.1/armv6-m/crtend.o
 .ARM.attributes
                0x00000403       0x1e c:/program files (x86)/cypress/psoc creator/4.2/psoc creator/import/gnu/arm/5.4.1/bin/../lib/gcc/arm-none-eabi/5.4.1/armv6-m/crtn.o

/DISCARD/
 *(.note.GNU-stack)
OUTPUT(C:\Users\ORA\OneDrive - PetNovations\Cypress - BLE\Lessons\Lesson9_I2C.cydsn\CortexM0\ARM_GCC_541\Debug\Lesson9_I2C.elf elf32-littlearm)
